:060000000A128A110E280D
:10000800FE00030EF7000408F8000A08F9000A16B3
:100018008A1582280A128A111128831603170630B6
:10002800CB000230CC00CD000530CE000030CF0030
:100038000330D0000530D1000130D2000430D300A5
:100048000630D4000230D5000430D6000130D70085
:10005800D800D900DA000430DB000130DC000330BE
:10006800DD00DE000230DF008130E000E100E20068
:10007800E300E400E5000313FF30EF00903083173E
:100088008400CB300A128A11F3270A128A11103021
:10009800840040300A128A11F3270A128A11A0300C
:1000A80083138400EF300A128A11F3278312EC01BC
:1000B800ED01EE01EF01FC01FD01F001F101F2019A
:1000C800F30183010A128A112E2EFF0000308A00E4
:1000D8007F0882076E280A128A11A3280A168A1135
:1000E8008A2A0A128A1524280A128A119F280A16AF
:1000F8008A1500280A168A11322D0A128A110C2A2A
:100108000A168A116F2A0A128A15F5290A168A15FB
:1001180058280A168A1538280A168A1506280A122F
:100128008A15E9290A168A153B2C0A128A15052B05
:100138000A168A151F280330DF00A030B12883165D
:10014800E318AA288312E301E30AAD2802308312D8
:10015800E3006308DF00B830B128E20080300A12FB
:100168008A1580250A128A11633083120313A000AE
:100178009230A100C830A2010A128A1544270A1237
:100188008A11EE001E30A0009230A1005F08A20084
:100198006E08C83E0A128A1544270A128A11EE0709
:1001A8006E08A9000830AA00C830AB010A128A15E7
:1001B800EF260A128A11D301D30A6208F425C03047
:1001C8000A128A1580250A128A110629D3016208A3
:1001D80021210A128A11D301D30A6208F7240A12CC
:1001E8008A111B29CC0162080A128A1567210A1292
:1001F8008A11D301D30A62080A128A1501200A1249
:100208008A111B290230FA00EE30BF240A128A1123
:10021800E000E1016108003A031913291B2960086D
:10022800003A0319EA28013A0319F6281B2962083B
:10023800B30000300A168A15DB2FDA00B9210A123A
:100248008A113A08D9003908D8005A08063E8400AD
:1002580083170008D400840A0008D500003055022E
:10026800053003195402031C402900305902033099
:100278000319580203184C296930A0009230A100D4
:10028800C830A2010A128A1544270A128A117F2946
:100298005808AC005908AD00AE01AF015A08063E37
:1002A80084000008D400840A0008D5005408A0007F
:1002B8005508A1006430A201A301A400A501A6016C
:1002C800A70186210A128A112308B3002208B20066
:1002D8002108B1002008B00000230A128A112D0855
:1002E800D7002C08D6005708CD005608CC00C830D7
:1002F800B9250A128A11EE000330B0005308B10084
:100308006E08A92DA801A901AA01AB01201CA029EA
:100318002408A807250803110318013E031DA9078F
:10032800260803110318013E031DAA072708031115
:100338000318013E031DAB070310A40DA50DA60D60
:10034800A70D0310A30CA20CA10CA00C23082204D7
:1003580021042004031D8A292B08A3002A08A200CF
:100368002908A1002808A0000800BD008400831700
:100378000008A700840A0008A8000A30A900AA01FA
:10038800F3212808BA002708B90083160A168A1527
:10039800F8270A128A11AE01AF013D08023E840017
:1003A80083170008BB00840A0008BC003B08A000B3
:1003B8003C08A1000A30A201A301A400A501A601DE
:1003C800A70186210A168A11D6270A128A11002344
:1003D8002C08B9070318BA0A2D08BA070800FA0149
:1003E800FB01271CFD292908FA070318FB0A2A081C
:1003F800FB070310A90DAA0D0310A80CA70C2708CA
:100408002804031DF5297B08A8007A08A70008001E
:100418000530FA006F30BF2480300A128A15802513
:100428000A128A110A128A15ED270A128A116F0810
:10043800013EA200C8300A128A1544270A128A11FE
:100448000A128A15DE270A128A110A128A15EF265D
:100458000A128A116F08031D3B2A1A30D300D122D1
:100468000A128A117B08CE007A08CD004C2A6F0840
:10047800CC000310CC0D0310CC0D03104C0D123E14
:10048800D300840083170008CD00840A0008CE003A
:100498004D08C5004E0823260A128A1592270A120B
:1004A8008A11EE006F0803195B2A08305C2A0530B0
:1004B800CF00A9006E08EB24EE076E08C83E840042
:1004C800203083138000C030EE0A0A128A15802576
:1004D8000A128A1119260A128A15EF260A128A1197
:1004E8005308033E840083170008D000840A0008DC
:1004F800D100840A0008D200C8300A128A15802563
:100508000A128A11831203135108B0005208B1006D
:1005180050080A168A1171270A128A115C30B00035
:100528009230B10048230A128A11003A03190800D0
:100538003A3097230A128A1183126F080319A62AE0
:100548006F0BB52A031714309001910192019301A2
:10055800840083178001840A8001840A8001840A48
:10056800800103135308840083178001840A8001E3
:100578005308033E840003173D0880000313530803
:10058800043E840003173E08800003135308053E09
:10059800840003173F088000080083160313631DB7
:1005A800E52A83120130AF01AE007730AD00043088
:1005B800AC01103E0B260A128A1100230A128A1176
:1005C800292E83120730AF01AE01AD000830AC0010
:1005D800031713080313B300031712080313B20019
:1005E800031711080313B100031710080313B00011
:1005F80000230A128A11292EB401B501B601B701E8
:100608002F082E042D042C0403193F2BB801B80A17
:10061800AF1B142B0310AC0DAD0DAE0DAF0D0B2B96
:100628000310B40DB50DB60DB70D2F083302031D19
:10063800272B2E083202031D272B2D083102031DFC
:10064800272B2C083002031C392B2C08B0022D084C
:10065800031C2D0FB1022E08031C2E0FB2022F0807
:10066800031C2F0FB30234140310AF0CAE0CAD0CE7
:10067800AC0CB80B142B3708AF003608AE003508A1
:10068800AD003408AC000800B201731D832BF312CF
:100698007312F3117311862380300A128A1580258C
:1006A8000A128A11831203133008A0003108A1002E
:1006B800C830A2010A128A1544270A128A11A90011
:1006C8001030AA000230AB00C8300A128A15EF2693
:1006D8000A128A1172138316B5010230B600772BFD
:1006E800F31E731A792B721F742B731E7E2B8312C1
:1006F800B201B20AF3127312F31173117314831255
:100708003208080001300A128A1580250A128A1157
:100718000A3083120313A500DD30A400A40B922B2A
:10072800A50B922B080083120313A50085240A1237
:100738008A11D0306A240A128A1100306A240A12F7
:100748008A11043083120313A300A30BA92BAC2B2B
:1007580085240A128A11D1306A240A128A110030BB
:1007680011240A128A11A4002508840000301124DB
:100778000A128A1183178000250A84000030112488
:100788000A128A11831780002508023E840000306F
:1007980011240A128A11831780002508033E840059
:1007A800003011240A128A11831780002508043E9C
:1007B8008400003011240A128A118317800025084A
:1007C800053E8400803011240A128A1183178000A4
:1007D800DC240A128A118312A41F08002508840049
:1007E800093083178000250A840017308000250807
:1007F800023E84008001800A2508033E84001530EB
:1008080080002508043E8400053080002508053E48
:100818008400223080002508292CA0000830A1007F
:10082800A2010310A20D92240A128A11A204A10B9C
:10083800152C2008A6240A128A11222C232C000029
:100848008312031386102208080083120313A200E0
:1008580085240A128A11D0306A240A128A110030BB
:100868006A240A128A1100306A240A128A1122089C
:100878008400831700086A240A128A11220A840055
:10088800831700086A240A128A112208023E84008B
:10089800831700086A240A128A112208033E84007A
:1008A800831700086A240A128A112208043E840069
:1008B800831700086A240A128A112208053E840058
:1008C800831700086A240A128A11DC2C8312031386
:1008D800A0008030A10020082105A6240A128A1150
:1008E800831203130310A10C2108031D6F2C9224FB
:1008F8000A128A117F2C802C0000831203138610A1
:100908000800831203138614831606108312061038
:100918000530FA00FA0B8E2C00000800861005300E
:10092800FA00FA0B952C00008316031306148312A1
:1009380086140330FA00FA0B9F2C8312031306085F
:1009480001390800FB008610831606107B08031D7A
:10095800B02C83120610B22C831206140530FA004C
:10096800FA0BB42C00008312031386140330FA0028
:10097800FA0BBC2C080083120313A000731ECE2CA4
:100988007312840083130008013EFB0020088400D2
:100998007B088000200884007A088313000220085E
:1009A8008400031CDA2C8001200884000008080059
:1009B80083160610831206100530FA00FA0BE22C93
:1009C8000000831203138614831606140800AA0075
:1009D800B330A0009130A1002908A2002A08C83E1F
:1009E8000A128A15442FDE00DC01DD01083E84006E
:1009F80083170008D400840A0008D500840A000878
:100A0800D600840A0008D700560455045404031974
:100A18008A2D5E0884000008D400840A0008D500E6
:100A28005408A0005508A1004630A201A301A7015F
:100A3800A601A5005030A40086210A128A112308B5
:100A4800DB002208DA002108D9002008D800831624
:100A58005E088312AC0083165F088312AD00AE01F6
:100A6800AF015E08023E840083170008D400840AA0
:100A78000008D5005408A0005508A1004630A2017E
:100A8800A301A701A601A5005030A40086210A12DF
:100A98008A112308B3002208B2002108B1002008F7
:100AA800B00000230A128A112C08D8072D08031158
:100AB8000318013E031DD9072E0803110318013E30
:100AC800031DDA072F0803110318013E031DDB0776
:100AD8005E08083E840083170008AC00840A0008FA
:100AE800AD00840A0008AE00840A0008AF005B0865
:100AF800B3005A08B2005908B1005808B0000023E2
:100B08000A128A112D08DD002C08DC005C085D043F
:100B1800031D9A2D6930A0009230A100C830A201AF
:100B28000A128A1544270A128A11A22D5D08CD00DF
:100B38005C08CC00C830B9250A128A11EE00B00151
:100B4800B00A5308B1006E08A92DB2003008A900F8
:100B58003208EB24B2073208A9000830AA0031088D
:100B6800AB00C8300A128A15EF2ED2004C08C50017
:100B78004D08C6000A30C701C801C90052080A1248
:100B88008A1592270A128A11D10000304D020A30C4
:100B980003194C020318DD2D520884000008CE000A
:100BA800520A84004E0880005208840030308000C9
:100BB800D10A51085207CE00FF3E84000008CF003A
:100BC80051085207D00084004F088000510852078E
:100BD800CE00FF3E84002E3080005108013E080000
:100BE800D600B9210A128A113A08D5003908D4006A
:100BF8005508CD005408CC00C830B9250A128A110E
:100C0800EE000830B0005308B1006E08A92D84002A
:100C180083170008B000840A0008B100840A00089D
:100C2800B200840A0008B3000800831203136E0898
:100C3800A9000830AA00C830AB01AB0A0800C600FA
:100C48000A30C701C801C900C8342D08FB002C08A8
:100C5800FA0008000A168A15DA250A128A11831280
:100C6800031310148B17F0167C08031D492E8316E6
:100C7800631E492E0A128A15AF200A128A11EB0048
:100C88000A128A150B210A128A11F3127312F31130
:100C98007311502E7318552E83162708280403192C
:100CA8004E2E7310F11F5D2E0A168A157D230A1227
:100CB8008A11731D872E7C080319F219732E721A74
:100CC800732E831203136D08031D732E6D0883168C
:100CD800B90038088312ED00FC01FC0A7E2E7C0B5B
:100CE800872E831203136D088316B8003908831200
:100CF800ED00FC010A128A1186230A128A11F312E6
:100D08007312F31173117C08031D9B2E0730831691
:100D18000313B700F01E952E0A168A1529230A1206
:100D28008A110A168A1532270A128A119F2E09304B
:100D380083160313B700F31EB42E83160313370864
:100D48008312ED0A6D020318ED018316EE010A12F3
:100D58008A1186230A128A11F3127312F31173117E
:100D68007C080319C02E831203136D080A128A1512
:100D780086220A128A11E12EF11ECE2E033083122A
:100D880003136D02031CCE2EED010A128A1186236D
:100D98000A128A11831203136D08243E84009030CE
:100DA8000318013EFF000A168A1100200A128A1150
:100DB8000A128A1169200A128A117318552EE12E17
:100DC800C4003C08C2003B08C1003A08C00039080A
:100DD800BF008B274208B3004108B2004008B100A9
:100DE8003F08B0000A128A1100230A128A112F083C
:100DF800C2002E08C1002D08C0002C08BF00C40A7C
:100E08004208410440043F04031DED2E44088400B9
:100E180083138001C4033D08A0003E08A100A2017D
:100E2800A3013C08A7003B08A6003A08A50039081A
:100E3800A4004D270A128A112008C3008B273C08FA
:100E4800B3003B08B2003A08B1003908B0000A12F2
:100E58008A1100230A128A112F08BC002E08BB0031
:100E68002D08BA002C08B9000A304302031C3E2F93
:100E78000730C3073030C30744088400430883138E
:100E88008000C4033C083B043A04390403190800F1
:100E98000F2F23082204210420040319822FFA01AA
:100EA800FA0AA31B5D2F0310A00DA10DA20DA30D1F
:100EB800542F23082702031D6B2F22082602031D27
:100EC8006B2F21082502031D6B2F20082402031C09
:100ED8007C2F2008A4022108031C210FA502220848
:100EE800031C220FA6022308031C230FA7020310CA
:100EF800A30CA20CA10CA00CFA0B5D2F2708A300D1
:100F08002608A2002508A1002408A00008003D0822
:100F1800AC003E08AD00AE01AF010800B3002430BC
:100F28008400CB30A0000408A1000C30A2002008E7
:100F3800840083170008A300A00A210884008313F3
:100F480023088000A10AA20B9B2F3308053E8400CA
:100F5800831700080A168A115E260A128A11B10040
:100F68003308043E8400831700080A168A115E2697
:100F78000A128A11B0003108B2003108A00003102B
:100F8800A00C0310A00C2008B2073308033E84000D
:100F9800831700080A168A115E260A128A11B207F8
:100FA8003008FF3E243E840083130008B20731084E
:100FB8000339031DE42F033030020318E42FB20372
:100FC80007303202031CEB2F0730B202E42F33083C
:100FD800023E84003208013E831780000800640046
:0E0FE8008001840A0406031900340406F42F65
:10100200D4000A30A000A1015408063E84008317D0
:101012000008A200840A0008A3000A168A11D92433
:101022000A128A152108CD002008CC00C8300A1205
:101032008A11B925EE000630B0005308B1006E08DF
:101042000A128A11A92D8316631F2B288312ED0A17
:101052007314080080300A128A1580250A128A1534
:10106200831203130030D301D30AD401D40A0A161F
:101072008A1100240A128A15C0300A128A158025A4
:101082000A128A15831203130130D301D30AD40141
:10109200D40A0A168A1100240A128A15C8300A12C2
:1010A2008A1580250A128A15831203130230D3018E
:1010B200D401D40A0A168A110024F01608008312F9
:1010C2000313BA00B601B701B801B9013A088400A6
:1010D200831300080319A6283A0884000008D03EAA
:1010E200B000FF3003180030B1003008B200310800
:1010F200B300B401B5013908A3003808A2003708CB
:10110200A1003608A0000A30A400A501A601A7018B
:101112000A128A1186210A128A152008B2072108AA
:101122000318210FB30722080318220FB40723085C
:101132000318230AB5073508B9003408B800330884
:10114200B7003208B600BA0A67283908AF00380873
:10115200AE003708AD003608AC0008008312BB01B0
:10116200BD013D08031DD5280317180819040319EA
:1011720003290A128A11D1220A128A1503171908A1
:101182007B02031DC62818087A02031C03290130BA
:101192000313B9003D0ACF280310B90DFF3E031D0A
:1011A200CD283908BB0403293D08B9000310B90D45
:1011B2000310B90D0310390D123EBC00023E84002B
:1011C20083170008031903293C08023E8400000823
:1011D200A700E830A801A9000330AA000A128A1168
:1011E200F3210A128A153C08840083170008B9000B
:1011F200840A0008BA0028083A02031DC6282708F4
:101202003902C62803130530BD0A3D02031CB22869
:101212003B080800B000B101301C5E29DD30F0153A
:1012220070118316BC0080300A128A1580250A12BA
:101232008A154C3083120313A0009230A100C830EB
:10124200A2010A128A1544270A128A150A128A155D
:10125200D0270A128A150A128A15EF260A128A154F
:10126200C0300A128A1580250A128A150A128A15B6
:10127200ED270A128A153108013EA200C8300A126F
:101282008A1544270A128A150A128A15D0270A12C9
:101292008A150A128A15EF260A128A150A128A1567
:1012A200C9270A128A155829F31E731A5A29721F5E
:1012B2005529F3127312F3117311831205300310BF
:1012C200B00CB10A3102031808000D29D1001E30FA
:1012D200AC00AD01AE01AF015108083E0A128A11FD
:1012E2000B260A128A150A128A1100230A128A157B
:1012F2002D08D3002C08D2003C30A000A1015308D5
:10130200A3005208A2000A168A11D9240A128A15C9
:101312002008CD002108CE00CF01D0015008C8001E
:101322004F08C7004E08C6004D08C5000A30C90064
:10133200C8300A128A1592270A128A15EE00C83E90
:1013420084003A3080003C30EE0AA000A10153082C
:10135200A3005208A200C52120080A168A11A62756
:101362000A128A15AA006E08C83E0A168A11882631
:10137200EE0AEE0A6E08A9000830AA004C08AB007B
:10138200C8300A128A15EF2E200821040319E42915
:10139200FA01FA0AA11BD1290310A00DA10DCA2935
:1013A20021082302031DD72920082202031CE02959
:1013B2002008A2022108031CA303A3020310A10C0C
:1013C200A00CFA0BD1292308A1002208A0000800D2
:1013D2000A30CC01CC0ACD01CD0ACE0083166508B5
:1013E20001228316E50008000C30CC00FF30CD014D
:1013F200CD0ACE008316600801228316E0000800A1
:101402008312D3000A128A15C9270A128A15721B7F
:10141200822A7310F31E1B2A8312D30A4E08013E3E
:101422005306031D162A4D08D3000A128A15C9272E
:101432000A128A15731E2B2A8312D3034D08FF3E0C
:101442005306031D262A4E08D3000A128A15C927FD
:101452000A128A15083083124C060319362A5308D9
:10146200CF00D001D101D2014E2A5308A00003308F
:10147200A101A201A301A701A601A500E830A400D1
:101482000A128A1186210A128A152308D20022081A
:10149200D1002108D0002008CF005208C80051080E
:1014A200C7005008C6004F08C5000A30C900C8303E
:1014B2000A128A1592270A128A15EE004C08A90010
:1014C2006E080A128A11EB240A128A15EE07C4303A
:1014D2000A128A1580250A128A150A128A111926F9
:1014E2000A128A150A128A15EF260A128A15F312AF
:1014F2007312F31173117F2A721B082A731C7D2A3F
:10150200082A7314831253080800E8000310680DB8
:10151200123E840090300318013EFF000A168A1121
:1015220000200A128A15E9000A168A1100200A12FE
:101532008A15EA00803080250A128A15113083123A
:101542000313A0009230A100C830A20144270A125E
:101552008A15DE270A128A15EF260A128A15C0306A
:1015620080250A128A15831203136808313E8316F6
:10157200C8002E30C90031308312A0009030A10083
:101582006908A200CA3044270A128A15023EDE27E1
:101592000A128A15EF260A128A15731E08007312A0
:1015A2000A128A1186230A128A1583120313EC0186
:1015B200C9270A128A15721B032B731080308025EB
:1015C2000A128A15313083120313A0009030A10051
:1015D2006908A200C83044270A128A15DE270A12B7
:1015E2008A15EF266A080A128A1169200A128A15D8
:1015F200F3127312F3117311002B721BDC2A731C8A
:10160200FE2ADC2A73140800F31E0F2B0530EC0AA5
:101612006C060319EC01C9270A128A15C03080250D
:101622000A128A15831203136C08313E8316C8000E
:101632002E30C9000C308312A0009130A1006C083A
:10164200013EA200CA3044270A128A15023EDE2752
:101652000A128A15EF260A128A15731E0800F3125F
:101662007312F3117311803080250A128A15ED2747
:101672000A128A156C08013EA200C83044270A12D9
:101682008A15DE270A128A15EF260A128A15C03039
:1016920080250A128A15C83083120313E4270A121E
:1016A2008A15AF270A128A151030A900AA00C8307D
:1016B200AB01EF260A128A156C08031D7B2B031758
:1016C20018080313D300031719080313D4000730B3
:1016D200D501D601DA01D901D800CF30D7001E24B6
:1016E2000A128A15540803179900031353080317A3
:1016F20098009D2B0830CC003C30CD01CE006C0808
:10170200E5000310E50D0310E50D0310650D143E11
:101712008400831700080A128A150122E6006C0869
:10172200E7000310E70D0310E70D0310670D143EE9
:10173200840066088317800072132C30831603130B
:10174200B5000130B6000800070805390A388700DD
:10175200023083120313A8004530A700A930A60067
:10176200A60BB12BA70BB12BA80BB12B3030FA0172
:1017720098250A128A151B3083120313A7009D3085
:10178200A600A60BC22BA70BC22BC72B3030FA0127
:1017920098250A128A15A53083120313A600A60BF8
:1017A200D02BD32B3030FA0198250A128A15A53096
:1017B20083120313A600A60BDC2BDF2B023080253D
:1017C2000A128A15283080250A128A150C308025C3
:1017D2000A128A1186230A128A15063080250A12F5
:1017E2008A1583120313B20132080739031D0E2C26
:1017F2003208F83940388025293083120313A000BB
:10180200A1013208883EA2000830A3000A168A15F8
:1018120009270A128A152930B1003108840083137E
:10182200000835270A128A15831203134030B10AC1
:10183200B20A320203180800F52B5A08C8005908E8
:10184200C7005808C6005708C5000A30C900C8308A
:1018520092270A128A15E30056085A02031D3B2CEE
:1018620055085902031D3B2C54085802031D3B2CFA
:10187200530857020318452C5A08D6005908D500B8
:101882005808D4005708D3005608C8005508C700A6
:101892005408C6005308C5000A30C900C830922750
:1018A200E1003030CC006108CD006308CE00C830C2
:1018B2000A168A1151270A128A15DC016308103CA4
:1018C200DB00031CDC030310DC0CDB0C5B08C03EFA
:1018D200E200E401C9270A128A15721BD72C731081
:1018E200F31E7D2C83120313E40A640863060319B2
:1018F200E401C9270A128A15731EAF2C831203133F
:101902006408C83E84003A308313800A0002031C34
:101912008B2CF427C8300A128A1560200A128A1505
:101922002F08E0002E08DF002D08DE002C08DD0065
:1019320060085A02031DA72C5F085902031DA72C39
:101942005E085802031DA72C5D0857020318AC2C31
:10195200F4270A128A15C9270A128A150C30802523
:101962000A128A1583120313620880250A128A1545
:10197200831203136308A9000830AA00C830AB0120
:10198200EF260A128A156408620780250A128A1550
:101992000F3080250A128A15F3127312F311731194
:1019A200D42C721B6E2C731CD22C6E2C0C30802506
:1019B2007314C8300A128A1560202F08D6002E0828
:1019C200D5002D08D4002C08D3000800DB01C9275C
:1019D2000A128A15721B7C2D7310F31EFA2C8312C5
:1019E20003131030DB0A5B060319DB01C9270A1255
:1019F2008A15731E132D831203135B080F3CD70045
:101A02000130D70AD8000030D9000A2D0310D80DB2
:101A1200D90DD70B072D5808D3065908D406C92764
:101A22000A128A150C3080250A128A153030831268
:101A32000313CC005308C5005408C6000230C70186
:101A4200C801C900C8309227CD001030CE00C8307E
:101A52000A168A1151270A128A155B08C83E8400A9
:101A620083130008D13EDA00C03080250A128A159D
:101A7200D6270A128A15EF260A128A15C830E427D9
:101A82000A128A15AF270A128A155508A0005608AD
:101A9200A1005B08013EA200C83044270A128A1541
:101AA200EE006E0803195F2D3830A0009230A100BD
:101AB2005A08A200D43044270A128A1580308025A1
:101AC2000A128A15D6270A128A15EF260A128A15D1
:101AD2005B08C03E80250A128A150F3080250A1243
:101AE2008A15F3127312F3117311792D721BEB2CF9
:101AF200731C772DEB2C0C30802573140800831295
:101B02000313A300FA01F03998250A128A15FA0183
:101B120083120313230EF03998250A128A154130D5
:101B220083120313A200A20B942D972D0800FB0031
:101B32007A0483120313A0000838FA270A128A15BE
:101B4200073083120313A000A00BA52D0000F7306D
:101B52007B0583120313A0007A04FA270A128A155E
:101B6200523083120313A000A00BB52D0000080011
:101B7200803080250A128A15023083120313A000D6
:101B82009230A100C830A20144270A128A15D02738
:101B92000A128A15EF260A128A157112F11183169A
:101BA200B101B2017110F013C8308312A0003D30B0
:101BB200A101A2001030A301A400A501AF270A12BF
:101BC2008A15721300308316B5000630B600F31082
:101BD200E42E721F721A0C2EF31CE42EF310C03086
:101BE20080255B3083120313A000A10183163608FF
:101BF2008312A300831635088312A2000A168A11E3
:101C0200D9240A128A152008DE270A128A15EF261D
:101C12000A128A15E42E721BAF2EF11D7119162EAF
:101C22008316B5010C30B60071150A308312A0007C
:101C3200A101831632088312A3008316310883128E
:101C4200A2000A168A11D9240A128A152108CD0087
:101C52002008CC00C8300A128A11B9250A128A1546
:101C6200EE000930A9006E080A128A11EB240A124A
:101C72008A15EE072030CC006E08CD001030CE0061
:101C8200C8300A168A1151270A128A15F11C922E9F
:101C920083160A168A15F8270A128A158630AE01AB
:101CA200AF01B3001C30B2004630B1008030B0004A
:101CB2000A128A1100230A128A152F08D6002E084A
:101CC200D5002D08D4002C08D30083162F088312C8
:101CD200AC00831630088312AD00AE01AF01560886
:101CE200B3005508B2005408B1005308B0000A12FC
:101CF2008A1100230A128A152C08D7002D08D80051
:101D0200D901DA015A08C8005908C7005808C600A4
:101D12005708C5000A30C900C83092270A128A152E
:101D2200982E0A168A11EC270A128A154427EE0009
:101D3200A901A90A0A128A11EB240A128A15103083
:101D4200EE00C03080250A128A15831203136E0832
:101D5200D0270A128A15EF260A128A15721FF11964
:101D6200B62EF310F318E42EB32EF1197118BB2E10
:101D72007114E42E7111721FD32EC03080250A1205
:101D82008A15543083120313A0009230A100C83088
:101D9200A20144270A128A15D0270A128A15EF26B1
:101DA2000A128A15DD30F01570118316BC00721309
:101DB2000030B5000230B600E12EF31E731AE32E96
:101DC200721FDE2EF017F01FF31AE92E731EEA2D92
:101DD2007111F3127312F31173110800AF00AD0108
:101DE2002B030319F82E02302B06031D0E2F290890
:101DF2002A02AD0002302B06031D012F0310AD0C89
:101E0200AE012D082E0203180E2F203035270A129C
:101E12008A1583120313AE0A022FAE0129082E027D
:101E22000318202F2E082F07AC008400831300080C
:101E320035270A128A1583120313AE0A0F2F2B08B5
:101E42000319272F02302B06031D08002908AD07AE
:101E520083120313AD0A2D082A02031C0800203046
:101E620035270A128A15292FA2000230FA00220809
:101E7200F03998250A128A150230FA0083120313E8
:101E8200220EF039982DA80022080319532F210899
:101E9200FF00200884000A168A1100200A128A15FF
:101EA200A500542FA501A6012508A70022080319A1
:101EB200842F2108A4002008A300A00A0319A10A64
:101EC2002408FF00230884000A168A1100200A123F
:101ED2008A152706031D572FA203572F2108FF003B
:101EE200200884000A168A1100200A128A15A3000B
:101EF20022082807A4008400230883138000A00A74
:101F02000319A10AA20A2108FF00200884000A1668
:101F12008A1100200A128A152706031D6F2F220834
:101F22000800CB004808BC004708BB004608BA00BE
:101F32004508B9004908BD00BE014B080A128A11C2
:101F4200E4260A128A15CA01CA0A4A084B07FB008C
:101F520084000008031DA52F4A0808002008FA0083
:101F62002108FB000130A4020030031CA503A502D6
:101F7200240FBE2F250A031908007A08840083174C
:101F82007B1C831322088000FA0A0319FB0AB32F71
:101F920072132C308316B5000130B6000800A90078
:101FA2001030AA000230AB00C83410308312031381
:101FB200A900AA00C830AB010800A9001030AA008D
:101FC200C830AB010800A0002030A101A2001030EF
:101FD200A301A400A50108000C3083120313A00082
:101FE2009130A10008006408C83E840030308000AF
:101FF2000800A10007080539210487000800FF1B1B
:102002000A2883137F1883170008840A0319FF0A1A
:1020120008007F087F398A000408840A0319FF0A2E
:102022008200013419340234163403341C3404346B
:102032001F34053422340834253406342834073456
:102042002B3409342E340434013407340A340D3469
:10205200103413348134843489348C348F34C03452
:1020620000344634553445344C34203463346F34B0
:102072006E347334743461346E34743400345634D0
:1020820053345334203463346F346E3473347434C1
:1020920061346E347434003474346F3474346134A3
:1020A2006C342034743472346934703400347634CD
:1020B2006F346C3474346134673465342034613481
:1020C20064346A347534733474340034733465346C
:1020D2007434743469346E34673473342034623443
:1020E2006934743473340034743465346D34703448
:1020F2002034733465346E3473346F347234733411
:10210200003473346534723476346934633465343C
:10211200203463346E3474347234733400346D3466
:1021220069346E3420347334703465346534643405
:102132000034733477342034763465347234733433
:1021420069346F346E34003400346434753461346D
:102152006C34203469346E346A34003473346B3432
:10216200693470342034743465346D34703400341E
:102172006B3465347934203473346F3475346E348F
:102182006434003473346534723476342034613408
:102192006C34613472346D340034663461347334B7
:1021A2007434203472346534663472346534733472
:1021B200683400346D3468342034723470346D34D1
:1021C20000346434613469346C34793420347434C6
:1021D200723469347034003469346E342F346F349D
:1021E200753474342034743465346D34703400348E
:1021F2006434733433343234333431342034743409
:1022020065346D34703400340034003400340034EA
:10221200003400340034003465346E346734693479
:102222006E346534203468346F34753472347334E8
:10223200003465346E34673469346E346534203466
:102242006F3469346C340034673465346134723409
:1022520062346F34783420346F3469346C3400342F
:102262006134693472342034663469346C347434C1
:1022720065347234003473347034613472346B34C4
:10228200203470346C347534673473340034003461
:10229200733475346E3464346134793400346D349B
:1022A2006F346E3464346134793400347434753488
:1022B200653473346434613479340034773465348A
:1022C20064346E3465347334643461347934003484
:1022D20074346834753472347334643461347934E8
:1022E20000346634723469346434613479340034CD
:1022F20073346134743475347234643461347934CF
:10230200003400346A3461346E3400346634653427
:10231200623400346D3461347234003461347034A8
:10232200723400346D346134793400346A34753473
:102332006E3400346A3475346C340034613475346C
:102342006734003473346534703400346F3463346A
:10235200743400346E346F3476340034643465344B
:1023620063340034FF3400340134FF340234033464
:10237200FF3404340534FF3406340734FF34683440
:10238200FF346C34FF345634FF346B346D34FF3415
:102392007334FF34DF34FF343C34FF34FF343134E0
:1023A20037343A34303439342034313435342E34FD
:1023B200303435342E343234303432343234003422
:1023C200743469346D346534203463346F34723458
:1023D200723465346334743469346F346E343F3428
:1023E200003400342D342D342D3400346F347534E0
:1023F2007434003469346E34003465346E346734B6
:1024020000347734613469347434203466346F3480
:10241200723420347334743461347234743400345A
:1024220053344534523456344934433445342034D9
:102432004D3445344E3455340034003463347534ED
:1024420072340034643461347934003441340034F9
:102452004234003430342D3431343034303420348A
:10246200743469346D3469346E3467340034003442
:1024720020346F34663466340034203420346F34B0
:102482006E3400342D342D342D342D342D34273434
:102492002D342D3400345734413452344E344934BF
:1024A2004E3447340034743469346D3465346F34D7
:1024B200753474340034723465347334653474346E
:1024C2003F3400347434723469347034203400344C
:0A24D2002D342D342D342D34003448
:1024DE0083165E088312D30083165F088312D4001E
:1024EE007530D501D601DA01D901D8002F30D700C9
:1024FE000A128A151E2454088316DF00831253080D
:10250E008316DE00080080300A128A1580250A160E
:10251E008A11F11ACD2A3A300A128A1197230A1615
:10252E008A11831203173A080313B000B10103177F
:10253E003B086F260A168A11F219BC2A0130312780
:10254E00C0300A128A1580250A168A1183120313C7
:10255E00D301D40183166308013900240A168A11A7
:10256E00013003250A168A11EC2A01306F23C03080
:10257E000A128A1580250A168A110030FE220A16C2
:10258E008A110130E9260A168A11EC2A83160313E2
:10259E0026088312D400831625088312D300D50192
:1025AE00D601D701DD230A168A1101306F23C03000
:1025BE000A128A1580250A168A110030FE220A1682
:1025CE008A11013097260A168A11721EF21D080012
:1025DE002B30B0009230B1000A128A1148230A162D
:1025EE008A11003A031908000A128A15B92D8312AE
:1025FE000313E3000830FA00ED300A128A11BF24EB
:10260E000A168A11DF00E0016008003A0319542B04
:10261E006E2BD3016308D400831663080139002C96
:10262E006308032D6308CC00B8300A128A15672997
:10263E006308D300B8300A128A11F42D6308D30050
:10264E00B8300A128A1121296308D300B8300A1251
:10265E008A11F72C6308D300B8300A128A150128A4
:10266E000B30A90000300A128A11EB240A168A11C7
:10267E00E100E201831603174A0883120313D40004
:10268E0083160317490883120313D3006208D6007A
:10269E006108D5006308D700DD2B5F08003A0319E7
:1026AE00102B013A0319172B033A0319192B013A70
:1026BE0003191F2B073A0319252B013A03192B2B4C
:1026CE00033A0319312B013A0319372B6E2B0800ED
:1026DE00CC00F218792BEC270A128A1544270A1619
:1026EE008A11D42B8316E31B852B04308312D00062
:1026FE007830CF006830CE00C0308D2B0230831280
:10270E00D0003C30CF003430CE006030CD00831688
:10271E0068088312AC00831669088312AD00831615
:10272E006A088312AE00AF015008B3004F08B20022
:10273E004E08B1004D08B0000A128A1100230A1685
:10274E008A112D08D2002C08D1000A30A000A10158
:10275E005108053EA20052080318013E003EA30098
:10276E00D9242108A8002008A7000A30A900AA0130
:10277E000A128A11F3210A168A112808D200270894
:10278E00D100C50052080A128A1123260A168A1190
:10279E000A128A1592270A168A11EE000230B0002C
:1027AE004C08B1006E080A128A11A92D5408CD00EA
:1027BE005308CC005508C83E0A128A11B9250A16CC
:1027CE008A11EE0003305402E93003195302031844
:1027DE00F42B55085604031DF62BEE03EE03550895
:1027EE00EE07B001B00A5708B1006E080A128A113E
:1027FE00A92D8312D9000310590DE03E84008317D2
:10280E0000088316A300840A0008A4008130230662
:10281E00813003192406031D272C0230831259061A
:10282E00031D202C2D308316C800C90002308312E0
:10283E00A52CEC270A128A1544270A168A11A52CF4
:10284E00A41F312C2D30C800A309A409A30A031913
:10285E00A40A332C2B30C8000F3023058312A70097
:10286E0083120A30A801A900AA010A128A11F321C3
:10287E000A168A112708D5002808D600043003103E
:10288E00D60CD50CFF3E031D462C8316230E0F3996
:10289E008312A7008316240EF0398312A704831621
:1028AE00240E0F398312A8000A30A900AA010A12B9
:1028BE008A11F3210A168A11550827078316A300D9
:1028CE00831256080318560A28078316A4000230EE
:1028DE0083125906031D962C0A30A000A1018316FF
:1028EE0024088312A300831623088312A200D9247E
:1028FE002008D5002108D600D701D8015808C800F5
:10290E005708C7005608C6005508C5000A30C9004A
:10291E00C8300A128A1592270A168A11A52C831618
:10292E0024088312CD00831623088312CC00C930ED
:10293E000A128A11B9250A168A11013EEE005308B1
:10294E000319C52C023059060319C52C2030CC00B2
:10295E006E08CD000830CE00C8305127F230A000EE
:10296E009130A1005908023EA200C8300A128A1501
:10297E0044270A168A110830EE00CF2C5308031D87
:10298E00CF2C0A30A9006E080A128A11EB24EE072A
:10299E006E08A9000830AA005408AB00C8300A120D
:1029AE008A15EF2EA401A501200821040319FE2C7F
:1029BE00A601A60AA11BE72C0310A00DA10DE02C69
:1029CE000310A40DA50D21082302031DF02C2008D1
:1029DE002202031CFA2C2008A2022108031CA303C6
:1029EE00A30224140310A10CA00CA60BE72C25089F
:1029FE00A1002408A000080083120313D50083163B
:102A0E0061088312A000A101831628088312D40046
:102A1E00831627088312D3000530FF000310D30D51
:102A2E00D40DFF0B152D5308A2005408A300D92472
:102A3E002108CD002008CC00C8300A128A11B92511
:102A4E000A168A11EE000730B0005508B1006E0864
:102A5E000A128A11A92D3A300A128A1197230A16E0
:102A6E008A11E1308312B0009130B1000A128A113E
:102A7E0048230A168A11003A0319112EB6010A12BA
:102A8E008A1186230A168A117213F43083160313E1
:102A9E00B5000130B600721B052E7310F31E612DAA
:102AAE00831203130630B60A36060319B601F92748
:102ABE000A168A11731AAA2DDC2D1730AA01AB0043
:102ACE0003173B0813260A168A110317BB00C82DDD
:102ADE003B30AA01AB0003173A0813260A168A11D7
:102AEE000317BA00C82D1F30AA01AA0AAB0003179C
:102AFE003D0813260A168A110317BD00C82D0C3087
:102B0E00AA01AA0AAB0003173E0813260A168A1159
:102B1E000317BE00C82D1630AA001B30AB000317DA
:102B2E003F0813260A168A110317BF00C82D073057
:102B3E00AA01AA0AAB0003173C0813260A168A112B
:102B4E000317BC00C82D831203133608B400B50159
:102B5E003508003A0319B42DC82D3408003A03196C
:102B6E00642D013A03196F2D033A03197A2D013A98
:102B7E000319862D073A0319922D013A03199E2D3A
:102B8E00C82D0230031336060319D52D0330360631
:102B9E000319D52D04303606031DDB2D3A300A12EB
:102BAE008A1192270A168A11F927F3127312F3115A
:102BBE0073110C300A128A1580250A168A113A30C2
:102BCE00232636082B3E840090300318013EFF006A
:102BDE000A168A1100200A168A110A128A158025F1
:102BEE000A168A110F300A128A1580250A168A11C2
:102BFE00022E721B522D731C002E522D0C300A12F7
:102C0E008A1580250A168A113A300A128A11292449
:102C1E00731108003A30232E0313AD005E260A16F8
:102C2E008A11AE00AE0AAC002B082C02031C212E1A
:102C3E002A08AE002E08A62F83120313B30080308D
:102C4E000A128A1580250A168A1183120313330875
:102C5E00840083170008B000B101330A8400000815
:102C6E006F2688300A128A1580250A168A11831259
:102C7E0003133308043E840083170008B0003308A2
:102C8E00053E84000008B1003308033E84000008AE
:102C9E007127C0300A128A1580250A168A118312EE
:102CAE0003133308023E840083170008C32FFB0072
:102CBE00FA000F30FA0578300310FB0CFB057B0889
:102CCE00FA070310FB0C0310FB0C7B087A070800B5
:102CDE000313B200AA00C83088260A168A113A30A9
:102CEE008316CA0083123008AA00CB30882605301E
:102CFE00A9000830AA003108AB00C8300A128A15A4
:102D0E00EF2EAB002B0A84002A080F39303E8313B6
:102D1E0080002B0884002A0E0F39303E80000800F8
:102D2E00D90083166B088312AC0083166C088312CD
:102D3E00AD00DF2783160317160883120313A400B2
:102D4E0083160317170883120313A500A601A70104
:102D5E000A128A1186210A168A11D6270A128A1198
:102D6E0000230A168A112F08D6002E08D5002D082A
:102D7E00D4002C08D300F327AE01AF015608B300E0
:102D8E005508B2005408B1005308B0000A128A1157
:102D9E0000230A168A112D08D8002C08D7005808CF
:102DAE00CD005708CC00C8300A128A11B9250A1670
:102DBE008A11EE000330B0005908B1006E080A12F5
:102DCE008A11A92DD900F3270A168A11DF27831637
:102DDE003A088312A400A501A601A7010A128A11BE
:102DEE0086210A168A11D6270A128A1100230A167C
:102DFE008A112F08D6002E08D5002D08D4002C08D5
:102E0E00D3000A30AC00AD01AE01AF015608B300DD
:102E1E005508B2005408B1005308B0000A128A11C6
:102E2E0000230A168A112D08D8002C08D70058083E
:102E3E00CD005708CC00C8300A128A11B9250A16DF
:102E4E008A11EE000430B0005908B1006E080A1263
:102E5E008A11A92DCC0083165B088312C800831635
:102E6E005A088312C700831659088312C6008316A8
:102E7E0058088312C5000A30C900C8300A128A15D4
:102E8E009227EE000830B0004C08B1006E080A120E
:102E9E008A11A92DD2004D0803196D2FCD034D08AF
:102EAE005207CF00840083130008D000CE034E08D3
:102EBE005207D100840050088000522FCE034E08D6
:102ECE005207CF0084004C08831380004E0803196C
:102EDE000800652FB20032080319772F320F832FA7
:102EEE004330A0009230A100C830A2010A128A1508
:102EFE0044270A168A119E2F3208AA00C830882647
:102F0E000A168A118230A0009130A10030085E2688
:102F1E00A200CA300A128A1544270A168A112730CF
:102F2E008316CD0083123108AA00CE3088260830D1
:102F3E00A900AA00C830AB010A128A15EF2EA7000D
:102F4E00A8000A30A901A000A1012908A3002808A1
:102F5E00A200D9242008FB007B0EF039FB000A30BA
:102F6E00A000A1012908A3002808A2000A128A15B0
:102F7E00C52120087B070800B0004830A000913022
:102F8E00A1003008A200C8300A128A1544270A167A
:102F9E008A110A128A15DE270A128A15EF2E2308C5
:102FAE00B3002208B2002108B1002008B0000800CA
:102FBE00AE01AF01831629088312A00083162A08DA
:102FCE008312A100A201A30108006930A000923073
:102FDE00A100C830A2010800831660088312AC005D
:102FEE00AD0108007213F4308316B5000130B6003F
:102FFE0008000430DF00AC300A128A11B1288316A3
:10300E0063088312D400831662088312D300A5309E
:10301E00D5009030D6000A128A15E72483120313C6
:10302E0054088316E300831253088316E200080047
:10303E00C0300A128A1580250A168A15D0308312DE
:10304E000313A0009130A100C830A2010A128A1504
:10305E0044270A168A150A128A15DE270A128A15BD
:10306E00EF2EF31E44288C30831661020318E10301
:10307E0072132C30B5000130B600731E5028E630A6
:10308E0083166102031CE10A72132C30B500013065
:10309E00B600C4300A128A15802501300A168A112C
:1030AE00032D83165B088312D60083165A088312EB
:1030BE00D500831659088312D4008316580883123C
:1030CE00D3000F30DA01D9004230D8003F30D7009C
:1030DE000A128A151E2456088316DB008312550821
:1030EE008316DA00831254088316D900831253080C
:1030FE008316D80008000B1CA82986080B10831213
:10310E0003130F088316AC0083120E088316AB0050
:10311E0083120D187117861BF4287219F92883165D
:10312E0081127215F2157017400883120317940757
:10313E00013003189507031896070318970772189E
:10314E00B4287214831693019401950103132C086D
:10315E00AE002B08AD00C101F928831603132B080E
:10316E00A0002C08A100A2012D08F4002E08F500E5
:10317E00F6017408A0027508031C750FA1027608EB
:10318E00031C760AA202031713080313A0070317E2
:10319E00140803110318140A0313031DA1070317C0
:1031AE00150803110318150A0313031DA2070313B1
:1031BE00711FEB286A30A007183003181930A107C9
:1031CE00003003180130A2072008E8002108E900AA
:1031DE002208EA00F2140317AA28721DF928831692
:1031EE00811672118312061FA729F21AA829F21648
:1031FE007216711D3F29711A1229711683162C0829
:10320E0003179F0003132B0803179E009C019D01BB
:10321E000313C2014029831603171D080313B000C0
:10322E0003171C080313AF0003171E080313AF0286
:10323E0003171F080313031CB003B0022B08AF07BC
:10324E000318B00A2C08B007711F33296A30AF0774
:10325E000318B00A1830B007F11430083402031DF9
:10326E003A292F083302031C0529F1157111402943
:10327E007112831603179A0A03199B0A0313DC0AA9
:10328E000319DD0A5F085D02031D4F295E085C020B
:10329E00031C6829DC01DD01D80A0319D90A0319B8
:1032AE00DA0A0319DB0A831203179A0A03199B0A17
:1032BE00A20A0319A30AAA0A0319AB0AB20A03192E
:1032CE00B30A83160317A20A0319A30A03135F088E
:1032DE0003172302031D772903135E080317220227
:1032EE00031C7E29A201A301A00A0319A10AAE0A9A
:1032FE000319AF0A03135F0803172F02031D8B294F
:10330E0003135E0803172E02031C9229AE01AF01B0
:10331E00AC0A0319AD0ABA0A0319BB0A03135F08F4
:10332E0003173B02031D9F2903135E0803173A027E
:10333E00031CA829BA01BB01B80A0319B90AA829A6
:10334E00F2120B1DE32983160317980A0319990A23
:10335E00A40BC02903133B080317A4000313600832
:10336E000317A50A2502031CC029A501A60A0319E5
:10337E00A70AB00BD12903133B080317B0000313A0
:10338E0060080317B10A3102031CD129B101B20A38
:10339E000319B30ABC0BE22903133B080317BC0045
:1033AE00031360080317BD0A3D02031CE229BD0189
:1033BE00BE0A0319BF0A0B11831203130D1C022B35
:1033CE00711B152A721C012A8316C10A3C30410654
:1033DE00031DF62972108116F210F211012A6A30BD
:1033EE000317930718300318193094070030031889
:1033FE0001309507711E162A831603130A30C20A6E
:10340E004206031D0D2A7112F110162A6A30031797
:10341E009C0703189D0A18309D07162A71138312F4
:10342E0003130619292A65307D0203181F2AFD0A87
:10343E0064307D06031D362AF31573148316EF01CF
:10344E00EF0A362A05307D02031C352A33307D0201
:10345E000318352AF31673148316EF01FD01831238
:10346E008619472A653083164702031CC70A643043
:10347E004706031D542A73157314EF01EF0A542ADD
:10348E00053083164702031C532A333047020318B4
:10349E00532A73167314EF01C7016F0A0319622AB8
:1034AE00E31E602AF01570116F086F076F07D73E85
:1034BE00BC00EF01EF034308C40A4402031CB02A08
:1034CE00C4017314031719080313AA00031718086D
:1034DE000313A9000317980199011B080313EC00AD
:1034EE0003171A080313EB0003179A019B0103132A
:1034FE00E31D832AF21FAF2AF213F219882A721ED5
:10350E00A72A83120317900A0319910A0319920A24
:10351E000319930A8316A80A0319A90A0319AA0AFA
:10352E000319AB0AB40A0319B50A0319B60A03192B
:10353E00B70AC00A0319C10A0319C20A0319C30A3A
:10354E0003133F080319B02ABF0BB02AF016B02A96
:10355E00F217350836040319BE2A0130B5020030C1
:10356E00031CB603B6023508360403197217711D13
:10357E00C32AB10A0319B20A4508031DFF2AF31420
:10358E000A30C500F01D002B7019D52A7015701465
:10359E003C08840083170008013EBE00701CE42A1C
:1035AE007010BE030319E22AF0143C0A840083173C
:1035BE000008BD00E42AF0117011F01CF32A3D083A
:1035CE00031DF12AF0103C08023E84008317000808
:1035DE00FF3EBD0083120714F018FC2A83163D0827
:1035EE00031DFA2A7014831207108316BD03002BD5
:1035FE00C50383120D100C1F202B1E088316A80066
:10360E00A7011E08A7048312051400308316280292
:10361E00813003192702031C162BC6011E2B0830FE
:10362E004606031D1D2BF11773141E2BC60A83129B
:10363E000C1379088A0078088400770E8300FE0E3A
:10364E007E0E0900F012701E6E2B0E30BF0070122F
:10365E0070308312AD00AE01C830A000A1012D085C
:10366E00A2000830A30009270A168A1503102E0D92
:10367E00E03EA500C830DB230A168A1503185F2B1F
:10368E00831203132E08903E840005308317000228
:10369E00031C5A2B03102E0DE03E84008130800057
:1036AE00840A8000662B2E08903E8400800A662BCA
:1036BE00831203132E08903E840083178001083076
:1036CE00AD070330AE0A2E0203180800332B701616
:1036DE000130BF00722BFB240A168A15031C08004A
:1036EE00CC301D250A168A1544301D2D0A128A115A
:1036FE0086230A168A158B13701FA02B3A300A12D6
:10370E008A1197230A168A15831203173A0883160D
:10371E00C40083123B088316C50083123D0883162E
:10372E00C60083123E088316C70083123F08831615
:10373E00C8008316031364086D06F0396D06E400A5
:10374E0083126F08A700A70E83166408831227063C
:10375E000F3927068316E400B8230A168A150510BA
:10376E00B72B8312D830A601A0001030A101A20100
:10377E00A3009D250A168A151030A607A030A000BA
:10378E000130A1002608A2002B30A3009D250A16A9
:10379E008A153030A6071030A0000130A10026088F
:1037AE00A2002A30A3009D2DAC00FB240A168A1518
:1037BE000318E32B0310080055301D250A168A1531
:1037CE002C08AB00AA012B088400831300081D25CA
:1037DE000A168A150830AB0AAA0A2A02031CEA2B1B
:1037EE00BE301D250A168A152C08AB00A801A901AA
:1037FE00831203132B088400CB240A168A15831315
:10380E008000AB0AA80A0319A90A2908803AFF000A
:10381E0080307F02031D152C09302802031CFF2B5C
:10382E00831203132C08840083130008A6002C0AAD
:10383E0084000008A700250884002608831780004E
:10384E00840A270880002C08083E84008313000891
:10385E00A6000830FA002C0830250A168A1526060E
:10386E00031DE12B031408005430A000FF30A1010A
:10387E00A2000830A301A400A5010A128A15AF27E1
:10388E000A168A155430B2240A168A15C830FA0060
:10389E0054307A25DC010A128A15C9270A168A15B0
:1038AE00721B9E2C7310F31A5E2C731E6D2CF3126A
:1038BE007312F311731183120430DC0A5C020318C5
:1038CE00DC010A128A15C9270A168A15F2308312EC
:1038DE00A0009130A1005C08013EA200D4300A1273
:1038EE008A1544270A168A15EE002030CC006E0881
:1038FE00CD000430CE00D4300A168A1151270A1694
:10390E008A15C0300A128A1580250A168A150A12DF
:10391E008A15D6270A168A150A128A15EF260A164E
:10392E008A159B2C721B572C731C992C572C8312A7
:10393E005C08031908005430A000A1015C08D300F4
:10394E000310D30D0310D30D0310530D683EA200C8
:10395E000830A3009D2DA200FB240A168A15031C15
:10396E00080033301D250A168A15A301220884008B
:10397E00CB240A168A15831380000830A20AA30AE4
:10398E00230203180800BD2CA001A1010310A00CF6
:10399E00E0240A168A15031CD72C83120313A017D2
:1039AE00831203130830A10A2102031CCE2C200817
:1039BE0008008316851283128512E52CE62C000072
:1039CE008316031385160830FA00FA0BEC2C003020
:1039DE0083120313851A0130FB005B30FA00FA0BD9
:1039EE00F62C00007B0C08008316851283128512BC
:1039FE000430FB001C30FA00FA0B032DFB0B032DD9
:103A0E0000008316031385166330FA00FA0B0D2D92
:103A1E00102D83120313851A1B2DA630FA00FA0BF4
:103A2E00162D000003140800031008008312031360
:103A3E00A000A1012008013952250A168A15831209
:103A4E00031308300310A00CA10A2102031808006A
:103A5E00212DA300A4014D2D230884000008A000F1
:103A6E000830A30AA100210803194D2D24082006B1
:103A7E00A2000130A2050310A40C22080319492D3F
:103A8E008C30A4060310A00CA1033A2DFA037A0F72
:103A9E00332D24080800FB000130FB057B080319B9
:103AAE00692D83168512831285120830FA00FA0BDF
:103ABE005E2D8316031385166330FA00FA0B652DFF
:103ACE00682D080083168512831285127430FA0051
:103ADE00FA0B6F2D00008316031385160330FA00C0
:103AEE00FA0B772D080083120313A0001030A100EB
:103AFE00A10B822D08002008840083130008A20069
:103B0E00211C8D2D0F30A20EA2058E2DA00A0F3076
:103B1E00A2050A3022027A0884002208031C992D7D
:103B2E00373E9A2D303E8000FA0A7F2DA4018B1F5E
:103B3E00A32DA401A40A8B13A501230825020318A3
:103B4E00BB2D200884008317211C83130008FA0064
:103B5E0025082207BF250A168A1583120313A00A09
:103B6E000319A10AA50AA42D240B08008B1708001F
:103B7E00FB00831603178C18C02D7B0883128D0053
:103B8E007A088C003F3083168C0503108B1B0314B0
:103B9E008B130C1555308D00AA308D008C140C1122
:103BAE0003188B17080030260A168A15E7260A1204
:103BBE008A15A5230A168A1541308316BB001C30C0
:103BCE00BA005F088312A30083165E088312A20058
:103BDE000D300310A20DA30DA000A1010A168A112B
:103BEE00D9240A168A152108831603179700831203
:103BFE00031320088316031796000313E31F0F2EDB
:103C0E000310BB0D0310BA0C03170310970C960C80
:103C1E00C8300313C300E31D182E0310C30C03108A
:103C2E00BA0D64080F39ED00640E0F398312EF00E0
:103C3E005F260A168A15003A03190800B830831257
:103C4E000313B3000130DB2783160317C901CA0122
:103C5E0008002A3083168500013083128500CD308E
:103C6E008316860003308312860083168701831223
:103C7E00870181018E018F01B830831681003030AB
:103C8E00831290000B309D0018309C006A309B0010
:103C9E00403083168C0001308D0068308B008830E8
:103CAE0083129F00843083169F0083121F14F72FF8
:103CBE003A300A128A1197230A168A1583160317A9
:103CCE00460883120313A00003173D08D6260A16D2
:103CDE008A15AF00B001AF1BB003B01B0134300822
:103CEE00803AFF0080307F02031D7F2E02302F02AC
:103CFE0003180134CF2E83122F0330040319892E9B
:103D0E00AD018B2E1830AD00AE018316031745089A
:103D1E0083120313A00003173B08D6260A168A1532
:103D2E00AF00B001AF1BB0032D08AF070318B00AE8
:103D3E002E08B007B01B01348316031744088312F4
:103D4E000313A00003173A08D626AB00AC01AB1B39
:103D5E00AC033008A8002F08A7003C30A900AA0128
:103D6E000A128A11F3210A168A152B082707AF00AB
:103D7E002C0803182C0A2807B000803AFF00803068
:103D8E007F02031DCC2E79302F02031C0034013428
:103D9E0083160313E31C822E83122F0808000313CD
:103DAE00A30020080A168A115E260A168A15A1009B
:103DBE0023080A168A115E26A20021082202080094
:103DCE00D830A401A0001030A101A201A300092740
:103DDE000A168A151030A407A030A0000130A100E9
:103DEE002408A2002B30A30009270A168A153030AA
:103DFE00A4071030A0000130A1002408A2002A3030
:103E0E00A300092FFB0123087B02031808002008DA
:103E1E0084008317211C83137B0822071F270A1691
:103E2E008A1580000313A00A0319A10AFB0A0A2FA0
:103E3E00FA00232F831203136400831603178C18C2
:103E4E00212F7A0883128D003F3083168C050C14B7
:103E5E0083120C08080083160313E31B3A2F02305B
:103E6E008312B9003D2F8312B901B90ABA0139087C
:103E7E008316C000F8270130AE01AF01B3005730F2
:103E8E00B2005230B100A030B0000A128A110023E5
:103E9E000A168A152D088316B40083122C08831671
:103EAE00B300F827AE01AF0183166B088312A00092
:103EBE0083166C088312A1008C30A201A301A70106
:103ECE00A601A500A030A4000A128A1186210A16A6
:103EDE008A150A168A11D6270A168A150A128A1107
:103EEE0000230A168A152D088316A60083122C08A5
:103EFE008316A50065088312A7000A30A801A90041
:103F0E00AA010A128A11F3210A168A1528088316A5
:103F1E002602031D962F8312270883162502031CE3
:103F2E009A2FF1169B2FF11283160313E319A22F6A
:103F3E000310A60CA50C260803174A02031DAB2F6F
:103F4E0003132508031749020318B52F0313260878
:103F5E000317CA00031325080317C900721EBC2FCE
:103F6E0003132508260403197212073003172102C2
:103F7E00D13003192002031CCC2FA030831203135F
:103F8E00B3000130DB270A168A1517308316031784
:103F9E002D02713003192C02031C0800AC30831261
:103FAE000313B3000130DB2FB4003408031DEB2FD5
:103FBE005C30B0009230B1000A128A1148230A1602
:103FCE008A15003A031908003308A0000130A10039
:103FDE000C30A201A301A400A5010A128A15AF2F6D
:103FEE0008005E088312AC0083165F088312AD00D2
:023FFE000800B9
:02400E00723FFF
:10420000E800C500040000007E0020006C003E00B5
:104210006E00B3000000EA0003000500000000008B
:10422000F4000000D60016004200560096000B0075
:10423000A0003B00000000008D00010002002100F2
:104240004B002B0000001300ED0061000000000097
:1042500000000000CD0001003C002800000000002C
:10426000000000000000000012001600170004000B
:10427000220000000000000000000000000000001C
:104280001500BE000400000058003C00C300000000
:1042900000000000FA0011000A00130011002100C4
:1042A00000000000B00012002800070011002100EB
:1042B00000000000170025000A0021000300200074
:1042C00000000000820030000A0007000100210009
:1042D0000000FF00000000000000000000000000DF
:1042E00028008A0009009500F00001003C00FC0055
:1042F000FF00FF00FF00FF00FF00FF00FF00FF00C6
:10430000FF00FF00FF00FF00FF00FF00FF00FF00B5
:10431000050006000500000000000000010002008A
:104320000A0015001500000010000500070001003C
:104330000700050007000000000001000200000067
:10434000000000000800100000000A001500150021
:104350000C0014001400010002000500010001001F
:10436000000000000000000000001F0015001F00FA
:10437000030005000500000000000100020000002D
:104380000000000008001000000014001C000400E1
:00000001FF
