:060000000A128A110E280D
:10000800FE00030EF7000408F8000A08F9000A16B3
:100018008A159A2A0A128A1111288316031706309C
:10002800D0000230D100D2000530D3000030D40017
:100038000330D5000530D6000130D7000430D80091
:100048000630D9000230DA000430DB008130DC00F1
:10005800DD00DE00DF00E000E100E200E300013047
:10006800E400E500E600E7000430E8000130E900BC
:100078000330EA00EB000230EC0003136430ED00BB
:10008800FF30EE00903083178400D0300A168A11B2
:1000980046200A128A111030840040300A168A114C
:1000A80046200A128A11A03083138400ED300A1604
:1000B8008A1146208312EC01ED01EE01EF01FC01EB
:1000C800FD01F001F101F201F30183010A128A1125
:1000D800322EFF0000308A007F08820772280A1635
:1000E8008A1167280A168A11DB290A128A11AC2F8D
:1000F8000A168A11E7290A168A114E280A168A1141
:10010800CF290A168A15402E0A168A1182280A163D
:100118008A11882A0A168A11962A0A128A118C2AA2
:100128000A168A11842A0A168A11802A0A128A153E
:10013800A82A0A128A15A52CE600E61FA528013070
:10014800A6280030E5000F30E6050310660D123EC4
:10015800840098300318013EFF000A168A15002013
:100168000A128A11E7000A168A1500200A128A1153
:10017800E8006508031DF3288030BB240A128A11A1
:100188002F3083120313A0009A30A100C730A201B8
:100198003E220A128A11F6250A128A11CF240A125F
:1001A8008A11C030BB240A128A118312031366080D
:1001B800313E8316C7002E30C800A7308312A00036
:1001C8009830A1006708A200C9303E220A128A119D
:1001D800023EF6250A128A11CF240A128A11F3194F
:1001E800F828650803190800F3110A128A15B225C0
:1001F8000A128A11053083120313ED0083120313C8
:100208006D0803192329F2138030BB240A128A11BE
:1002180012260A128A116708A200C7303E220A1263
:100228008A11F6250A128A11CF2468080A128A113F
:100238006D200A128A113C250A128A110229F21726
:1002480008008030BB240A128A1106308312031377
:10025800A0009A30A100C730A2013E220A128A11DA
:100268000C260A128A11CF240A128A11F11371136B
:100278008316B301B4017111F110C7308312A000C5
:100288003D30A101A2001030A30068250A128A118E
:100298000F30ED008316C401332A83126D08031D45
:1002A800F21A6F2983164408031D332A1930C40033
:1002B800C030BB245B30FA00831203136D080A12A6
:1002C8008A1500200A128A11F6250A128A11CF24EB
:1002D8000A128A11332A6D080319FC29711FF11AB1
:1002E8007D291E30ED00F1160A128A15B2250A1270
:1002F8008A118316031334088312D4008316330833
:100308008312D3000230D500C7300A168A1194250B
:100318000A128A11EC000930A9006C080A128A1521
:100328006C250A128A11EC072030CC006C08CD002D
:100338001030CE00C73048250A128A11F119A729B2
:10034800E001E101DE290A168A11D5270A128A116D
:100358008630AE01AF01B3001C30B2004630B100A8
:100368008030B0000A128A1518260A128A112F083E
:10037800DF002E08DE002D08DD002C08DC008316C7
:1003880031088312AC00831632088312AD00AE0127
:10039800AF015F08B3005E08B2005D08B1005C08F9
:1003A800B0000A128A1518260A128A112D08E100CF
:1003B8002C08E0006008C500610806260A128A11A8
:1003C8000325EC00A901A90A0A128A156C250A124C
:1003D8008A11C030BB240A128A1110308312031309
:1003E800A900AA000330AB00C730CF240A128A1133
:1003F8006D08031D711B072A04308316C4004408C6
:100408000319332A032A711B71190C2A7115332A0F
:10041800F1126D08031D252AC030BB240A128A1167
:100428004F3083120313A0009A30A100C730A201F5
:100438003E220A128A110C260A128A11CF240A12A5
:100448008A1102308316EE000A308312ED002F2A3B
:10045800731EF319322A6D08031D2C2AF114F11C9E
:10046800731A382AF31D5129F1127312F3117311FB
:10047800F3100800A800220803194D2A2108FF00DC
:10048800200884000A168A1500200A128A11A5007D
:100498004E2AA501A6012508A700220803197E2ACD
:1004A8002108A4002008A300A00A0319A10A24080F
:1004B800FF00230884000A168A1500200A128A11F0
:1004C8002706031D512AA203512A2108FF002008EC
:1004D80084000A168A1500200A128A11A30022082D
:1004E8002807A4008400230883138000A00A0319A6
:1004F800A10AA20A2108FF00200884000A168A150A
:1005080000200A128A112706031D692A22080800FA
:100518008316621F912A701608008030BB240230AF
:1005280083120313DC0080300A168A11DD260A12B2
:100538008A11C030BB24023083120313DC008130DF
:100548000A168A11DD260A128A118830BB240A127B
:100558008A11831203130830A901AA000230AB00E4
:10056800C730CF240A128A11C830BB240230831244
:100578000313DC000A168A11DD260A128A11F01B01
:10058800CC2A053083164002031CCC2A0430C00054
:10059800F31C0800F3108030BB240A128A111226BB
:1005A8000A128A110630A200C7303E220A128A11A6
:1005B800F6250A128A11CF240A168A1540267312C4
:1005C800F3117311F310F21708005A08C8005908FC
:1005D800C7005808C6005708C5000A30C900C73008
:1005E80003250A128A11E30056085A02031D062B36
:1005F80055085902031D062B54085802031D062BE3
:10060800530857020318102B5A08D6005908D5006A
:100618005808D4005708D3005608C8005508C70022
:100628005408C6005308C5000A30C900C73003255E
:100638000A128A11E1003030CC006108CD0063084D
:10064800CE00C73048250A128A11DC016308103C25
:10065800DB00031CDC030310DC0CDB0C5B08C03E76
:10066800E2000530E401ED00831203136D0803195D
:10067800972BF213FA016308FF3EFB0064307B25D9
:100688000A128A11F31D742B6408C73E84003A309D
:10069800800A0002031C532B19260A128A11C7303C
:1006A80091250A128A112F08E0002E08DF002D0874
:1006B800DE002C08DD0060085A02031D6D2B5F0860
:1006C8005902031D6D2B5E085802031D6D2B5D0832
:1006D80057020318722B19260A128A110530ED00E9
:1006E8000C30BB240A128A11831203136208BB243C
:1006F8000A128A11831203136308A9000830AA009A
:10070800C730AB01AB0ACF240A128A11640862070A
:10071800BB240A128A110F30BB240A128A113C2505
:100728000A128A11382B0C30BB240A128A11F217CC
:10073800C73091252F08D6002E08D5002D08D400E3
:100748002C08D30008000530DB01ED0083120313E9
:100758006D080319332CF2130F30FA01FB005B30DC
:100768007B250A128A11F31DCD2B5B080F3CD7009D
:100778000130D70AD8000030D900C52B0310D80D96
:10078800D90DD70BC22B5808D3065908D406053003
:10079800ED000C30BB240A128A1130308312031387
:1007A800CC005308C5005408C6000230C701C80170
:1007B800C900C73003250A128A11CD001030CE00B7
:1007C800C73048250A128A115B08C73E8400831384
:1007D8000008D13EDA00C030BB240A128A11FD2578
:1007E8000A128A11CF240A128A11C730A0002030B9
:1007F800A101A2001030A30068250A128A11550829
:10080800A0005608A1005B08013EA200C7303E22A6
:100818000A128A11EC006C0803191C2C3B30A0004A
:100828009A30A1005A08A200D3303E220A128A1137
:100838008030BB240A128A11FD250A128A11CF249E
:100848000A128A115B08C03EBB240A128A110F30B3
:10085800BB240A128A113C250A128A11AA2B0C30D1
:10086800BB24F2170800871487150230831203137C
:10087800A6004530A500A930A400A40B412CA50B67
:10088800412CA60B412C083083120313B20004300C
:1008980032020318522C3030AF00532CAF01B00194
:1008A8002F0820250A128A1103303202031C682CF3
:1008B8001B3083120313A5009D30A400A40B622CE7
:1008C800A50B622C672C6F2CA53083120313A40090
:1008D800A40B6C2C6F2C83120313B203031D4B2C37
:1008E8000230BB240A128A112830BB240A128A114A
:1008F8000830BB240A128A111730BB240A128A1541
:10090800B2250A128A110C30BB240A128A11063049
:10091800BB240A128A1183120313B301330807395F
:10092800031DAB2C3308F8394038BB240A128A114E
:10093800273083120313A000A1013308883EA200C8
:100948000830A300E0250A128A112730B1003108C7
:100958008400831300082A250A128A1183120313BC
:100968004030B10AB30A330203180800922C8312EC
:100978000313A100871020250A128A11210EF039CD
:1009880020250A128A11573083120313A000A00BE6
:10099800CB2C00000800B100AD0129082A02AF00E5
:1009A8002B0BD82CAF01DE2C03302B06031DDE2CBD
:1009B8000310AF0C29082F07AE00B0012A08300237
:1009C800031808002F083002031CEE2C2E083002F2
:1009D800031CF32C20302A250A128A11FF2C2D081B
:1009E8003107AC008400831300082A250A128A11F3
:1009F80083120313AD0A83120313B00AE22CCB004F
:100A08004808BC004708BB004608BA004508B900BA
:100A18004908BD00BE014B080A168A1120210A1296
:100A28008A11CA01CA0A4A084B07FB008400000859
:100A3800031D162D4A080800FB00F039FA000708C4
:100A48000F397A048700871587110800A1008714D9
:100A580020250A128A11210EF03920250A128A113E
:100A6800573083120313A000A00B382D0000080094
:100A78007312F3117311F310F21B0800831203139E
:100A88006D0803190800402DD2004D080319642D84
:100A9800CD034D085207CF00840083130008D0000F
:100AA800CE034E085207D100840050088000492D1B
:100AB800CE034E085207CF0084004C0883138000F1
:100AC8004E08031908005C2D2008FA002108FB00D5
:100AD800A303230F702D08007A08840083177B1C5A
:100AE800831322088000FA0A0319FB0A6C2DA1005F
:100AF800840083130008A000731E8C2DA00A7B08B5
:100B0800013E2006031D8A2D7A08A0000530ED005D
:100B18002108840020088000080083120313BA000B
:100B2800B601B701B801B9013A0884008313000877
:100B38000319D72D3A0884000008D03EB000FF30D2
:100B480003180030B1003008B2003108B300B40116
:100B5800B5013908A3003808A2003708A1003608F3
:100B6800A0000A30A400A501A601A7010A168A114F
:100B7800CE240A128A112008B20721080318210F6F
:100B8800B30722080318220FB40723080318230AFF
:100B9800B5073508B9003408B8003308B70032087B
:100BA800B600BA0A982D3908AF003808AE003708E1
:100BB800AD003608AC000800FB0123087B020318CF
:100BC8000800200884008317211C83137B08220750
:100BD8001F260A128A1180000313A00A0319A10A0A
:100BE800FB0AE12DA9001030AA00C730AB01AB0AFF
:100BF8000800103083120313A900AA00C730AB0104
:100C0800AB0A0800C6000A30C701C801C900C734CA
:100C1800A9001030AA000330AB00C734A7308312F4
:100C28000313A0009830A10008006408C73E8400A0
:100C3800303080000800FA00232E8312031364006A
:100C4800831603178C18212E7A0883128D003F30E3
:100C580083168C050C1483120C080800E901EA01BC
:100C68000A128A159D200A128A118312031310147E
:100C78008B178316C0017312F3117311F310462EEC
:100C8800F21B4A2E270828040319442EF2130A30AF
:100C9800831603134506031D562E0A168A15422588
:100CA8000A128A11F31C832E701C721A6B2EF21A08
:100CB8006B2E83126E08031D6B2E6E08E9006A08FE
:100CC800EE0070147312F3117311F310832E701C5D
:100CD800832E83126E08EA006908EE007010731202
:100CE800F3117311F310D730EF260A168A157827F7
:100CF8000A128A110A128A1520220A128A117018F9
:100D08009B2E721C892E02308A2E06308312EB002D
:100D180083164008031D952E0A168A1572250A1295
:100D28008A110A128A151B200A128A119E2E073070
:100D38008312EB00831203136E088316BC00FA01BA
:100D480083126B08FB006E300A128A117B250A1287
:100D58008A1183163C0883126E060319B92E83166E
:100D6800EC017312F3117311F310701CC32E83126C
:100D78006E080A128A11A0200A128A11EC2E721C1F
:100D8800CB2E0330831203136E020318EE01701288
:100D9800831203136E082F3E840098300318013E17
:100DA800FF000A168A1500200A128A110A128A11EF
:100DB8006D200A128A11701EEA2E06308312031360
:100DC8006E06031DE92EEE01EA2EEE0A701AC32EF6
:100DD800F21B4A2EEC2EA0001030A101A201A300A4
:100DE8000800E200831669088312AC0083166A08BB
:100DF8008312AD0099278316031713088312031370
:100E0800A40083160317140883120313A500A60170
:100E1800A7010A168A11CE240A128A110A168A1103
:100E2800DE270A128A110A128A1518260A128A114E
:100E38002F08DF002E08DE002D08DD002C08DC005E
:100E4800A627AE01AF015F08B3005E08B2005D08D7
:100E5800B1005C08B0000A128A1518260A128A1115
:100E68002D08E1002C08E0006108D4006008D300D8
:100E7800C730D501D50A0A168A1194250A128A1193
:100E8800EC000330B2006208B3006C080A168A113D
:100E9800802DE200A6270A128A11992783163D0899
:100EA8008312A400A501A601A7010A168A11CE245F
:100EB8000A128A110A168A11DE270A128A110A12E0
:100EC8008A1518260A128A112F08DF002E08DE005C
:100ED8002D08DD002C08DC000A30AC00AD01AE01A5
:100EE800AF015F08B3005E08B2005D08B1005C089E
:100EF800B0000A128A1518260A128A112D08E10074
:100F08002C08E0006108D4006008D300C730D50180
:100F1800D50A0A168A119425EC000430B20062083A
:100F2800B3006C080A168A11802DAE01AF01831632
:100F380029088312A00083162A088312A100A2019F
:100F4800A301080083165F088312AC00AD010800F6
:100F580083165A088312D600831659088312D500BF
:100F6800831658088312D400831657088312D300B7
:100F78000F30DA01D9004230D8003F30D7000A12CA
:100F88008A11E92256088316DA0083125508831657
:100F9800D900831254088316D80083125308831685
:100FA800D7000800DD000A30A000A1015D08063E58
:100FB800840083170008A200840A0008A3000A120C
:100FC8008A1583270A128A112108D4002008D30021
:100FD800C730D501D50A0A168A119425EC000630C7
:0E0FE800B2005C08B3006C080A168A11802D56
:10100000A000A2017A0803191928A101A10AFA1B5C
:101010000C280310FA0D06280310A20D7A082002EE
:10102000031C16287A08A00222140310FA0CA10B44
:101030000C28220808000A168A11D5270A128A15D8
:10104000AE01AF01831669088312A00083166A08F7
:101050008312A1008C30A201A301A701A601A50063
:10106000A030A4000A168A11CE240A128A150A1684
:101070008A11DE270A128A150A128A1518260A1200
:101080008A152D088316A40083122C088316A3004A
:1010900064088312A7000A30A801A900AA010A1651
:1010A0008A113F250A128A15280883162402031D77
:1010B0005D288312270883162302031C61287214FB
:1010C0006228721083160313240803174102031DBC
:1010D0006D2803132308031740020318772803130E
:1010E00024080317C100031323080317C000F21ECE
:1010F0007E280313230824040319F2120730031770
:101100001802D13003191702031C9028973083125C
:101110000313B50001300A168A1171260A128A15C6
:101120001730831603172402713003192302031C9E
:1011300008006F220A168A11712ECA200A128A1517
:10114000F8210A128A1137240A128A1520220A125B
:101150008A15C4250A128A1507210A128A15003A2F
:101160000319C028AF3083120313B50001300A16EB
:101170008A1171260A128A1583160317C001C1014C
:10118000F9200A128A15003A031908006F220A167C
:101190008A11712E26308316850001308312850056
:1011A000CD30831686000F308312860083168701A8
:1011B0008312870181018E018F01B830831681006F
:1011C0003030831290000B309D0018309C006A3044
:1011D0009B00403083168C0001308D0068308B00FE
:1011E000883083129F00843083169F0083121F145F
:1011F0006E2A83160313621D003403174208031975
:101200000034420883123E06031D01340034831665
:1012100003173F0883120313A00003173F08BD21E3
:101220000A128A15B500B601B51BB603B61B013408
:101230003608803AFF0080307F02031D21290230EA
:10124000350203180134831203173D080313A0006D
:1012500003173E08CE210A128A152108AE00200885
:10126000AD00831603173D0883120313A0008316F5
:1012700003173E08CE210A128A152108B000200863
:10128000AF003503360403194829B101B2014C29D6
:101290006D30B1000130B2003208B6003108B5003F
:1012A0002F08B5023008031CB603B6022D08B50797
:1012B0000318B60A2E08B607B61B01343608803A62
:1012C000FF0080307F02031D6729023035020318BA
:1012D000013483160313E218BA2983123503360446
:1012E00003197429B30176291830B300B4018316A9
:1012F00003173C0883120313A00003173B08BD210A
:101300000A128A15B500B601B51BB6033308B50736
:101310000318B60A3408B607B61B01348316031740
:101320003B0883120313A00003173A08BD21AB004A
:10133000AC01AB1BAC033608A8003508A7003C3055
:10134000A900AA010A168A113F250A128A152B083C
:101350002707B5002C0803182C0A2807B600803A86
:10136000FF0080307F02031DB72979303502031852
:10137000013400348312350808000313A300200849
:101380000A128A15A5260A128A15A10023080A1234
:101390008A15A526A2002108220208008312031341
:1013A000A2000A128A15A5260A128A15FF3EA50078
:1013B000223E840098300318013EFF000A168A1569
:1013C00000200A128A15A3000930A4012502031C7B
:1013D000EB290130A40720080A128A15A526A000CF
:1013E000A1012308A0070318A10A2408A1070800E7
:1013F000D730A401A0001030A101A201A3000A125D
:101400008A11E0250A128A151030A4079730A0002F
:101410000130A1002408A2002C30A3000A128A1176
:10142000E0250A128A153030A4071030A0000130E0
:10143000A1002408A2002A30A3000A128A11E02D7C
:1014400041308316BE003830BD005E088312A30011
:1014500083165D088312A2000D300310A20DA30DA8
:10146000A000A1010A128A1583270A128A152108F1
:10147000831603179400831203132008831603179F
:1014800093000313E21F4C2A0310BE0D0310BD0C82
:1014900003170310940C930C031363080F39EB002C
:1014A000630E0F398312EF000A168A11D5270A122C
:1014B0008A150130AE01AF01B3005730B20052308F
:1014C000B100A030B0000A128A1518262D08831624
:1014D000B60083122C088316B50008000800A3305C
:1014E00083120313B5000134E0001930A000A101FC
:1014F000831603174F0883120313DD0083160317A7
:101500004E0883120313DC000310DC0DDD0D031005
:10151000DC0DDD0D5C08A2005D08A3008327210817
:10152000DF002008DE005F08D4005E08D300023030
:10153000D500C7300A168A1194250A128A15EC00C4
:101540000C30B2006008B3006C080A168A11802DB6
:10155000C4250A128A15D4308312B2009930B30020
:1015600078250A128A15003A03195A2BBB01B225B5
:101570000A128A15053083120313ED008312031338
:101580006D080319502BF2130530FA01FB003B30B4
:101590000A128A117B250A128A15F319EE2A2B2BBF
:1015A0003B30BA001730D72A3A30BA003B30B80186
:1015B000EC2A3D30BA001F30EA2A3E30BA000C3027
:1015C000EA2A3F30BA001630B8002030EC2A3C300E
:1015D000BA000730B801B80AB9000A2B3B08B600B8
:1015E000B7013708003A0319F62A0A2B3608003AE1
:1015F0000319D02A013A0319D42A033A0319D92A24
:10160000013A0319DD2A073A0319E12A013A0319BD
:10161000E72A0A2B3808AA003908AB003A088400E8
:1016200083170008B1230A128A15B6003A0884000D
:1016300036088317800002303B060319272B03303E
:101640003B060319272B04303B06031D292B3A3098
:10165000C0230530ED000C300A128A11BB240A1297
:101660008A153A305C233B08363E840098300318D4
:10167000013EFF000A168A1500200A128A150A1276
:101680008A11BB240A128A150F300A128A11BB2450
:101690000A128A150A128A113C250A128A15BE2AD4
:1016A0000C300A128A11BB240A128A153A301B2404
:1016B000F31008003A305C2B83120313B50080301E
:1016C0000A128A11BB240A128A15831203133508E1
:1016D000840083170008B200B301B30A350A8400FE
:1016E0000008982388300A128A11BB240A128A152E
:1016F000831203133508043E840083170008B200E8
:101700003508053E84000008B3003508033E840018
:1017100000086026C0300A128A11BB240A128A15FA
:10172000831203133508023E840083170008D12F6B
:101730000313B400AA00C73096260A128A153A305D
:101740008316C90083123208AA00CA3096260530D3
:10175000A9000830AA003308AB00C7300A128A116A
:10176000CF2CAD00A5260A128A15AE00AE0AAC0039
:101770002B082C02031CBE2B2A08AE002E08662F55
:10178000B30024308400D030A0000408A1000C3045
:10179000A2002008840083170008A300A00A2108E3
:1017A0008400831323088000A10AA20BC92B3308ED
:1017B000053E840083170008A5260A128A15B10089
:1017C0003308043E840083170008A5260A128A15F0
:1017D000B0003108B2003108A0000310A00C0310C3
:1017E000A00C2008B2073308033E840083170008CA
:1017F000A5260A128A15B2073008FF3E243E84004F
:1018000083130008B20731080339031D0C2C033081
:10181000300203180C2CB20307303202031C132CC5
:101820000730B2020C2C3308023E84003208013E1D
:1018300083178000080083120313A200B6260A1241
:101840008A15D0305C240A128A1500305C240A12F2
:101850008A1500305C240A128A1522088400831736
:1018600000085C240A128A15220A840083170008E3
:101870005C240A128A152208023E8400831700089D
:101880005C240A128A152208033E8400831700088C
:101890005C240A128A152208043E8400831700087B
:1018A0005C240A128A152208053E8400831700086A
:1018B0005C240A128A15C32E83120313A000803001
:1018C000A100200821058C240A128A158312031313
:1018D0000310A10C2108031D612C77240A128A151C
:1018E000712C722C000083120313861008008610DE
:1018F0000530FA00FA0B7A2C000083160313061445
:10190000831286140330FA00FA0B842C0030831201
:101910000313061801300800FB008610831606101A
:101920007B08031D962C83120610982C8312061434
:101930000530FA00FA0B9A2C000083120313861468
:101940000330FA00FA0BA22C08000530FA006F30C1
:10195000CD2580300A128A11BB240A128A150D3057
:1019600083120313A0009930A1006F08013EA2006A
:10197000C7300A128A113E220A128A150A128A11E7
:10198000F6250A128A150A128A11CF240A128A151C
:101990006F08031DD52C1A30D300EA250A128A15C8
:1019A0007B08CE007A08CD00E62C6F08CC0003102F
:1019B000CC0D0310CC0D03104C0D123ED30084004F
:1019C00083170008CD00840A0008CE004D08C5002A
:1019D0004E080A128A1106260A128A150A128A115C
:1019E00003250A128A15EC006F080319F92C083038
:1019F000FA2C0530CF00A9006C086C25EC076C08A8
:101A0000C73E8400203083138000C030EC0A0A12E5
:101A10008A11BB240A128A15F2270A128A11CF24CE
:101A20000A128A155308033E840083170008D00069
:101A3000840A0008D100840A0008D200C8300A12C3
:101A40008A11BB240A128A15831203135108B200AB
:101A50005208B300500860260A128A155730B200A7
:101A60009A30B30078250A128A15003A0319080043
:101A7000C4250A128A1583126F080319412D6F0BB2
:101A8000502D0317143090019101920193018400AD
:101A900083178001840A8001840A8001840A8001FE
:101AA00003135308840083178001840A80015308BC
:101AB000033E840003173D08800003135308043ECF
:101AC000840003173E08800003135308053E84007A
:101AD00003173F0880000800AA00B430A000993026
:101AE000A1002908A2002A08C73E0A128A113E2A2C
:101AF000B401F31CB02D7312F3117311F310B2255E
:101B000080300A128A11BB240A128A158312031329
:101B10003208A0003308A100C730A2010A128A11BE
:101B20003E220A128A15A9001030AA000330AB0029
:101B3000C7300A128A11CF240A128A150530ED0027
:101B4000A42D731EF319A72D6D08031DA12DF31DE0
:101B5000AB2DB401B40A7312F3117311F310F21721
:101B60003408080001300A128A11BB240A128A15AF
:101B70000F3083120313A3000430A200A20BBE2D6A
:101B8000A30BBE2D00000800831603134108031D9C
:101B900008000A30C1003A30D52E83120313A0008A
:101BA000F31DDC2DF311840083130008013EFB00BC
:101BB000200884007B088000200884007A088313B2
:101BC000000220088400031CE82D80012008840006
:101BD000000808008316E21DFD2D83120130AF01BD
:101BE000AE007730AD000430AC01103EE4270A129D
:101BF0008A1518260A128A15FB2F83120730AF01A7
:101C0000AE01AD000830AC00031713080313B30096
:101C1000031712080313B200031711080313B100CE
:101C2000031710080313B00018260A128A15FB2F99
:101C3000B401B501B601B7012F082E042D042C0400
:101C40000319572EB801B80AAF1B2C2E0310AC0D88
:101C5000AD0DAE0DAF0D232E0310B40DB50DB60DA9
:101C6000B70D2F083302031D3F2E2E083202031D2D
:101C70003F2E2D083102031D3F2E2C083002031C7D
:101C8000512E2C08B0022D08031C2D0FB1022E0876
:101C9000031C2E0FB2022F08031C2F0FB3023414A3
:101CA0000310AF0CAE0CAD0CAC0CB80B2C2E3708DF
:101CB000AF003608AE003508AD003408AC000800AF
:101CC000B40034080319662E340F722E4630A0007B
:101CD0009A30A100C730A2010A128A113E220A12CC
:101CE0008A158D2E3408AA00C73096260A128A1546
:101CF0008330A0009930A1003208A526A200C93087
:101D00000A128A113E220A128A1527308316CC0045
:101D100083123308AA00CD3096260830A900AA0005
:101D2000C730AB01AB0A0A128A11CF2CAB002B0AC9
:101D300084002A080F39303E831380002B0884006A
:101D40002A0E0F39303E80000800FB00FA000F30E9
:101D5000FA0578300310FB0CFB057B08FA0703102B
:101D6000FB0C0310FB0C7B087A070800831203139B
:101D7000861483160610831206100530FA00FA0B3B
:101D8000BF2E0000080083160610831206100530CF
:101D9000FA00FA0BC92E0000831203138614D02E0A
:101DA000000083160313061408008312A500B6264C
:101DB0000A128A15D0305C240A128A1500305C247D
:101DC0000A128A15043083120313A300A30BE62E14
:101DD000E92EB6260A128A15D1305C240A128A1519
:101DE00000304E270A128A15A4002508840000300E
:101DF0004E270A128A1583178000250A84000030B6
:101E00004E270A128A15831780002508023E840097
:101E100000304E270A128A15831780002508033EDA
:101E2000840000304E270A128A1583178000250887
:101E3000043E840000304E270A128A158317800062
:101E40002508053E840001304E270A128A158317A3
:101E50008000C3260A128A158312A41F08002508D1
:101E60008400493083178000250A840009308000EF
:101E70002508023E8400033080002508033E8400CC
:101E8000093080002508043E8400083080002508C1
:101E9000053E84002230800025081B2CA00008305D
:101EA000A100A2010310A20D77240A128A15A20430
:101EB000A10B522F20088C240A128A155F2F602F45
:101EC000000083120313861022080800A700A80050
:101ED0000A30A901A000A1012908A3002808A20036
:101EE00083270A128A152008FB007B0EF039FB00BD
:101EF0000A30A000A1012908A3002808A200AD27EC
:101F000020087B070800A401A5012008210403196B
:101F1000A82FA601A60AA11B912F0310A00DA10DA9
:101F20008A2F0310A40DA50D21082302031D9A2F4B
:101F300020082202031CA42F2008A2022108031C4F
:101F4000A303A30224140310A10CA00CA60B912F31
:101F50002508A1002408A000080020082104031976
:101F6000CC2FFA01FA0AA11BB92F0310A00DA10D65
:101F7000B22F21082302031DBF2F20082202031CB9
:101F8000C82F2008A2022108031CA303A3020310E8
:101F9000A10CA00CFA0BB92F2308A1002208A00065
:101FA0000800B2004930A0009930A1003208A20018
:101FB000C7300A128A113E220A128A150A128A11A1
:101FC000F6250A128A11CF2C840083170008B0006E
:101FD000840A0008B100840A0008B200840A0008DC
:101FE000B3000800831203136C08A9000830AA008C
:101FF0000230AB00C7342D08FB002C08FA000800A3
:10208C0064008001840A04060319003404064728FE
:10209C00831662088312D400831661088312D3005E
:1020AC003C30D5009830D6000A128A11A72383122F
:1020BC00031354088316E200831253088316E100BD
:1020CC00080083165D088312D30083165E08831202
:1020DC00D4007530D501D601DA01D901D8002F30E2
:1020EC00D7000A128A11E92254088316DE008312E3
:1020FC0053088316DD000800731EF319ED01C03080
:10210C000A128A11BB240A168A11E53083120313B2
:10211C00A0009930A100C730A2010A128A113E22F8
:10212C000A168A110A128A11F6250A128A11CF2C64
:10213C00CC0083165A088312C800831659088312E0
:10214C00C700831658088312C600831657088312DB
:10215C00C5000A30C900C7300A128A110325EC00E9
:10216C000830B2004C08B3006C080A168A11802D96
:10217C00D1001E30AC00AD01AE01AF015108083EDC
:10218C000A128A15E4270A168A110A128A151826C9
:10219C000A168A112D08D3002C08D2003C30A0005E
:1021AC00A1015308A3005208A2000A128A15832722
:1021BC000A168A112008CD002108CE00CF01D001CB
:1021CC005008C8004F08C7004E08C6004D08C5008F
:1021DC000A30C900C7300A128A1103250A168A115F
:1021EC00EC00C73E84003A3080003C30EC0AA00082
:1021FC00A1015308A3005208A2000A128A15AD27A8
:10220C000A168A1120080A128A1566270A168A11DC
:10221C00AA006C08C73E0A128A159626EC0AEC0A2C
:10222C006C08A9000830AA004C08AB00C7300A1291
:10223C008A11CF2CC4003C08C2003B08C1003A08EC
:10224C00C0003908BF003D08AC003E08AD00AE012F
:10225C00AF014208B3004108B2004008B1003F088A
:10226C00B0000A128A1518260A168A112F08C20005
:10227C002E08C1002D08C0002C08BF00C40A42085B
:10228C00410440043F04031D29294408840083139E
:10229C008001C4033D08A0003E08A100A201A301D7
:1022AC003C08A7003B08A6003A08A5003908A40082
:1022BC0091212008C3003D08AC003E08AD00AE01E2
:1022CC00AF013C08B3003B08B2003A08B100390832
:1022DC00B0000A128A1518260A168A112F08BC009B
:1022EC002E08BB002D08BA002C08B9000A30430296
:1022FC00031C82290730C3073030C307440884000D
:10230C00430883138000C4033C083B043A0439049B
:10231C00031908005029230822042104200403195E
:10232C00C629FA01FA0AA31BA1290310A00DA10DBD
:10233C00A20DA30D982923082702031DAF292208FB
:10234C002602031DAF2921082502031DAF292008F1
:10235C002402031CC0292008A4022108031C210FFD
:10236C00A5022208031C220FA6022308031C230F1C
:10237C00A7020310A30CA20CA10CA00CFA0BA12910
:10238C002708A3002608A2002508A1002408A00005
:10239C0008000A30CC01CC0ACD01CD0ACE00831640
:1023AC006408F7218316E40008000D30CC00FF30E0
:1023BC00CD01CD0ACE0083165F08F7218316DF000E
:1023CC0008008C30FA00E630FB00E0305E22C430AE
:1023DC000A128A11BB240A168A1102300A168A11B3
:1023EC008B2E8312D3000530ED00831203136D087E
:1023FC0003195B2AF2134D08FA004E08FB00533008
:10240C005E220A168A1108304C060319132A530847
:10241C00CF00D001D101D2012B2A5308A0000330E8
:10242C00A101A201A301A701A601A500E830A40007
:10243C000A168A11CE240A168A112308D200220801
:10244C00D1002108D0002008CF005208C800510844
:10245C00C7005008C6004F08C5000A30C900C73075
:10246C000A128A1103250A168A11EC004C08A900DD
:10247C006C080A128A156C250A168A11EC07C430EE
:10248C000A128A11BB240A168A110A128A15F2271B
:10249C000A168A110A128A11CF240A168A110A12F4
:1024AC008A113C250A168A11FB29F21753080800D9
:1024BC00A000840083130008A100731E6F2AA10AD8
:1024CC007B08013E2106031D6D2A7A08A100053008
:1024DC00ED00F31D7B2AA1037A08FF3E2106031DA4
:1024EC00792A7B08A1000530ED0020088400210822
:1024FC00800008000430E400A330F42B0330E40027
:10250C009730F42B8316E2188F2A8312E801E80A1D
:10251C00922A02308312E8006808E400AF30F42BF2
:10252C0080300A128A11BB240A168A117218DF2A0B
:10253C000A128A15C4250A168A11831203173A083F
:10254C000313B200B301B30A03173B080A128A152E
:10255C0098230A168A11721ACE2A02300A168A1188
:10256C009E200A168A11C0300A128A11BB240A1640
:10257C008A1183120313DC01DC0A83166208013909
:10258C00DD260A168A1102308B260A168A11FF2ABA
:10259C0002308223C0300A128A11BB240A168A1117
:1025AC000130112302300A128A114D270A168A11A2
:1025BC00FF2A8316031324088312DD0083162308D5
:1025CC008312DC00DE01DF01E001E00ABC260A1602
:1025DC008A1102308223C0300A128A11BB240A16D7
:1025EC008A110130112302300A128A11F5260A16BB
:1025FC008A11F21E721E08001530B2009A30B30018
:10260C000A128A1578250A168A11003A031908004D
:10261C000A128A11252983120313E8000930FA00E3
:10262C00EB300A128A15CD250A168A11E400E50151
:10263C006508003A0319642B812B6808DC008316AB
:10264C0062080139DD2E68088B2E6808CC00AF308B
:10265C000A168A11BE286808DC00AF30582E6808AC
:10266C00DC00AF30672C6808DC00AF30582D6808F0
:10267C00DC00AF300A128A11D62F0B30A9000030C3
:10268C000A128A156C250A168A11E600E7018316D0
:10269C000317410883120313DD0083160317400848
:1026AC0083120313DC006708DF006608DE0068088D
:1026BC00E000BC2E68080A128A15742A6408003AD5
:1026CC000319232B013A0319292B033A03192B2B3A
:1026DC00013A0319312B073A0319352B013A031927
:1026EC00392B033A03193D2B013A0319432B0F3AAB
:1026FC000319602B812B0800CC0072198C2BF92745
:10270C000A128A113E220A168A11ED2B8316E21B3D
:10271C00982B04308312D0007830CF006830CE0074
:10272C00C030A02B02308312D0003C30CF003430AC
:10273C00CE006030CD00831603174B0883120313B1
:10274C00AC00831603174C0883120313AD008316D9
:10275C0003174D0883120313AE00AF015008B300EA
:10276C004F08B2004E08B1004D08B0000A128A158D
:10277C0018260A168A112D08D2002C08D1000A300E
:10278C00A000A1015108053EA20052080318013E09
:10279C00003EA3000A128A1583270A168A11210803
:1027AC00A8002008A7000A30A900AA013F25280884
:1027BC00D2002708D100C50052080A128A11062639
:1027CC000A168A110A128A1103250A168A11EC00BC
:1027DC000230B2004C08B3006C08802DE7005E306C
:1027EC00A0009A30A100C730A2010A128A113E2221
:1027FC000A168A11EC002230A0009A30A10064085D
:10280C00A2006C08C73E0A128A113E220A168A11CF
:10281C00EC0780300A128A11BB240A168A11831223
:10282C0003136C08A9000830AA00C730AB01AB0A2F
:10283C000A128A11CF240A168A110230DC006708AA
:10284C005826C0300A128A11BB240A168A114C2C45
:10285C00DC01DC0A670867240A168A110230DC00E6
:10286C00670858250A168A11632CCC01CC0A670814
:10287C000A168A11BE200A168A110230DC0067087B
:10288C000A128A11D6270A168A11632C0230FA0012
:10289C00EC300A128A15CD250A168A11E500E601DC
:1028AC006608003A03195B2C632C6508003A03197F
:1028BC002E2C013A03193B2C632C6708B500003011
:1028CC00712EE30001250A168A113A08E200390834
:1028DC00E1006308063E840083170008DD00840ACB
:1028EC000008DE0000305E02053003195D02031C97
:1028FC00862C003062020330031961020318922CFB
:10290C006430A0009A30A100C730A2010A128A11CB
:10291C003E220A168A11C72C6108AC006208AD0071
:10292C00AE01AF016308063E84000008DD00840A96
:10293C000008DE005D08A0005E08A1006430A20162
:10294C00A301A400A501A601A701CE242308B3006E
:10295C002208B2002108B1002008B0000A128A1522
:10296C0018260A168A112D08E0002C08DF006008D2
:10297C00D4005F08D300C730D501D50A94250A16B8
:10298C008A11EC000330B2005C08B3006C08802D97
:10299C00A801A901AA01AB01201CE82C2408A80756
:1029AC00250803110318013E031DA907260803116E
:1029BC000318013E031DAA07270803110318013E43
:1029CC00031DAB070310A40DA50DA60DA70D031039
:1029DC00A30CA20CA10CA00C23082204210420049B
:1029EC00031DD22C2B08A3002A08A2002908A10041
:1029FC002808A0000800C100840083170008A70065
:102A0C00840A0008A8000A30A900AA013F250A166A
:102A1C008A112808BE002708BD00D5270A168A117E
:102A2C00AE01AF014108023E840083170008BB00D1
:102A3C00840A0008BC003B08A0003C08A1000A3036
:102A4C00A201A301A400A501A601A701CE240A1688
:102A5C008A11DE270A128A1518262D08C0002C08A8
:102A6C00BF003D07B90040080318400A3E07BA00F2
:102A7C000800FA01FB01271C492D2908FA07031845
:102A8C00FB0A2A08FB070310A90DAA0D0310A80CBA
:102A9C00A70C27082804031D412D7B08A8007A08E1
:102AAC00A7000800DD00E6250A168A117B08DF0066
:102ABC007A08DE005F04031D6F2D6430A0009A308D
:102ACC00A100C730A2010A128A113E220A168A11ED
:102ADC00792D5F08D4005E08D300C730D501D50A24
:102AEC0094250A168A11EC00B201B20A5C08B300F4
:102AFC006C08802DB4003208A90034080A128A151B
:102B0C006C250A168A11B4073408A9000830AA00EB
:102B1C003308AB00C7300A128A11CF2CDB005308E4
:102B2C00C5005408C6000A30C701C801C9005B08BB
:102B3C000A128A1103250A168A11DA005508013E79
:102B4C00D600003003180130D700803A803C031DBA
:102B5C00B12D56085A020318C52D303083120313B9
:102B6C00CC005A08CD005508013ECE005B080A1275
:102B7C008A1148250A168A115508013EDA0083127B
:102B8C0003135A08D900D92D59085B07D600FF3E0C
:102B9C00840083130008D70059085B07D800840011
:102BAC0057088000D903D503550FCA2D59085B0768
:102BBC00D60084002E30831380005A08013E080092
:102BCC00C300C101C201083E840083170008B9008C
:102BDC00840A0008BA00840A0008BB00840A0008B2
:102BEC00BC003B043A0439040319532E43088400F7
:102BFC00E7270A168A11CE240A168A112308C00068
:102C0C002208BF002108BE002008BD00D5270A16E7
:102C1C008A11AE01AF014308023E84008317E727F7
:102C2C000A168A11CE240A168A11DE270A128A1570
:102C3C0018260A168A112C08BD072D080311031833
:102C4C00013E031DBE072E0803110318013E031D90
:102C5C00BF072F0803110318013E031DC0074308CB
:102C6C00083E840083170008AC00840A0008AD00FD
:102C7C00840A0008AE00840A0008AF004008B300C4
:102C8C003F08B2003E08B1003D08B0000A128A1598
:102C9C0018262D08C2002C08C1004208FB00410870
:102CAC00FA000800DF0001250A168A113A08DE0036
:102CBC003908DD005E08D4005D08D300C730D501AB
:102CCC00D50A94250A168A11EC000830B2005C086B
:102CDC00B3006C08802DB6003608031D812E5730CA
:102CEC00B2009A30B3000A128A1578250A168A1196
:102CFC00003A031908003508A0000130A1000C307F
:102D0C00A201A3000A128A11682D83120313DE009C
:102D1C00831660088312A000A10183162808831271
:102D2C00DD00831627088312DC000530FF0003103A
:102D3C00DC0DDD0DFF0B9D2E5C08A2005D08A300D1
:102D4C000A128A1583270A168A112108D400200832
:102D5C00D300C730D501D50A94250A168A11EC0088
:102D6C000730B2005E08B3006C08802D5D08D400FB
:102D7C005C08D300D501D50A5E08C73E94250A1617
:102D8C008A11EC0003305D02E93003195C02031870
:102D9C00D32E5E085F04031DD52EEC03EC035E08F6
:102DAC00EC07B201B20A6008B3006C08802D8312E4
:102DBC00E300E31FE32E0130E42E0030E1000F307E
:102DCC00E3050310630DDC3E8400831700088316B3
:102DDC00E700840A0008E800813067068130031997
:102DEC006806031D102F0230831263060319022F8D
:102DFC0003306306031D092F2D308316C700C8004E
:102E0C0002308312A02FF9270A128A113E220A16C9
:102E1C008A11A02F8312E2018316E81F1D2F2D307B
:102E2C00C700E709E809E70A0319E80A252F023069
:102E3C00831263060319272F2B308316C7008312C6
:102E4C00E20A0F30831667058312A70083120A303B
:102E5C00A801A900AA013F250A168A112708DD003E
:102E6C002808DE0004300310DE0CDD0CFF3E031DD1
:102E7C00392F8316670E0F398312A7008316680E3D
:102E8C00F0398312A7048316680E0F398312A80039
:102E9C000A30A900AA013F250A168A115D082707E6
:102EAC008316E70083125E0803185E0A2807831650
:102EBC00E8000230831263060319682F033063069F
:102ECC00031D912F0A30A000A101831668088312FC
:102EDC00A300831667088312A2000A128A1583279F
:102EEC000A168A112008DD002108DE00DF01E0014E
:102EFC006008C8005F08C7005E08C6005D08C50012
:102F0C000A30C9006208C73E0A128A1103250A1644
:102F1C008A116207A02F831668088312D4008316C7
:102F2C0067088312D300C830D501D50A94250A1638
:102F3C008A11013EEC0061080319C02F2030CC002F
:102F4C006C08CD000830CE00C7300A128A11482513
:102F5C000A168A11F630A0009930A1006308023ECF
:102F6C00A200C7300A128A113E220A168A110830B2
:102F7C00EC00CB2F033063060319CB2F0A30A900CA
:102F8C006C080A128A156C25EC076C08A90008302D
:102F9C00AA005C08AB00C7300A128A11CF2C83162A
:102FAC005D088312AC0083165E088312AD00080026
:102FBC002308B3002208B2002108B1002008B00099
:102FCC0008000008B900840A0008BA003908A000FB
:102FDC003A08A1004630A201A301A701A601A50051
:102FEC005030A40008006430A0009A30A100C73013
:102FFC00A2010800FF1B0A2883137F1883170008FF
:10300C00840A0319FF0A08007F087F398A00040824
:10301C00840A0319FF0A8200013404340234013497
:10302C000334073404340A3405340D3407341034B3
:10303C00063413340834163400341F343B345A34F9
:10304C0078349734B534D434F334113430344E34BA
:10305C006D341C3419341F342234253428342B3469
:10306C008134843489348C348F34C03400347034DB
:10307C006134693472342F347034613472342034D6
:10308C0069346E346A34003473346B34693470349C
:10309C002034743465346D34703400346B346534DE
:1030AC007934203473346F3475346E3464340034B2
:1030BC007334653472347634203461346C34613456
:1030CC0072346D3400346D3468342034723470349E
:1030DC006D340034743472346934703420344234B6
:1030EC0020346D346F346E3474346834003474347A
:1030FC007234693470342034433420346434613491
:10310C007934003469346E342F346F34753474343C
:10311C002034743465346D34703400346434733456
:10312C0033343234333431342034743465346D34C4
:10313C007034003400340034003400340034003473
:10314C00003400346634753465346C3420346334A4
:10315C006F346E347334743461346E3474340034BC
:10316C00763473347334203463346F346E34733484
:10317C00743461346E347434003474346F34743495
:10318C0061346C34203474347234693470340034E7
:10319C0076346F346C347434613467346534203471
:1031AC00613464346A347534733474340034733475
:1031BC0065347434743469346E3467347334203445
:1031CC0062346934743473340034743465346D345B
:1031DC0070342034733465346E3473346F34723419
:1031EC00733400346D3469346E3420347334703479
:1031FC006534653464340034733477342034763475
:10320C0065347234733469346F346E340034003482
:10321C0065346E34673469346E3465342034683404
:10322C006F34753472347334003465346E346734EF
:10323C0069346E34653420346F3469346C34003442
:10324C00673465346134723462346F3478342034CA
:10325C006F3469346C340034613469347234203422
:10326C00663469346C3474346534723400347334B9
:10327C007034613472346B34203470346C34753483
:10328C006734733400340034733475346E346434FE
:10329C006134793400346D346F346E346434613499
:1032AC007934003474347534653473346434613473
:1032BC00793400347734653464346E346534733463
:1032CC006434613479340034743468347534723451
:1032DC007334643461347934003466347234693450
:1032EC006434613479340034733461347434753437
:1032FC007234643461347934003400346A346134A7
:10330C006E34003466346534623400346D346134A8
:10331C007234003461347034723400346D3461347E
:10332C00793400346A3475346E3400346A3475344C
:10333C006C34003461347534673400347334653460
:10334C00703400346F346334743400346E346F343E
:10335C00763400346434653463340034FF34003420
:10336C000134FF3402340334FF3404340534FF34A5
:10337C0006340734FF346834FF346C34FF3456346D
:10338C00FF346B346D34FF347334FF34DF34FF346B
:10339C003C34FF346D347334FF34FF34743469348B
:1033AC006D346534203463346F3472347234653464
:1033BC006334743469346F346E343F3400343034D5
:1033CC0039343A34343439342034303439342E34BA
:1033DC00303438342E3432343034323432340034E5
:1033EC0000342D342D342D3400346F347534743452
:1033FC00003469346E34003465346E346734003410
:10340C007734613469347434203466346F347234F4
:10341C002034733474346134723474340034303482
:10342C002D343134303430342034743469346D34C8
:10343C0069346E3467340034003463347534723458
:10344C00003464346134793400344134003442340F
:10345C00003463346F346E3466346934673420342A
:10346C006D3465346E3475340034003420346F346C
:10347C00663466340034203420346F346E340034B7
:10348C002D342D342D342D342D3427342D342D342E
:10349C000034743469346D3465346F347534743479
:1034AC000034723465347334653474343F3400340E
:1034BC007434723469347034203400342D342D3427
:0634CC002D342D34003404
:103534000B1CC72B86080B10831203130F08FD0006
:103544000E08FC007C08031DA92A0F08FD000D1CB1
:10355400AF2A6A30FC001830FD00861B0B2BF219D1
:103564002B2B83168112F215721671148312031712
:10357400940A0319950A0319960A0319970A8316DC
:103584000313E21BCE2A83120317940A0319950A24
:103594000319960A0319970AF218DC2AF2148316FF
:1035A4000313A001A101A2017D08A6007C08A500C7
:1035B400C2012B2B7C0883160317CB007D08CC009B
:1035C400CD0103132508F4002608F500F60174085C
:1035D4000317CB027508031C750FCC027608031C75
:1035E400760ACD02031320080317CB07031321081F
:1035F40003110318210A0317031DCC070313220820
:1036040003110318220A0317031DCD0703177215AC
:10361400D22AF21D2B2B83168116F211F21C2B2BAE
:103624007D080317CF007C08CE0003132508031779
:10363400CE02031326080317031CCF03CF02031380
:1036440020080317CE070318CF0A03132108031712
:10365400CF0783120313061FC62B721BC72B7217C7
:10366400F216F11E602BF11B412BF1177D08831616
:10367400B0007C08AF00AD01AE01C301612B83161D
:103684002E08B2002D08B1002F08B1023008031C27
:10369400B203B2027C08B1070318B20A7D08B2076C
:1036A400F115711632083602031D5A2B3108350202
:1036B400031C382B71177112F112612BF11383164D
:1036C400AB0A0319AC0ADB0A0319DC0A5E085C02C4
:1036D400031D6E2B5D085B02031C872BDB01DC01E1
:1036E400D70A0319D80A0319D90A0319DA0A831263
:1036F40003179A0A03199B0AA20A0319A30AAA0A1E
:103704000319AB0AB20A0319B30A83160317990AF9
:1037140003199A0A03135E0803171A02031D962B52
:1037240003135D0803171902031C9D2B99019A01C9
:10373400970A0319980AA50A0319A60A03135E082F
:1037440003172602031DAA2B03135D080317250282
:10375400031CB12BA501A601A30A0319A40AB10AEB
:103764000319B20A03135E0803173202031DBE2BAA
:1037740003135D0803173102031CC72BB101B20107
:10378400AF0A0319B00AC72B72130B1D022C831640
:103794000317950A0319960A9B0BDF2B03133E08A4
:1037A40003179B0003135F0803179C0A1C02031CE6
:1037B400DF2B9C019D0A03199E0AA70BF02B031310
:1037C4003E080317A70003135F080317A80A28027B
:1037D400031CF02BA801A90A0319AA0AB30B012C94
:1037E40003133E080317B30003135F080317B40A57
:1037F4003402031C012CB401B50A0319B60A0B11D7
:10380400831203130D1C1D2DF21C202C8316C20AD7
:103814003C304206031D162CF21081167211031758
:10382400CE01CF017212202C6A30A0071830031881
:103834001930A107003003180130A207F11F322C00
:1038440083160313C30A0A304306031D2C2CF113F9
:10385400F111322C6A30AD070318AE0A1830AE07E6
:10386400831603134608031D742C83120619482C6F
:10387400653083163B02031CBB0A64303B06031D00
:10388400552C731573140130EE00552C0530831636
:103894003B02031C542C33303B020318542C731684
:1038A4007314EE01BB0183128619662C65308316EE
:1038B4003A02031CBA0A64303A06031D752CF31449
:1038C40073140130EE00752C053083163A02031C84
:1038D400722C33303A020318722CF3157314EE0170
:1038E400BA01752CC603731C7B2C7310F2170F30AE
:1038F400C6006E0A03198F2CE21A842C02306E065D
:10390400031D8D2C7017F0126E086E076E07E43ECF
:10391400BF00B701B70AEE01EE03ED0BD92C6430FA
:10392400ED00F217031716080313AA00031715086E
:103934000313A90003179501960103132C08EA0049
:103944002B08E900AB01AC01F01CCD2CF010721A6D
:10395400AD2CF21ECE2C83120317900A0319910A80
:103964000319920A0319930A83169F0A0319A00ADA
:103974000319A10A0319A20AAB0A0319AC0A031911
:10398400AD0A0319AE0AB70A0319B80A0319B90A2A
:103994000319BA0ACE2CF01403134008031DC00304
:1039A4004108031DC10383126D08031DED03831633
:1039B4004408031DC403711EE22CB30A0319B40A9C
:1039C400701F1B2DB70B1B2D0A30B700F01AF22CF9
:1039D400F01670153F08840083170008013EB900F3
:1039E400701D012D7011B9030319FF2CF0153F0A46
:1039F400840083170008B800012D7013F012F01D25
:103A0400102D3808031D0E2DF0113F08023E8400CE
:103A140083170008FF3EB80083120714F019192D0C
:103A240083163808031D172D70158312071083168B
:103A3400B80383120D100C1F392D1E088316A8001D
:103A4400A7011E08A70400302802813003192702A9
:103A5400031C2E2DC501372D0A304506031D362DB6
:103A6400F2178312ED01372DC50A83120C1379085E
:103A74008A0078088400770E8300FE0E7E0E09000B
:103A84000A128A15B2250A168A158B13711C5A2D2F
:103A9400BB30D7270A168A1583160313621D582DC7
:103AA400831203173E088316C2005A2D0317C2015E
:103AB4008316031363086B06F0396B06E300831265
:103AC4006F08A700A70E83166308831227060F3911
:103AD40027068316E300CC250A168A150510712DD6
:103AE400F01FBD2D1D30F013C00070308312B400E0
:103AF400B501C730A000A1013408A2000830A3001A
:103B04000A128A11E0250A168A15E730A500C73083
:103B1400EF250A168A150318A52D3508903E840052
:103B2400053083170002031CA02D0310350DDC3E65
:103B3400840081308000840A8000B52D3508903ED1
:103B44008400800AB52D0310350DDC3E84008316F5
:103B5400670883178000840A680880008312350888
:103B6400903E840080010830B4070330B50A350262
:103B7400031808007B2D0130F017C000C12DF32677
:103B84000A168A15031C0800CC301E270A168A154B
:103B940044301E2F8312D730A6010A128A11EF2651
:103BA4000A168A1578270A168A151030A607973040
:103BB400A0000130A1002608A2002C30A300782721
:103BC4000A168A153030A6071030A0000130A10073
:103BD4002608A2002A30A300782FAF00F3260A1685
:103BE4008A150318F72D0310080055301E270A16EE
:103BF4008A152F08B300B201330884008313000828
:103C04001E270A168A150830B30AB20A3202031CA8
:103C1400FE2DBE301E270A168A152630B300B001C9
:103C2400B1018312031333088400C3260A168A15CC
:103C340083138000B30AB00A0319B10A3108803A29
:103C4400FF0080307F02031D292E09303002031C3F
:103C5400132E83120313250884002608831380007F
:103C6400840A270880000830FA002630B5270A168F
:103C74008A152E06031DF52D031408005430A000E8
:103C84000030A100FF30A2000830A3000A128A11FC
:103C940068250A168A155430AA260A168A1505308C
:103CA400DC01ED00831203136D080319972EF21340
:103CB400F31D632E0430DC0A5C020318DC010530BA
:103CC400ED00C730FA0054305727F630A000993081
:103CD400A1005C08013EA200D3300A128A113E22E0
:103CE4000A168A15EC002030CC006C08CD00043094
:103CF400CE00D3300A128A1148250A168A15C0301C
:103D04000A128A11BB240A168A150A128A11FD2581
:103D14000A168A150A128A11CF240A168A150A125B
:103D24008A113C250A168A15542E5C0803190800CA
:103D34005430A000A1015C08D3000310D30D03107C
:103D4400D30D0310530D683EA2000830A300782F52
:103D5400A200F3260A168A15031C080033301E2716
:103D64000A168A15A30122088400C3260A168A1596
:103D7400831380000830A20AA30A23020318080050
:103D8400B52EA001A1010310A00CD8260A168A158D
:103D9400031CCF2E83120313A017831203130830BE
:103DA400A10A2102031CC62E2008080083168512CE
:103DB40083128512DD2EDE2E000083160313851672
:103DC4000830FA00FA0BE42E003083120313851A2C
:103DD4000130FB005B30FA00FA0BEE2E00007B0C86
:103DE400080083168512831285120430FB001C30F0
:103DF400FA00FA0BFB2EFB0BFB2E000083160313B9
:103E040085167430FA00FA0B052F00000310831294
:103E14000313851E0314003003180130A00003307F
:103E2400FB00A830FA00FA0B152FFB0B152F00002E
:103E340083120313200C0800A000A10120080139FB
:103E44002F270A168A158312031308300310A00CB7
:103E5400A10A210203180800202FFB000130FB05F2
:103E64007B080319462F83168512831285120830A6
:103E7400FA00FA0B3B2F8316031385166330FA00FE
:103E8400FA0B422F452F08008316851283128512E0
:103E94007430FA00FA0B4C2F0000831603138516B6
:103EA4000330FA00FA0B542F0800A0001030A100D0
:103EB400A10B5D2F08002008840083130008A200D2
:103EC400211C682F0F30A20EA205692FA00A0F3003
:103ED400A2050A3022027A0884002208031C742FE7
:103EE400373E752F303E8000FA0A5A2FA4018B1FEB
:103EF4007E2FA401A40A8B13A5012308250203180D
:103F0400962F200884008317211C83130008FA00CD
:103F1400250822079A270A168A1583120313A00A72
:103F24000319A10AA50A7F2F240B08008B17080088
:103F3400FB00831603178C189B2F7B0883128D00BC
:103F44007A088C003F3083168C0503108B1B0314F6
:103F54008B130C1555308D00AA308D008C140C1168
:103F640003188B170800A300A401D22F2308840090
:103F74000008A0000830A30AA10021080319D22FC9
:103F840024082006A2000130A2050310A40C220874
:103F94000319CE2F8C30A4060310A00CA103BF2F4D
:103FA400FA037A0FB82F2408080083120313A6001B
:103FB4000A128A15C42583122608840003173A08B6
:103FC400831780000313260A840003173B0880002C
:103FD40003132608023E840003173D0880000313E0
:103FE4002608033E840003173E08800003132608B6
:0C3FF400043E840003173F088000080012
:02400E00723FFF
:104200009A00CB0004000000CC0000006C003E00CF
:104210006E00B3000000E200130005000000000083
:10422000090000006300250018000E00590000007E
:10423000AD0001000000000006000100360024006F
:10424000740042001E000C00E6003D00000000006B
:1042500038000000720010004A001B004A000200F3
:10426000DB000A000000000025001800160007000F
:104270002200940003000000000000000000000085
:10428000E4001F00060000000B009800FA00000088
:1042900000000000AE0017000A001300110021000A
:1042A0000000000064001800280007001100210031
:1042B00000000000CB002A000A00210003002000BB
:1042C00000000000360036000A000700010021004F
:1042D0000000FF00000000000000000000000000DF
:1042E00028008A0009009500F00001003C00FC0055
:1042F000FF00FF00FF00FF00FF00FF00FF00FF00C6
:10430000FF00FF00FF00FF00FF00FF00FF00FF00B5
:10431000050006000500000000000000010002008A
:104320000A0015001500000010000500070001003C
:104330000700050007000000000001000200000067
:10434000000000000800100000000A001500150021
:104350000C0014001400010002000500010001001F
:10436000000000000000000000001F0015001F00FA
:10437000030005000500000000000100020000002D
:104380000000000008001000000014001C000400E1
:00000001FF
