:0400000044EF00F0D9
:100008007D82FACF24F0FBCF25F0D9CF26F0DACFC6
:1000180027F0F2A014D08152F290CECF5EF0CFCF6D
:100028005FF0A1A008D0CF505F1805E188EC1DF063
:100038009EEC1DF05888FEEC16F0D4EC17F0F2A4F4
:1000480003D0F29484EC1BF0A1A00BD0A19058B877
:1000580005D088EC1DF09EEC1DF001D05898E0EC1E
:1000680003F09EAC03D09E9CD9EC20F027C0DAFFA9
:1000780026C0D9FF25C0FBFF24C0FAFF7D921100DE
:10008800DAEF12F059AC07D0020E716002D0712A73
:10009800599C1E0E6C6E6C5002E059A80AD05998F3
:1000A800715001E07106715002E16C6A02D01E0EB7
:1000B8006C6E715004E184EC08F0DF9A5ED184EC38
:1000C80008F0DF8A5AD169D9AED9A8EC03F0C3EC9D
:1000D80019F07BD9B8EC21F057EC11F0B8EF21F00A
:1000E800EF0EB8D91E0E2B6EAFEC20F056D99BD967
:1000F800A8EC03F0C3EC19F068D9B8EC21F00001C2
:10010800EF293CEC21F093D967EC16F085D9C3ECC4
:1001180019F07BD9C00EB8EC21F00001EF51020DA7
:10012800AE0EF324D96E010EF420DA6EDF50E96FBB
:10013800EF5153D9EA6FEB6BEC69D26B1200E929E6
:1001480001E1FED0EB0E286E296AEA052A6E1E0E22
:100158002B6EAFEC20F00001EB51EC1925E0E90E15
:100168008D6FEFC08EF094EC13F08DC09AF08EC0B6
:100178009BF0EBC0ECF060D9A50EDE1808E05CD966
:10018800AA0EDE1804E0EB5102E1E9690DD0D26B4A
:10019800030EEF1905E19AC0C2F09BC0C3F004D06A
:1001A8009AC0C0F09BC0C1F0E92901E1C9D0030E93
:1001B800EF193CE1C229986F000EC321996F5EECDC
:1001C8000EF020EE06F0C25111D9EFEC13F02FD942
:1001D80063EC0EF02D0EDF6E9E2B5B0E9E2535D93F
:1001E80020EE07F0C25102D9EFEC13F000019E2770
:1001F8009EC034F0010E356EC00E9AEC20F000015E
:1002080020EE08F0C251D926C351DA22D9D896C0B7
:1002180042F097C043F023D946EC14F000019E6FDA
:100228009EC050F0EBD8B5EC16F069D0C029986F95
:10023800000EC121996FC0C0D9FFC1C0DAFFA50E59
:10024800DE180FE1B5EC03F0060EC0254F6E000E68
:10025800C121506E7BEC06F0470E00019C6F020E28
:1002680005D0060EC0259C6F000EC1219D6F3CD0A5
:100278009CC0D9FF9DC0DAFFA3D896C080F097C074
:1002880081F0826B010E836FE80EA3D8B0EC1BF0EF
:10029800000120EE04F086D8810E836FE30EACECEB
:1002A80003F0B0EC1BF02BD020EE02F07BD8810ECF
:1002B800836FE10E8ED8B0EC1BF09CC03CF09DC063
:1002C8003DF0020E3E6EC80E9CEC18F018D020EEE1
:1002D80006F068D8010E836FE60E7BD8B0EC1BF0F1
:1002E800B0D89AEC20F00BD0D251966F976B9751FB
:1002F80006E19651BDE0010AD7E0030AE8E00001F3
:10030800EB293CEC21F093D8376E386A010E38227D
:1003180098C039F099C03AF037EC13F076D8800ECF
:10032800B8EC21F059AC0CD0030E0001EF1905E030
:10033800D22B020ED26501D0D26B1E0E6C6E5B8C76
:100348000001E929D8A4120028D866D8C3EC19F00E
:100358003CD8B8EC21F021D8B30E2C6E7F0EA8EC57
:1003680003F0C3EC19F0346E54EC11F0B8EC21F042
:1003780059AC12006C6A5B8C12007150966F976BC7
:100388009751D8A41200965101E19DD6010A01E1C6
:10039800A7D6030A01E1D3D612005B0E2A6E010E1E
:1003A8002B6E12009C51D9269D51DA22DECF96F091
:1003B800DDCF97F096C080F097C081F0826B120075
:1003C800DECF96F0DDCF97F01200346E010E356E59
:1003D800800C846F010E856FC00C020DAF0EF324E4
:1003E800D96E010EF420DA6EDF501200D926C351FF
:1003F800DA22DF50346E356A366A12000E0E516EFC
:10040800090E526E020E536EC80C00019E279EC044
:1004180034F0010E356E010C910E2C6E7E0E2D6E91
:10042800EF292E6E12005D0E2C6E7F0E1200000159
:100438009E6F5B0E9E2512009AC0D9FF9BC0DAFF03
:100448001200346A020E356EC80C326E336A010E21
:1004580033221200286E296A030E2A6E030C446A9E
:10046800020E456E020C59AA03D03C0E6C6E711E2A
:100478006C5005E058A604D0330E6C6001D0716A48
:1004880070D9290E4F6E010E506E7BEC06F071503C
:100498005EE1000184EC08F0DF9A58B60AD0A3ECBC
:1004A80022F09AC137F099C138F083D9B4EC1FF023
:1004B8000ED03BC241F03CC242F069D95AEC20F060
:1004C8003BD9846F010E856F800EB0EC1BF058A6E7
:1004D8005BB608D04BD90001836BE80E5CD9B0EC51
:1004E8001BF00CD03DC280F03EC281F00001826B4F
:1004F800800E836FE20E4FD9B0EC1BF058A65BB6A6
:100508000DD065C080F0010E0001816FC00EDCECDB
:100518000BF00AD9C80E99EC1FF011D0010E00019A
:100528008D6FC00E8EEC15F041C280F042C281F092
:10053800C5EC0BF0F151E0090BD9B0EC1BF05BA84E
:100548005BA6120059A81200599823EF16F0000173
:1005580084EC08F0DF8A58B404D01B0E696001D01F
:10056800696A700E2EEC02F03C0E2B6EAFEC20F098
:1005780059ACC7D03C0E6C6EC4D065C080F0010E7B
:10058800816F800EDCEC0BF0CFD8880E99EC1FF051
:10059800B8EC0BF0EDEC01F0B0EC1BF0CFEC0BF08D
:1005A8000001C1EC0BF0D4D8B0EC1BF014EF1EF036
:1005B80059A80BD059985BA65BB802D054EC05F04B
:1005C8003C0E6C6E5B8C14EF1EF0C00E806F020E3A
:1005D800816F800EDCEC0BF0346A020E356E880EEB
:1005E8009AEC20F0C10EE0D8C00EDCEC0BF0A20EA5
:1005F800DBD8C80EDCEC0BF014EF1EF059A80CD0B9
:10060800ABD8F5EC1DF0000905E0C9D87BC079F03E
:100618007CC07AF03C0E6C6ED1EC01F0DE0E2C6ED4
:100628007F0E92D8C3EC19F0346ED9EC0BF09AEC2B
:1006380020F07AD8880E99EC1FF0790E0001806FAF
:100648000B0E816F010E826FC00E99EC1FF07B0EAE
:100658000001806F0C0E816F020E826FC80E99EC3C
:100668001FF014EF1EF059A80BD076D8F5EC1DF04A
:10067800000904E00101866BEEEC14F03C0E6C6E90
:10068800D1EC01F0940E2C6E7F0E5ED8C3EC19F0FD
:10069800E9EC01F0B8EC21F059A019D043C241F0BF
:1006A80044C242F074D85AEC20F046D8EDEC01F080
:1006B800B0EC1BF045C280F046C281F0C5EC0BF0EF
:1006C800F051E00945D8B0EC1BF014EF1EF0D1EC66
:1006D80001F059D839D8C3EC19F00001B56FB5C08D
:1006E80050F04BD8B5EC16F0B5C050F00E0E516E68
:1006F800030E526E020E536EC80EB5EC16F014EFD0
:100708001EF070500001B36FB46BB4510BE1B351DC
:1007180001E133D7010A01E171D7030A01E148D7A2
:10072800010AA1E014EF1EF0770E0001806F0E0E93
:10073800816F020E826F020C41C080F042C081F0CE
:100748000001826B836BE10C2D6E000E2E6E000C87
:10075800846F020E856FC80CED0E376E7F0E386EF3
:100768001200470E4D6E020E4E6E1200DBC080F076
:10077800DCC081F0DDC082F012000E0E516E010E59
:10078800526E536EC00CFA0E2C6E7F0E1200446A25
:100798000A0E436E0A0C846F020E856F880C77C0B0
:1007A8007BF078C07CF012000001806F020E816F30
:1007B800020C010E396E800C0001DA512BE181B474
:1007C8000AD0650E676001D0672A640E67180CE1CD
:1007D800598A598409D0040E676405D0150E6760DC
:1007E80002D0598E5986676A81B60AD0650E66604E
:1007F80001D0662A640E66180EE1598859840BD018
:10080800040E666405D0150E666002D0598C5986B0
:10081800666A01D0DA0759B602D059A40DD059A694
:1008280002D0766A04D059A402D0010E766E599689
:1008380059940F0EDA6F5B8C5AAE08D0D92B1A0E6A
:10084800D91905E15B8C6C6A5A8C01D0D96BF22FEF
:10085800C7D0640EF26F5B8C5BB602D05BA837D052
:1008680001013D2B000E3E233F234023192B1A2361
:100878001B231C23252B262327232823312B322314
:1008880033233423090E86610AD08F518D5D905130
:100898008E5903E28D4B8E2B02D047EC1FF0870E4A
:1008A800016E010EF7D886EC09F001C005F102C00F
:1008B80006F1810E016E010E026E62C003F063C084
:1008C80004F086EC09F001C0C6F002C0C7F00001D0
:1008D800E6AD0BD0E80E016E010EDCD886EC09F00F
:1008E80001C009F102C00AF104D060C009F161C079
:1008F8000AF15BB603D00101096B0A6B606A616A91
:10090800625063105EE062500001DF276350E0230D
:10091800E151DF5DE251E05914E320EEE1F0DE50F1
:10092800DF5FDD50E05BDB2B000EDC23DD23DE2305
:100938000101434B442B494B4A2B4F4B502B554BF2
:10094800562B625001011327635014230001E15113
:100958000101135D0001E2510101145908E320EE81
:10096800E1F0DE50135FDD50145B114B122B625027
:100978001F27635020230001E15101011F5D000181
:10098800E2510101205908E320EEE1F0DE501F5F3B
:10099800DD50205B1D4B1E2B62502B2763502C23F0
:1009A8000001E15101012B5D0001E25101012C59C7
:1009B80008E320EEE1F0DE502B5FDD502C5B294B85
:1009C8002A2B62C0C8F063C0C9F0626A636A6950C2
:1009D80001E069066A5001E06A066C5001E06C06A5
:1009E8006B5001E06B065AA203D00001CC4BCD2B13
:1009F800762828E00001E6BB03D0020E761821E134
:100A08005982589E11D0010ED76F080ED66FD56B3C
:100A180018D0010ED76F280EF9D7030ED76F1E0E08
:100A2800D66F140ED56F0DD076C020F0216A20BE87
:100A38002106215006E12050E6E0010AEAE0030A17
:100A4800ECE0766859A2120058BE04D0588E588A35
:100A5800D7C0D4F058AA0BD0589A0001D45103E15A
:100A68005992589E04D0D407588CD6C0D3F058ACAD
:100A780007D00001D35103E1589CD5C0D3F0828040
:100A880058BC05D00001D35101E1588A8290000179
:100A9800D3071200026E60C003F061C004F01200B8
:100AA80021EEA3F010EEA5F0050EDBCFE3FFE8067C
:100AB800FCE20001AD6BAE6BAF6BB26B59B2FED707
:100AC800F29E8D0E386E030E396ECCEC1CF00001D0
:100AD800AC6FF28ECEEC22F0579C640E6B6E0A0E51
:100AE8006C6EBCD00001AC517CE057BC17D06B5089
:100AF80015E1578CB06BB051080DF3508D0FD2EC47
:100B080012F08EEC17F005E30001B051DDD8CDEC02
:100B180012F00001B02B020EB065EDD7B20E286EB0
:100B2800296AAC0568EC0EF0AFEC20F059AC0AD09D
:100B38000001C5D8DF2A040EDE1802E1C0D8DF6A3A
:100B48000A0E6C6EAED8A7EC21F057AC0DD00001A0
:100B5800B251BAD8DECFE1F1DDCFE2F1030E806FFA
:100B6800816BFF0EDCEC0BF0D1EC01F0BC0E2C6EAF
:100B78007F0EA8EC03F0C3EC19F00001B251310F5D
:100B88000101646F2F0E656F0001AC51300F010138
:100B9800666FA9D8B8EC21F00001B251080DF350E6
:100BA8008D0F286E5B0E296E010E2A6EADEC1DF0BE
:100BB80091D877EC0CF0B2517DD8566E56282E6E2F
:100BC800C3EC19F00001AB6F670E3C6E010E3D6E71
:100BD800200E3E6EABC03FF0040E406EE6EC1FF0F8
:100BE8001AD0D1EC01F0110E2C6E7D0E2D6E060E72
:100BF8002E6EC3EC19F0E9EC01F0B8EC21F051D8F5
:100C0800A7EC21F0D1EC01F02A0E2C6E7F0EA8EC97
:100C180003F0C3EC19F063D8B8EC21F0B0EC03F0A2
:100C2800F5EC1DF0000918E0010E0001AD6F020E91
:100C3800AE6F030EAF6F810E0101DC6FDB6FDE6FED
:100C4800DD6FE06FDF6F8D0E286E296A2A68180E37
:100C58002B6EA7EC21F06C6AB9EC22F05B9C6C500F
:100C680001E040D75B8C0001B16B020EB16501D089
:100C7800020CB1511FD812E0B151080DF3508D0F7D
:100C8800566E56C02BF02C6AB15114D8080DF3508B
:100C9800580F2D6E080E2E6E2EEC20F00001B12B91
:100CA800E4D75B0E286E010E296E200E2A6E100EF8
:100CB8002B6E100CAD0FD96EDA6ADF501200B251EC
:100CC800AD0FD96EDA6A1200020DF350A50FD96E76
:100CD800DA6A1200670E2A6E010E2B6E1200100ED1
:100CE800346E356AC00C100E346E356A800C1AD911
:100CF800DECF47F0DDCF48F082EC0CF04FEC21F06E
:100D080047C08CF048C08DF020EE02F04F50E3D879
:100D1800D7D80A0E77EC12F018EC1DF0C8D870EC92
:100D280009F017EC19F034C08EF035C08FF00001CF
:100D38008E518C25806F8F518D21816FE9D880C0AD
:100D4800DEFF81C0DDFF20EE06F0CED8DECF41F019
:100D5800DDCF42F0CBEC03F05AEC20F020EE06F0A9
:100D6800BED8DBD820EE08F0BFD8DECF34F0DECF17
:100D780035F0DECF36F0DECF37F03C0E6BEC12F0FC
:100D880017EC19F020EE08F0AAD834C0DEFF35C001
:100D9800DDFF20EE08F0A8D8DE50DE10DE10DE10F1
:100DA8004DE0C0D88DD8A5D818EC1DF028C082F029
:100DB80029C083F02AC084F02BC085F070EC09F0BC
:100DC80020EE02F091D8DECF86F0DDCF87F086C026
:100DD80028F087C029F02A6A2B6A8BD818EC1DF0F6
:100DE80066D817EC19F0345000018225886F355009
:100DF8008321896F365084218A6F375085218B6F04
:100E080088C034F089C035F08AC036F08BC037F01E
:100E180020EE08F069D8DECF38F0DECF39F0DECF2B
:100E28003AF0DECF3BF017EC19F063EC12F05AEC15
:100E380020F020EE02F053D870D805D020EE02F052
:100E48004ED8DE6ADD6A20EE06F049D8010EDB5086
:100E580003E1050EDE5C07E35BD8010EDB5009E118
:100E6800030EDE5C06E220EE04F039D8DE6ADD6AA5
:100E7800000C20EE06F04F502ED822D842D818EC9D
:100E88001DF015D845D8DECF82F0DDCF83F082C0C3
:100E980038F083C039F03A6A3B6A17EC19F063EC12
:100EA80012F05AEC20F020EE04F019D836D028C001
:100EB80034F029C035F02AC036F02BC037F01200C4
:100EC800DECF80F0DDCF81F080C028F081C029F02E
:100ED8002A6A2B6A1200D9265050DA2212004D5085
:100EE800D9264E50DA2212004F50D9265050DA2215
:100EF8001200400E2C6E7E0E2D6E050E2E6E2F6A81
:100F0800050CE80E2C6E030E2D6E2E6A2F6A030C4C
:100F18004DC0D9FF4EC0DAFF120041C0DEFF42C00B
:100F2800DDFF12004FC0D9FF50C0DAFF12000001E8
:100F3800BC6BB96BBA6BBB6B99EC1AF0CD80F28EB7
:100F4800010E696E0001E6A907D047EC17F0000111
:100F5800B76FB7512AEC1BF07750781002E15BAC01
:100F6800FBD75B8C5BAC05D05B9C8FEC0CF0DBECAF
:100F780018F05ABC65EC1AF0695002E17CEC12F0EA
:100F880057BA1BD0060E0001BB6FBC51030DC60E2D
:100F9800F324C46F010EF420C56F06D0BC2BBB2907
:100FA800BC19F3E1BC6BF1D7ABD8DFBEF7D758A6B5
:100FB80018D0A6D8DFACF2D714D0080E0001BB6F4A
:100FC800BC51030D200EF3245C6E020EF4205D6EFE
:100FD800BCC0B6F09CD8B63BDF50B6190F0BB6199B
:100FE800DF6E57B621D057A859A81FD057AA5BB6AD
:100FF8000ED05BB80CD084D8DFA809D081D8DFBA6E
:1010080006D0BCC0B9F0BAC0BCF0578A0BD057AAFA
:101018000CD0BCC0BAF0B9C0BCF0F5EC22F041EC81
:1010280022F0579A578601D0579657B661D057B8CD
:1010380016D0BCC0B8F057BA03D062D8DFBA09D00E
:10104800BC0E286E296ABBC02AF00A0E2B6EAFECC4
:1010580020F00001B851BC1904E0578802D0716A29
:10106800579857B845D057AA30D0DBEC1BF059AC8D
:101078003FD0599C74EC22F00A0E6C6E21D0D1EC52
:1010880001F0110E4BD843D84DD8C3EC19F0E9EC58
:1010980001F0B8EC21F05CC0D9FF5DC0DAFF01D8DF
:1010A8000AD00500FA6EDE50FD6EDE50FE6EF85076
:1010B800FF6EFA5012000C0E33EC22F0B9EC22F05D
:1010C8005B9C6C50DCE15B8C13D0C4C0D9FFC5C0FD
:1010D800DAFF01D80AD00500FA6EDE50FD6EDE5048
:1010E800FE6EF850FF6EFA5012000C0E33EC22F030
:1010F80014EC1EF05BAC57B635D757A8FBD732D7E0
:1011080020EE02F0C451D926C551DA22120020EE91
:1011180002F05C50D9265D50DA2212002C6E7D0E4A
:101128002D6E1200DF500F0B2E6E1200A06FD1EC47
:1011380001F06C0E2C6E7F0EA8EC03F0C3EC19F0D6
:10114800DDD8B8EC21F05A985A960001CC6BCD6BDB
:1011580058925890579EA051080D000EF324D96E4E
:10116800020EC1D8B9D817EC19F034C0CEF035C08A
:10117800CFF00001A051080D040EF324D96E020E21
:10118800B2D8AAD817EC19F034C00FF135C010F155
:101198005B0E286E010E296E3D0E2A6E100E2B6E08
:1011A800A7EC21F014EC1EF0100E6C6E6B6A5A84DA
:1011B8008CD06C500FE05AB00DD06B5001E085D048
:1011C800190E6B6E6CC034F0030E356EC00EB8ECA1
:1011D80021F07BD06C5050E05AA657BE05D01E0EA9
:1011E8006C6E578E74EC22F05AB004D000019E6BDE
:1011F8009F6B27D071D8800E346E460E356E1C0E4C
:10120800366E860E376E17EC19F034C09AF035C07A
:101218009BF036C09CF037C09DF09AC034F09BC05C
:1012280035F09CC036F09DC037F0CAC038F0CBC04E
:1012380039F03A6A3B6A17EC19F034C09EF035C0B1
:101248009FF05EEC0EF09EC034F09FC035F0366A19
:10125800EFEC13F0506EC1EC03F0B5EC16F0CCC017
:1012680042F0CDC043F033EC02F046EC14F0506E7F
:1012780002EC02F0B5EC16F06C5007E05AB605D057
:101288000B0E6B6E6B5021E0FDD75AB658B202D0E8
:1012980058821BD05A946C500EE1D1EC01F0D60E56
:1012A8002C6E7F0EA8EC03F0C3EC19F054EC1BF085
:1012B800B8EC21F004D00001A05118EC18F0020E8F
:1012C800766E0A0EE2EC22F0588058A059BE02D081
:1012D80059AC6FD75A941200E1C038F0E2C039F027
:1012E8003A6A3B6A1200F420DA6EDECF34F0DECFC1
:1012F80035F0DECF36F0DECF37F01200346E030E55
:10130800356E800CC0D815E10350056E0450066E8A
:10131800076A086AC5D805C0DEFF06C0DEFF07C039
:10132800DEFF08C0DEFFBCD8DECF01F0DDCF02F063
:10133800120020EE04F0AFD8DFAE24D020EE04F087
:10134800AAD87F0EDF169FD873E09DD8056E03C01C
:1013580006F004C007F0052A03D0D89006360736F1
:10136800052EFBD70650086E0750096E0A6A0B6AED
:1013780097D808C0DEFF09C0DEFF0AC0DEFF0BC039
:10138800DEFF56D08DD891D88BD8DECF09F0DECFCE
:101398000AF0DECF0BF0DECF0CF075D80D6EFF0E25
:1013A8000D26010E0E6E0F6A0D2A03D0D8900E3648
:1013B8000F360D2EFBD70E500924106E0F500A2041
:1013C800116E000E0B20126E000E0C20136E5BD8EF
:1013D800E82A05D0D8901332123211321032E82E92
:1013E800F9D70350146E0450156E166A176A105018
:1013F800145C186E11501558196E125016581A6E42
:10140800135017581B6E055018241C6E06501920CF
:101418001D6E07501A201E6E08501B201F6E40D8E4
:101428001CC0DEFF1DC0DEFF1EC0DEFF1FC0DEFFCA
:1014380037D83BD828D8096EFF0E0926010E0A6E48
:101448000B6A092A03D0D8900A360B36092EFBD727
:101458000A5005240C6E0B5006200D6E000E072056
:101468000E6E000E08200F6E0ED8E82A05D0D89010
:101478000F320E320D320C32E82EF9D70CC001F0C3
:101488000DC002F0120020EE04F00150D9260250DF
:10149800DA22DF5012000150D9260250DA22120057
:1014A80001C0D9FF02C0DAFF1200DECF05F0DECF9F
:1014B80006F0DECF07F0DECF08F01200A3EC22F032
:1014C8003B0E376E7F0E386EF5EC1DF0000901E11A
:1014D8009BD0546A4E6A74EC22F00A0E6C6E86D069
:1014E800540E286E296A050E68EC0EF0AFEC20F059
:1014F8005450050DDC0EF324526E7E0EF420536E0C
:1015080059AC64D0010E4E6E8DD8F5CFD9FF0900C5
:10151800F5CFDAFF020E7BD8F5CF34F0030E522454
:10152800406E000E5320416E40C0F6FF41C0F7FFE9
:101538000800F5CF35F076D8F5CFE1FF0900F5CFF3
:10154800E2FFE750C9EC21F0DF6E010E54643CD095
:10155800050E546039D0050EF66E7D0EF76E20EE3E
:1015680042F00B0E28EC1CF0FDE201019E5196ECB6
:1015780021F0506E01019D5196EC21F04F6E50C044
:1015880051F05040E8423F0B512601019C5196EC26
:1015980021F051264FC03EF03E063E50420FD96E14
:1015A800DA6ADF50512650C03EF0030E3E1606E1BF
:1015B8004F6004D0510602D0070E515E070E5160ED
:1015C800FBD7512801019B6F0A0E6C6E0C0E33EC91
:1015D80022F02ED8FCEC1AF0040E19D8F55033EC92
:1015E80022F00F0E33EC22F0B9EC22F05B9C6C5029
:1015F80001E076D75B8C4E50D8B41200990E2C6E51
:10160800010E2D6E30EF1AF013D8FCEF1AF05224A9
:101618003E6E000E53203F6E3EC0F6FF3FC0F7FF00
:101628000800120052C0F6FF53C0F7FF090012006D
:10163800990E3C6E010E3D6E120084EC08F0DF50EE
:101648000F0BAD6FAD050AE1290EAF6F010EB06F3C
:10165800010EE6B3020EAC6F030E0AD0020EAD19EE
:1016680009E1110EAF6F010EB06F030EAC6F020EE1
:10167800AB6F06D01D0EAF6F010EB06F040EF6D71C
:10168800D1EC01F0F40E2C6E7F0EA8EC03F0C3EC45
:1016980019F00001AE6F5B0EAE2567EC16F07B0EFD
:1016A8002C6E7F0E2D6EACC02EF0C3EC19F000012D
:1016B800AE27AEC034F079D89AEC20F0B5EC03F040
:1016C800AFC04FF0B0C050F07BEC06F05FD859D8EF
:1016D800E80ECFEC03F0B0EC1BF02ED05CD84DD860
:1016E800EDEC01F0B0EC1BF03FD8ACEC03F0B0EC43
:1016F8001BF033D055D8010E3E6EC00E9CEC18F08E
:101708004DC280F04EC281F03CD8E60EACEC03F03E
:10171800B0EC1BF022D03BC180F03CC181F0826B61
:10172800010E836FC10EEDEC01F0B0EC1BF025EC5F
:1017380002F09AEC20F011D0710E286EABC029F09F
:101748002BEC1FF00001A96FAA6BAA5106E1A95161
:10175800C5E0010ACFE0030ADEE0AFC0A7F0B0C0E1
:10176800A8F0000E7EEF1FF049C280F04AC281F057
:101778000001826B810E836FE10C826B810E836F97
:10178800E30C0001826B010E836F010C47C280F0ED
:1017980048C281F012004BC280F04CC281F01200A6
:1017A800470E3C6E020E3D6E1200010E356E800C27
:1017B8000001886F8051F00B8A6F0F0E80178051DF
:1017C800BEEC12F0DECF72F0DDCF73F0810E72182E
:1017D8000CE1810E731809E1D1EC01F084D8010EF7
:1017E8002E6EC3EC19F000014CD08C6B73AE0AD08E
:1017F800726C731ED8B0732A2D0E01015B6F000145
:101808008C2B04D08ABB02D02B0EF7D772C082F083
:1018180073C083F0040E846FD89083338233842F8F
:10182800FBD782C047F083C048F068D84FEC21F05E
:1018380047C085F048C086F00F0E7214476E486A9C
:101848005DD84FEC21F0040E0001876FD890483224
:101858004732872FFBD747508525726E485086211F
:10186800736E5B0E8C2529EC02F072C028F073C0F1
:1018780029F04DD863EC1DF03BD8EFEC13F00001D4
:101888008C258B6F030E801906E128D83BD8100EE3
:10189800406EE6EF1FF08AAF12D020D833D8080E7A
:1018A800406EE6EC1FF0D1EC01F01DD8000180512C
:1018B800020F2E6EC3EC19F0080E00018B6F0A0E92
:1018C8008AA90E0E896F8BC050F00E0E516E89C01A
:1018D80052F081C053F08851B5EF16F05B0E3C6EA4
:1018E800010E3D6E1200180E2C6E7F0E2D6E12002A
:1018F80028C034F029C035F0366A12004A6A0A0E48
:10190800496E0A0C200E3E6E8BC03FF0200C2B6AED
:101918000A0E2A6E0A0CC8C041F0C9C042F0CDECCC
:101928001FF041C03BF242C03CF202013B510101B1
:101938003B5D02013C5101013C5904E23BC23BF1D1
:101948003CC23CF109C147F00AC148F0C8C049F09F
:10195800C9C04AF0000111EC19F03B5DF4503C5944
:1019680088D81CEC12F047C041F248C042F25BB282
:1019780004D002013D6B3E6B3ED00001E6BF08D0AB
:10198800C00E806F680E816F780E826F040E07D0CC
:10199800600E806F340E816F3C0E826F020E836F73
:1019A80080C034F081C035F082C036F083C037F093
:1019B8000101A051386EA151396EA2513A6E3B6AAD
:1019C80017EC19F034C03DF235C03EF2446A0A0EF5
:1019D800436E3DC241F03EC242F05AEC20F041C095
:1019E80047F042C048F082EC0CF04FEC21F047C0C1
:1019F8003DF248C03EF2EDC052F0EEC053F0D89030
:101A080052365336D8905236533652C028F053C007
:101A180029F02B6A190E2A6E63EC1DF028C03FF2DC
:101A280029C040F25BA805D002013B513C1101E1FD
:101A38005B98C6C041F0C7C042F0CDEC1FF041C072
:101A480043F242C044F205C147F006C148F0C6C09F
:101A580049F0C7C04AF0000111EC19F0435DF45099
:101A6800445907D81CEC12F047C045F248C046F26A
:101A78001200010ED8A0000E4B6E1200750E286ED3
:101A8800050E296E2BEC1FF0D1EC01F04FEC11F094
:101A980075282E6EC3EC19F0E9EC01F0B8EC21F0D2
:101AA80075500BE1430E476E010E486EC4EC20F0F2
:101AB80041C043F042C044F00DD07550060D3D0EB4
:101AC800F324476E010EF420486E68D8DECF43F049
:101AD800DDCF44F05EEC0EF043C034F044C035F086
:101AE800366AEFEC13F0466E7550080ED8B4050E42
:101AF800456E5B0E462467EC16F0F9EC16F045C00F
:101B08002EF0C3EC19F046265B0E462463EC0EF06B
:101B1800200EDF6E462A46C034F0020E356EC00E27
:101B28009AEC20F020EE03F034D8DF50376E20EE28
:101B380004F02FD8DF50386E20EE05F02AD8DF5099
:101B4800396E020E3A6EC80EFAEC19F0B0EC03F0DA
:101B5800F5EC1DF00009D8B41200A3EC22F0755082
:101B680002E0750405E101013D6B3E6B3F6B406B84
:101B780015D8DE6ADD6A20EE03F00BD89CC1DFFFC2
:101B880020EE04F006D89DC1DFFF20EE05F001D855
:101B98000AD04750D9264850DA22120047C0D9FF48
:101BA80048C0DAFF12009EC1DFFF120083D845C08B
:101BB80034F046C035F047C036F0EFEC13F0506E05
:101BC8004550425C465043584750445812E272EC24
:101BD8000CF0300E3E6E6ED842C034F043C035F083
:101BE80044C036F0EFEC13F03F6E50C040F0E6EC26
:101BF8001FF0100E486E496A5050485E000E495A50
:101C0800D89049304B6E48304A6E4A50C00F4F6EDC
:101C1800516A0A0E6C6E40D0510E286E296A500423
:101C280053D8AFEC20F059AC0FD0599C5B0E51241F
:101C380046D8DF2A390EDF6405D05B0E51243FD821
:101C4800300EDF6E0A0E6C6E43D852EC19F031C0BC
:101C58004CF032C04DF033C04EF04C50455C4D5006
:101C680046584E50475805E25B0E512428D8300E8E
:101C7800DF6E0C0E33EC22F050C034F0010E356EDE
:101C88004F509AEC20F04F50512433EC22F00F0EB5
:101C980033EC22F0B9EC22F05B9C6C50BDE15B8C1C
:101CA80017D852EC19F031C042F032C043F033C0BB
:101CB80044F012005B0E326E010E336E1200D96EC4
:101CC800DA6A010EDA2212002A6E0A0E2B6E0A0C4C
:101CD8005B0E316E010E326E1200476A0A0E6C6E90
:101CE8007ED0470E286E296A0F0E68EC0EF0AFEC16
:101CF80020F047500F083B6E010E3C6E3D6A3B2AB0
:101D080003D0D8903C363D363B2EFBD73CC042F042
:101D18003DC043F059AC06D04250371A4350381AE8
:101D28000A0E6C6E0C0E33EC22F0425037143B6EE8
:101D3800435038143C6E3B1003E03D6A3D2A01D005
:101D48003D6A3D283E6E5B0E456E010E466E800E66
:101D5800416E406A100E446E405037143B6E41503D
:101D680038143C6E3B1006E044D82A0EDF6E454A14
:101D7800462A03D03ED82D0EF9D7D89041324032AA
:101D880044064450E9E173EC06F0B8EC21F055EC58
:101D980006F0A7EC21F0D1EC01F039C02CF03AC0E4
:101DA8002DF047282E6EC3EC19F03F6E3F500AE025
:101DB8006EEC06F09F0E2C6E7F0E2D6E3EC02EF040
:101DC800C3EC19F077EC06F0B8EC21F04750C00FDF
:101DD80033EC22F00F0E33EC22F0B9EC22F05B9CCE
:101DE8006C5001E07ED75B8C37C037F038C038F0D4
:101DF800120045C0D9FF46C0DAFF120020EE06F0F7
:101E080067D8DF9ED00E5BEC22F0000938E1000EA7
:101E180002EC21F0D10E5BEC22F0000EEEEC20F08B
:101E2800306E30BE03D0316A312A01D0316A20EEDB
:101E380006F04ED831323132DF5031187F0B31186D
:101E4800DF6E000EEEEC20F05CD857D841D8000EBB
:101E5800EEEC20F04AD83CD8000EEEEC20F049D841
:101E680037D8000EEEEC20F03CD832D8000EEEEC5D
:101E780020F033D82DD8010EEEEC20F0DF6EAEEC5A
:101E880022F020EE06F024D8DFAE06D020EE05F0D2
:101E98001FD8DF50D8A4120034D8100E2ED818D866
:101EA800190E23D815D8030E24D812D8130E19D812
:101EB8000FD8060E12D80CD8230EDF6E2EC02CF0C9
:101EC8002FC02DF030EC1AF02C6A0F0EE9EF21F03C
:101ED8002E50D9262F50DA221200DF6E20EE05F0A0
:101EE8001200DF6E20EE04F01200DF6E20EE02F02A
:101EF8001200DF6E20EE03F01200DF6E20EE01F01C
:101F080012002EC0D9FF2FC0DAFF120039C12AF003
:101F18009E5168EC22F000018A6F8ABF000C8A513A
:101F2800800A7E0F01E3010C9CC12AF001019D513A
:101F380005EC1CF02AC080F02BC081F037C12AF0D4
:101F48000101385105EC1CF02AC082F02BC083F047
:101F580000018A5105E0010E856F6D0E846F02D075
:101F6800846B856B8251845D4D6E835185594E6EAD
:101F780080514D24886F81514E20896F89BF000C94
:101F880089BF06D08951CFE1020E885D01E3010CBB
:101F980088C08AF0E6B335D08A5104E0876B180E02
:101FA800866F02D0866B876B36C12AF001019A5181
:101FB80068EC22F0000186258A6F8ABF000C35C1C3
:101FC8002AF00101995168EC22F04D6E4E6A4DBE1F
:101FD8004E0600018A51476E486A47BE48064A6A5B
:101FE8003C0E496E4FEC21F04D5047264E5048228A
:101FF80048BE000C485097E1790E475CD8A0000C09
:10200800010C8A511200010E366E306A010E376ECD
:102018005792910E336E010E346E57B458D038EC87
:102028001EF004E2646A5794D8901200F00E4EEC49
:1020380022F0400E2F6E3FD070EC20F0010ED8A099
:10204800000E326E70EC20F0010ED8A0000E316E3A
:10205800320402E1310432E03150321803E032C078
:1020680035F012D06450365C06E242D8DF5037149F
:1020780005E0010E04D064503618FBE0000E356E02
:10208800355002E136C030F0350404E131D837501C
:10209800DF1205D0371C2E6E2BD82E50DF16355088
:1020A80063EC1FF0362AD8903736375004E1334AAC
:1020B800342A010E376E2F062F28BEE1400E3664F3
:1020C80006D030C064F0645001E15784578257B29B
:1020D8000BD0646A5794910E286E010E296E2A6AF5
:1020E800080E2B6EA7EC21F057A29ED7D8801200BD
:1020F80033C0D9FF34C0DAFF120057A01200290EEE
:102108000001901911E1010E91190EE1946B21EE75
:10211800B6F010EE96F0040EDBCFE3FFE806FCE223
:10212800B60E926F010E2AD0110E901912E1010E0F
:1021380091190FE1010E946F21EEBBF010EE96F0AD
:10214800040EDBCFE3FFE806FCE2BB0E926F010E44
:1021580015D01D0E901943E1010E9119D8A4120053
:10216800020E946F21EEC0F010EE96F0040EDBCF55
:10217800E3FFE806FCE2C00E926F010E936FB5EC28
:1021880003F090C04FF091C050F07BEC06F00201D4
:10219800475148111AE0AA0E0001956F9B0E286E50
:1021A800470E296E020E2A6E2C6A0C0E2B6E2DEC31
:1021B8001CF0950E56EC18F094513FEC15F051ECCC
:1021C80018F0120E8C6FD9EC15F0A3EC22F092C027
:1021D80028F093C029F076EC1EF080EC22F0120073
:1021E800740E286E296A040E68EC0EF0AFEC20F02D
:1021F80074283CEC21F00001896F5B0E892567EC9F
:1022080016F049D874282E6EC3EC19F000018927FE
:1022180089C034F045D8B8EC21F059AC1200599C6B
:10222800D1EC01F038D874282E6EC3EC19F0E9EC23
:1022380001F0B8EC21F037D8B8EC21F0745011E176
:1022480041C142F042C143F0446ACF0E456E070EC9
:10225800466E476ADAEC0DF042C041F143C042F1E4
:102268000ED0080E0001806F816B3C0E826F0AD879
:10227800DF506CEC16F0566E05D856C0DFFF0A0E1C
:102288006C6E0A0C7450060D3F0EF324D96E010EC5
:10229800F420DA6E1200EA0E2C6E7D0E2D6E1200FE
:1022A800010E356EC00C346A356AC00C010E00018F
:1022B800956F8D0E886F896B8B6B8A6B080E8C6F90
:1022C8009BEC14F08D0E286EAA0E296E7F0E2A6ED6
:1022D8002C6A080E2B6E58EC1BF02850291033E09E
:1022E800000195512CE08D0E286EAA0E296E7F0EE6
:1022F8002A6E2C6A080E2B6E2DEC1CF08D0E000138
:10230800886F896B8B6B8A6B080E8C6FD9EC15F014
:10231800A3EC22F0B60E286E010E296E76EC1EF0A4
:10232800BB0E286E010E296E76EC1EF0C00E286ECC
:10233800010E296E76EC1EF080EC22F002D0579048
:1023480003D0956BB6D7578057A00CD0AE0E0001BE
:10235800886F010E896F8B6B080E8A6F180E8C6F51
:102368009BEC14F057B002D0D8901200D88012001D
:1023780082828286020E346E450E336EAA0EE82ED5
:10238800FED7332EFCD7342EFAD7080E3F6E040E34
:102398003F6004D03E6A300E3D6E02D03D6A3E6A10
:1023A8003D508CEC22F0020E3F6408D01B0E336EB9
:1023B8009E0EE82EFED7332EFCD703D0A60EE82EAD
:1023C800FED700D03F063F50E2E1020E33EC22F088
:1023D800280E33EC22F0080E33EC22F0170E33EC03
:1023E80022F074EC22F00C0E33EC22F0060E33ECE3
:1023F80022F0406A4050F80B400933EC22F0350EC9
:102408002B6E2C6A4050780F2D6E080E2E6E85ECC0
:1024180020F0350E2A6E2B6A080E2C6E2D6E2E6A51
:102428008BEC19F0080E40263F0E4064E3D73F0CB2
:102438004B5011E151D80001D85155D818EC1DF076
:102448005BEC07F00001E35142D817EC19F037D8DC
:102458005AEC20F02BD049C038F04AC039F03A6A1B
:102468003B6A3AD807C12CF008C12DF02E6A2F6AB2
:1024780018EC1DF05BEC07F017EC19F034C04CF0C9
:1024880035C04DF036C04EF037C04FF04CC034F078
:102498004DC035F04EC036F04FC037F00001E35163
:1024A80016D817EC19F00BD85AEC20F041C050F0B0
:1024B80042C051F050C047F051C048F0120034C03B
:1024C80041F035C042F0446A0A0E436E0A0C386E79
:1024D800396A3A6A3B6A120047C028F048C029F0B6
:1024E8002A6A2B6A12002C6E2D6A2E6A2F6A120035
:1024F80058B40DD05884010E696ECEEC22F000015C
:10250800E5AF12003C0E2C6E0E0EE9EF21F0589448
:102518001D0E696E600E486E496A400E2B6E2C6A5D
:1025280048C02DF0080E2E6E85EC20F0400E36D8EF
:102538008EEC17F00BE226D8040EDF6404D0495065
:1025480019D830D808D01ED8DF2A05D0495012D85B
:1025580020D818D8DF6A080E4826492A020E49648E
:10256800DCD70001E5AF020CDD0E2C6E010E2D6EDE
:102578005BEF18F0020DDB0EF324D96E010EF42088
:10258800DA6E1200000E4924D96EDA6A010EDA22D8
:10259800120072C0DEFF73C0DDFF12002E6E720ED5
:1025A8002F6E1200810EDE6EDD6E810CE00EF66E6F
:1025B8003D0EF76E000EF86E02EE00F010EE3BF0E6
:1025C8000900F5CFEEFFE550E150FAE17C0EF66E1A
:1025D8003A0EF76E000EF86E01EEA3F010EE4AF018
:1025E8000900F5CFEEFFE550E150FAE1040EF66E72
:1025F800460EF76E000EF86E0900F5CFF2F0FA0EEF
:10260800F66E450EF76E000EF86E00EE76F010EEE0
:1026180007F00900F5CFEEFFE550E150FAE102EED0
:102628003BF0180EEE6AE806FDE101EE00F0A30E9D
:10263800EE6AE806FDE100EEBDF0350EEE6AE8064A
:10264800FDE15B6A5A6A596A586A576A00EE5CF09B
:102658001A0EEE6AE806FDE17D907D92000EF86E96
:1026680000019BEF07F03B6A37C034F038C035F003
:1026780020EE02F048D829EC21F0020E3B263B5010
:1026880037242A6E000E382045D820EE03F0395042
:10269800D9263A50DA22DF5096EC21F02E6EC3ECA0
:1026A80019F029D8270E1ED820EE04F02CD829ECD2
:1026B80021F0020E20D8200E15D820EE01F023D8E4
:1026C80029EC21F0020E17D83A0E0CD839C0D9FFE0
:1026D8003AC0DAFFDF50366E29EC21F0020E3B26B5
:1026E8003B501200DF6E3B2A3B503724346E000EFD
:1026F8003820356E12003B263B503724D96E000E29
:102708003820DA6E12003950D9263A50DA22DF50D2
:10271800366E12002B6E600E2C6E7E0E2D6E120021
:1027280049D8DF5003E152D8956F14D049D88F6F3C
:1027380041D8DF50906F4AD8916F9051915D8F25A5
:10274800956F38D88D51E16EE26ADE50E65C02E39F
:1027580037D8955F030E8E1903E0946B120E02D0E2
:10276800946B0A0E936F93C092F06F0E886F010EF0
:10277800896F95C04DF08E513FEC15F04DC08AF031
:102788004EC08BF092C08CF09BEC14F0A50E0101AA
:102798006F190AE0AA0E6F1907E000010BD8DF5085
:1027A80003E008D8DF6ABCD76F0E00018D6F010EF9
:1027B8008E6F12008D51D96EDA6A020ED926020C7C
:1027C8008D51D96EDA6AD92ADF5012008D51D96E2F
:1027D800DA6ADF501200376A34C039F035C03AF08F
:1027E80036C03BF039C028F03AC029F03BC02AF087
:1027F80044D8CCEC1AF028C039F029C03AF02AC0E5
:102808003BF0324A332A372A39503A103B10EAE172
:102818002FD8DF6A3206D8A0330634C028F035C076
:1028280029F036C02AF00A0E2B6E2C6A2D6A55EC58
:102838001CF02850386E34C028F035C029F036C056
:102848002AF01BD8CCEC1AF028C034F029C035F097
:102858002AC036F0300E38260BD838C0DFFF3206D3
:10286800D8A03306345035103610D7E1375012004F
:1028780032C0D9FF33C0DAFF12000A0E2B6E2C6A61
:102888002D6A0A0C5EEC0EF042C034F043C035F0FD
:1028980044C036F0EFEC13F04F6E455002E14F5054
:1028A80012004550466E476A462A000E47224F508E
:1028B800486E496A4650485C4950800A4A6E4750FB
:1028C800800A4A580CE272EC0CF0300E3E6E4FC093
:1028D8003FF04528406EE6EC1FF045284F6E5B0E32
:1028E8004F244D6E4E6A010E4E22FF0E4D244B6E44
:1028F800FF0E4E204C6E10D04BC0D9FF4CC0DAFFF3
:102908004DC0E1FF4EC0E2FFDFCFE7FF4B06D8A086
:102918004C064D06D8A04E0645064528EDE14DC0AB
:10292800D9FF4EC0DAFF2E0EDF6E4F281200546A10
:10293800010E556E10D03AD8A0095BEC22F0556E06
:10294800550409E1070E516E7D0EE82EFED7512E73
:10295800FCD700F0542A550403E1090E5464EBD760
:10296800555019E100018A5102EC21F01FD8A10944
:102978005BEC22F007D0000EEEEC20F025D8000129
:10298800884B892B00018C2FF6D7010EEEEC20F036
:102998001BD8AEEF22F088C028F089C029F02A6839
:1029A8008CC02BF0A7EC21F0AEEF22F08AC051F0DA
:1029B8008BC052F0070E536ED89052325132532EBC
:1029C800FBD751500E0B120088C0D9FF89C0DAFF1F
:1029D800DF6E1200050E0101866503D0090E8665BB
:1029E8001BD059908D6B8E6B010E906F800E8F6F80
:1029F800060E8B6F8BC185F185C186F1876B886B5D
:102A0800896B8A6B816B826B836B846B056B066B3E
:102A18000001C66BC76B1200060E8665060C8B514B
:102A280087C128F088C129F089C12AF08AC12BF012
:102A3800E82A01D01AD8E82EFDD728C005F129C008
:102A480006F1855181C128F082C129F083C12AF09D
:102A580084C12BF0E82A01D008D8E82EFDD728C079
:102A6800C6F029C0C7F059801200D8902B322A32FC
:102A7800293228321200856F0001816B200E806F89
:102A8800846B09D08451F1EC01F0120DF3508027CA
:102A9800F4508123842B8551845DF4E38551020D24
:102AA800AE0EF324866F010EF420876F4D2813E1D4
:102AB80020EE01F08651D9268751DA2286C0E1FF3F
:102AC80087C0E2FFE72ADE50E65C02E31ED8DF6A31
:102AD8001CD8DF504D6E030E851903E0836B120E70
:102AE80002D0836B0A0E826F4DC047F0486A82C0DD
:102AF80049F083C04AF04FEC21F00001805147248F
:102B08004D6E815148204E6E120086C0D9FF87C095
:102B1800DAFF1200566E30D065C080F08DC081F0AB
:102B28005650DCEF0BF0770E806F0E0E816F8DC064
:102B380082F0565099EF1FF0D4EC0BF08DC03EF0A8
:102B480056509CEF18F0CAEC0BF0826B010E836FA5
:102B580003D0BAEC03F0836BE80E08D03FC280F0D4
:102B680040C281F0826B020E836FED0E846F8DC0C0
:102B780085F05650B0EF1BF06F0E286E060E296ECA
:102B88002BEC1FF000018E6F8F6B8F51D8A41200B1
:102B98008E51C2E0010AC7E0030ACEE0010AD3E081
:102BA800070ADCE0010AD5E01200546A010E556EEE
:102BB8001CD08AC051F08BC052F0070E536ED890CB
:102BC80052325132532EFBD751500E0BA0095BECF9
:102BD80022F0556E550409E1070E516E7D0EE82E60
:102BE800FED7512EFCD700F0542A550403E1090EF4
:102BF8005464DFD755501BE100018A5102EC21F0E3
:102C080012D088C0D9FF89C0DAFFDF5002EC21F06A
:102C18000001884B892B8C078A4B8B2B8AC051F07B
:102C28000F0E511606E000018C5103E0EAD70001AF
:102C38008C6BAEEC22F000018C51B7E1120074EC01
:102C480022F00001A46B030EA16FA2690A0E6C6E3C
:102C58002FD0A40E286E296AA1C02AF00A0E2B6E66
:102C6800AFEC20F059AC03D06C6AA4C0A2F0D1EC50
:102C780001F0E60E2C6E7F0EA8EC03F0C3EC19F001
:102C88000001A36F5B0EA3251ED8FA0E2C6E7E0ED4
:102C98002D6EA4292E6EC3EC19F00001A327A3C042
:102CA80034F0030E356E800EB8EC21F0B9EC22F04A
:102CB8005B9C6C50CEE15B8C0001A229D8B4120059
:102CC800A2519AEF08F02A6E2B6A010E2B221200ED
:102CD800886F0A0E6C6E3ED0880E286E81C029F06F
:102CE80082C02AF00A0E2B6E95EC1EF0080E000129
:102CF800801906E08851846F856B866B876B11D0CD
:102D08008851286E296A2A6A2B6A85EC07F018EC24
:102D18001DF028C084F029C085F02AC086F02BC099
:102D280087F05EEC0EF084C034F085C035F086C0C4
:102D380036F0EFEC13F00001836F83C050F00E0EF5
:102D4800516E80C052F0020E536EC40EB5EC16F0F0
:102D5800B9EC22F05B9C6C50BFE15B8C00018851A0
:102D68001200546E6B0E2A6E010E2B6E3ED851C0A7
:102D78002EF0C3EC19F0556E72EC0CF0200E3E6E7E
:102D880050C03FF050505524406EE6EC1FF05550AF
:102D980050260ED06B0E5524D96EDA6A010EDA224F
:102DA8005B0E5524E16EE26A010EE222DFCFE7FFF7
:102DB80055065528EFE15B0E502467EC16F015D840
:102DC80052C02EF0C3EC19F050265428D8B4120083
:102DD800545033EC22F0AAEC20F050C02CF0080E2E
:102DE8002D6E53C02EF08BEF19F0BA0E2C6E7E0E9E
:102DF8002D6E120081BE29D05BB41200D58E5B8483
:102E08005B865A8A5BB002D05B8033D05EC001F02B
:102E18005FC002F0036A0001D051015C046ED15119
:102E28000258056E000E0358066EBD5104240101B8
:102E3800A06F0001BE5105200101A16F0001BF5123
:102E480006200101A26F5B8214D05BA41200D59EFC
:102E58005B945BA012000001D0515E5C016ED15101
:102E68005F58026EBD510124ED6FBE510220EE6F16
:102E780012000001BD6BBE6BBF6B5EC0D0F05FC0BF
:102E8800D1F06E6A12004F6A526A525019E101017C
:102E98004151421131E0C4EC20F001014151415C43
:102EA8004251425829E352C04DF0010E4E6E4D2A50
:102EB80002D0D8904E364D2EFCD74E504F121CD013
:102EC8005250060D3D0EF324506E010EF420516E43
:102ED80019D812E017D8476E486A030E4A6EE80EF2
:102EE800496E4FEC21F050C0D9FF51C0DAFF47506E
:102EF800DE5C4850DE58D7E2522A040E5264C5D729
:102F08004F50120020EE02F05050D9265150DA22CC
:102F1800DF50120038EC1EF002E2D8901200550E75
:102F28004EEC22F02EC03EF03D6A3E50D96EDA6A71
:102F3800DF504EEC22F03E2A3D2A070E3D64F5D7BD
:102F4800BE0E4EEC22F0320E3E6E3B6A3C6A3E509C
:102F5800D96EDA6A17EC22F0DF6E3E2A3B4A3C2A29
:102F68003CBEF5D73C5003E1090E3B5CF0E3325020
:102F780033C030F0316A30C031F0306A30122F502F
:102F8800D96EDA6A30C0DEFF31C0DDFF320E286E3E
:102F9800080E296E57EC1EF03A18BFE1D8801200CF
:102FA80081AC3BD05BBA12005B8A5B885AA431D0F3
:102FB8005AB804D05A8833D8010127D001010D51DD
:102FC8000B5D016E0E510C59026E5E50012400011A
:102FD800CA6F5F500220CB6F5A805AB209D0CA51CB
:102FE800CE5DCB51CF5903E2CE51CF1101E15A82C8
:102FF800CA5101010F5D0001CB510101105904E3D1
:103008005A865A925A9406D00AD80B6B0C6B6D6A82
:1030180001D05A98624A632A12005B9A12005EC075
:103028000DF15FC00EF112008F6F57A01200AA0EAB
:103038000001906FCCC098F0CDC099F00ED0966B7F
:10304800640E09D0966B3C0E06D03C0E966FF8D7EE
:10305800500E966F780E976F0DD08F518D6F8E6BC7
:103068008E5108E18D51EBE0010AECE0030AEDE036
:10307800010AEEE0A3EC22F0910E286E296A76ECA4
:103088001EF0900E0FD8030E3FEC15F006D80A0E6E
:103098008C6FD9EC15F080EF22F04DC08AF04EC04D
:1030A8008BF012000001886F896B4D681200D00EFA
:1030B8005BEC22F0000902E0AEEF22F0110E02EC08
:1030C80021F0D10E5BEC22F0000EEEEC20F0336E16
:1030D800010EEEEC20F0346E34C02EF03F0E2E16AA
:1030E80005E021D8D6EC12F0AEEF22F0345033C010
:1030F8002EF02F6A2EC02FF02E6A2E10316E2F5010
:10310800326E31C02EF032C02FF0040E306E2F34E4
:103118002F322E32302EFBD706D82EC0DEFF2FC01E
:10312800DDFFAEEF22F02CC0D9FF2DC0DAFF120070
:103138003F6E5EEC0EF034D8DECF28F0DDCF29F0FC
:103148002B6A3C0E2A6E63EC1DF07CEC0CF0EFEC65
:1031580013F0406E5B0E402463EC0EF03A0EDF6E07
:10316800402A5B0E4024346E356A010E352218D889
:10317800DECF28F0DDCF29F02B6A3C0E2A6E19EC41
:103188001EF02850B4EC1EF0366E29EC21F0020E29
:10319800402640C034F03EC035F03F509AEF20F052
:1031A80020EE08F03C50D9263D50DA2212000001EA
:1031B80034D83B5DF4503C5905E3030E0001F16F30
:1031C800588604D0040E0001F16F589626D8435D46
:1031D800F4504459030ED8A0040E0001F06F010EFC
:1031E800E6A1000E5009656ED10E0101115D070EB2
:1031F800125908E3110E0001A76F010EA86F010E06
:103208007EEC1FF0710E01011D5D170E1E59D8A02E
:103218001200C6EC1AF07EEF1FF0E8510F0B0A0DF2
:10322800F350020112003C6A3D6A3E6A3F6A385018
:1032380039103A103B1029E0010E406E06D0D890A4
:10324800383639363A363B36402A3BAEF8D7D8902E
:103258003C363D363E363F363850345C395035586A
:103268003A5036583B50375809E33850345E395095
:10327800355A3A50365A3B50375A3C80D8903B32F0
:103288003A3239323832402EE2D73CC034F03DC0B1
:1032980035F03EC036F03FC037F01200396A3A6A5E
:1032A8003B6A26D02ED8386E314A322A2E0E38186C
:1032B8001FE0D00E346E35683850366E376A345099
:1032C80036263550372239C028F03AC029F03BC09D
:1032D8002AF00A0E2B6E2C6A2D6AD2EC1EF036509C
:1032E8002824396E375029203A6E000E2A203B6E6A
:1032F80008D8D8E139C031F03AC032F03BC033F0D9
:10330800120031C0D9FF32C0DAFFDF5012002C5052
:103318002D5C02E22DC02CF02C502D5C316E2E0459
:1033280002E1316A05D0030E2E1802E1D89031323D
:1033380031502C242F6E326A1ED03150325C03E398
:103348002F50325C03E3200E306E08D02AC0D9FF1C
:103358002BC0DAFFDF50306E2A4A2B2A8282305087
:103368008CEC22F03038F00B8CEC22F0580EE82E62
:10337800FED700F0322A2D50325CDFE312002E50C7
:1033880005E02FD80800F550316E01D0316A326A55
:1033980031C033F00FD02C502F6E2D50306E2C4A88
:1033A8002D2A2FC0F6FF30C0F7FF0800F55033185C
:1033B80001E12E062E500EE0EED713D82E502A2407
:1033C800D96E000E2B20DA6E0800F5CFDFFF2C4AED
:1033D8002D2A2E2A06D80800F5503318EEE12E5073
:1033E80012002CC0F6FF2DC0F7FF12003B6E3750BD
:1033F80002E037280AE1D1EC01F0C50E2C6E7F0EF1
:10340800A8EC03F0C3EC19F01BD021D837C036F074
:1034180029EC21F05D0E2A6E010E8EEC13F0385067
:1034280096EC21F02E6EC3EC19F0270E0101606FA7
:10343800610E346E010E356E39C036F029EC21F07C
:10344800080E346E3AC035F03B509AEF20F05B0E10
:10345800346E010E356E1200D00E5BEC22F00009BE
:1034680002E0AEEF22F0000E02EC21F0000E02ECBA
:1034780021F02CC0D9FF2DC0DAFFDF5002EC21F07B
:1034880020EE01F018D802EC21F020EE02F013D85B
:1034980002EC21F020EE03F00ED802EC21F020EE31
:1034A80004F009D802EC21F020EE05F004D802EC73
:1034B80021F0AEEF22F02C50D9262D50DA22DF5021
:1034C800120074EC22F0F29E5AAA08D0A3EC22F063
:1034D800350E286E010E296E76EC1EF00001E6A569
:1034E80008D05ABA03D001013A5105E19DC13AF119
:1034F80002D001013A6B0001E7516F18F00B6F1809
:10350800E76F70C032F0323AE85132180F0B3218B8
:10351800E86F75C032F0323AE75132180F0B3218A3
:10352800E76FFFEC1FF08990FFD7D1EC1DF0F2ECAC
:103538001CF0BCEC11F041EC22F0A3EC22F05AECA8
:1035480011F002E20101DA8F01019FAFEEEF14F0F2
:103558008AEC0FF000090BE0290E0001A76F010E9D
:10356800A86F010E7EEC1FF001013B6B3C6BC4ECB5
:1035780022F0000902E1EEEF14F004D87EEC1FF00F
:10358800EEEF14F01D0E0001A76F010EA86F010CDD
:103598002F6A306A316A2B502C102D1022E0010E50
:1035A8002E6E05D0D8902B362C362D362E2A2DAEE1
:1035B800F9D7D8902F36303631362B50285C2C501E
:1035C80029582D502A5807E32B50285E2C50295A89
:1035D8002D502A5A2F80D8902D322C322B322E2E55
:1035E800E8D72FC028F030C029F031C02AF01200E7
:1035F80020EE01F025D8376E3CC0D9FF3DC0DAFF78
:10360800DF50386EDDEC03F0B4EC1FF020EE03F071
:1036180017D8376E20EE04F013D8386E20EE05F078
:103628000FD8396E020E3A6E880EFAEC19F020EEB9
:1036380002F006D8376E010E386EC00E16EF21F074
:103648003C50D9263D50DA22DF501200376E386AD6
:1036580037A01FD0020E766ED1EC01F0CE0E2C6E84
:103668007F0EA8EC03F0C3EC19F082EC09F0B8EC7B
:1036780021F0D1EC01F04FEC11F038282E6EC3EC9C
:1036880019F00ED8B8EC21F0030EE2EC22F014EC9D
:103698001EF0D8903732382A040E3864D9D7040C73
:1036A800346E030E356EC00C28C030F029C02EF0E1
:1036B8002AC02FF006D02B06D8A02C06302A2E4A76
:1036C8002F2A2B502C1003E010D8F518F4E02B50BB
:1036D8002C1003E1286A296A120007D8F5502D5CDE
:1036E800286E296AD8A0290612003050D96EDA6AE5
:1036F800DF502D6E2EC0F6FF2FC0F7FF0800120016
:10370800604A612A0101152F0BD068C015F1162BEC
:103718000001E3510101165D03E3166B174B182BEB
:10372800212F0BD068C021F1222B0001E3510101A8
:10373800225D03E3226B234B242B2D2F120068C03C
:103748002DF12E2B0001E35101012E5DD8A01200AE
:103758002E6B2F4B302B1200866F00018051811188
:1037680082110BE183AF09D0D1EC01F0C7EC03F073
:10377800A8EC03F0C3EC19F00BD080C042F081C074
:1037880043F082C044F083517F0B456E46EC14F041
:103798000001876F87C050F084390F0B516E845138
:1037A8000F0B526E85C053F08651B5EF16F0D1EC71
:1037B80001F0880E2C6E7F0EA8EC03F0C3EC19F014
:1037C800E9EC01F0B8EC21F08BEC08F0DF380F0BD6
:1037D8003E6E3E283CEC21F03F6E5B0E3F2467ECCA
:1037E80016F0110E92EC08F08BEC08F096EC08F04D
:1037F800C3EC19F03F263FC034F054EC11F0B8EF99
:1038080021F0496EEB0EF66E7C0EF76E20EE2FF06F
:10381800190E1AD8FEE2495096EC21F0020DF3CFAA
:103828002CF0FE0E2C262C502F0FD96EDA6ADECF24
:103838002DF0DDCF2EF02A5096EC21F02D242A6EA3
:10384800000E2E202B6E12000900F5CFDEFFE806D1
:10385800120029C02EF02AC02FF028C030F019D04D
:103868002EC0F6FF2FC0F7FFF86A050EF76403D0E5
:103878000800F55005D0F6CFE1FFF7CFE2FFE7509B
:103888002D6E2E4A2F2A3050D96EDA6A2DC0DFFFEE
:10389800302A2B06D8A02C062B28E2E12C28E0E1C0
:1038A80012002B502C102D101DE0010E2E6E05D08D
:1038B800D8902B362C362D362E2A2DAEF9D72B50F4
:1038C800285C2C5029582D502A5806E32B50285E86
:1038D8002C50295A2D502A5AD8902D322C322B325E
:1038E8002E2EEDD728C028F029C029F02AC02AF0AA
:1038F800120020C001F021C002F003C103F004C18E
:1039080004F086EC09F001C077F002C078F0795035
:10391800775C7A50785805E277C079F078C07AF009
:1039280007D077507B5C78507C5802E2D3EC03F0E8
:10393800785003E1810E775C02E35A9E12005A8E9A
:103948001200410E686E380E0001D86FE1C028F0F1
:10395800E2C029F02A6A2B6ACA0E77EC12F018EC3A
:103968001DF05BEC07F0820E6BEC12F017EC19F00F
:1039780034C007F135C008F10001E6AF1200D89055
:103988006836D890D8330101D8900833073312002D
:103998003D6A17D0910E3B6E010E3C6E080E3A6ED2
:1039A8000CD03BC0D9FF3CC0DAFF3850E16EE26A68
:1039B800DFCFE7FF3B4A3C2A382A3A063A28F1E1AA
:1039C8003D2A3D50D880D88439AE395CD8A0D884F7
:1039D80003E007EC10F0DEE23D501200DB0E2B6E28
:1039E8002C6A2D6A0E0E2E6E85EC20F0110E2B6EB1
:1039F800010E2C6E100E2D6E2C0E2E6E85EC20F006
:103A08003D0E2B6E010E2C6E400E2D6E1E0E2E6E70
:103A180085EC20F0810E2B6E010E2C6EB80E2D6EEB
:103A2800100E2E6E85EF20F0306A316A326A336AE2
:103A380028A008D02C5030262D5031222E5032226A
:103A48002F503322D8902C362D362E362F36D8903C
:103A58002B322A3229322832285029102A102B10CA
:103A6800E7E130C028F031C029F032C02AF033C075
:103A78002BF01200818181818181FA38E30108FFEE
:103A880040FF1EFF0CFF0A000000000000000000BD
:103A9800000000000000006E045042164142160269
:103AA800421603C41404841A058C0006818181819E
:103AB80081818181000000008100000000012D6AE1
:103AC8002E6A2A502B101BE0010E2C6E04D0D890C1
:103AD8002A362B362C2A2BAEFAD7D8902D362E36EE
:103AE8002A50285C2B50295805E32A50285E2B5071
:103AF800295A2D80D8902B322A322C2EEED72DC061
:103B080028F02EC029F012005BA012006E2A3C0E8D
:103B18006E1808E15B90D59E5B920001ED6BEE6B31
:103B28005B9612006A0E0001BD27180EBE23000E18
:103B3800BF23000C5AA812006D2A0A0E6D1803E163
:103B48005A985A90120001016A0E0B27180E0C237E
:103B5800180C100E2B6E1ED02850D96EDA6ADF5062
:103B68002C6E2BA004D02C3A0F0E2C1601D0282A2C
:103B78000F0E2C16090E2C640AD02C50370F29C0B2
:103B8800D9FF2AC0DAFFDF6E294A2A2A03D02C502F
:103B9800300FF5D72B2EE0D712002A0E926E010EA9
:103BA800806ECD0E936E0F0E816E946A826AD66A0D
:103BB800D76ACE6ACF6A480ED56EB00ECD6E0B0EA0
:103BC800BA6E180EBC6E6A0EBB6E400E9D6E010E6C
:103BD800A06E680EF26E880EC26E840EC16EC28030
:103BE800840C396A59A81AD0599874EC22F0D1EC8F
:103BF80001F037C02CF038C02DF0000E2E6EC3EC4B
:103C080019F082EC09F0B8EC21F0050EE2EC22F094
:103C180059AC02D0010E396E03D85B8C39501200B2
:103C2800599E599C599A599812002A502B1017E0FE
:103C3800010E2C6E04D0D8902A362B362C2A2BAEA7
:103C4800FAD72A50285C2B50295804E32A50285EBA
:103C58002B50295AD8902B322A322C2EF2D728C032
:103C680028F029C029F01200929A899A040E286E29
:103C78001C0EE82EFED7282EFCD700D0928A740E90
:103C8800E82EFED700D0010E80BA000E296E030E72
:103C9800286EA80EE82EFED7282EFCD700D029C003
:103CA80028F0283012002D6A18D02850D96EDA6A08
:103CB800DF502B6E282A080E2C6E0DD02D502B1895
:103CC800010B2A6ED8902D322A5002E08C0E2D1A44
:103CD800D8902B322C062C50F1E129062928E5E151
:103CE8002D50120028C0D9FF29C0DAFF99C1DFFF83
:103CF80020EE01F011D89AC1DFFF20EE02F00CD8B7
:103D08009CC1DFFF20EE03F007D89DC1DFFF20EE46
:103D180004F002D8D7EF0DF02850D9262950DA221E
:103D280012002850D96EDA6ADF502C6E59AE08D0CE
:103D38002C2A2A282C1802E129C02CF02BC06CF060
:103D480059AC08D02C0629042C1802E12AC02CF002
:103D58002BC06CF02850D96EDA6A2CC0DFFF120035
:103D6800316E31C032F0336A32C028F033C029F0E6
:103D78002B6A0A0E2A6E19EC1EF028C02FF029C0F3
:103D880030F032C028F033C029F08BEC0CF063EC33
:103D98001DF02850100DF3502F2412002E6A2F6AA0
:103DA800306A28A006D02B502E262C502F222D50BA
:103DB8003022D8902B362C362D36D8902A322932FC
:103DC8002832285029102A10ECE12EC028F02FC0E4
:103DD80029F030C02AF0120000000000A05257015C
:103DE8000000000060343C0260343C02A0525701DD
:103DF8004827AD01301A1E013045010A43022E4002
:103E080003104404F24305B24308A80A06E8210750
:033E1800E8420974
:103E1C002F50D96EDA6ADECF31F0DDCF32F0050EDD
:103E2C00D89031363236E82EFBD731C028F032C06C
:103E3C0029F00001E45172082A6E2B6A63EC1DF024
:103E4C0028C02FF029C030F0120059AC0BD0599C6F
:103E5C002850D96EDA6A2850E16EE26AE7502A6E71
:103E6C002A28DF6E2850D96EDA6A2950DE5C04E30A
:103E7C002850D96EDA6ADF6A2850D96EDA6ADF50B8
:103E8C001200050E8665050C090E8661090C598019
:103E9C00862B86C18BF18BC185F1D8908137823707
:103EAC0083378437D8908737883789378A378D6B33
:103EBC008E6BD8908F3790371200286E010E281613
:103ECC0028500BE0929A899A0A0EE82EFED7928A15
:103EDC006A0EE82EFED700D01200929A899A640ED0
:103EEC00E82EFED7928A100EE82EFED700D01200D4
:103EFC00566E565007E1B0EC03F0F5EC1DF00009DE
:103F0C00D8B41200A7C090F0A8C091F081EC10F0CA
:103F1C00A7C028F0A8C029F02A6A0C0E2B6EA7ECBB
:103F2C0021F0D8EF22F0836F80C02FF00EEC1FF041
:103F3C002FC042F030C043F0446A010E456E46EC8F
:103F4C0014F00001846F84C050F081C051F0070E52
:103F5C00526E82C053F08351B5EF16F03A6E2BECD3
:103F6C001AF037C036F029EC21F03A0E01015D6FE2
:103F7C005E0E346E010E356E38C036F029EC21F031
:103F8C00050E346E39C035F03A509AEF20F041C02E
:103F9C0028F042C029F02A6A2B6AA00E2C6E8C0ED7
:103FAC002D6E2E6A2F6A18EC1DF05BEC07F070EC8E
:103FBC0009F017EC19F034C041F035C042F0120092
:103FCC000FD03F5006E03F063F500DD8DF50416EFA
:103FDC0002D03EC041F04006405005D841C0DFFF42
:103FEC004050EFE112003C24D96E000E3D20DA6EF9
:103FFC001200F5EC22F0D8EC22F03D0E2B6E010EE7
:10400C002C6E400E2D6E1E0E2E6E2EEC20F0810EA0
:10401C002B6E010E2C6EB80E2D6E100E2E6E2EEF1A
:10402C0020F0DBC042F0DCC043F0DDC044F03F0EBA
:10403C00456E420E466E0F0E476EDAEC0DF0425096
:10404C000001DB6F4350DC6F4450DD6FDE6B120000
:10405C002F6A10D02D502F24286E296A29362BC098
:10406C00D9FF2CC0DAFFDF502A6E44EC20F02B4A2B
:10407C002C2A2F2A2E502F5CEDE3120028C0A9FF0A
:10408C002AC0A8FFA69EA69CA684D890F2BED88073
:10409C00F29E550EA76EAA0EA76EA682D8B0F28E0F
:1040AC00A6B2FED7A6941200D8904430466E433088
:1040BC00456E41504524286E42504620296E43C01F
:1040CC002AF044C02BF063EC1DF028C041F029C04D
:1040DC0042F01200929A899A0A0EE82EFED7928A22
:1040EC000F0EE82EFED7000E80BA010E296E5B0E65
:1040FC00E82EFED700D029C028F0283012002F6AF5
:10410C000FD02D502F24286E296A2936ECEC22F082
:10411C002BC0D9FF2CC0DAFFDF6E2B4A2C2A2F2A9A
:10412C002E502F5CEEE31200366E3628D8B41200F7
:10413C00365033EC22F008D834C02CF0080E2D6E1B
:10414C0035C02EF08BEF19F05B0E2A6E010E2B6E24
:10415C0012002850D96EDA6ADF502C6E59AE08D096
:10416C002C2A2A282C1802E129C02CF02BC06CF028
:10417C002850D96EDA6A2CC0DFFF12003DC134F032
:10418C003EC135F03FC136F040C137F0100E386EED
:10419C000E0E396E3A6A3B6A17EC19F034C041F0D6
:1041AC0035C042F01200C450226EC3500101036F9F
:1041BC0022C004F1ABC120F0ACC121F00500FA6EB5
:1041CC00A951FD6EAA51FE6EF850FF6EFA50120006
:1041DC00296E080E2A6E2B6AD8902B3625EC22F00D
:1041EC002B122A2EF9D7295062EC21F000D000D0E6
:1041FC0000F081922B501200296E800E2A6E2950ED
:10420C002A1462EC21F0D8902A322A50F8E125ECDD
:10421C0022F02A6E00D000D000F081922A501200B9
:10422C00396ED1EC01F0260E2C6E7E0E2D6E37C041
:10423C002EF0C3EC19F03A6E3AC034F038C035F0B9
:10424C003950B8EF21F020EE01F03450D92635501A
:10425C00DA2236500F0B300FDF6E36380F0B300F63
:10426C0034C0D9FF35C0DAFFDF6E12003C6E5EEC55
:10427C000EF03C50346E356A366AEFEC13F03D6E3E
:10428C005B0E3D2463EC0EF02E0EDF6E3D2A3D508E
:10429C00120047504902F3CF4BF0F4CF4CF047508B
:1042AC004A02F3504C2648504902F3504C264BC05E
:1042BC0047F04CC048F01200286E81929390285021
:1042CC0002E1819001D08180050EE82EFED700D04E
:1042DC008182030EE82EFED700F0120059AE59BCB5
:1042EC006C6AD1EC01F04C0E2C6E7F0EA8EC03F036
:1042FC00C3EC19F0346E54EC11F0B8EF21F0E1C0BE
:10430C0042F0E2C043F0446A2F0E456E750E466EC5
:10431C00476ADAEC0DF042C0E1F043C0E2F0120063
:10432C00296E29500F0B286ED8902930780B296EE6
:10433C0029502826D8902932D8902932285029245F
:10434C00120028C02CF029C02DF008D02CC0D9FFA9
:10435C002DC0DAFF2AC0DFFF2C4A2D2A2B062B2872
:10436C00F5E11200366E3628D8B41200365033EC14
:10437C0022F0AAEC20F034C02CF0100E2D6E35C0BB
:10438C002EF08BEF19F0376E375096EC21F0386E1B
:10439C00382A3804366E3550365C02E334C038F0B7
:1043AC003850B4EF1EF0010E0001806F816F0A0EC1
:1043BC00826FE8510F0B6CEC16F0566EE819F00B8F
:1043CC005618E86F12002D6ED00E5BEC22F000092F
:1043DC0002E0AEEF22F02D5002EC21F02C5002EC5A
:1043EC0021F0AEEF22F0E5C037F0E6C038F0850ED4
:1043FC00396E7D0E3A6E71EC0EF037C0E5F038C0B8
:10440C00E6F01200E40E286E8C0E296EE60E2A6E73
:10441C000A0E2B6E95EC1EF098EC03F0C40E99EF7F
:10442C001FF02A6A2B6AD8902A3270EC20F001E334
:10443C002A8E2B2A070E2B64F6D72A501200819253
:10444C00050EE82EFED700D093808182030EE82E55
:10445C00FED700F081B0010C000C2A6E82922A501B
:10446C008CEC22F02A38F00B8CEC22F0580EE82E53
:10447C00FED700F01200A5EC1CF00001E7510F0B69
:10448C006F6EE8390F0B706EE7390F0B756E1200FB
:10449C00296E2A6A2950010B63EC1FF0D89029323F
:1044AC002A2A070E2A64F6D7070C2B6E818200D0BD
:1044BC0000F093908190050EE82EFED700D02B5083
:1044CC0002EF21F02D6E2A5096EC21F02B6E2D5020
:1044DC0096EC21F02C6E2B502C5C1200010E33EC60
:1044EC0022F00F0E2B6E050EE82EFED72B2EFCD7CE
:1044FC0000F01200AE0E0001886F010E896F8B6BFD
:10450C00080E8A6F180E8C6FD9EF15F0296E29C022
:10451C0028F0F00E281682500F0B2810826E82861F
:10452C00829612000E0E0001806F010E816F82695F
:10453C00E3516CEC16F0E36F12006A50D8A4120031
:10454C000A0E6A6E990E2E6E010E2F6E02EF0FF090
:10455C0093908190050EE82EFED700D0818200D07A
:10456C0000F09380120059A802D05B8C6C6A14EC9A
:10457C001EF06C50D8A45BBC1200FBD70001E6A562
:10458C00000C01013A5103E09D1901E0010C000CF3
:10459C0038EC1EF001E21200CC0E4EEC22F0440E70
:1045AC004EEF22F0110E2B6E010E2C6E100E2D6E96
:1045BC002C0E2E6E2EEF20F0286E28C06CF06C5056
:1045CC00D8A459BE120059BC1200F9D728C0A9FFB3
:1045DC00A69EA69CA680A8CF2AF02A501200DB0E1D
:1045EC002B6E2C6A2D6A0E0E2E6E2EEF20F0FF0015
:0545FC0000FF030000B8
:034602001200643F
:107CEA000000001F003B005A0078009700B500D43E
:107CFA0000F300110130014E016D01060202050078
:107D0A0003050104060204006675656C20636F6E44
:107D1A007374616E740076737320636F6E7374612B
:107D2A006E7400746F74616C207472697000766F7F
:107D3A006C746167652061646A7573740073657435
:107D4A0074696E677320626974730074656D70205C
:107D5A0073656E736F7273007365727669636520FB
:107D6A00636E747273006D696E207370656564006A
:107D7A0073772076657273696F6E0000706169723D
:107D8A002F70617220696E6A00696E73742E2061A9
:107D9A007667006B657920736F756E640073657220
:107DAA007620616C61726D000074726970204220E5
:107DBA006D6F6E7468007472697020432064617913
:107DCA0000696E2F6F75742074656D70006473336B
:107DDA003233312074656D7000000000000000002D
:107DEA0000656E67696E6520686F75727300656EEF
:107DFA0067696E65206F696C0067656172626F788A
:107E0A00206F696C006169722066696C7465720022
:107E1A00737061726B20706C756773000073756E96
:107E2A00646179006D6F6E6461790074756573645D
:107E3A006179007765646E65736461790074687549
:107E4A00727364617900667269646179007361743E
:107E5A00757264617900006A616E00666562006D20
:107E6A00617200617072006D6179006A756E006AF4
:107E7A00756C0061756700736570006F6374006EDE
:107E8A006F7600646563000063757272656E7420B4
:107E9A00747269700074726970204100747269703A
:107EAA00204200616363656C206C6F6767657200CE
:107EBA00FF0001FF0203FF0405FF0607FF68FF6CCE
:107ECA00FF56FF6B6DFF73FFDFFF3EFF3CFF6D73D5
:107EDA00FFFF9A010017819901003B849C01011F51
:107EEA00899D01010C8C9E0117218F9B010107C0FE
:107EFA000020302D3130300020302D363000203631
:107F0A00302D313030002038302D31323000002D04
:107F1A002D2D006F757400696E0020656E67000074
:107F2A006E6F2073656E736F727320666F756E6401
:107F3A000074696D6520636F7272656374696F6E30
:107F4A003F0031393A31302031332E30362E32303B
:107F5A003233006A6F75726E616C20766965776577
:107F6A0072007761697420666F722073746172742B
:107F7A000000637572006461790041004200636F1A
:107F8A006E666967206D656E7500636F6E742E206C
:107F9A00646174610000206F66660020206F6E00C5
:107FAA004A4F555254524950006E6F206974656D9C
:107FBA007300742E73656E736F72002D2D2D2D2D27
:107FCA00272D2D007761726E696E670074696D6581
:107FDA006F757400766F6C746167650074696D699A
:107FEA006E670072657365743F0074726970200071
:067FFA002D2D2D2D0000CD
:020000040020DA
:08000000FFFFFFFFFFFFFFFF00
:020000040030CA
:0E000000FF220A0EFF0181FF0FC00FE00F402C
:0200000400F00A
:1000000074E40400EB2B803E6CA980E7130500002C
:10001000250171184F2BB00E21960000C500E53D5B
:100020004715180A5D6900001200982E2636E10077
:100030009D09000058140803230354030000000026
:10004000581F0A000000FE120A0309225131280736
:100050001121234F0A070121C86A0A210320000049
:10006000FFFFFFFFFFFFFFFF2827F6DC060000D59C
:10007000FFFFFFFFFFFFFFFF050605000000010275
:100080000A15150010050701070507000001020009
:1000900000000810000A15150C14140102050101D6
:1000A00000000000001F151F0305050000010200ED
:1000B0000000081000141C048F0301000909D24E2F
:0800C000090009000C000C000E
:00000001FF
