:100000000C9496010C94B3010C94B3010C94401918
:100010000C94B3010C94B3010C94B3010C94B30190
:100020000C94B3010C94B3010C949D160C94B30181
:100030000C94B3010C94B3010C94CC180C94B30140
:100040000C94B3010C94B3010C94B3010C94B30160
:100050000C94B3010C9402160C94B3010C94B301EC
:100060000C94B3010C94B3012D2D2D2D2D272D2D86
:1000700000FF0001FF0203FF0405FF0607FF68FF02
:100080006CFF56FF6B6DFF73FFDFFF3EFF3CFF6DA4
:1000900073FFFF74696D6520636F727265637469C5
:1000A0006F6E3F0074696D656F7574007761697478
:1000B00020666F72207374617274000020302D31DD
:1000C00030300020302D3630002036302D313030A9
:1000D000002038302D3132300074696D696E670050
:1000E00000637572006461790041004200747269B6
:1000F000702000766F6C7461676500006A616E0045
:10010000666562006D617200617072006D617900F8
:100110006A756E006A756C006175670073657000C2
:100120006F6374006E6F7600646563006E6F2069A4
:1001300074656D73000063757272656E74207472FD
:100140006970007472697020410074726970204295
:1001500000616363656C206C6F67676572006A6F2E
:1001600075726E616C207669657765720000206F2C
:1001700066660020206F6E0000706169722F7061EA
:100180007220696E6A006D697363207363726565BE
:100190006E006B657920736F756E6400736572769F
:1001A00020616C61726D006D682072706D007472F8
:1001B00069702042206D6F6E7468007472697020DF
:1001C000432064617900696E2F6F75742074656DCA
:1001D00070006473333233312074656D7000000039
:1001E000000000000072657365743F00002D2D2D26
:1001F000006F757400696E0020656E670000742ED4
:1002000073656E736F72006E6F2073656E736F72BD
:100210007320666F756E640032303A3131203039A8
:100220002E30392E323032320000656E67696E65CD
:1002300020686F75727300656E67696E65206F69FF
:100240006C0067656172626F78206F696C0061692C
:10025000722066696C74657200737061726B2070D5
:100260006C756773007761726E696E670000667502
:10027000656C20636F6E7374616E740076737320A7
:10028000636F6E7374616E7400746F74616C20744C
:1002900072697000766F6C746167652061646A755D
:1002A00073740073657474696E6773206269747324
:1002B0000074656D702073656E736F727300736583
:1002C000727669636520636E747273006D696E2067
:1002D00073706565640073772076657273696F6EFD
:1002E00000636F6E666967206D656E75002D2D2D3C
:1002F0002D000073756E646179006D6F6E646179B5
:100300000074756573646179007765646E65736404
:1003100061790074687572736461790066726964EA
:1003200061790073617475726461790011241FBE74
:10033000CFEFD8E0DEBFCDBF11E0A0E0B1E0EEE648
:10034000F0E402C005900D92A03BB107D9F722E07E
:10035000A0EBB1E001C01D92AF39B207E1F70E94F6
:10036000131B0C9435200C940000FC0190818091AB
:100370009502882331F0961791F09F5F85E0809376
:10038000940280919302882341F0992311F06FEF3A
:10039000690F85E080939402962F9083089590E0F2
:1003A000EDCFCF93DF93442361F0FB0124916F5F86
:1003B0007F4FFB013197E4912E13F9CF4150B9F7EC
:1003C000422F9B01A22FA61BE901F901549154135E
:1003D00004C08A2FDF91CF9108952F5F3F4FFE0118
:1003E000C491A80FB92FB11DCC93ECCF241B4111A0
:1003F00003C021110DC008954150FC01E40FF11D0F
:100400003081E22FE40FE80FF92FF11D3083EFCF99
:100410002150FC01E20FF11D6083EBCF8F929F9280
:10042000AF92BF92CF92DF92EF92FF920F931F9302
:10043000CF93DF938C016A017B01CB01BA01E80104
:10044000822E912CB12CA12CA50194010E94DF1FBA
:10045000CA01B90121966115710581059105A1F7C0
:100460001882C701B601A50194010E94DF1F69012E
:100470007A01605D6A93C114D104E104F10489F743
:1004800080E08F5FF801E80FF11D90819111F9CFA5
:10049000DF91CF911F910F91FF90EF90DF90CF9060
:1004A000BF90AF909F908F900895FC01962F9F7002
:1004B000905D918362956F70605D60830895282FD1
:1004C0002F708695982F9877822F890F96959695FD
:1004D000890F089581E48093FB0188E38093FA01FA
:1004E0008091770290917802880F991F6DE070E0FB
:1004F0000E94CB1F7093F9016093F80180917C02F8
:1005000087FF0CC082E88093FB018CE18093FA01A5
:10051000769567957093F9016093F80180917D025B
:10052000982F9F7090936C0290917E0292959F708D
:100530009093280282958F708093270208951F93CD
:10054000CF93DF93162F0E945F028150E82FF0E0D7
:10055000E159FE4FC081D0E0893008F0D395812F5A
:100560000E945F028C0F9D2F911DDF91CF911F91F3
:100570000895E0E1F1E090E0A0E2B1E022E198131B
:1005800022C06F3F91F4292F30E0220F331FF90171
:10059000E05FFE4F40814F5F40838181481708F044
:1005A0001082205F3E4FF901608122E130E09330FC
:1005B00011F42AE030E0629FC001639F900D112486
:1005C0008A0F9B1F08953181329FA00DB11D112408
:1005D0009F5F3296D4CF80917C0283FF10C06091E0
:1005E000010270910202809103029091040220E0C6
:1005F00037E741E050E00E94DF1FC9010895609194
:10060000FD017091FE018091FF019091000228E0B0
:1006100037E040E050E0EFCFFC0180913C028823BE
:1006200029F010923C0280818F5F80838081861741
:1006300008F010828081089580913A02882329F081
:1006400081E08093380210929402109295021092E9
:100650003C0210923B0210923A02109293021092C6
:10066000390280913802811104C080919402811175
:10067000F8CF08950F931F93CF93DF93EC01142FBE
:10068000AB0170E060E02AE00E940E02181748F00B
:1006900001E0010F202F482F60E3CE010E94F601F8
:1006A000802F282F211B982FFE01E90FF11D921397
:1006B00008C09EE290838F5FDF91CF911F910F91D1
:1006C0000895DF0111973C9130839150EDCF462F73
:1006D00090E061E770E08D579D4F0C94D101FC01D3
:1006E000908180919502882331F09417B1F09F5F3B
:1006F00085E08093940280913C02811104C0809136
:100700009302882341F0961711F04FEF490F85E0CF
:1007100080939402942F90830895962FE9CF90931D
:100720003201809331012091310130913201809169
:100730003301909134012817390790F480913101E9
:100740009091320190933401809333018091310173
:100750009091320181389105B8F01092D801089536
:100760002091310130913201809135019091360113
:100770008217930758F7809131019091320190933D
:10078000360180933501E2CF81E08093D80108954E
:100790009BB1907F82958F70982B9BB92C9A2C9847
:1007A00008958093BB0084E88093BC008091BC00D6
:1007B00087FFFCCF9091B900987F983119F081E0C4
:1007C000983209F480E0089581110AC084EC809386
:1007D000BC008091BC0087FFFCCF8091BB000895D6
:1007E00084E8F5CF84E98093BC008091BC0084FD4F
:1007F000FCCF089594EA9093BC009091BC0097FFC1
:10080000FCCF0C94D10380ED0E94FA0381111DC02E
:100810000E94D10380E00E94D103809196020E9441
:10082000D103809197020E94D103809198020E9487
:10083000D103809199020E94D10380919A020E9473
:10084000D10380919B020E94D1030C94F203CF93B9
:100850008091D901811152C08AE08093D90180ED45
:100860000E94FA03C0E881112CC00E94D10381EDDF
:100870000E94FA0380E00E94E403C82F80E00E94F7
:10088000E4038093960280E00E94E4038093970241
:1008900080E00E94E4038093980280E00E94E403D9
:1008A0008093990280E00E94E40380939A0281E0A1
:1008B0000E94E40380939B0280919C028068809355
:1008C0009C020E94F203C7FF19C081E18093960247
:1008D00080E28093970286E08093980289E080937B
:1008E000990280939A0282E280939B0280919C02FB
:1008F0008F7780939C02CF910C940304CF9108953D
:10090000CF93DF93EC010E942704E6E9F2E08081B7
:1009100088838181898383818A8384818B83858194
:100920008C83DF91CF91089548E150E068E071E059
:1009300080E191E00C94A71FCF93C82F2A9A0E94C0
:10094000C8038C2F8295807F0E94C80383ED90E0BE
:100950000197F1F700C00000CF910895CF92DF9288
:10096000EF92FF920F931F93CF93DF936C01F42EBE
:1009700010E0213029F0142F161B233009F41695AE
:10098000012F060FD0E0C0E0C11710F0C01778F0BB
:1009900080E20E949C04CF5FFC12F6CFDF91CF91E2
:1009A0001F910F91FF90EF90DF90CF900895EE246C
:1009B000E394ED0EF601ED0FF11D80810E949C0481
:1009C000DE2DE9CFCF93C62F682F83E892E00E94F7
:1009D00055028AE3809385026C2F86E892E00E949C
:1009E000550221E048E065E083E892E0CF910C9465
:1009F000AE04FF920F931F93CF93DF93D82F062F50
:100A0000282F207FF22E182F1F70E12FF0E0EE0F1D
:100A1000FF1FE75DFE4F8081918190939E0280933E
:100A20009D0281389807C9F541E06CEE71E083E8DA
:100A300092E00E94D10180938202F7FE13C028E069
:100A40004091820260E283E892E00E94F60142E077
:100A5000410F6CEE71E083E892E00E94D10188E0E2
:100A600080938202D4FF09C0C09182026AE08C2F79
:100A70000E9467038C0F80938202202F48E06091D0
:100A8000820283E892E00E94AE0480918202DF91AC
:100A9000CF911F910F91FF90089597FF3DC09195C1
:100AA0008195910990939E0280939D028DE280939F
:100AB0008302C1E020919D0230919E02B9016F70C6
:100AC00077274AE0469FC001479F900D112454E0CC
:100AD000969587955A95E1F764E0369527956A953E
:100AE000E1F7429FB001439F700D1124860F971FBD
:100AF00090939E0280939D026AE070E00E94CB1F5B
:100B0000AB0170E060E08C2F90E02AE08D579D4FA4
:100B10000E940E028C0F8FCFC0E0D5FDCBCF8BE2B1
:100B2000C6CF0F931F93CF93DF93D62FFC01608521
:100B30007185828593852EE130E040E050E00E948F
:100B4000DF1FC9016CE370E00E94CB1F8C01AB0179
:100B500070E060E02AE083E892E00E940E02C82F75
:100B6000E82FF0E0ED57FD4F8AE38083C8016AE08B
:100B700070E00E94CB1F6295607F680F81E08C0F50
:100B800090E08D579D4F0E94550263E06C0F60937B
:100B900082022D2F48E083E892E0DF91CF911F91F0
:100BA0000F910C94AE04CF93DF93C82FD42F0E94E3
:100BB00067036C2F680F2D2F48E083E892E0DF91E8
:100BC000CF910C94AE040F931F93CF93DF938C01BE
:100BD000EB0141E0BC01CE018D579D4F0E943A03CD
:100BE000093E134088F4209779F080938202809127
:100BF00082028C0F8093820241E061E0DF91CF910D
:100C00001F910F910C94D3058250EFCF80918102F8
:100C100081110FC040E06DEE72E083E892E00E9427
:100C2000D1018093820242E062E0809182020C94C2
:100C3000D30580917C0287FD22C060E873EC89ECCB
:100C400091E020916D0230916E0240916F025091BF
:100C500070020E94DF1FC90105966AE070E00E94E1
:100C6000CB1F8AE0869FA001879F500D112470E062
:100C700060E02AE083E892E00E940E02D2CF60ECAE
:100C800071EE84EE90E0DDCF0F931F93CF93DF934F
:100C90008C01D42F80E00E946703C82FF801808167
:100CA000918125E0880F991F2A95E1F760917A02DA
:100CB00070E00E94CB1F8C2F90E041E08D579D4F3C
:100CC0000E943A038C0F809382024D2F67E0DF91E0
:100CD000CF911F910F910C94D305FF920F931F9307
:100CE000CF93DF93EC01F62E0E811F8105301105A5
:100CF000E0F02A813B81AAE0B0E00E940720209129
:100D000077023091780250E040E00E94DF1FE881D6
:100D1000F9816AE06E9FC0016F9F900D1124AC01B4
:100D2000420F531F43305105A0F440E06DEE72E0D6
:100D300083E892E00E94D101809382024F2D63E00C
:100D400080918202DF91CF911F910F91FF900C94BF
:100D5000D3059801A4E6B0E00E9407209A0150E074
:100D600040E00E94DF1FB90141E083E892E00E9469
:100D70003A03E2CFCF93C62FFC01868197816AE0C8
:100D800070E00E94CB1F41E083E892E00E943A03AA
:100D9000809382024C2F66E0CF910C94D3051F9371
:100DA000CF93DF93EC01162F2A813B81AAE0B0E0BC
:100DB0000E940720209177023091780250E040E0B5
:100DC0000E94DF1F88819981EAE0E89FB001E99FD6
:100DD000700D1124620F731F41E083E892E00E94BE
:100DE0003A0380938202412F68E0DF91CF911F91F7
:100DF0000C94D3058F929F92AF92BF92CF92DF92C5
:100E0000EF92FF921F93CF93DF93EC01162F88840C
:100E10009984AA84BB8481149104A104B10409F1CA
:100E20002A813B81A0E5B6E40E9407202091770249
:100E30003091780250E040E00E94DF1F69017A01A2
:100E400028813981A0E5B6E40E9407206C0D7D1D44
:100E50008E1D9F1DA50194010E94DF1FB901232B48
:100E6000D1F440E06DEE72E083E892E00E94D1019F
:100E700080938202412F61E080918202DF91CF91C5
:100E80001F91FF90EF90DF90CF90BF90AF909F9019
:100E90008F900C94D30541E083E892E00E943A03DE
:100EA000E7CF69E08CE692E00E940C03893008F0FD
:100EB00058C0E82FF0E0E15AF84F0C940120680781
:100EC0006F0775077A077F07840789078E079A07D8
:100ED00080917C02817061E080650C94F90441E0AE
:100EE0006EE081E391E00C94440661E088E592E0D5
:100EF0000C94910561E088E592E00C94CF0661E0E6
:100F000088E592E00C946D0661E088E592E00C942F
:100F1000FA0661E088E592E00C94BA066CE080E0A5
:100F20000E946703682F70E08091690290916A02C5
:100F30000C94E30580913E0290913F02880F991F27
:100F4000880F991F6AE070E00E94CB1F42E083E89F
:100F500092E00E943A038093820241E06DE00C949B
:100F6000D3050895CF93DF93D62FC42F9FEF980F0B
:100F70009E3F80F040E068E670E083E892E00E94E7
:100F8000D10121E048E068E083E892E0DF91CF9171
:100F90000C94AE04682F83E892E00E9455028D2FD6
:100FA0000E945F02482F6BEF70E085E892E00E949C
:100FB000D10187E2809388026C2F89E892E00E9439
:100FC0005502DFCFCF93C82F2A980E94C8038C2FD9
:100FD0008295807F0E94C80383ED90E00197F1F72E
:100FE00000C00000CF910895CF93DF9380E80E9466
:100FF000E207C6E9D2E0688189810E94E20488E8BC
:101000000E94E2074D816C818B810E94B20780ECC7
:101010000E94E2074A8162EF72E083E892E00E9458
:10102000D10121E040E1682F83E892E0DF91CF9188
:101030000C94AE0480919502811103C080913C0212
:1010400081111092940280EC0E94E20740E068E176
:1010500072E083E892E00E94D10121E040E1682F34
:1010600083E892E00C94AE0446EE6CE88AE792E0E6
:101070000E946F0384EC0E94E20742E06EE081E38D
:1010800091E00C9444062F923F924F925F926F92A0
:101090007F928F929F92AF92BF92CF92DF92EF9208
:1010A000FF920F931F93CF93DF93CDB7DEB7A69731
:1010B0000FB6F894DEBF0FBECDBF8091FC01811149
:1010C0001CC081E080932F02A6960FB6F894DEBF75
:1010D0000FBECDBFDF91CF911F910F91FF90EF9089
:1010E000DF90CF90BF90AF909F908F907F906F9048
:1010F0005F904F903F902F90089580E80E94E20704
:1011000040E06EE571E083E892E00E94D10121E0C9
:1011100040E1682F83E892E00E94AE0480EC0E94D8
:10112000E20720E040E160E083E892E00E94AE0444
:1011300080913C02882341F210923C021EA285E07D
:1011400080939402E7E23E2E80919402811106C0C2
:1011500081E08093380210923302B6CF10923802A9
:1011600063E0CE0186960E94B50180E80E94E20706
:1011700040E06EE571E083E892E00E94D10121E059
:1011800040E1682F83E892E00E94AE0480EC0E9468
:10119000E2074EA181E3840F809383028EE2809365
:1011A00084024F5F65E371E085E892E00E94D1011F
:1011B00062E0680F21E040E183E892E00E94AE0423
:1011C00080913C02882359F110923C028EA1E82FB5
:1011D000F0E0EE0FFF1FE05FFE4FD080C1801DA248
:1011E000A12C833011F062E0A62E85E0809394025A
:1011F00000E0BB24BA9499249A949C0C9EE2892E18
:1012000020E2722E3AE3632E4DE2542E55E0452E35
:1012100080919402811106C085E0809394020E941F
:101220001C0392CF109238028FEFD81609F40CC12C
:10123000692DCE0185960E94B5018DA18B1509F40B
:101240004CC01C2D181B1D0DD81608F01C198EA1A2
:101250009DA18330B1F46D2D9111612F83E00E9427
:10126000B9024AE050E0BC01CE0101960E94971FEE
:10127000BDA08981853A81F1BB2009F4E4C01DA29B
:10128000E6CF6D2D9111612F0E94B90242E150E02D
:10129000EACF80EC0E94E20761E0CE0107960130C0
:1012A00069F0023099F00E94CF0662E0CE01079605
:1012B0000E946D0600E00E941C03AACF0E94FA065D
:1012C00062E0CE0107960E949105F5CF0E94BA0612
:1012D00022E048E060E0B2C000E080E80E94E2075F
:1012E0004DA150E04F5F5F4F052E000C660B770B52
:1012F0002AE0CE0143960E940E0222242394280E57
:1013000020928202E3E1F0E0EC0FFD1FE80FF11DF7
:10131000808283E1E82EF12CEC0EFD1EE20CF11C24
:101320006C81C7010E9455028D810E945F02482F87
:101330006BEF70E0C70102960E94D101182FE2E026
:10134000E80FEE0DFF2DF11D308283E0810F6E81DD
:101350008E0D9F2D911D0E945502E5E0E10FEE0DCF
:10136000FF2DF11D708286E0810F6B818E0D9F2D08
:10137000911D0E945502E8E0E10FEE0DFF2DF11DD9
:10138000608289E0810F6A818E0D9F2D911D0E94E0
:1013900055026BE0610F620D21E040E1CE01439602
:1013A0000E94AE0480913C02882331F04092940266
:1013B0000F5FA01608F400E08EA1833009F069CF1A
:1013C0004F8150E070E060E02AE083E892E00E9404
:1013D0000E0211E0180FE82FF0E0ED57FD4F50829C
:1013E000488550E070E060E0812F90E02AE08D5762
:1013F0009D4F0E940E02810F8093820280EC0E941A
:10140000E20721E048E06091820283E892E00E94D6
:10141000AE0469857A8542E083E892E00E943A034F
:10142000182F69E00E946703810F8093820288EC85
:101430000E94E20722E048E06091820283E892E0A5
:101440000E94AE0438CF00E080E80E94E2074EA17F
:101450004F5F65E371E083E892E00E94D10121E0F3
:1014600040E1682F83E892E00E94AE0480EC0E9485
:10147000E20740E06CE271E083E892E00E94D10173
:1014800021E040E1682F83E892E00E94AE04809161
:101490003C02882329F01092940281E08093380264
:1014A000DD24DA9408CF6F927F928F929F92AF9251
:1014B000BF92CF92DF92EF92FF920F931F93CF9341
:1014C000DF931F92CDB7DEB74B015C0169017A0152
:1014D0002AE0BA01A60183E892E00E940E02082FDA
:1014E000A601B7018C149D04AE04BF0410F4A4013E
:1014F000B5012AE083E892E00E940E02202F482FD7
:1015000060E383E892E00E94F60180E190E0801BB6
:1015100091099695879510EC180F198285E08093B4
:10152000940288248A94800E35E0732E40E3942E32
:1015300080919402811122C08CE00E94E20781E038
:101540008093380203E812E020E030E0A901D801DE
:10155000ED918D01E11164C0CA01B9010F90DF91D5
:10156000CF911F910F91FF90EF90DF90CF90BF90A0
:10157000AF909F908F907F906F9008951092380257
:10158000682DCE0101960E94B50180913C0288230E
:10159000E9F0E981F0E0ED57FD4F80818F5F8A33FC
:1015A00060F5808383E8A82E82E0B82E20E030E04A
:1015B000A901D5016D905D01611021C0C216D3064D
:1015C000E406F50608F49082709294028CE00E9482
:1015D000E207812F0E94E20721E048E0602F83E8C4
:1015E00092E00E94AE048981810F0E94E2078FE0A1
:1015F0000E94E2070E941C039BCF9082D3CFAAE0F7
:10160000B0E00E941620462D4053550B9A01032E40
:10161000000C440B550B260F371F481F591FC9CF0D
:10162000AAE0B0E00E9416204E2F4053550B9A01BD
:10163000032E000C440B550B260F371F481F591F54
:1016400086CFCF93DF93C1E7D2E0688179818A8129
:101650009B812FE332E44FE050E00E94530A6883FD
:1016600079838A839B83DF91CF910895CF93DF9312
:10167000C1E7D2E06E817F8190E080E02FE235E724
:1016800040E050E00E94530A7F836E83DF91CF9148
:101690000895EF92FF920F931F93CF93DF931F92C2
:1016A000CDB7DEB78983062FF42EE22E85E0809336
:1016B00094028091940281110CC081E080933802E1
:1016C00089810F90DF91CF911F910F91FF90EF9043
:1016D0000895109238024E2D6F2DCE0101960E9472
:1016E0006F034981083011F5242F30E0A8EEB3E0F4
:1016F0000E940720AB01BC012AE083E892E00E942F
:101700000E02182F602F0E946703810F80938202C0
:1017100084EC0E94E20722E048E06091820283E8C4
:1017200092E00E94AE040E941C03C3CF50E070E020
:1017300060E0E2CFCF93DF9364E087EF91E00E9417
:10174000B50180EC0E94E2074091F70181E3840F2C
:10175000809383028EE2809384024F5F69E272E09D
:1017600085E892E00E94D10162E0680F21E040E14B
:1017700083E892E00E94AE0480913C02882309F441
:1017800040C01092950210923C0210923B021092BF
:101790003A02109293021092390280E80E94E20706
:1017A0004091F7014F5F69E272E083E892E00E94A6
:1017B000D10121E040E1682F83E892E00E94AE046D
:1017C00080EC0E94E20720E040E160E083E892E0E4
:1017D0000E94AE04C091F701C11116C060910502CC
:1017E0007091060290E080E02FEC37E040E050E09E
:1017F0000E94530A709306026093050285E080936D
:101800009402DF91CF910895C150DD0B83E0CC0F9E
:10181000DD1F8A95E1F7C350DE4F2CE340E068E01E
:101820008C850E94490B8C87E9CF80917E022AE04B
:1018300041E061E08F700E94490BEDE7F2E0982FE4
:101840009F708181807F892B81830895CF93DF935F
:10185000C1E7D2E02FEF41E06EE088850E94490B9E
:101860008887DF91CF91089581E00E94E2078FEB96
:1018700091E20197F1F700C000000895CF93DF9344
:1018800020913A02222309F44AC0EC0110929502F9
:1018900010923C0210923B0210923A021092930274
:1018A000109239020E94340C80E80E94E20740E066
:1018B000BE0183E892E00E94D10123E040E1682F5D
:1018C00083E892E00E94AE0485E0809394028091C8
:1018D0009402882361F080919502811108C0809163
:1018E0003C02811104C080919302882381F390917E
:1018F0003C0281E0911101C080E0109295021092AB
:101900003C0210923B0210923A0210929302109203
:10191000390291E090933802DF91CF91089580E0F1
:10192000FBCFFF920F931F93CF93DF9365E087E286
:1019300092E00E940C0380E80E94E2074091270297
:101940004F5F69E272E083E892E00E94D10121E0FA
:1019500040E1682F83E892E00E94AE048091270264
:10196000811166C00E94EB0207E012E0AC0170E05A
:1019700060E02AE083E892E00E940E02C82F809186
:10198000270268E0811101C065E08C2F0E94670387
:101990008C0F91E0980F90938202E82FF0E0ED57C2
:1019A000FD4F80E2808380EC0E94E20722E048E065
:1019B0006091820283E892E00E94AE04F801C38144
:1019C000D481F58088EC0E94E2074F2D6D2F8C2F7B
:1019D0000E94B20785EE91E00E943E0C882311F12F
:1019E0000E94270480912702823080F41092FD012A
:1019F0001092FE011092FF0110920002109201025B
:101A0000109202021092030210920402F801118255
:101A1000108280919902838380919A0284838091BD
:101A20009B028583DF91CF911F910F91FF900895C5
:101A30008150990B23E0880F991F2A95E1F78C01BB
:101A4000095F1D4F83509E4FFC01828593858ECF89
:101A5000AF92BF92CF92DF92EF92FF920F931F93BC
:101A6000CF93DF93CDB7DEB763970FB6F894DEBFA1
:101A70000FBECDBF0E94270483E990E00E943E0C78
:101A8000882309F4DFC01B8A86E0E7E3F1E0DE018A
:101A90001D9601900D928A95E1F70E94340C85E025
:101AA0008093940210E08AE0C82ED12C8091940299
:101AB00081111AC08CE00E94E20711110E940304F8
:101AC00081E08093380263960FB6F894DEBF0FBEB4
:101AD000CDBFDF91CF911F910F91FF90EF90DF90DD
:101AE000CF90BF90AF9008951092380265E0CE017C
:101AF00043960E94B50180913C02882309F452C0AC
:101B00001B89123009F482C008F062C0112309F465
:101B10006DC0113009F472C0F70180810E945F022C
:101B20008B1508F08BC08F5F90E0B6010E94CB1F31
:101B30006295607F860FF70180831250133070F535
:101B40008CE0EDE3F1E0DE01119601900D928A95B3
:101B5000E1F780919B020E945F02182F80919A0208
:101B60000E945F02A82E809199020E945F02912F2D
:101B7000980F812F86958695980FFE01EA0DF11D2D
:101B80008081980F137021F4F2E0FA1508F091505B
:101B9000973008F055C09F5F9093980285E080933E
:101BA000940211E08CE00E94E2070E94F407EB89A6
:101BB0008DE090E08C0F9D1F8E0F911DFC018081A8
:101BC0000E94E2078FE00E94E2070E941C036ECF92
:101BD000143061F118F1153009F09ECF87E0B82E6E
:101BE00001E098E9E92E92E0F92E96CFA7E1BA2E0E
:101BF00000E0B7E9EB2EB2E0FB2E8ECFEBE3BE2E7A
:101C000000E0F6E9EF2EF2E0FF2E86CF6FE1B62E70
:101C100001E079E9E72E72E0F72E7ECF4CE0B42E9A
:101C200001E05AE9E52E52E0F52E76CF20E2B22E01
:101C300006E13BE9E32E32E0F32E6ECF802F74CF26
:101C40009750A6CF0E94F4073ECF579A5F988FE730
:101C500097E00197F1F700C000005798E7E1F1E045
:101C60003197F1F700C0000089B1E7E6F6E031975F
:101C7000F1F700C000008095881F8827881F08950D
:101C8000579A5F9885E08A95F1F700005798EAE146
:101C9000EA95F1F700C089B1EBEDF0E03197F1F78B
:101CA00000C00000881F8827881F0895579A5F98F2
:101CB00080FF0CC08AE18A95F1F700C057988FEE3B
:101CC00090E00197F1F700C00000089587E191E0EE
:101CD0000197F1F700C0000057989AE09A95F1F744
:101CE00000C00895CF93DF93D82FC8E08D2F817067
:101CF0000E94560ED695C150C9F7DF91CF91089535
:101D0000AF92BF92CF92DF92EF92FF920F931F9309
:101D1000CF93DF93CDB7DEB729970FB6F894DEBF28
:101D20000FBECDBF7C0185E50E94720E870188E061
:101D3000E80EF11CF80181918F010E94720E0E15C0
:101D40001F05C1F78EEB0E94720ECE0101967C0139
:101D50005E019AE0A90EB11C670108E010E016953B
:101D60000E94400E811110680150C9F7F6011193CD
:101D70006F01EA15FB0589F78A81998189279827E0
:101D8000892790939E0280939D02398529E080E007
:101D90002150A9F491E0381390E0892F29960FB6CD
:101DA000F894DEBF0FBECDBFDF91CF911F910F9191
:101DB000FF90EF90DF90CF90BF90AF900895F70124
:101DC00091917F01892798E04CE8869508F4842753
:101DD0009A95D9F7DDCF0E94250E882339F08CEC37
:101DE0000E94720E84E40E94720E81E008952F9288
:101DF0003F924F925F926F927F928F929F92AF929B
:101E0000BF92CF92DF92EF92FF920F931F93CF93E7
:101E1000DF93CDB7DEB7A2970FB6F894DEBF0FBE43
:101E2000CDBF86E0E9E4F1E0DE01599601900D9224
:101E30008A95E1F71F8E18A219A21AA240E150E07C
:101E400060E270E083E892E00E942E2040E067E0CC
:101E500072E083E892E00E94D101CE0101964C012C
:101E6000F12C8C01662463941092EC017090EB01CC
:101E70007110BEC00E94250E81116AC01092EA0145
:101E80001092EB010BC09D9191938150E1F798E086
:101E9000890E911CF394A3E0FA12E6CF0E94EB0E98
:101EA0001092F60184E68093F50185E08093940218
:101EB000EE24EA94EF0C2FE2522E30E3432E4F0C27
:101EC0005E01BFE1AB0EB11C45E0342E52E0252E81
:101ED00061E8662E762C80919402811195C07E0176
:101EE0009FE1E90EF11C6E01A2E2CA0ED11CF701BE
:101EF00061917F01662371F06150770B83E0660F7B
:101F0000771F8A95E1F760597F4F48E050E0C8019C
:101F10000E94A71F085F1F4FCE14DF0441F7A2964F
:101F20000FB6F894DEBF0FBECDBFDF91CF911F91EA
:101F30000F91FF90EF90DF90CF90BF90AF909F9068
:101F40008F907F906F905F904F903F902F9008956B
:101F500080EF0E94720EEE24E3947DEEA72E71E0D6
:101F6000B72EDD24D3940E94400EC82E0E94400E4E
:101F7000B1E0CB120BC08130F1F48091EC018823E9
:101F8000B9F1ADEEB1E0F40189E07FCFF5019081C8
:101F9000C81209C08091EA01D81658F48E2D892301
:101FA00051F4C12C7D2C8E2D80958923F5018083E1
:101FB00008C08D11F6CFD5018C918E298C93CC243D
:101FC000C3948C2D0E94560ED394EE0C29F4FFEF8F
:101FD000AF1ABF0AEE24E39481E4D812C4CF709202
:101FE000EA01711002C06092EB016092EC01C5CF72
:101FF0001092EA011092EB01EDEEF1E088E0DF01D2
:102000001D928A95E9F74ACF10923802FF2009F411
:10201000A0C08091F601811125C08091F501811148
:1020200021C081E08093F6016E01E9E1CE0ED11C62
:1020300048010E94250E882361F0C4010E94800E91
:10204000882339F080919D0290919E02D6018D9354
:102050009C93B2E0CB0ED11CE8E08E0E911CCA140A
:10206000DB0439F76E2DCE0182960E94B501809176
:102070003C02882361F0EAA1EA0DFB2DF11D80816D
:10208000833009F4AEC08F5F8083309294028091D8
:10209000F601882309F4A7C0EAA1F0E0EE0FFF1FC4
:1020A000E00FF11F808D918D9093300180932F016F
:1020B00061E083E00E94F90424E0482F60E283E8B5
:1020C00092E00E94F60184E0E3E8F2E0AFE8B2E0DB
:1020D00001900D928A95E1F740E06EEF71E083E8A0
:1020E00092E00E94D101F0E2F0938B028AA18F5C12
:1020F00080938C0250928D0240928E0280E80E9462
:10210000E20721E040E160E183E892E00E94AE0452
:102110009AA188E0989FF0011124E00FF11FA3E835
:10212000B2E020E1215009F067C0F501E90FF11D8F
:1021300040814F5F6CEE71E08FE892E00E94D10128
:102140008093820224E0482F60E28FE892E00E94B0
:10215000F60180EC0E94E20721E040E160E183E8C3
:1021600092E00E94AE0485EE91E00E943E0C88232E
:10217000D1F081E08F8F28A283E089A370922A0199
:102180006092290170922C0160922B0170922E01B5
:1021900060922D0148E150E06FEF70E0C8010E94AD
:1021A0002E20109294021092950210923C021092EE
:1021B0003B0210923A0210929302109239028091DF
:1021C000F60190913802911186CE90919402992354
:1021D00009F481CE9091F5019111F3CF8111F1CFE6
:1021E0007ACE108252CF44E050E060E270E08FE897
:1021F00092E00E942E2070CF808120FF09C082953E
:102200008F708F708A3030F0895C8C9311968ACFF2
:102210003196F7CF805DF9CF80917C0286FD04C0B6
:1022200081E080932F02089580E80E94E20762E037
:1022300088E292E00E940C03882321F0813009F4A7
:1022400049C0089580913A02882311F110923A0210
:1022500046E06DE672E083E892E00E94D10121E061
:1022600040E1682F83E892E00E94AE040E94F70EDE
:102270001092950210923C0210923B0210923A0288
:10228000109293021092390281E0809338020895EF
:1022900062E080EC0E94F90422E048E060E083E81C
:1022A00092E00E94AE0480EC0E94E20762E081ECC2
:1022B0000E94F90462E082EA0E94F90480912A02F5
:1022C00081113DC080913D028530C8F184E080934A
:1022D0003D02089585EE91E00E943E0C882361F056
:1022E00080913101909132019093360180933501B4
:1022F000909334018093330140E063EF70E083E812
:1023000092E00E94D10121E048E0682F83E892E04A
:102310000E94AE0442E06EE081E391E00E94440638
:1023200080EC0E94E20741E06BE083E391E00E94D1
:10233000440642E06CE085E391E00C944406089585
:102340008F929F92AF92BF92CF92DF92EF92FF92C5
:102350000F931F93CF93DF931F92CDB7DEB70091FA
:102360007B0210917C02198285E0809394028FE0B9
:10237000E82EF12CCC24C394D12C25E0B22E3AE2E5
:10238000A32E4DE2942E80919402811118C08CE00E
:102390000E94E20781E08093380210937C02009350
:1023A0007B020F90DF91CF911F910F91FF90EF90E3
:1023B000DF90CF90BF90AF909F908F900895109234
:1023C00038026FE0CE0101960E94B50180913C0277
:1023D000882381F089819701281B3109C901960161
:1023E00002C0220F331F8A95E2F7C901022719277D
:1023F000B09294028CE00E94E207A80170E060E0D5
:1024000022E083E892E00E940E0220E1482F60E380
:1024100083E892E00E94F601E981F0E0ED57FD4F7C
:102420008080E3E8F2E081E18150D1F580EC0E9408
:10243000E20721E040E160E183E892E00E94AE041F
:1024400040E150E060E270E083E892E00E942E20DC
:1024500049814F5F68E771E083E892E00E94D10113
:1024600080938202882341F041ED480D6DE671E0D2
:102470008FE892E00E94D10180E80E94E20721E00B
:1024800040E160E183E892E00E94AE0489818054DB
:102490000E94E2078FE00E94E2070E941C0373CFB4
:1024A0009081903319F490823196BECFA082FCCFF8
:1024B000DF92EF92FF920F931F93CF93DF93CDB7ED
:1024C000DEB762970FB6F894DEBF0FBECDBF8B01AB
:1024D000882309F45CC08091FC01882309F449C079
:1024E00082E00835180709F066C085E0E8E1F1E010
:1024F000DE01129601900D928A95E1F738E1E32E04
:1025000031E0F32ED12CF80122813381AAE0B0E032
:102510000E940720209177023091780250E040E03D
:102520000E94DF1FF80160817181EAE0E69FC0012F
:10253000E79F900D1124280F391F232BA9F085EA5E
:1025400089838CE0F801DE01179601900D928A953F
:10255000E1F76FEF8D2D0E94B90242E150E0BC011E
:10256000CE0101960E94A71FC7010E9480040E940D
:1025700094048CE0F80111928A95E9F74CE250E05E
:1025800060E170E080E492E00E94A71F06C085EE43
:1025900091E00E943E0C81119ECF62960FB6F89496
:1025A000DEBF0FBECDBFDF91CF911F910F91FF9086
:1025B000EF90DF900895E2E000341E0781F485E09B
:1025C000EDE1F1E0DE01129601900D928A95E1F7BE
:1025D0002DE1E22E21E0F22EDD24D39494CFF2E01F
:1025E0000C341F0731F685E0E2E2F1E0DE011296DD
:1025F00001900D928A95E1F782E2E82E81E0F82EB3
:1026000092E0D92E80CF0F931F93CF93DF93EC01ED
:10261000062F40E06DEE70E083E892E00E94D10169
:10262000182F90E0402F60EE70E08D579D4F0E9474
:10263000D101810F8093820280E80E94E20721E0AD
:1026400048E06091820283E892E00E94AE0462E07A
:10265000CE010E94CF0680EC0E94E20762E080E398
:1026600092E00E940C03882351F0813089F0BE0172
:1026700080E0DF91CF911F910F910C94581261E08F
:10268000CE010E946D0662E0CE010E94FA06EFCFF5
:1026900061E0CE010E94910562E0CE010E94BA067F
:1026A000E6CF64E08CE492E00C94031363E080E4F2
:1026B00092E00C94031380917C0261E081FD62E062
:1026C00088E592E00C9403132F923F924F925F9211
:1026D0006F927F928F929F92AF92BF92CF92DF9232
:1026E000EF92FF920F931F93CF93DF93CDB7DEB797
:1026F0002B970FB6F894DEBF0FBECDBF80E80E94C7
:10270000E20780913202811124C10E942704609166
:102710009602809197020E94E20480913502811115
:10272000ECC04091710250917202609173027091FD
:1027300074022AE083E892E00E940E0280938202F3
:1027400042E068E00E94D30580EC0E94E20780919D
:102750007C02817061E080650E94F90442E06EE0D5
:1027600081E391E00E944406809134028111ACC063
:1027700080913502882309F4A7C080913A0288230A
:1027800009F4A2C01092950210923C0210923B02F2
:1027900010923A0210929302109239020E94340C65
:1027A0001B8685E0809394021FEF80919402811133
:1027B00007C11F3F09F488C080E80E94E20740E09B
:1027C0006CEA70E083E892E00E94D10123E040E1EE
:1027D000682F83E892E00E94AE041092E901109203
:1027E000E8011092E7011092E6011092E5011092C3
:1027F000E401C0907702D0907802F12CE12C28E01F
:10280000129FC0011124FC01E15BFE4F5F0160815A
:10281000718182819381A70196010E94DF1F30930D
:10282000E3012093E201F50164817581868197813E
:10283000A70196010E94DF1F3093E1012093E00180
:1028400040E150E06DE370E083E892E00E942E20CA
:102850008FE0809394021092F50182E0A82E9AE016
:10286000992E01E025EA822E3CE3D32E44E6C42EC5
:1028700050E5752E68E7662E79E1B72E212CE9EE3A
:102880003E2EE4EA4E2EE5E35E2E8091E4018111B6
:102890000DC080919502811109C080913C02811187
:1028A00005C080919302882309F4BAC01092DF0119
:1028B0001092950210923C0210923B0210923A0242
:1028C00010929302109239022B960FB6F894DEBF45
:1028D0000FBECDBFDF91CF911F910F91FF90EF9071
:1028E000DF90CF90BF90AF909F908F907F906F9030
:1028F0005F904F903F902F9008950E94060680ECC5
:102900000E94E2070E945107A091DA01B091DB0119
:102910002091FA0130E00E9407202091790230E0F6
:1029200050E040E00E94DF1FCA01B9012AE030E018
:1029300040E050E00E94DF1FB90141E083E892E0EF
:102940000E943A038093820242E064E00E94D30531
:102950000BCF70E060E080912B0290912C020E94DE
:10296000E3050E94060680EC0E94E2070E945107E0
:102970002091DA013091DB0140912D0250912E021D
:10298000A091F801B091F9010E9407209A0150E04E
:1029900040E00E94DF1FCA01B90100917902202F97
:1029A00030E050E040E00E94DF1FB90141E083E8E1
:1029B00092E00E943A038093820242E063E0C6CF35
:1029C0001092380263E0CE010B960E94B50180910F
:1029D0003C02882319F0109294021B8540E069EDB7
:1029E00070E083E892E00E94D101082F4B854F5F91
:1029F00090E06BEB70E08D579D4F0E94D101800FEE
:102A00008093820280E80E94E20723E040E1609127
:102A1000820283E892E00E94AE040E941C03C5CEAD
:102A2000809194028823D1F080913402811116C0E4
:102A30008091F501811129CFB092F50180EC0E94BF
:102A4000E207809194026BE50E94BF1F21E040E104
:102A5000682F83E892E00E94AE0417CF8091940221
:102A6000882309F458C08091E80181110BC080913E
:102A7000DF01811107C08EE1809394020093DF0192
:102A80000E94340C6091E6017091E70142E083E816
:102A900092E00E943A03F82E69E00E9467034F2DEE
:102AA000480F20E160E283E892E00E94F601809105
:102AB000DE0140E050E0BA018823C9F0E090DC017B
:102AC000F090DD01209177023091780250E040E0F3
:102AD000C201B1010E94DF1FCA01B901970150E094
:102AE00040E00E94DF1FBA01A901662777272AE08C
:102AF00083E892E00E940E028093820261E00E94CD
:102B0000670380EC0E94E20723E040E160E183E894
:102B100092E00E94AE0480919402882359F0809143
:102B2000E801811107C0B092F5018091F501811192
:102B3000FCCFABCE8091E801882339F08091E5018C
:102B4000811103C00093E501A0CE1092DF018091B6
:102B50009402811128C080EC0E94E20740E064EA00
:102B600070E083E892E00E94D10123E040E1682F09
:102B700083E892E00E94AE04A09228019092940211
:102B800080919402882361F080919502811108C0A0
:102B900080913C02811104C080919302882381F3CB
:102BA0000093E40172CE8091FC01882329F389828D
:102BB0008091E6019091E7019A8789871130D1F0E1
:102BC000B0F01230D1F01330D1F0CE0102960E9455
:102BD00080046FEF83E00E94B9024AE050E0BC013C
:102BE000CE0101960E94A71F0E949404C5CF1F82A8
:102BF000C886EBCF1F82D886E8CFDF82F9CF7F82ED
:102C00006886E3CF1F920F920FB60F9211240F9395
:102C10001F932F933F934F935F936F937F938F9364
:102C20009F93AF93BF93CF93DF93EF93FF93A091C5
:102C3000D7011092D7016A2F70E080910F01806454
:102C400080937C0046E0A49FD0011124A65FBE4F74
:102C5000ED91FC91119780917800909179001496F4
:102C60002C911497222379F127FF4CC02F771496CB
:102C70002C93149702C0880F991F2A95E2F7139698
:102C80009C938E93129786E0869FD001879FB00D0C
:102C90001124A65FBE4F14962C911497822F815059
:102CA000990BAC0181E090E002C0880F991F4A9512
:102CB000E2F712964D915C91840F951F02C0969594
:102CC00087952A95E2F709958091D701882329F005
:102CD00080917A00806480937A00FF91EF91DF9178
:102CE000CF91BF91AF919F918F917F916F915F91A4
:102CF0004F913F912F911F910F910F900FBE0F9009
:102D00001F9018951296CD91DC9113978C0F9D1FF3
:102D1000422F4150550B8A0141E050E002C0440F60
:102D2000551F0A95E2F74C0F5D1F02C05695479557
:102D30002A95E2F7841B950BA2CF1F920F920FB634
:102D40000F9211242F933F938F939F93AF93BF9331
:102D5000EF93FF938091D601882399F08091D5015C
:102D60008F5F8093D5018C3309F0D9C01092D601C2
:102D700015BC1092810210923F0210923E021092F6
:102D800035028091E901882361F08091D0018F5F45
:102D90008093D0018A3009F0D7C01092E9011092D7
:102DA000DE018091CD018111FBC08091CC01319970
:102DB000D6C0853618F48F5F8093CC018091CC010A
:102DC000843629F481E080933B028093CB0180918B
:102DD000C9013099CFC0853618F48F5F8093C9013F
:102DE0008091C901843629F481E080933A0280936E
:102DF000CB018091C8013299C8C0853618F48F5F25
:102E00008093C8018091C801843629F481E08093C1
:102E100039028093CB018091CA01811104C0809155
:102E2000CB01882389F08091CA01882309F4BEC0B0
:102E3000109228011092CA011092CB0181E0809378
:102E400038028FE08093CD0180910901815009F40F
:102E5000B1C0809309018091F501882329F0809108
:102E6000F50181508093F5018091C201882349F0DA
:102E70008091E6019091E70101969093E70180939C
:102E8000E6018091D801882309F42EC18091C10107
:102E900091E0980F9093C101893139F481E08093DA
:102EA00038021092940280933702809128018F3F5C
:102EB000F1F080917C0285FD04C080912801823070
:102EC00099F421E02093C0011092BF018091280164
:102ED00033E08302C001112480509F4F9093BE01C4
:102EE0008093BD012093BC018FEF809328018091D6
:102EF000C001882339F08091BC01815009F4F7C0EA
:102F00008093BC01FF91EF91BF91AF919F918F9101
:102F10003F912F910F900FBE0F901F9018958091A9
:102F2000D1019091D201A091D301B091D4018C53E1
:102F3000964FAF4FBF4F8093D1019093D201A09392
:102F4000D301B093D4011DCF8091CE019091CF01D8
:102F50008C53964F9093CF018093CE0122CF855012
:102F60008E3228F481E0809395028093CA011092FA
:102F7000CC012DCF85508E3228F481E080933C0225
:102F80008093CA011092C90134CF85508E3228F443
:102F900081E0809393028093CA011092C8013BCFD5
:102FA0008091CD0181508093CD0135CF81E0809318
:102FB000280140CF84E68093090181E080933802A4
:102FC0002091C6013091C7013093DB012093DA01D3
:102FD0001092C7011092C6012091C4013091C50121
:102FE00030932E0220932D021092C5011092C4013D
:102FF0009091C301992309F474C01092C301809188
:103000003502811105C080913402882309F44CC037
:103010008091FD019091FE01A091FF01B09100020D
:103020000196A11DB11D8093FD019093FE01A09317
:10303000FF01B09300028091480290914902A09153
:103040004A02B0914B020196A11DB11D8093480226
:1030500090934902A0934A02B0934B02809154028C
:1030600090915502A0915602B09157020196A11D70
:10307000B11D8093540290935502A0935602B093D1
:1030800057028091600290916102A0916202B0911A
:1030900063020196A11DB11D8093600290936102AD
:1030A000A0936202B093630280913D02882329F0CD
:1030B00080913D02815080933D028091D901882307
:1030C00029F08091D90181508093D9018091940297
:1030D000882309F4C0CE8091940281508093940299
:1030E000BACE8093C301E0CF1092C101DECE8AE058
:1030F0008093BC018091BF0181110DC081E080935C
:10310000BF018093BB01E091BD01F091BE018081C0
:103110008F5F8093BA018091BB01882399F0109250
:10312000BB018091BA0181508093BA01882379F163
:1031300081E08093B901E091BD01F091BE018181F0
:103140008093B8018091B901882379F08091B8010A
:1031500081110AC01092B901E091BD01F091BE0148
:10316000828181508093B8015E9A8091B90181116A
:1031700008C08091B801811103C081E08093BB0138
:103180005E988091B80181508093B801BBCE1092B7
:10319000C0011092BF01D6CF1F920F920FB60F92AF
:1031A00011248F939F938091C6019091C70101963E
:1031B0009093C7018093C60180914402815080930F
:1031C0004402811118C08091FB01809344028091D8
:1031D00045028F5F8093450290917902891758F0DC
:1031E0001092450280914602909147020196909379
:1031F0004702809346028091500281508093500292
:10320000811118C08091FB0180935002809151027E
:103210008F5F8093510290917902891758F0109234
:103220005102809152029091530201969093530261
:103230008093520280915C02815080935C028111E4
:1032400018C08091FB0180935C0280915D028F5FCA
:1032500080935D0290917902891758F010925D0277
:1032600080915E0290915F02019690935F0280933D
:103270005E029F918F910F900FBE0F901F90189537
:103280001F920F920FB60F9211242F933F934F93DB
:103290005F936F937F938F939F93AF93BF9380912F
:1032A0008400909185009093B7018093B601B59BFF
:1032B00006C084EC99E09093B7018093B601199908
:1032C00094C08091B501811147C082E085BD81E045
:1032D0008093B50180933502809329028091010289
:1032E00090910202A0910302B0910402AC01BD01D1
:1032F0004F5F5F4F6F4F7F4F409301025093020229
:10330000609303027093040220917C0227FD0BC09E
:103310000296A11DB11D8093010290930202A09319
:103320000302B09304028091D60181113AC081E07A
:103330008093D6011092D1011092D2011092D30144
:103340001092D4018091B6019091B7019093B4018D
:103350008093B3011092D501189B62C18091B20194
:10336000811122C121E02093B20120933402809187
:10337000DF01882309F427C18091E90181115BC035
:103380002093E9018091B6019091B7019093B1012A
:103390008093B0011092CF011092CE011092D00113
:1033A0008BC04091B6015091B7018091D1019091AD
:1033B000D201A091D301B091D4012091B3013091F9
:1033C000B401840F951FA11DB11D821B930BA10990
:1033D000B10980936D0290936E02A0936F02B09337
:1033E000700281E080938102A5CF8091B50188238E
:1033F00009F4B2CF15BC1092B5018091D601882393
:1034000009F4AACF8091D1019091D201A091D3016A
:10341000B091D4012091B6013091B7014091B30130
:103420005091B401841B950B820F931F90933F0220
:1034300080933E0291CF8091CE019091CF01609117
:10344000B6017091B7014091B0015091B101860F62
:10345000971F841B950B9093DD018093DC012093D3
:10346000DE018091C201811114C02091DC013091F4
:10347000DD018091E2019091E3018217930730F41E
:103480008091E2019091E301892B19F481E080930E
:10349000C2012091DC013091DD018091E001909129
:1034A000E1018217930708F46DCF81E08093E80172
:1034B0001092C2011092DF018091C4019091C50168
:1034C00001969093C5018093C401809175029091FB
:1034D000760201969093760280937502209177028E
:1034E0003091780282179307D8F1109276021092E9
:1034F00075028091710290917202A0917302B09155
:1035000074020196A11DB11D809371029093720205
:10351000A0937302B0937402809107029091080205
:103520000196909308028093070280910F02909178
:10353000100201969093100280930F02809117025F
:10354000909118020196909318028093170280912F
:103550001F029091200201969093200280931F02F7
:10356000809142029091430201968217930770F571
:10357000909343028093420280914E0290914F02B9
:1035800001968217930780F590934F0280934E0225
:1035900080915A0290915B0201968217930790F5F1
:1035A00090935B0280935A02BF91AF919F918F914C
:1035B0007F916F915F914F913F912F910F900FBE2F
:1035C0000F901F9018951092E90176CF1092430248
:1035D0001092420280914002909141020196909394
:1035E000410280934002C8CF10924F0210924E02C7
:1035F00080914C0290914D02019690934D028093E0
:103600004C02C6CF10925B0210925A02809158026F
:103610009091590201969093590280935802C4CF19
:103620001092B201C1CFCF93DF93CDB7DEB7289709
:103630000FB6F894DEBF0FBECDBF8CE184B993E026
:1036400095B917B887E088B92FE62AB920E22BB9D7
:1036500032E034BD15BC16BC45E647BD18BC10921F
:10366000800048E140938100109285001092840010
:1036700049E04093870043EC409386001092890014
:103680001092880010928B0010928A0030936E0086
:1036900020936F00109269001DBA90936B001092F6
:1036A0006C0010926D0091E0909368009BBB1092AB
:1036B000C10090E890BF10927F0010927E0093E4CA
:1036C00090937C009FEA90937A0080937B001CBCCF
:1036D0001092B9008CE08093B80040E150E070E0B7
:1036E00060E081E792E00E94971F4CE250E060E1C9
:1036F00070E080E492E00E94971F4AE250E060E4AC
:1037000070E08DEF91E00E94971F2A9A2C9A2FEF7C
:1037100030E742E0215030404040E1F700C0000077
:1037200028E0F22E53E080E05F1508F080E30E946D
:10373000C80382E08F1508F0FFC0EFE0F0E4319796
:10374000F1F700C00000FA94F110ECCF82E00E9483
:10375000E20788E20E94E20788E00E94E20787E130
:103760000E94E2070E94340C8CE00E94E20786E08F
:103770000E94E20710E000E0802F8770F60181F4DC
:10378000802F887B80640E94E20748E050E0B80107
:1037900068577F4FCE0101960E94971FFE01319618
:1037A0006F019FEFC91AD90A80810E949C040F5FA4
:1037B0001F4F0034110501F70E946A020E9427047E
:1037C00048E050E060E071E083E892E00E94971FDB
:1037D00048E050E06CE771E083E892E00E9421202D
:1037E000892B09F4AEC088E0ECE7F1E0A3E8B2E091
:1037F00001900D928A95E1F748E050E060E071E0B9
:1038000083E892E00E94A71F88E191E00E94800473
:103810008DE191E00E94800482E291E00E948004A8
:103820000E94940448E050E060E071E083E892E098
:103830000E94971F48E050E06CE771E083E892E057
:103840000E942120892B09F47CC01092FC018091F8
:10385000FC01882341F048E150E068E071E080E13C
:1038600091E00E94971F80919C0287FF81C0109178
:10387000680280919B020E945F02E82E812F0E94C5
:103880005F02E81AE7FC63C0E1E0EE150CF44AC001
:103890006091990280919A020E949F028C0160912E
:1038A0006602809167020E949F0230E020E0EE20D5
:1038B00011F02DE631E0A801481B590BCA01820F17
:1038C000931F97FD44C08230910564F590917C026E
:1038D00091FD3BC000E0811108E1E090650280911C
:1038E00097020E945F02182F8E2D0E945F02010F27
:1038F000081B07FD2CC0E0906402809196020E9494
:103900005F02182F8E2D0E945F02181B812F082E38
:10391000000C990B5CE30502800D911D1124893781
:103920009105ACF068E572E081E00E9458121092B7
:103930006A02109269020BC08FE891E00197F1F7DB
:1039400000CF81E08093FC0182CF8111EBCF809189
:103950007C0282FF0DC080916B02882349F0909118
:103960009A02891729F06CE472E081E00E945812F3
:1039700080918100887F8360809381007894109289
:103980003D0280917C0284FF73C0609005027090BC
:103990000602BDEFCB2EB1E0DB2E10E000E0E12C03
:1039A00088EEA82E83E0B82E88248394912C0111F0
:1039B000D6C06114710439F00E94EB028615970598
:1039C00010F06894E0F80F5F1F4F38E0C30ED11C71
:1039D0000530110561F710E002E0A5E0DA2E1F5F67
:1039E000E0FE42C00093280180E80E94E20740E028
:1039F00065E672E083E892E00E94D10123E040E1B5
:103A0000682F83E892E00E94AE0480EC0E94E207F7
:103A1000412F69E272E083E892E00E94D10123E045
:103A200040E1682F83E892E00E94AE04D0929402B5
:103A300080919402882361F080919502811108C0E1
:103A400080913C02811104C080919302882381F30C
:103A50001092950210923C0210923B0210923A0290
:103A60001092930210923902E694153009F0B7CF04
:103A70001092950210923C0210923B0210923A0270
:103A8000109293021092390280913101909132018B
:103A9000892B21F4809138028823B1F311E03AE0B8
:103AA000232E4DE1E42E51E8852E982C67E0762EEA
:103AB00073E0672EE5E05E2EFEE24F2E1092380294
:103AC00080913702882309F466C00E94340CF89470
:103AD00080912902882321F084E692E00E948004EC
:103AE00080917C0282FF54C080912902811104C020
:103AF00080916B02811104C080919A0280936B02C5
:103B000080916C0290912802292F2295207F90911C
:103B10007E029F70922B90937E0290912702929545
:103B2000907F8F70892B80937D0240E150E070E0A0
:103B300060E081E792E00E94A71F4CE250E060E164
:103B400070E080E492E00E94A71F4AE250E060E447
:103B500070E08DEF91E00E94A71F5D98FFCFF60106
:103B60009481992309F42FCF9A9D90019B9D300D4C
:103B70001124428153814217530708F424CF940142
:103B8000002E02C0220F331F0A94E2F7E22A1BCF55
:103B900010926B02B5CF80913A02882301F1809197
:103BA0003602811134C180913502811118C0809193
:103BB0003402811114C080913302811110C0F0923F
:103BC0003302109336021092950210923C0210922A
:103BD0003B0210923A0210929302109239028091A5
:103BE000360208E08111A6C08091320202E0811104
:103BF00001C007E080913D0281114FC080912A02EF
:103C0000882309F435C110922A02E0923D0299E21C
:103C1000A92E91E0B92E20E7C22ED12C48E050E029
:103C2000B60183E892E00E94971F0E94250E811141
:103C30000BC1F50191828082F8E0CF0ED11C22E009
:103C4000A20EB11C38E8C316D10441F780917B0263
:103C500087FF23C080ED0E94FA0381111CC081E11F
:103C60000E94D10381ED0E94FA0380E00E94E403E8
:103C7000D82E81E00E94E4034FEFD41609F4F3C07C
:103C800050E1D59E9001112482958F70282B30939E
:103C90002C0120932B010E94F20320912D023091E0
:103CA0002E02A0EABCE80E94072020917702309102
:103CB000780250E040E00E94DF1FF90130932C02AF
:103CC00020932B0280917E028F70829DC00111246F
:103CD00061E02817390708F460E0609332028091B0
:103CE000690290916A028E179F0720F430936A024E
:103CF0002093690280913402882321F0EF2B11F484
:103D0000109234028091400290914102813D97408F
:103D100028F060E472E081E00E94581280914C0229
:103D200090914D028137974128F06CE472E081E078
:103D30000E945812D0903302D0923102602F83E358
:103D400092E00E94B501B0903302DB1471F0109242
:103D500030021092950210923C0210923B02109297
:103D60003A0210929302109239028091360288230F
:103D700009F4B4C02B2D2F70A22E269DF001112422
:103D8000EB57FE4F3080C180D280B7FC29C080E85D
:103D90000E94E20740E061EE72E083E892E00E9458
:103DA000D10121E040E1682F83E892E00E94AE0457
:103DB00080EC0E94E20781E38A0D809383024092A7
:103DC0008402432D6DE672E085E892E00E94D10105
:103DD00062E0680F21E040E183E892E00E94AE04D7
:103DE00080913C02811102C0B7FE0CC010923C02CF
:103DF0000E94340C509294028091940281114EC022
:103E000010933802809138028823E1F357CEF09066
:103E100033021092330210923602109295021092E1
:103E20003C0210923B0210923A02109293021092BE
:103E3000390240E150E070E060E081E792E00E94EA
:103E4000A71F0E946A02CBCE83E892E00E94800EF8
:103E5000882309F4EECE80919D0290919E02F50197
:103E600091838083E9CE90922C0180922B0113CF15
:103E700010932A0210933D020E94EB0E80917B0268
:103E800087FF0BCF80ED0E94FA03811104CF8EE0F3
:103E90000E94D1038CE30E94D103FDCE1092380220
:103EA00080E80E94E207432D6DE672E083E892E02D
:103EB0000E94D10121E040E1682F83E892E00E9456
:103EC000AE04F60109950E941C0396CF81508093A1
:103ED000330204C0873049F51092330280913202D8
:103EE000882331F080913302833010F01092330236
:103EF00010922F02E0913302F0E0EE0FFF1FE05628
:103F0000FE4F0190F081E02D099580912F028823CA
:103F100009F478CF80913302909131028917D0F65D
:103F20008111D4CF70923302D9CF8F5FD0CFDC0113
:103F3000CB01FC01F999FECF06C0F2BDE1BDF89AB4
:103F4000319600B40D9241505040B8F70895DC010D
:103F5000CB0103C02D910E94B21F41505040D0F7B9
:103F60000895262FF999FECF1FBA92BD81BD20BDBD
:103F70000FB6F894FA9AF99A0FBE01960895991B14
:103F800079E004C0991F961708F0961B881F7A9550
:103F9000C9F780950895AA1BBB1B51E107C0AA1F52
:103FA000BB1FA617B70710F0A61BB70B881F991FDA
:103FB0005A95A9F780959095BC01CD010895A1E28D
:103FC0001A2EAA1BBB1BFD010DC0AA1FBB1FEE1F93
:103FD000FF1FA217B307E407F50720F0A21BB30BDE
:103FE000E40BF50B661F771F881F991F1A9469F75A
:103FF00060957095809590959B01AC01BD01CF01B6
:104000000895EE0FFF1F0590F491E02D0994A29FF3
:10401000B001B39FC001A39F700D811D1124911D9C
:10402000B29F700D811D1124911D08950E940720DB
:10403000A59F900DB49F900DA49F800D911D1124FC
:104040000895FB01DC0104C08D910190801921F4D9
:1040500041505040C8F7881B990B0895DC0101C0FE
:0E4060006D9341505040E0F70895F894FFCF63
:10406E00010101010401030302648F0300008203B6
:10407E00FF14FF0CFF06FF0500000000000000000B
:10408E000000000000000000FF818181818181819C
:10409E00810000FF0300008184898C8FC00602021C
:1040AE0005000305010406020481818181818100DE
:1040BE000000004054890000000000C0E1E400C090
:1040CE00E1E4004054890050A9AB00E0707200009A
:1040DE001F3B5A7897B5D4F311304E6D4A4F555257
:1040EE00545249500001260C02360B03210B0434A6
:1040FE000805A01108150C06F70E079A0B091A08E9
:10410E0064135B130C1156135113280D910C4308B5
:00000001FF
