:100000000C949B010C94B8010C94B8010C94241B23
:100010000C94CD1A0C94B8010C94B8010C94B8014E
:100020000C94B8010C94B8010C94CF160C94B80140
:100030000C94B8010C94B8010C94591A0C94B801A2
:100040000C94B8010C94B8010C94B8010C94B8014C
:100050000C94B8010C94A1160C94B8010C94B8013E
:100060000C94B8010C94B80174696D6520636F72CB
:1000700072656374696F6E3F0074696D656F757446
:10008000007761697420666F722073746172740006
:100090000020302D3130300020302D363000203619
:1000A000302D313030002038302D3132300074693D
:1000B0006D696E67002D2D2D2D00636F6E742E20DF
:1000C0006461746100766F6C7461676500006375CC
:1000D000720064617900410042007472697020000E
:1000E000FF0001FF0203FF0405FF0607FF68FF6C26
:1000F000FF56FF6B6DFF73FFDFFF3EFF3CFF6D732D
:10010000FFFF6E6F206974656D7300006375727216
:10011000656E742074726970007472697020410099
:1001200074726970204200616363656C206C6F6754
:10013000676572006A6F75726E616C2076696577AB
:1001400065720000206F66660020206F6E000070F0
:100150006169722F70617220696E6A00696E7374D2
:100160002E20617667006B657920736F756E640071
:100170007365727620616C61726D000074726970D3
:100180002042206D6F6E7468007472697020432085
:1001900064617900696E2F6F75742074656D7000ED
:1001A0006473333233312074656D700000000000D9
:1001B0000000656E636F6465720072657365743FFD
:1001C000006E6F2073656E736F727320666F756E4D
:1001D0006400002D2D2D006F757400696E00206580
:1001E0006E670000742E73656E736F720031393A5A
:1001F00031302031332E30362E323032330000652C
:100200006E67696E6520686F75727300656E6769E9
:100210006E65206F696C0067656172626F78206F30
:10022000696C006169722066696C74657200737034
:1002300061726B20706C756773007761726E696EA6
:100240006700636F6E666967206D656E7500006696
:1002500075656C20636F6E7374616E740076737372
:1002600020636F6E7374616E7400746F74616C20C0
:100270007472697000766F6C746167652061646A7E
:100280007573740073657474696E67732062697442
:10029000730074656D702073656E736F7273007395
:1002A00065727669636520636E747273006D696E42
:1002B0002073706565640073772076657273696F6B
:1002C0006E000073756E646179006D6F6E646179A4
:1002D0000074756573646179007765646E65736435
:1002E000617900746875727364617900667269641B
:1002F000617900736174757264617900006A616E7E
:1003000000666562006D617200617072006D6179F6
:10031000006A756E006A756C0061756700736570C0
:10032000006F6374006E6F7600646563002D2D2D81
:100330002D2D272D2D0011241FBECFEFD8E0DEBFBD
:10034000CDBF11E0A0E0B1E0ECE3F5E402C0059020
:100350000D92A63EB107D9F723E0A6EEB1E001C0A9
:100360001D92A332B207E1F70E94471C0C949C2215
:100370000C940000FC01908180911B03882331F0D4
:100380009417D9F09F5F8AE080931A038091160337
:1003900080FF15C080910B03811110921A03809188
:1003A0000A03882341F0961711F04FEF490F8AE0B6
:1003B00080931A03942F90830895962FE4CF809111
:1003C0000B038111F0CFEBCFA6E0B0E0EAEEF1E055
:1003D0000C9451229E838D83DC01AD90BC901197CB
:1003E00012962D913C91C901B0E0A0E089839A83D7
:1003F000AB83BC83C0901203D0901303F12CE12C8B
:10040000AAE0B0E00E943722A70196010E941522BF
:100410008AE08A9D10018B9D300C1124220E331E20
:100420003092FF022092FE02AD81BE8116968D9021
:100430009C90C40105966AE070E00E9401228B0145
:100440007093050360930403ED81FE814084518421
:1004500062847384C301B2012CE330E040E050E0D9
:100460000E94152230930703209306034114510480
:1004700061047104C1F129813A814B815C8160E49E
:100480007EE785E090E00E94F121A70196010E949D
:10049000152269017A01D50120E43EE745E050E0EC
:1004A0000E9446226C0D7D1D8E1D9F1DA301920191
:1004B0000E941522C90105966AE070E00E9401229F
:1004C00070930103609300030530110520F0F3E001
:1004D0002F16310468F4109203031092020326963B
:1004E000E2E10C946D221092010310920003ECCF14
:1004F0009401A8EEB3E00E943722910150E040E061
:100500000E941522C90105966AE070E00E9401224E
:100510007093030360930203E2CFEAE4F1E090E01A
:10052000A0E2B1E022E1981322C06F3F91F4292F9D
:1005300030E0220F331FF901E65BFE4F40814F5F31
:1005400040838181481708F01082265B3E4FF901F5
:10055000608122E130E0933011F42AE030E0629FC4
:10056000C001639F900D11248A0F9B1F0895318154
:10057000329FA00DB11D11249F5F3296D4CFCF932F
:10058000DF93442361F0FB0124916F5F7F4FFB01F8
:100590003197E4912E13F9CF4150B9F7422F9B01C7
:1005A000A22FA61BE901F9015491541304C08A2F0C
:1005B000DF91CF9108952F5F3F4FFE01C491A80FA7
:1005C000B92FB11DCC93ECCF211101C00895362F66
:1005D000442329F04150FC01E40FF11D30812150EA
:1005E000FC01E20FF11D3083EFCFB0E0A0E0EBEFB4
:1005F000F2E00C945722082F6A017B01AB019601AF
:10060000EC019AE0892E912CA12CB12CCA01B901E0
:10061000A50194010E94152221961C2F101B211563
:1006200031054105510591F718828AE0882E912CF9
:10063000A12CB12CC701B601A50194010E9415227D
:1006400069017A01605D6A93C114D104E104F10487
:1006500089F7812FCDB7DEB7ECE00C947322FC0153
:10066000962F9F70905D918362956F70605D60833F
:100670000895282F2F708695982F9877822F890FAD
:1006800096959695890F08959BB1907F82958F706E
:10069000982B9BB92C9A2C98089581E4809353024F
:1006A00088E3809352022091120330911303AAEC45
:1006B000B0E00E94372222E830E040E050E00E94A3
:1006C000152230935102209350028091170387FF27
:1006D0000CC082E8809353028CE1809352023695DD
:1006E0002795309351022093500280911803982F40
:1006F0009F709093D7029091190392959F70909359
:10070000D80282958F708093A2020895AAE1B0E08A
:10071000ECE8F3E00C945F22062F9AE1E2E6F1E0C8
:10072000DE01119601900D929A95E1F70E9439032E
:10073000182F802F0E943903412F4150550B9A01E9
:10074000220F331FE1E0F0E0EC0FFD1F2E0F3F1FE3
:10075000F90120813181820F932F911D6A96E4E087
:100760000C947B22FC0180910B03882329F01092CA
:100770000B0380818F5F80838081861708F0108251
:1007800080810895482F50E070E060E08AEE92E0AA
:100790000E94F502E82FF0E0E651FD4F9EE29083C3
:1007A0008F5F0895CF93DF93C42FAB01BC018AEE16
:1007B00092E00E94F502CC23D1F0C81750F0D1E0AE
:1007C000DC0F2D2F482F60E38AEE92E00E94E402B6
:1007D0008D2F282F30E026513D4FF9019C2F91504D
:1007E00048F42C1B31099EE2F90190838F5FDF9161
:1007F000CF91089542914183F2CF80931A03809163
:100800001A03882361F080911B03811108C0809135
:100810000B03811104C080910A03882381F308959A
:100820008091DC02882329F081E08093E602109217
:100830001A0310921B0310920B031092D60210920F
:10084000DC021092D50210920A031092D402809119
:100850001A03882321F08091E6028823C1F30895CA
:100860008093BB0084E88093BC008091BC0087FF2C
:10087000FCCF9091B900987F983119F081E09832BF
:1008800009F480E0089581110AC084EC8093BC00D3
:100890008091BC0087FFFCCF8091BB00089584E865
:1008A000F5CF84E98093BC008091BC0084FDFCCF2F
:1008B000089594EA9093BC009091BC0097FFFCCF00
:1008C0000E943004089580ED0E94590481111DC0DA
:1008D0000E94300480E00E94300480911C030E943A
:1008E000300480911D030E94300480911E030E94F9
:1008F000300480911F030E943004809120030E94E5
:100900003004809121030E9430040E945104089514
:10091000CF93DF93D82FC62F80ED0E945904811109
:1009200006C08D2F0E9430048C2F0E9430040E943C
:100930005104DF91CF910895CF92DF92EF92FF9211
:10094000FB01C0901403D12CF12CE12C411116C0F5
:100950002091520230E0DC010E943722A70196016B
:100960000E941522C90105966AE070E00E940122EA
:10097000CB01FF90EF90DF90CF900895A0915002AF
:10098000B09151029C010E9437229F0150E040E04B
:100990000E941522CA01B901E1CFFC01ACE1B3E02C
:1009A0008C91808311968C911197818313968C91F1
:1009B0001397828314968C911497838315968C9148
:1009C000848308958091030281115CC08AE0809342
:1009D0000302809122038F778093220380ED0E948F
:1009E000590481112DC00E94300481ED0E945904E8
:1009F00080E00E9443049091220387FB97F990586E
:100A00009093220380E00E94430480931C0380E0C3
:100A10000E94430480931D0380E00E94430480935E
:100A20001E0380E00E94430480931F0380E00E9425
:100A300043048093200381E00E94430480932103B8
:100A40000E9451048091220387FF04C080912103FA
:100A5000811118C080E180931C0389E180931D03FC
:100A600083E080931E0383E180931F0386E08093DD
:100A7000200383E2809321030E94630460E08FE0FF
:100A80000E9488040895809179029AEF980F94301B
:100A900060F110922502109281021092800280E88B
:100AA00091E0909383028093820286E080937E029D
:100AB000809378028093790210927A0210927B02DE
:100AC00010927C0210927D021092740210927502B4
:100AD00010927602109277021092570210925602EC
:100AE00010925902109258020895863069F12091AF
:100AF0007E0280917A0290917B02A0917C02B0915B
:100B00007D0204C0B695A795979587952A95D2F74B
:100B1000909357028093560220917802809174023C
:100B200090917502A0917602B091770204C0B695BB
:100B3000A795979587952A95D2F790935902809318
:100B4000580281E0809325020895EF92FF920F935F
:100B50001F93CF93DF93FC01CB01248121110CC0A3
:100B6000AB0170E060E04083518362837383CDB753
:100B7000DEB7E6E00C94792227FF2BC02F77248381
:100B8000222359F002C0880F991F2A95E2F7B0E09E
:100B9000A0E080839183A283B3834481042F01501A
:100BA000110B21E030E0002E02C0220F331F0A9407
:100BB000E2F780819181A281B381820F931FA11DF1
:100BC000B11D04C0B695A795979587954A95D2F71C
:100BD000CECF40815181628173817A018B01E80E11
:100BE000F91E011D111DD801C701C22FC150DD0B17
:100BF0008E01C1E0D0E002C0CC0FDD1F0A95E2F704
:100C00004C0F5D1F611D711D04C07695679557954A
:100C100047952A95D2F7841B950BA60BB70BB9CF36
:100C2000FC01908180911B03882329F0941781F0A7
:100C30009F5F20931A0380910A03882339F0961747
:100C400011F04FEF490F20931A03942F90830895CA
:100C5000962FEFCF60911402709115020E94A505A6
:100C600090934501809344012091440130914501C6
:100C700080914601909147012817390790F480919F
:100C800044019091450190934701809346018091E2
:100C900044019091450181389105B8F01092090204
:100CA000089520914401309145018091480190912F
:100CB00049018217930758F78091440190914501AB
:100CC0009093490180934801E2CF81E0809309022B
:100CD0000895809124028823B1F08091EF018F5F05
:100CE0008093EF018A3029F41092240210921802A6
:100CF00008958091F0019091F1018C53964F90935B
:100D0000F1018093F00108958091ED01882339F17C
:100D10008091E6018F5F8093E6018C3361F410923D
:100D2000ED0115BC1092600210925B0210925A0203
:100D30001092DB0208958091E9019091EA01A0915F
:100D4000EB01B091EC018C53964FAF4FBF4F8093A6
:100D5000E9019093EA01A093EB01B093EC010895AF
:100D600048E150E068E071E08AE491E00E94D92116
:100D70000895579A5F988FE797E00197F1F700C0C1
:100D800000005798E7E1F1E03197F1F700C000006B
:100D900089B1E7E6F6E03197F1F700C000008095F1
:100DA000881F8827881F0895579A5F9880E28A9540
:100DB000F1F75798E0E3EA95F1F789B1EBEDF0E050
:100DC0003197F1F700C00000881F8827881F089519
:100DD000579A5F9880FF0BC080E28A95F1F7579889
:100DE0008FEF90E00197F1F700C0000008958FEEBB
:100DF00090E00197F1F700C00000579895E39A95AD
:100E0000F1F7F3CFCF93DF93D82FC8E08D2F817008
:100E10000E94E806D695C150C9F7DF91CF91089599
:100E2000A9E0B0E0E6E1F7E00C9459227C0185E509
:100E30000E940207870188E0E80EF11CF801819109
:100E40008F010E9402070E151F05C1F78EEB0E944D
:100E50000207CE0101967C015E019AE0A90EB11C49
:100E6000670108E010E016950E94D4068111106811
:100E70000150C9F7F60111936F01EA15FB0589F7D7
:100E80008A8199818927982789279093E9028093FD
:100E9000E802398529E080E0215041F491E03813DF
:100EA00090E0892F2996EAE00C947522F701919140
:100EB0007F01892798E04CE8869508F484279A9565
:100EC000D9F7EACF0E94B906882339F08CEC0E944A
:100ED000020784E40E94020781E00895CF92DF9226
:100EE000FF920F931F93CF93DF936C01042F46174C
:100EF00008F4642F10E0213029F0102F161B233046
:100F000009F41695C12FC60FD0E0D11708F1DC17F0
:100F1000F8F4F601F080C60101966C012A9A8F2D33
:100F20000E9444038F2D8295807F0E944403E3ED4D
:100F3000F0E03197F1F700C00000DF5F0D13E5CF5F
:100F4000DF91CF911F910F91FF90DF90CF90089587
:100F500080E2F82EE3CFCF93C82F2A980E94440353
:100F60008C2F8295807F0E94440383ED90E001974F
:100F7000F1F700C00000CF91089581E00E94AB0717
:100F80008FEB91E20197F1F700C000000895CF9335
:100F9000DF93C62FD42F0E94AB072D2F48E06C2F74
:100FA0008AEE92E00E946E07DF91CF9108951F9321
:100FB000CF93DF93C82F142FD22F8FEF860F8E3F42
:100FC00080F040E06DE273E08AEE92E00E94BF02A2
:100FD00042E068E08C2F0E94C707DF91CF911F91FC
:100FE00008958AEE92E00E942F03812F0E94390318
:100FF000482F6CEF72E08CEE92E00E94BF0287E215
:101000008093EF026D2F80EF92E00E942F03E0CFDC
:10101000B0E0A0E0EEE0F8E00C945C22D82F7B0179
:10102000D42EFB01808591850CE310E0B8010E946D
:101030000122AB0170E060E08AEE92E00E94F502CE
:10104000C82FE82FF0E0E651FD4F8AE38083F701D7
:1010500080859185B8010E9401226AE070E00E94BB
:1010600001226295607F680F81E08C0F90E08651CD
:101070009D4F0E942F0363E06C0F4D2D8D2F0E941A
:10108000C707CDB7DEB7E7E00C947822CF93DF93A4
:10109000C62FD42F0E94AB072D2F40E16C2F8AEE74
:1010A00092E00E946E07DF91CF9108951F93CF9336
:1010B000DF93CCE1D3E0188169818AEE92E00E944F
:1010C0002F038AE38093EC02612F8DEE92E00E9461
:1010D0002F0341E065E080E80E94C7072D814C8125
:1010E0006B8188E80E94D7074A8162EC72E08AEE41
:1010F00092E00E94BF0241E0682F80EC0E94460807
:10110000DF91CF911F91089580911B03811103C03E
:1011100080910B03811110921A0340E06DEE71E093
:101120008AEE92E00E94BF0241E0682F80EC0E94AC
:1011300046080895CF93DF932091DC02222369F1C2
:10114000EC011092DC020E94BD0740E0BE018AEE75
:1011500092E00E94BF0243E0682F80E80E944608A8
:1011600085E00E94FD0390910B0381E0911101C085
:1011700080E010921B0310920B031092D602109283
:10118000DC021092D50210920A031092D40291E070
:101190009093E602DF91CF91089580E0FBCF1F93FB
:1011A000CF93DF9365E082EA92E00E94B203409120
:1011B000A2024F5F6EEF71E08AEE92E00E94BF02E2
:1011C00041E0682F80E80E944608C091A202C11148
:1011D0005CC060918402709185028091860290913A
:1011E000870220E13EE040E050E00E941522CAE87C
:1011F000D2E0A90170E060E08AEE92E00E94F50280
:10120000182F8091A20248E0811101C045E0812F92
:1012100090E060EE70E086519D4F0E94BF02810F0A
:10122000E82FF0E0E651FD4F90E2908361E0680F17
:1012300042E080EC0E94C7072D814C816B8188ECD5
:101240000E94D7078AEB91E00E949A088823C9F090
:101250000E94E2048091A202823040F41092840243
:1012600010928502109286021092870219821882CB
:1012700080911F038B83809120038C8380912103B5
:101280008D83DF91CF911F91089586E0C89FE00183
:101290001124CC57DD4F28813981ABCFA1E0B0E0DC
:1012A000E4E5F9E00C9453222B013C0149015A0179
:1012B000BA01A9018AEE92E00E94F502F82E4814C4
:1012C00059046A047B0468F4B301A2018AEE92E037
:1012D0000E94F5022F2D482F60E38AEE92E00E94D3
:1012E000E40280E190E08F1991099695879510ECC2
:1012F000180F19828AE080931A0300E0DD24DA9443
:10130000DF0C1092E60280911A03811113C081E074
:101310008093E6020AEE12E020E030E0A901D80155
:10132000ED918D01E11184C0CA01B9012196E0E17E
:101330000C946F228091160380FF4CC0002309F4A7
:1013400049C0898190E086519D4FDC01EC902AE0F4
:1013500049E360E30E94100680910B03882351F05B
:1013600010920B038091160380FF3AC000958AE02B
:1013700080931A03EAEEF2E020E030E0A901C19088
:10138000C1103AC082169306A406B50648F4E98156
:10139000F0E080911603E651FD4F80FF42C0E082ED
:1013A0008CE00E94AB071F3F29F041E06F2D812F99
:1013B0000E94C7078981810F9091160390FF34C066
:1013C000011132C00E94AB078EE00E94AB070E9461
:1013D000100497CF2AE04D2D60E0CE010196BACFE0
:1013E000E981F0E0E651FD4F80818F5F8A3310F490
:1013F0008083BDCF80E3FCCFBEE2CB1609F4BFCF24
:10140000AAE0B0E00E9446224C2D4053550B9A01B1
:10141000032E000C440B550B260F371F481F591F76
:10142000AECF80E38083BCCF0E94AB078FE0CDCFEF
:10143000EE3209F474CFAAE0B0E00E944622AE2F4B
:10144000A053BB0B9D01032E000C440B550B260F24
:10145000371F481F591F63CFCF93DF93CCE0D3E0F2
:10146000688179818A819B812FE332E44FE050E0EB
:101470000E944E09688379838A839B83DF91CF9191
:101480000895CF93DF93CCE0D3E06E817F8190E02D
:1014900080E02FE235E740E050E00E944E097F8374
:1014A0006E83DF91CF910895ADE0B0E0EAE5FAE018
:1014B0000C9459220E94E20488E690E00E949A0867
:1014C000882309F4D2C01D860E94BD078AE080935C
:1014D0001A03F12CE12C8AE0C82ED12C1092E602DE
:1014E00080911A0381110AC081E08093E602E11025
:1014F0000E9463042D96EAE00C94752280911603F5
:1015000080FF09C080910B038111F094FF2019F036
:10151000FF24FA940EC02AE045E060E0CE010D966B
:101520000E9410060D8585E0089F80011124025657
:101530001E4F8091160380FF1FC080911B038111F5
:1015400004C080910A03882311F0F1101CC08CE0C4
:101550000E94AB070E9456088091160380FF7FC04F
:10156000F1107DC0F80184810E94AB078EE00E94DB
:10157000AB070E941004B2CF80910B03882339F38C
:1015800080910B0358C080910A03882309F451C04D
:10159000F801E380A080B180F50180810E943903C9
:1015A000F8019281981718F4EE24EA94E80E8E2D33
:1015B00090E0B6010E9401226295607F860FF501DE
:1015C00080838D858250833070F58CE0ECE7F1E00C
:1015D000DE01119601900D928A95E1F78091210329
:1015E0000E943903E82E809120030E943903B82E0F
:1015F00080911F030E9439039E2D980F8E2D869592
:101600008695980FFE01EB0DF11D8081980F8E2DB0
:10161000837021F4F2E0FB1508F091509730E8F464
:101620009F5F90931E038AE080931A03EE24E39455
:101630008ECF80911B03882321F2F801E280A080E5
:10164000B180F50180810E943903F80193818917E7
:1016500008F0ADCFEE24E394A9CF9750DFCFF80187
:1016600084810E94AB078FE082CF0E94560842CF50
:10167000EF92FF920F931F93CF93DF93182FF62EC5
:10168000E22E60EE70E08AEF92E00E94BF02D82F57
:10169000C82FCF0D2C2F4F2D60E28AEE92E00E94D2
:1016A000E402D150E0F48C2F90E04E2D60EE70E01B
:1016B00086519D4F0E94BF02D82F1F3F59F0812FA6
:1016C0000E94AB076C2F6D0F202F48E08AEE92E04E
:1016D0000E946E07CDB7DEB7E6E00C947922ED2FBD
:1016E000F0E0E651FD4F80898083DBCFA1E0B0E0E0
:1016F000ECE7FBE00C945D228983162FF42EE22E9A
:101700008AE080931A031092E60280911A038111F5
:1017100008C081E08093E60289812196E6E00C947E
:1017200079224E2D6F2DCE0101960E94BA0149817A
:101730001830B1F4242F30E0A8EEB3E00E94372235
:10174000AB01BC018AEE92E00E94F50202E0212F7B
:101750004EE0682F84EC0E94380B0E941004D3CF17
:1017600050E070E060E0EECFCF93DF932AE044E0FA
:1017700060E08FE492E00E94100680914F028F5F3C
:101780000E94C203C82F40914F024F5F90E06EEF5E
:1017900071E086519D4F0E94BF026C2F680F41E09F
:1017A00080EC0E94460880910B03882361F110921F
:1017B0000B0340914F024F5F6EEF71E08AEE92E0B3
:1017C0000E94BF0241E0682F80E80E94460840E086
:1017D00060E080EC0E94460880914F02811116C0A3
:1017E000609188027091890290E080E02FEC37E0F0
:1017F00040E050E00E944E09709389026093880295
:101800008AE080931A03DF91CF9108958150990B5C
:1018100026E0289FE001299FD00D1124CC57DD4FF1
:101820002CE340E068E088850E94760B8887E8CF4B
:10183000809119032AE041E061E08F700E94760BED
:10184000E8E1F3E0982F9F708181807F892B81836D
:101850000895CF93DF93CCE0D3E02FEF41E06EE02B
:1018600088850E94760B8887DF91CF910895EF924B
:10187000FF920F931F93CF93DF93F82E162F042F11
:10188000262F207FE22ED62FDF70ED2FF0E0EE0F17
:10189000FF1FE45FFE4F808191819093E902809366
:1018A000E80281389807B1F441E062ED71E08AEE18
:1018B00092E00E94BF02D33009F04FC020E1482FD0
:1018C00060E28AEE92E00E94E402CDB7DEB7E6E085
:1018D0000C94792297FF3CC0919581959109909342
:1018E000E9028093E8028DE28093EA02C1E0209150
:1018F000E8023091E902B9016F7077274AE0469F0C
:10190000C001479F900D112454E0969587955A95F4
:10191000E1F764E0369527956A95E1F7429FB001BB
:10192000439F700D1124860F971F9093E9028093B7
:10193000E8026AE070E00E940122AB0170E060E022
:101940008C2F90E086519D4F0E94F5028C0FB3CFF3
:10195000C0E065FDCCCF8BE2C7CFE7FE10C028E02A
:10196000482F60E28AEE92E00E94E40242E04D0FCE
:1019700062ED71E08AEE92E00E94BF0288E02EE004
:1019800014FD2AE04EE0682F8F2D0E94380B9DCF6A
:101990000F93CF93DF93C82FD42F022FFB018081A9
:1019A000918125E0880F991F2A95E1F72091150371
:1019B00062E7621B70E00E94012290E080E041E05B
:1019C0000E94D20327E04D2F682F8C2F0E94380BE6
:1019D000DF91CF910F91089546EE6CE885E193E099
:1019E0000E94BA0122E04EE064E471E084EC0E94BF
:1019F000C80C0895EF920F93CF93C82FCB01BA0173
:101A00006115710581059105B9F427FF15C040E006
:101A100065EB70E08AEE92E00E94BF02202F2F70EB
:101A2000402F42954F700E2D682F8C2F0E94380B3F
:101A3000CF910F91EF900895422F4F770E94D203DC
:101A4000EDCF30E020E020FD0FC05E9A90E040E551
:101A50004A95F1F79F5F8913FACF2F5F3F4F6217C7
:101A6000730789F75E9808955E98F0CF6AEF70E08B
:101A700089E10E94210D60E971E08FE00E94210D53
:101A80000895CF92DF92EF920F931F93CF93DF933E
:101A900080910B03882361F08091D902823028F471
:101AA0008F5F8093D90210920B038EE180931A030B
:101AB00080911A03882321F08091DC02882379F039
:101AC0001092DC028091D902882319F08150809312
:101AD000D9028091D902811126C010921A039091E7
:101AE000D902E091E202F091E302828191111FC0DC
:101AF0008F7D828340E064E371E08AEE92E00E9491
:101B0000BF0241E0682F80E80E94460840E060E0A4
:101B100080EC0E944608DF91CF911F910F91EF90CA
:101B2000DF90CF9008958EE180931A03D8CF806222
:101B30008283913009F445C0923069F780913D026B
:101B40008F3F09F43CC140913E0241502EE160E0DC
:101B50008FE392E00E9410069091400280913F0234
:101B6000981709F479C010914102CAE0133009F0C6
:101B7000C2E1D0E080913F0290913D02692F88231D
:101B800039F020913E02620F681B981708F0621B23
:101B9000812F0E948D02AE01BC0186E292E00E947C
:101BA000C9218091260290913F02853A09F447C0ED
:101BB0008A3A09F444C0992309F441C010923F02C3
:101BC000D9CF2EE143E060E081E492E00E9410066C
:101BD00040E064E371E08AEE92E00E94BF0241E0DF
:101BE000682F80E80E944608809141028F5F0E9422
:101BF000C203C82F409141024F5F90E06BE071E05B
:101C000086519D4F0E94BF026C2F680F41E080EC0F
:101C10000E944608E0914102F0E0EE0FFF1FE65BF4
:101C2000FE4F808180933D02818180933E0210921D
:101C30003F028FEF8093400210923C026CCF909352
:101C40004002853A09F4E0C08A3A09F4DDC09111F6
:101C5000DBC08FEF80933D0280913D028F3F09F4FE
:101C6000AEC080914102833009F0E2C000913A0297
:101C700010913B0268018FEFC81AD80AF80146811B
:101C800050E070E060E08AEE92E00E94F502C1E070
:101C9000C80FE82FF0E0E651FD4F8DE28083F80198
:101CA000478150E070E060E08C2F90E086519D4FBE
:101CB0000E94F5026C2F680F41E080EC0E94C7077C
:101CC000E0913A02F0913B026085718590E080E0FE
:101CD00042E00E94D20302E029E04EE0682F88EC47
:101CE0000E94380B80913F028F5F0E94C203082F31
:101CF000C82FD0E0C651DD4FF6016281CE010E94AF
:101D00002F03F60183810E943903482F6CEF72E0A4
:101D1000CE0102960E94BF02182FE2E0E80FEC0FFE
:101D2000FD2FF11D87E2808383E0810FF60164813E
:101D30008C0F9D2F911D0E942F03E5E0E10FEC0F0A
:101D4000FD2FF11D80E2808386E0810FF601618125
:101D50008C0F9D2F911D0E942F03E8E0E10FEC0FE7
:101D6000FD2FF11D8AE3808389E0810FF6016081F8
:101D70008C0F9D2F911D0E942F03100F6BE0610FA0
:101D800041E080E80E94460880910B03882391F08F
:101D900080914102833041F080913C028F5F83301B
:101DA00008F099C080933C028EE180931A0381E091
:101DB0008093E60280913D028F3F09F0ACCE4091C6
:101DC00041024F5F6BE071E08AEE92E00E94BF0239
:101DD00041E0682F80E80E94460840E062E071E040
:101DE0008AEE92E00E94BF0241E0682F80EC0E94E0
:101DF000460880910B03882309F48DCE10921A03B4
:101E000081E08093E60287CE10923C0280914102ED
:101E1000833039F486E292E090933B0280933A0259
:101E20001BCF86E292E0909339028093380214CF60
:101E3000E0913802F09139026F018FEFC81AD80A89
:101E4000EF0126968081853A29F4CE010E94E401B3
:101E5000CEEFD2E080913C02813061F1A0F082307F
:101E600009F040CF4E815F8170E060E0EE24E394A2
:101E700006EE21E080EC0E94FA0C42E060E088EC83
:101E80000E94C7072FCF4881598170E060E0EE249F
:101E9000E39408EE21E080EC0E94FA0C4C815D8115
:101EA00070E060E082E0E82E03EE21E888EC0E941A
:101EB000FA0C18CF4A815B8170E060E0EE24E39475
:101EC00001EE21E880EC0E94FA0C42E0BE0188ECB1
:101ED0000E94080807CF10923C0266CFA2E2B0E051
:101EE000E4E7FFE00C94522286E0E8E8F1E0DE014E
:101EF000599601900D928A95E1F71F8E18A219A2AA
:101F00001AA2CE0101965C01712C8C0166246394A7
:101F100010924402809143028111ADC00E94B90623
:101F2000811158C010924202109243020BC09D9141
:101F300091938150E1F798E0A90EB11C7394A3E04E
:101F40007A12E6CF0E94620710924E0284E68093D6
:101F50004D028AE080931A0366246A94670C2FE28C
:101F6000522E30E3432E470C6E01BFE1CB0ED11C45
:101F700042E0342E51E8A52EBA2C1092E602809150
:101F80001A03811184C081E08093E6027E01AFE1F3
:101F9000EA0EF11C6E01B2E2CB0ED11CF701619189
:101FA0007F01662371F06150770B83E0660F771F26
:101FB0008A95E1F7605A7F4F48E050E0C8010E94DF
:101FC000D921085F1F4FCE14DF0441F7A296E1E14B
:101FD0000C946E2280EF0E940207812CFF24F39460
:101FE00065E4C62E62E0D62EEE24E3940E94D40669
:101FF000982E0E94D406B1E09B120BC08130F1F400
:10200000809144028823B9F1A5E4B2E0F50189E0AA
:1020100090CFF6019081981209C080914202E81693
:1020200058F48F2D892351F4912C8E2C8F2D80956F
:102030008923F601808308C0E812F6CFD6018C917F
:102040008F298C9399249394892D0E94E806E39418
:10205000FF0C29F4FFEFCF1ADF0AFF24F39481E489
:10206000E812C4CF80924202811002C06092430203
:1020700060924402C5CF1092420210924302E5E4FE
:10208000F2E088E0DF011D928A95E9F75BCF7720C7
:1020900009F4CAC080914E02811125C080914D0281
:1020A000811121C081E080934E027E01E9E1EE0EB4
:1020B000F11C48010E94B906882361F0C4010E9406
:1020C0001007882339F08091E8029091E902D70146
:1020D0008D939C93B2E0EB0EF11CE8E08E0E911C08
:1020E000CE14DF0439F72AE0462D60E0CE01829657
:1020F0000E94100680910B03882369F0EAA1EC0D81
:10210000FD2DF11D8081833009F47CC08F5F8083B9
:102110008AE080931A0340E150E060E270E08AEECA
:1021200092E00E94952280914E02882389F0EAA1D4
:10213000F0E0EE0FFF1FE00FF11F808D918D909367
:1021400013018093120140E063E08FEF0E94370C8F
:1021500040E064EE71E08AEE92E00E94BF028AA144
:102160008F5C8093F3025092F4024092F50240E0BB
:1021700060E180E80E9446088AA198E0899FF0010A
:102180001124E00FF11FAAEEB2E020E12150E1F5A9
:10219000F601E80FF11D40814F5F62ED71E086EFBF
:1021A00092E00E94BF0224E0482F60E286EF92E0B6
:1021B0000E94E40240E060E180EC0E9446088AEB65
:1021C00091E00E949A088823D1F081E08F8F38A295
:1021D00083E089A3B0920D01A0920C01B0920F018F
:1021E000A0920E01B0921101A092100148E150E0BE
:1021F0006FEF70E0C8010E94952210921A030E94AE
:102200001004BBCE108284CF908120FF09C092952C
:102210009F709F709A3030F0995C9C931196B6CF66
:102220003196F7CF905DF9CF46E06EE472E08AEE2A
:1022300092E00E94BF0241E0682F80E80E944608B9
:1022400040E150E060E270E08AEE92E00E94952268
:1022500040E061EC71E08AEE92E00E94BF02AACFFA
:10226000A1E0B0E0E6E3F1E10C94572200911603FF
:102270001091170319828AE080931A033FE0C32E5E
:10228000D12CAA24A394B12C5DE2952E6AE2862E6D
:102290001092E60280911A0381110BC081E08093B5
:1022A000E60210931703009316032196ECE00C94BA
:1022B00073222AE04FE060E0CE0101960E941006F2
:1022C00089819601281B3109750102C0EE0CFF1CA3
:1022D0002A95E2F780910B03882329F00E251F250C
:1022E0008AE080931A038CE00E94AB07E022F1227F
:1022F000E114F10409F040C0FF24F394EAEEF2E0A7
:1023000080E120E030E8A80142235323452BB9F1B6
:10231000808236952795815031968111F4CF40E027
:1023200060E180EC0E94460840E150E060E270E02D
:102330008AEE92E00E94952249814F5F6EE471E03F
:102340008AEE92E00E94BF02882339F04F2D63E4A9
:1023500071E086EF92E00E94BF0240E060E180E819
:102360000E944608898180540E94AB078FE00E943A
:10237000AB070E9410048CCF22E0F22EBFCF9082D8
:10238000C8CFA2E1B0E0E7ECF1E10C945C228B0154
:10239000882309F44BC0809154028823C9F182E05C
:1023A0000B3B180709F04CC085E0E2E5F1E0DE01E7
:1023B000129601900D928A95E1F732E5E32E31E015
:1023C000F32ED12CC8010E94E4018091FE0290916D
:1023D000FF02892BB1F08AEA89838CE0EEEFF2E00C
:1023E000DE01179601900D928A95E1F76FEF8D2D22
:1023F0000E948D0242E150E0BC01CE0101960E9494
:10240000D9210E94E204C7010E94CD040E94B006B7
:102410008CE0F80111928A95E9F74CE250E060E116
:1024200070E083EA92E00E94D92106C08AEB91E035
:102430000E949A088111AFCF6296E7E00C9478224F
:10244000E2E0033A1E0781F485E0E7E5F1E0DE0112
:10245000129601900D928A95E1F727E5E22E21E090
:10246000F22EDD24D394AECFF2E00F3A1F0781F6AF
:1024700085E0ECE5F1E0DE01129601900D928A957F
:10248000E1F78CE5E82E81E0F82E92E0D92E9ACF84
:10249000CF92DF92EF920F931F93CF93DF93E09150
:1024A000E202F091E302C281CF70C13069F4809101
:1024B000170311E0C3E081FF02C0C3E012E04BEB61
:1024C000C42E42E0D42E0DC013E033EAC32E32E016
:1024D000D32EC23031F0C2E014E05FEAC52E52E0E4
:1024E000D52E40E06AED70E08AEE92E00E94BF02D5
:1024F000D82F90E0412F6DEC70E086519D4F0E94E7
:10250000BF026D2F680F41E080E80E94C707C60137
:102510000E94E4014091FE025091FF0270E060E0F1
:1025200022E0E22E08EE21E088E80E94FA0C6C2FEF
:1025300089ED92E00E94B203813051F170F0823057
:10254000C1F1B60180E00E94C111DF91CF911F91CE
:102550000F91EF90DF90CF9008954091020350913A
:10256000030370E060E0EE24E39403EE21E880ECE6
:102570000E94FA0C409100035091010370E060E06A
:1025800092E0E92E01EE21E888EC0E94FA0CD9CF06
:1025900041E06EEF72E080EC0E9408084091040375
:1025A0005091050370E060E082E0E82E06EE21E045
:1025B000EBCF4091CD025091CE0270E060E0EE246E
:1025C000E39401EC21E080EC0E94FA0C42E060E030
:1025D00088EC0E94C707B5CFABE0B0E0E2EFF2E1D4
:1025E0000C9451228091160380FF1FC18091D50267
:1025F000882341F08CE380931A038091D90280955F
:102600008093D90280911A03882341F08091E102DE
:10261000882331F080911A03833310F41092D90289
:102620008BEB92E00E94E401E091E202F091E30280
:102630009091D9028281911169C28F7D82838091AC
:10264000E1028111F5C00E94E20410911C03609127
:102650001D038AEE92E00E942F038AE38093EC022E
:10266000612F8DEE92E00E942F0341E065E080E84B
:102670000E94C7078091E1028111EEC08091DB02C8
:102680008111EAC040910C0350910D0360910E033B
:1026900070910F0302E0E02E08EE20E088E80E942F
:1026A000FA0C8091E1028111E2C08091DB0281117C
:1026B000DEC041E06091650280EC0E94370C22E0B0
:1026C0004EE064E471E088EC0E94C80C8091DA026C
:1026D0008111A7C08091DB02882309F4A2C08091F8
:1026E000DC02882309F49DC01092DC020E94BD0721
:1026F0001B868AE080931A031FEF1092E6028091F6
:102700001A03811111C101E00093E6021F3F09F491
:1027100088C040E061E870E08AEE92E00E94BF026B
:1027200043E0682F80E80E9446081092240210922D
:102730002302109222021092210210922002109283
:102740001F0210921E02C0901203D0901303F12CAE
:10275000E12C28E0129FC0011124FC01E454FE4F3B
:102760005F016081718182819381A70196010E943E
:10277000152230931D0220931C02F501648175819E
:1027800086819781A70196010E94152230931B0232
:1027900020931A0240E150E06DE370E08AEE92E08F
:1027A0000E94952210921B0310920B031092D602E6
:1027B0001092DC021092D50210920A031092D402F9
:1027C00080E180931A0310924D0200931902FF24B6
:1027D000F3942AEAA22E3CE3E32E44E6B42E50E51D
:1027E000952E68E7862E7BE0772E212CE9EE3E2E93
:1027F000E4EA4E2EE5E35E2EFEE16F2E80911F028D
:1028000081110DC080911B03811109C080910B03C0
:10281000811105C080910A03882309F4ADC010928C
:1028200019022B96E2E10C946D228091D602E0CE43
:10283000809168029091690205966AE070E00E94BA
:102840000122AB0170E060E0EE24E39401EE20E0B1
:1028500080E80E94FA0C0ECF40916A0250916B0200
:1028600070E060E0B2E0EB2E02EE20E817CF66E009
:1028700087ED92E00E94B2038230B1F1A0F4882388
:1028800021F1813049F100916702006E40916E02A2
:1028900050916F0270E060E0A2E0EA2E21E088EC47
:1028A0000E94FA0C13CF8430A1F128F1853059F73A
:1028B00040910C0350910D0360910E0370910F0332
:1028C000EE24E39408EE20E020C041E06091650230
:1028D00080EC0E94370CD7CF21E04EE064E471E039
:1028E00080EC0E94C80CCFCF41E06EEF72E080EC2C
:1028F0000E940808C8CF4091FE025091FF0270E08C
:1029000060E0EE24E39408EE21E080EC0E94FA0CF3
:10291000BACF40916C0250916D0270E060E0EE24FD
:10292000E3940DEE22E0F1CF2AE043E060E0CE0137
:102930000B960E94100680910B03882319F01092C9
:102940001A031B8540E06EEA70E08AEE92E00E9476
:10295000BF02F82E4B854F5F90E060E970E0865132
:102960009D4F0E94BF026F2D680F43E080E80E94D8
:1029700046080E941004C1CE80911A03882391F06A
:102980008091180281110EC080914D02811136CFC5
:1029900089E180934D0260911A0343E080EC0E942C
:1029A00046082CCF80911A03882309F449C08091EE
:1029B000230281110AC080911E02811106C060921B
:1029C0001A03F0921E020E94BD078091180240E097
:1029D00050E0BA018823C9F0C0901602D0901702C7
:1029E000209112033091130350E040E0C201B10185
:1029F0000E941522CA01B901960150E040E00E94F0
:102A00001522BA01A901662777278AEE92E00E9473
:102A1000F50201E021E04EE0682F80EC0E94380BC7
:102A2000609121027091220290E080E042E00E94D9
:102A3000D20302E029E04EE0682F88EC0E94380BB8
:102A400080911A03882359F080912302811107C0D5
:102A500070924D0280914D028111FCCFCFCE8091BA
:102A60002302882339F080912002811103C0F09263
:102A70002002C4CE1092190280911A03811115C050
:102A800040E069E770E08AEE92E00E94BF0243E016
:102A9000682F80EC0E944608F2E0F0930B018AE078
:102AA0000E94FD03F0921F02A9CE80915402882358
:102AB00099F3A98280912102909122029A878987B5
:102AC0001130E1F0C0F01230E1F01330E1F00E947B
:102AD000E204CE0102960E94CD046FEF83E00E94D3
:102AE0008D024AE050E0BC01CE0101960E94D9213E
:102AF0000E94B006D1CF1F82B886E9CF1F82E88638
:102B0000E6CFEF82F9CF9F828886E1CF8062828311
:102B10008091D302811106C08091E7028B3110F4BD
:102B20001092E7022CE343E060E088ED92E00E941F
:102B3000100680910B03882319F08CE380931A030D
:102B40008091D802813009F469C0A0F08230D1F1BF
:102B5000833009F49EC010921B0310920B03109255
:102B6000D6021092DC021092D50210920A03109243
:102B7000D40257CE41E06091650280E80E94370C94
:102B800022E04EE064E471E088E80E94C80C4091C5
:102B900000035091010370E060E0EE24E39401EE45
:102BA00021E880EC0E94FA0C40910203509103034B
:102BB00070E060E092E0E92E03EE21E888EC0E94EC
:102BC000FA0CC9CF8091DC02882399F01092DC02C4
:102BD0008091DB02811106C08091DA02811102C06E
:102BE0000E946E0F8CE380931A0381E08093E602CB
:102BF000B2CF42E060EC80E80E94370C42E060E037
:102C000088E80E94C70742E061EC80EC0E94370C24
:102C100042E062EA88EC0E94370C9DCF8091DC0292
:102C20008823A9F08AEB91E00E949A08882361F03A
:102C3000809144019091450190934901809348010E
:102C400090934701809346018CE380931A0340E000
:102C500065EC70E08AEE92E00E94BF0241E0682FCE
:102C600080E80E94C70722E04EE064E471E088E853
:102C70000E94C80C21E04BE066E471E080EC0E9409
:102C8000C80C22E04CE068E471E088EC0E94C80CBB
:102C900062CF8091DC02882369F08AEB91E00E9488
:102CA0009A08882321F0109279020E9443058CE350
:102CB00080931A0340E06AEB70E08AEE92E00E9493
:102CC000BF0241E0682F80E80E94460880912502FB
:102CD000882301F1809170029091710205966AE05B
:102CE00070E00E940122AB0170E060E0EE24E3940A
:102CF00001EE20E080EC0E94FA0C00916602006E6A
:102D0000409172025091730270E060E082E0E82E20
:102D100021E054CF40E065EB70E08AEE92E00E9443
:102D2000BF02182F01E021E04EE0682F80EC0E94E6
:102D3000380B02E023E04EE0612F88EC0E94380B54
:102D40000ACF1F920F920FB60F9211242F933F9329
:102D50004F935F936F937F938F939F93AF93BF93A3
:102D6000EF93FF93809178009091790090931502F2
:102D70008093140280E091E00E942A06FF91EF9177
:102D8000BF91AF919F918F917F916F915F914F9183
:102D90003F912F910F900FBE0F901F9018951F928B
:102DA0000F920FB60F9211242F933F934F935F937F
:102DB0006F937F938F939F93AF93BF93EF93FF9303
:102DC00080911302811119C10E9484060E94690634
:102DD00080911202811162C19091160380911102BB
:102DE000292F217090FD0CC131990AC1853618F444
:102DF0008F5F8093110280911102843629F481E063
:102E00008093D6028093100280910E02309903C104
:102E1000222329F0811103C09EE190930D0290912D
:102E20000D02992319F0915090930D02853618F4F4
:102E30008F5F80930E0280910E02843629F481E028
:102E40008093DC028093100280910A0221111BC141
:102E5000329919C1853618F48F5F80930A028091E8
:102E60000A02843629F481E08093D4028093100210
:102E700090910F0280910B02911106C09091100267
:102E8000911102C0882399F090910F02992309F4BF
:102E90000BC110920B0110920F02109210028823A6
:102EA00009F40BC110920B0281E08093E60280913D
:102EB0000902882309F405C18091080291E0980F66
:102EC00090930802893139F481E08093E6021092F0
:102ED0001A038093E50280910A01815009F4F4C03D
:102EE00080930A0180914D02882329F080914D0240
:102EF000815080934D0280910202882349F0809195
:102F00002102909122020196909322028093210245
:102F100080910B018F3F09F18091170385FD04C05B
:102F200080910B018230B1F491E0909301021092F4
:102F3000000280910B01813009F4A2C2823009F4B1
:102F4000A3C2811107C09093FF0188E08093FE0126
:102F50001092FD018FEF80930B0180910102882375
:102F6000D9F180910002811109C081E080930002B3
:102F70008093FC018091FF018093FB018091FC0113
:102F8000882351F01092FC018091FB01811186C2CF
:102F900010920102109200028091FA01882359F0E8
:102FA0008091F901811106C01092FA018091FD0112
:102FB0008093F9015E9A8091FA01811108C0809195
:102FC000F901811103C081E08093FC015E9880913A
:102FD000F90181508093F901FF91EF91BF91AF9179
:102FE0009F918F917F916F915F914F913F912F9121
:102FF0000F900FBE0F901F90189510921302E8CEFD
:103000008550803128F481E080931B0380930F0268
:1030100010921102F9CE222369F1843638F0109211
:103020000D0210920C0210920E020ECF85508031CC
:1030300038F480910C028F5F80930C0210920B0188
:1030400090910D0280910C02992331F0823071F43D
:1030500081E08093D50204C0813029F480930B0372
:1030600080930B02DCCF8230D1F6F2CF9150909357
:103070000D02D9CF85508031B0F681E080930B03EB
:1030800080930F02D0CF8550803128F481E0809367
:103090000A0380930F0210920A02EACE8091120274
:1030A000815080931202E4CE90911002992309F48A
:1030B000F2CE91E090930B01EECE8FE0809312025E
:1030C000F3CE1092080207CF84E680930A0181E0D4
:1030D0008093E6028091DB02811105C08091DA02C3
:1030E000882309F47AC08091840290918502A0918E
:1030F0008602B09187020196A11DB11D80938402C2
:1031000090938502A0938602B09387028091AB02D0
:103110009091AC02A091AD02B091AE020196A11DBA
:10312000B11D8093AB029093AC02A093AD02B0931B
:10313000AE028091B7029091B802A091B902B0910D
:10314000BA020196A11DB11D8093B7029093B802F7
:10315000A093B902B093BA028091C3029091C402C5
:10316000A091C502B091C6020196A11DB11D809328
:10317000C3029093C402A093C502B093C60280918B
:103180007902893090F4409180025091810220911F
:103190008202309183024217530708F0F8C04F5F54
:1031A0005F4F5093810240938002609106027091BC
:1031B00007028AE792E00E94A50590935702809348
:1031C0005602609104027091050284E792E00E9429
:1031D000A50590935902809358028091170386FFAA
:1031E00018C1609106027091070285E091E00E948B
:1031F000A50590936202809361028091DB028111A8
:1032000004C01092620210926102109207021092A2
:1032100006028091040290910502892B09F48EC068
:1032200020910402309105028091100390911103C6
:10323000280F391F3093110320931003809112033C
:10324000909113032817390708F442C0281B390B43
:10325000309311032093100340910C0350910D0300
:1032600060910E0370910F034F5F5F4F6F4F7F4F61
:1032700040930C0350930D0360930E0370930F0360
:1032800020918A0230918B022F5F3F4F30938B0247
:1032900020938A0220919002309191022F5F3F4F3C
:1032A00030939102209390022091960230919702E0
:1032B0002F5F3F4F309397022093960220919C02FC
:1032C00030919D022F5F3F4F30939D0220939C02CF
:1032D00020910402309105024091A5025091A6026E
:1032E000240F351F2817390708F098C03093A6021D
:1032F0002093A50220910402309105024091B10271
:103300005091B202240F351F2817390708F097C0D3
:103310003093B2022093B102209104023091050251
:103320004091BD025091BE02240F351F2817390766
:1033300008F096C03093BE022093BD028091040233
:1033400090910502909364028093630210920502AB
:10335000109204028091E702882329F08091E7020D
:1033600081508093E70280910302882329F08091A5
:10337000030281508093030280911A03882309F489
:10338000B1CD80911A03815080931A03ABCD9AEF8F
:10339000980F933008F009CF91E0909325028F5F4A
:1033A0008093790280937E028093780280917402E8
:1033B00090917502A0917602B0917702880F991FC3
:1033C000AA1FBB1F8093740290937502A09376028C
:1033D000B093770280917A0290917B02A0917C0257
:1033E000B0917D02880F991FAA1FBB1F80937A029C
:1033F00090937B02A0937C02B0937D021092810295
:1034000010928002220F331F309383022093820296
:10341000CCCE8091060290910702EBCE281B390B8F
:103420003093A6022093A5022091A3023091A4021A
:103430002F5F3F4F3093A4022093A3025BCF281B42
:10344000390B3093B2022093B1022091AF02309138
:10345000B0022F5F3F4F3093B0022093AF025CCF9A
:10346000281B390B3093BE022093BD028091BB0212
:103470009091BC0201969093BC028093BB025ECFF8
:103480008093FF0188E262CD83E08093FF018EE1AB
:103490008093FE0184E18093FD015CCD8150809397
:1034A000FB0181E08093FA018091FE018093F90194
:1034B00073CD1F920F920FB60F9211248F939F938B
:1034C00080910602909107020196909307028093E3
:1034D00006028091A70281508093A702811118C033
:1034E000809153028093A7028091A8028F5F8093FE
:1034F000A80290911403891758F01092A8028091A5
:10350000A9029091AA0201969093AA028093A9021F
:103510008091B30281508093B302811118C08091D1
:1035200053028093B3028091B4028F5F8093B40200
:1035300090911403891758F01092B4028091B5024B
:103540009091B60201969093B6028093B502809155
:10355000BF0281508093BF02811118C08091530235
:103560008093BF028091C0028F5F8093C0029091D0
:103570001403891758F01092C0028091C1029091F3
:10358000C20201969093C2028093C1029F918F91D3
:103590000F900FBE0F901F9018951F920F920FB6AD
:1035A0000F9211248F939F93EF93FF9380911603B3
:1035B00080FF3BC08091F801880F880F8093F8014D
:1035C000319B03C082608093F801329B05C08091DB
:1035D000F80181608093F8019091F8019F709093B9
:1035E000F801E92FF0E0E257FE4F80818823E9F0EF
:1035F0008091F7018295807F892B8093F7019091CC
:103600001202911112C08B32C9F481E080930A0337
:1036100080911B03811104C080910A03882329F043
:1036200081E080930F0210920B01FF91EF919F9127
:103630008F910F900FBE0F901F901895873141F713
:1036400081E080931B03E4CF1F920F920FB60F927D
:1036500011242F933F934F935F936F937F938F9397
:103660009F93AF93BF93EF93FF93809184009091CA
:1036700085009093F6018093F501B59B12C02091CF
:103680008400309185008091F5019091F601281712
:10369000390738F00E9484060E94690681E0809311
:1036A000130219996DC08091EE01811121C082E051
:1036B00085BD81E08093EE018093DB028093CF0291
:1036C0009091ED01911139C08093ED011092E901C3
:1036D0001092EA011092EB011092EC018091F50139
:1036E0009091F6019093E8018093E7011092E60132
:1036F000189BCAC08091F4018111B2C021E02093CF
:10370000F4012093DA0280911902882309F4B9C0E8
:103710008091240281115AC0209324028091F501E6
:103720009091F6019093F3018093F2011092F101D0
:103730001092F0011092EF018AC0E091F501F09132
:10374000F6014091E9015091EA016091EB0170911D
:10375000EC012091E7013091E8014E0F5F1F611DE0
:10376000711D421B530B6109710940935C02509318
:103770005D0260935E0270935F0280936002A6CF49
:103780008091EE01882309F4B3CF15BC1092EE01AD
:103790008091ED01882309F4ABCF8091E9019091EC
:1037A000EA01A091EB01B091EC012091F50130917B
:1037B000F6014091E7015091E801841B950B820FBF
:1037C000931F90935B0280935A0292CF8091F001F5
:1037D0009091F1016091F5017091F6014091F20133
:1037E0005091F301860F971F841B950B909317023E
:1037F000809316022093180280910202811114C056
:10380000209116023091170280911C0290911D02A6
:103810008217930730F480911C0290911D02892B2E
:1038200019F481E080930202209116023091170270
:1038300080911A0290911B028217930708F46ECFB1
:1038400081E080932302109202021092190280916B
:103850000402909105020196909305028093040260
:10386000FF91EF91BF91AF919F918F917F916F9158
:103870005F914F913F912F910F900FBE0F901F902E
:10388000189510922402E3CF1092F401E9CFAAE038
:10389000B0E0EDE4FCE10C94512219868CE184B98E
:1038A00083E085B917B897E098B92FE62AB920E2E6
:1038B0002BB932E034BD15BC16BC45E647BD18BC7B
:1038C0001092800048E14093810010928500109290
:1038D000840049E04093870043EC409386001092B7
:1038E00089001092880010928B0010928A00309309
:1038F0006E0020936F00109269001DBA80936B00D8
:1039000026E020936C0010926D00809368008BBBC2
:103910001092C10080E880BF10927F0010927E005C
:1039200083E480937C008FEA80937A0090937B00FD
:103930001CBC1092B9008CE08093B800309B55C13C
:103940004EE050E070E060E08CE093E00E94C9211E
:103950004CE250E060E170E083EA92E00E94C9210D
:103960004EE150E060E470E084E892E00E94C921FA
:1039700040E150E068EB70E084E792E00E94C921EA
:1039800080915502813009F056C1809116038E7FD7
:10399000809316032A9A2C9A5FEF80E792E05150A9
:1039A00080409040E1F700C0000018E080E0143053
:1039B00008F480E30E944403133008F443C1EFE0AD
:1039C000F0E43197F1F700C00000115079F782E080
:1039D0000E94AB0788E20E94AB0788E00E94AB0719
:1039E00087E10E94AB070E94BD078CE00E94AB07F5
:1039F00086E00E94AB0708E710E088E8800F80644B
:103A00000E94AB0748E050E0B801CE0101960E9449
:103A1000C92120E048E068E0CE0101960E946E07CF
:103A2000085F1F4F083B110541F70E944D030E949C
:103A3000E20448E050E060E071E0CE0101960E94AF
:103A4000C92148E050E06CED71E0CE0101960E9482
:103A50008822892B09F4FBC088E0ECEDF1E0DE015F
:103A6000119601900D928A95E1F748E050E060E0F0
:103A700071E0CE0101960E94D9210E94E20482E504
:103A800091E00E94CD0487E591E00E94CD048CE591
:103A900091E00E94CD040E94B00648E050E060E052
:103AA00071E0CE0101960E94C92148E050E06CED22
:103AB00071E0CE0101960E948822892B09F4C7C0CB
:103AC0001092540280915402882341F048E150E062
:103AD00068E071E08AE491E00E94C921809154027B
:103AE000811105C0809143018068809343018091DA
:103AF000220387FFC3C01091CB02809121030E9453
:103B00003903F82E812F0E943903F81AF7FCA5C05B
:103B100091E09F150CF44BC060911F03809120032E
:103B20000E9486038C016091C9028091CA020E94A2
:103B3000860330E020E0FF2011F02DE631E0F801AF
:103B4000E81BF90BCF01820F931F97FD86C08230CF
:103B500091056CF59091170391FD7DC000E08111F6
:103B600008E1F090C80280911D030E943903182FCC
:103B70008F2D0E943903010F081B07FD6EC0F090C6
:103B8000C70280911C030E943903182F8F2D0E94B9
:103B90003903181B812F082E000C990BFCE30F0230
:103BA000800D911D1124893791050CF456C06BEBE3
:103BB00072E081E00E94C1111092CE021092CD02FB
:103BC0004CC0EFE3FCE93197F1F700C000008150F1
:103BD00069F480915502823048F58F5F80935502D9
:103BE00010E080915502181788F086E9309BE9CFE4
:103BF000309BA4CE80915502882309F49FCE0E9469
:103C0000360D0E94360D0E94360D98CE6FEF70E093
:103C10008FE00E94210DFFEF22E547E0F1502040A8
:103C20004040E1F700C000001F5FDBCF309BFECFBC
:103C300010925502DACF823009F0ACCE8091160393
:103C40008160A6CE8FE891E00197F1F7BCCE81E0CC
:103C50008093540237CF8111AACF8091170382FF3E
:103C60000DC08091CC02882349F0909120038917E0
:103C700029F06FEA72E081E00E94C1110E944305C1
:103C800080918100887F836080938100789481E0B7
:103C90008093E7028091170384FF5DC0E090880263
:103CA000F090890260918402709185028091860271
:103CB0009091870220E13EE040E050E00E94152212
:103CC000E4E8F2E010E090E080E068EE73E0A1E06C
:103CD000B0E0811165C1E114F10421F02E153F051A
:103CE00008F01160019636968530910591F700E055
:103CF00082E0F82E0F5F10FF2BC0F0920B0140E026
:103D00006AE372E08AEE92E00E94BF0243E0682F0D
:103D100080E80E944608402F6EEF71E08AEE92E044
:103D20000E94BF0243E0682F80EC0E94460883E0B7
:103D30000E94FD0310921B0310920B031092D602F7
:103D40001092DC021092D50210920A031092D40253
:103D50001695053079F68091440190914501892BA3
:103D600021F48091E6028823B1F381E08093E6029A
:103D7000612C412C1A8611E0A4E07A2E03E0B1E810
:103D80002B2E322C8091E602882309F4B0C01092C9
:103D9000E6022091630230916402809012039090B9
:103DA0001303B12CA12CA0EABCE80E943722A50184
:103DB00094010E94152269013093690220936802E0
:103DC0008091CD029091CE028217930720F4309318
:103DD000CE022093CD02809119038F702AE0829F3A
:103DE00070011124609163027091640280916102FC
:103DF0009091620241E0CE14DF0408F440E00E949A
:103E00009C0490936F0280936E02809160025090A8
:103E100017038111DDC010926B0210926A0280912B
:103E20005A0290915B02880F991F880F991F6AE0D0
:103E300070E00E94012270936D0260936C02809189
:103E4000DA02882329F0C114D10411F41092DA02A5
:103E50002091580230915902A0EABCE80E94372212
:103E6000A50194010E9415225901309371022093FB
:103E7000700260915802709159028091560290919F
:103E8000570241E0AE14BF0408F440E00E949C04D5
:103E90009093730280937202CE14DF0408F4BDC0C5
:103EA000009367021093E102AE14BF0408F4BAC095
:103EB0000093660281E550FE80E580936502809163
:103EC000A3029091A402813D974028F063EA72E03A
:103ED00081E00E94C1118091AF029091B0028137C0
:103EE000974128F06FEA72E081E00E94C111809151
:103EF000E502882309F49CC00E94BD07F8948091D4
:103F0000CF02882331F00E94E20487EC92E00E9405
:103F1000CD048091170382FF88C08091CF02811168
:103F200004C08091CC02811104C080912003809351
:103F3000CC028091D7029091D802292F2295207F20
:103F4000909119039F70922B909319039091A20264
:103F50009295907F8F70892B809318034EE050E0EC
:103F600070E060E08CE093E00E94D9214CE250E0E8
:103F700060E170E083EA92E00E94D9214EE150E0D6
:103F800060E470E084E892E00E94D92140E150E0D2
:103F900068EB70E084E792E00E94D9215D98FFCF42
:103FA0005281552309F49ECE569F6001579FD00C35
:103FB0001124A080B180AC14BD0408F493CE6D012F
:103FC000082E02C0CC0CDD1C0A94E2F71C298ACE14
:103FD00060E873EC89EC91E057FE04C060EC71EE90
:103FE00084EE90E020915C0230915D0240915E028F
:103FF00050915F020E941522C90105966AE070E0A7
:104000000E9401224AE0469FC001479F900D112463
:1040100090936B0280936A0202CF709267021092B3
:10402000E10242CF7092660245CF1092CC0281CF5E
:104030008091E702811112C08091D3028111CCC01E
:104040001093D3021093E7020E9462078091160337
:1040500087FF04C06CE38EE00E9488048985482FA6
:1040600050E0809FF00111242091E402211139C118
:10407000E15DFE4F3091E102928197FD26C1311141
:1040800022C1F093E302E093E202898746E0F42E36
:104090008091DE0281114AC18091DD0281111CC034
:1040A0008091DC028823C1F0211131C18091DB02B3
:1040B000811112C08091DA0281110EC0E091E202FA
:1040C000F091E30282818073803131F44984698602
:1040D0001093E4021093DE028091DE02811161C030
:1040E0008091DD02811125C1D984DA868091E402B4
:1040F000811107C0E091E202F091E302828185FD27
:1041000007C02AE04F2D60E0CE0109960E941006FC
:104110008985CA848C111093DD028091DD028111A2
:1041200040C08091E402882309F427C140E062E4A2
:1041300072E08AEE92E00E94BF0241E0682F80E8C0
:104140000E944608E090DF02F090E002F7018281D1
:1041500082958F708F5F0E94C203D82EF701428133
:104160004F7090E06EE472E086519D4F0E94BF0256
:104170006D2D680F41E080EC0E94460880910B0392
:10418000882379F010920B030E94BD07FAE0F093A8
:104190001A031092E60280911A038111CFC0109386
:1041A000E60210921B0310920B031092D60210929B
:1041B000DC021092D50210920A031092D402909160
:1041C000DE028091DD022091E6022111DBCD91110A
:1041D000D9CD8823C1F3D6CD1092D302FDE1F0935F
:1041E000E7026CE0A62E61E0B62E70EDE72E72E0DD
:1041F000F72EE0E6CE2ED12C48E050E0B601CE01FD
:1042000001960E94C9210E94B906811107C0F701D9
:104210008081853098F48F5F808313C0CE01019632
:104220000E941007882399F38091E8029091E90297
:10423000F50191838083F701108203C0F50131827B
:104240002082F8E0CF0ED11C22E0A20EB11C4FEF6D
:10425000E41AF40A58E7C516D10471F680911603E2
:1042600087FFFCCE80ED0E945904811116C081E1C8
:104270000E94300481ED0E94590480E00E944304B2
:10428000F82E81E00E94430490E09C012F73232BC1
:1042900039F030920F0120920E010E945104DECEBF
:1042A0009F2954E0959587955A95E1F790930F01D2
:1042B00080930E01F2CF863021F08F5F0CC086E034
:1042C0000AC080E008C096FDDCCECA848C1598F741
:1042D0008823A9F38150809FF0011124E15DFE4FF6
:1042E000CBCEEC5EFE4FF093E002E093DF02FA01EA
:1042F000EE0FFF1FE40FF51FEA5EFE4F8295807FF1
:1043000090819F70892B808338E0F32EC1CE698421
:1043100049864EE050E070E060E08CE093E00E945F
:10432000D9210E944D031092E402D4CE1092DE02F5
:10433000D3CE1092D9021092DD02EFCEE091DF02CF
:10434000F091E00242814F706EE472E08AEE92E0FA
:104350000E94BF0241E0682F80E80E944608E09179
:10436000DF02F091E0020190F081E02D09958CE0F0
:104370000E94AB070E9410040CCFE091E202F09182
:10438000E3020190F081E02D09958CE00E94AB07DB
:1043900008CFDC01CB01FC01F999FECF06C0F2BDCC
:1043A000E1BDF89A319600B40D9241505040B8F7F3
:1043B0000895DC01CB0103C02D910E94E4214150FE
:1043C0005040D0F70895262FF999FECF1FBA92BD1D
:1043D00081BD20BD0FB6F894FA9AF99A0FBE0196E6
:1043E0000895DB018F939F930E944622BF91AF9166
:1043F000A29F800D911DA39F900DB29F900D11243F
:104400000895AA1BBB1B51E107C0AA1FBB1FA6171B
:10441000B70710F0A61BB70B881F991F5A95A9F76D
:1044200080959095BC01CD010895A1E21A2EAA1B9A
:10443000BB1BFD010DC0AA1FBB1FEE1FFF1FA21754
:10444000B307E407F50720F0A21BB30BE40BF50B51
:10445000661F771F881F991F1A9469F760957095DA
:10446000809590959B01AC01BD01CF010895A29F5D
:10447000B001B39FC001A39F700D811D1124911D38
:10448000B29F700D811D1124911D08950E94372245
:10449000A59F900DB49F900DA49F800D911D112498
:1044A00008952F923F924F925F926F927F928F92D8
:1044B0009F92AF92BF92CF92DF92EF92FF920F93B3
:1044C0001F93CF93DF93CDB7DEB7CA1BDB0B0FB6BD
:1044D000F894DEBF0FBECDBF09942A88398848887A
:1044E0005F846E847D848C849B84AA84B984C88410
:1044F000DF80EE80FD800C811B81AA81B981CE0F07
:10450000D11D0FB6F894DEBF0FBECDBFED010895EB
:10451000FB01DC0104C08D910190801921F4415010
:104520005040C8F7881B990B0895DC0101C06D93BA
:0C45300041505040E0F70895F894FFCF90
:10453C000000000081000000000164FF8181818186
:10454C0081818181290C01410A022C0A03EC0C04A3
:10455C00301105180C086E0F06B40B07840809EC13
:10456C001250481241481202481203540A04CF0850
:10457C0005410D060000FF030000FF14FF0CFF06B1
:10458C00FF0500000000000000000000000000001B
:10459C00000000001F003B005A0078009700B50097
:1045AC00D400F300110130014E016D010602020529
:1045BC0000030501040602048181818181810001CF
:1045CC0001000100000101000001000101001D03B8
:1045DC000017811C03003B841F03011F892003016A
:1045EC000C8C210317218F1E030107C00000000053
:1045FC004054890000000000C0E1E400C0E1E40088
:10460C004054890050A9AB00E07072004A4F5552DB
:06461C0054524950000059
:00000001FF
