:040000008231E52A3A
:100008007E1480310B1C2A2927009601200017082E
:10001800FC001608FB007C081706031917281708A8
:10002800FC001608FB00131F1D286A30FB07183058
:10003800FC3D8D1B6528711B7928210095127117CD
:10004800F117F01401302500A4070030A53DA63DA6
:10005800A73D2300CE1B372801302500A407003018
:10006800A53DA63DA73D711A442871162300A0019D
:10007800A101A2017C08AA007B08A900C201792875
:100088007B082400D0007C08D100D2012300290875
:10009800F8002A08F900FA0178082400D002790843
:1000A800D13B7A08D23B230020082400D007230044
:1000B80021082400D13D230022082400D23DF11656
:1000C8003A28711F7928210095167113711E792815
:1000D8007C082300EA007B08E9002908E9022A08CD
:1000E800EA3B2008E9072108EA3D20000D1F2929DD
:1000F800F2182A29F2147214701FC62871188F2852
:1001080071147C082300B6007B08B500B301B40164
:100118002200DB01C728230034082200D80023006E
:1001280033082200D700230035082200D702230015
:1001380036082200D83B7B08D7077C08D83D7016C4
:10014800F01AB628580823003C02031DAF282200E5
:10015800570823003B020318B5283B083C04031D3D
:10016800B628F0162200580823003A02031DC028BA
:100178002200570823003902031C8528F017F012C3
:100188007013C72871102300B10A0319B20AC70AED
:100198000319C80A4A084802031DD4284908470217
:1001A800031CEB280130C701C801C3070030C43D58
:1001B800C53DC63D2500AA0A0319AB0AB20A0319B0
:1001C800B30ABA0A0319BB0AC20A0319C30A2400EC
:1001D800A60A0319A70A23004A0824002702031DB8
:1001E800F9282300490824002602031C0029A60137
:1001F800A701A40A0319A50AB20A0319B30A23001E
:100208004A0824003302031D0D292300490824004D
:100218003202031C1429B201B301B00A0319B10A4E
:10022800BE0A0319BF0A23004A0824003F02031D1F
:1002380021292300490824003E02031C2A29BE0163
:10024800BF01BC0A0319BD0A2A29F2100B1D652932
:100258002300AF0A0319B00A2400A80B4229220080
:1002680059082400A80023004B082400A90A2902E1
:10027800031C4229A901AA0A0319AB0AB40B532982
:10028800220059082400B40023004B082400B50AB2
:100298003502031C5329B501B60A0319B70AC00B66
:1002A8006429220059082400C00023004B082400B8
:1002B800C10A4102031C6429C101C20A0319C30A05
:1002C8000B112000131FD02A711E83292300C20A94
:1002D8003C304206031D7929711221009516F1124E
:1002E8002300E901EA01F11383296A30A0071830D5
:1002F80003181930A107003003180130A207711C38
:1003080093292200DB0A0A305B06031D8E2971102F
:10031800701293296A302300B3071830B43D2200C5
:100328005D08031DCB2920000D19A62965305F0241
:1003380003189F29DF0A64305F06031DB1295D1584
:10034800F215B12905305F02031CB02933305F0272
:100358000318B029F2177216DF018D19BF2965300D
:100368005E020318B829DE0A64305E06031DCC2934
:10037800F216F215CC2905305E02031CC929333068
:100388005E020318C92972177216DE01CC29DD0333
:10039800721AD029F21DDE29721ED5292000E80123
:1003A800D82901302000E8007212F21172150F30BE
:1003B8002200DD002300EE0B4F2A6430EE00721598
:1003C800F11BE829721C1B2A093061020318FB295A
:1003D80060085E02031DF2295F085D020318F82910
:1003E800DD0A0319DE0AFB29993131218031D83021
:1003F800F3000130F4003008F6002F08F5008831CA
:100408007A20803174082300A6007308A500D33031
:10041800F3000130F4003208F6003108F5008831A5
:100428007A20803174082300A8007308A7003008D8
:10043800AC002F08AB00AF01B0013208AE003108A4
:10044800AD00B101B201F11B2B2A721C452A013003
:100458002500A0070030A13DA23DA33D01302400A6
:10046800AC070030AD3DAE3DAF3D0130B8070030C0
:10047800B93DBA3DBB3D0130C4070030C53DC63D5E
:10048800C73D20006108031DE1036208031DE20364
:100498007D08031DFD0320006308031DE303F01E10
:1004A800592A2300B70A0319B80A711D652A2200C0
:1004B800DC0A1A305C06031D672A7215FD01F11467
:1004C800672A2200DC012000680A0319822A230017
:1004D800CE1A732A023020006806031D7F2A701482
:1004E80020005D106808680768074C3E2200DA00A3
:1004F8002300BD01BD0A2000E801E803701CCE2AD4
:100508002300BD0BCE2A0A30BD0020005D18972AB3
:100518005D14DC1522005A088600033087000108A4
:10052800013E2300BF002000DC1DAD2ADC112300A2
:10053800BF030319AA2A20005C1622005A08860065
:1005480003308700413F2300BE00AD2A7010200011
:100558005D1020005C1EC22A23003E08031DC02A2D
:1005680020005C1222005A08023E860003308700F1
:100578000108FF3E2300BE0020000E145C1ACC2A9E
:1005880023003E08031DCA2A2000DC1520000E1097
:100598002300BE0320001313111FE32A21001C08A7
:1005A8002400A100A00121001B082400A0045B3046
:1005B800F7005A088A0059080A00823111137E1080
:1005C80009008231E72AFC308400983085006830C1
:1005D80086000030870007308831002082312300F0
:1005E8006430EE0003308400993085005330860073
:1005F800023087001630883100208231193084009B
:1006080099308500D2308600023087001830883152
:1006180000208231A830840099308500203086007F
:10062800033087003530883100208231F001F10134
:10063800F201FB01FC01FD0120005E30DC01DD015F
:100648008400003085000A309831F6208231553018
:100658008400013085001B309831F6208231A030AB
:100668008400013085004E309831F62082312030E8
:1006780084000230850033309831F6208231A03072
:1006880084000230850032309831F62082317E10A5
:1006980020004E2B2100DF01E001893157218231F2
:1006A800200018148B17E10123004E1E612BFF2335
:1006B8002100DE008831062082310F278231662B27
:1006C80072196A2B69086A040319642B7211F11CE8
:1006D800702B9A3177228231F21E992B20005C1CF4
:1006E800F11B872B7218872B22006F08031D872B9D
:1006F8006F082100DF0060082200EF0020005C1472
:1007080027278231992B20005C1C992B22006F0827
:100718002100E0005F082200EF0020005C1027277E
:100728008231D62699317621823120005C18AD2B92
:10073800F11DA02B0230A12B07302100E100200081
:100748006108031DAA2B9131C121823154248231C1
:10075800B02B08302100E10022006F082300C00000
:100768006F302000B2000130B300B40121006108ED
:100778002000B50097318D278231230040082200E0
:100788006F060319CB2B2300ED010F2782312000C0
:100798005C1CD32B22006F08EF248231FC2BF11D47
:1007A800DA2B033022006F020318EF012000DC135C
:1007B80022006F082100DC005130DD01DC35DD0D41
:1007C8005C078400B2305D3D8500013F8A00003F30
:1007D8000A0083312000DC1FF92B073022006F0646
:1007E800031DF82BEF01F92BEF0A2000DC1BD32B9C
:1007F80072196A2BFC2B2000CF01D1015108031D6F
:10080800232C25002808290403194C2CAE312E2648
:1008180082312500290820004C02031D172C2500D1
:10082800280820004B02031C4C2C0130CD00510A33
:100838001E2CCD35890B1D2C4D08CF044C2C51088E
:10084800090709070907A23ED000023E86000230C8
:100858008700010803194C2C5008023E8600010845
:10086800B900E830BA01BB000330BC0095317725E8
:1008780082315008860002308700403FCD00413F5A
:10088800CE003A084E02031D172C39084D02172CCA
:1008980020000530D10A5102031C022C4F08080021
:1008A80023002E082000CC0023002D082000CB00B8
:1008B800162682314C082200D60020004B08220060
:1008C800D50023001E279531772582313A0822006A
:1008D8005602031D732C2000390822005502031C00
:1008E800772CF115782CF1112200560824004E02BD
:1008F800031D822C2200550824004D0203188C2C5D
:10090800220056082400CE00220055082400CD00FD
:10091800721C932C220055085604031972100730D4
:1009280024002502D13003192402031CA12C2430F1
:100938002000D4000130D424823117302400310241
:10094800713003193002031CAE2C8B3166238231BF
:10095800D4248231230028082000CC002300270853
:100968002000CB00162682314C082300A40020006A
:100978004B082300A3001E279531772582313A08BA
:1009880023002402031DCC2C200039082300230255
:10099800031CD12C2000DC1608002000DC12080003
:1009A800D5005508031DE12CAF31F6278231963169
:1009B800EA268231003A0319080054082D2620003F
:1009C8005408B2000230B3000C30B401B5009731BE
:1009D80047278231EB2E2100D800D81FF52C013093
:1009E800F62C0030D7000F30D80558082000B90081
:1009F8000330BA01BB00BC019531772582313A0832
:100A0800850039088400F1308407B130853D003F06
:100A18002100D900013FDA00023FDB005708031D1F
:100A28003E2D80308E31C526823199302000B400A9
:100A3800B230B5005F30B60194318C2482318F31E9
:100A48007E2782318E31D3268231C0308E31C52641
:100A58008231210058082C27823100301527613057
:100A680094318C248231023E8F317E2782318E313F
:100A7800D3268231721B442D210057080319080020
:100A88007213E22582310530FD007D0803196A2DB5
:100A9800721180308E31C5268231003015275F30C3
:100AA80094318C2482318F317E2782318E31D32646
:100AB80082310130D93E86008701413F8A00403F9C
:100AC8000A0085319F31C1278231492D72150800EE
:100AD8008E148E1502302000BA004530B900A930B6
:100AE800890B742DB90B742DBA0B742D0032083094
:100AF8002000C600043046020318852D3030C3009C
:100B0800862DC301C40143088F3167278231033022
:100B18004602031C992D1B302000B9009E30890B1A
:100B2800932DB90B932D00009D2DA630890B9A2D7E
:100B380000322000C603031D7E2D02308E31C526EB
:100B4800823128308E31C526823108308E31C52653
:100B5800823117308E31C5268231E2250C308E3134
:100B6800C526823106308E31C52682312000C70164
:100B780047080739031DD32D4708F83940388E3107
:100B8800C52682313B302000B3000030B40047084E
:100B9800883EB5000830B600EF253B30C500450853
:100BA8008600870101088F3171278231200040308B
:100BB800C50AC70A470203180800BC2D01308E3148
:100BC800C52682310F302000B5000530890BEA2D8B
:100BD800B50BEA2D0800B8013608380203180800DA
:100BE80035083807052682312000B700330886000B
:100BF8003408870037088100B30A0319B40AB80A11
:100C0800F02DB200082E2000640023009518072E4E
:100C1800200032082300910092013F3095051514F9
:100C28001308080023008F31852782314B08B20052
:100C38004C08B3008C300927A030B6009E31E82656
:100C48008231F5268F3101273F08CC003E08CB00C2
:100C580008002100A40020005C1D080021002408D1
:100C68003C3A031D412EDA30A201FE2682311600DD
:100C78001A00D30B3B2EDA305E2E2408243A031DCB
:100C8800502EDF30A201A20AFE26823116001A0079
:100C9800D30B4A2EDF305E2E2408303A031D08009D
:100CA8000230A200E430FE26823116001A00D30B6F
:100CB800592EE4302100A30024082000CB00023084
:100CC800CC00A02682314C082100A10020004B084E
:100CD8002100A00021040319962EA530A500AB30F1
:100CE8002000B2000030B300210024082000B40026
:100CF8000230B5000C30B600B7013227A530C80065
:100D08000030C900BF01BF03210022088731AA278C
:100D180082314008CB003F08CA001230CC008B312A
:100D28000B238231210023082000B9000230BA00C9
:100D38008A31DC228231E02E4B0886004C0887007D
:100D4800403FB900413F9731FB27823195317725E4
:100D580082313A08D0003908CF0023008F31852727
:100D680082314B0886004C0887004231403FCD0055
:100D7800413FCE004D08B2004E08B3000A30A731FB
:100D8800AF2782319E31E8268231F5268F3101273F
:100D98003F08D2003E08D1004F07CB005208503D13
:100DA800CC000800C3302000B4000130B50010307A
:100DB800B601B7009A31CB2AD230C8000230C90038
:100DC8000830CA001830CB01CC008B310B2B2430F3
:100DD800B4000230B5001030B6002C30B7009A319C
:100DE800CB2A3508C5003408C4003308C3003208CC
:100DF800C20008008600023087000130A53E84004A
:100E0800053085012000D3000800B401B501B901FF
:100E1800B801B7000800F213721320005D11F21236
:100E280008002000B400B030B500210059082000A7
:100E3800B600080050080F392000B9000A30BA017E
:100E4800BB00BC010800F21372135D11F212080016
:100E5800313E2200DF002E30E00008003508BC00DB
:100E68003408BB003308BA003208B9000130B602B2
:100E78000030B73B360F432F370A031908003B08E9
:100E880084003C0885000008B800BB0A0319BC0AA6
:100E9800390886003A08870038088100B90A03191A
:100EA800BA0A3A2FA00020005C1D0800A5302100D6
:100EB800A100230038082100AA00230037082100D8
:100EC800A900782F2100A701702F21003C30A7012D
:100ED800762F3C302100A7006430762F5030210057
:100EE800A7007830A8008F2F20082000D100D20159
:100EF8005208003A0319812F8F2F5108003A03191D
:100F0800662F013A0319692F033A03196D2F013A25
:100F18000319722F8F2FA2302000B9000030BA00B9
:100F28008A31DC228731A130C8000030C900033083
:100F3800BF01BF03AA274008CB003F08CA000A30F8
:100F4800CC008B310B2387318631E02E2000C60080
:100F58002030C100C201C501460845020318C82F48
:100F68004535D33E8600023087000108B9001230AB
:100F7800BA01BB00BC019531772587313908C10713
:100F88003A08C23DC50AB02F4635D23EC7003F0FCA
:100F9800E12F4708860002308700810A470A84004B
:100FA800023085000008010247088600031CDF2F75
:100FB8008101470886000108BF000330460603196F
:100FC800E72F1230E82F0A30C300C4013F08B900E8
:100FD800BA014408BC004308BB00953177253A089C
:100FE800C0003908BF004108BF074208C03D0800DB
:10100000FE0012001E00FE0B012800342000CD005F
:10101000CE014D1C41280230E80080308E31C526BB
:101020008831DF302000B400B230B5005F30B60147
:1010300094318C2488318F318F2788318E31D3269B
:101040008831C0308E31C52688319F31E327883101
:101050004E08013EB6005F3094318C2488318F31C8
:101060008F2788318E31D32688310530FD003B280B
:10107000F21F721B3E287D08031D38288731272761
:1010800088310530CD36CE0A4E02031808000928F3
:101090007708F3000230F4002108F6002008F5007C
:1010A0007A2088317408EA007308E9006C086A0243
:1010B000031D5C286B086902031863286A08EC00AA
:1010C0006908EB006F286A086E02031D6928690829
:1010D0006D0203186F286A08EE006908ED00003001
:1010E0006A02813003196902031C78287111080013
:1010F00071150800312188310108031D8D287508FC
:101100002000A0007608A100A201A301442188319B
:101110005121F300413FF400080031218831730868
:10112000811FBC2886007408870044318113312157
:10113000883101080319042976082000A1007508E8
:10114000A00031218831010AA728A035A10D890B03
:10115000A5282008A2002108A300A401A501730866
:101160008600740887002208C03F2308C13F240876
:10117000C23F2508C33F04293721883151218831D6
:10118000A400413FA500423FA600433FA700013015
:10119000A800A901312188310108FF3E890AD2281F
:1011A000A835A90D890BD0282808AA002908AB006A
:1011B000AC01AD012A08A4072B08A53D2C08A63DCB
:1011C0002D08A73D31218831010AEA28A736A60C4F
:1011D000A50CA40C890BE6287508AE007608AF00B4
:1011E000B001B1012408AE022508AF3B2608B03B90
:1011F0002708B13B2E08A0072F08A13D3008A23DCB
:101200003108A33D442188317308372188310130EA
:10121000A400A501312188310108FF3E890A122965
:10122000A435A50D890B10292408A6002508A700C0
:10123000A801A9012608A0072708A13D2808A23D6A
:101240002908A33D31218831010A2A29A336A20C9D
:10125000A10CA00C890B26292108F4002008F3001A
:10126000080073088600740887004431080086006F
:1012700074088700403F2000A000413FA100423F8A
:10128000A200433FA300080073088600740887008B
:101290002008C03F2108C13F2208C23F2308C33FA6
:1012A00008007308860074088700403F0800812109
:1012B00089316A2385316C258931993176218931CB
:1012C000AE31642689317C2289312300E81F7F29D1
:1012D000C2218931003A031977293C302000D4001B
:1012E00001308431D42489312400CD01CE01B521CF
:1012F0008931003A03197F2966238431D42490313F
:1013000010282A308C00013020008C00CD302100C4
:101310008D000F3020008D0021008E0120008E01F5
:10132000950196019701B8302100950030302000DA
:1013300098000B3026009E0018309D006A309C00FB
:101340004030210091009300C030270094009500A8
:1013500068308B000A3023008C008D01043021009E
:101360009D00A0309E001D14592B23004E1D0034FB
:1013700024004F08031900344F0823006606031D9C
:101380000134003424004C082000B4002300670816
:101390004E228931CC00CC1B00344C08803A7E3E72
:1013A00003180134230065082000B40023006608F8
:1013B0005C2289313508C5003408C40024004A087D
:1013C0002000B40024004B085C2289313508C70096
:1013D0003408C6004C080319F2296D30CA000130E8
:1013E000CB00F429CA01CB014608CA024708CB3B0F
:1013F0004408CA074508CB3DCB1B00344B08803A54
:10140000BF0080303F02031D072A02304A02031842
:10141000013420004A08CC002300CE184B2A2000BB
:101420004C080319162A1830C800172AC801C90128
:10143000240049082000B400230063084E228931AB
:101440004807CC00CC1B0034240048082000B4001E
:10145000230062084E22BF00C001BF1BC0034C081E
:10146000B900BA01B91BBA033C30BB00BC019531CD
:10147000772589313F083907C10040083A3DC2004D
:10148000803AC30080304302031D482A793041026C
:1014900003180134003420004C0808002000B70075
:1014A0003408AE31CE268931B5003708AE31CE26AC
:1014B000B6003508360208002000B600AE31CE2650
:1014C0008931FF3EB9007F3E8400B2300318013EEF
:1014D00085000008B7000930B8013902031C722AE0
:1014E0000130B8073408AE31CE26B400B501370854
:1014F000B4073808B53D08002000D101D10AB32A4D
:1015000051080319B02A5F30B2000130B300C43073
:10151000B400B230B5000830B600B70187313227C9
:1015200089315F30C8000130C9000830CA01CB01E1
:10153000CC000B238931DA30B9000230BA00DC224A
:101540008931DF30B9000230BA00DC228931E43061
:10155000B9000230BA00DC228631E0268931B22A95
:101560005C11CF2AD1015F30C8000130C9000830BA
:10157000CA01CB01CC009031D7208931C430200082
:10158000B200B230B3000830B4005F30B501993119
:10159000DD21893132083304031D802A5C155C1D6E
:1015A0000800D230C8000230C9000830CA00183024
:1015B000CB01CC009031D728AE3164268931200090
:1015C000390886003A088700230062088100630812
:1015D0002000BB003908013E5A23893165082000EC
:1015E000BB003908023E5A23893166082000BB003F
:1015F0003908033E5A2367082000BB003908043E1F
:10160000BC0000303A3DBD003C0886003D08870024
:101610003B0881000800CF01D001D00A2C2B4B08D9
:10162000CE004A08CD000730CE36CD0C890B142BE6
:101630004D080E39A038AF3159278931D0005003F9
:10164000031D2C2B07302000CD007D30890B262B6D
:10165000CD0B262B2000CF0A500B322B0A304F0225
:10166000031C0F2B5008031D502B4A0891315021A9
:1016700089314C080319512B480886004908870016
:101680000108913150218931C80A0319C90ACC03D4
:10169000CA0A0319CB0A4A080F390319512B392BEF
:1016A000CC01AF317927893120004C08031908009B
:1016B0000B2B0800BC0000303A3DBD003C08860002
:1016C0003D0887003B0881002300080030302000DF
:1016D000D4000134C3302000B3000130B400103016
:1016E000B501B6008531EF2589312430B3000230D1
:1016F000B4001030B5002C30B6008531EF258931AB
:10170000A030B3000230B4004030B5002A30B6003B
:101710008531EF25D330B3000130B400C830B500B7
:101720000F30B6008531EF2DF21F721BFD01C03066
:10173000C52640302000B400B230B5005F30B6019D
:1017400094318C248B317E278B31D32EB70080309F
:10175000C52670302000B400B230B5005F30B6014D
:1017600094318C248B318F278B31D3268B317110A0
:10177000F0132300B701B801F011701185278B31E8
:10178000CD278B31203E86000330870095278B3193
:1017900001278B313F082300BC0020003E082300B6
:1017A000BB0085278B31CD278B31243E860003304B
:1017B000870095278B3101273F082300BA002000BE
:1017C0003E082300B9005F302000B2000130B300B2
:1017D0003D30B4001030B500973147278B310F30C2
:1017E000FD00E301C62C7D08031D72180B2C2000A0
:1017F0006308031DC62C1930E300C030C5268B31A9
:101800005B302000B2007D08E8278B317E278B31CA
:10181000D3268B31C62C7D080319902CF01F701B2A
:10182000172C1E30FD0070178531E2258B31230007
:1018300038082100AA00230037082100E427A53139
:1018400031258B31C72795318C258B31E0079731B6
:10185000A5278B311030A7005F309631D3268B310E
:10186000701A352CB501B601782C230049082000E8
:10187000BE0023004A082000BF008630C001C1011D
:10188000C5001C30C4004630C3008030C2000127B0
:1018900041082100B400200040082100B3002000CE
:1018A0003F082100B20020003E082100B1002200C4
:1018B00057082000BE00220058089F31D3278B31E3
:1018C00034082000C500210033082000C400210096
:1018D00032082000C300210031082000C200012787
:1018E0008B313F082100B60020003E082100B500E2
:1018F0003508A0003608AA278B314027E000BD013B
:10190000BD0A95318C258B31C030C5268B31103006
:101910002000C400C5000330C6005F30D3268B31E1
:101920007D08031DF01B9B2C19302000E300630889
:101930000319C62C972CF01BF019A02CF015C62CFF
:1019400070137D08031DB52CC030C526E73020007C
:10195000B400B230B5005F30B60194318C248B31C5
:101960008F278B31D3268B31BA2C21003708873152
:1019700056278B310230E8000A30FD00C22CF21FDE
:10198000721BC52C7D08031DBF2C7015701DF21B2A
:10199000CB2C721FF32B701387310F270800200008
:1019A0005C19D42CDC1708008030C5268B31B92790
:1019B00094318C248B317E278B31D3268B31C030F0
:1019C000C5269F31E9278B31D3268B31721F080042
:1019D000721322000530D301FD007D080319C12ECA
:1019E000721153302000B2000130B3000330B40153
:1019F000B50097318D278B318030C5268B31B927C3
:101A000094318C248B317E278B31D3268B31C0309F
:101A1000C5268B3122005308313EDF002E30E00016
:101A20009F27613094318C248B31023E7E278B318D
:101A3000D3268B31721FBD2E721322005335D23E36
:101A40008600023087000108D2005335D33E86005D
:101A50000108CF00D4015409CB000330CE01530656
:101A60000319352D0230C500362DC501C6014508C4
:101A7000C4000530FD007D080319BB2E7211220041
:101A8000520A0319942E54302000B2000130B300E2
:101A9000B40122004F08FF3E2000B50097318D278A
:101AA0008B3122004B0854060319B42D54085202FE
:101AB0004F07CD0054085202031C602D4F08CD0281
:101AC00003305306031D812D54080319692D4D0859
:101AD0006A2D5208C7003230C801D9278B31470818
:101AE000DF278731AA278B314008CB003F08CA0087
:101AF0000A30CC009031D7208B3132302200D00018
:101B00009D2D54080319862D4D08872D5208C900B4
:101B10003230CA01D9278B314908DF278731AA27FC
:101B20008B314008CB003F08CA001230CC00903106
:101B3000D7208B3132302200D100013ECC00A530BD
:101B400032060319A82D54080319A82DD401602DBD
:101B5000CE015408CB00A53032060319B42D540829
:101B6000031DB42DFF30D200520A0319942E803089
:101B7000C5268B3122005408013E2100A000003010
:101B800003180130A100A201A11BA2032208A30097
:101B90000A30A40020304027E000203E86000130BB
:101BA00087002E308100E00A22004C082000C0008F
:101BB0006008203EAB31F6238B316007C400103043
:101BC000C5002030C601C60AD3268B31721FF02D06
:101BD0000530FD002200CE0A4E084402031CCE014F
:101BE000033022005306031D382E5008063E86009F
:101BF00001308700B0278B315F3040278B31D327EE
:101C00008B312D308100E00A22005008073E86000B
:101C1000B0278B31200060085F3E40278B31E00702
:101C2000C030C52620006008C40008309F31CE2790
:101C30008B31D32622005008083E860001308700F1
:101C4000403F2100A900413FAA000230AB005F30B5
:101C5000A53131258B31C72795318C258B31E00794
:101C6000C830C526AF31D2278B31D3268B31942E85
:101C7000C030C5268B317F2E22005108063E210040
:101C8000B1000130B200B301B30AA6318B268B310B
:101C900022005108063E2100B1000130B20002309E
:101CA000B300A63131268B31942E22005108063E16
:101CB0002100B1000130B200B301B30AA53194256F
:101CC0008B3122005108063E2100A5000130A600FC
:101CD0000230A700A631AD268B31942E2200510888
:101CE000063E2100B1000130B200B301B30AA731B2
:101CF00005278B31C1278B31D3268B31942E2200BF
:101D00004E082100BA00BB013B08003A0319892E96
:101D1000942E3A08003A03193C2E013A0319552E25
:101D2000033A03196E2E942E2200520FB72E8030E4
:101D3000C5268B319F275F3094318C248B317E27D1
:101D40008B31D3268B31C030C526BB302000B40088
:101D5000B230B5005F30B60194318C248B317E27D0
:101D60008B31D3268B31721FB72EFD0172159F3137
:101D7000C1278B313B2D0530FD009F31C1278B31B1
:101D8000ED2C72152200EF0108002000B4008E1027
:101D900067278B31340EF03967278B315830890B28
:101DA000CF2E00000800CC00C80144084502CA003C
:101DB000460BDC2ECA01E02E033046060319CA3654
:101DC0004A084407C900CB0145084B020318080024
:101DD0004A084B02031CF02E49084B02031CF42E48
:101DE000203071278B31FE2E48084C07C7009131F7
:101DF00088218B3171278B312000C80A2000CB0A43
:101E0000E42EC701C801C901CA01410840043F04CA
:101E10003E040319372FC601C60AC11B142FBE3555
:101E2000BF0DC00DC10D0C2FC735C80DC90DCA0D92
:101E300041084502031D262F40084402031D262F9A
:101E40003F084302031D262F3E084202031C312F88
:101E50003E08C2023F08C33B4008C43B4108C53BA3
:101E60004714C136C00CBF0CBE0CC60B142F4A0859
:101E7000C1004908C0004808BF004708BE0008006C
:101E80002000D900210023082000CE0021002208D4
:101E90002000CD00210021082000CC0021002008D6
:101EA0002000CB00210024082000CF00D0015908D9
:101EB0009B3103238B31D801D80A58085907D70022
:101EC000913188218B31031D5C2F58080800B30025
:101ED000F039B2000E080F3932048E008E158E11C3
:101EE0000800B4008E1467278B31340EF039672751
:101EF0008B315830890B7A2F00000800C400103055
:101F0000C5005F30C601C60A080049082000BE00AF
:101F100023004A082000BF00C001C1010800C4001E
:101F20001030C5000330C6005F34403F2000C200BF
:101F3000413FC300423FC400433FC5000800883012
:101F40002000B400B130B50022005308013E20004B
:101F5000B6000800A1000A30A201A301A4005F346A
:101F600001082100A0000A30A101A201A301A400E0
:101F7000080061302000B400B230B5005F30B60117
:101F800008000830C401C5000230C6005F342000DC
:101F9000E0000930BD00600808002100370809078B
:101FA000090709070800E0005F3E8600013087004E
:101FB00008002000C8000130C900220008002000ED
:101FC000BF00220053080800A9000230AB005F34B4
:101FD000B300B50132080319FE2FB401B40AB21BD5
:101FE000F32FB235EE2FB53532083302031CFB2F29
:101FF0003208B3023514B236B40BF32F350808009B
:10200000AC31682CAC316C2CAC31712CAC31752CF2
:08201000AC31792CAC317F2CBE
:10202000063023006102031C19280A306102031CD8
:10203000402820005C1323008030DD01DE01DF003A
:102040000130E000D7308600013087000930D33EF0
:102050008400013085000630803FC03FE100D80198
:10206000D901DA01DB015B08D6005A08D50059080E
:10207000D4005808D300A501A601A701A8010800B3
:1020800007306102031C080058082000B20023003A
:1020900059082000B30023005A082000B400230090
:1020A0005B082000B50023005C0A2000592883202B
:1020B0009031890B572833082300A60020003208EE
:1020C0002300A50053082000B2002300540820007C
:1020D000B300230055082000B40023005608200058
:1020E000B5002300570A2000772883209031890B00
:1020F000752833082300A800200032082300A70019
:1021000020005C170800B536B40CB30CB20C080004
:10211000D030AF3159279031003A031D94280E304A
:10212000502190313C305021AF31792F2000BD003B
:10213000D030AF3159279031003A031DD5281130E6
:102140005021D130AF31592790310030AF31452780
:102150009031BE000130AF3145279031BC003E0ABE
:102160000319D1283C0E0F39B600B7013E08B8005C
:10217000F030B901B80EB90EB90538080F39B904F5
:10218000F030B80536083804BA0037083904BB0007
:102190003D088600023087003A08C03F3B08C13F37
:1021A000D5283D08933189239031AF31792FCF0164
:1021B000D001D00AEE287C21A038AF3159279031C8
:1021C000D0005003031DEE2807302000CD007D30E5
:1021D000890BE828CD0BE8282000CF0A500BF42803
:1021E0000A304F02031CDB285008031D12294A083D
:1021F000502190317C21A138AF31592790310929E4
:102200000030AF31452790318D219031C80A031934
:10221000C90ACC0B00290130AF31452790318D21FF
:1022200090311D294908B3004808B200FF30B400BE
:102230004C08B500973147279031AF31792FB60060
:10224000D030AF3159279031003A031D4E2900306C
:102250005021903100305021903136088821903142
:1022600050219031360A8821903150219031360822
:10227000023E88219031502190313608033E88215A
:102280009031502190313608043E88219031502100
:1022900090313608053E882190315021AF31792F99
:1022A000B3008030B400330834056621903120003B
:1022B000B4363408031D5329AF316827B400003207
:1022C0000032000020008D1034080800B2008D108C
:1022D00021000D1020003208031D70290D107129F6
:1022E0000D140530890B7229003220008D14033043
:1022F000890B7829000008004B08CE004A08CD0061
:102300000730CE36CD0C890B81294D080E390800D7
:1023100086000130870001080800CD0048088600CB
:10232000490887004D0881000800C400C601AC2997
:10233000CA30C5000830C300A829440886008701B8
:10234000450884000230850000088100C50AC40ADF
:10235000C303430F9D29C60A4008C100C201C11B27
:10236000C2034208803A803C031DB8294108460256
:102370000318BE296A2291310318982920004608C3
:102380000800DD1CF7291D30DD10E1007030CA00A7
:10239000CB015F30B3000130B4004A08B50008300B
:1023A000B6008531EF2591315F30B8000130B900BA
:1023B0006430BA000A2291310318E3294B35613E9B
:1023C00089239131EA294B35613E8600023087002E
:1023D000952391310830CA070330CB0A4B02031C06
:1023E000C9292300CD1F08006330903196280130A1
:1023F000DD14E100012291312300CD1F080090314E
:10240000882815239131031C0800CC305C229131BF
:1024100044305C2A152391310318102A0310080058
:1024200055305C2291313908C9003808C800C7010D
:10243000480886004908870001085C229131C80AD3
:102440000319C90A0830C70A4702031C182ABE30FC
:102450005C2291313C30C8000030C900C501C60182
:102460007A239131BB0048088600490887003B0861
:102470008100C80A0319C90AC50A0319C60A460811
:10248000803ABB0080303B02031D482A09304502D8
:10249000031C302A20003A08860087013C08C03F10
:1024A0003D08C13F0830B2003C3059239131440609
:1024B000031D0E2A03140800B300B40133080139C8
:1024C0003A23913120000830B336B40A340203189D
:1024D00008005E2A2000CA30BE01BE0AB901BF0151
:1024E000BF0ADD11BC005D1AEA2A152391310318D9
:1024F0007F2A2200DE0120005D1203100800F03068
:102500005C2291314030B800D92AFE22913100304E
:1025100003180130BB00FE22913100300318013056
:10252000BA003B0B962A3A0B962ADC2A3B083A065D
:1025300003199D2A3B08BD00BE2A22005E08200028
:102540003E020318AF2A3C088600023087000108CB
:102550003F050319AD2A0130B82A0030B82A3E08D9
:1025600022005E06031DB62A0130B72A0030200083
:10257000BD003D08031DBE2A3E08B9003D0BC72A19
:102580003C088600023087003F088104CD2A3C08C1
:102590008600023087003F0981053D083A239131CA
:1025A0002000BE0ABF353F08031DD92ABC0ABF015F
:1025B000BF0AB803380F852A41303E02031CEA2ABD
:1025C00039082200DE005E08031DE82A20005D169F
:1025D0002000DD15DD19FA2A2200DE012000CA30B4
:1025E0005D12B2000230B3000830B401B50097317B
:1025F00047279131DD1D7D2A031408009023913176
:1026000000320032000021008C160830890B062BA6
:102610000000003020008C1A0130B2005B30890BC2
:102620000F2B00322000320C08009023913104302F
:102630002000B2001C30890B1B2BB20B1B2B00009F
:1026400021008C167430890B232B003203102000DC
:102650008C1E0314003003180130B3000330200037
:10266000B200A830890B322BB20B322B00002000B5
:10267000330C0800B2000130B205320803194C2BAC
:10268000902391310830890B432B000021008C16D8
:102690006430890B492B0800902391317430890BE9
:1026A0004F2B003221008C160330890B552B000074
:1026B0000800B300B701752B3308860087010108B5
:1026C000B4000830B30AB50035080319752B370874
:1026D0003406B6000130B605B73636080319722B3A
:1026E0008C30B706B436B503642BB203320F5C2BC3
:1026F000370808002000B301B401B336FE2291313F
:102700000318B3170830B40A3402031C7D2B3308B6
:1027100008008600023087008130C03FC13F0800BA
:1027200021008C1222008C1208006408C03F65084A
:10273000C13F080023004E1BA02B2000DC1708001F
:1027400080308E31C5269331EB302000B20001304D
:10275000B3000330B400AE316C2693312100D700B2
:10276000D8015808003A0319802C8B2CF21ECD2B6F
:10277000F21200302000B400B030B5000630B600D0
:102780005F308C248F317E2793318E31D326933165
:10279000962587310F27721508000230A900C03036
:1027A000BF248F31C12793318E31D3269331C0306E
:1027B0008E31C526933102302100A900C130BF24DB
:1027C000933102302100A900A230BF249331DD18DB
:1027D000080005306102031C08000430E100080015
:1027E000D9279331EA269331003A0319FF2B6A085F
:1027F000EE006908ED006E08EC006D08EB00EF30AC
:10280000B400B230B5005F30B6018C24C40008308B
:102810009F31CE2793318E31D3269331B727933111
:102820001927C0308E31C52693310B302100B100FD
:102830006B30B201B20A192793310C302100B1007C
:102840000230B2006D30192FD9279331EA26933127
:10285000003A0319302C2300E1019031102093310C
:10286000A5302000B400B230B5005F30B6018C2432
:102870008F317E2793318E31D3269331C0308E3104
:10288000C526933120005C1F6B2C230024082100F7
:10289000B20023002308D327A5310A259331DC1E7B
:1028A000622C230026082100B20023002508210005
:1028B000B100230028082100B40023002708F127D5
:1028C0009B31F52B230026082100B20023002508A8
:1028D000F6279A31142A1130B400B330B5005F30B6
:1028E000B6018C249331E000CD01CD0ACE01CE0A91
:1028F0007E2793310330CD000230CE0060087E2F5A
:102900005708003A0319B62B013A0319F02B033A82
:102910000319242C8B2C0800BC0036080319942CB6
:10292000CD279331B900952CB901BA013908BB0004
:1029300036080319B82C3508B8003408B700B40AB3
:102940000319B50A84003808850000083B06031DFA
:10295000982CB603982C36083C07B7008600013047
:102960008700CD2793318100B40A0319B50AB60A4E
:10297000CD2793313B06031DAB2C36080800210000
:10298000AE00AF00F030AF050F30AE052E35613E22
:10299000860002308700403F2000E400413FE50010
:1029A00081306406813003196506031DE12C0C306B
:1029B000B400B230B5005F30B601B60A8C24933152
:1029C000452D2100B0012000E51FED2CE409E509AB
:1029D000E40A0319E50A2D30F12C2100AF1AF52C79
:1029E0002B302200DF002100B00A0F3020006405E8
:1029F000B9000A30BA01BB00BC0177259331390810
:102A00002100AA0020003A082100AB000430AB36B8
:102A1000AA0C890B072D2000640E0F39B900650E32
:102A2000F039B904650E0F39FB27933177259331BF
:102A300021002A0820003907E40021002B0820008B
:102A40003A3DE5000A30B200B3016508B5006408FC
:102A5000B400592732082100AA00200033082100C1
:102A6000AB00AC01AD012D08A3002C08A2002B087F
:102A7000A1002A08A0000A30A40030085F3E8F3170
:102A800040279331210030072000E0002100AF1FD4
:102A9000632D2030A500200060082100A60008302A
:102AA000A7005F30D32693310C302000B400B23041
:102AB000B50021002E08023E2000B6005F308C24B5
:102AC00093310830E00021002F1E6D2D0A302000C8
:102AD000BD0060088C259331E0072000E527290818
:102AE0002000C6005F308E31D32660080800BD018B
:102AF000BE01391C7F2D3B08BD073C08BE3DBB35E0
:102B0000BC0DBA36B90C39083A04031D792D3E08BC
:102B1000BA003D08B9000800BE00B130B400B130C1
:102B2000B5003D08B6003E085F3E8C2C5330860051
:102B300002308700CA308400003085000630210052
:102B4000B10016001A00B10BA12D5F30D101D201E6
:102B5000D301D6012000C5279331472793311E307A
:102B6000B400B230B5005F30B6018C240330C00031
:102B7000B2309131952193312100D0009231012260
:102B800093316430DC10E3000530FD007D0803194B
:102B9000AF2E7211210050080319712E2000DC188D
:102BA000F22D6308031DF22DDC142100D40154081A
:102BB000DF27B8000030B9006430BA0092310A2231
:102BC0009331031CEC2D21005435CA3E8600870149
:102BD000200093319523933121000330D40A54020D
:102BE000031CD72DD6302000B2000030B300B40152
:102BF00021005008FF3E2000B5008D279331721F41
:102C0000112E21005608D13E860004308701810A2A
:102C10000106031D0F2E5608D13E860081010530A6
:102C2000FD002000DC1C262E21005635CA3E860001
:102C30008701403F2400E700413FE80021000330C6
:102C4000A901A90ABF249331E000272EE001A5279E
:102C500093311030A7005F30D3269331CD30200060
:102C6000B400B230B5005F30B6018C2421005608A4
:102C7000313E2200E8002F30E90021005008303EAC
:102C80002200EA0080308E31C526933110302000BA
:102C9000C4009F31CE2793318E31D32693315F30DC
:102CA000B20021005608090709070907B23E993109
:102CB000522193310C30B400B230B50021005608D7
:102CC000D13E860087010108013E2000B6006B302E
:102CD0008C249331E000A52793310430A7006B309A
:102CE000D326C0308E31C526933110302000C40069
:102CF0009F31CE2793318E31D3269331AF31F627D2
:102D00009331EA269331003A0319A02E21000230B4
:102D1000D101D10AD2000330D30081302400E10078
:102D2000E200E300E400E500E600B2302000B2007B
:102D30000030B300FF30B4001830B5004727FD0164
:102D4000873127279331AC2E7D080319C62D6308E0
:102D5000031DAC2EDC1CC62D721DA42EC62D210019
:102D6000D50103305502031808005508D13E8600EE
:102D7000870101080319D02E5508DF27B400B501DB
:102D800021005508D13E86000108090709070907F7
:102D9000683E2000B6000830B7009A31CB2293314C
:102DA0002100D50AB12EA800210026080319E62E1D
:102DB000AD27A603260828072000DB00A731B62789
:102DC0009331D42EAD2793312508810027080319AC
:102DD0000800E22ECF01F21E172F873127279331EB
:102DE0008531E225933180308E31C5269331200024
:102DF0004E08B5004D08B4005F30B6018C248F3109
:102E00008F2793318E31D32693310530FD000B2F60
:102E1000F21F721B0E2F7D08031D082F721F122F29
:102E2000CF01CF0AF21372135D11F21272154F081F
:102E30000800B30031082000BD0000308C2593311C
:102E4000E0002100330886008701EB27933105302D
:102E5000B435B50D890B282F23004C08723C200097
:102E6000B200B30159279331BD27AB01AB0A200053
:102E700060085F3EA531312593312000E00707301F
:102E8000CD00210032082000CE0060087E2F3308DC
:102E9000B7003208B600B503350F4F2F08003608CB
:102EA00086003708870034088100B60A0319B70A7C
:102EB0004B2FB701B801320833040319792FB6013B
:102EC000B60AB31B662FB235B30D602FB735B80DF8
:102ED00033083502031D6E2F32083402031C752F90
:102EE0003208B4023308B53B3714B336B20CB60B14
:102EF000662F3808B3003708B2000800CF004D082D
:102F0000BD004F088C25CF074F08C4000830C5000E
:102F10004E08C6005F308E31D32E3208860033084B
:102F200087000108B600F21F9E2FB60A350A360642
:102F3000031D9C2F3408B6000530FD0032088600C2
:102F40003308870036088100080020302100A500E2
:102F5000200060082100A6000800A7032708280712
:102F60002000DA00860001308700210008000E30C2
:102F70002100B1000230B200693433082100AA00F8
:102F8000200032082100A9000800B2000130B3007F
:102F90002030B4001030B500080034088400350833
:102FA0008500000808002100B100B301B401B40A93
:102FB0000800FE302000CD00B230CE000800090726
:102FC00009070907B23E200008006008C400083065
:102FD000C50021000800403F2000B400413FB5007B
:102FE00008002100B3000230B50008002100B10044
:102FF0000230B3000800BA000A30BB00BC01080070
:10300000A431432CA431482CA4314F2CA431562C8C
:10301000A4315D2CA431642CA4316B2CA431722C0E
:04302000A431882C23
:1031EC00640080010131890BF7280034FF3400346E
:1031FC000034FF340334003400348134813481349E
:10320C00813481348134483408340034003400343F
:10321C0000348134043481348134813481348134F8
:10322C00813481348134FF344034FF341E34FF3414
:10323C000C34FF340A3400340034003400340034CD
:10324C0000340034003400340034003400340034D2
:10325C0000340034003406306102031C08000930CD
:10326C0061020318080020005C1723000930E10AF2
:10327C00D33E8600013087006108C03FD700D335AC
:10328C00D40DD50DD60DD835D90DDA0DDB0DDD01EC
:10329C00DE01DF35E00D08002000B3001030B40073
:1032AC00B40B592908003308860087010108B500C2
:1032BC00341C64290F30B50EB5056529B30A0F30DF
:1032CC00B5050A3035023208860001308700350812
:1032DC00031C7229373E7329303E8100B20A5629ED
:1032EC0041302200D90038302300C1004A082000A8
:1032FC00B500230049082000B4000D30B435B50DDD
:10330C00B200B30197315927993133082400A30037
:10331C00200032082400A2002300CE1F9C2922008A
:10332C00D9352300C1362400A336A20C23004F0844
:10333C000F39EC00500E0F39EB004F0E0F392000F7
:10334C00E70008000034003400340034A034523458
:10335C0057340134003400340034003460343434D5
:10336C003C340234603434343C340234A0345234AF
:10337C005734013448342734AD34013430341A34E2
:10338C001E34013406340234023405340034033460
:10339C000534013404340634023404340134013469
:1033AC000134013404340134033403340234B700DF
:1033BC00BA003308B9003208B800F3290722993152
:1033CC000E2299313606031DF7290130B402003064
:1033DC00B53BBA0AB80A0319B90A34083504031DF7
:1033EC00E42934083504031DFE29B201B301080099
:1033FC000E229931B200B3010722B202031CB303AF
:10340C00080038088400390885000008B600080058
:10341C003A088600013087000108080023004B0899
:10342C006B229A3131082000B200210032082000B2
:10343C00B300B401B50123004108200072229E3173
:10344C00E8269A318631F5269A318F3101279A3147
:10345C0041082100B700200040082100B6002000E0
:10346C003F082100B50020003E082100B4000A30BE
:10347C006B2237082000C500210036082000C4004C
:10348C00210035082000C300210034082000C200B0
:10349C008F3101279A313F082100B90020003E08E6
:1034AC002100B8003908AA003808A7319C279A31A6
:1034BC00A53131252000E0000430CD002100330877
:1034CC002000CE00600897317E2F2000BE00BF0187
:1034DC00C001C10121000800B600B701B801B90153
:1034EC0008008531E2259A318B13F01C852A48306F
:1034FC002000B9000230BA008A31DC229A31230054
:10350C004E1D932AF0188E2A24004F08031D952A6D
:10351C00230066082400CF00952A2400CF01230045
:10352C004F086C06F0396C06CF006B082000BE000B
:10353C00BE0E23005008FD229A31D00020006708EF
:10354C00BE00BE0E23004F08FD229A31CF00B222DE
:10355C009A3122000C10B12A8631D6269A31863146
:10356C00EB269A31A030B4000230B5004030B600E2
:10357C002A30B700CB229A31D330B4000130B500D9
:10358C00C830B6000F30B700CB2AB8013708380264
:10359C000318080034088600350887000108B200BB
:1035AC0036083807E0229A312000B40A0319B50A0C
:1035BC00B80ACC2AB30023009518E12A200033085E
:1035CC0023009100920120003208230093003F3029
:1035DC00950503108B1B03148B1315155530960092
:1035EC00AA3096009514151103188B1708002000AB
:1035FC003E060F393E0623000800D6004E08D400C4
:10360C004D08D3004C08D2004B08D1009F2354081E
:10361C00C5005308C4005208C3005108C2008F31C2
:10362C0001279B314108D4004008D3003F08D20049
:10363C003E08D100D60A5408530452045104031D09
:10364C000C2B56088600013087008101D6034F08E9
:10365C00B2005008B300B401B5014E08B9004D08D2
:10366C00B8004C08B7004B08B60069239B313208F0
:10367C00D5009F234E08C5004D08C4004C08C3005C
:10368C004B08C2008F3101279B314108CE00400806
:10369C00CD003F08CC003E08CB000A305502031C7D
:1036AC00592B0730D5073030D50756088600013026
:1036BC00870055088100D6034E084D044C044B047A
:1036CC00031908002D2B3508340433043204031974
:1036DC00962BBA01BA0AB51B782BB235B30DB40DC3
:1036EC00B50D702B35083902031D862B34083802B2
:1036FC00031D862B33083702031D862B3208360236
:10370C00031C902B3208B6023308B73B3408B83B85
:10371C003508B93BB536B40CB30CB20CBA0B782BDC
:10372C003908B5003808B4003708B3003608B200C1
:10373C0008004F08BE005008BF00C001C1010800BE
:10374C0021000A30A501A50AA601A60AA70023009C
:10375C0050080F392C252000DA00230050082000D7
:10376C005A06F0395A062300D00008000E3021000A
:10377C00A500FF30A601A60AA70023004B082C25A4
:10378C002300CB00080023004E082100AA002300D0
:10379C004D082100A9007430AB00B030AC000D27EF
:1037AC0021002A082300CE00210029082300CD0087
:1037BC000800230049082100A90023004A08210021
:1037CC00AA007530F4279B312F30AD00DB252A0879
:1037DC002300CA00210029082300C900080033086F
:1037EC002000BE0021003408D3279B313108200073
:1037FC00B200210032082000B300B401B50124004E
:10380C0022082000B600240023082000B700B801CD
:10381C00B901E8268631F5269B318F3101279B3182
:10382C0041082100B900200040082100B800200008
:10383C003F082100B70020003E082100B6002300FD
:10384C004B089A316B229B3139082000C5002100AE
:10385C0038082000C400210037082000C3002100D4
:10386C0036082000C2008F3101279B313F08210010
:10387C00BB0020003E082100BA003B08AA003A0811
:10388C00A7319C279B31A53131259B312000E000CD
:10389C000330CD00210035082000CE0060089731A0
:1038AC007E2F873127279B318531E2259B312100E3
:1038BC000330BA01B800FF30B9000530FD007D08B7
:1038CC000319A42C7211BA302000B2000030B300DE
:1038DC00B401210038082000B50097318D279B31A9
:1038EC00721F7C2CFD0121003A08B900F730200032
:1038FC00B400B230B5005F30B60194318C249B31EA
:10390C00E000D330B400B130B50021003A08013EDC
:10391C00A731C7279B3194318C249B31E007803031
:10392C008E31C5269B31200060088F318F279B314B
:10393C008E31D3269B31C1279B31652C2100390A4E
:10394C000319080039088B31A62BCC30B20001309A
:10395C00B3008C30B400E630B5008F25C4308E3106
:10396C00C5269B319731B7279B319731192F66307C
:10397C00B2000030B3000430B401B50097318D278C
:10398C009B31C0308E31C5269B31200066088731B3
:10399C002C279B31E3276608013EB6006130943139
:1039AC008C249B31023E8F317E279B318E31D32666
:1039BC009B31721F0800F21372135D11F2128030EA
:1039CC008E31C5269B31E3276608013EB6005F3079
:1039DC0094318C249B318F317E279B318E31D326B1
:1039EC009B31C0308E31C5269B31E9278E31D326D1
:1039FC009B316608031D192D250028082100A900FC
:103A0C00250029082100AA000730F4279B31CF306C
:103A1C00AD00DB259B312A082500A90021002908CF
:103A2C002500A800292D08302100A5003C30A60156
:103A3C00A700D9279B3101082C259B31BB00D92726
:103A4C0021003B0881000530FD0008002100AC007E
:103A5C000530FD007D0803198B2D7211AC30200050
:103A6C00B2000030B300210026082000B400210071
:103A7C0027082000B5008F259B3108302100250632
:103A8C0003194E2D2C08A800A901AA01AB01692D20
:103A9C002C082000B2000330B301873109279B3179
:103AAC00E830B600E8269B3135082100AB00200039
:103ABC0034082100AA00200033082100A9002000AE
:103ACC0032082100A8002B08A3002A08A20029080C
:103ADC00A1002808F0278F3140279B31E0002100FE
:103AEC0025082000BD00600895318C259B31E0072E
:103AFC00C4308E31C5269B31AF31D2279B318E31EC
:103B0C00D3269B31C1279B31302D721521002C08F7
:103B1C00080032088600330887000108B600F21F3F
:103B2C00A02DB60A350A3606031D9E2D3408B600A4
:103B3C000530FD00721FAC2DB6033408FF3E36066F
:103B4C00031DAA2D3508B6000530FD00320886008D
:103B5C00330887003608810008002300460821003E
:103B6C00AC00230045082100AB00230044082100D1
:103B7C00AA00230043082100A9000F30B001AF00B8
:103B8C004230AE003F30AD00DB252C082300C600D0
:103B9C0021002B082300C50021002A082300C400A3
:103BAC00210029082300C30008003008A3002F08B7
:103BBC00A2002E08A1002D08F0278F3140279B3141
:103BCC002100B9002C083002031DF62D2B082F0202
:103BDC00031DF62D2A082E02031DF62D29082D0291
:103BEC000318002E3008AC002F08AB002E08AA00DA
:103BFC002D08A9002C08A3002B08A2002A08A1005C
:103C0C002908F0278F3140279B312100B700303035
:103C1C00A5003708A6003908A7005F309631D326D7
:103C2C009B31B2013908103CB100031CB203B2360F
:103C3C00B10C3108C03EB8000530BA01FD007D085A
:103C4C0003198D2E7211BA302000B2000030B3006F
:103C5C00B40121003908FF3E2000B50097318D27B3
:103C6C009B31721F492E72132100FA279B313A3077
:103C7C00810A0102031C472E3A085F3E8600303051
:103C8C0081000530FD005F30A4269B3141082100E6
:103C9C00B600200040082100B50020003F0821009C
:103CAC00B40020003E082100B30036083002031D8A
:103CBC00692E35082F02031D692E34082E02031DB0
:103CCC00692E33082D0203186E2EFA27303081002E
:103CDC000C308E31C5269B31210038088E31C5261B
:103CEC009B31210039082000C4000830CE278E31CA
:103CFC00D3269B31210038083A078E31C5269B31DB
:103D0C000F308E31C5269B31C1279B31252E0C30AF
:103D1C008E31C5269B3172155F30A42641082100D7
:103D2C00AC00200040082100AB0020003F0821001F
:103D3C00AA0020003E082100A90008002000CC00A9
:103D4C00C801C901CA01CB014C08913188219B31B2
:103D5C000319DF2E4C0886000108D03EC200FF304C
:103D6C0003180030C3004208C4004308C500C60154
:103D7C00C7014B08B5004A08B4004908B30048080D
:103D8C00B2000A309A3172229B31E8269B313208FC
:103D9C00C4073308C53D3408C63D3508C73D470840
:103DAC00CB004608CA004508C9004408C800CC0A24
:103DBC00AA2E4B08C1004A08C0004908BF00480899
:103DCC00BE000800BA01BB01BC01BD01321CF62EBD
:103DDC003608BA073708BB3D3808BC3D3908BD3D2D
:103DEC00B635B70DB80DB90DB536B40CB30CB20C65
:103DFC003508340433043204031DEC2E3D08B500A1
:103E0C003C08B4003B08B3003A08B2000800053087
:103E1C00B201FD007D080319BC2F7211B2302000D5
:103E2C00B2000030B3000F30B401B50097318D27CC
:103E3C009B31721F332F01302100AD00AE013208CF
:103E4C000F3C890A2B2FAD35AE0D890B292F2D0870
:103E5C00A9062E08AA060530FD000C308E31C526A9
:103E6C009B3130302100A5002908A0002A08A100B0
:103E7C000230A201A301A4005F308F3140279B3197
:103E8C002100A6001030A7005F309631D3269B315D
:103E9C0032085F3E8600013087000108D13EAF003A
:103EAC005F30B1001030B0006E2F31088600013049
:103EBC00870030300106031D672F310886002D3036
:103ECC006C2F31088600013087002A308100B10A3E
:103EDC00B003300F5B2FC0308E31C5269B311030B4
:103EEC002000C400CE278E31D3269B315F30973112
:103EFC00C5279B31973147279B3121002C08200087
:103F0C00B50021002B082000B40021003208013E2E
:103F1C002000B6005F3094318C249B31E0006008A7
:103F2C000319A42FB030B400B230B50021002F0813
:103F3C002000B6006B3094318C249B3180308E3154
:103F4C00C5269B3110302000C400CE278E31D326DD
:103F5C009B3121003208C03E8E31C5269B310F307B
:103F6C008E31C5269B31C1279B31102F0C308E31E1
:103F7C00C52672150800F21EC52F7215FD0187317A
:103F8C000F279B31721908007D0803190800C82FF0
:103F9C00C5005F30C601C60A08002000BF00C00182
:103FAC00C10121000800200066080907090709075C
:103FBC00A43E8600023087000800E1302000B400E7
:103FCC00B030B500080020001030C401C5005F30CF
:103FDC00C6010800A0000A30A4005F34AB01AC019C
:103FEC00B001AF01AE0008003A085F3E8600013018
:043FFC008700080032
:104758000430BA003030BD2D0330BA002430BD2DEE
:104768002300CE18BB2B2100BE01BE0ABE2B02308F
:104778002100BE003E08BA003C30BD2D80308E318D
:10478800C526A331F119012CAE316426A3312300CB
:1047980062082000CD00CE01CE0A23006308AD31A7
:1047A8000C25A331F11BEC2B02307625C0308E315D
:1047B800C526A3312100A901A90AC2279431BF2423
:1047C800A3319731B727A33197311927A331282C63
:1047D80002309524C0308E31C526A33101302F24F4
:1047E80023002C082100B20023002B089731F6275C
:1047F800A3319A311422A331282C22005608210013
:10480800B200220055089731D327A3310A25A331D6
:1048180002309524C0308E31C526A33101302F24B3
:1048280023002C082100B20023002B082100B1002E
:1048380023002E082100B40023002D089731F1270A
:10484800A3319B31F523A331721CF11F0800F21E1E
:1048580008009C31572C2100BD00EC302000B2002C
:104868000130B3000930B400AE316C26A331210009
:10487800BA00BB013B08003A03198A2C942C3D0866
:10488800A900C2279431BF2C0E30B1003D08B200F8
:1048980069309731192F3C30A5000230A6003D0839
:1048A800A700AD2E3C30B1000230B2003D08B30085
:1048B8008B2E3C30B1000230B2003D08B300312EDF
:1048C8003C30B1000230B2003D08B300942D3C30BA
:1048D800B1000230B2003D08B300052F0C302000B3
:1048E800BD00003095318C25A3312100BC00240087
:1048F8004E082100B20024004D082100B1003C08F8
:10490800B3003D08B4000A2D3D08CC2F3A088400B6
:10491800093004020318080098310435003E82006B
:1049280008002100A500F11A9E2C8A2794318C24B6
:10493800A331002D2300CE1BAA2C04302100A9008E
:104948007830A8006830A700C030B22C02302100AF
:10495800A9003C30A8003430A7006030A60024002D
:1049680050082000BE00240051082000BF00240089
:1049780052082000C000C101210029082000C500FC
:10498800210028082000C400210027082000C300B7
:10499800210026082000C2008F310127A3313F08DB
:1049A8002100AB0020003E082100AA00BC272A08ED
:1049B800053E2000B400003021002B3D2000B5004A
:1049C80097315927A3313308BA003208B9000A30A1
:1049D800BB00BC0195317725A3313A082100AB0013
:1049E800200039082100AA00A0002B088F31AA272F
:1049F800A3318F314027A331E0000230CD002100E0
:104A080025082000CE00600897317E2F3208AA00C2
:104A18003108A900AB01AB0A33085F3E3125A33149
:104A28002000E000033021003202E930031931028E
:104A38000318212D3308031D242D2000E003E00373
:104A4800210033082000E007CD01CD0A21003408F9
:104A58002000CE00600897317E2F2100B000290881
:104A6800A0002A08A1000A30A201A301A40030086E
:104A78008F314027A3312100AF002B08013EAC0045
:104A8800003003180130AD002D08803A803C031D2A
:104A98004F2D2C082F020318602D30302100A5005F
:104AA8002F08A6002B08013EA70030089631D32610
:104AB800A3312B08013EAF0021002F08AE006D2D59
:104AC800A127A3312E083007AD00FF3EB627A3313A
:104AD800AE03AB032B0F642DA1272E3081002F08C6
:104AE800013E0800DA00230046082100A300230045
:104AF80045082100A200230044082100A10023004A
:104B0800430821009F31F027A3318F314027A3317B
:104B1800E0000830CD005A08CE00600897317E2F9B
:104B280032082000CC00210031082000CB002327C8
:104B3800A3314C082100B50020004B082100B40027
:104B48003504031DAC2D8A2794318C24A331B32D51
:104B58003508AA0034089C27A33131252000E0003D
:104B6800CD01CD0A210033082000CE00600897311E
:104B78007E2FBD000B302000B400B330B5005F308D
:104B8800B60194318C24A331E0008C30B400B230EB
:104B9800B50021003A08C72794318C24A331E007D7
:104BA80080308E31C526A33120006008C40008304B
:104BB8009F31CE27A3318E31D326A33121003D0862
:104BC800B1000230B200B3008B26C0308E31C5264A
:104BD800A331102E3D08B1000230B200B301B30A70
:104BE8003126A33121003D08B1000230B200B300E4
:104BF8009425A3312A2E3D08A5000230A600A7015E
:104C0800A70AAD26A33121003D08B1000230B20049
:104C1800B3000527A3312A2EED302000B200013061
:104C2800B3000230B400AE316C26A3312100BB00C2
:104C3800BC013C08003A0319222E2A2E3B08003AF0
:104C48000319EE2D013A0319FF2D2A2E21003D08E4
:104C58002000D40000308431D42C32082000CC004D
:104C6800210031082000CB008631A026A3314C0852
:104C78002100B90020004B082100B8009227A33179
:104C880000303502053003193402031C522E00305F
:104C980039020330031938020318572E8A27943132
:104CA8008C24A331812E38082000BE002100390849
:104CB8009F31D327A3319227A33134082000B200B3
:104CC800210035082000B3006430AF279E31E82664
:104CD800A3318631F526A3318F310127A3313F084F
:104CE8002100B70020003E082100B6003708AA00BE
:104CF80036089C27A33131252000E0000330CD0081
:104D0800210033082000CE00600897317E2F32083A
:104D18002000CC00210031082000CB008631A026DD
:104D2800A3314C082100B50020004B082100B40035
:104D38003508AA0034089C27A33131252000E0005B
:104D48000830CD00210033082000CE0060089731DC
:104D58007E2F3C309A316B22A33125088600260825
:104D6800870048318F319527A3318F310127A3312F
:104D78003F08DB003E08DA003C30B200B3015B08B4
:104D8800B5005A08B40097315927A33132082100D9
:104D9800A800200033082100A900AA01AB012B08B4
:104DA800A3002A08A2002908A10028089F31F0279B
:104DB800A3318F314027A3318F31D327A3313A3024
:104DC80081003C30E00AB200B3015B08B5005A0824
:104DD800B400AF31A327A3313208AF318627A331FE
:104DE800BE0060085F3EAE31BE26A331E00AE00A8D
:104DF8009731E527A33127082000C6005F308E31A0
:104E0800D32EBC27310886003208870046319731F7
:104E1800EB27A33197315927A3319731BD27A33108
:104E28005F30AB01AB0A31252000E0000630CD0031
:104E3800210033082000CE00600897317E2FD5016D
:104E4800D601A827A331CD00413FCE00423FCF0075
:104E5800433FD0004F044E044D040319742F4B08F0
:104E680086004C08870079279E31E826A33135084B
:104E7800D4003408D3003308D2003208D10023000C
:104E88008F318527A3314B0886004C0887004231B3
:104E980079279E31E826A3318631F526A3318F3153
:104EA8000127A3313E08D1073F08D23D4008D33D32
:104EB8004108D43DA827BE00413FBF00423FC00083
:104EC800433FC1005408C5005308C4005208C3003A
:104ED8005108C2008F3101273F08D6003E08D5008F
:104EE8005608CC005508CB000800403FCD00413F94
:104EF800CE004D08B2004E08B3008C30B401B501A5
:104F0800B901B801B700A030B60008001130200080
:104F1800B400B330B5005F30B60108003108860030
:104F2800320887004631403FB400413FB5000800D1
:104F3800A9005F30AB01AB0A08002E083007AC00AF
:104F480086000130870008004B0886004C0887005F
:104F58004831403F0800B401B501B600B701B801B7
:104F6800B9010800840001308500000881000800AC
:104F78000A302000B200B3012100080023004E08C7
:104F88000139503808002000B60060085F3E08006C
:104F9800B30019302000B200B30123006A082100D1
:104FA800B200230069082100B100B135B20DB13556
:104FB800B20D31082000B400210032082000B500ED
:104FC80097315927A33133082100B5002000320852
:104FD8002100B4003508AA0034088F31E427A33132
:104FE80031252000E0000D30CD00210033082000DD
:084FF800CE00600897317E2F06
:1057EC00C200C3014008860001308700423FBE0062
:1057FC004208BE265730C30AC30AB400B130B50004
:10580C004008033E91318821AB31CE26B6004208C8
:10581C00430794318C24AB31C307DA27AB312730E3
:10582C008100C30A40088600443FBE00420843077B
:10583C00BE26AB31C30AC30ADA27AB312030810054
:10584C00C30A40088600413FBE0042084307BE26FB
:10585C00AB31C30AC30ADA27AB313A308100C30A31
:10586C00400886000108BE0042084307BE26C30A52
:10587C00C30A4308080064262F302000CD00B23044
:10588C00CE009631EA26AB31003A0319DE2CD70153
:10589C00D3018531E225AB310530FD007D080319BC
:1058AC00D12C721157302000B2000030B3000530FB
:1058BC00B401B50097318D27AB31721FB82CD301D1
:1058CC00D30A862CE330D60017306F2CE230D6008A
:1058DC003B30D401842CE530D6001F30822CE630CE
:1058EC00D6000C30822CE730D6001630D400203095
:1058FC00842CE430D6000730D401D40AD500982C7F
:10590C005708D100D2015208003A03198E2C982C5A
:10591C0051088400063004020318982C9031043589
:10592C00003E820056088600013087005408BE00F5
:10593C005508BF0056088400013085000008232557
:10594C00AB318100023057060319B42C03305706D3
:10595C000319B42C04305706031DB62CE230312544
:10596C000530FD000C308E31C526AB31E230E02421
:10597C005708053E8400B3300318013E850000082B
:10598C008E31C526AB310F308E31C526AB319F31F0
:10599C00C127AB31542C0C308E31C526AB312000D5
:1059AC0053080319DC2CE23091311F2172150800C9
:1059BC00E230E02C2000D00080308E31C526AB3197
:1059CC00EB27AB310108CD00CE01CE0A500A860080
:1059DC0001080C2588308E31C526AB31EB27AB3155
:1059EC00443FCD0050088600453FCE005008033E92
:1059FC00860001088F26C0308E31C526AB312000C1
:105A0C005008023E91318821AB31C32F2000CF00CA
:105A1C00BE005F30BE26AB313A302200E1002000E0
:105A2C004D08BE006230BE260530C4000830C500EB
:105A3C004E08C6005F308E31D32EC100CE26AB315E
:105A4C00C200C20AC0003F084002031C2F2D3E08B2
:105A5C00C2004208862FC300403086000330870006
:105A6C0035308400003085000C30B40016001A006C
:105A7C00B40B3C2D4308053E91318821AB31CE2629
:105A8C00C2004308043E91318821AB31CE26C100BF
:105A9C004208C4004208B400B436B4363408C40713
:105AAC004308033E91318821AB31CE26AB31C4077C
:105ABC004108FF3E353E860087010108C4074208B5
:105ACC000339031D6E2D0330410203186E2DC403E0
:105ADC0007304402031C752D0730C4026E2D430899
:105AEC00023E8600013087004408013E8100080018
:105AFC0067302000B2000030B3000530B4006C26D3
:105B0C0080308E31C526AB319F31E327AB3167082E
:105B1C00013EB6005F3094318C24AB318F317E273F
:105B2C00AB318E31D326AB316708031DAA2DAA30B9
:105B3C002100AB002E26AB314C082100A600200022
:105B4C004B082100A500B82D6708090709070907AC
:105B5C00A23E2100AB00860002308700403FA5002A
:105B6C00413FA6002508A00026088F31AA27AB319B
:105B7C008F314027AB31E00067080319C72D08307F
:105B8C00C82D05302100A7002000BD00600895310C
:105B9C008C25AB31E00760085F3EE127C030E00A9E
:105BAC008E31C526AB31D2278E31D326AB312100B5
:105BBC002B08033E860002308700403FA800413F7F
:105BCC00A900423FAA00C8308E31C526AB31210056
:105BDC0029082000CD0021002A082000CE00210039
:105BEC0028088F26AB31F6279631EA26AB31003ADE
:105BFC00031908006426AB31200067080319082E2E
:105C0C00670B112E2500A001A101A201A301A40183
:105C1C00A501A601A70121002B08860002308700F0
:105C2C000030C03FC13F2B08033E860023006508AF
:105C3C00810021002B08043E8600230066088100A9
:105C4C0021002B08053E8600230067088100080010
:105C5C002300CE1D492E20000130C101C000773039
:105C6C00BF000430BE01A03E860002308700403FDA
:105C7C00C200413FC300423FC400433FC5008F31C7
:105C8C000127AB31F12F20000E30C101C001BF0044
:105C9C001030BE00250023082000C5002500220876
:105CAC002000C400250021082000C3002500200886
:105CBC002000C2008F310127AB31F12F2000620888
:105CCC00031D08000A30E200E230DC2E721F7C2E2D
:105CDC00721332088600330887000108013EB500B4
:105CEC0032088600330887003508810032088600A8
:105CFC003308870034080102320886003308870015
:105D0C00031C8D2E810132088600330887000108A0
:105D1C0008002000CF004F080319962E4F0FA02E1D
:105D2C00D630B400B230B5005F30B60194318C245B
:105D3C00AB31B82E4F08BE005F30BE26AB315730AA
:105D4C00B400B130B5004D08CE26B60061309431A8
:105D5C008C24AB3127302200E40020004E08BE001A
:105D6C006530BE260830C4009F31CE278E31D32E2D
:105D7C00BF003F0A8600013087003E080F39303ED5
:105D8C0081003F0886003E0E0F39303E810008002E
:105D9C00B300B2000F30B2057830B336B305330818
:105DAC00B207B336B336320833070800B800803078
:105DBC00B700D0305927AB31003A031D1F2F0030EC
:105DCC0091315021AB31D1305927AB3100304527BF
:105DDC00AB31B7003808E727AB314527AB31810031
:105DEC00380AE727AB314527AB3181003808023E32
:105DFC00E727AB314527AB3181003808033EE72755
:105E0C00AB314527AB3181003808043EE727AB3175
:105E1C004527AB3181003808053E860001308700EC
:105E2C004527AB3181003808063E860001308700DB
:105E3C0081177927AB312000B71F08003808E127FC
:105E4C00380A8600193081003808023E8600063078
:105E5C0081003808033E8600163081003808043E65
:105E6C008600093081003808053E8600223081000A
:105E7C003808063E86008113380891311F29B3007B
:105E8C000830B400B501B5356827AB31B504B40B97
:105E9C00492F330891316621003200320000200076
:105EAC008D10350808002000B5008D14003200005C
:105EBC00FB27AB310530890B612F003220003508F0
:105ECC00913150298D100530890B6A2F0032210039
:105EDC000D1420008D140330890B722F000020004C
:105EEC000D0801390800FB27AB310530890B7C2FDD
:105EFC00003220008D140032000021000D14080027
:105F0C00BB00BC000A30BD01B200B3013D08B500B6
:105F1C003C08B400A3273208B9003308BA000A3091
:105F2C00B200B3013D08B5003C08B40097315927C5
:105F3C003208890EF0393907080032083304031986
:105F4C00BE2FB601B60AB31BAE2FB235B30DA82FB8
:105F5C0033083502031DB42F32083402031CBA2F48
:105F6C003208B4023308B53BB336B20CB60BAE2FC5
:105F7C003508B3003408B2000800CD001D30B40061
:105F8C00B130B5004D08B6005F3094318C24AB3184
:105F9C008F317E278E31D32E20006008C40008304C
:105FAC00C5000230C6005F3443084207C1008600BA
:105FBC000130870008008600013087002030810006
:105FCC00080086000130870000342000500886004D
:105FDC000130870008003F08CC003E08CB000800C9
:105FEC00FE30CD00B230CE00080021000D10200094
:105FFC000D10080000346634753465346C3420346C
:10600C0063346F346E347334743461346E3474347A
:10601C000034763473347334203463346F346E3418
:10602C007334743461346E347434003474346F34B7
:10603C00743461346C342034743472346934703494
:10604C00003476346F346C347434613467346534B2
:10605C002034613464346A347534733474340034E9
:10606C00733465347434743469346E346734733413
:10607C0020346234693474347334003474346534C9
:10608C006D3470342034733465346E3473346F343F
:10609C007234733400347334653472347634693446
:1060AC0063346534203463346E3474347234733432
:1060BC0000346D3469346E34203473347034653488
:1060CC006534643400347334773420347634653476
:1060DC007234733469346F346E3400340034703479
:1060EC006134693472342F34703461347234203436
:1060FC0069346E346A3400346D3469347334633407
:10610C002034733463347234653465346E34003443
:10611C006B3465347934203473346F3475346E34A5
:10612C00643400347334653472347634203461341E
:10613C006C34613472346D3400346D346834203412
:10614C00723470346D340034743472346934703495
:10615C002034423420346D346F346E3474346834EB
:10616C000034743472346934703420344334203441
:10617C00643461347934003469346E342F346F34C0
:10618C00753474342034743465346D3470340034A4
:10619C00643473343334323433343134203474341F
:1061AC0065346D3470340034003400340034003401
:1061BC00003400340034003465346E346734693490
:1061CC006E346534203468346F34753472347334FF
:1061DC00003465346E34673469346E34653420347D
:1061EC006F3469346C340034673465346134723420
:1061FC0062346F34783420346F3469346C34003446
:10620C006134693472342034663469346C347434D7
:10621C0065347234003473347034613472346B34DA
:10622C00203470346C347534673473340034003477
:10623C00733475346E3464346134793400346D34B1
:10624C006F346E346434613479340034743475349E
:10625C0065347334643461347934003477346534A0
:10626C0064346E346534733464346134793400349A
:10627C0074346834753472347334643461347934FE
:10628C0000346634723469346434613479340034E3
:10629C0073346134743475347234643461347934E5
:1062AC00003400346A3461346E340034663465343E
:1062BC00623400346D3461347234003461347034BF
:1062CC00723400346D346134793400346A3475348A
:1062DC006E3400346A3475346C3400346134753483
:1062EC006734003473346534703400346F34633481
:1062FC00743400346E346F34763400346434653462
:10630C00633400340034633475347234723465345D
:10631C006E34743420347434723469347034003410
:10632C00743472346934703420344134003474342D
:10633C007234693470342034423400346134633440
:10634C00633465346C3420346C346F3467346734A4
:10635C00653472340034FF3400340134FF340234B9
:10636C000334FF3404340534FF3406340734FF346B
:10637C006834FF346C34FF345634FF346B346D3472
:10638C00FF347334FF34DF34FF343E34FF343C3499
:10639C00FF346D347334FF34FF3400342034303424
:1063AC002D343134303430340034203430342D3406
:1063BC003634303400342034363430342D343134E7
:1063CC003034303400342034383430342D343134DB
:1063DC003234303400340134BC341B340234DF34F6
:1063EC001B340334B3341D340434AB341C34053443
:1063FC00C9341B340834A6341B3406349634153493
:10640C000734BD341C34093494340B3400342D342B
:10641C002D342D3400346F347534743400346934B5
:10642C006E340034203465346E34673400340034F8
:10643C006E346F342034733465346E3473346F348B
:10644C0072347334203466346F3475346E3464347F
:10645C000034743469346D346534203463346F34EF
:10646C007234723465346334743469346F346E341A
:10647C003F340034313439343A343234303420340B
:10648C00313436342E34303439342E3432343034D2
:10649C00323432340034C2342334B43423349A3496
:1064AC001334B0342334AC34233441342C347E34A0
:1064BC002D34CF340C346A346F34753472346E34FA
:1064CC0061346C3420347634693465347734653413
:1064DC007234003477346134693474342034663463
:1064EC006F347234203473347434613472347434D1
:1064FC00003400341F343B345A3478349734B53478
:10650C00D434F334113430344E346D3400346334B9
:10651C007534723400346434613479340034413469
:10652C0000344234003463346F346E34663469346E
:10653C00673420346D3465346E3475340034633410
:10654C006F346E3474342E342034643461347434C7
:10655C0061340034003420346F34663466340034D3
:10656C00203420346F346E3400346E346F34203465
:10657C006934743465346D34733400344A344F34B4
:10658C005534523454345234493450340034743405
:10659C002E34733465346E3473346F347234003487
:1065AC002D342D342D342D342D3427342D342D34DD
:1065BC0000347734613472346E3469346E34673439
:1065CC000034743469346D3465346F347534743418
:1065DC00003476346F346C3474346134673465341D
:1065EC000034743469346D3469346E346734003477
:1065FC00723465347334653474343F34003481340C
:10660C00843489348C348F34C034743472346934A7
:10661C007034203400342D342D342D342D3400348A
:020000040001F9
:04000E00C23FFF1ED0
:10E00000C600D200040000008200390080003E00FB
:10E010006D00AC000000E6001300250000000000C9
:10E02000A10000003700330005003800EF000700B2
:10E03000AC004E0000000000850001004400060016
:10E0400055004D001F0013002600BF000000000017
:10E05000180000004C001700630010002E000100A3
:10E0600026000C0000000000180017001600090030
:10E0700022006D0003000900000000000000000005
:10E080002E009B00000000005500C7000C0000009F
:10E09000000000003F0001000A0003000900220008
:10E0A0000000000092001F0028000700110021005E
:10E0B00000000000F90031000A00210003002000E8
:10E0C0000000000064003D000A000700010021007C
:10E0D0000000FF0000000000000000000000000041
:10E0E00028008A0009009500F00001003C00FC00B7
:10E0F000FF00FF00FF00FF00FF00FF00FF00FF0028
:10E10000FF00FF00FF00FF00FF00FF00FF00FF0017
:10E1100005000600050000000000000001000200EC
:10E120000A0015001500000010000500070001009E
:10E1300007000500070000000000010002000000C9
:10E14000000000000800100000000A001500150083
:10E150000C00140014000100020005000100010081
:10E16000000000000000000000001F0015001F005C
:10E17000030005000500000000000100020000008F
:10E180000000000008001000000014001C00040043
:10E19000AE00EF0000000000090056002D000A004C
:10E1A0000000090000000C0000000C000900000045
:00000001FF
