:0400000044EF00F0D9
:100008007D82FACF24F0FBCF25F0D9CF26F0DACFC6
:1000180027F0F2A014D08152F290CECF5EF0CFCF6D
:100028005FF0A1A008D0CF505F1805E196EC1CF056
:10003800ACEC1CF0588833EC15F097EC17F0F2A4F0
:1000480003D0F294E0EC1AF0A1A00BD0A19058B81C
:1000580005D096EC1CF0ACEC1CF001D058989BEC49
:1000680003F09EAC03D09E9CE4EC1FF027C0DAFF9F
:1000780026C0D9FF25C0FBFF24C0FAFF7D921100DE
:10008800F9EF11F06CD968EC03F060EC19F05FD966
:10009800BFEC20F037EC11F0BFEC20F059AC1200A7
:1000A800599C0001E56B080E6D6E4BD1E50E286E6C
:1000B800296A8FD97AEC1FF052D968EC03F060EC0A
:1000C80019F045D9BFEC20F00001E529BAEC1FF082
:1000D80073D963D960EC19F068D9C00EBFEC20F071
:1000E80059AC2DD1599C00C1F2F001C1F3F002C105
:1000F800F4F003C1F5F00001E551020DBB0EF32445
:10010800D96E010EF420DA6EDF50F26FE5512DD969
:10011800F36FF46BF569DF6B080E6D6E09D10001A2
:10012800F22901E1E7D0F40E286E296A2A6AF3055C
:100138002B6E7AEC1FF00001F451F51924E0F20E51
:10014800D06FE5C0D1F0B1EC12F0D0C0E0F0D1C072
:10015800E1F0F4C0F5F0E0C0D9FFE1C0DAFFA50E88
:10016800DE1804E0F45102E1F2690DD0DF6B030EF2
:10017800E51905E1E0C0E2F0E1C0E3F004D0E0C039
:10018800DDF0E1C0DEF0F22901E1B4D0030EE5199B
:100198003FE1E229DB6F000EE321DC6F9D0E326E3A
:1001A80020EE06F0E251EAD800EC14F005D9D96E39
:1001B800DA6A2D0EDF6EE42BE4519D0F326E20EECD
:1001C80007F0E251DBD800EC14F00001E427E4C0AA
:1001D80033F0010E346EC00EAEEC20F0000120EEBC
:1001E80008F0E251D926E351DA22DECFD9F0DDCF8B
:1001F800DAF0D9C040F0DAC041F0EFD815EC17F0CA
:100208000001E46FE4C04CF0C1D856EC17F054D0AC
:10021800DD29DB6F000EDE21DC6FE60E4D6E4E6AC7
:10022800060EDD254F6E000EDE21506E0CEC05F03B
:1002380037D0E6C0C3F0E7C0C4F0C3D88CD80CEC04
:100248001BF0EAC0C3F0EBC0C4F0000174EC0BF083
:100258006CEC03F00CEC1BF02FD0E8C0C3F0E9C045
:10026800C4F0C56B810EC66FE10E75D80CEC1BF09F
:10027800E60E3B6E3C6A020E3D6EC80ED7EC17F0D8
:100288001BD0ECC0C3F0EDC0C4F0C56B010EC66F47
:10029800E60E61D80CEC1BF098D8AEEC20F00CD030
:1002A8000001DF51D96FDA6BDA5106E1D951C1E0AB
:1002B800010AD3E0030AE5E00001F429BAEC1FF0D3
:1002C8007BD8366EDBC037F0DCC038F009EC13F0B1
:1002D8006CD8800EBFEC20F059AC0CD0030E000196
:1002E800E51905E0DF2B020EDF6501D0DF6B080E94
:1002F8006D6E5B8C0001F22919E19D0E4ED860EC01
:1003080019F025D8BFEC20F09D0E2A6EB30E2B6E87
:100318007F0E68EC03F060EC19F0336E34EC11F0EA
:10032800BFEC20F059AC02D06D6A5B8CCEEC21F0AA
:100338005B9C6D5001E0F3D65B8C080E6D6ECEECC5
:1003480021F05B9C6D5001E0B1D65B8C1200336EDE
:10035800010E346E800CC76F010EC86FC00C9D0E65
:100368002A6E5D0E2B6E7F0E1200020DBC0EF3245A
:10037800D96E010EF420DA6EDF501200D926E3514F
:10038800DA22DF50336E346A356A12000E0E4D6E73
:10039800090E4E6E020E4F6EC80C2A6E910E2B6E11
:1003A8007E0E2C6EE5292D6E12000001E427E4C0B4
:1003B80033F0010E346E010C0001E46FE4519D0F1F
:1003C8001200C56B010EC66FE80C336A020E346E5C
:1003D800C80C2A6A030E2B6E030C426A020E436E87
:1003E800020C59AA04D03C0E6D6E0001971F6D5087
:1003F80005E058A605D0330E6D6002D00001976B5A
:1004080080D9270E4F6E010E506E0CEC05F00001DE
:1004180097515EE132EC08F0DF9A58B60AD0B8EC92
:1004280021F084C136F083C137F07ED9DCEC1EF0B0
:100438000ED01BC241F01CC242F05FD964EC1FF021
:100448003BD9C76F010EC86F800E0CEC1BF058A685
:100458005BB60DD0B1C0C3F0B2C0C4F0B3C0C5F034
:100468000001C66BE80E52D90CEC1BF00CD01DC273
:10047800C3F01EC2C4F00001C56B800EC66FE20E49
:1004880045D90CEC1BF058A65BB609D048D9C00E6C
:1004980042EC0CF00AD9C80E91EC1EF011D0010EF6
:1004A8000001CE6FC00E09EC16F021C2C3F022C2C3
:1004B800C4F078EC0BF0C251E0090AD90CEC1BF03F
:1004C8005BA85BA6120059A8120059984EEF16F0C7
:1004D80032EC08F0DF8A58B404D01B0E6A6001D0F1
:1004E8006A6A8B0E286E010E296EEDEC01F07AEC2B
:1004F8001FF059BE02D059ACC4D03C0E6D6EC1D0AD
:100508000ED9800E42EC0CF0D0D8880E91EC1EF07B
:100518006BEC0BF0AFEC01F00CEC1BF082EC0BF089
:10052800000174EC0BF0D4D80CEC1BF046EF1DF076
:1005380059A80BD059985BA65BB802D02CEC06F0F2
:100548003C0E6D6E5B8C46EF1DF0C00E526E020EB7
:10055800536E800E42EC0CF0336A020E346E880E35
:10056800AEEC20F0C10E526E020E536EC00E42EC7D
:100578000CF0A20E526E020E536EC80E42EC0CF036
:1005880046EF1DF059A80CD0A7D827EC1DF000099C
:1005980005E0C0D87BC079F07CC07AF03C0E6D6E67
:1005A8009D0E2A6EDE0E2B6E7F0E8ED860EC19F033
:1005B800336E8CEC0BF0AEEC20F077D8880E91EC13
:1005C8001EF0790E526E0B0E536E010E546EC00E55
:1005D80091EC1EF07B0E526E0C0E536E020E546E92
:1005E800C80E91EC1EF046EF1DF059A80BD074D838
:1005F80027EC1DF0000904E00101706BAFEC13F06B
:100608003C0E6D6E9D0E2A6E940E2B6E7F0E5CD87E
:1006180060EC19F0ABEC01F0BFEC20F059A019D058
:1006280023C241F024C242F068D864EC1FF044D8D9
:10063800AFEC01F00CEC1BF025C2C3F026C2C4F0ED
:1006480078EC0BF0C151E00943D80CEC1BF046EFF5
:100658001DF047D839D860EC19F00001F66FF6C0E4
:100668004CF045D856EC17F0F6C04CF00E0E4D6E17
:10067800030E4E6E020E4F6EC80E56EC17F046EF84
:100688001DF001018B510001F46FF56BF5510BE181
:10069800F45101E135D7010A01E174D7030A01E1F8
:1006A80047D7010AA2E046EF1DF0770E526E0E0EF4
:1006B800536E020E546E020C41C0C3F042C0C4F027
:1006C8000001C56BC66BE10C2C6E000E2D6E000C84
:1006D800C76F020EC86FC80CED0E366E7F0E376EF0
:1006E80012009D0E2A6EFA0E2B6E7F0E12000E0E51
:1006F8004D6E010E4E6E4F6EC00C446A0A0E436E6C
:100708000A0C270E4D6E020E4E6E1200C76F020EB7
:10071800C86F880C77C07BF078C07CF0120065C089
:1007280052F0010E536E010C010E386E800C6F50A2
:100738002BE181B40AD0650E686001D0682A640E86
:1007480068180CE1598A598409D0040E686405D0E8
:10075800150E686002D0598E5986686A81B60AD02B
:10076800650E676001D0672A640E67180EE1598824
:1007780059840BD0040E676405D0150E676002D04B
:10078800598C5986676A01D06F0659B602D059A4A8
:100798000DD059A602D0766A04D059A402D0010E11
:1007A800766E599659940F0E6F6E5B8C5AAE08D0C0
:1007B8006E2A1A0E6E1805E15B8C6D6A5A8C01D090
:1007C8006E6A0001FE2FC7D0640EFE6F5B8C5BB6AD
:1007D80002D05BA837D001013B2B000E3C233D2300
:1007E8003E23172B182319231A23232B24232523CD
:1007F80026232F2B302331233223090E70610AD090
:100808007951775D7A51785903E2774B782B02D08A
:100818003FEC1EF0710E016E010EF4D837EC09F0B2
:1008280001C009F102C00AF16B0E016E010E026EE1
:1008380062C003F063C004F037EC09F001C085F032
:1008480002C086F00001BCAD0BD0F50E016E010EA2
:10085800D9D837EC09F001C00DF102C00EF104D06F
:1008680060C00DF161C00EF15BB603D001010D6BE4
:100878000E6B606A616A625063105EE0625000014C
:10088800B5276350B623B751B55DB851B65914E3CF
:1008980020EEB7F0DE50B55FDD50B65BB12B000E31
:1008A800B223B323B4230101414B422B474B482BBE
:1008B8004D4B4E2B534B542B625001011127635063
:1008C80012230001B7510101115D0001B851010166
:1008D800125908E320EEB7F0DE50115FDD50125BCD
:1008E8000F4B102B62501D2763501E230001B75178
:1008F80001011D5D0001B85101011E5908E320EEF8
:10090800B7F0DE501D5FDD501E5B1B4B1C2B625089
:10091800292763502A230001B7510101295D0001ED
:10092800B85101012A5908E320EEB7F0DE50295FDB
:10093800DD502A5B274B282B62C087F063C088F004
:10094800626A636A6A5001E06A066B5001E06B06EE
:100958006D5001E06D066C5001E06C065AA203D0A0
:1009680000018F4B902B762828E00001BCBB03D0F8
:10097800020E761821E15982589E11D0010E9B6F04
:10098800080E9A6F996B18D0010E9B6F280EF9D735
:10099800030E9B6F1E0E9A6F140E996F0DD076C0C2
:1009A80020F0216A20BE2106215006E12050E6E011
:1009B800010AEAE0030AECE0766859A2120058BE80
:1009C80004D0588E588A9BC098F058AA0BD0589AD1
:1009D8000001985103E15992589E04D09807588C09
:1009E8009AC066F058AC06D0665003E1589C99C08E
:1009F80066F0828058BC04D0665001E1588A829023
:100A080066061200026E60C003F061C004F01200B6
:100A18001AD9DECF47F0DDCF48F0E5EC0CF034EC26
:100A280020F047C0CFF048C0D0F020EE02F04F5081
:100A3800E3D8D7D80A0E95EC11F04BEC1CF0C8D8C7
:100A480021EC09F04FEC18F034C0D1F035C0D2F0E9
:100A58000001D151CF25C36FD251D021C46FE9D83D
:100A6800C3C0DEFFC4C0DDFF20EE06F0CED8DECF67
:100A780041F0DDCF42F081EC03F064EC1FF020EE92
:100A880006F0BED8DBD820EE08F0BFD8DECF34F0B1
:100A9800DECF35F0DECF36F0DECF37F03C0E89EC16
:100AA80011F04FEC18F020EE08F0AAD834C0DEFFA1
:100AB80035C0DDFF20EE08F0A8D8DE50DE10DE10CD
:100AC800DE104DE0C0D88DD8A5D84BEC1CF028C05E
:100AD800C5F029C0C6F02AC0C7F02BC0C8F021EC69
:100AE80009F020EE02F091D8DECFC9F0DDCFCAF0D0
:100AF800C9C028F0CAC029F02A6A2B6A8BD84BECE7
:100B08001CF066D84FEC18F034500001C525CB6FA7
:100B18003550C621CC6F3650C721CD6F3750C8210C
:100B2800CE6FCBC034F0CCC035F0CDC036F0CEC0DF
:100B380037F020EE08F069D8DECF38F0DECF39F094
:100B4800DECF3AF0DECF3BF04FEC18F081EC11F03D
:100B580064EC1FF020EE02F053D870D805D020EED8
:100B680002F04ED8DE6ADD6A20EE06F049D8010EA2
:100B7800DB5003E1050EDE5C07E35BD8010EDB50BA
:100B880009E1030EDE5C06E220EE04F039D8DE6AE5
:100B9800DD6A000C20EE06F04F502ED822D842D83D
:100BA8004BEC1CF015D845D8DECFC5F0DDCFC6F02C
:100BB800C5C038F0C6C039F03A6A3B6A4FEC18F045
:100BC80081EC11F064EC1FF020EE04F019D836D057
:100BD80028C034F029C035F02AC036F02BC037F0D1
:100BE8001200DECFC3F0DDCFC4F0C3C028F0C4C00C
:100BF80029F02A6A2B6A1200D9265050DA221200EC
:100C08004D50D9264E50DA2212004F50D926505056
:100C1800DA221200400E2C6E7E0E2D6E050E2E6E00
:100C28002F6A050CE80E2C6E030E2D6E2E6A2F6AA5
:100C3800030C4DC0D9FF4EC0DAFF120041C0DEFFE1
:100C480042C0DDFF12004FC0D9FF50C0DAFF1200CA
:100C580021EEB0F010EEE6F0050EDBCFE3FFE8067C
:100C6800FCE20001EE6BEF6BF06BF36B59B2FED751
:100C7800F29ECE0E386E030E396EBBEC1CF00001EE
:100C8800ED6FF28EE3EC21F0579C640E6C6E080E4B
:100C98006D6EB4D00001ED5175E057BC17D06C50A3
:100CA80015E1578CF16BF151080DF350CE0FA9ECFB
:100CB80012F0C3EC15F005E30001F151D4D8A4EC0F
:100CC80012F00001F12B020EF165EDD7F30E286E3C
:100CD800296A2A6AED052B6E7AEC1FF059AC0AD006
:100CE8000001BCD8DF2A040EDE1802E1B7D8DF6A9B
:100CF800080E6D6EA6D89DEC20F057AC0DD0000103
:100D0800F351B1D8DECFEEF1DDCFEFF1030E526E25
:100D1800536AFF0E42EC0CF09D0E2A6EBC0E2B6E31
:100D28007F0E68EC03F060EC19F00001F351310F0D
:100D3800A66F2F0EA76FED51300FA86F9ED8BFEC8E
:100D480020F00001F351080DF350CE0F286E9D0ED0
:100D5800296EDFEC1CF0A90ED4EC0CF0F35179D815
:100D6800546E54282D6E60EC19F00001EC6FA90E3A
:100D78003B6E200E3C6EECC03DF0040E3E6E21EC46
:100D88001FF019D044EC08F02B6E7D0E2C6E060E69
:100D98002D6E60EC19F0ABEC01F0BFEC20F051D8EF
:100DA8009DEC20F09D0E2A6E2A0E2B6E7F0E68ECAD
:100DB80003F060EC19F05DD8BFEC20F070EC03F0A4
:100DC80027EC1DF0000918E0010E0001EE6F020E7D
:100DD800EF6F030EF06F810E0101E96FE86FEB6FA3
:100DE800EA6FED6FEC6FCE0E286E296A2A68180E2E
:100DF8002B6E9DEC20F06D6ACEEC21F05B9C6D5063
:100E080001E048D75B8C0001F26B020EF26501D05D
:100E1800020CF2511ED812E0F251080DF350CE0F19
:100E2800546E54C02BF02C6AF25113D8080DF350AD
:100E3800580F2D6E080E2E6E38EC1FF00001F22BA5
:100E4800E4D79D0E286E296A200E2A6E100E2B6E8E
:100E5800100CEE0FD96EDA6ADF501200F351EE0F64
:100E6800D96EDA6A1200020DF350E60FD96EDA6A0B
:100E78001200100E336E346AC00C100E336E346AD2
:100E8800800C0001FD6BFA6BFB6BFC6B95EC19F0A9
:100E9800CD80F28E010E6A6E0001BCA907D07CECF1
:100EA80015F00001F86FF85187EC1AF077507810B8
:100EB80002E15BACFBD75B8C5BAC05D05B9C8FEC39
:100EC8000BF013EC18F05ABC8AEC18F06A5002E1E7
:100ED80056EC12F057BA21D0060E0001FC6FFD51F6
:100EE800030DD30EF324836F010EF420846FB6D85C
:100EF800DFBE05D058A608D0B1D8DFBC05D0FD2B81
:100F0800FC29FD1901E1FD6BA9D8DFBEE8D758A679
:100F180018D0A4D8DFACE3D714D0080E0001FC6FBA
:100F2800FD51030D000EF3245C6E020EF4205D6E7D
:100F3800FDC0F7F09AD8F73BDF50F7190F0BF719F8
:100F4800DF6E57B621D057A859A81FD057AA5BB64D
:100F58000ED05BB80CD082D8DFA809D07FD8DFBA12
:100F680006D0FDC0FAF0FBC0FDF0578A0BD057AA97
:100F78000CD0FDC0FBF0FAC0FDF00AEC22F07BECCF
:100F880020F0579A578601D0579657B65FD057B872
:100F980015D0FDC0F9F057BA03D060D8DFBA08D031
:100FA800FD0E286E296A2A6AFCC02BF07AEC1FF025
:100FB8000001F951FD1905E0578803D001018C6B38
:100FC800579857B843D057AA2ED035EC1BF059ACD8
:100FD8003DD0599C89EC21F0080E6D6E1FD050D879
:100FE8004BD843D851D860EC19F0ABEC01F0BFEC0A
:100FF80020F05CC0D9FF5DC0DAFF01D80AD0050037
:10100800FA6EDE50FD6EDE50FE6EF850FF6EFA503E
:1010180012000C0E3AEC21F0CEEC21F05B9C6D50E6
:10102800DEE15B8C13D083C0D9FF84C0DAFF01D81E
:101038000AD00500FA6EDE50FD6EDE50FE6EF850E6
:10104800FF6EFA5012000C0E3AEC21F046EC1DF03F
:101058005BAC57B631D757A8FBD72ED720EE02F096
:101068008351D9268451DA22120020EE02F05C5016
:10107800D9265D50DA2212002B6E7D0E2C6E1200DE
:101088009D0E2A6E110E1200DF500F0B2D6E1200EE
:10109800E36F9D0E2A6E6C0E2B6E7F0E68EC03F0CC
:1010A80060EC19F0DCD8BFEC20F05A985A96000191
:1010B8008F6B906B58925890579EE351080D900E85
:1010C800F324D96E010EC0D8B8D84FEC18F034C04C
:1010D80093F035C094F00001E351080D940EF32409
:1010E800D96E010EB1D8A9D84FEC18F034C091F0E0
:1010F80035C092F09D0E286E296A3D0E2A6E100E9C
:101108002B6E9DEC20F046EC1DF0100E6D6E6C6A97
:101118005A848CD06D500FE05AB00DD06C5001E05D
:1011280085D0190E6C6E6DC033F0030E346EC00E90
:10113800BFEC20F07BD06D5050E05AA657BE05D0CA
:101148001E0E6D6E578E89EC21F05AB004D0000146
:10115800E16BE26B27D071D8800E346E460E356E87
:101168001C0E366E860E376E4FEC18F034C0DDF06C
:1011780035C0DEF036C0DFF037C0E0F0DDC034F057
:10118800DEC035F0DFC036F0E0C037F08DC038F093
:101198008EC039F03A6A3B6A4FEC18F034C0E1F07F
:1011A80035C0E2F09D0E326EE1C033F0E2C034F09B
:1011B800356A00EC14F04C6E7BEC03F056EC17F03B
:1011C8008FC040F090C041F0F1EC01F015EC17F041
:1011D8004C6ECAEC01F056EC17F06D5007E05AB6A9
:1011E80005D00B0E6C6E6C5021E0FDD75AB658B284
:1011F80002D058821BD05A946D500EE19D0E2A6E73
:10120800D60E2B6E7F0E68EC03F060EC19F0B0EC94
:101218001AF0BFEC20F004D00001E35191EC16F075
:10122800020E766E0A0EF7EC21F0588058A059BECF
:1012380002D059AC6FD75A941200B7C038F0B8C072
:1012480039F03A6A3B6A1200F420DA6EDECF34F0E5
:10125800DECF35F0DECF36F0DECF37F01200336E5A
:10126800030E346E800CC0D815E10350056E04508F
:10127800066E076A086AC5D805C0DEFF06C0DEFF2D
:1012880007C0DEFF08C0DEFFBCD8DECF01F0DDCF2F
:1012980002F0120020EE04F0AFD8DFAE24D020EE2A
:1012A80004F0AAD87F0EDF169FD873E09DD8056E8C
:1012B80003C006F004C007F0052A03D0D89006360C
:1012C8000736052EFBD70650086E0750096E0A6AC6
:1012D8000B6A97D808C0DEFF09C0DEFF0AC0DEFF30
:1012E8000BC0DEFF56D08DD891D88BD8DECF09F051
:1012F800DECF0AF0DECF0BF0DECF0CF075D80D6E26
:10130800FF0E0D26010E0E6E0F6A0D2A03D0D8901F
:101318000E360F360D2EFBD70E500924106E0F50C7
:101328000A20116E000E0B20126E000E0C20136E98
:101338005BD8E82A05D0D890133212321132103215
:10134800E82EF9D70350146E0450156E166A176A02
:101358001050145C186E11501558196E125016580A
:101368001A6E135017581B6E055018241C6E065021
:1013780019201D6E07501A201E6E08501B201F6E64
:1013880040D81CC0DEFF1DC0DEFF1EC0DEFF1FC030
:10139800DEFF37D83BD828D8096EFF0E0926010E84
:1013A8000A6E0B6A092A03D0D8900A360B36092E22
:1013B800FBD70A5005240C6E0B5006200D6E000E4C
:1013C80007200E6E000E08200F6E0ED8E82A05D0F2
:1013D800D8900F320E320D320C32E82EF9D70CC0ED
:1013E80001F00DC002F0120020EE04F00150D926E1
:1013F8000250DA22DF5012000150D9260250DA22B8
:10140800120001C0D9FF02C0DAFF1200DECF05F0DA
:10141800DECF06F0DECF07F0DECF08F01200B8EC22
:1014280021F03B0E366E7F0E376E27EC1DF000095B
:1014380001E19BD0536A4D6A89EC21F0080E6D6E6C
:1014480086D0530E286E296A2A6A050E2B6E7AEC0E
:101458001FF05350050DDC0EF324516E7E0EF42060
:10146800526E59AC64D0010E4D6E8DD8F5CFD9FFB0
:101478000900F5CFDAFF020E7BD8F5CF34F0030E62
:1014880051243F6E000E5220406E3FC0F6FF40C010
:10149800F7FF0800F5CF35F076D8F5CFE1FF090062
:1014A800F5CFE2FFE750D0EC20F0DF6E010E536479
:1014B8003CD0050E536039D0050EF66E7D0EF76EE2
:1014C80020EE41F00B0E81EC1BF0FDE2010188518A
:1014D8008CEC20F04F6E010187518CEC20F04E6EA1
:1014E8004FC050F04F40E8423F0B50260101865153
:1014F8008CEC20F050264EC03DF03D063D50410F8B
:10150800D96EDA6ADF5050264FC03DF0030E3D1603
:1015180006E14E6004D0500602D0070E505E070E5A
:101528005060FBD750280101856F080E6D6E0C0EB8
:101538003AEC21F02ED82BEC1AF0040E19D8F550FD
:101548003AEC21F00F0E3AEC21F0CEEC21F05B9C46
:101558006D5001E076D75B8C4D50D8B41200830EE5
:101568002C6E010E2D6E2BEF19F013D82BEF1AF0FD
:1015780051243D6E000E52203E6E3DC0F6FF3EC027
:10158800F7FF0800120051C0F6FF52C0F7FF09002C
:101598001200830E3B6E010E3C6E1200000132EC0D
:1015A80008F0DF500F0BF06FF0050AE1270EF26F1D
:1015B800010EF36F010EBCB3020EEF6F030E0AD0DB
:1015C800020EF01909E10F0EF26F010EF36F030E10
:1015D800EF6F020EEE6F06D01B0EF26F010EF36F67
:1015E800040EF6D79D0E2A6EF40E2B6E7F0E68EC55
:1015F80003F060EC19F00001F16FF1519D0F2A6EB4
:101608007B0E2B6E7F0E2C6EEFC02DF060EC19F068
:101618000001F127F1C033F07BD8AEEC20F085EC67
:1016280003F0F2C04FF0F3C050F00CEC05F061D8B5
:101638005BD8E80E8AEC03F00CEC1BF02ED05ED8D9
:101648004FD8AFEC01F00CEC1BF041D86CEC03F078
:101658000CEC1BF035D057D8010E3D6EC00ED7EC00
:1016680017F02DC2C3F02EC2C4F03ED8E60E6CECC3
:1016780003F00CEC1BF024D039C1C3F03AC1C4F01C
:10168800C56B010EC66FC10EAFEC01F00CEC1BF080
:10169800E9EC01F0AEEC20F013D08C0E286E010EB0
:1016A800296EEEC02AF0F3EC1EF00001EC6FED6B32
:1016B800ED5106E1EC51C3E0010ACDE0030ADCE09C
:1016C800F2C0EAF0F3C0EBF0000E76EF1EF029C28C
:1016D800C3F02AC2C4F00001C56B810EC66FE10CCD
:1016E800C56B810EC66FE30C0001C56B010EC66F9A
:1016F800010C27C2C3F028C2C4F012002BC2C3F0E9
:101708002CC2C4F01200270E3B6E020E3C6E120073
:10171800010E346E800C87C041F088C042F0ABECFB
:101728001EF041C01BF242C01CF202011B51010114
:10173800395D02011C5101013A5904E21BC239F119
:101748001CC23AF10DC147F00EC148F087C049F0FC
:1017580088C04AF0000149EC18F01B5DF4501C5990
:1017680088D83AEC11F047C021F248C022F25BB2A7
:1017780004D002011D6B1E6B3ED00001BCBF08D017
:10178800C00EC36F680EC46F780EC56F040E07D005
:10179800600EC36F340EC46F3C0EC56F020EC66F69
:1017A800C3C034F0C4C035F0C5C036F0C6C037F089
:1017B80001018D51386E8E51396E8F513A6E3B6AE8
:1017C8004FEC18F034C01DF235C01EF2446A0A0E00
:1017D800436E1DC241F01EC242F064EC1FF041C0CE
:1017E80047F042C048F0E5EC0CF034EC20F047C07C
:1017F8001DF248C01EF2BFC052F0C0C053F0D890CE
:1018080052365336D8905236533652C028F053C009
:1018180029F02B6A190E2A6E71EC1CF028C01FF2F1
:1018280029C020F25BA805D002011B511C1101E15F
:101838005B9885C041F086C042F0ABEC1EF041C019
:1018480023F242C024F209C147F00AC148F085C01A
:1018580049F086C04AF0000149EC18F0235DF450C5
:10186800245907D83AEC11F047C025F248C026F2AF
:101878001200010ED8A0000E4B6E12000001C96FB5
:101888005250F00BCB6F0F0E5216525095EC12F0CF
:10189800DECF72F0DDCF73F0810E72180BE1810E8E
:1018A800731808E19D0E7CD8010E2D6E60EC19F0BE
:1018B800000149D0CD6B73AE08D0726C731ED8B0DE
:1018C800732A2D0E9D6FCD2B04D0CBBB02D02B0ECF
:1018D800F9D772C0C3F073C0C4F0040EC56FD890B6
:1018E800C433C333C52FFBD7C3C047F0C4C048F0C7
:1018F80068D834EC20F047C0C6F048C0C7F00F0ED7
:101908007214476E486A5DD834EC20F0040E00016A
:10191800C86FD89048324732C82FFBD74750C625E2
:10192800726E4850C721736ECD519D0F326E72C0D2
:1019380028F073C029F049D871EC1CF03CD800ECB1
:1019480014F00001CD25CC6F030E521807E12ED8F4
:10195800CCC03DF0100E3E6E21EF1FF0CBAF11D082
:1019680025D8CCC03DF0080E3E6E21EC1FF09D0E30
:1019780017D85250020F2D6E60EC19F0080E0001B6
:10198800CC6F0A0ECBA90E0ECA6FCCC04CF00E0E4F
:101998004D6ECAC04EF053C04FF0C95156EF17F004
:1019A8002A6E180E2B6E7F0E2C6E12009D0E3B6E4B
:1019B800200E3C6E200C28C033F029C034F0356A64
:1019C80012004A6A0A0E496E0A0C2B6A0A0E2A6E1F
:1019D8000A0C750E286E296A050E2A6EF3EC1EF0A5
:1019E8009D0E25EC11F075282D6E60EC19F0ABEC0E
:1019F80001F0BFEC20F075500BE1410E476E010E6F
:101A0800486ECFEC1FF041C043F042C044F00DD007
:101A18007550060D3B0EF324476E010EF420486EF8
:101A280066D8DECF43F0DDCF44F09D0E326E43C062
:101A380033F044C034F0356A00EC14F0466E75504B
:101A4800080ED8B4050E456E46509D0F8CEC17F065
:101A580045C02DF060EC19F0462646509D0FD96E12
:101A6800DA6A200EDF6E462A46C033F0020E346E64
:101A7800C00EAEEC20F020EE03F034D8DF50366E06
:101A880020EE04F02FD8DF50376E20EE05F02AD86C
:101A9800DF50386E020E396EC80E59EC1AF070EC31
:101AA80003F027EC1DF00009D8B41200B8EC21F0BF
:101AB800755002E0750405E101013B6B3C6B3D6B21
:101AC8003E6B15D8DE6ADD6A20EE03F00BD886C1BE
:101AD800DFFF20EE04F006D887C1DFFF20EE05F017
:101AE80001D80AD04750D9264850DA22120047C0F8
:101AF800D9FF48C0DAFF120088C1DFFF1200456A2B
:101B0800080E6D6E7FD0450E286E296A2A6A0F0E60
:101B18002B6E7AEC1FF045500F083A6E010E3B6EA3
:101B28003C6A3A2A03D0D8903B363C363A2EFBD74B
:101B38003BC041F03CC042F059AC06D04150361A87
:101B48004250371A080E6D6E0C0E3AEC21F04150D7
:101B580036143A6E425037143B6E3A1003E03C6A32
:101B68003C2A01D03C6A3C283D6E9D0E446E800E96
:101B7800406E3F6A100E436E3F5036143A6E405026
:101B880037143B6E3A1007E04450D96EDA6A2A0ED1
:101B9800DF6E442A05D04450D96EDA6A2D0EF8D784
:101BA800D89040323F3243064350E6E13DEC07F01F
:101BB800BFEC20F025EC07F09DEC20F09D0E2A6E7E
:101BC80038C02BF039C02CF045282D6E60EC19F088
:101BD8003E6E3E500AE0A90E2A6E9F0E2B6E7F0EB7
:101BE8002C6E3DC02DF060EC19F041EC07F0BFEC15
:101BF80020F04550C00F3AEC21F00F0E3AEC21F0DE
:101C0800CEEC21F05B9C6D5001E07DD75B8C36C03B
:101C180036F037C037F012009D0E326E43C033F0F5
:101C280044C034F045C035F000EC14F04E6E43501B
:101C3800405C445041584550425810E272D89D0EBD
:101C4800326E40C033F041C034F042C035F000EC91
:101C580014F03D6E4EC03EF021EC1FF0100E466EA3
:101C6800476A4E50465E000E475AD8904730496E34
:101C78004630486E4850C00F4D6E4F6A080E6D6E64
:101C88003CD04F0E286E296A2A6A4E042B6E7AECD5
:101C98001FF059AC0BD0599C3FD8DF2A390EDF64AE
:101CA80003D03AD8300EDF6E080E6D6E9D0E316E81
:101CB800C8EC19F031C04AF032C04BF033C04CF0D8
:101CC8004A50435C4B5044584C50455803E224D882
:101CD800300EDF6E0C0E3AEC21F04EC033F0010EE0
:101CE800346E4D50AEEC20F04D504F243AEC21F0BC
:101CF8000F0E3AEC21F0CEEC21F05B9C6D50C1E167
:101D08005B8C9D0E316EC8EC19F031C040F032C0CA
:101D180041F033C042F012004F509D0FD96EDA6A7D
:101D280012009D0E3B6E300E3C6E300C37C12AF00F
:101D380088517DEC21F00001CD6FCDBF000CCD5155
:101D4800800A7E0F01E3010C86C12AF00101875148
:101D58005EEC1BF02AC0C3F02BC0C4F035C12AF0DA
:101D6800010136515EEC1BF02AC0C5F02BC0C6F04D
:101D78000001CD5105E0010EC86F6D0EC76F02D08E
:101D8800C76BC86BC551C75D4D6EC651C8594E6EFD
:101D9800C3514D24CB6FC4514E20CC6FCCBF000C27
:101DA800CCBF06D0CC51CFE1020ECB5D01E3010CD4
:101DB800CBC0CDF0BCB337D0CD5104E0CA6B180E00
:101DC800C96F02D0C96BCA6B34C12AF001018451B2
:101DD8007DEC21F00001C925CD6FCDBF000C33C1CA
:101DE8002AF0010183517DEC21F04D6E4E6A4DBE03
:101DF8004E060001CD51476E486A47BE48064A6AFA
:101E08003C0E496E34EC20F04D5047244F6E4E5036
:101E18004820506E50BE000C505095E1790E4F5C32
:101E2800D8A0000C010CCD511200010E366E306A9C
:101E3800010E376E57927B0E336E010E346E57B417
:101E480058D06AEC1DF004E2646A5794D8901200E6
:101E5800F00E63EC21F0400E2F6E3FD090EC1FF097
:101E6800010ED8A0000E326E90EC1FF0010ED8A023
:101E7800000E316E320402E1310432E03150321882
:101E880003E032C035F012D06450365C06E242D826
:101E9800DF50371405E0010E04D064503618FBE01B
:101EA800000E356E355002E136C030F0350404E1DD
:101EB80031D83750DF1205D0371C2E6E2BD82E5054
:101EC800DF1635505BEC1EF0362AD890373637507F
:101ED80004E1334A342A010E376E2F062F28BEE15B
:101EE800400E366406D030C064F0645001E1578477
:101EF800578257B20BD0646A57947B0E286E010E36
:101F0800296E2A6A080E2B6E9DEC20F057A29ED7E8
:101F1800D880120033C0D9FF34C0DAFF120057A0AE
:101F28001200270E0001D31911E1010ED4190EE198
:101F3800D76B21EEC3F010EED9F0040EDBCFE3FF30
:101F4800E806FCE2C30ED56F010E2AD00F0ED31996
:101F580012E1010ED4190FE1010ED76F21EEC8F07E
:101F680010EED9F0040EDBCFE3FFE806FCE2C80E62
:101F7800D56F010E15D01B0ED31943E1010ED419EC
:101F8800D8A41200020ED76F21EECDF010EED9F0D2
:101F9800040EDBCFE3FFE806FCE2CD0ED56F010EA1
:101FA800D66F85EC03F0D3C04FF0D4C050F00CECE2
:101FB80005F00201275128111AE0A50E0001D86F7B
:101FC800DE0E286ED3C029F0D4C02AF02C6A0C0E7D
:101FD8002B6E86EC1BF0D80ECFEC16F0D75151ECD7
:101FE80014F0CAEC16F0120ECF6FA0EC14F0B8EC97
:101FF80021F0D5C028F0D6C029F0A8EC1DF095EC4A
:1020080021F01200800E306ED00E70EC21F0000925
:102018002AE1000E0DEC20F0D10E70EC21F0000E3C
:10202800F9EC1FF0306E000EF9EC1FF057D852D8BB
:1020380038D8000EF9EC1FF045D833D8000EF9EC6B
:102048001FF044D82ED8000EF9EC1FF033D829D849
:10205800000EF9EC1FF02AD824D8010EF9EC1FF075
:102068002DD81FD8DF8EC3EC21F030AE120036D841
:10207800500E30D816D8120E25D813D8050E26D8EB
:1020880010D8090E17D80DD8030E10D80AD8230E69
:1020980015D807D8DF9E2EC02CF02FC02DF02BEFBF
:1020A80019F02E50D9262F50DA221200DF6E20EEBA
:1020B80005F01200DF6E20EE04F01200DF6E20EE55
:1020C80006F01200DF6E20EE02F01200DF6E20EE46
:1020D80003F01200DF6E20EE01F012002EC0D9FFCF
:1020E8002FC0DAFF1200010E0001D86FD00ECB6F9F
:1020F800CC6BCE6BCD6B080ECF6F5CEC13F0D00EB3
:10210800286EAA0E296E7F0E2A6E2C6A080E2B6E78
:10211800B4EC1AF02850291033E00001D8512CE013
:10212800D00E286EAA0E296E7F0E2A6E2C6A080E13
:102138002B6E86EC1BF0D00E0001CB6FCC6BCE6BF8
:10214800CD6B080ECF6FA0EC14F0B8EC21F0C30EE5
:10215800286E010E296EA8EC1DF0C80E286E010E1F
:10216800296EA8EC1DF0CD0E286E010E296EA8EC84
:102178001DF095EC21F002D0579003D0D86BB6D75C
:10218800578057A00CD0BB0E0001CB6F010ECC6F4F
:10219800CE6B080ECD6F180ECF6F5CEC13F057B0F6
:1021A80002D0D8901200D8801200740E286E296AC6
:1021B8002A6A040E2B6E7AEC1FF07428BAEC1FF012
:1021C800566E56509D0F3DD874282D6E60EC19F050
:1021D800562656C033F044D8BFEC20F059AC120054
:1021E800599C9D0E2ED874282D6E60EC19F0ABEC1E
:1021F80001F0BFEC20F037D8BFEC20F0745011E1AB
:102208003FC140F040C141F0426ACF0E436E070E15
:10221800446E456A10EC0EF040C03FF141C040F1F9
:102228000DD0080E526E536A3C0E546E10D8DF5013
:10223800EAEC14F0556E0BD855C0DFFF080E6D6E32
:10224800080C2A6EEA0E2B6E7D0E2C6E120074504E
:10225800060D3D0EF324D96E010EF420DA6E12003D
:10226800010E346EC00C336A346AC00C4B5011E155
:1022780051D800019C5155D84BEC1CF0ECEC05F002
:102288000001B95142D84FEC18F037D864EC1FF070
:102298002BD049C038F04AC039F03A6A3B6A3AD87C
:1022A8000BC12CF00CC12DF02E6A2F6A4BEC1CF0E0
:1022B800ECEC05F04FEC18F034C04CF035C04DF0A4
:1022C80036C04EF037C04FF04CC034F04DC035F03A
:1022D8004EC036F04FC037F00001B95116D84FEC58
:1022E80018F00BD864EC1FF041C050F042C051F018
:1022F80050C047F051C048F0120034C041F035C01A
:1023080042F0446A0A0E436E0A0C386E396A3A6A19
:102318003B6A120047C028F048C029F02A6A2B6A95
:1023280012002C6E2D6A2E6A2F6A12008282828613
:10233800020E336E450E326EAA0EE82EFED7322EEE
:10234800FCD7332EFAD7080E3E6E040E3E6004D03A
:102358003D6A300E3C6E02D03C6A3D6A3C50A1ECAE
:1023680021F0020E3E6408D01B0E326E9E0EE82E3F
:10237800FED7322EFCD703D0A60EE82EFED700D00B
:102388003E063E50E2E1020E3AEC21F0280E3AEC0D
:1023980021F0080E3AEC21F0170E3AEC21F089EC06
:1023A80021F00C0E3AEC21F0060E3AEC21F03F6ACF
:1023B8003F50F80B40093AEC21F0340E2B6E2C6A92
:1023C8003F50780F2D6E080E2E6EA5EC1FF0340EC0
:1023D8002A6E080E2B6E2C6E2D6AC0EC18F0080EB3
:1023E8003F263F0E3F64E4D73F0C900EF66E420E38
:1023F800F76E000EF86E02EE00F010EE1BF009000A
:10240800F5CFEEFFE550E150FAE1EC0EF66E310E35
:10241800F76E000EF86E01EE90F010EE6AF009000B
:10242800F5CFEEFFE550E150FAE12E0EF66E440EC0
:10243800F76E000EF86E0900F5CFFEF0240EF66E6A
:10244800440EF76E000EF86E00EE76F010EE07F010
:102458000900F5CFEEFFE550E150FAE102EE1BF07E
:10246800180EEE6AE806FDE101EE00F0900EEE6A45
:10247800E806FDE100EE80F0430EEE6AE806FDE1B5
:102488005B6A5A6A596A586A576A00EE5CF01A0E13
:10249800EE6AE806FDE17D907D92000EF86E00017F
:1024A80045EF07F058B40AD05884010E6A6EE3EC81
:1024B80021F00001BBAF12000FEF21F058941D0E60
:1024C8006A6E600E486E496A400E2B6E2C6A48C0D0
:1024D8002DF0080E2E6EA5EC1FF0400E36D8C3EC7A
:1024E80015F00BE226D8040EDF6404D0495019D841
:1024F80030D808D01ED8DF2A05D0495012D820D8A5
:1025080018D8DF6A080E4826492A020E4964DCD723
:102518000001BBAF020CEA0E2C6E010E2D6ED4EF3B
:1025280016F0020DE80EF324D96E010EF420DA6ECF
:102538001200040E4924D96EDA6A010EDA2212005A
:1025480072C0DEFF73C0DDFF12002E6E720E2F6E9A
:102558001200810EDE6EDD6E810C46D8DF5003E17D
:102568004FD8D86F14D046D8D26F3ED8DF50D36F2B
:1025780047D8D46FD351D45DD225D86F35D8D05130
:10258800E16EE26ADE50E65C02E334D8D85F030EFF
:10259800D11903E0D76B120E02D0D76B0A0ED66F93
:1025A800D6C0D5F0590ECB6F010ECC6FD8C04DF008
:1025B800D15151EC14F04DC0CDF04EC0CEF0D5C085
:1025C800CFF05CEC13F0A50E0101591907E00001EA
:1025D8000BD8DF5003E008D8DF6ABFD7590E0001D7
:1025E800D06F010ED16F1200D051D96EDA6A020E87
:1025F800D926020CD051D96EDA6AD92ADF501200D6
:10260800D051D96EDA6ADF501200396A36C034F018
:1026180020EE02F034D8F0EC20F0020E39263650C5
:10262800392440D820EE03F03750D9263850DA2222
:10263800DF508CEC20F02D6E60EC19F02DD8270EB1
:1026480025D820EE04F01BD8F0EC20F0020E24D898
:10265800200E1CD820EE01F012D8F0EC20F0020E6B
:102668001BD83A0E13D837C0D9FF38C0DAFFDF506D
:10267800356EF0EC20F0020E392639501200375032
:10268800D9263850DA22DF50356E1200DF6E392A2B
:1026980036503924346E1200392636503924D96E12
:1026A800DA6A12002A6E600E2B6E7E0E2C6E1200F5
:1026B800546A010E556E10D03AD8A00970EC21F07A
:1026C800556E550409E1070E516E7D0EE82EFED7B2
:1026D800512EFCD700F0542A550403E1090E546426
:1026E800EBD7555019E10001CD510DEC20F01FD862
:1026F800A10970EC21F007D0000EF9EC1FF025D8E5
:102708000001CB4BCC2B0001CF2FF6D7010EF9ECF3
:102718001FF01BD8C3EF21F0CBC028F0CCC029F0A4
:102728002A68CFC02BF09DEC20F0C3EF21F0CDC07C
:1027380051F0CEC052F0070E536ED890523251323B
:10274800532EFBD751500E0B1200CBC0D9FFCCC073
:10275800DAFFDF6E1200050E0101706503D0090E65
:1027680070651BD05990776B786B010E7A6F800E6D
:10277800796F060E756F75C16FF16FC170F1716B6E
:10278800726B736B746B6B6B6C6B6D6B6E6B096BD5
:102798000A6B0001856B866B1200060E7065060CCD
:1027A800755171C128F072C129F073C12AF074C142
:1027B8002BF0E82A01D01AD8E82EFDD728C009F155
:1027C80029C00AF16F516BC128F06CC129F06DC1A5
:1027D8002AF06EC12BF0E82A01D008D8E82EFDD7E0
:1027E80028C085F029C086F059801200D8902B3275
:1027F8002A32293228321200366A33C038F034C0FF
:1028080039F035C03AF038C028F039C029F03AC05C
:102818002AF03ED8FBEC19F028C038F029C039F06E
:102828002AC03AF0322A362A385039103A10EBE1E9
:102838003250D96EDA6ADF6A320633C028F034C003
:1028480029F035C02AF00A0E2B6E2C6A2D6AAEECE0
:102858001BF02850376E33C028F034C029F035C03B
:102868002AF016D8FBEC19F028C033F029C034F050
:102878002AC035F0300E37263250D96EDA6A37C0A2
:10288800DFFF3206335034103510D7E136501200CE
:102898000A0E2B6E2C6A2D6A0A0CC86F0001C46BD5
:1028A800200EC36FC76B09D0C751B9EC01F0120DE8
:1028B800F350C327F450C423C72BC851C75DF4E3B2
:1028C800C851020DBB0EF324C96F010EF420CA6F64
:1028D8004D2813E120EE01F0C951D926CA51DA2258
:1028E800C9C0E1FFCAC0E2FFE72ADE50E65C02E3A6
:1028F8001ED8DF6A1CD8DF504D6E030EC81903E0DE
:10290800C66B120E02D0C66B0A0EC56F4DC047F0DB
:10291800486AC5C049F0C6C04AF034EC20F000014E
:10292800C35147244D6EC45148204E6E1200C9C091
:10293800D9FFCAC0DAFF1200546A010E556E1CD0C6
:10294800CDC051F0CEC052F0070E536ED89052321F
:102958005132532EFBD751500E0BA00970EC21F0C9
:10296800556E550409E1070E516E7D0EE82EFED70F
:10297800512EFCD700F0542A550403E1090E546483
:10298800DFD755501BE10001CD510DEC20F012D0DE
:10299800CBC0D9FFCCC0DAFFDF500DEC20F000012E
:1029A800CB4BCC2BCF07CD4BCE2BCDC051F00F0E40
:1029B800511606E00001CF5103E0EAD70001CF6BC2
:1029C800C3EC21F00001CF51B7E112000001C86F3C
:1029D800080E6D6E3DD0C80E286E53C029F054C045
:1029E8002AF0C7EC1DF0080E521807E00001C85184
:1029F800C36FC46BC56BC66B12D00001C851286E7B
:102A0800296A2A6A2B6A16EC06F04BEC1CF028C0DF
:102A1800C3F029C0C4F02AC0C5F02BC0C6F09D0E73
:102A2800326EC3C033F0C4C034F0C5C035F000EC1A
:102A380014F00001C76FC7C04CF00E0E4D6E52C0A7
:102A48004EF0020E4F6EC40E56EC17F0CEEC21F08D
:102A58005B9C6D50C0E15B8C0001C851120081BEC7
:102A680029D05BB41200D58E5B845B865A8A5BB032
:102A780002D05B8033D05EC001F05FC002F0036A11
:102A880000019551015C046E96510258056E000EC6
:102A98000358066E8051042401018D6F0001815195
:102AA800052001018E6F00018251062001018F6F00
:102AB8005B8214D05BA41200D59E5B945BA01200CD
:102AC800000195515E5C016E96515F58026E80510F
:102AD8000124BF6F81510220C06F12000001806B7A
:102AE800816B826B5EC095F05FC096F0716A1200D0
:102AF8004F6A526A525019E101013F51401131E0C9
:102B0800CFEC1FF001013F51415C4051425829E38D
:102B180052C04DF0010E4E6E4D2A02D0D8904E365E
:102B28004D2EFCD74E504F121CD05250060D3B0E66
:102B3800F324506E010EF420516E19D812E017D804
:102B4800476E486A030E4A6EE80E496E34EC20F070
:102B580050C0D9FF51C0DAFF4750DE5C4850DE58FC
:102B6800D7E2522A040E5264C5D74F50120020EE05
:102B780002F05050D9265150DA22DF5012006AEC88
:102B88001DF002E2D8901200550E63EC21F02EC021
:102B98003EF03D6A3E50D96EDA6ADF5063EC21F0B0
:102BA8003E2A3D2A070E3D64F5D7BE0E63EC21F0A0
:102BB800320E3E6E3B6A3C6A3E50D96EDA6A1EECB3
:102BC80021F0DF6E3E2A3B4A3C2A3CBEF5D73C50FA
:102BD80003E1090E3B5CF0E3325033C030F0316A58
:102BE80030C031F0306A30122F50D96EDA6A30C0F6
:102BF800DEFF31C0DDFF320E286E080E296E89EC2B
:102C08001DF03A18BFE1D8801200D16F2AD065C0F4
:102C180052F0CEC053F0D15142EF0CF0770E526E05
:102C28000E0E536ECEC054F0D15191EF1EF087ECCA
:102C38000BF0CEC03DF0D151D7EF17F07DEC0BF083
:102C4800E5EC01F008D01FC2C3F020C2C4F0C56B88
:102C5800020EC66FED0EC76FCEC0C8F0D1510CEF93
:102C68001BF08A0E286E010E296E050E2A6EF3ECF3
:102C78001EF00001CF6FD06BD051D8A41200CF51F5
:102C8800C6E0010ACBE0030AD2E0010AD7E0070A4E
:102C9800DAE0120089EC21F00001E76B030EE46F23
:102CA800E569080E6D6E2ED0E70E286E296A2A6A2D
:102CB800E4C02BF07AEC1FF059AC03D06D6AE7C082
:102CC800E5F09D0E2A6EE60E2B6E7F0E68EC03F083
:102CD80060EC19F00001E66FE6519D0F2A6EFA0EBE
:102CE8002B6E7E0E2C6EE7292D6E60EC19F000011C
:102CF800E627E6C033F0030E346E800EBFEC20F0FA
:102D0800CEEC21F05B9C6D50CFE15B8C0001E52996
:102D1800D8B41200E5514CEF08F0D26F57A012005A
:102D2800A50E0001D36F8FC0DBF090C0DCF00ED091
:102D3800D96B640E09D0D96B3C0E06D03C0ED96F06
:102D4800F8D7500ED96F780EDA6F0DD0D251D06FF8
:102D5800D16BD15108E1D051EBE0010AECE0030A54
:102D6800EDE0010AEEE0B8EC21F0D40E286E296AF5
:102D7800A8EC1DF0D30E0FD8030E51EC14F006D8B2
:102D88000A0ECF6FA0EC14F095EF21F04DC0CDF0F6
:102D98004EC0CEF012000001CB6FCC6B4D68120014
:102DA800D00E70EC21F0000902E0C3EF21F0110E03
:102DB8000DEC20F0D10E70EC21F0000EF9EC1FF0B4
:102DC800336E010EF9EC1FF0346E34C02EF03F0E56
:102DD8002E1605E021D8ADEC12F0C3EF21F03450E7
:102DE80033C02EF02F6A2EC02FF02E6A2E10316EAF
:102DF8002F50326E31C02EF032C02FF0040E306EDC
:102E08002F342F322E32302EFBD706D82EC0DEFFBD
:102E18002FC0DDFFC3EF21F02CC0D9FF2DC0DAFF92
:102E280012009D0E326E40C033F041C034F042C0F3
:102E380035F000EC14F04B6E435002E14B50120099
:102E48004350446E456A442A000E45224B50466E54
:102E5800476A4450465C4750800A486E4550800A8D
:102E680048580AE295EC0EF04BC03DF043283E6E00
:102E780021EC1FF043284B6E4B509D0F4A6E4A04BD
:102E8800496E08D04950D96EDA6A4A5092EC17F068
:102E980049064A0643064328F5E14A50CAEC1FF0A2
:102EA8004B281200506EAD0E33D84DC02DF060EC9B
:102EB80019F0516EDAEC0CF04CC03DF04C50512436
:102EC8003E6E21EC1FF051504C2607D05150AD0FEB
:102ED800D96EDA6A51509D0F21D851065128F6E172
:102EE8004C509D0F15D84EC02DF060EC19F04C26B3
:102EF8005028D8B4120050503AEC21F09D0E2A6E9A
:102F08004CC02BF0080E2C6E4FC02DF0C0EF18F0FF
:102F18002A6EBA0E2B6E7E0E2C6E1200E16EE26ADD
:102F2800DFCFE7FF120081AC37D05BBA12005B8AB3
:102F38005B885AA42DD05AB804D05A882FD80001DB
:102F480023D000018B51895D016E8C518A59026E24
:102F58005E5001248D6F5F5002208E6F5A805AB2E6
:102F680009D08D51935D8E51945903E29351941178
:102F780001E15A828D51915D8E51925904E35A862E
:102F88005A925A9406D00AD8896B8A6B706A01D013
:102F98005A98624A632A12005B9A12005EC08BF04C
:102FA8005FC08CF012003E6E9D0E326E31D8DECFBF
:102FB80028F0DDCF29F02B6A3C0E2A6E71EC1CF04C
:102FC800DFEC0CF000EC14F03F6E3F509D0FD96E13
:102FD800DA6A3A0EDF6E3F2A3F509D0F346E18D8DA
:102FE800DECF28F0DDCF29F02B6A3C0E2A6E4BECA1
:102FF8001DF02850E6EC1DF0356EF0EC20F0020EC6
:103008003F263FC033F03DC034F03E50AEEF20F0D5
:1030180020EE08F03B50D9263C50DA22120000017D
:1030280034D81B5DF4501C5905E3030E0001C26F30
:10303800588604D0040E0001C26F589626D8235D26
:10304800F4502459030ED8A0040E0001C16F010EDC
:10305800BCA1000E5009656ED10E01010F5D070E6F
:10306800105908E30F0E0001EA6F010EEB6F010E15
:1030780076EC1EF0710E01011B5D170E1C59D8A0CD
:103088001200C2EC19F076EF1EF0BE510F0B0A0DBC
:10309800F350020112003C6A3D6A3E6A3F6A3850AA
:1030A80039103A103B1029E0010E406E06D0D89036
:1030B800383639363A363B36402A3BAEF8D7D890C0
:1030C8003C363D363E363F363850345C39503558FC
:1030D8003A5036583B50375809E33850345E395027
:1030E800355A3A50365A3B50375A3C80D8903B3282
:1030F8003A3239323832402EE2D73CC034F03DC043
:1031080035F03EC036F03FC037F0120089EC21F0B0
:10311800F29E5AAA08D0B8EC21F0330E286E010EA0
:10312800296EA8EC1DF00001BCA508D05ABA03D03E
:103138000101385105E187C138F102D00101386B2E
:103148000001BD5101018A19F00B8A190001BD6FF8
:103158008BC131F0313ABE5131180F0B3118BE6FA7
:1031680075C031F0313ABD5131180F0B3118BD6FB0
:10317800C4EC1EF08990FFD72B502C5C02E22CC0C7
:103188002BF02B502C5C306E2D0402E1306A05D0F8
:10319800030E2D1802E1D890303230502B242E6EB9
:1031A800316A1CD03050315C03E32E50315C03E3AC
:1031B800200E2F6E06D02A50D96EDA6ADF502F6E95
:1031C8002A2A82822F50A1EC21F02F38F00BA1EC93
:1031D80021F0580EE82EFED700F0312A2C50315C31
:1031E800E1E3120000000000A052570100000000B7
:1031F80060343C0260343C02A05257014827AD01BC
:10320800301A1E01818181818181AC37F00108FF6C
:1032180040FF1EFF0CFF0A00000000000000000035
:1032280000000000000000EA0350A41541A41502A4
:10323800A41503261404DA19058C000681818181FE
:103248008181818100000000810000000001D00E12
:1032580070EC21F0000902E0C3EF21F0000E0DEC44
:1032680020F0000E0DEC20F02CC0D9FF2DC0DAFFA5
:10327800DF500DEC20F020EE01F018D80DEC20F016
:1032880020EE02F013D80DEC20F020EE03F00ED85B
:103298000DEC20F020EE04F009D80DEC20F020EE23
:1032A80005F004D80DEC20F0C3EF21F02C50D926FE
:1032B8002D50DA22DF5012002D5005E02DD80800DD
:1032C800F550306E01D0306A316A30C032F00FD01C
:1032D8002B502E6E2C502F6E2B4A2C2A2EC0F6FF08
:1032E8002FC0F7FF0800F550321801E12D062D50C8
:1032F8000CE0EED711D82A502D24D96EDA6A0800CE
:10330800F5CFDFFF2B4A2C2A2D2A06D80800F550C6
:103318003218F0E12D5012002BC0F6FF2CC0F7FF39
:10332800120003EC1DF025EC1CF09AEC11F07BEC7C
:1033380020F0B8EC21F077EC10F002E20101E78F01
:10334800010189AFAFEF13F09AEC0EF000090BE022
:10335800270E0001EA6F010EEB6F010E76EC1EF0EE
:103368000101396B3A6BD9EC21F0000902E1AFEFAA
:1033780013F004D876EC1EF0AFEF13F01B0E00012B
:10338800EA6F010EEB6F010C366A376A386A21D092
:1033980029D8396E312A2E0E39181BE0D00E39245F
:1033A800346E356AFF0E352236C028F037C029F052
:1033B80038C02AF00A0E2B6E2C6A2D6A04EC1EF017
:1033C80034502824366E35502920376E000E2A20B6
:1033D800386E08D8DDE136C031F037C032F038C079
:1033E80033F012003150D96EDA6ADF5012002E6ABB
:1033F8002F6A306A2B502C102D1022E0010E316EEE
:1034080005D0D8902B362C362D36312A2DAEF9D74B
:10341800D8902E362F3630362B50285C2C50295811
:103428002D502A5807E32B50285E2C50295A2D502E
:103438002A5A2E80D8902D322C322B32312EE8D7B2
:103448002EC028F02FC029F030C02AF0120020EE3C
:1034580001F025D8366E3BC0D9FF3CC0DAFFDF50FB
:10346800376E98EC03F0DCEC1EF020EE03F017D872
:10347800366E20EE04F013D8376E20EE05F00FD824
:10348800386E020E396E880E59EC1AF020EE02F0F2
:1034980006D8366E010E376EC00E21EF20F03B5075
:1034A800D9263C50DA22DF5012003A6E365002E03C
:1034B80036280AE19D0E2A6EC50E2B6E7F0E68EC2B
:1034C80003F060EC19F018D09D0E346E36C035F05C
:1034D800F0EC20F09F0E56EC13F037508CEC20F0F7
:1034E8002D6E60EC19F0270E0001A26FA30E346E4A
:1034F80038C035F0F0EC20F0080E336E39C034F0E7
:103508003A50AEEF20F0366E376A36A01ED0020E63
:10351800766E9D0E2A6ECE0E2B6E7F0E68EC03F033
:1035280060EC19F033EC09F0BFEC20F09D0E25ECAF
:1035380011F037282D6E60EC19F00ED8BFEC20F092
:10354800030EF7EC21F046EC1DF0D8903632372AFE
:10355800040E3764DAD7040C336E030E346EC00CD5
:1035680028C030F029C02EF02AC02FF006D02B0634
:10357800D8A02C06302A2E4A2F2A2B502C1003E0D4
:1035880010D8F518F4E02B502C1003E1286A296AAA
:10359800120007D8F5502D5C286E296AD8A0290694
:1035A80012003050D96EDA6ADF502D6E2EC0F6FF49
:1035B8002FC0F7FF08001200604A612A0101132F8B
:1035C8000BD069C013F1142B0001B9510101145D2E
:1035D80003E3146B154B162B1F2F0BD069C01FF17B
:1035E800202B0001B9510101205D03E3206B214B21
:1035F800222B2B2F120069C02BF12C2B0001B95163
:1036080001012C5DD8A012002C6B2D4B2E2B120023
:10361800526E0001C351C411C51109E1C6AF07D0EC
:1036280075EC03F068EC03F060EC19F00BD0C3C044
:1036380040F0C4C041F0C5C042F0C6517F0B436E94
:1036480015EC17F0536E53C04CF00001C7390F0B3F
:103658004D6EC7510F0B4E6EC8C04FF0525056EF0B
:1036680017F09D0E2A6E880E2B6E7F0E68EC03F005
:1036780060EC19F0ABEC01F0BFEC20F039EC08F08D
:10368800DF380F0B3D6E3D28BAEC1FF03E6E3E5002
:103698009D0F2A6E110E40EC08F039EC08F048EC4A
:1036A80008F060EC19F03E263EC033F034EC11F01F
:1036B800BFEF20F0496EEB0EF66E7C0EF76E20EE33
:1036C8002FF0190E1AD8FEE249508CEC20F0020DAA
:1036D800F3CF2CF0FE0E2C262C502F0FD96EDA6A61
:1036E800DECF2DF0DDCF2EF02A508CEC20F02D24EB
:1036F8002A6E000E2E202B6E12000900F5CFDEFF79
:10370800E806120029C02EF02AC02FF028C030F099
:1037180019D02EC0F6FF2FC0F7FFF86A050EF76420
:1037280003D00800F55005D0F6CFE1FFF7CFE2FF50
:10373800E7502D6E2E4A2F2A3050D96EDA6A2DC0E6
:10374800DFFF302A2B06D8A02C062B28E2E12C28F4
:10375800E0E112002B502C102D101DE0010E2E6EF2
:1037680005D0D8902B362C362D362E2A2DAEF9D7EB
:103778002B50285C2C5029582D502A5806E32B50E2
:10378800285E2C50295A2D502A5AD8902D322C3286
:103798002B322E2EEDD728C028F029C029F02AC0B8
:1037A8002AF0120020C001F021C002F007C103F086
:1037B80008C104F037EC09F001C077F002C078F0D6
:1037C8007950775C7A50785805E277C079F078C0FC
:1037D8007AF007D077507B5C78507C5802E28EEC08
:1037E80003F0785003E1810E775C02E35A9E1200E1
:1037F8005A8E1200410E696E380E00019C6FB7C0D8
:1038080028F0B8C029F02A6A2B6ACA0E95EC11F084
:103818004BEC1CF0ECEC05F0820E89EC11F04FEC4F
:1038280018F034C00BF135C00CF10001BCAF120028
:10383800D8906936D8909C330101D8900C330B335B
:103848001200B10E2B6E2C6A2D6A0E0E2E6EA5EC90
:103858001FF00F0E2B6E010E2C6E100E2D6E2C0EFF
:103868002E6EA5EC1FF03B0E2B6E010E2C6E400E3B
:103878002D6E1E0E2E6EA5EC1FF06B0E2B6E010E1C
:103888002C6EB80E2D6E100E2E6EA5EF1FF0306A3E
:10389800316A326A336A28A008D02C5030262D505D
:1038A80031222E5032222F503322D8902C362D36EA
:1038B8002E362F36D8902B322A32293228322850E9
:1038C80029102A102B10E7E130C028F031C029F068
:1038D80032C02AF033C02BF012002D6A2E6A2A500B
:1038E8002B101BE0010E2C6E04D0D8902A362B36F4
:1038F8002C2A2BAEFAD7D8902D362E362A50285C93
:103908002B50295805E32A50285E2B50295A2D8020
:10391800D8902B322A322C2EEED72DC028F02EC06C
:1039280029F012005BA01200712A3C0E711808E100
:103938005B90D59E5B920001BF6BC06B5B961200DB
:103948006A0E00018027180E8123000E8223000CC6
:103958005AA81200702A0A0E701803E15A985A9051
:10396800120000016A0E8927180E8A23180C3D6A76
:1039780015D07B0E3B6E010E3C6E080E3A6E0AD0D7
:103988003BC0D9FF3CC0DAFF385092EC17F03B4AF5
:103998003C2A382A3A063A28F3E13D2A3D50D88095
:1039A800D88439AE395CD8A0D88403E019EC0FF07C
:1039B800E0E23D501200100E2A6E19D02850D96E40
:1039C800DA6ADF502B6E2AA004D02B3A0F0E2B1682
:1039D80001D0282A0F0E2B16090E2B6405D00AD801
:1039E800370FDF6E292A03D005D8300FFAD72A2ED1
:1039F800E5D712002950D96EDA6A2B5012002A0E28
:103A0800926E010E806ECD0E936E0F0E816E946ACB
:103A1800826AD66AD76ACE6ACF6A480ED56EB00E69
:103A2800CD6E0B0EBA6E180EBC6E6A0EBB6E400ED3
:103A38009D6E010EA06E680EF26E880EC26E840E28
:103A4800C16EC280840C386A59A81AD0599889EC7A
:103A580021F09D0E2A6E36C02BF037C02CF0000ED8
:103A68002D6E60EC19F033EC09F0BFEC20F0050E78
:103A7800F7EC21F059AC02D0010E386E03D85B8CFC
:103A880038501200599E599C599A599812002A5038
:103A98002B1017E0010E2C6E04D0D8902A362B3646
:103AA8002C2A2BAEFAD72A50285C2B50295804E32D
:103AB8002A50285E2B50295AD8902B322A322C2E85
:103AC800F2D728C028F029C029F01200929A899AC2
:103AD800040E286E1C0EE82EFED7282EFCD700D028
:103AE800928A740EE82EFED700D0010E80BA000E1E
:103AF800296E030E286EA80EE82EFED7282EFCD7B6
:103B080000D029C028F0283012002D6A18D028507B
:103B1800D96EDA6ADF502B6E282A080E2C6E0DD06B
:103B28002D502B18010B2A6ED8902D322A5002E006
:103B38008C0E2D1AD8902B322C062C50F1E1290628
:103B48002928E5E12D50120028C0D9FF29C0DAFF45
:103B580083C1DFFF20EE01F011D884C1DFFF20EE22
:103B680002F00CD886C1DFFF20EE03F007D887C12A
:103B7800DFFF20EE04F002D880EF0DF02850D926A0
:103B88002950DA2212002850D96EDA6ADF502B6EDB
:103B980059AE08D02B2A2A282B1802E129C02BF06D
:103BA800080E6D6E59AC08D02B0629042B1802E1BB
:103BB8002AC02BF0080E6D6E2850D96EDA6A2BC019
:103BC800DFFF1200316E31C032F0336A32C028F0A4
:103BD80033C029F02B6A0A0E2A6E4BEC1DF028C060
:103BE8002FF029C030F032C028F033C029F0E9ECBA
:103BF8000CF071EC1CF02850100DF3502F2412001B
:103C08002E6A2F6A306A28A006D02B502E262C50F8
:103C18002F222D503022D8902B362C362D36D89086
:103C28002A3229322832285029102A10ECE12EC0D5
:103C380028F02FC029F030C02AF012002F50D96E7A
:103C4800DA6ADECF31F0DDCF32F0050ED8903136AA
:103C58003236E82EFBD731C028F032C029F00001F7
:103C6800BA5172082A6E2B6A71EC1CF028C02FF02A
:103C780029C030F01200050E7065050C090E706140
:103C8800090C5980702B70C175F175C16FF1D8900E
:103C98006B376C376D376E37D8907137723773372B
:103CA8007437776B786BD89079377A371200286E2B
:103CB800010E281628500BE0929A899A0A0EE82ECF
:103CC800FED7928A6A0EE82EFED700D01200929A8A
:103CD800899A640EE82EFED7928A100EE82EFED737
:103CE80000D01200566E565007E170EC03F027EC36
:103CF8001DF00009D8B41200EAC0D3F0EBC0D4F02C
:103D080093EC0FF0EAC028F0EBC029F02A6A0C0EF9
:103D18002B6E9DEC20F0EDEF21F0556E52C02FF088
:103D280022EC1EF02FC040F030C041F0426A010E74
:103D3800436E15EC17F0566E56C04CF053C04DF05C
:103D4800070E4E6E54C04FF0555056EF17F041C055
:103D580028F042C029F02A6A2B6AA00E2C6E8C0E1D
:103D68002D6E2E6A2F6A4BEC1CF0ECEC05F021EC62
:103D780009F04FEC18F034C041F035C042F01200A1
:103D88000AEC22F0EDEC21F03B0E2B6E010E2C6EAE
:103D9800400E2D6E1E0E2E6E38EC1FF06B0E2B6E25
:103DA800010E2C6EB80E2D6E100E2E6E38EF1FF011
:103DB800396E9D0E346E36C035F0F0EC20F03A0EB8
:103DC80000019F6FA00E346E37C035F0F0EC20F084
:103DD800050E336E38C034F03950AEEF20F059ACD0
:103DE80007D0599C0ED8DF502B6E2B280AD8DF6ECF
:103DF80008D82A50DE5C02E304D8DF6A02D8DF5014
:103E0800120028C0D9FF29C0DAFF1200B1C040F063
:103E1800B2C041F0B3C042F03F0E436E420E446E52
:103E28000F0E456E10EC0EF040500001B16F41507E
:103E3800B26F4250B36FB46B120013D03D5008E01C
:103E48003D063B503D24D96EDA6ADF503F6E02D002
:103E58003CC03FF03E063B503E24D96EDA6A3FC074
:103E6800DFFF3E50EBE112002F6A10D02D502F24B7
:103E7800286E296A29362BC0D9FF2CC0DAFFDF50FB
:103E88002A6E4EEC1FF02B4A2C2A2F2A2E502F5C1C
:103E9800EDE3120028C0A9FF2AC0A8FFA69EA69C91
:103EA800A684D890F2BED880F29E550EA76EAA0EB0
:103EB800A76EA682D8B0F28EA6B2FED7A69412003C
:103EC800D8904430466E4330456E41504524286EA4
:103ED80042504620296E43C02AF044C02BF071ECB2
:103EE8001CF028C041F029C042F0120010D8DF5061
:103EF8002C6E59AE08D02C2A2B282C1802E12AC087
:103F08002CF0080E6D6E03D82CC0DFFF120028C0FD
:103F1800D9FF29C0DAFF1200929A899A0A0EE82E70
:103F2800FED7928A0F0EE82EFED7000E80BA010E39
:103F3800296E5B0EE82EFED700D029C028F0283065
:103F480012002F6A0FD02D502F24286E296A293687
:103F580001EC22F02BC0D9FF2CC0DAFFDF6E2B4A10
:103F68002C2A2F2A2E502F5CEEE312003B6E9D0E5A
:103F7800326E3B50336E346A356A00EC14F03C6E96
:103F88003C509D0F03D83C2A3C501200D96EDA6A87
:103F98002E0EDF6E2E0C3BC134F03CC135F03DC116
:103FA80036F03EC137F0100E386E0E0E396E3A6A92
:103FB8003B6A4FEC18F034C041F035C042F01200B3
:103FC800C450226EC3500101076F22C008F1B8C166
:103FD80020F0B9C121F00500FA6EB651FD6EB75157
:103FE800FE6EF850FF6EFA501200296E080E2A6E07
:103FF8002B6AD8902B362CEC21F02B122A2EF9D7CD
:10400800295047EC20F000D000D000F081922B50CE
:104018001200296E800E2A6E29502A1447EC20F0CF
:10402800D8902A322A50F8E12CEC21F02A6E00D0E0
:1040380000D000F081922A501200386E9D0E2A6E30
:10404800260E2B6E7E0E2C6E36C02DF060EC19F00D
:10405800396E39C033F037C034F03850BFEF20F034
:1040680047504902F3CF4BF0F4CF4CF047504A0287
:10407800F3504C2648504902F3504C264BC047F0A9
:104088004CC048F01200286E81929390285002E1AB
:10409800819001D08180050EE82EFED700D0818264
:1040A800030EE82EFED700F0120059AE59BC6D6A17
:1040B8009D0E2A6E4C0E2B6E7F0E68EC03F060ECA2
:1040C80019F0336E34EC11F0BFEF20F0B7C040F0B8
:1040D800B8C041F0426A2F0E436E750E446E456AB1
:1040E80010EC0EF040C0B7F041C0B8F01200FEEC82
:1040F8001BF00001BD510F0B01018A6F0001BE3991
:104108000F0B01018B6F0001BD390F0B756E12008B
:10411800296E29500F0B286ED8902930780B296EFC
:1041280029502826D8902932D89029322850292475
:10413800120028C02CF029C02DF008D02CC0D9FFBF
:104148002DC0DAFF2AC0DFFF2C4A2D2A2B062B2888
:10415800F5E11200356E3528D8B4120035503AEC26
:1041680021F09D0E2A6E33C02BF0080E2C6E34C041
:104178002DF0C0EF18F0356E3528D8B41200355040
:104188003AEC21F09D0E2A6E33C02BF0100E2C6EE7
:1041980034C02DF0C0EF18F0376E37508CEC20F09B
:1041A800386E382A3804366E3550365C02E334C02F
:1041B80038F03850E6EF1DF0010E526E536E0A0EBD
:1041C800546E0001BE510F0BEAEC14F0556EBE1987
:1041D800F00B5518BE6F12003450D96EDA6AD92A1E
:1041E80035500F0B300FDF6E3450D96EDA6A353820
:1041F8000F0B300FDF6E1200BBC036F0BCC037F0BB
:10420800850E386E7D0E396E83EC0DF036C0BBF02E
:1042180037C0BCF01200D00E70EC21F0000902E0AB
:10422800C3EF21F00E0E0DEC20F03C0E0DEC20F04B
:10423800C3EF21F02A6A2B6AD8902A3290EC1FF03B
:1042480001E32A8E2B2A070E2B64F6D72A50120078
:104258008192050EE82EFED700D093808182030E4E
:10426800E82EFED700F081B0010C000C2A6E829275
:104278002A50A1EC21F02A38F00BA1EC21F0580EBD
:10428800E82EFED700F012005A4301D44002143E33
:1042980003AC4204004205C04108580C06B221078D
:0342A800B2400918
:1042AC00BA0E286E8C0E296EE60E2A6EC7EC1DF027
:1042BC0059EC03F0C40E91EF1EF0296E2A6A2950B6
:1042CC00010B5BEC1EF0D89029322A2A070E2A64C7
:1042DC00F6D7070C2B6E818200D000F09390819062
:1042EC00050EE82EFED700D02B500DEF20F02D6ED2
:1042FC002A508CEC20F02B6E2D508CEC20F02C6E78
:10430C002B502C5C1200010E3AEC21F00F0E2B6E90
:10431C00050EE82EFED72B2EFCD700F01200BB0E9C
:10432C000001CB6F010ECC6FCE6B080ECD6F180E4B
:10433C00CF6FA0EF14F0296E29C028F0F00E2816CC
:10434C0082500F0B2810826E8286829612000E0EFF
:10435C00526E010E536E54680001B951EAEC14F020
:10436C00B96F12006B50D8A412000A0E6B6E830E3C
:10437C002E6E010E2F6E06EF10F093908190050EAD
:10438C00E82EFED700D0818200D000F0938012007E
:10439C0059A802D05B8C6D6A46EC1DF06D50D8A408
:1043AC005BBC1200FBD70001BCA5000C010138510D
:1043BC0003E0871901E0010C000C6AEC1DF001E22E
:1043CC001200CC0E63EC21F0440E63EF21F00F0EC3
:1043DC002B6E010E2C6E100E2D6E2C0E2E6E38EFD9
:1043EC001FF0286E28C06DF06D50D8A459BE120075
:1043FC0059BC1200F9D728C0A9FFA69EA69CA6807E
:10440C00A8CF2AF02A501200B10E2B6E2C6A2D6AFE
:0F441C000E0E2E6E38EF1FF0FF0000FF030000A2
:03442C0012006417
:107CEA000000001F003B005A0078009700B500D43E
:107CFA0000F300110130014E016D01060202050078
:107D0A0003050104060204006675656C20636F6E44
:107D1A007374616E740076737320636F6E7374612B
:107D2A006E7400746F74616C207472697000766F7F
:107D3A006C746167652061646A7573740073657435
:107D4A0074696E677320626974730074656D70205C
:107D5A0073656E736F7273007365727669636520FB
:107D6A00636E747273006D696E207370656564006A
:107D7A0073772076657273696F6E0000706169723D
:107D8A002F70617220696E6A00696E73742E2061A9
:107D9A007667006B657920736F756E640073657220
:107DAA007620616C61726D000074726970204220E5
:107DBA006D6F6E7468007472697020432064617913
:107DCA0000696E2F6F75742074656D70006473336B
:107DDA003233312074656D7000000000000000002D
:107DEA0000656E67696E6520686F75727300656EEF
:107DFA0067696E65206F696C0067656172626F788A
:107E0A00206F696C006169722066696C7465720022
:107E1A00737061726B20706C756773000073756E96
:107E2A00646179006D6F6E6461790074756573645D
:107E3A006179007765646E65736461790074687549
:107E4A00727364617900667269646179007361743E
:107E5A00757264617900006A616E00666562006D20
:107E6A00617200617072006D6179006A756E006AF4
:107E7A00756C0061756700736570006F6374006EDE
:107E8A006F7600646563000063757272656E7420B4
:107E9A00747269700074726970204100747269703A
:107EAA00204200616363656C206C6F6767657200CE
:107EBA00FF0001FF0203FF0405FF0607FF68FF6CCE
:107ECA00FF56FF6B6DFF73FFDFFF3EFF3CFF6D73D5
:107EDA00FFFF84010017818301003B848601011F93
:107EEA00898701010C8C880117218F85010107C040
:107EFA000020302D3130300020302D363000203631
:107F0A00302D313030002038302D31323000002D04
:107F1A002D2D006F757400696E0020656E67000074
:107F2A006E6F2073656E736F727320666F756E6401
:107F3A000074696D6520636F7272656374696F6E30
:107F4A003F0031323A35302030392E30332E32303C
:107F5A003233006A6F75726E616C20766965776577
:107F6A0072007761697420666F722073746172742B
:107F7A000000637572006461790041004200636F1A
:107F8A006E666967206D656E7500636F6E742E206C
:107F9A00646174610000206F66660020206F6E00C5
:107FAA004A4F555254524950006E6F206974656D9C
:107FBA007300742E73656E736F72002D2D2D2D2D27
:107FCA00272D2D007761726E696E670074696D6581
:107FDA006F757400766F6C746167650074696D699A
:107FEA006E670072657365743F0074726970200071
:067FFA002D2D2D2D0000CD
:020000040020DA
:08000000FFFFFFFFFFFFFFFF00
:020000040030CA
:0E000000FF220A0EFF0181FF0FC00FE00F402C
:0200000400F00A
:1000000074E40400EB2B803E6CA980E7130500002C
:10001000250171184F2BB00E21960000C500E53D5B
:100020004715180A5D6900001200982E2636E10077
:100030009D09000058140803230354030000000026
:10004000581F0A000000FE120A0309225131280736
:100050001121234F0A070121C86A0A210320000049
:10006000FFFFFFFFFFFFFFFF2827F6DC060000D59C
:10007000FFFFFFFFFFFFFFFF050605000000010275
:100080000A15150010050701070507000001020009
:1000900000000810000A15150C14140102050101D6
:1000A00000000000001F151F0305050000010200ED
:1000B0000000081000141C048F0301000909D24E2F
:0800C000090009000C000C000E
:00000001FF
