:100000000C94C3010C94E0010C94E0010C94950550
:100010000C94E0010C94E0010C94E0010C94E001DC
:100020000C94E0010C94E0010C94E0010C94440762
:100030000C94E0010C94E0010C940D070C94E00189
:100040000C94E0010C94E0010C94E0010C94E001AC
:100050000C94E0010C9449090C94E0010C94E0012B
:100060000C94E0010C94E001C311CB11CF11D51118
:10007000DB11E111E711ED1180C30400E0126C3EC9
:100080006EB300EA03050000F3009730515FEF0BF9
:10009000B03D00008401E61F0B243913D762000035
:1000A0001600AF2205372C013F060000151216047A
:1000B00022EB020000000000A62304008CC6A90069
:1000C00000008F0F0A13112100004510280711218D
:1000D0000000AC220A2103200000172E0A0701218C
:1000E00000FF000000000000288A0995F0013CFC98
:1000F000FFFFFFFFFFFFFFFFFFFFFFFFFFFFFFFF10
:1001000005060500000001020A151500100507018B
:10011000070507000001020000000810000A15157D
:100120000C1414010205010100000000001F151F3E
:1001300003050500000102000000081000141C0463
:1001400000000000DEADC0DE006A616E0066656220
:10015000006D617200617072006D6179006A756E88
:10016000006A756C0061756700736570006F637479
:10017000006E6F7600646563000073756E6461796C
:10018000006D6F6E646179007475657364617900E8
:100190007765646E65736461790074687572736401
:1001A0006179006672696461790073617475726463
:1001B000617900002D2D2D006F757400696E00654A
:1001C0006E6700006475616C20696E6A00736B690C
:1001D000702074656D70006B657920736F756E6447
:1001E000007365727620616C61726D006661737474
:1001F0002072656672657368006D682072706D00AC
:100200006461696C79207472697000696E2F6F7512
:10021000742074656D7000647333323331207465FB
:100220006D70000000000000000000656E67696EE0
:100230006520686F75727300656E67696E65206F03
:10024000696C0067656172626F78206F696C00612C
:1002500069722066696C74657200737061726B20DC
:10026000706C75677300004655454C20636F6E7364
:1002700074616E740056535320636F6E7374616EB5
:100280007400746F74616C207472697000766F6CA6
:10029000746167652061646A757374007365747452
:1002A000696E677320626974730074656D70207382
:1002B000656E736F72730073657276696365206330
:1002C0006E747273006D696E20737065656400737F
:1002D000772076657273696F6E00534552564943B5
:1002E00045204D454E55005741524E494E470074EA
:1002F000696D656F7574007761697420666F72202F
:10030000737461727400302D3130302074696D69FE
:100310006E670072657365743F0074696D65206374
:100320006F7272656374696F6E3F0000206F66665E
:100330000020206F6E007472697020002D2D2D2D0D
:100340002D272D2D002D2D2D2D0031363A31322027
:1003500031372E30342E3230323200006375720065
:100360006461790041004200FF0001FF0203FF04C5
:1003700005FF0607FF68FF6CFF56FF6B6DFF73FFFD
:10038000DFFF3CFFFF0011241FBECFEFD8E0DEBF30
:10039000CDBF11E0A0E0B1E0EAE8F8E302C00590CB
:1003A0000D92A236B107D9F722E0A2E6B1E001C072
:1003B0001D92A934B207E1F70E946D180C94431CFA
:1003C0000C9400000E94701B882339F08CEC0E9472
:1003D0009A1B84E40E949A1B81E008950F931F9357
:1003E000CF93DF938C010E94701B882369F083E315
:1003F0000E949A1BE801085F1F4F0E948B1B899384
:10040000C017D107D1F781E0DF91CF911F910F91F4
:100410000895FC0180E03CE8615058F0219198E09B
:10042000482F4227869540FD832726959150C1F796
:10043000F3CF0895AF92BF92CF92DF92EF92FF92E7
:100440000F931F93CF93DF93EC018B010E94701BDE
:10045000982F882389F185E50E949A1B7E015E0111
:1004600088E0A80EB11C6E01F60181916F010E9417
:100470009A1BAC14BD04C1F78EEB0E949A1B6E014F
:10048000F9E0CF0ED11C0E948B1BF70181937F01F5
:10049000CE16DF06C1F7898190E0982F8827288142
:1004A000822BF8019183808368E0CE010E940902CB
:1004B00091E02885281390E0892FDF91CF911F913B
:1004C0000F91FF90EF90DF90CF90BF90AF90089585
:1004D000CF93DF93EC010E940D1B80ED0E942D1B3A
:1004E00080E00E942D1B80E00E942D1B88810E94CD
:1004F0002D1B89810E942D1B8A810E942D1B8B81BF
:100500000E942D1B8C810E942D1B8D810E942D1B12
:10051000DF91CF910C94171B1F93CF93DF93EC01C6
:100520000E940D1B80ED0E942D1B80E00E942D1B60
:100530000E94151B81ED0E942D1B80E00E941F1B55
:10054000182F80E00E941F1B888380E00E941F1BE1
:10055000898380E00E941F1B8A8380E00E941F1B0A
:100560008B8380E00E941F1B8C8381E00E941F1BF5
:100570008D830E94171B17FF12C082E1888386E1DA
:10058000898381E08A8387E18B8384E08C8382E2A4
:100590008D83CE01DF91CF911F910C946802DF9182
:1005A000CF911F9108950F931F93CF938C010E94B9
:1005B0000D1B80ED0E942D1B81E10E942D1B0E94CE
:1005C000151B81ED0E942D1B80E00E941F1BC82F70
:1005D00081E00E941F1BCF3F51F040E1C49F90017A
:1005E000112482958F70F901E82BCF0102C081E8B8
:1005F00091E8F80191838083CF911F910F910C9422
:10060000171B0E940D1B80ED0E942D1B8EE00E9487
:100610002D1B8CE30E942D1B0C94171BCF93DF9393
:10062000D82FC62F0E940D1B8EE40E942D1B8C2FED
:100630008C608D2B0E942D1B0E94171B0E940D1B8E
:100640008EE40E942D1B8D2F8B7FC8608C2B0E9407
:100650002D1B0E94171B85ED8A95F1F70000DF9195
:10066000CF910895CF93C82F60E0807F0E940E0342
:1006700060E08C2F8295807F0E940E0385ED8A9525
:10068000F1F70000CF910895CF93C82F61E0807FEC
:100690000E940E0361E08C2F8295807FCF910C9495
:1006A0000E03CF92DF92EF92FF920F931F93CF939F
:1006B000DF936C01C62FE42EF22E8FEF820F823073
:1006C00070F4D42FD61B82E0281301C0D69510E019
:1006D0001D1731F080E20E9444031F5FF9CFD0E084
:1006E0008601CC0ED11C0C151D0531F0F80181914D
:1006F0008F010E944403F7CF8F2D8D7F41F4CD0FE2
:10070000CF5FEC1620F080E20E944403F9CFDF9126
:10071000CF911F910F91FF90EF90DF90CF900895B0
:1007200081E00E9432038FEB97E10197F1F700C05F
:1007300000000895CF92DF92EF92FF920F931F93E4
:10074000CF93DF93CDB7DEB728970FB6F894DEBF0F
:100750000FBECDBF0E940D1B8EE40E942D1B8DE0AD
:100760000E942D1B0E94171B2FEF80E792E0215063
:1007700080409040E1F700C0000060E080E30E940C
:100780000E03EFE0F0E43197F1F700C0000060E005
:1007900080E30E940E038FE891E00197F1F700C01B
:1007A000000060E080E30E940E03EFE8F1E0319783
:1007B000F1F700C0000082E00E94320388E20E944C
:1007C00032038CE00E9432030E94900386E00E9474
:1007D000320300E010E0802F877081F4802F887B47
:1007E00080640E94320348E0B80168577F4FCE0111
:1007F00001960E94B61ACE0101967C0167019FEF17
:10080000C91AD90AF70180810E9444030F5F1F4F64
:100810000034110511F07601DECF28960FB6F8945A
:10082000DEBF0FBECDBFDF91CF911F910F91FF9023
:10083000EF90DF90CF9008959093CF018093CE01F9
:100840008091CE019091CF018138910518F01092DE
:10085000C2010DC08091C201883031F481E08093E3
:10086000BD018093FB0103C08F5F8093C20181E0D3
:100870008093E50180E480937C000895893291059E
:1008800050F48091E401882321F08091E4018230CA
:1008900029F582E00FC09C01245A31092135310528
:1008A00060F48091E401882321F08091E40181309B
:1008B000A9F481E08093E40111C080579140813513
:1008C000910550F48091E401882321F08091E401A6
:1008D000833021F483E0EECF1092E4011092E50121
:1008E00083E480937C00089580EC0E94320340E012
:1008F0006AE473E087EE91E00E94331A20E040E161
:10090000682F87EE91E00C945103EF92FF921F93B2
:10091000CF93DF93CDB7DEB728970FB6F894DEBF3D
:100920000FBECDBF48E050E06FEF70E0CE01019602
:100930000E94141CCE0101960E94EE0167EE71E048
:10094000CE0101960E94541A1092D2018CE291E0DD
:100950009093800180937F0110E08CE2E82EFF24C9
:10096000F3948091D201811148C01092FB018091D3
:10097000DD01811108C080910002811104C08091C5
:10098000C6018823B1F01092DD011092000210928E
:10099000FA0110927A011092C6011092AD011F5F08
:1009A000143008F010E01092D201F0928001E09231
:1009B0007F0141E0410F63EB71E083EF91E00E9422
:1009C000331A8093300224E0482F60E283EF91E0F5
:1009D0000E94191A80EC0E94320320E040E160E19D
:1009E00087EE91E00E9451038091FB018111B9CF04
:1009F0008091D2018823C1F3B4CF112359F088E04C
:100A0000189FB001112468597F4F48E0CE0101962C
:100A10000E94B91A28960FB6F894DEBF0FBECDBF5C
:100A2000DF91CF911F91FF90EF900895FC01848199
:100A300081508483811110C08091CB018483858192
:100A40008F5F858390913C02891730F015828681F3
:100A500097810196978386830895FC018281938113
:100A600001969383828320913A0230913B022817AA
:100A7000390738F413821282808191810196918323
:100A8000808308950F931F93CF93DF93082F10E077
:100A900025E0829FF0011124E050FF4F2481213096
:100AA00029F4809178009091790037C082819381F8
:100AB000C22FD0E0422F46958F3F2FEF920771F45F
:100AC0002091780030917900C29FC001C39F900DA2
:100AD000D29F900D1124938382830FC020917800C0
:100AE00030917900280F391F840F911DBE010E949B
:100AF000A81B261B370B3383228385E0809FF001E0
:100B0000819FF00D1124E050FF4F82819381840F6B
:100B1000911DBE010E94A81BCB010190F081E02D28
:100B2000DF91CF911F910F9109941F920F920FB6F1
:100B30000F9211242F933F934F935F936F937F9363
:100B40008F939F93AF93BF93EF93FF938091840014
:100B5000909185009093C9018093C801B19B03C017
:100B600081E08093C401199984C08091CC018111E6
:100B700087C082E085BD81E08093CC018093BC0179
:100B800080936D01909131024091850150918601D1
:100B90006091870170918801490F511D611D711D80
:100BA000409385015093860160938701709388017B
:100BB000909101022091C8013091C901911103C0A7
:100BC0008093010247C080917B0190917C01A091AC
:100BD0007D01B0917E014091740150917501820FA9
:100BE000931FA11DB11D841B950BA109B109809311
:100BF000440290934502A0934602B093470280912D
:100C0000C4018823A1F08091440290914502A091F3
:100C10004602B09147028C53964FAF4FBF4F80931F
:100C2000440290934502A0934602B09347028091FC
:100C3000440290914502A0914602B09147028093F0
:100C4000D9019093DA01A093DB01B093DC0181E03C
:100C50008093E30110927B0110927C0110927D0140
:100C600010927E0130937501209374011092E60179
:100C700007C08091CC01882319F015BC1092CC01DB
:100C8000189BB8C08091C7018111B6C081E08093E4
:100C9000C7018093BE019091BF01992309F447C019
:100CA00090916F012091C8013091C901911103C049
:100CB00080936F0131C080912D0290912E02820F9E
:100CC000931F4091C0015091C101841B950B9093DB
:100CD0007901809378018091C401882351F080913B
:100CE0007801909179018C53964F9093790180937C
:100CF000780181E08093FF01609178017091790122
:100D000040917001509171014617570728F0809368
:100D1000FD011092BF010DC03093C1012093C001AD
:100D200010922E0210922D021092E20102C0109237
:100D30006F018091B6019091B70101969093B70130
:100D40008093B60180913802909139020196909378
:100D500039028093380220913A0230913B02821787
:100D60009307D8F110923902109238028091340220
:100D700090913502A0913602B09137020196A11DE3
:100D8000B11D8093340290933502A0933602B09344
:100D9000370280918B0190918C01019690938C0188
:100DA00080938B018091930190919401019690938F
:100DB00094018093930180919B0190919C010196F5
:100DC00090939C0180939B018091A3019091A40139
:100DD00001969093A4018093A30182E092E00E9487
:100DE0002D058EE092E00E942D058AE192E00E949E
:100DF0002D0502C01092C701FF91EF91BF91AF91F5
:100E00009F918F917F916F915F914F913F912F9122
:100E10000F900FBE0F901F9018951F920F920FB654
:100E20000F9211242F933F934F935F936F937F9370
:100E30008F939F93AF93BF93EF93FF938091D001D4
:100E40009091D10101969093D1018093D00182E0DD
:100E500092E00E9416058EE092E00E9416058AE15B
:100E600092E00E941605FF91EF91BF91AF919F9183
:100E70008F917F916F915F914F913F912F910F9043
:100E80000FBE0F901F9018951F920F920FB60F92E2
:100E900011242F933F938F939F93AF93BF93EF931F
:100EA000FF938091C401811142C080910102882387
:100EB00019F18091E6018F5F8093E6018C3341F454
:100EC0001092010215BC1092E3011092BC0114C0F3
:100ED00080917B0190917C01A0917D01B0917E0178
:100EE0008C53964FAF4FBF4F80937B0190937C0103
:100EF000A0937D01B0937E0180916F018823C9F09A
:100F00008091E2018F5F8093E2018A3029F4109290
:100F10006F011092FF010DC080912D0290912E0261
:100F20008C53964F90932E0280932D0202C0109204
:100F3000C4019091E4018091B301913089F4853628
:100F400018F48F5F8093B3018091B3018436A1F4CC
:100F500081E08093FA018093FB01809313010CC020
:100F600085508E3238F481E08093DD018093FB015F
:100F7000109213011092B3019091E4018091B0019D
:100F8000923089F4853618F48F5F8093B001809198
:100F9000B0018436A1F481E080937A018093FB0153
:100FA000809313010CC085508E3238F481E0809319
:100FB00000028093FB01109213011092B0019091F6
:100FC000E4018091CA01933089F4853618F48F5F6B
:100FD0008093CA018091CA018436A1F481E0809394
:100FE000AD018093FB01809313010CC085508E32BC
:100FF00038F481E08093C6018093FB0110921301C5
:101000001092CA01809113018F3FD1F090913F025D
:1010100095FF13C091E09093B5011092CD01082E79
:10102000000C990B9C01220F331F820F931F865FC8
:101030009E4F90937301809372018FEF8093130101
:101040008091BB018F5F8093BB0190916E018917E6
:1010500008F48EC01092BB0181E08093FB012091C7
:10106000D0013091D1013093BA012093B90110928F
:10107000D1011092D0012091B6013091B701309387
:10108000B2012093B1011092B7011092B601909174
:101090003F0293FF05C090913302992309F466C083
:1010A000109233028091BC01811105C08091BE0174
:1010B000882309F44CC08091810190918201A09114
:1010C0008301B09184010196A11DB11D809381011E
:1010D00090938201A0938301B093840180910A02CE
:1010E00090910B02A0910C02B0910D020196A11DEE
:1010F000B11D80930A0290930B02A0930C02B0934F
:101100000D028091160290911702A0911802B091E1
:1011100019020196A11DB11D80931602909317022A
:10112000A0931802B0931902809122029091230299
:10113000A0912402B09125020196A11DB11D8093BA
:10114000220290932302A0932402B093250280915F
:10115000C501882369F08091C50181508093C50144
:10116000811106C081E08093770102C08093330231
:1011700080917F0190918001892B71F080917F0196
:101180009091800101979093800180937F01892B3A
:1011900019F481E08093D2018091BF01882349F046
:1011A0008091E0019091E10101969093E10180939B
:1011B000E00180912F0281115CC081E08093F701F2
:1011C0009AE090932F029091B501992309F454C0AD
:1011D0009091CD0191110CC08093CD018093760147
:1011E000E0917201F091730180818F5F8093B4016F
:1011F000809176018823C1F0109276018091B4012C
:1012000081508093B401882359F081E08093AB0131
:10121000E0917201F091730181818093C30104C058
:101220001092B5011092CD018091AB01882379F025
:101230008091C30181110AC01092AB01E09172014B
:10124000F0917301828181508093C3015E9A8091F5
:10125000AB01811108C08091C301811103C081E0FD
:10126000809376015E988091C30181508093C30181
:1012700003C0815080932F02FF91EF91BF91AF91F6
:101280009F918F913F912F910F900FBE0F901F90C4
:1012900018951F920F920FB60F9211242F933F9320
:1012A0004F935F936F937F938F939F93AF93BF936E
:1012B000EF93FF938091E5010E94420584E086BB95
:1012C000FF91EF91BF91AF919F918F917F916F911E
:1012D0005F914F913F912F910F900FBE0F901F90F4
:1012E0001895CF93DF93D62FC42F682F87EE91E008
:1012F0000E9469198AE38093E9016D2F8AEE91E0DB
:101300000E9469192C2F48E065E087EE91E0DF919B
:10131000CF910C945103CF93DF93D62FC42F9FEF1F
:10132000980F9E3F40F040E06CE373E087EE91E061
:101330000E94331A17C0682F87EE91E00E94691946
:101340008D2F0E945219482F68E471E089EE91E0D8
:101350000E94331A87E28093EC016C2F8DEE91E0AE
:101360000E94691920E048E068E087EE91E0DF9193
:10137000CF910C945103482F69E771E087EE91E01B
:101380000E94331A20E040E1682F87EE91E00C9430
:101390005103CF93DF93EC0180E80E94320340E0D9
:1013A000688189810E94710988E80E9432034D8119
:1013B0006C818B810E948B0980EC0E9432038A81B0
:1013C000DF91CF910C94BB09462F90E068E673E063
:1013D00089519E4F0C94331ACF93DF93C82FD42F8B
:1013E0000E94E4096C2F680F2D2F48E087EE91E0F2
:1013F000DF91CF910C9451030F931F93CF93DF9301
:10140000EC018B01AB0160E070E02AE00E94081A59
:101410000A30110528F49881998390E398838F5FAF
:10142000282F30E0F9013197EC0FFD1F9081C20F9A
:10143000D31F98839EE290838F5FDF91CF911F919E
:101440000F910895CF93DF93C62FFC0160857185BE
:10145000828593852EE130E040E050E00E94BC1B85
:10146000C9016CE370E00E94A81BD82FAB0160E0BB
:1014700070E02AE087EE91E00E94081A91E0980F50
:1014800090933002E82FF0E0E951FE4F8AE3808329
:101490008D2F0E945F192091300230E0682FC90122
:1014A00089519E4F0E946919609130026E5F60936E
:1014B00030022C2F48E087EE91E0DF91CF910C9421
:1014C00051038F929F92AF92BF92CF92DF92EF9291
:1014D000FF920F931F93CF93FC01C62FC084D1843A
:1014E000E284F384C114D104E104F10411F1008118
:1014F000118122813381A0E5B6E40E94E41B209192
:101500003A0230913B0240E050E00E94BC1B49018E
:101510005A019801A0E5B6E40E94E41B680D791D0C
:101520008A1D9B1DA70196010E94BC1B2115310538
:1015300041F440E065E473E087EE91E00E94331AE5
:1015400005C0B90187EE91E00E94FC09809330024A
:101550004C2F61E080913002CF911F910F91FF904D
:10156000EF90DF90CF90BF90AF909F908F900C94B2
:10157000EC09CF93DF93EC012A813B81AAE0B0E034
:101580000E94E41B20913A0230913B0240E050E07F
:101590000E94BC1B68817981EAE0E69FC001E79F59
:1015A000900D1124820F931FDF91CF910895CF9357
:1015B000C62F0E94B90ABC0187EE91E00E94FC0987
:1015C000809330024C2F68E0CF910C94EC09CF93BC
:1015D000C62FFC01868197816AE070E00E94A81BFB
:1015E00087EE91E00E94FC09809330024C2F66E068
:1015F000CF910C94EC091F93CF93DF93EC01162F3E
:101600000E94B90AAC012E813F812530310510F0CE
:10161000039740F440E065E473E087EE91E00E94B8
:10162000331A0EC0A4E6B0E00E94E41B9A0140E029
:1016300050E00E94BC1BB90187EE91E00E94FC09BA
:1016400080933002412F63E080913002DF91CF918F
:101650001F910C94EC09FF920F931F93CF93DF938C
:101660008C01EB01F42EBC01CE0189519E4F0E94EA
:10167000FC09093E134010F4209709F4825080932E
:101680003002809130028C0F809330024F2D61E048
:10169000DF91CF911F910F91FF900C94EC09CF93A4
:1016A000C82F8091E301811108C040E065E473E038
:1016B00087EE91E00E94331A2AC080913F0287FD95
:1016C00005C060E873EC89EC91E004C060EC71EE59
:1016D00084EE90E02091D9013091DA014091DB0154
:1016E0005091DC010E94BC1BC90105966AE070E0C4
:1016F0000E94A81B8AE0869FA001879F500D11249D
:1017000060E070E02AE087EE91E00E94081A809382
:1017100030024C2F62E080913002CF910C94EC09A2
:101720000F93CF93C82F2091B9013091BA01A091A6
:10173000DE01B091DF014091B1015091B2010E94F0
:10174000E41B9A0140E050E00E94BC1BCA01B901B1
:1017500000913C02202F30E040E050E00E94BC1B92
:10176000B90187EE91E00E94FC09809330024C2F72
:1017700063E0CF910F910C94EC09CF93C82FA09107
:10178000B901B091BA012091FE0130E00E94E41B42
:1017900020913C0230E040E050E00E94BC1BCA01B6
:1017A000B9012AE030E040E050E00E94BC1BB901E2
:1017B00087EE91E00E94FC09809330024C2F64E098
:1017C000CF910C94EC09CF93C82F409134025091E3
:1017D000350260913602709137022AE087EE91E07F
:1017E0000E94081A809330024C2F68E0CF910C942D
:1017F000EC091F93CF93DF93C82FD62F142FE82F18
:10180000F0E0EE0FFF1FEC5EFE4F80819181909320
:10181000AF018093AE01813821E8920791F4C23084
:1018200041F48DE28093E7018093E801C093300298
:1018300068C040E065E473E087EE91E00E94331AEF
:101840004AC097FF0BC02DE22093E7019195819547
:1018500091099093AF018093AE0103C08BE2809316
:10186000E7012091AE013091AF01A9014F705527DA
:101870006AE0649FC001659F900D112444E0969535
:1018800087954A95E1F7A90174E0569547957A95B1
:10189000E1F7649F9001659F300D1124820F931F23
:1018A0009093AF018093AE01C23079F46AE070E0AA
:1018B0000E94A81BAB0160E070E02AE087EE91E097
:1018C0000E94081A809330021CC0BC0188EE91E08F
:1018D0000E94FC098F5F80933002DD23A1F028E095
:1018E0004091300260E287EE91E00E94191A42E0D6
:1018F0004C0F63EB71E087EE91E00E94331A88E0B1
:101900000AC0D1110AC06AE0809130020E94E40945
:1019100090913002890F80933002212F48E060912E
:10192000300287EE91E0DF91CF911F910C9451032B
:1019300080913F0286FF0BC090916A018091FC016B
:10194000890F80936A0181E08093FB01089580E80C
:101950000E94320341E061E080E00E94F90B80ECDC
:101960000E94320341E061E081E00E94F90B88ECC3
:101970000E94320341E060E082E00E94F90B81E0C6
:10198000809377010895CF93C82F8091CE019091D5
:10199000CF0125E0880F991F2A95E1F760913D025C
:1019A00070E00E94A81B87EE91E00E94FC098093E2
:1019B00030024C2F67E0CF910C94EC098091DD014F
:1019C000882379F080913D028C3818F08150809303
:1019D0003D021092D2018CE291E0909380018093BD
:1019E0007F0180910002811104C08091C60188238B
:1019F00079F080913D02863E18F48F5F80933D021E
:101A00001092D2018CE291E09093800180937F014B
:101A100084EC0E94320381E00C94C30CEF92FF929D
:101A20000F931F93CF93DF93C82FD62FF42EE22E60
:101A30001092D2018CE291E09093800180937F011B
:101A40000CE211E08091D201811162C01092FB0181
:101A50008091DD01882359F0CE1511F0CF5F01C0D0
:101A6000CF2D1092D2011093800100937F018091BD
:101A70000002811104C08091C601882359F0CF155E
:101A800011F0C15001C0CE2D1092D20110938001EF
:101A900000937F012C2F30E040E050E0D83029F453
:101AA000A8EEB3E00E94F31B02C0B901CA012AE00C
:101AB000AB01BC0187EE91E00E94081A80933002CE
:101AC0006D2F0E94E40990913002890F80933002BB
:101AD00084EC0E94320321E048E06091300287EEFE
:101AE00091E00E9451031092DD01109200021092C9
:101AF000FA0110927A011092C6011092AD01809104
:101B0000FB0181119FCF8091D2018823C1F39ACF2D
:101B100081E08093FB018C2FDF91CF911F910F917A
:101B2000FF90EF900895CF93DF93C4E3D2E02FEFBF
:101B300041E06CE088850E940E0D8887DF91CF918F
:101B40000895CF93DF93C4E3D2E02AE041E061E05F
:101B50008D850E940E0D8D87DF91CF9108954F9254
:101B60005F926F927F928F929F92AF92BF92CF922D
:101B7000DF92EF92FF920F931F93CF93DF932B018E
:101B80003C0169017A012AE0B701A60187EE91E0E4
:101B90000E94081AD82F9090E701A601B7014C14B3
:101BA0005D046E047F0410F4A201B3012AE087EE05
:101BB00091E00E94081A2D2F482F60E387EE91E0F4
:101BC0000E94191A80E190E08D1B910996958795E6
:101BD00030EC832E880E1092D2018CE291E090932B
:101BE000800180937F01C0E00CE211E040E3742E9D
:101BF0008091D201811182C01092FB018091DD01A0
:101C0000811103C0809100020AC0CF5FDC1301C0C4
:101C1000C0E01092D2011093800100937F01809167
:101C2000C601882361F0C11103C0CFEFCD0F01C001
:101C3000C1501092D2011093800100937F018091D6
:101C40000002811105C08091DD018091C6012DC087
:101C50008091C601AC2EB12CF501E951FE4F8823CD
:101C600051F080818150803350F4CC2311F089E30E
:101C700006C0892D04C080818F5F8A3310F4808371
:101C800001C0708287EE91E00E94E419C616D70663
:101C9000E806F90620F4F501E951FE4F7082109232
:101CA000D2011093800100937F018CE00E943203E7
:101CB000882D0E94320320E048E06D2F87EE91E0EE
:101CC0000E9451038C2F880D0E9432038FE00E94E6
:101CD00032031092DD01109200021092FA0110926C
:101CE0007A011092C6011092AD018091FB01811121
:101CF0007FCF8091D2018823C1F37ACF8CE00E94FC
:101D0000320381E08093FB0187EE91E0DF91CF9178
:101D10001F910F91FF90EF90DF90CF90BF90AF9009
:101D20009F908F907F906F905F904F900C94E419EC
:101D3000CF93DF93C4E3D2E06E817F8180E090E0B7
:101D40002FE235E740E050E00E94AF0D7F836E83C5
:101D5000DF91CF910895CF93DF93C4E3D2E0688100
:101D600079818A819B812FE332E44FE050E00E9429
:101D7000AF0D688379838A839B83DF91CF91089528
:101D8000CF93DF938091DD01882391F080916901E9
:101D90008F5F853019F08093690102C0109269014C
:101DA0001092D2018CE291E09093800180937F01A8
:101DB0008091C601882389F080916901811102C058
:101DC00084E001C08150809369011092D2018CE2BD
:101DD00091E09093800180937F0180EC0E94320318
:101DE0004091690181E3840F8093E7018EE2809343
:101DF000E8014F5F6AE272E089EE91E00E94331AD7
:101E000062E0680F20E040E187EE91E00E9451031C
:101E100080910002882309F45BC01092DD011092CA
:101E200000021092FA0110927A011092C6011092EB
:101E3000AD0180E80E943203409169014F5F6AE280
:101E400072E087EE91E00E94331A20E040E1682FB3
:101E500087EE91E00E94510380EC0E94320340E142
:101E600050E060E270E087EE91E00E94141C20E0F8
:101E700040E160E187EE91E00E945103C091690169
:101E8000C11111C06091890170918A0180E090E0D8
:101E90002FEC37E040E050E00E94AF0D70938A01D4
:101EA000609389010DC088E0C89FE0011124C758E4
:101EB000DE4F2CE340E068E08C850E940E0D8C879D
:101EC0001092D2018CE291E09093800180937F0187
:101ED000DF91CF9108957F928F929F92AF92BF92A0
:101EE000CF92DF92EF92FF920F931F93CF93DF93E6
:101EF000EC016B011092D2018CE291E09093800191
:101F000080937F01712C9CE2E92EFF24F3942FE053
:101F1000A22EB12C88248394912C8091D20181111E
:101F20009AC01092FB018091DD01882361F02FE0BF
:101F3000721611F0739401C0712C1092D201F092BC
:101F40008001E0927F018091C601882361F07720B3
:101F500011F07A9402C08FE0782E1092D201F092A4
:101F60008001E0927F0180910002072D10E088231C
:101F700089F0C501801B910B940102C0220F331F11
:101F80008A95E2F7C227D3271092D201F0928001FE
:101F9000E0927F018CE00E943203AE0160E070E0CD
:101FA00022E087EE91E00E94081A20E1482F60E3CA
:101FB00087EE91E00E94191AF801E951FE4F108155
:101FC00080EC0E94320320E040E160E187EE91E086
:101FD0000E94510340E150E060E270E087EE91E042
:101FE0000E94141C41E0470DB60187EE91E00E946B
:101FF000331A80933002882341F041ED410F6BE2A8
:1020000073E083EF91E00E94331A80E80E9432036C
:1020100020E040E160E187EE91E00E94510380EC16
:10202000870D0E9432038FE00E9432031092DD017F
:10203000109200021092FA0110927A011092C601D9
:102040001092AD018091FB01811167CF8091D20187
:102050008823C1F362CF8CE00E94320381E0809339
:10206000FB01CE01DF91CF911F910F91FF90EF9077
:10207000DF90CF90BF90AF909F908F907F9008950A
:10208000CF93DF93C4E3D2E063EC71E08A859B8554
:102090000E946B0F9B878A87DF91CF910895CF9322
:1020A000DF9320917A01222309F44DC0EC011092B4
:1020B000DD01109200021092FA0110927A01109242
:1020C000C6011092AD010E94900380E80E94320385
:1020D00040E0BE0187EE91E00E94331A22E040E129
:1020E000682F87EE91E00E9451031092D20180E0A8
:1020F00092E09093800180937F018091D2018111C1
:102100000CC08091DD01811108C080910002811115
:1021100004C08091C601882381F39091000281E080
:10212000911101C080E01092DD0110920002109226
:10213000FA0110927A011092C6011092AD0191E05D
:102140009093FB0101C080E0DF91CF910895EF9261
:10215000FF921F93CF93DF9300D000D000D0CDB774
:10216000DEB783ED91E00E948C028AE193E00E9449
:102170004F10882309F4D8C086E0EAE1F1E0DE01DF
:10218000119601900D928A95E1F70E9490031092AA
:10219000D20184EF91E09093800180937F0110E061
:1021A00084EFE82EFF24F3948091D2018111A7C01F
:1021B0001092FB018091DD01811103C0809100022A
:1021C0000AC01F5F163009F410E01092D201F0929D
:1021D0008001E0927F018091C601882359F011238C
:1021E00011F0115001C015E01092D201F09280015F
:1021F000E0927F0180910002811105C08091DD0194
:102200008091C60154C08091C60161E0811160E0F7
:10221000123029F168F41123C9F01130D1F52BE304
:1022200040E08091D3010E9473198093D30131C0A3
:10223000143039F1E8F0153061F527E041E0809184
:10224000D5010E9473198093D50123C027E140E096
:102250008091D4010E9473198093D4011AC02FE198
:1022600041E08091D6010E9473198093D60111C07C
:102270002CE041E08091D7010E9473198093D7012F
:1022800008C02BE146E18091D8010E947319809328
:10229000D8018EEF810F833020F483ED91E00E940E
:1022A0006B1A1092D201F0928001E0927F0110929D
:1022B000DD01109200021092FA0110927A01109240
:1022C000C6011092AD018CE00E94320383ED91E0D3
:1022D0000E94C909E1E0F0E0EC0FFD1FE10FF11DE4
:1022E00080810E9432038FE00E9432038091FB01C3
:1022F00081115ACF8091D2018823C1F355CF8CE050
:102300000E94320383ED91E00E94680210927A01EC
:1023100026960FB6F894DEBF0FBECDBFDF91CF91EA
:102320001F91FF90EF90089583ED91E026960FB6F0
:10233000F894DEBF0FBECDBFDF91CF911F91FF900C
:10234000EF900C94C909FC0180910002882329F0C8
:102350001092000280818F5F80838081861708F051
:10236000108280810895CF93C82F68E080E492E0C6
:102370000E94A31190E088309105E8F5FC01EC5C27
:10238000FF4F0C94DE1B80913F024C2F60E0817068
:10239000CF910C94F90B8C2FCF910C94C30C6C2F14
:1023A0008AE192E0CF910C94220A6C2F8AE192E0AC
:1023B000CF910C94D70A6C2F8AE192E0CF910C94C4
:1023C000FB0A6C2F8AE192E0CF910C94610A6C2F8A
:1023D0008AE192E0CF910C94E70A6BE080E00E94E2
:1023E000E409682F70E04C2F80912B0290912C0211
:1023F000CF910C942B0BCF9108953F924F925F9207
:102400006F927F928F929F92AF92BF92CF92DF9204
:10241000EF92FF920F931F93CF93DF9380E80E9478
:10242000320340E067EF72E087EE91E00E94331ADA
:1024300022E040E1682F87EE91E00E945103109264
:102440006F011092FD011092E1011092E0011092D3
:1024500032021092480240E150E06DE370E087EEF6
:1024600091E00E94141C1092D20180E096E09093BB
:10247000800180937F011092F7013324339480E12F
:10248000882E81E0982E00E012E09AE0E92EF12CEF
:10249000412C29EE522E24EA622E25E3722EC12C05
:1024A0003CE0D32E4BE5A42EB12C80914802811143
:1024B000E9C08091DD018111E5C0809100028111A8
:1024C000E1C08091C6018111DDC08091D2018111EE
:1024D0001BC08091BE01811117C08091F701882334
:1024E00021F31092F70180EC0E94320380917F016A
:1024F00090918001B5010E94A81B20E040E187EE89
:1025000091E00E945103D1CF8091D201811168C026
:102510008091FD0181110AC08091BF01811106C027
:10252000D0928001C0927F013092BF018091E00182
:102530009091E101B7010E94A81B87EE91E00E94F3
:10254000FC098093300269E00E94E4094091300266
:10255000480F4093300220E160E287EE91E00E9454
:10256000191A8091FF018823F9F0C0917801D09168
:10257000790120913A0230913B0240E050E0C301E2
:10258000B2010E94BC1BCA01B9019E0140E050E0AB
:102590000E94BC1BBA01A901662777272AE087EEB3
:1025A00091E00E94081A07C040E065E473E087EEFE
:1025B00091E00E94331A8093300261E080913002F2
:1025C0000E94E40980E18093300280EC0E94320393
:1025D00022E040E16091300287EE91E00E945103D9
:1025E0008091D20181110BC08091FD01811107C042
:1025F0001092F7018091F7018823E1F356CF809183
:10260000FD01882339F080913202811103C030929C
:1026100032024BCF1092BF018091D201813089F4F8
:1026200080EC0E94320340E06FEE72E087EE91E0B2
:102630000E94331A22E040E1682F87EE91E00E9469
:1026400051033092B5011092CD01909273018092A6
:1026500072011092D2011093800100937F0180914A
:10266000D20181110CC08091DD01811108C08091DF
:102670000002811104C08091C601882381F3309249
:10268000480213CF1092BF011092DD011092000298
:102690001092FA0110927A011092C6011092AD01C7
:1026A000DF91CF911F910F91FF90EF90DF90CF902E
:1026B000BF90AF909F908F907F906F905F904F9062
:1026C0003F90089580E80E9432038091B801811103
:1026D0002DC083ED91E00E948C0240E06091D30117
:1026E0008091D4010E9471098091BC01811111C0B7
:1026F00081E00E94E30B80EC0E94320380913F0254
:1027000040E060E081700E94F90B81E00E94C30C00
:1027100022C081E00E944F0B80EC0E94320380E0D7
:102720000E94B31181E00E94BD0B15C040E060E043
:1027300070E08091F8019091F9010E942B0B81E0EB
:102740000E944F0B80EC0E94320380E00E94B31184
:1027500081E00E94900B8091BE0181110BC080919D
:10276000BC01882339F086E093E00E944F1081116C
:102770000C94FD110895CF93DF93EB01882331F082
:102780008CE0FE0111928A95E9F706C083E193E09F
:102790000E944F108111F4CFDF91CF9108951F93C4
:1027A000CF93DF93EC01162F80E80E94320340E0C4
:1027B00066E373E087EE91E00E94331A8093300263
:1027C00090E0412F6BE573E089519E4F0E94331AD0
:1027D00060913002680F6093300220E048E087EE9D
:1027E00091E00E94510361E0CE010E94D70A80EC83
:1027F0000E94320362E08CE691E00E94A3118823DC
:1028000059F0813089F460E0CE010E94220A61E033
:10281000CE010E94E70A08C060E0CE010E94FB0AD8
:1028200061E0CE010E94610ABE0180E0DF91CF919C
:102830001F910C94BB1380913F0281FD02C061E0A7
:1028400001C062E08AE192E00C94CF1363E082E081
:1028500092E00C94CF1364E08EE092E00C94CF13DE
:1028600080913F0282FF0DC06091850170918601C9
:10287000809187019091880120E037E741E050E0A6
:102880000CC06091810170918201809183019091CF
:10289000840128E037E040E050E00E94BC1BC90101
:1028A0000895FF920F931F93CF93DF9365E08BE61C
:1028B00091E00E94A31180E80E94320340916B01D5
:1028C0004F5F6AE272E087EE91E00E94331A20E0E7
:1028D00040E1682F87EE91E00E94510380916B01E7
:1028E000811105C00E943014CBE8D1E00FC090E008
:1028F000019723E0880F991F2A95E1F7EC01C5574E
:10290000DE4FFC01EF57FE4F82859385AC0160E0FE
:1029100070E02AE087EE91E00E94081A809330026E
:1029200090916B01992311F068E001C065E00E946D
:10293000E409E09130028E0F91E0980F90933002FD
:10294000E82FF0E0E951FE4F80E2808380EC0E94A6
:10295000320321E048E06091300287EE91E00E946E
:1029600051031B810C81FD8088EC0E9432034F2DA6
:10297000602F812F0E948B0983E193E00E944F100A
:10298000882319F183ED91E00E948C0280916B0104
:10299000823080F4109281011092820110928301A2
:1029A0001092840110928501109286011092870185
:1029B00010928801198218828091D6018B838091B0
:1029C000D7018C838091D8018D83DF91CF911F91A6
:1029D0000F91FF9008950F931F93CF93DF93C82F0C
:1029E000E82FF0E0CF01880F991FE80FF91FE75C8F
:1029F000FE4FD0810181128180E80E94320340E0C5
:102A00006AED72E087EE91E00E94331A20E040E127
:102A1000682F87EE91E00E94510380EC0E94320300
:102A2000CF5CC093E7018EE28093E8014D2F66E60C
:102A300072E089EE91E00E94331A62E0680F20E0B4
:102A400040E187EE91E00E945103809100028823CB
:102A500009F43FC0109200020E9490031092690195
:102A60001092D2018CE291E09093800180937F01DB
:102A70008091D20181112AC01092FB0180E80E944E
:102A800032034D2F66E672E087EE91E00E94331A22
:102A900020E040E1682F87EE91E00E945103F801A9
:102AA00009951092DD01109200021092FA01109225
:102AB0007A011092C6011092AD018091FB01811143
:102AC000D7CF8091D2018823C1F3D2CF81E0809308
:102AD000FB01DF91CF911F910F9108950F931F93E9
:102AE000CF93DF93CDB7DEB728970FB6F894DEBF4C
:102AF0000FBECDBF48E068EC70E0CE0101960E94A9
:102B0000B61A48E050E060E471E0CE0101960E9400
:102B1000FE1B892B01F540E160E070E084E392E068
:102B20000E94B61A4BE260E170E082E092E00E94FF
:102B3000B61A4AE260E470E081E891E00E94B61AB9
:102B400028960FB6F894DEBF0FBECDBFDF91CF91B0
:102B50001F910F91089500E010E0B80168587F4F71
:102B600048E050E0CE0101960E940B1C48E0B801FD
:102B7000CE0101960E94B91A085F1F4F003D110552
:102B800061F7C9CF40E160E070E084E392E00E9429
:102B9000B91A4BE260E170E082E092E00E94B91A5B
:102BA0004AE260E470E081E891E00C94B91A0E9476
:102BB0009003F89480916D018823C1F083ED91E03A
:102BC0000E948C028091D301809326028091D401CF
:102BD000809327028091D601809328028091D701AB
:102BE000809329028091D80180932A020E94C21505
:102BF0005B98FFCF1F93CF93DF93162F0E9452193C
:102C00008150E82FF0E0E45DFE4FC081D0E08930D4
:102C100008F0D395812F0E9452199E01280F311D73
:102C2000C901DF91CF911F9108950F931F93CF9307
:102C3000DF9383ED91E00E948C0260912A028091E3
:102C4000D8010E948D19182F813019F010F081E001
:102C500049C06091D6018091D7010E94FA15EC011C
:102C600060912802809129020E94FA15113019F012
:102C700020E030E002C02DE631E0AE01481B590BE8
:102C8000CA01820F931F8230910508F720913F02FD
:102C900021FD28C0019719F0C0E0D0E002C0C8E1D2
:102CA000D0E0609127028091D4010E948D19C80F55
:102CB000D11D87FDDA95D7FDCACF8CE38C9F8001AB
:102CC0008D9F100D1124609126028091D3010E94E6
:102CD0008D19080F111D87FD1A9581E0093711051F
:102CE0000CF480E0DF91CF911F910F9108950E9425
:102CF000C21A0E946E150E949A0381E48093CB0150
:102D00008CE18093FE0180913A0290913B02880F02
:102D1000991F6DE070E00E94A81B7093DF01609323
:102D2000DE0180913F0287FF0CC092E89093CB01B7
:102D30009EE09093FE01769567957093DF01609316
:102D4000DE0198EC90936E0183FF0AC080916E01C2
:102D5000869580936E018091FE01880F8093FE011D
:102D60000E941516882349F06AE172E081E00E9412
:102D7000BB1310922C0210922B0208958F929F92F7
:102D8000AF92BF92CF92DF92EF92FF920F931F9379
:102D9000CF93C0908901D0908A0181E8E82E81E02C
:102DA000F82E00E010E0C0E098EEA92E93E0B92ED6
:102DB00088248394912C01110AC0C114D104E9F034
:102DC0000E9430148C159D05C0F0C16016C0F7013B
:102DD0009481992391F09A9D90019B9D300D11242F
:102DE000428153814217530740F09401002E02C0E4
:102DF000220F331F0A94E2F7C22B0F5F1F4F38E0F8
:102E0000E30EF11C05301105B1F68C2FCF911F9107
:102E10000F91FF90EF90DF90CF90BF90AF909F9079
:102E20008F900895CF92DF92EF92FF921F93CF93EE
:102E3000DF93D82FC1E011E080E1E82E81E0F82E89
:102E40009CE2C92EDD24D394D0FF4CC01093B50171
:102E50001092CD01F0927301E092720180E80E941D
:102E6000320340E067EE72E087EE91E00E94331A91
:102E700022E040E1682F87EE91E00E94510380EC50
:102E80000E9432034C2F6AE272E087EE91E00E94CA
:102E9000331A22E040E1682F87EE91E00E9451034F
:102EA0001092D201D0928001C0927F018091D20114
:102EB00081110CC08091DD01811108C08091000258
:102EC000811104C08091C601882381F31092DD0135
:102ED000109200021092FA0110927A011092C6012B
:102EE0001092AD01D695CF5FC63009F0ADCFDF911E
:102EF000CF911F91FF90EF90DF90CF900895CF92E8
:102F0000DF92EF92FF920F931F93CF93DF93109274
:102F100077018091AC01882309F441C08EE0809351
:102F2000C5011092AC0184E1E82E81E0F82EC2E6E2
:102F3000D1E000E710E091E8C92EDC2C48E0B801B0
:102F400087EE91E00E94B61AB70187EE91E00E94E9
:102F50001A0281110AC08881853020F0F701D182E0
:102F6000C08204C08F5F888301C01882085F1F4F32
:102F7000F2E0EF0EF11C219608381105F9F6809168
:102F80003E0287FF21C086E191E0DF91CF911F9142
:102F90000F91FF90EF90DF90CF900C94D30281E0DF
:102FA0008093AC018093C5010E94E20180913E02B2
:102FB00087FF0AC0DF91CF911F910F91FF90EF9093
:102FC000DF90CF900C940103DF91CF911F910F916F
:102FD000FF90EF90DF90CF900895CF92DF92EF9225
:102FE000FF92CF93C0913F028C2F881F8827881FA4
:102FF00092E0981B90933102C0903A02D0903B022D
:10300000E12CF12C60E474E589E890E0A7019601D9
:103010000E94BC1B30937101209370012091B1017B
:103020003091B201A0EABCE80E94E41BA70196011E
:103030000E94BC1B3093F9012093F801809141025A
:103040006AE0869FC001112461E02817390708F45F
:1030500060E06093B801C3FD06C0369527953093B4
:10306000F9012093F8018091F8019091F9012091E4
:103070002B0230912C022817390720F490932C0250
:1030800080932B022091BE01222321F0892B11F481
:103090001092BE018091020290910302813D9740FF
:1030A00028F062E072E081E00E94BB1380910E0282
:1030B00090910F028137974150F06EE072E081E00D
:1030C000CF91FF90EF90DF90CF900C94BB13CF91F6
:1030D000FF90EF90DF90CF9008950E9477168BE0DD
:1030E00080938100789481E08093770180916601DC
:1030F000811108C080913F0284FF04C00E94BE1667
:103100000E9412171092DD01109200021092FA0133
:1031100010927A011092C6011092AD018091CE01F9
:103120009091CF01892B21F48091FB018823B1F389
:10313000C1E0D9E017E00FEF1092FB018091BD01D3
:1031400081110E94D71580917A01882399F180918D
:103150006601811115C08091BC0181112BC0809145
:10316000BE01811127C080916A01811123C0109294
:1031700068018091670180936A01C09366010CC069
:103180008130C1F480916A01809367018091680168
:1031900080936A01109266010E9490031092DD01F3
:1031A000109200021092FA0110927A011092C60158
:1031B0001092AD018091660181110AC010936501E2
:1031C0008091770181110E947F170E94ED1702C044
:1031D000D09365018091DD01811104C08091C60109
:1031E0008823D9F18091DD01882371F0C093FC011F
:1031F00080916A018F5F80936A01909165018917C0
:10320000E0F010926A0119C08091C6018823A9F0EC
:103210000093FC0180916A019FEF980F90936A01DF
:1032200081110BC08091B801811104C080916501AA
:10323000815001C082E080936A0110926C010E946B
:1032400090031092DD01109200021092FA01109288
:103250007A011092C6011092AD0180916601882317
:1032600029F080916A010E94EB1417C08091B80187
:10327000882341F080916A01833020F010926A0126
:103280000E949003E0916A01F0E0EE0FFF1FEC5AFC
:10329000FE4F0190F081E02D09958091FB0188237C
:1032A000E1F34ACF982F9F70807F282F30E035952B
:1032B0002795892F820F26952695820F089590E0F5
:1032C0006AE070E00E94A81B90E1699F800D1124C4
:1032D0000895FC01962F9F70905D918362956F70A9
:1032E000605D608308951F93CF93DF93162FC42FE3
:1032F000D22F0E945219113021F48D1740F4C1E0F1
:1033000003C0C81718F4CFEFC80F01C0CD2F8C2F02
:10331000DF91CF911F910C945F19CF93DF93D62F3C
:103320000E945219C82F8D2F0E945219C81B8C2F32
:10333000DF91CF910895AF92BF92CF92DF92EF923B
:10334000FF920F931F93CF93DF93EC01142F052F60
:10335000B62EA72E642F752F8B2D9A2D6901E12C87
:10336000F12CA70196010E94BC1BCA01B901FE0104
:103370003196232B242B252B11F0EF01F2CF108255
:10338000612F702F8B2D9A2DA70196010E94BC1BD7
:10339000862F122F032FB42EA52E6A3010F087E04F
:1033A000860F2197805D8983232B242B252B41F7C2
:1033B000CE01DF91CF911F910F91FF90EF90DF90A1
:1033C000CF90BF90AF9008950F931F93CF93DF934B
:1033D000EC0160E070E0CB01E991EE23A1F0AAE0FE
:1033E000B0E09B01AC010E94F31B4E2F50E09A010C
:1033F000205331098901330F220B330B600F711FEA
:10340000821F931FE9CFDF91CF911F910F910895F4
:10341000CF93DF93EC0130E00E949B1980E08F5F37
:10342000FE01E80FF11D90819111F9CFDF91CF914D
:103430000895FC01942F915060F0DF01A90FB11D98
:103440003C91822F890F841BDF01A80FB11D3C9393
:10345000F2CF241B222331F02150DF01A20FB11D36
:103460006C93F8CF0895DC01442359F0FB0194914B
:10347000BF01442339F08491981301C04150319623
:10348000F7CF90E09B01822F861BA901F90174916F
:10349000791749F02F5F3F4FFA014491FD01E80F82
:1034A000F11D4083F0CF0895FC0120E1215091F0FF
:1034B000908120FF03C092959F7001C031969F704C
:1034C0009A3010F0995C01C0905DDB019C936F5FB6
:1034D0007F4FECCF0895DF92EF92FF920F931F93EF
:1034E000CF93DF93CDB7DEB72C970FB6F894DEBF3E
:1034F0000FBECDBF7C018CE0E0E2F1E0DE01119671
:1035000001900D928A95E1F7F70185810E94521989
:10351000182FF70184810E945219082FD12ED694BA
:10352000D694F70183810E945219810F8D0DFE01FF
:10353000E00FF11D9081890F137019F4033008F426
:103540008150873010F08750FCCF8F5FF701828366
:103550002C960FB6F894DEBF0FBECDBFDF91CF9192
:103560001F910F91FF90EF90DF90089550E00C9421
:103570001B1C50E00C942B1C1092B90088E4809323
:10358000B800089514B823E025B917B899E098B9A0
:1035900088E48AB938E03BB982E084BD15BC16BC2A
:1035A00045E647BD18BC1092800030938100109210
:1035B00085001092840010928700109286009093EC
:1035C000890033EC3093880090938B0030938A000D
:1035D00080936E0080936F00109269001DBA209353
:1035E0006B0010926C0010926D0081E08093680077
:1035F0008BBB1092C10080E880BF10927F001092B8
:103600007E0083E480937C008CEE80937A0085E0DA
:1036100080937B001CBC0C94BC1A84EA8093BC0091
:103620008091BC0087FFFCCF08950C940D1B84E9AA
:103630008093BC008091BC0084FDFCCF0895811173
:1036400002C084EC01C084E88093BC008091BC007F
:1036500087FFFCCF8091BB0008958093BB0084E876
:103660008093BC008091BC0087FFFCCF9091B90093
:10367000987F81E0983209F480E00895579A5F9826
:1036800080FF0CC08AE18A95F1F700C057988FEE51
:1036900090E00197F1F700C00000089587E191E004
:1036A0000197F1F700C0000057989AE09A95F1F75A
:1036B00000C00895579A5F9885E08A95F1F7000059
:1036C0005798EAE1EA95F1F700C089B1EBEDF0E037
:1036D0003197F1F700C00000881F8827881F0895E0
:1036E000579A5F988FE797E00197F1F700C00000C5
:1036F00057988FEE90E00197F1F700C000004F99C6
:1037000008C08FE891E00197F1F700C0000081E068
:10371000089580E00895CF93DF93D8E0C0E0C69588
:103720000E945A1B8111C068D150C9F78C2FDF91BC
:10373000CF910895CF93DF93D82FC8E08D2F81705C
:103740000E943E1BD695C150C9F7DF91CF910895D5
:10375000AA1BBB1B51E107C0AA1FBB1FA617B707B7
:1037600010F0A61BB70B881F991F5A95A9F78095D3
:103770009095BC01CD010895A1E21A2EAA1BBB1B96
:10378000FD010DC0AA1FBB1FEE1FFF1FA217B3072D
:10379000E407F50720F0A21BB30BE40BF50B661F43
:1037A000771F881F991F1A9469F760957095809507
:1037B00090959B01AC01BD01CF010895EE0FFF1F55
:1037C0000590F491E02D0994A29FB001B39FC00130
:1037D000A39F700D811D1124911DB29F700D811D3D
:1037E0001124911D08950E94E41BA59F900DB49F84
:1037F000900DA49F800D911D11240895FB01DC0103
:1038000004C08D910590801921F441505040C8F7B3
:10381000881B990B0895FB01DC0102C005900D92F5
:1038200041505040D8F70895DC0101C06D934150DC
:103830005040E0F70895DC01CB01FC01F999FECF7F
:1038400006C0F2BDE1BDF89A319600B40D92415028
:103850005040B8F70895DC01CB0103C02D910E94C0
:10386000361C41505040D0F70895262FF999FECFCD
:103870001FBA92BD81BD20BD0FB6F894FA9AF99A8D
:0A3880000FBE01960895F894FFCFE3
:10388A001C04FFFF043E04FFFF01010101010401C2
:10389A00030302FF8181818181818184898C8FC0A8
:1038AA00060202050003050104060204001F3B5A32
:1038BA007897B5D4F311304E6D01930D02980E032B
:1038CA00AB0E04DE0C05401008A10D06850407C0E6
:1038DA000E09740462131B14980C26142B14A710D7
:0238EA00511477
:00000001FF
