:100000000C9497010C94B4010C94B4010C94B01AA4
:100010000C94591A0C94B4010C94B4010C94B401CE
:100020000C94B4010C94B4010C9434160C94B401E7
:100030000C94B4010C94B4010C94E5190C94B40123
:100040000C94B4010C94B4010C94B4010C94B4015C
:100050000C94B4010C9406160C94B4010C94B401E5
:100060000C94B4010C94B40174696D6520636F72D3
:1000700072656374696F6E3F0074696D656F757446
:10008000007761697420666F722073746172740006
:100090000020302D3130300020302D363000203619
:1000A000302D313030002038302D3132300074693D
:1000B0006D696E67002D2D2D2D00636F6E742E20DF
:1000C0006461746100766F6C7461676500006375CC
:1000D000720064617900410042007472697020000E
:1000E000FF0001FF0203FF0405FF0607FF68FF6C26
:1000F000FF56FF6B6DFF73FFDFFF3EFF3CFF6D732D
:10010000FFFF6E6F206974656D7300006375727216
:10011000656E742074726970007472697020410099
:1001200074726970204200616363656C206C6F6754
:10013000676572006A6F75726E616C2076696577AB
:1001400065720000206F66660020206F6E000070F0
:100150006169722F70617220696E6A00006B657947
:1001600020736F756E64007365727620616C6172C6
:100170006D0000747269702042206D6F6E746800AB
:100180007472697020432064617900696E2F6F7505
:10019000742074656D70006473333233312074657C
:1001A0006D7000000000000000656E636F64657292
:1001B0000072657365743F006E6F2073656E736FB8
:1001C000727320666F756E6400002D2D2D006F75A3
:1001D0007400696E0020656E670000742E73656E92
:1001E000736F720031383A35332030392E31322E68
:1001F000323032320000656E67696E6520686F7557
:10020000727300656E67696E65206F696C00676563
:100210006172626F78206F696C0061697220666933
:100220006C74657200737061726B20706C756773AB
:10023000007761726E696E6700636F6E6669672032
:100240006D656E7500006675656C20636F6E737406
:10025000616E740076737320636F6E7374616E7475
:1002600000746F74616C207472697000766F6C74C6
:100270006167652061646A7573740073657474697D
:100280006E677320626974730074656D70207365A6
:100290006E736F7273007365727669636520636E47
:1002A000747273006D696E20737065656400737796
:1002B0002076657273696F6E000073756E64617984
:1002C000006D6F6E646179007475657364617900A7
:1002D0007765646E657364617900746875727364C0
:1002E0006179006672696461790073617475726422
:1002F000617900006A616E00666562006D6172007E
:10030000617072006D6179006A756E006A756C00CB
:1003100061756700736570006F6374006E6F7600BF
:10032000646563002D2D2D2D2D272D2D000011240A
:100330001FBECFEFD8E0DEBFCDBF11E0A0E0B1E03F
:10034000ECE6F3E402C005900D92A03EB107D9F7A8
:1003500022E0A0EEB1E001C01D92AB3FB207E1F791
:100360000E94CB1B0C94B4210C940000E5E4F1E056
:1003700090E0A0E2B1E022E1981322C06F3F91F437
:10038000292F30E0220F331FF901EB5BFE4F408134
:100390004F5F40838181481708F010822B5B3E4FEE
:1003A000F901608122E130E0933011F42AE030E07D
:1003B000629FC001639F900D11248A0F9B1F0895B7
:1003C0003181329FA00DB11D11249F5F3296D4CF91
:1003D000CF93DF93442361F0FB0124916F5F7F4F44
:1003E000FB013197E4912E13F9CF4150B9F7422F19
:1003F0009B01A22FA61BE901F9015491541304C0DB
:100400008A2FDF91CF9108952F5F3F4FFE01C49156
:10041000A80FB92FB11DCC93ECCF241B411103C001
:1004200021110DC008954150FC01E40FF11D3081F0
:10043000E22FE40FE80FF92FF11D3083EFCF2150A9
:10044000FC01E20FF11D6083EBCFB0E0A0E0EBE236
:10045000F2E00C946F21082F6A017B01822EAB0120
:100460009601EC01912CB12CA12CCA01B901A50176
:1004700094010E94272121961C2F101B2115310564
:100480004105510591F71882C701B601A5019401F4
:100490000E94272169017A01605D6A93C114D10429
:1004A000E104F10489F7812FCDB7DEB7ECE00C94BD
:1004B0008B21FC01962F9F70905D918362956F70E8
:1004C000605D60830895282F2F708695982F987708
:1004D000822F890F96959695890F08959BB1907FED
:1004E00082958F70982B9BB92C9A2C98089581E453
:1004F00080934B0288E38093DF028091D702909132
:10050000D802880F991F6DE070E00E94132170934C
:10051000D0026093CF028091DC0287FF0CC082E89A
:1005200080934B028CE18093DF0276956795709300
:10053000D0026093CF028091DD02982F9F7090933C
:10054000BC029091DE0292959F709093BD028295BD
:100550008F70809386020895AAE1B0E0E2EBF2E0AA
:100560000C947721062F9AE1EDE5F1E0DE0111967A
:1005700001900D929A95E1F70E946302182F802F47
:100580000E946302412F4150550B9A01220F331FE5
:10059000E1E0F0E0EC0FFD1F2E0F3F1FF90120817D
:1005A0003181820F932F911D6A96E4E00C94932180
:1005B000FC018091BB02882329F01092BB0280814C
:1005C0008F5F80838081861708F010828081089574
:1005D000482F50E070E060E02AE080EE92E00E9458
:1005E0002502E82FF0E0E052FD4F9EE290838F5FFE
:1005F0000895CF93DF93C62FAC0170E060E02AE04E
:1006000080EE92E00E942502C81750F0D1E0DC0F86
:100610002D2F482F60E380EE92E00E940D028D2F77
:10062000282F30E020523D4FF9019C2F915048F483
:100630002C1B31099EE2F90190838F5FDF91CF91EE
:10064000089542914183F2CF8093BA028091BA0219
:10065000882361F08091B902811108C08091BB02AA
:10066000811104C08091B602882381F3089580919E
:10067000C102882329F081E08093CB021092BA0254
:100680001092B9021092BB021092B8021092C102ED
:100690001092B7021092B6021092B5028091BA027F
:1006A000882321F08091CB028823C1F308958093A1
:1006B000BB0084E88093BC008091BC0087FFFCCF26
:1006C0009091B900987F983119F081E0983209F43F
:1006D00080E0089581110AC084EC8093BC00809171
:1006E000BC0087FFFCCF8091BB00089584E8F5CF64
:1006F00084E98093BC008091BC0084FDFCCF089508
:1007000094EA9093BC009091BC0097FFFCCF0E94AC
:100710005703089580ED0E94800381111DC00E943F
:10072000570380E00E9457038091F4020E94570310
:100730008091F5020E9457038091F6020E945703B0
:100740008091F7020E9457038091F8020E9457039C
:100750008091F9020E9457030E9478030895FC01DA
:10076000A4EFB2E08C91808311968C9111978183D4
:1007700013968C911397828314968C91149783838C
:1007800015968C9184830895CF938091FD018111FA
:1007900052C08AE08093FD0180ED0E948003C0E892
:1007A00081112CC00E94570381ED0E94800380E0DC
:1007B0000E946A03C82F80E00E946A038093F402BB
:1007C00080E00E946A038093F50280E00E946A0341
:1007D0008093F60280E00E946A038093F70280E033
:1007E0000E946A038093F80281E00E946A0380936A
:1007F000F9028091FA0280688093FA020E947803DD
:10080000C7FF19C083E58093F40288E18093F50265
:1008100086E08093F60289E08093F70282E180937C
:10082000F80282E28093F9028091FA028F77809336
:10083000FA020E948A03CF91089580915D029AEF97
:10084000980F943060F11092270210926502109276
:10085000640280E891E0909367028093660286E0EC
:100860008093620280935C0280935D0210925E022C
:1008700010925F0210926002109261021092580270
:100880001092590210925A0210925B0210922602A4
:10089000109225021092530210925202089586304F
:1008A00069F12091620280915E0290915F02A091B5
:1008B0006002B091610204C0B695A795979587959F
:1008C0002A95D2F7909326028093250220915C020C
:1008D0008091580290915902A0915A02B0915B0206
:1008E00004C0B695A795979587952A95D2F79093CA
:1008F00053028093520281E0809327020895EF9281
:10090000FF920F931F93CF93DF93FC01CB012481C0
:1009100021110CC0AB0170E060E040835183628321
:100920007383CDB7DEB7E6E00C94912127FF2BC08F
:100930002F772483222359F002C0880F991F2A950C
:10094000E2F7B0E0A0E080839183A283B383448187
:10095000042F0150110B21E030E0002E02C0220FC5
:10096000331F0A94E2F780819181A281B381820FC3
:10097000931FA11DB11D04C0B695A79597958795A6
:100980004A95D2F7CECF40815181628173817A013D
:100990008B01E80EF91E011D111DD801C701C22FE0
:1009A000C150DD0B8E01C1E0D0E002C0CC0FDD1FD5
:1009B0000A95E2F74C0F5D1F611D711D04C076950D
:1009C0006795579547952A95D2F7841B950BA60BEB
:1009D000B70BB9CFFC0190818091B902882331F027
:1009E000941791F09F5F85E08093BA028091B602E0
:1009F000882341F0961711F04FEF490F85E080935F
:100A0000BA02942F90830895962FEDCFFC01908128
:100A10008091B902882331F09417D9F09F5F85E067
:100A20008093BA028091DB0280FF15C08091BB02E7
:100A300081111092BA028091B602882341F0961774
:100A400011F04FEF490F85E08093BA02942F908305
:100A50000895962FE4CF8091BB028111F0CFEBCFA8
:100A600060910D0270910E020E947F0490934001EC
:100A700080933F0120913F013091400180914101DD
:100A8000909142012817390790F480913F0190918D
:100A90004001909342018093410180913F019091E8
:100AA000400181389105B8F0109203020895209119
:100AB0003F013091400180914301909144018217A0
:100AC000930758F780913F01909140019093440122
:100AD00080934301E2CF81E080930302089548E1CF
:100AE00050E068E071E085E491E00E94FB20089509
:100AF000579A5F988FE797E00197F1F700C00000E1
:100B00005798E7E1F1E03197F1F700C0000089B1B3
:100B1000E7E6F6E03197F1F700C000008095881F06
:100B20008827881F0895579A5F9880E28A95F1F781
:100B30005798E0E3EA95F1F789B1EBEDF0E03197F2
:100B4000F1F700C00000881F8827881F0895579A72
:100B50005F9880FF0BC080E28A95F1F757988FEF7E
:100B600090E00197F1F700C0000008958FEE90E04B
:100B70000197F1F700C00000579895E39A95F1F7B7
:100B8000F3CFCF93DF93D82FC8E08D2F81700E94D1
:100B9000A705D695C150C9F7DF91CF910895A9E077
:100BA000B0E0E5EDF5E00C9471217C0185E50E9453
:100BB000C105870188E0E80EF11CF80181918F01E1
:100BC0000E94C1050E151F05C1F78EEB0E94C105DD
:100BD000CE0101967C015E019AE0A90EB11C67016D
:100BE00008E010E016950E949305811110680150ED
:100BF000C9F7F60111936F01EA15FB0589F78A81A0
:100C000099818927982789279093CE028093CD02D6
:100C1000398529E080E0215041F491E0381390E0DB
:100C2000892F2996EAE00C948D21F70191917F019B
:100C3000892798E04CE8869508F484279A95D9F797
:100C4000EACF0E947805882339F08CEC0E94C10518
:100C500084E40E94C10581E00895CF92DF92FF9263
:100C60000F931F93CF93DF936C01042F461708F463
:100C7000642F10E0213029F0102F161B233009F4C7
:100C80001695C12FC60FD0E0D11708F1DC17F8F484
:100C9000F601F080C60101966C012A9A8F2D0E9400
:100CA0006E028F2D8295807F0E946E02E3EDF0E050
:100CB0003197F1F700C00000DF5F0D13E5CFDF9142
:100CC000CF911F910F91FF90DF90CF90089580E218
:100CD000F82EE3CFCF93C82F2A980E946E028C2F54
:100CE0008295807F0E946E0283ED90E00197F1F77C
:100CF00000C00000CF91089581E00E946A068FEB4A
:100D000091E20197F1F700C000000895CF93DF93BF
:100D1000C62FD42F0E946A062D2F48E06C2F80EE3C
:100D200092E00E942D06DF91CF9108951F93CF93FB
:100D3000DF93C82F142FD22F8FEF860F8E3F88F0AE
:100D400040E064E273E080EE92E00E94E80142E05D
:100D500068E08C2F0E94860688E0DF91CF911F917A
:100D6000089580EE92E00E945902812F0E94630252
:100D7000482F63EF72E082EE92E00E94E80187E282
:100D80008093E5026D2F86EE92E00E945902DFCF3C
:100D9000EF92FF921F93CF93DF93D82F142FFB0175
:100DA00060857185828593852CE330E040E050E0DA
:100DB0000E942721C9016CE370E00E9413217C018D
:100DC000AB0170E060E02AE080EE92E00E94250234
:100DD000C82FE82FF0E0E052FD4F8AE38083C7017F
:100DE0006AE070E00E9413216295607F680F81E0E5
:100DF0008C0F90E080529D4F0E945902CD5F412F91
:100E00006C2F8D2F0E9486068C2FDF91CF911F9122
:100E1000FF90EF900895CF93DF93C62FD42F0E94B9
:100E20006A062D2F40E16C2F80EE92E00E942D0685
:100E3000DF91CF9108951F93CF93DF93C4EFD2E05A
:100E40001881698180EE92E00E9459028AE38093C2
:100E5000E202612F83EE92E00E94590241E065E0D8
:100E600080E80E9486062D814C816B8188E80E9473
:100E700096064A8169EB72E080EE92E00E94E801FA
:100E800041E0682F80EC0E940B07DF91CF911F910A
:100E900008958091B902811103C08091BB02811134
:100EA0001092BA0240E064EE71E080EE92E00E949F
:100EB000E80141E0682F80EC0E940B070895CF9372
:100EC000DF932091C102222369F1EC011092C1024B
:100ED0000E947C0640E0BE0180EE92E00E94E801A4
:100EE00043E0682F80E80E940B0785E00E942403FE
:100EF0009091BB0281E0911101C080E01092B90293
:100F00001092BB021092B8021092C1021092B70266
:100F10001092B6021092B50291E09093CB02DF914D
:100F2000CF91089580E0FBCF1F93CF93DF9365E0CF
:100F300086E892E00E94D802409186024F5F65EFFA
:100F400071E080EE92E00E94E80141E0682F80E8C5
:100F50000E940B07C0918602C1115DC060916802BA
:100F60007091690280916A0290916B0220E13EE0EB
:100F700040E050E00E942721CEE6D2E0A90170E0D7
:100F800060E02AE080EE92E00E942502182F809116
:100F9000860248E0811101C045E0812F90E060EEBB
:100FA00070E080529D4F0E94E801810FE82FF0E031
:100FB000E052FD4F90E2908361E0680F42E080ECE8
:100FC0000E9486062D814C816B8188EC0E949606DA
:100FD00081EB91E00E945F078823C9F00E94C4035F
:100FE00080918602823040F4109268021092690269
:100FF00010926A0210926B02198218828091F70295
:101000008B838091F8028C838091F9028D83DF912C
:10101000CF911F91089586E0C89FE0011124C8591F
:10102000DD4F28813981AACFA1E0B0E0EAE1F8E004
:101030000C946B212B013C0149015A012AE0BA01B1
:10104000A40180EE92E00E942502F82E4814590473
:101050006A047B0470F42AE0B301A20180EE92E0FE
:101060000E9425022F2D482F60E380EE92E00E941F
:101070000D0280E190E08F1991099695879510EC0B
:10108000180F198285E08093BA0200E0DD24DA941B
:10109000DF0C35E0C32E1092CB028091BA02811191
:1010A00013C081E08093CB0200EE12E020E030E03C
:1010B000A901D801ED918D01E11180C0CA01B901EA
:1010C0002196E0E10C9487218091DB0280FF4AC0E9
:1010D000002309F447C0898190E080529D4FDC01D4
:1010E000EC9049E360E30E94EA048091BB0288230C
:1010F00049F01092BB028091DB0280FF38C000955E
:10110000C092BA02E0EEF2E020E030E0A901719076
:10111000711039C082169306A406B50648F4E98119
:10112000F0E08091DB02E052FD4F80FF40C0E082A2
:101130008CE00E946A061F3F29F041E06F2D812F4D
:101140000E9486068981810F9091DB0290FF32C058
:10115000011130C00E946A068EE00E946A060E9459
:10116000370399CF4D2D60E0CE010196BCCFE981C8
:10117000F0E0E052FD4F80818F5F8A3310F480836E
:10118000BFCF80E3FCCFBEE27B1609F2AAE0B0E05D
:101190000E945E21472D4053550B9A01032E000CEF
:1011A000440B550B260F371F481F591FB0CF80E344
:1011B0008083BECF0E946A068FE0CFCFEE3209F463
:1011C00078CFAAE0B0E00E945E21AE2FA053BB0B07
:1011D0009D01032E000C440B550B260F371F481F93
:1011E000591F67CFCF93DF93C1EDD2E0688179813A
:1011F0008A819B812FE332E44FE050E00E94140883
:10120000688379838A839B83DF91CF910895CF93FD
:10121000DF93C1EDD2E06E817F8190E080E02FE22C
:1012200035E740E050E00E9414087F836E83DF9131
:10123000CF910895ADE0B0E0E0E2F9E00C947121C7
:101240000E94C40388E690E00E945F07882309F4A7
:10125000D1C01D860E947C0685E08093BA02F12CE5
:10126000E12C8AE0C82ED12C1092CB028091BA02D8
:1012700081110AC081E08093CB02E1100E948A03B1
:101280002D96EAE00C948D218091DB0280FF09C04D
:101290008091BB028111F094FF2019F0FF24FA9491
:1012A0000DC045E060E0CE010D960E94EA040D8578
:1012B00085E0089F8001112407561E4F8091DB02B4
:1012C00080FF1FC08091B902811104C08091B602D5
:1012D000882311F0F1101CC08CE00E946A060E9465
:1012E0001B078091DB0280FF7FC0F1107DC0F801F9
:1012F00084810E946A068EE00E946A060E9437037B
:10130000B3CF8091BB02882339F38091BB0258C0D0
:101310008091B602882309F451C0F801E380A080CF
:10132000B180F50180810E946302F80192819817D3
:1013300018F4EE24EA94E80E8E2D90E0B6010E9497
:1013400013216295607F860FF50180838D85825021
:10135000833070F58CE0E7E7F1E0DE011196019053
:101360000D928A95E1F78091F9020E946302E82EBE
:101370008091F8020E946302B82E8091F7020E94C9
:1013800063029E2D980F8E2D86958695980FFE01EF
:10139000EB0DF11D8081980F8E2D837021F4F2E00A
:1013A000FB1508F091509730E8F49F5F9093F60298
:1013B00085E08093BA02EE24E3948ECF8091B90247
:1013C000882321F2F801E280A080B180F5018081BC
:1013D0000E946302F8019381891708F0ADCFEE24D3
:1013E000E394A9CF9750DFCFF80184810E946A0669
:1013F0008FE082CF0E941B0743CFEF92FF920F93A3
:101400001F93CF93DF93182FF62EE22E60EE70E03D
:1014100080EF92E00E94E801D82FC82FCF0D2C2F2B
:101420004F2D60E280EE92E00E940D02D150E0F478
:101430008C2F90E04E2D60EE70E080529D4F0E9408
:10144000E801C80F1F3F51F0812F0E946A06202F2C
:1014500048E06C2F80EE92E00E942D068C2FCDB7D5
:10146000DEB7E6E00C949121ED2FF0E0E052FD4F65
:1014700080898083DBCFFF920F931F93CF93DF93FD
:10148000182FEB01F42E022F61E0CE010E94F90229
:10149000C93ED34010F4011101C0825001E021E0A7
:1014A0004F2D682F812F0E94FD09CDB7DEB7E5E0F3
:1014B0000C949221CF92DF92EF92FF920F93CF93F1
:1014C000FB01C090D902D12CF12CE12C411125C097
:1014D0002091DF0230E0DC010E944F21A70196013C
:1014E0000E942721CA01B9012AE030E040E050E023
:1014F0000E942721C4E061E0C9010E94F90202E0D4
:101500002C2F4EE0682F88EC0E94FD09CF910F919F
:10151000FF90EF90DF90CF900895A091CF02B0910F
:10152000D0029C010E944F219F0150E040E00E94A8
:101530002721CA01B901A70196010E942721C3E012
:10154000DACFA1E0B0E0E7EAFAE00C9475218983F4
:10155000162FF42EE22E85E08093BA021092CB0271
:101560008091BA02811108C081E08093CB02898109
:101570002196E6E00C9491214E2D6F2DCE0101961F
:101580000E94060549811830B9F4242F30E0A8EEF6
:10159000B3E00E944F21AB01BC012AE080EE92E053
:1015A0000E94250202E0212F4EE0682F84EC0E9469
:1015B000FD090E943703D2CF50E070E060E0EDCF2C
:1015C000CF93DF9344E060E08AE492E00E94EA0473
:1015D00080914A028F5F0E94E802C82F40914A0220
:1015E0004F5F90E065EF71E080529D4F0E94E801EF
:1015F0006C2F680F41E080EC0E940B078091BB02CA
:10160000882361F11092BB0240914A024F5F65EF5F
:1016100071E080EE92E00E94E80141E0682F80E8EE
:101620000E940B0740E060E080EC0E940B07809175
:101630004A02811116C060916C0270916D0290E0B7
:1016400080E02FEC37E040E050E00E9414087093F7
:101650006D0260936C0285E08093BA02DF91CF91B6
:1016600008958150990B26E0289FE001299FD00D15
:101670001124C859DD4F2CE340E068E088850E94C2
:10168000A10A8887E8CF8091DE022AE041E061E08C
:101690008F700E94A10AEDEDF2E0982F9F7081817A
:1016A000807F892B81830895CF93DF93C1EDD2E0B2
:1016B0002FEF41E06EE088850E94A10A8887DF91C4
:1016C000CF9108950F93CF93DF93C82FD42F022F7C
:1016D000FB018081918125E0880F991F2A95E1F710
:1016E0002091DA0262E7621B70E00E941321CB01B5
:1016F00061E00E94F90227E04D2F682F8C2F0E9495
:10170000FD09DF91CF910F91089546EE6CE88AEDC7
:1017100092E00E94060522E04EE06FE371E084EC67
:101720000E94620B0895EF92FF920F931F93CF9345
:10173000DF93F82ED62F042F262F207FE22E162F90
:101740001F70E12FF0E0EE0FFF1FE95FFE4F808179
:1017500091819093CE028093CD028138980731F524
:1017600041E069EC71E080EE92E00E94E801E7FE62
:1017700010C028E0482F60E280EE92E00E940D0247
:1017800042E0410F69EC71E080EE92E00E94E801D6
:1017900088E02EE0D4FD2AE04EE0682F8F2D0E94D5
:1017A000FD09CDB7DEB7E6E00C94912197FF3DC06F
:1017B0009195819591099093CE028093CD028DE20F
:1017C0008093E002C1E02091CD023091CE02B901B8
:1017D0006F7077274AE0469FC001479F900D112404
:1017E00054E0969587955A95E1F764E036952795EC
:1017F0006A95E1F7429FB001439F700D1124860F57
:10180000971F9093CE028093CD026AE070E00E9411
:101810001321AB0170E060E08C2F90E02AE0805251
:101820009D4F0E9425028C0FA2CFC0E065FDCBCF5B
:101830008BE2C6CFEF92FF920F931F93CF93DF936C
:10184000182FEB01042FEE80FF8085E0E816F104ED
:10185000E0F02A813B81AAE0B0E00E944F21209174
:10186000D7023091D80250E040E00E942721E88161
:10187000F9816AE06E9FC0016F9F900D1124AC0149
:10188000420F531F4330510590F440E065EB70E088
:1018900080EE92E00E94E80123E04EE0682F812F65
:1018A0000E94FD09CDB7DEB7E6E00C9491219701C7
:1018B000A4E6B0E00E944F219A0150E040E00E946F
:1018C000272161E0C9010E94F902E6CF0F93CF936F
:1018D000C82F042FFB01868197816AE070E00E9487
:1018E0001321CB0161E00E94F90226E04EE0682F4F
:1018F0008C2F0E94FD09CF910F9108950F931F9394
:10190000CF93DF93182FEB01042F2A813B81AAE0AC
:10191000B0E00E944F212091D7023091D80250E0D0
:1019200040E00E94272168817981EAE0E69FC001BA
:10193000E79F900D1124820F931F61E00E94F9022E
:1019400028E04EE0682F812F0E94FD09DF91CF91A2
:101950001F910F910895B0E0A0E0E1EBFCE00C9442
:101960006F21182FEB01042F88849984AA84BB84EB
:1019700081149104A104B10409F12A813B81A0EAF8
:10198000BCE80E944F212091D7023091D80250E04C
:1019900040E00E94272169017A0128813981A0EA6B
:1019A000BCE80E944F216C0D7D1D8E1D9F1DA50161
:1019B00094010E9427212115310591F440E065EB47
:1019C00070E080EE92E00E94E80121E04EE0682F96
:1019D000812F0E94FD09CDB7DEB7ECE00C948B217E
:1019E00061E0C9010E94F902F0CF30E020E020FD63
:1019F0000FC05E9A90E040E54A95F1F79F5F89132A
:101A0000FACF2F5F3F4F6217730789F75E980895EB
:101A10005E98F0CF6AEF70E089E10E94F50C60E912
:101A200071E08FE00E94F50C0895A5E0B0E0EBE1D5
:101A3000FDE00C946E2140E064E371E080EE92E002
:101A40000E94E80141E0682F80E80E940B0740E017
:101A500060E080EC0E940B078091BB028823B9F004
:101A60001092BB021D8285E08093BA0227E2E22E2B
:101A700030E2D32E4AE3C42E5DE2B52E1092CB02A3
:101A80008091BA02811107C081E08093CB02259634
:101A9000EDE00C948A2143E060E0CE0105960E94BF
:101AA000EA0440E064E371E080EE92E00E94E80125
:101AB00041E0682F80E80E940B078D818F5F0E94B4
:101AC000E802182F4D814F5F90E06BE071E080528B
:101AD0009D4F0E94E801612F680F41E080EC0E9459
:101AE0000B078091BB02882319F11092BB02ED8194
:101AF000F0E0EE0FFF1FEB5BFE4F80818983818159
:101B00008A831B828FEF8C8385E08093BA02F12C4D
:101B100095E0992E88248A941092CB028091BA0283
:101B2000811109C081E08093CB0285E08093BA02E5
:101B30000E943703A3CF49814F3F09F4CBC060E037
:101B4000CE0103960E94EA049C818B81981751F183
:101B5000AD8083E00AE0A81202E110E08B81998158
:101B6000692F882331F02A81620F681B981708F0CB
:101B7000621B8A2D0E94B601A801BC018BE292E093
:101B80000E94EB2090912B028B81953A21F08823C3
:101B900011F01B82E3CF8C83953A09F4C3C0811105
:101BA000C1C0898289818F3F09F494C08D818330BF
:101BB00009F0BAC04091310250E070E060E02AE0E4
:101BC00080EE92E00E94250211E0180FE82FF0E06D
:101BD000E052FD4FB0824091320250E070E060E090
:101BE000812F90E02AE080529D4F0E942502612FB4
:101BF000680F41E080EC0E94860662E0809133022B
:101C0000909134020E94F90202E029E04EE0682F30
:101C100088EC0E94FD098B818F5F0E94E802782E7C
:101C2000082F10E000521D4F60912E02C8010E9443
:101C3000590280912F020E946302482F63EF72E0E5
:101C4000C80102960E94E801A82EE2E0E80FE00F2A
:101C5000F12FF11DE08283E08A0D60913002800F48
:101C6000912F911D0E945902E5E0EA0DE00FF12F3E
:101C7000F11DD08286E08A0D60912D02800F912F98
:101C8000911D0E945902E8E0EA0DE00FF12FF11DCD
:101C9000C08289E08A0D60912C02800F912F911DE6
:101CA0000E945902672D6A0D655F41E080E80E943D
:101CB0000B078091BB02882369F08D81833029F066
:101CC000F39482E08F1508F4F12C9092BA0281E02F
:101CD0008093CB0289818F3F11F54D814F5F6BE07F
:101CE00071E080EE92E00E94E80141E0682F80E818
:101CF0000E940B0740E062E071E080EE92E00E94FB
:101D0000E80141E0682F80EC0E940B078091BB0244
:101D1000882329F01092BA0281E08093CB020E94BE
:101D20003703FACEF12C3ECF81E0F816F1F0F81629
:101D300078F082E0F8126FCF41E061E372E080EC6E
:101D40000E94660C42E060E088EC0E94860663CF49
:101D500041E061E372E080EC0E947E0C42E061E3CE
:101D600072E088EC0E941A0C56CF41E061E372E009
:101D700080EC0E94AB0C42E061E372E088EC0E94D0
:101D8000C80649CFA2E2B0E0E8ECFEE00C9469217D
:101D900086E0E3E8F1E0DE01599601900D928A9524
:101DA000E1F71F8E18A219A21AA2CE0101964C01CA
:101DB000F12C8C016624639410923F0280913E02C4
:101DC0008111AFC00E94780581115AC010923D0266
:101DD00010923E020BC09D9191938150E1F798E0E3
:101DE000890E911CF394A3E0FA12E6CF0E9421061B
:101DF0001092490284E68093480285E08093BA02FB
:101E0000EE24EA94EF0C2FE2522E30E3432E4F0CD7
:101E10005E01BFE1AB0EB11C45E0342E52E0252E31
:101E200061E8662E762C1092CB028091BA02811165
:101E300084C081E08093CB027E019FE1E90EF11C1A
:101E40006E01A2E2CA0ED11CF70161917F016623E7
:101E500071F06150770B83E0660F771F8A95E1F789
:101E6000605A7F4F48E050E0C8010E94FB20085FA5
:101E70001F4FCE14DF0441F7A296E2E10C948521B6
:101E800080EF0E94C105712CEE24E39470E4A72E2C
:101E900072E0B72EDD24D3940E949305C82E0E94D1
:101EA0009305B1E0CB120BC08130F1F480913F0279
:101EB0008823B9F1A0E4B2E0F40189E08ECFF50106
:101EC0009081C81209C080913D02D81658F48E2D19
:101ED000892351F4C12C7D2C8E2D80958923F50109
:101EE000808308C0D812F6CFD5018C918E298C93AF
:101EF000CC24C3948C2D0E94A705D394EE0C29F416
:101F0000FFEFAF1ABF0AEE24E39481E4D812C4CFE6
:101F100070923D02711002C060923E0260923F02D8
:101F2000C5CF10923D0210923E02E0E4F2E088E05C
:101F3000DF011D928A95E9F759CFFF2009F4CAC045
:101F400080914902811125C080914802811121C0F0
:101F500081E0809349026E01E9E1CE0ED11C480177
:101F60000E947805882361F0C4010E94CF05882370
:101F700039F08091CD029091CE02D6018D939C9341
:101F8000B2E0CB0ED11CE8E08E0E911CAC14BD0467
:101F900039F74E2D60E0CE0182960E94EA048091CE
:101FA000BB02882361F0EAA1EA0DFB2DF11D8081BF
:101FB000833009F47BC08F5F80833092BA028091B6
:101FC0004902882309F474C0EAA1F0E0EE0FFF1F74
:101FD000E00FF11F808D918D90930E0180930D0184
:101FE00041E063E08FEF0E94930B20E1482F60E215
:101FF00080EE92E00E940D0240E06BED71E080EE19
:1020000092E00E94E8018AA18F5C8093E9025092DD
:10201000EA024092EB0240E060E180E80E940B0798
:102020009AA188E0989FF0011124E00FF11FA0EE23
:10203000B2E020E12150F1F5F501E90FF11D4081F9
:102040004F5F69EC71E08CEE92E00E94E80124E0C1
:10205000482F60E28CEE92E00E940D0240E060E1C9
:1020600080EC0E940B0781EB91E00E945F078823C0
:10207000D1F081E08F8F28A283E089A370920801BC
:102080006092070170920A016092090170920C013E
:1020900060920B0148E150E06FEF70E0C8010E94D0
:1020A000AD211092BA020E943703BDCE108285CFB7
:1020B00080E09BCF808120FF09C082958F708F7058
:1020C0008A3030F0895C8C931196B4CF3196F7CF7B
:1020D000805DF9CF46E065E472E080EE92E00E9418
:1020E000E80141E0682F80E80E940B0740E150E0E2
:1020F00060E270E080EE92E00E94AD2140E068EB8B
:1021000071E080EE92E00E94E801A8CFA1E0B0E08B
:10211000ECE8F0E10C946F210091DB021091DC02FD
:10212000198285E08093BA028FE0E82EF12CCC244E
:10213000C394D12C25E0B22E3AE2A32E4DE2942E88
:102140001092CB028091BA0281110BC081E0809382
:10215000CB021093DC020093DB022196ECE00C949E
:102160008B214FE060E0CE0101960E94EA0480914D
:10217000BB02882381F089819701281B3109C9019D
:10218000960102C0220F331F8A95E2F7C901022788
:102190001927B092BA028CE00E946A06A80170E08A
:1021A00060E022E080EE92E00E94250220E1482FCC
:1021B00060E380EE92E00E940D02E981F0E0E052DF
:1021C000FD4F8080E0EEF2E081E1815071F540E06A
:1021D00060E180EC0E940B0740E150E060E270E0BB
:1021E00080EE92E00E94AD2149814F5F6EE471E084
:1021F00080EE92E00E94E801882341F041ED480D15
:1022000063E471E08CEE92E00E94E80140E060E15E
:1022100080E80E940B07898180540E946A068FE043
:102220000E946A060E9437038BCF9081903319F485
:1022300090823196CACFA082FCCFA2E1B0E0E3E267
:10224000F1E10C9474218B01882309F45EC0809124
:102250004C02882309F44BC082E00F39180709F0BB
:102260005EC085E0EDE4F1E0DE01129601900D9292
:102270008A95E1F73DE4E32E31E0F32ED12CF8010D
:1022800022813381AAE0B0E00E944F212091D70241
:102290003091D80250E040E00E942721F80160818F
:1022A0007181EAE0E69FC001E79F900D1124280F9D
:1022B000391F232BA9F085EA89838CE0F801DE0120
:1022C000179601900D928A95E1F76FEF8D2D0E9480
:1022D000B60142E150E0BC01CE0101960E94FB2014
:1022E0000E94C403C7010E94AF030E946F058CE0E7
:1022F000F80111928A95E9F74CE250E060E170E054
:1023000087E892E00E94FB2006C081EB91E00E94EA
:102310005F0781119CCF6296E7E00C949021E2E088
:1023200007381E0781F485E0E2E5F1E0DE01129650
:1023300001900D928A95E1F722E5E22E21E0F22E3E
:10234000DD24D3949CCFF2E003391F0781F685E0AA
:10235000E7E5F1E0DE01129601900D928A95E1F732
:1023600087E5E82E81E0F82E92E0D92E88CF0F93F2
:102370001F93CF93DF93E091C702F091C8021281BF
:102380001F70113039F48091DC0281FD35C0CFE936
:10239000D2E005C0123091F114E0C3E9D2E040E090
:1023A0006AED70E080EE92E00E94E801082F90E074
:1023B000412F6DEC70E080529D4F0E94E801602F2C
:1023C000680F41E080E80E94860642E0BE0188E88E
:1023D0000E947E0C62E08EEB92E00E94D80288237D
:1023E00089F08130D1F0BE0180E00E941D11DF91A3
:1023F000CF911F910F91089512E0C9CF13E0C7E864
:10240000D2E0CDCF41E0BE0180EC0E941A0C42E048
:10241000BE0188EC0E94AB0CE6CF41E0BE0180EC2F
:102420000E94C80642E0BE0188EC0E94660CDBCF29
:10243000ABE0B0E0EEE1F2E10C9469218091DB02C7
:1024400080FF36C18091B702882341F084E18093F8
:10245000BA0280912A02809580932A029091BA0252
:102460008091BA02882371F084E1891B9091C602A1
:10247000992311F0843030F49091C002992321F017
:102480008A3010F010922A028091B902811104C0A2
:102490008091B602882331F01092B6021092B902F0
:1024A00010922A02E091C702F091C80290912A028C
:1024B00082819111A9C28F7D82838091C602811190
:1024C000FAC00E94C4031091F4026091F50280EEFC
:1024D00092E00E9459028AE38093E202612F83EE28
:1024E00092E00E94590241E065E080E80E94860681
:1024F0008091C6028111E9C08091C0028111E5C0BE
:102500004091D1025091D2026091D3027091D402D5
:102510002AE080EE92E00E94250202E028E04EE0F0
:10252000682F88E80E94FD098091C602811106C1CA
:102530008091C002811102C141E060914E0280ECA5
:102540000E94930B22E04EE06FE371E088EC0E9462
:10255000620B8091BF028111A7C08091C0028823C5
:1025600009F4A2C08091C102882309F49DC0109291
:10257000C1020E947C061B8685E08093BA021FEF91
:102580001092CB028091BA0281114EC101E00093FA
:10259000CB021F3F09F488C040E061E870E080EEA4
:1025A00092E00E94E80143E0682F80E80E940B0758
:1025B0001092240210922302109222021092210201
:1025C0001092200210921F0210921E02C090D70299
:1025D000D090D802F12CE12C28E0129FC0011124E8
:1025E000FC01E954FE4F5F0160817181828193811A
:1025F000A70196010E94272130931D0220931C02FF
:10260000F5016481758186819781A70196010E94F9
:10261000272130931B0220931A0240E150E06DE322
:1026200070E080EE92E00E94AD211092B90210920B
:10263000BB021092B8021092C1021092B70210921F
:10264000B6021092B50280E18093BA02109248025D
:1026500000931902FF24F39485EAA82E9CE3E92E47
:1026600024E6B22E30E5932E48E7842E5BE0752EEB
:10267000212C69EE362E64EA462E65E3562E7EE165
:10268000672E80911F0281110DC08091B9028111C6
:1026900009C08091BB02811105C08091B6028823D8
:1026A00009F4E9C0109219022B96E2E10C948521FD
:1026B0008091B802C9CE609154027091550220E019
:1026C0004EE080E80E943B0A13CF809113028111F3
:1026D0000AC040E065EB70E080EE92E00E94E80105
:1026E00002E022E01CCF8091DC0287FF22C060EC78
:1026F00071EE84EE90E020910F0230911002409133
:102700001102509112020E942721C90105966AE028
:1027100070E00E9413218AE0869FA001879F500DE0
:10272000112470E060E02AE080EE92E00E94250231
:10273000D7CF60E873EC89EC91E0DDCF69E08CEBFA
:1027400092E00E94D8028930A8F4E82FF0E0E55525
:10275000FC4E0C944921B413C713CF13D613DD13C9
:10276000E413EB13F213FC1341E060914E0280EC92
:102770000E94930B6091560270915702809128023B
:10278000909129024091C6020E945A0AE2CE21E0AD
:102790004EE06FE371E080EC0E94620BEBCF41E012
:1027A0006FE972E080EC0E94C806E4CF41E06FE977
:1027B00072E080EC0E947E0CDDCF41E06FE972E0B8
:1027C00080EC0E941A0CD6CF41E06FE972E080ECF9
:1027D0000E94AB0CCFCF41E06FE972E080EC0E9429
:1027E000660CC8CF6091B1027091B20221E04CE05A
:1027F00080EC0E943B0ABECF80911402909115029A
:10280000880F991F880F991F6AE070E00E941321BA
:10281000CB0162E00E94F90201E02DE04EE0682F5A
:1028200080EC0E94FD09A6CF43E060E0CE010B964C
:102830000E94EA048091BB02882319F01092BA0228
:102840001B8540E06EEA70E080EE92E00E94E801B5
:10285000F82E4B854F5F90E060E970E080529D4F0D
:102860000E94E8016F2D680F43E080E80E940B078B
:102870000E94370385CE8091BA02882391F080911F
:10288000180281110EC0809148028111FACE89E1AF
:10289000809348026091BA0243E080EC0E940B07EB
:1028A000F0CE8091BA02882309F448C080912302B7
:1028B00081110AC080911E02811106C06092BA0285
:1028C000F0921E020E947C068091180240E050E0C7
:1028D000BA018823C9F0C0901602D0901702209147
:1028E000D7023091D80250E040E0C201B1010E940D
:1028F0002721CA01B901960150E040E00E9427213A
:10290000BA01A901662777272AE080EE92E00E94AB
:10291000250201E021E04EE0682F80EC0E94FD09D5
:10292000809121029091220262E00E94F90202E06D
:1029300029E04EE0682F88EC0E94FD098091BA02E0
:10294000882359F080912302811107C070924802B8
:10295000809148028111FCCF94CE8091230288237C
:1029600039F080912002811103C0F092200289CEBB
:10297000109219028091BA02811115C040E069E7F6
:1029800070E080EE92E00E94E80143E0682F80EC66
:102990000E940B07F2E0F09306018AE00E942403F4
:1029A000F0921F026ECE80914C02882399F3A98287
:1029B00080912102909122029A8789871130E1F05B
:1029C000C0F01230E1F01330E1F00E94C403CE01F8
:1029D00002960E94AF036FEF83E00E94B6014AE0C7
:1029E00050E0BC01CE0101960E94FB200E946F05C1
:1029F000D1CF1F82B886E9CF1F82E886E6CFEF826B
:102A0000F9CF9F828886E1CF806282838091BB026A
:102A1000882319F084E18093BA0264E08DEB92E0A0
:102A20000E94D802813009F49FC0F0F1823009F48D
:102A300055C0833009F038CE8091C102882369F0F7
:102A400081EB91E00E945F07882321F010925D02E4
:102A50000E941D0484E18093BA0240E06AEB70E0BA
:102A600080EE92E00E94E80141E0682F80E80E9439
:102A70000B0780912702882309F4B1C060915002AE
:102A80007091510220E04EE080EC0E943B0A609180
:102A9000520270915302809125029091260240913A
:102AA0004F020E945A0A00CE41E060914E0280E837
:102AB0000E94930B22E04EE06FE371E088E80E94F1
:102AC000620B41E06FE972E080EC0E94AB0C42E0E7
:102AD0006FE972E088EC0E941A0CE6CD8091C10289
:102AE000882309F11092C1028091C002811106C0B1
:102AF0008091BF02811102C00E94C20E84E18093C6
:102B0000BA021092B9021092BB021092B80210924F
:102B1000C1021092B7021092B6021092B50281E083
:102B20008093CB02C1CD42E060EC80E80E94930B21
:102B300042E060E088E80E94860642E061EC80ECBA
:102B40000E94930B42E062EA88EC0E94930B809112
:102B5000B4028111A9CD8091CC02853008F4A4CDB6
:102B600084E08093CC02A0CD8091C1028823A9F09B
:102B700081EB91E00E945F07882361F080913F0123
:102B800090914001909344018093430190934201BE
:102B90008093410184E18093BA0240E065EC70E0EB
:102BA00080EE92E00E94E80141E0682F80E80E94F8
:102BB000860622E04EE06FE371E088E80E94620B37
:102BC00021E04BE061E471E080EC0E94620B22E0C6
:102BD0004CE063E471E088EC0E94620B65CD40E05C
:102BE00065EB70E080EE92E00E94E801182F01E0B2
:102BF00021E04EE0682F80EC0E94FD0902E023E016
:102C00004EE0612F88EC0E94FD094ECD1F920F927D
:102C10000FB60F9211242F933F934F935F936F93AF
:102C20007F938F939F93AF93BF93EF93FF93809185
:102C300078009091790090930E0280930D0280E0CD
:102C400091E00E943005FF91EF91BF91AF919F916C
:102C50008F917F916F915F914F913F912F910F9045
:102C60000FBE0F901F9018951F920F920FB60F92E4
:102C700011242F933F934F935F936F937F938F9381
:102C80009F93AF93BF93EF93FF938091EF018823BE
:102C900099F08091EE018F5F8093EE018C3309F003
:102CA00030C11092EF0115BC109213021092150260
:102CB000109214021092C00280912402882361F0C5
:102CC0008091F2018F5F8093F2018A3009F02EC16A
:102CD000109224021092180280910C0281117FC17F
:102CE0009091DB0280910B02292F217090FD29C168
:102CF000319927C1853618F48F5F80930B0280913C
:102D00000B02843629F481E08093B80280930A0292
:102D100080910802309920C1222329F0811103C03B
:102D20009EE19093070290910702992319F0915028
:102D300090930702853618F48F5F80930802809184
:102D40000802843629F481E08093C10280930A024C
:102D500080910402211138C1329936C1853618F4A8
:102D60008F5F8093040280910402843629F481E00D
:102D70008093B50280930A02909109028091050226
:102D8000911106C090910A02911102C0882399F016
:102D900090910902992309F428C11092060110921A
:102DA000090210920A02882309F428C11092050230
:102DB00081E08093CB0280910302882309F422C131
:102DC0008091020291E0980F90930202893139F4C8
:102DD00081E08093CB021092BA028093CA02809164
:102DE0000501815009F411C18093050180914802C9
:102DF000882329F080914802815080934802809175
:102E0000FC01882349F080912102909122020196D1
:102E10009093220280932102809106018F3F09F155
:102E20008091DC0285FD04C0809106018230B1F4FE
:102E300091E09093FB011092FA018091060181309C
:102E400009F4AAC2823009F4ABC2811107C0909381
:102E5000F90188E08093F8011092F7018FEF8093D9
:102E600006018091FB018823D9F18091FA0181113B
:102E700009C081E08093FA018093F6018091F90105
:102E80008093F5018091F601882351F01092F601AC
:102E90008091F50181118EC21092FB011092FA010E
:102EA0008091F401882359F08091F301811106C0CB
:102EB0001092F4018091F7018093F3015E9A809162
:102EC000F401811108C08091F301811103C081E0F8
:102ED0008093F6015E988091F30181508093F30115
:102EE000FF91EF91BF91AF919F918F917F916F91E2
:102EF0005F914F913F912F910F900FBE0F901F90B8
:102F000018958091EA019091EB01A091EC01B091AC
:102F1000ED018C53964FAF4FBF4F8093EA019093D2
:102F2000EB01A093EC01B093ED01C6CE8091F001CE
:102F30009091F1018C53964F9093F1018093F001A1
:102F4000CBCE8550803128F481E08093B902809304
:102F5000090210920B02DCCE222369F1843638F08C
:102F6000109207021092060210920802F1CE8550CC
:102F7000803138F4809106028F5F809306021092B0
:102F800006019091070280910602992331F0823068
:102F900071F481E08093B70204C0813029F48093FA
:102FA000BB0280930502DCCF8230D1F6F2CF915084
:102FB00090930702D9CF85508031B0F681E080939D
:102FC000BB0280930902D0CF8550803128F481E084
:102FD0008093B6028093090210920402CDCE8091B4
:102FE0000C02815080930C02C7CE90910A02992363
:102FF00009F4D5CE91E090930601D1CE8FE0809375
:103000000C02D6CE10920202EACE84E6809305012D
:1030100081E08093CB028091C002811105C0809134
:10302000BF02882309F47AC08091680290916902F6
:10303000A0916A02B0916B020196A11DB11D80930F
:10304000680290936902A0936A02B0936B02809128
:103050008F0290919002A0919102B09192020196FC
:10306000A11DB11D80938F0290939002A0939102B5
:10307000B093920280919B0290919C02A0919D023C
:10308000B0919E020196A11DB11D80939B02909369
:103090009C02A0939D02B0939E028091A702909102
:1030A000A802A091A902B091AA020196A11DB11D8A
:1030B0008093A7029093A802A093A902B093AA02BA
:1030C00080915D02893090F44091640250916502D4
:1030D00020916602309167024217530708F0E8C05A
:1030E0004F5F5F4F5093650240936402609100020E
:1030F000709101028EE592E00E947F049093260277
:10310000809325026091FE017091FF0188E592E0B5
:103110000E947F0490935302809352028091000298
:10312000909101029093290280932802109201024B
:10313000109200028091FE019091FF01892B09F409
:103140008EC02091FE013091FF018091D5029091B7
:10315000D602280F391F3093D6022093D5028091D2
:10316000D7029091D8022817390708F442C0281BCB
:10317000390B3093D6022093D5024091D102509161
:10318000D2026091D3027091D4024F5F5F4F6F4FB4
:103190007F4F4093D1025093D2026093D302709339
:1031A000D40220916E0230916F022F5F3F4F309317
:1031B0006F0220936E0220917402309175022F5F8E
:1031C0003F4F309375022093740220917A02309120
:1031D0007B022F5F3F4F30937B0220937A02209136
:1031E0008002309181022F5F3F4F30938102209304
:1031F00080022091FE013091FF014091890250919F
:103200008A02240F351F2817390708F093C030931E
:103210008A02209389022091FE013091FF014091A2
:10322000950250919602240F351F2817390708F090
:1032300092C030939602209395022091FE01309126
:10324000FF014091A1025091A202240F351F2817BF
:10325000390708F091C03093A2022093A102809117
:10326000FE019091FF0190935702809356021092B5
:10327000FF011092FE018091CC02882329F08091F9
:10328000CC0281508093CC028091FD01882329F0EB
:103290008091FD0181508093FD018091BA028823C5
:1032A00009F4A4CD8091BA0281508093BA029ECDD8
:1032B0009AEF980F933008F019CF91E0909327027E
:1032C0008F5F80935D028093620280935C028091A5
:1032D000580290915902A0915A02B0915B02880F56
:1032E000991FAA1FBB1F8093580290935902A09365
:1032F0005A02B0935B0280915E0290915F02A091AE
:103300006002B0916102880F991FAA1FBB1F8093B2
:103310005E0290935F02A0936002B09361021092EC
:10332000650210926402220F331F309367022093CC
:103330006602DCCE281B390B30938A022093890267
:1033400020918702309188022F5F3F4F309388028F
:103350002093870260CF281B390B3093960220936D
:10336000950220919302309194022F5F3F4F30934A
:1033700094022093930261CF281B390B3093A20251
:103380002093A10280919F029091A00201969093B8
:10339000A00280939F0263CF8093F90188E25ACD07
:1033A00083E08093F9018EE18093F80184E18093BA
:1033B000F70154CD81508093F50181E08093F401B1
:1033C0008091F8018093F3016BCD1F920F920FB69D
:1033D0000F9211248F939F9380910002909101028C
:1033E0000196909301028093000280918B0281509C
:1033F00080938B02811118C080914B0280938B02C5
:1034000080918C028F5F80938C029091D9028917F2
:1034100058F010928C0280918D0290918E0201964C
:1034200090938E0280938D028091970281508093B9
:103430009702811118C080914B028093970280916E
:1034400098028F5F809398029091D902891758F063
:10345000109298028091990290919A02019690930D
:103460009A02809399028091A30281508093A302D3
:10347000811118C080914B028093A3028091A40215
:103480008F5F8093A4029091D902891758F010920F
:10349000A4028091A5029091A60201969093A602A3
:1034A0008093A5029F918F910F900FBE0F901F9058
:1034B00018951F920F920FB60F9211248F939F931E
:1034C000EF93FF938091DB0280FF3BC08091E90185
:1034D000880F880F8093E901319B03C0826080933D
:1034E000E901329B05C08091E90181608093E90187
:1034F0009091E9019F709093E901E92FF0E0E7577F
:10350000FE4F80818823E9F08091E8018295807FD9
:10351000892B8093E80190910C02911112C08B329B
:10352000C9F481E08093B6028091B902811104C090
:103530008091B602882329F081E0809309021092DD
:103540000601FF91EF919F918F910F900FBE0F9009
:103550001F901895873141F781E08093B902E4CF3D
:103560001F920F920FB60F9211242F933F934F93F8
:103570005F936F937F938F939F93AF93BF93EF93DB
:10358000FF9380918400909185009093E701809350
:10359000E601B59B0AC08091E6019091E7018C534A
:1035A000964F9093E7018093E60119996DC0809141
:1035B000E201811121C082E085BD81E08093E201BA
:1035C0008093C0028093B3029091EF01911139C0B2
:1035D0008093EF011092EA011092EB011092EC013E
:1035E0001092ED018091E6019091E7019093E10145
:1035F0008093E0011092EE01189BCAC08091E50112
:103600008111B2C021E02093E5012093BF02809197
:103610001902882309F4B9C08091240281115AC08B
:10362000209324028091E6019091E7019093E401B8
:103630008093E3011092F1011092F0011092F201D7
:103640008AC0E091E601F091E7014091EA015091D2
:10365000EB016091EC017091ED012091E00130915E
:10366000E1014E0F5F1F611D711D421B530B61096C
:10367000710940930F0250931002609311027093EE
:10368000120280931302A6CF8091E201882309F4ED
:10369000B3CF15BC1092E2018091EF01882309F4A9
:1036A000ABCF8091EA019091EB01A091EC01B09138
:1036B000ED012091E6013091E7014091E001509148
:1036C000E101841B950B820F931F90931502809349
:1036D000140292CF8091F0019091F1016091E60186
:1036E0007091E7014091E3015091E401860F971F2B
:1036F000841B950B90931702809316022093180257
:103700008091FC01811114C02091160230911702A2
:1037100080911C0290911D028217930730F48091D2
:103720001C0290911D02892B19F481E08093FC0109
:10373000209116023091170280911A0290911B027B
:103740008217930708F46ECF81E0809323021092D2
:10375000FC01109219028091FE019091FF010196E7
:103760009093FF018093FE01FF91EF91BF91AF9184
:103770009F918F917F916F915F914F913F912F9189
:103780000F900FBE0F901F90189510922402E3CF58
:103790001092E501E9CFA9E0B0E0E1EDFBE10C9486
:1037A0006B2119868CE184B983E085B917B897E05D
:1037B00098B92FE62AB920E22BB932E034BD15BC06
:1037C00016BC45E647BD18BC1092800048E1409306
:1037D0008100109285001092840049E04093870098
:1037E00043EC40938600109289001092880010925A
:1037F0008B0010928A0030936E0020936F0010921D
:1038000069001DBA80936B0026E020936C00109233
:103810006D00809368008BBB1092C10080E880BF70
:1038200010927F0010927E0083E480937C008FEAE8
:1038300080937A0090937B001CBC1092B9008CE0BE
:103840008093B800309B55C14EE050E070E060E0DE
:1038500081ED92E00E94EB204CE250E060E170E0EC
:1038600087E892E00E94EB204EE150E060E470E0D7
:1038700088E692E00E94EB2040E150E068EB70E0C7
:1038800088E592E00E94EB2080914D02813009F0A2
:1038900056C18091DB028E7F8093DB022A9A2C9A9C
:1038A0005FEF80E792E0515080409040E1F700C028
:1038B000000018E080E0143008F480E30E946E02FB
:1038C000133008F443C1EFE0F0E43197F1F700C0A2
:1038D0000000115079F782E00E946A0688E20E9497
:1038E0006A0688E00E946A0687E10E946A060E94D2
:1038F0007C068CE00E946A0686E00E946A0608E761
:1039000010E088E8800F80640E946A0648E050E07A
:10391000B801CE0101960E94EB2020E048E068E06B
:10392000CE0101960E942D06085F1F4F083B11052E
:1039300041F70E9477020E94C40348E050E060E033
:1039400071E0CE0101960E94EB2048E050E067ED67
:1039500071E0CE0101960E94A021892B09F4FBC0E1
:1039600088E0E7EDF1E0DE01119601900D928A9575
:10397000E1F748E050E060E071E0CE0101960E947E
:10398000FB200E94C4038DE491E00E94AF0382E516
:1039900091E00E94AF0387E591E00E94AF030E948F
:1039A0006F0548E050E060E071E0CE0101960E94B2
:1039B000EB2048E050E067ED71E0CE0101960E94F7
:1039C000A021892B09F4C7C010924C0280914C02AF
:1039D000882341F048E150E068E071E085E491E03F
:1039E0000E94EB2080914C02811105C080913E0124
:1039F000806880933E018091FA0287FFC3C01091D6
:103A0000AF028091F9020E946302F82E812F0E947A
:103A10006302F81AF7FCA5C091E09F150CF44BC0A7
:103A20006091F7028091F8020E94AC028C016091D3
:103A3000AD028091AE020E94AC0230E020E0FF2097
:103A400011F02DE631E0F801E81BF90BCF01820FF0
:103A5000931F97FD86C0823091056CF59091DC0232
:103A600091FD7DC000E0811108E1F090AC028091F1
:103A7000F5020E946302182F8F2D0E946302010F2E
:103A8000081B07FD6EC0F090AB028091F4020E940B
:103A90006302182F8F2D0E946302181B812F082E9E
:103AA000000C990BFCE30F02800D911D1124893746
:103AB00091050CF456C06FE972E081E00E941D117F
:103AC0001092B2021092B1024CC0EFE3FCE93197C0
:103AD000F1F700C00000815069F480914D028230FE
:103AE00048F58F5F80934D0210E080914D021817CA
:103AF00088F086E9309BE9CF309BA4CE80914D02BF
:103B0000882309F49FCE0E940A0D0E940A0D0E948C
:103B10000A0D98CE6FEF70E08FE00E94F50CFFEF7A
:103B200022E547E0F15020404040E1F700C00000AE
:103B30001F5FDBCF309BFECF10924D02DACF823079
:103B400009F0ACCE8091DB028160A6CE8FE891E0D7
:103B50000197F1F7BCCE81E080934C0237CF811101
:103B6000AACF8091DC0282FF0DC08091B002882331
:103B700049F09091F802891729F063E972E081E039
:103B80000E941D110E941D0480918100887F836026
:103B90008093810078941092CC028091DC0284FFA3
:103BA0005DC0E0906C02F0906D02609168027091CF
:103BB000690280916A0290916B0220E13EE040E050
:103BC00050E00E942721E8E6F2E090E080E010E07B
:103BD00068EE73E0A1E0B0E081112EC1E114F104C0
:103BE00021F02E153F0508F01160019636968530BC
:103BF000910591F700E022E0F22E0F5F10FF2BC03D
:103C0000F092060140E061E372E080EE92E00E94F3
:103C1000E80143E0682F80E80E940B07402F65EF22
:103C200071E080EE92E00E94E80143E0682F80ECB2
:103C30000E940B0783E00E9424031092B9021092A5
:103C4000BB021092B8021092C1021092B7021092F9
:103C5000B6021092B5021695053079F680913F01B3
:103C600090914001892B21F48091CB028823B1F3FC
:103C7000A12CB12C00E0FAE07F2E11E0ADE15A2E2C
:103C8000B1E88B2E982C83E0682E95E0492E809128
:103C9000CB02882309F477C01092CB022091560200
:103CA00030915702A0EABCE80E944F212091D70230
:103CB0003091D80250E040E00E942721F901309372
:103CC0005502209354028091DE028F70879DC001BF
:103CD000112461E02817390708F460E06093C602F8
:103CE0008091B1029091B2028E179F0720F4309319
:103CF000B2022093B1028091BF02882321F0EF2B02
:103D000011F41092BF028091870290918802813D48
:103D1000974028F067E872E081E00E941D118091D1
:103D20009302909194028137974128F063E972E001
:103D300081E00E941D112091520230915302A0EAAD
:103D4000BCE80E944F212091D7023091D80250E068
:103D500040E00E942721309351022093500280912D
:103D6000DE028F70879DC001112461E0281739079A
:103D700008F460E060934F028091DC0280FF74C021
:103D800081E580934E028091CA02882309F471C0B4
:103D90000E947C06F8948091B302882331F00E943F
:103DA000C4038BEA92E00E94AF038091DC0282FFA1
:103DB0005DC08091B302811104C08091B002811175
:103DC00004C08091F8028093B0028091BC0290916F
:103DD000BD02292F2295207F9091DE029F70922BA9
:103DE0009093DE02909186029295907F8F70892B3E
:103DF0008093DD024EE050E070E060E081ED92E003
:103E00000E94FB204CE250E060E170E087E892E025
:103E10000E94FB204EE150E060E470E088E692E012
:103E20000E94FB2040E150E068EB70E088E592E002
:103E30000E94FB205D98FFCF5281552309F4D5CE17
:103E4000569F6001579FD00C1124A080B180AC1404
:103E5000BD0408F4CACE6D01082E02C0CC0CDD1CD6
:103E60000A94E2F71C29C1CE80E58BCF1092B002F4
:103E7000ACCF8091CC0281111BC08091B402811122
:103E80003AC01093B4021093CC020E942106809194
:103E9000DB0287FF0DC080ED0E948003811106C008
:103EA0008EE00E9457038CE30E9457030E94780320
:103EB00089854091C9026091C602442309F431C149
:103EC000869D90011124215F3E4F3093C5022093BF
:103ED000C402282F30E0F901EE0FFF1FE20FF31F9D
:103EE000EF5EFE4F8295807F90819F70892B80834B
:103EF00028E0F22E71C01092B4025092CC0277E00A
:103F0000C72E71E0D72EE0E6EE2EF12C48E050E00F
:103F1000B701CE0101960E94EB200E947805811125
:103F20002DC0F60191828082F8E0EF0EF11C22E0B4
:103F3000C20ED11C48E7E416F10441F78091DB0280
:103F400087FFB6CF80ED0E9480038111AFCF81E162
:103F50000E94570381ED0E94800380E00E946A0363
:103F6000F82E81E00E946A0390E09C012F73232BBE
:103F700099F090920A018092090198CFCE010196A2
:103F80000E94CF05882369F28091CD029091CE02E4
:103F9000F60191838083C8CF9F2964E0959587952A
:103FA0006A95E1F790930A01809309017FCF90E031
:103FB000863011F091E0980F57FDB2C0869D9001B8
:103FC0001124265D3E4F6111A9C099873093C80224
:103FD0002093C70236E0F32E8091C3028111C8C03E
:103FE0008091C20281111CC08091C1028823C1F05E
:103FF0004111AFC08091C002811112C08091BF02F7
:1040000081110EC0E091C702F091C80282818073D5
:10401000803131F4B984A9861093C9021093C30288
:104020008091C30281115DC08091C2028111A3C041
:1040300009858091C902811107C0E091C702F09102
:10404000C802828185FD06C04F2D60E0CE01099631
:104050000E94EA04898580131093C2028091C202F3
:1040600081113FC08091C902882309F4A8C040E0B3
:1040700069E372E080EE92E00E94E80141E0682F7F
:1040800080E80E940B07E090C402F090C502F7019F
:10409000828182958F708F5F0E94E802D82EF7018F
:1040A00042814F7090E065E472E080529D4F0E9423
:1040B000E8016D2D680F41E080EC0E940B078091B4
:1040C000BB02882371F01092BB020E947C064092D2
:1040D000BA021092CB028091BA02811151C01093A2
:1040E000CB021092B9021092BB021092B802109249
:1040F000C1021092B7021092B6021092B5029091CE
:10410000C3028091C2022091CB022111C0CD911136
:10411000BECD8823C1F3BBCD982F50CF56FD55CFD0
:10412000892F282F30E0F901EE0FFF1FE20FF31F58
:10413000E45DFE4F508157FD04C0662369F356FDD0
:10414000EBCF801708F033CF9FEF811134CF96E08B
:1041500033CFA984B9864EE050E070E060E081ED95
:1041600092E00E94FB200E9477021092C90256CF73
:104170001092C30255CF1092BE021092C2026ECFAF
:10418000E091C402F091C50242814F7065E472E093
:1041900080EE92E00E94E80141E0682F80E80E94F2
:1041A0000B07E091C402F091C5020190F081E02D6F
:1041B00009958CE00E946A060E9437038ACFE0913D
:1041C000C702F091C8020190F081E02D09958CE0C2
:1041D0000E946A0686CFDC01CB01FC01F999FECF73
:1041E00006C0F2BDE1BDF89A319600B40D9241507F
:1041F0005040B8F70895DC01CB0103C02D910E9417
:10420000062141505040D0F70895262FF999FECF4E
:104210001FBA92BD81BD20BD0FB6F894FA9AF99AE3
:104220000FBE01960895AA1BBB1B51E107C0AA1F30
:10423000BB1FA617B70710F0A61BB70B881F991F47
:104240005A95A9F780959095BC01CD010895A1E2FA
:104250001A2EAA1BBB1BFD010DC0AA1FBB1FEE1F00
:10426000FF1FA217B307E407F50720F0A21BB30B4B
:10427000E40BF50B661F771F881F991F1A9469F7C7
:1042800060957095809590959B01AC01BD01CF0123
:104290000895EE0FFF1F0590F491E02D0994A29F61
:1042A000B001B39FC001A39F700D811D1124911D0A
:1042B000B29F700D811D1124911D08950E944F2100
:1042C000A59F900DB49F900DA49F800D911D11246A
:1042D00008952F923F924F925F926F927F928F92AA
:1042E0009F92AF92BF92CF92DF92EF92FF920F9385
:1042F0001F93CF93DF93CDB7DEB7CA1BDB0B0FB68F
:10430000F894DEBF0FBECDBF09942A88398848884B
:104310005F846E847D848C849B84AA84B984C884E1
:10432000DF80EE80FD800C811B81AA81B981CE0FD8
:10433000D11D0FB6F894DEBF0FBECDBFED010895BD
:10434000FB01DC0104C08D910190801921F44150E2
:104350005040C8F7881B990B0895DC0101C06D938C
:0C43600041505040E0F70895F894FFCF62
:10436C00000000008164FF81818181818181815401
:10437C000B01070902F20803850B04861005430B99
:10438C0008C20E06E00A07490709181250B7114176
:10439C00B71102B711031A0904940705150D06008D
:1043AC0000FF030000FF14FF0CFF06FF05000000D8
:1043BC000000000000000000000000000000001FD2
:1043CC00003B005A0078009700B500D400F30011B0
:1043DC000130014E016D01060202050003050104C6
:1043EC0006020481818181818100010100010000AC
:1043FC00010100000100010100F502001781F40227
:10440C00003B84F702011F89F802010C8CF902169B
:10441C00208FF6020107C000000000405489000004
:10442C00000000C0E1E400C0E1E400405489005009
:10443C00A9AB00E07072004A4F55525452495000DB
:00000001FF
