:040000008231B42A6B
:100008007E1480310B1C3329270096012000170825
:100018002100A300200016082100A2002208031DC9
:100028001928200017082100A3002000131F2128E9
:100038006A302100A2001830A30020008D1B692817
:10004800F11B7F2821009512F117721470160130E8
:100058002400A4070030A53DA63DA73D2200CC1BE7
:100068003C2801302400A4070030A53DA63DA73D4B
:10007800F11A4D28F1162200A301A401A5012100BF
:1000880023082200A900210022082200A800C0019C
:100098007F28210022082200D700210023082200FF
:1000A800D800D9012808F3002908F400F5017308DD
:1000B800D7027408D83B7508D93B2308D70724080A
:1000C800D83D2508D93D71174028F11F7F28210008
:1000D8009516F113F11E7F2823082200DB0021006A
:1000E80022082200DA002808DA022908DB3B230864
:1000F800DA072408DB3D20000D1F32297219332945
:100108007215F214F11CCF28F1199828F115210065
:1001180023082200B300210022082200B200B00107
:10012800B1012100AD01D028220031082100A7002B
:10013800220030082100A600220032082100A60271
:10014800220033082100A73B2208A6072308A73D61
:10015800F0177118BF28270822003902031DB82894
:1001680021002608220038020318BE28380839045E
:10017800031DBF2871142100270822003702031D20
:10018800C9282100260822003602031C8B28711575
:100198007110F110D028F1112200AE0A0319AF0A2C
:1001A800C50A0319C60A48084602031DDD28470880
:1001B8004502031CF4280130C501C601C1070030FF
:1001C800C23DC33DC43D2400AA0A0319AB0AB20AC2
:1001D8000319B30ABA0A0319BB0AC20A0319C30AE4
:1001E8002300A20A0319A30A2200480823002302B5
:1001F800031D02292200470823002202031C0929A3
:10020800A201A301A00A0319A10AAE0A0319AF0AA1
:100218002200480823002F02031D16292200470840
:1002280023002E02031C1D29AE01AF01AC0A0319DD
:10023800AD0ABA0A0319BB0A2200480823003B0288
:10024800031D2A292200470823003A02031C3329E8
:10025800BA01BB01B80A0319B90A332972110B1D77
:100268006E292200AC0A0319AD0A2300A40B4B29FE
:1002780021002A082300A400220049082300A50A17
:100288002502031C4B29A501A60A0319A70AB00BCE
:100298005C2921002A082300B00022004908230015
:1002A800B10A3102031C5C29B101B20A0319B30A6D
:1002B800BC0B6D2921002A082300BC002200490834
:1002C8002300BD0A3D02031C6D29BD01BE0A0319A6
:1002D800BF0A0B112000131F982AF11E8C29220037
:1002E800C00A3C304006031D8229F11221009516F0
:1002F80071132200DA01DB0172108C296A30A3071E
:10030800183003181930A407003003180130A50766
:10031800F11D9C292100AD0A0A302D06031D9729DD
:10032800F111F0139C296A302200B0071830B13D52
:1003380021003108031DDD2920000D19B129653080
:1003480021002902031CA90A64302906031DBE29BD
:10035800EE1672160130EF00BE2905302100290281
:10036800031CBD29333029020318BD29F217721660
:10037800EF01A90120008D19CF296530210028023D
:10038800031CA80A64302806031DDE29F21672161B
:100398000130EF00DE29053021002802031CDB298B
:1003A800333028020318DB2972177216EF01A801EF
:1003B800DE29B103721EE4297212F2150F30B10062
:1003C8006F0A0319FD292200CC1AEF2902302100F7
:1003D8006F06031DFA29F015701121006F086F07C9
:1003E8006F07DF3EAB002200BB01BB0A2100EF0113
:1003F800EF032F082200BE0A3E02031C3A2ABE0160
:10040800F2152D08AB002C08AA00AC01AD012F088D
:10041800DD002E08DC00AE01AF0121006E1C392A78
:100428006E107218192AF21C332A01302400A00712
:100438000030A13DA23DA33D01302300A8070030B4
:10044800A93DAA3DAB3D0130B4070030B53DB63DEE
:10045800B73D0130C0070030C13DC23DC33D21005A
:100468002C0803193A2AAC033A2A6E1420006D08A6
:100478006E040319432A0130ED020030EE3B2100DF
:100488002E08031DAE03711C4D2A2200B40A03195D
:10049800B50AF01D962A2200BB0B962A0A30BB002B
:1004A8007019612A70152100EE142B08860001309E
:1004B80087000108013E2200BD002100EE1C752ABC
:1004C800EE102200BD030319732A21006E152B08B4
:1004D800860001308700413F2200BC00752AF011D8
:1004E800701121006E1D892A22003C08031D872AED
:1004F80021006E112B08023E86000130870001089A
:10050800FF3E2200BC0020000E1421006E19942A20
:1005180022003C08031D922A2100EE1420000E1030
:100528002200BC0320001313111FB22A21001C084B
:10053800A500A4011B08A40400302502813003197A
:100548002402031CA92AB001B02A0A303006031D70
:10055800AF2AF215B02AB00A200011137E10090044
:100568008231B62A2100FF30EF00943084008830B1
:10057800850060308600013087000E3088318E207B
:100588008231B130840088308500D3308600013054
:100598008700153088318E208231F530840088300C
:1005A80085004A30860002308700203088318E204E
:1005B8008231F001F101F2012000ED01EE01EF01BD
:1005C8002100A030EE0184000030850028308831F9
:1005D8008820823120308400013085004030883105
:1005E80088208231A0308400013085003330883182
:1005F8008820823120308400023085002A308831FA
:10060800882082317E102000092BEA01EB01873116
:1006180034278231200018148B172100AC012200E6
:100628004C1E1B2BAF23E9008931602182318F31A9
:10063800AA278231212BF219252B24082504031916
:100648001F2BF2110A3021003006031D2E2B893191
:10065800A6218231F21E5B2B701C7218452BF218F2
:10066800452B21004508031D452B45082000EA00BD
:100678006B082100C5007014F2137213EE12F21207
:100688005B2B701C5B2B210045082000EB006A08DF
:100698002100C5007010F2137213EE12F2124130ED
:1006A800F1249E31A22682318731C7278231701802
:1006B8006D2B711E612B0230622B06302000EC007E
:1006C80021002C08031D6A2B8624823104248231E0
:1006D800702B08302000EC00210045082200BA00E9
:1006E800F60120006C08F700C5309E318D26823156
:1006F80022003A08210045060319872B2200DF0152
:100708008F31AA278231701C8E2B450896315A26C4
:100718008231AC2B711E952B03304502031C952B9F
:10072800C501EE1145082000E7002A30E801E73549
:10073800E80D67078400AA30683D8500013F8A00FC
:10074800003F0A0083312100EE19C50AEE198E2BED
:10075800F219252BAC2B2000B901BB013B08031D66
:10076800D32B2400280829040319FC2B9531B22522
:1007780082312400290820003602031DC72B2400DB
:10078800280820003502031CFC2B0130B7003B0A67
:10079800CE2BB735890BCD2B3708B904FC2B3B087A
:1007A800090709070907223EBA00023E86000230FF
:1007B800870001080319FC2B3A08023E860001084D
:1007C800A300E830A401A5000330A6009631DC267A
:1007D80082313A08860002308700403FB700413F27
:1007E800B80024083802031DC72B23083702C72B7B
:1007F80020000530BB0A3B02031CB22B3908080055
:1008080022008F31A027823122005C082000A0003E
:1008180022005D082000A1008C30EB24A030A40049
:1008280094314F2482319731AC2782319531E025BC
:10083800823129082100A100200028082100A000F9
:1008480022004E082000A300FF249631DC268231C6
:10085800240821002102031D352C20002308210033
:100868002002031C392C71163A2C71122100210820
:1008780023004A02031D442C2100200823004902BA
:1008880003184E2C210021082300CA00210020084B
:100898002300C900F21C552C21002008210403194B
:1008A800F210073023002102D13003192002031C63
:1008B800632CA0302000B200013070248231173040
:1008C80023002D02713003192C02031C0800AC30E0
:1008D8002000B2000130702CB3003308031D7D2CBA
:1008E8009731FB27823196312A268231003A031943
:1008F80008003208F6000130F7000C30F801F90062
:100908009E317A2E6E1ED12C0E306E12AC007030D5
:100918002000B300B401B330F7000030F80033080A
:10092800F9000830FA008731A2278231C330F90074
:10093800B3309E31DA2682310318B42C2000F92412
:10094800823105300102031CB02C3435663E860026
:100958008130C03FC13FC42CF9248231810AC42CA4
:1009680020003435663E86000130870021004308A8
:10097800C03F4408C13F20003408203E8600810162
:100988000830B3070330B40A3402031C8F2C22004A
:10099800CB1F080068309B31542B01306E16AC0019
:1009A8009F317A2782312200CB1F0800DB2C9D3132
:1009B80020258231D0309D310E2582310E309D3177
:1009C8000E2582313C309D310E259D31292DA20105
:1009D800A301A701A601A50008002000A00001307E
:1009E800A1001030A201A30008003408203E8600B0
:1009F8000130870008000A30A401A500A6010800FC
:100A0800B100B3011C2DCB302000B2000830B0007B
:100A1800182D3108860087013208840001308500CE
:100A280000088100B20AB10AB003300F0D2DB30AD5
:100A38007A08AE00AF01AE1BAF032F08803A803CA6
:100A4800031D282D2E08330203182E2D312585313C
:100A58000318072D2000330808002000AC01AC0A59
:100A6800A701AD01AD0A2100CB306E132000AA000A
:100A78002100EE1BB72D9F31832785310318492D9F
:100A88002100B201EE1303100800F0309F31272730
:100A9800853140302000A600A92D9F31642785317B
:100AA8000030031801302000A9009F3164278531E8
:100AB8000030031801302000A800290B662D280BF0
:100AC800662DAC2D2908280603196D2D2908AB00C1
:100AD8008E2D2100320820002C0203187F2D2A08B1
:100AE80086000130870001082D0503197D2D01308E
:100AF800882D0030882D2C0821003206031D862DF4
:100B08000130872D00302000AB002B08031D8E2DEF
:100B18002C08A7002B0B972D2A0886000130870088
:100B28002D0881049D2D2A088600013087002D0993
:100B380081052B08C92585312000AC0AAD352D0863
:100B4800031DA92DAA0AAD01AD0AA603260F512D32
:100B580041302C02031CB72D27082100B2003208AF
:100B68000319EE176E1721006E1BC42D0830B20151
:100B7800EE13F601F701F800CB30F901EA258531CB
:100B880021006E1F472D03140800F6000130F605FA
:100B980076080319DC2D9F31DB2785310830890B56
:100BA800D32D000021008C166430890BD92D080044
:100BB8009F31DB2785317430890BE02D003221000D
:100BC8008C160330890BE62D000008002000A200D7
:100BD800A50078087904031908004D26853178089E
:100BE8002507A000FF3E4726853103300319780208
:100BF800031C0800250A8600760881002508023EA5
:100C080040268531FE3E40268531FD3E472685310A
:100C1800073003197802031C08002508033E402604
:100C28008531FC3E47268531093003197802031CBB
:100C380008002509A0002609A100A00A0319A10A95
:100C48002008A3002108A4000330A305A401230859
:100C5800A507F8022408F93BFC30F805FF30F90530
:100C680078087904031908004D2685310130F80207
:100C78000030F93BA50A342E8600760881007808F2
:100C88002507A00008008600760881000030790258
:100C980008002508860001308700760881000800D2
:100CA8002000B600B201B301B401B50136088600D0
:100CB8008701010803198E2E360886000108D03EE8
:100CC800AC00FF3003180030AD002C08AE002D0832
:100CD800AF00B001B1013508A3003408A200330801
:100CE800A1003208A0000A302F2794314F24863102
:100CF8002008AE072108AF3D2208B03D2308B13DCA
:100D08003108B5003008B4002F08B3002E08B2002F
:100D1800B60A5A2E3508AB003408AA003308A900D1
:100D28003208A8000800DA0022005C082000A800A9
:100D380022005D082000A9001B2726082000A40027
:100D4800220027082000A500A601A70194314F24FE
:100D580086319731AC2786319531E02586312B08CD
:100D6800D9002A08D8002908D7002808D60029273A
:100D7800AA01AB015908AF005808AE005708AD00EA
:100D88005608AC009531E02586312908DC00280892
:100D9800DB005C08CF005B089731DF27863197318D
:100DA80021278631EF000330AF005A08B0006F08E2
:100DB80097316C2FDA00292786311B2786313F08A7
:100DC80020002F2794314F2486319731AC27863164
:100DD8009531E02586312B08D9002A08D800290842
:100DE800D7002808D6000A30A800A901AA01AB013B
:100DF8005908AF005808AE005708AD005608AC00B7
:100E08009531E02586312908DC002808DB005C08DC
:100E1800CF005B089731DF27863197312127EF0014
:100E28000430AF005A08B0006F0897316C2FAA0140
:100E3800AB0122002A082000A00022002B08200075
:100E4800A100A201A30122000800220049082000F5
:100E5800A800A9010800A400A501A601A70108008F
:100E68004B27873180278E3194268731C727A631B3
:100E78002B268731003A03190800B8302000B20049
:100E88000130843170242300C901CA0108002630CA
:100E980021008C00013020008C00CD3021008D0015
:100EA800033020008D0021008E0120008E01950165
:100EB80096019701B8302100950030302000980045
:100EC8000B3026009E0018309D006A309C00403090
:100ED800210091009300C0302700940095006830ED
:100EE8008B00063023008C008D01043021009D000A
:100EF800A0309E001D14F22F20004130A201F700FF
:100F08000130F8001030F901FA00A22787311030BB
:100F1800A207A030F7000130F8002208F9002B30B2
:100F2800FA00A22787313030A2072030F7000230BC
:100F3800F8002208F9002A30FA00A22FA1017A0845
:100F480021020318080079082107B82787312000F3
:100F5800A000770886007808870020088100F70A33
:100F68000319F80AA10AA32FF600BB2F200064007A
:100F780023009518BA2F7608910092013F30950505
:100F880015141308080041302100AA003830220047
:100F9800BF004808F9004708F8000D30F835F90D8A
:100FA800F600F701A5315225873177082200A700FE
:100FB8007608A600CC1FE62F2100AA352200BF36EE
:100FC800A736A60C64302100AF0022004D080F3967
:100FD800DE004D0E0F392100C700080008009B31C4
:100FE800BB2B9B31BF2B9B31C42B9B31C82B9B3117
:060FF800CC2B9B31D22B33
:10100000A331CC2BA331D22BA331D42BA331D82B9A
:10101000A331DD2BA331E22BA331E72BA331EC2B42
:04102000A431032CC8
:10111000640080010131890B89280034FE0012002F
:101120001E00FE0B8F2800348134813481348134D9
:101130008134813481348134813481348134813407
:10114000813481342200CC18A9282000E601E60A67
:10115000AC2802302000E6006608E200B830933187
:10116000A82B063402340234053400340334053429
:1011700001340434063402340434013401340134BB
:1011800001340434013403340334023422004C08A3
:101190002000CF0022004B082000CE007430D00089
:1011A000A830D1008E310B2620004F082200CC0041
:1011B00020004E082200CB00080022004708200033
:1011C000CE00220048082000CF0075308F31E5277F
:1011D00088312F30D2008D314F254F082200C800B2
:1011E00020004E082200C7000800003400340034FC
:1011F0000034A03452345734013400340034003405
:101200000034603434343C340234603434343C349C
:101210000234A03452345734013448342734AD34C6
:10122000013430341A341E340134F7001030F80021
:10123000F80B1B2908007708860087010108F900D0
:10124000781C26290F30F90EF9052729F70A0F30E7
:10125000F9050A3079027608860087017908031CAF
:101260003329373E3429303E8100F60A18292200FE
:1012700044082000D100220043082000D0002200B2
:1012800042082000CF00220041082000CE000F308D
:10129000D501D4004230D3003F30D2008D314F25EC
:1012A00051082200C400200050082200C300200082
:1012B0004F082200C20020004E082200C100080092
:1012C000AF00B0012F1C9E2902302100EF008030BA
:1012D0008F31032789317230F800AA30F900B3301A
:1012E000FA018F31662789318F31BA2789318F31E1
:1012F00038278931C0308F3103278931D830F80041
:10130000A830F90020003008013EFA00B3308F31D8
:10131000662789318F31BA2789318F313827893152
:10132000ED010230EE009729F21F721B9B296D0818
:101330006E04031D94298F31AA27893120000530BE
:10134000AF36B00A30020318080062299631F12640
:1013500089318B13701EC42951309C316624893128
:10136000220051082300C400220052082300C500B7
:10137000220054082300C600220055082300C7009D
:10138000220056082300C80022004D085E06F039EE
:101390005E06CD00210047082000A400A40E220014
:1013A0004D08200024060F3924062200CD00DB2141
:1013B00089310C10DA294130FA018431F124893164
:1013C0009E31A22689311030FA07A030A0000130EA
:1013D000A1007A08A2002B30A3009E31A226303053
:1013E000FA072030A0000230A1007A08A2002A30BB
:1013F000A3009E31A22EC0003808BE003708BD00F1
:101400003608BC003508BB0095223E08AF003D08F9
:10141000AE003C08AD003B08AC009531E0258931B9
:101420002B08BE002A08BD002908BC002808BB0004
:10143000C00A3E083D043C043B04031D042A400846
:10144000860087018101C0033908A0003A08A10085
:10145000A201A3013808A7003708A6003608A50096
:101460003508A4005F2289312008BF009522380882
:10147000AF003708AE003608AD003508AC00953136
:10148000E02589312B08B8002A08B7002908B600E2
:101490002808B5000A303F02031C502A0730BF0756
:1014A0003030BF074008860087013F088100C00335
:1014B000380837043604350403190800242A2308A1
:1014C00022042104200403198C2AF601F60AA31B26
:1014D0006E2AA035A10DA20DA30D662A23082702AE
:1014E000031D7C2A22082602031D7C2A21082502CE
:1014F000031D7C2A20082402031C862A2008A4023B
:101500002108A53B2208A63B2308A73BA336A20C33
:10151000A10CA00CF60B6E2A2708A3002608A20037
:101520002508A1002408A00008003908A8003A08EE
:10153000A900AA01AB0108000A30C801C80AC90104
:10154000C90ACA0022004E08C4222200CE000800A8
:101550000D30C800FF30C901C90ACA00220049087D
:10156000C4222200C90008004A30F6000130F7000A
:101570008C30F800E630F9002623C4308F31032781
:101580008A310230A531782D2000CF00ED010230E4
:10159000EE0020006D086E040319232BF2114F306A
:1015A000F6000030F7004908F8004A08F900262341
:1015B0008A31083048060319E32A4F08CB00CC01D2
:1015C000CD01CE01F72A4F08A0000330A1018431DC
:1015D000EB248A31E830A40094314F248A31230867
:1015E000CE002208CD002108CC002008CB004E08F8
:1015F000C4004D08C3004C08C2004B088F31DB27E4
:101600008A318F311C278A31EF004808A6006F0805
:1016100096311F268A31EF07C4308F3103278A3174
:1016200020009731D0278A318F3138278A318F3186
:10163000AA278A31202B20006D086E040319C92ABD
:10164000F21D1B2BC92AF2154F08080076088600E8
:10165000770887000108FA00F21F382BFA0A790A86
:101660007A06031D352B7808FA00ED010230EE00F2
:10167000721F452BFA037808FF3E7A06031D422BA2
:101680007908FA00ED010230EE007608860077084E
:1016900087007A0881000800AF001430F800A930F4
:1016A000F9002F08FA00B33066278B3199278B3168
:1016B000382FC03003278B31FA30F800A930F900F9
:1016C000B330FA0166278B3199278B31382F0430DC
:1016D000F601F700C6309E318D268B31C0300327CE
:1016E0008B3121004608313EB3002E30B400D83093
:1016F000F800A830F9004608013EFA00B530662728
:101700008B31023E99278B3138278B31721F0800AD
:10171000AA278B31803003278B31DF278B31460896
:10172000013EFA00B33066278B3199278B31382779
:101730008B31C0300327B3309F31BE278B319E31B0
:101740007A268B311030A600C0278B3138278B3199
:1017500021004608031DC32B240028082000CE00CA
:10176000240029082000CF000730E5278B31CF3037
:10177000D2004F258B314F082400A90020004E08CD
:101780002400A800D32B08302000C8003C30C90139
:10179000CA00C52701088A31C4228B31E000C52761
:1017A0002000600881002000ED010230EE000800FA
:1017B000DC00803003278B311B30F800AA30F900A1
:1017C000B330FA0166278B31BA278B3138278B313A
:1017D000F11171112200B401B5017013F012A027AC
:1017E0008B315C080907090709074A3E8600023069
:1017F000B0279531E0258B3129082200B90020005F
:1018000028082200B800A0278B315C0809070907C7
:1018100009074E3E86000230B0279531E0258B3116
:1018200029082200B700200028082200B600B330A3
:10183000F6000030F7003D30F8001030F9009E311E
:101840007A268B31ED010630EE002100AE01F82C36
:1018500020006D086E04031DF218472C21002E088D
:10186000031DF82C1930AE00C03003275B30F600A2
:10187000F70120006E08F9006D08F800A531522527
:101880008B31760899278B3138278B31F82C6D08EE
:101890006E040319C32C711DF118562C0030ED0095
:1018A0000C30EE00F1149631F1268B312200350810
:1018B0002000CF00220034082000EF279731212795
:1018C0008B31EF000930A6006F0896311F268B314F
:1018D000EF072030C8006F08EB279E3163268B315D
:1018E000F01B752CDA01DB01AB2C2200470820002D
:1018F000A800220048082000A9008630AA01AB01F8
:10190000AF001C30AE004630AD008030AC009531E9
:10191000E0258B312B08D9002A08D8002908D700E8
:101920002808D600210026082000A800210027084A
:101930002000A900AA01AB015908AF005808AE0069
:101940005708AD005608AC009531E0258B312908C9
:10195000DB002808DA005A08C1005B08CF278B316A
:101960001C27EF00A601A60A96311F268B31C03036
:1019700003278B3110302000A600A7000330A800F9
:10198000B33038278B316D086E04031D7119CF2CCD
:1019900004302100AE002E080319F82CCB2C71194D
:1019A000701BD42C7017F82CF1106D086E04031DF9
:1019B000E82CC03003278B317A30F800AA30F900C8
:1019C000B330FA0166278B31BA278B3138278B3138
:1019D00002302100EF002000ED010430EE00F32C76
:1019E000F21F721BF72C6D086E04031DF02CF0160D
:1019F000F01EF21BFD2C721F282CF110AA270800E4
:101A000022004C1F062D2100EE1508008030032710
:101A100002302000D6008030A43171248B31C030D8
:101A2000032702302000D6008130A43171248B318D
:101A3000883003278B3120000830A601A700023030
:101A4000A800B33038278B31C8300327023020007C
:101A5000D600A43171248B3121006E1A352D03304C
:101A60002C02031C352D0230AC00F21E0800F212CD
:101A7000803003278B310030F800A830F9000630A1
:101A8000FA00B33066278B3199278B3138279D3187
:101A90005E25F2137213EE12F212F21508005508C9
:101AA000C4005408C3005308C2005208DB278B311E
:101AB0001C278B31DE0051085502031D692D50088B
:101AC0005402031D692D4F085302031D692D4E0852
:101AD00052020318732D5508D1005408D000530842
:101AE000CF005208CE005108C4005008C3004F0870
:101AF000C2004E08DB278B311C27DC003030C800C9
:101B00005C08C9005E08CA00B3309E3163268B3181
:101B1000D7015E08103CD600031CD703D736D60C7D
:101B20005608C03EDD00DF01ED010230EE0020006E
:101B30006D086E040319FC2DF211F6015E08FF3EDC
:101B4000F7005F309E318D268B31721FDB2D200018
:101B50005F08B33E86003A308701810A0102031C08
:101B6000B62D5F08B33E860030308100B330863139
:101B700054268B312B08DB002A08DA002908D9000B
:101B80002808D8005B085502031DD02D5A085402BE
:101B9000031DD02D59085302031DD02D58085202A1
:101BA0000318D82D5F08B33E8600303087018100CE
:101BB000ED010230EE000C3003278B3120005D0870
:101BC00003278B3120005E08A6000830C0278B3128
:101BD00038278B315D085F0703278B310F300327D0
:101BE0008B31AA278B31F92D20006D086E04031963
:101BF000972DF21DF42D972D0C300327F215B330DD
:101C0000863154262B08D1002A08D0002908CF009D
:101C10002808CE000800D501ED010230EE002000BA
:101C20006D086E040319902EF2110F30F601F700C3
:101C300055309E318D268B31721F312E01302000A0
:101C4000D200D30155080F3C890A282ED235D30D76
:101C5000890B262E5208CE065308CF06ED0102301E
:101C6000EE000C3003278B3130302000C8004E08C6
:101C7000C1004F08C2000230C301C401C500B33027
:101C80001C278B31EB279E3163268B315508B33EE1
:101C9000860087010108D13ED400C03003278B3174
:101CA00010302000A600C0278B313827B3309F3179
:101CB000BE278B319E317A268B315108F9005008AE
:101CC000F8005508013EFA00B33066278B31EF006B
:101CD0006F080319742E5E30F800AA30F90054081A
:101CE000FA00BF3066278B31803003278B311030EC
:101CF0002000A600C0278B3138278B315508C03E05
:101D000003278B310F3003278B31AA278B318D2E80
:101D100020006D086E0403190F2EF21D882E0F2E61
:101D20000C300327F21508008E148E1502302000A7
:101D3000A3004530A200A930890B9C2EA20B9C2E3B
:101D4000A30B9C2E003208302000AF0004302F027D
:101D50000318AD2E3030AC00AE2EAC01AD012C0816
:101D600012278B3103302F02031CC02E1B302000A2
:101D7000A2009E30890BBA2EA20BBA2E0000C42EF0
:101D8000A630890BC12E00322000AF03031DA62E02
:101D9000023003278B31283003278B31083003278B
:101DA0008B31173003279631F1268B310C30032706
:101DB0008B31063003278B312000B0013008073902
:101DC000031DF52E3008F839403803272430F7007A
:101DD0000030F80020003008883EF9000830FA0092
:101DE0008731A2278B312430AE002E088600870170
:101DF0000108F3278B3120004030AE0AB00A3002D0
:101E000003180800DE2EF80020008E107808122734
:101E10008B31780EF03912278B315830890B0E2F09
:101E200000000800F700F039F6000E080F397604BC
:101E30008E008E158E110800C7004408B8004308B4
:101E4000B7004208B6004108B5004508B900BA011C
:101E500047088931FB218B31C601C60A460847076E
:101E6000FA00860087010108031D2D2F460808008F
:101E7000AE00AA0126082702AC00280B412FAC01B6
:101E8000452F033028060319AC362C082607AB0073
:101E9000AD0127082D02031808002C082D02031C91
:101EA000552F2B082D02031C592F2030F3278B317F
:101EB000632F2A082E07A900860087010108F3274F
:101EC0008B312000AA0A2000AD0A492F2000A5006E
:101ED0007A0803196F2FD5278B31A200702FA2012A
:101EE000A3012208A4007A080319922F7908A100FF
:101EF0007808A000F80A0319F90A8400210885006F
:101F000000082406031D732FFA03732F7A08250790
:101F1000A00086008701D5278B318100F80A0319BC
:101F2000F90AFA0AD5278B312406031D862F7A0871
:101F30000800A6001030A700B330A801A80A0800C6
:101F400047082000A800220048082000A900AA0194
:101F5000AB010800F21372132100EE12F212080016
:101F60008700403FAC00413FAD00423FAE00433FE1
:101F7000AF000800A6001030A7000330A800B3345B
:101F8000A700B330A801A80A0800210046080907E5
:101F900009070907243E8600023087000800C200B6
:101FA0000A30C301C401C500B3347808840079083D
:101FB000850000080800C1000A30C500B334D830DD
:101FC000F800A830F90021000800D001D101D501A6
:101FD000D401D3000800C9001030CA00B334CE00C9
:101FE0000230D000B334F8008E1412278B31780EF3
:101FF000F03912278B315830890BFC2F0000080074
:102698008F31AA279331F126933120000330DF01CF
:1026A800DD00FF30DE00ED010230EE006D086E0443
:1026B80003199A2BF211F6015D08F7005F309E317D
:1026C8008D269331721F6D2B2000ED01EE015F08FE
:1026D800DE008F31AA27933180308F310327933161
:1026E8008230F800AA30F900B330FA018F3166273A
:1026F8009331EF009F30F800A930F9005F08013EE0
:10270800FA006F08B33E8F3166279331EF076F08E1
:102718008F31BA2793318F3138279331972B6D0832
:102728006E0403195A2BF21D932B5A2B5E0A0319B8
:1027380008005E088B31D82B0430E200AC30A82B9F
:102748000330E200A030A82BE5009630F800AA304C
:10275800F900B330FA018F3166279331EF00453025
:10276800F800AA30F9006208FA006F08B33E8F310A
:1027780066279331EF0780308F310327933120008C
:102788006F08A60008308F31C02793318F31382762
:1027980093310230D60065087B27C0308F3103277C
:1027A8009331ED2BD601D60A65080A2493310230FD
:1027B800D60065089F249331052CC801C80A65080E
:1027C800A5319D2593310230D600650890279331B5
:1027D800052C5F30F6000130F7000230F800FE26C5
:1027E80093312000E300E4016408003A0319FD2B4B
:1027F800052C6308003A0319D62B013A0319E12B7B
:10280800052C6508B20000308431702CDD0074247A
:1028180093313608DC003508DB00C62793310030D9
:102828005802053003195702031C212C00305C02A2
:10283800033003195B020318282CA731E2279331D0
:102848008F3166279331482C5B08A8005C08A900E3
:10285800AA01AB01C62793315708A0005808A10068
:102868006430EA2793314F249331AC279331E02524
:1028780093312908DA002808D9005A08CF005908E6
:10288800DF27933121279331EF000330AF0056083B
:10289800B0006F086C2FF601F701F801F901201C50
:1028A8005D2C2408F6072508F73D2608F83D27087B
:1028B800F93DA435A50DA60DA70DA336A20CA10CB4
:1028C800A00C2308220421042004031D532C79089A
:1028D800A3007808A2007708A1007608A0000800E5
:1028E800FA00860001308700403FA300413FA7312E
:1028F800FB279331DC262408B6002308B500220004
:102908008F31A02793317A08F6279331403FB700DB
:10291800413FB8003708A0003808A1000A30EA276C
:1029280093314F249331AC279331E0252808B5071C
:102938002908B63D0800E100DF01E001E4279331F2
:10294800D700413FD800423FD900433FDA0059043D
:10295800580457040319EC2C61088600B5279331F5
:102968004F242308DE002208DD002108DC002008AF
:10297800DB0022008F31A02793316108F6279331BD
:10298800B52793314F249331AC279331E025933108
:102998002808DB072908DC3D2A08DD3D2B08DE3D39
:1029A8006108E4279331A800413FA900423FAA00EB
:1029B800433FAB005E08AF005D08AE005C08AD00A9
:1029C8005B08AC00E02593312908E0002808DF0007
:1029D8005F086004031DF72CA731E22793318F317C
:1029E80066279331FE2C6008CF005F08DF279331FC
:1029F80021279331EF00AF01AF0A5608B0006F08E6
:102A08006C2FC730F6000030F7000530F800FE26BE
:102A180080308F31032793318F31DF279331470877
:102A2800013EFA00B3308F31662793318F319927F1
:102A380093318F313827933121004708031D2E2DFC
:102A48002A302000CE00B22593313608C900350857
:102A5800C8003C2D4708090709070907223E20003E
:102A6800CE00860002308700403FC800413FC900C1
:102A78004808C10049088F31CF2793318F311C276F
:102A88009331EF002100470803194C2D08304D2DD4
:102A980005302000CA00A6006F081F26EF076F0840
:102AA800B33E8600203087018100C030EF0A8F31A5
:102AB800032793312000D0278F31382793314E08D0
:102AC800033E860002308700403FCB00413FCC00E8
:102AD800423FCD00C8308F310327933120004C0886
:102AE800AF004D08B0004B08A631E1269331FB2713
:102AF80093312A269331003A0319080051309C314A
:102B0800662493312100470803198C2D470B952D16
:102B18002400A001A101A201A301A401A501A6010D
:102B2800A70120004E088600023087000030C03F11
:102B3800C13F4E08033E8600220054088100200051
:102B48004E08043E860022005508810020004E08E9
:102B5800053E8600220056088100080022004C1D10
:102B6800C62D20000130AB01AA007730A90004303F
:102B7800A801203E860002308F31B0279331E0252E
:102B88009331F12F20000730AB01AA01A9000830CA
:102B9800A800240023082000AF00240022082000F9
:102BA800AE00240021082000AD00240020082000E9
:102BB800AC00E0259331F12FB001B101B201B301AE
:102BC8002B082A04290428040319162EB401B40A70
:102BD800AB1BF32DA835A90DAA0DAB0DEB2DB03508
:102BE800B10DB20DB30D2B082F02031D052E2A08B7
:102BF8002E02031D052E29082D02031D052E280867
:102C08002C02031C102E2808AC022908AD3B2A0808
:102C1800AE3B2B08AF3B3014AB36AA0CA90CA80C62
:102C2800B40BF32D3308AB003208AA003108A90011
:102C38003008A8000800A7007F30F800A930F90084
:102C48002608FA002708B33E8F31662FB101F21E1D
:102C5800572E8F31AA279331F12680308F310327E1
:102C6800933120003008F9002F08F800B330FA013A
:102C78008F31662793318F31BA2793318F313827B7
:102C88009331ED010230EE004C2EF21F721B502ED4
:102C98006D086E04031D492E721F542EB101B10A2E
:102CA8008F31AA27F2152000310808002000E5001E
:102CB800E51F602E0130612E0030E1000F30E50580
:102CC8006508A3000330A401A500A601DC26933102
:102CD8002408850023088400BD308407A930853D79
:102CE800003FE200013FE300023FE4006108031DEA
:102CF800A72E80308F31032793315230F800AA3045
:102D0800F900B330FA018F31662793318F31992753
:102D180093318F3138279331C0308F310327933166
:102D280020006508313E2100B3002E30B400D727BB
:102D3800B5308F3166279331023E8F319927933111
:102D48008F3138279331721BAC2E610803190800A4
:102D58007213F1269F31D627933120006D086E0437
:102D68000319DA2EF21180308F3103279331D727D8
:102D7800B3308F31662793318F31992793318F3153
:102D8800382793310130623E86008701413F8A002F
:102D9800403F0A008F31AA279331D72E20006D08B3
:102DA8006E040319B12EF21DD22EB12EF2150800B1
:102DB800A701A801231CE42E2508A7072608A83D7B
:102DC800A535A60DA436A30C23082404031DDE2E66
:102DD8002808A4002708A300080001308F31032722
:102DE80093310F30F9000530890BF82EF90BF82EC6
:102DF80000000800721F0E2F7213760886007708ED
:102E080087000108013EF9007608860077088700E8
:102E1800790881007608860077088700780801021B
:102E28007608860077088700031C1F2F8101760823
:102E380086007708870001080800D5004E08C10001
:102E48004F08C2000A30C301C401C50055088F31BC
:102E58001C279331D4005008013ED10000300318DC
:102E68000130D200803A803C031D3C2F51085402A7
:102E780003184D2F30302000C8005408C9005008EE
:102E8800013ECA0055089E31632693315008013E21
:102E9800D40020005408D3005F2F53085507D100F1
:102EA8008600870153085507D200FF3E840085013C
:102EB80000088100D303D003500F512F5308550742
:102EC800D10086002E30870181005408013E080099
:102ED800B1002F08A60031081F26B1073108A60047
:102EE8000830A7003008A800B3308F31382FD90038
:102EF800742493313608D8003508D7005808CF0015
:102F08005708DF27933121279331EF000830AF00AE
:102F18005608B0006F086C2FD7000A30F600F7018A
:102F28005708063E860001308700403FF800413FC1
:102F3800F900A53152259331A731F3279331212781
:102F48009331EF000630AF005608B0006F086C2FC1
:102F58002308AF002208AE002108AD002008AC000D
:102F68000800403FD700413FD8005708A000580844
:102F7800A1004630A201A301A701A601A500503077
:102F8800A40008005D08063E860001308700403F27
:102F9800D700413FD80008006F08A6000830A700F6
:102FA8000230A800B3340030F800A830F90020003F
:102FB8006208FA000800CE00B330D001D00A080039
:102FC800083E860001308700403F0800A201A301A7
:102FD800A400A501A601A70108002908B600280831
:102FE800B5000800023E86000130870008008930DD
:082FF800AF00AA30B000080090
:1036A8002000A70020259B31D0300E259B311130FA
:1036B8000E259B310530890B5F2B003220259B316D
:1036C800D1300E259B310030CC249B31A8008030AE
:1036D800CC249B31A600280A0319912B260E0F39FA
:1036E800A000A1012808A200F030A301A20EA30E99
:1036F800A30522080F39A304F030A20520082204EC
:10370800A40021082304A5002708860001308700AB
:103718002408C03F2508C13F982B270886000130A0
:1037280087008130C03FC13F292D51306624E930E0
:103738002000AF00A930B00096312A269B31003A0C
:103748000319382CB8019631F1269B31D6279B31C5
:1037580020006D086E040319302CF2110630F601B2
:10376800F70038308D269B31721BD92B0F2C523025
:10377800B7001730C22B5130B7003B30B501D72BFB
:103788005430B7001F30D52B5530B7000C30D52B2F
:103798005630B7001630B5002030D72B5330B7005D
:1037A8000730B501B50AB600EC2B20003808B30085
:1037B800B4013408003A0319E22BEC2B33088400D7
:1037C800063004020318EC2B87310435F33E8200DF
:1037D80037088600013087003508A8003608A90098
:1037E80037088400013085000008F0279B318100EC
:1037F800023038060319082C033038060319082C40
:1038080004303806031D0C2C5130A7311E279B317C
:10381800ED010230EE008F31AA279B310C308F3139
:1038280003279B3151303A243808903E8400AA304F
:103838000318013E850000088F3103279B310F30A4
:103848008F3103279B312D2C20006D086E0403193E
:10385800AC2BF21D282CAC2B0C308F3103279B315D
:103868005130DF24F212080051303A2C2000B20007
:1038780080308F3103279B31E0279B310108AF004F
:10388800B001B00A320A86000108A52788308F31B6
:1038980003279B31E027443FAF0032088600453FAD
:1038A800B0003208033E86000108A631E1269B31AC
:1038B800C0308F3103279B3120003208023EC627D3
:1038C8008B314C2B2000A10020259B31D0300E25B8
:1038D8009B3100300E259B310530890B712C00324D
:1038E80020259B31D1300E259B310030CC249B31D3
:1038F800A0002108D2279B31CC249B318100210ACA
:10390800D2279B31CC249B3181002108023ED2274B
:103918009B31CC249B3181002108033ED2279B3167
:10392800CC249B3181002108043ED2279B31CC2432
:103938009B3181002108053E8600013087008030D8
:10394800CC249B31810029259B312000A01F080031
:10395800210886000130870059308100210A86003D
:10396800173081002108023E8600053081002108B9
:10397800033E8600303081002108043E8600063070
:1039880081002108053E8600223081002108DF2CB5
:10399800F7000830F800F901F93534259B31F904AE
:1039A800F80BD02C770846250032003200002000A2
:1039B8008D1079080800F90020259B31D0300E259C
:1039C8009B3100300E259B3100300E259B31790844
:1039D800C6279B310E259B31790AC6279B310E25B8
:1039E8009B317908023EC6279B310E259B31790809
:1039F800033EC6279B310E259B317908043EC62716
:103A08009B310E259B317908053EC6279B310E2533
:103A18009B31292DF7008030F80077087805462576
:103A28009B31F8367808031D112D342500320032F9
:103A3800000020008D10080020008D14EB279B311A
:103A48000530890B252D00320800EB279B31053006
:103A5800890B2C2D003220008D1421000D14080034
:103A680020008D100530890B372D003221000D14F0
:103A780020008D140330890B3F2D000020000D0815
:103A880001390800F60020008D1021000D1076087D
:103A9800031D512D20000D10532D20000D1405304D
:103AA800890B542D003220008D140330890B5A2DB8
:103AB800000008006030860001308700E030840094
:103AC800003085000630DE0016001A00DE0B682D77
:103AD8002100B330E701E801E901ED01BE279B3180
:103AE8007A26D830F800A930F900B330FA018F31BE
:103AF80066279B310330FA00C830853104259B3195
:103B08002100EA007A279B316430F0102100AE00D2
:103B1800D6279B3120006D086E0403193C2EF21144
:103B280021006A080319202EF018B72D2E08031D4E
:103B3800B72DF014EB01C330F9006B08E6279B3171
:103B4800DA269B31031CB12D21006B35E03E86003F
:103B580087014308C03F4408C13F21000330EB0AF6
:103B68006B02031C9F2DF6016A08FF3EF700ED303B
:103B78008D269B31721FD02D21006D08E73E8600EF
:103B880004308701810A0106031DCE2D6D08E73E2A
:103B980086008101D6279B31F01CFD2D21006D3553
:103BA800E03E86008701403F2200EC00413FED00E7
:103BB80020000330D601D60AA43171249B3121009C
:103BC800E60020302000C800210066082000C90057
:103BD8000430CA00B33063268C308F3103279B3101
:103BE80004302000A6008F31C0279B318F31382741
:103BF8009B31B330F60021006D08E6278931152185
:103C08009B310B30F800AA30F9006D08E73E8600BA
:103C180087010108013EFA00BF308F3166279B31CA
:103C2800EF002030C8006F08C9000430CA00BF3058
:103C380063268F31AA279B31C0308F3103279B31F0
:103C480010302000A6008F31C0279B318F313827D4
:103C58009B31392E20006D086E0403198E2D21002A
:103C68002E08031D392EF01C8E2DF21D2E2E8E2DA2
:103C78002100EC016C08E73E860087010108031962
:103C88005C2E6C08090709070907C83E2000A00038
:103C9800A10121006C08E73E860001080907090711
:103CA8000907683E2000A2000830A300A2269B3125
:103CB80021000330EC0A6C02031808003E2ECD00E8
:103CC80049080319762ECB279B31C90349084D07AC
:103CD800CC008400850100088100642ECB279B312D
:103CE800480881004A0803190800722E7708200046
:103CF800A1007608A000F903790F832E0800200898
:103D080086002108870078088100A00A0319A10A03
:103D18007F2EF900860087010108F800F21F9C2E0B
:103D2800F80A770A7806031D9B2E7608F800D6272E
:103D3800790886008701780881000800F8018B1F40
:103D4800A82EF801F80A8B13F90123087902031841
:103D5800BD2E20088600210887000108F6002208E9
:103D68007907C1269B312000A00A0319A10AF90A84
:103D7800A92E780B08008B170800F7002300951868
:103D8800C22E770891009201760893003F3095057E
:103D980003108B1B03148B13151555309600AA308E
:103DA80096009514151103188B1708002000AE0013
:103DB80083279B310318E22E03100800553027276C
:103DC8009B3120002E08B200B1013208860087011D
:103DD800010827279B3120000830B20AB10A3102B6
:103DE800031CE92EBE3027279B3125302000B20066
:103DF800AF01B001200032088600870156279B31A9
:103E080081002000B20AAF0A0319B00A3008803ACC
:103E1800FA0080307A02031D132F09302F02031C89
:103E2800FE2E79088600870120002508C03F260855
:103E3800C13F0830F600253035279B312D06031D7C
:103E4800E02E03140800F700F801770801398531DE
:103E5800C9259B310830F736F80A7802031808009C
:103E6800292FA000A401512F2008860087010108EE
:103E7800A1000830A00AA20022080319512F240823
:103E88002106A3000130A305A436230803194E2FE9
:103E98008C30A406A136A203402FF603760F382FE4
:103EA80024080800F701F801F73664279B31031846
:103EB800F7170830F80A7802031C582F770808000B
:103EC800DB279B3100320032000021008C160830BD
:103ED800890B6C2F0000003020008C1A0130F6008E
:103EE8005B30890B752F0032760C080083279B31D5
:103EF800031C0800CC3027279B314430272FDB27B1
:103F08009B310430F6001C30890B882FF60B882F64
:103F1800003221008C167430890B902F0032031068
:103F280020008C1E0314003003180130F700033002
:103F3800F600A830890B9E2FF60B9E2F0032770CC7
:103F480008002000B100A800B330A7310F279B312B
:103F58003A302100B50020002F08A800B630A7315C
:103F68000F270530A6000830A7003008A800B33096
:103F78008F31382FF6000030F7002030F80010306D
:103F8800F900080086000130870001080800CA030C
:103F98004A084D07CB0086008701080086000130DB
:103FA800870000342000ED010230EE0008002100F7
:103FB8008C1220008C120800200032088600013084
:103FC80087000800090709070907C83E08002100FB
:103FD8000D1020000D100800AB00A7316B279B3196
:103FE800AC00AC0AAA0029082A02031CFD2F2808E5
:083FF800AC002C08A6310E2ECE
:1046C40080308F310327A331711A982B51309C31DC
:1046D4006624A331220051082000AF00B001B00AC3
:1046E400220052089F31A527A33172188B2B023068
:1046F4009B27C0308F310327A3312000D601D60A6F
:1047040022004C0801397124A33102307825A331E9
:10471400B22B02301024C0308F310327A331013073
:10472400B92302308631DE26A331B22B21002108C1
:104734002000D700210020082000D600D801D9018C
:10474400DA01DA0A7927A33102301024C0308F311C
:104754000327A3310130B923023086319726A331D0
:10476400F21C721C0800F21E080093314C2B20002E
:10477400E6005E30F6000130F7000930F8009631AB
:10478400FE26A3312000E200E3016308003A031986
:10479400052C0F2C6608D60022004C080139712C18
:1047A4006608782D6608C800B8309D2D6608D600C6
:1047B400B83097317B2F6608D600B83094310A2C74
:1047C4006608D600B83094319F2C6608D600B830FD
:1047D4009731902F0B30A600003096311F26A3315D
:1047E400E400E50123004A082000D700230049081B
:1047F4002000D6006508D9006408D8006608DA00ED
:10480400792F6608B92F620884000930040203185E
:10481400080088310435003E82000800C800711B7E
:10482400182CE2278F316627A331692C2200CC1B78
:10483400242C04302000CC007830CB006830CA002F
:10484400C0302C2C02302000CC003C30CB00343063
:10485400CA006030C900220057082000A8002200C6
:1048640058082000A900220059082000AA00AB0122
:104874004C08AF004B08AE004A08AD004908AC0034
:104884009531E025A3312908CE002808CD000A304F
:10489400F600F7014D08053EF80000304E3DF900E2
:1048A40052257708A4007608A3000A30A500A601C3
:1048B4009631DC26A3312408CE002308CD00C100A4
:1048C4004E088F31CF27A3318F311C27A331EF003E
:1048D4000230AF004808B0006F0897316C2F2000F9
:1048E400DD00DD1F772C0130782C0030DB000F3029
:1048F400DD055D35663E860001308700403F2100BE
:10490400C300413FC400813043068130031944068B
:10491400031DA12C023020005D060319952C0330E1
:104924005D06031D9C2C2D302100B300B400023021
:104934002000202DE2278F316627A331202D20006F
:10494400DC012100C41FAE2C2D30B300C309C409FF
:10495400C30A0319C40AB62C023020005D060319E9
:10496400B82C2B302100B3002000DC0A0F302100CA
:1049740043052000A30020008431FF24A331963195
:10498400DC26A3312308D7002408D8000430D83605
:10499400D70C890BC92C2100430E0F392000A3002A
:1049A4002100440EF0392000A3042100440E0F39E5
:1049B4002000FB279631DC26A3315708230721006A
:1049C400C30020005808243D2100C4000230200008
:1049D4005D060319F12C03305D06031D112D0A3009
:1049E400F600F70121004408F9004308F8005225B5
:1049F4007608D7007708D800D901DA015A08C4002C
:104A04005908C3005808C2005708C1000A30C5003D
:104A14005C08B33E8F311C27A3315C07202D210095
:104A240044082000CF00210043082000CE00B43009
:104A3400D001D00A97312127A331013EEF005B0852
:104A440003193C2D2030C8006F08C9000830CA0083
:104A5400B3309E316326A3310B30F800AA30F9003D
:104A64005D08023EFA00B3308F316627A331083067
:104A7400EF00472D03305D060319472D0A30A600C9
:104A84006F0896311F26A331EF076F08A600083080
:104A9400A7005608A800B3308F3138276F080800E4
:104AA4002000A101A201760877040319732DA00147
:104AB400A00AF71B602DF635F70D5A2DA135A20D6E
:104AC40077087902031D682D76087802031C6F2D80
:104AD4007608F8027708F93B2114F736F60CA00B98
:104AE400602D2208F7002108F60008002000D800F5
:104AF40022004A08F600F701210025082000D7000B
:104B0400210024082000D6000530D635D70D890BA6
:104B1400872D5608F8005708F9005225A331F327CA
:104B240097312127A331EF000730AF005808B000B8
:104B34006F0897316C2FCD001E30A800A901AA017F
:104B4400AB014D08083E860001308F31B027A331F8
:104B54009531E025A3312908CF002808CE003C3048
:104B6400F600F7014F08F9004E08F80052257608C0
:104B7400C9007708CA00CB01CC014C08C4004B081B
:104B8400C3004A08C20049088F31DB27A3318F31A3
:104B94001C27A331EF00B33E86003A308701810021
:104BA4003C30EF0AF600F7014F08F9004E08F80010
:104BB400EE25A33176080E26A331A8006F08B33E74
:104BC4000F27EF0AEF0A6F08A6000830A70048086D
:104BD400A800B3308F31382F760877040319092ED3
:104BE400FA01FA0AF71BF92DF635F70DF32D7708BC
:104BF4007902031DFF2D76087802031C052E760822
:104C0400F8027708F93BF736F60CFA0BF92D790818
:104C1400F7007808F6000800A500A6000A30A701EE
:104C2400F600F7012708F9002608F800EE25A3315D
:104C34007608A3007708A4000A30F600F7012708D5
:104C4400F9002608F80052257608890EF039230762
:104C5400080051309C316624A33123004808F80031
:104C640022005608B726A331B300B401B31BB40322
:104C7400B41B0134E927A33103180134220054087A
:104C8400F8005508C326A3317908AC007808AB00B6
:104C940023004608F8004708C326A3317908AE006C
:104CA4007808AD003303340403195B2EAF01B0015F
:104CB4005F2E6D30AF000130B0003008B4002F0813
:104CC400B3002D08B3022E08B43B2B08B3072C08FD
:104CD400B43DB41B0134E927A33103180134220085
:104CE400CC18B42E20003303340403197B2EB101F5
:104CF4007D2E1830B100B20123004508F8002200CF
:104D04005208B726A331B300B401B31BB40331086E
:104D1400B3073208B43DB41B013423004408F8003F
:104D240022005108B726A900AA01A91BAA03340826
:104D3400A4003308A3003C30A500A6019631DC266C
:104D4400A33129082307B3002A08243DB400803A7C
:104D5400A90080302902031DB12E793033020318D3
:104D6400013400342000330808002000A000780833
:104D74006B27A331F90020086B27FA0079087A021F
:104D840008002000A0006B27A331FF3EA300383E9B
:104D94008400AA300318013E85000008A1000930F0
:104DA400A2012302031CD82E0130A20778086B2726
:104DB400F800F9012108F8072208F93D0800B100BC
:104DC40031080319E72E310FF12E6930F800AA30AB
:104DD400F900B330FA018F316627A331092F310866
:104DE400A800B3300F27A3314E30F800A930F900E2
:104DF4002F086B27FA00B5308F316627A33127308F
:104E04002100B80020003008A800B9300F2708306E
:104E1400A6008F31C0278F31382FA900290A8600B8
:104E2400870128080F39303E810029088600280EA2
:104E34000F39303E81000800AF00D33086000130C6
:104E4400870020308400003085000C30F800160004
:104E54001A00F80B292F2F08053E9F31C627A331CE
:104E64006B27AD002F08043E9F31C627A3316B2763
:104E7400AC002D08AE002D08F800F836F836780896
:104E8400AE072F08033E9F31C627A3316B27A331FA
:104E9400AE072C08FF3E203E860087010108AE07BE
:104EA4002D080339031D5B2F03302C0203185B2FDD
:104EB400AE0307302E02031C622F0730AE025B2FB5
:104EC4002F08023E8600013087002E08013E810033
:104ED4000800F700F6000F30F6057830F736F705CE
:104EE4007708F607F736F736760877070800570885
:104EF400CF005608CE00D001D00A5808B33E9731EF
:104F04002127A331EF0003305702E9300319560279
:104F14000318902F58085904031D922FEF03EF0331
:104F24005808EF07AF01AF0A5A08B0006F0897316D
:104F34006C2FC800220044082000C400220043084B
:104F44002000C300220042082000C20022004108C1
:104F540020008F31DB27A3318F311C27A331EF00D1
:104F64000830AF004808B0006F0897316C2FD800A4
:104F74001930F600F70122005B082000D700220058
:104F84005A082000D600D635D70DD635D70D560889
:104F9400F8005708F90052257708DA007608D90096
:104FA4005A08CF0059088F31EF27A33197312127B1
:104FB400EF000C30AF005808B0006F0897316C2F29
:104FC4009C30F800AA30F900B330FA010800340824
:104FD400803AA90080302902031D08000230330200
:104FE40008007708CF007608CE00B330D001D00A8D
:104FF4000800A4000A30A500A601080000344634C5
:10500400553445344C34203463346F346E34733443
:10501400743461346E347434003456345334533439
:10502400203463346F346E347334743461346E34C6
:105034007434003474346F34743461346C34203414
:105044007434723469347034003476346F346C34AC
:1050540074346134673465342034613464346A34BC
:105064007534733474340034733465347434743480
:1050740069346E346734733420346234693474347C
:1050840073340034743465346D34703420347334C0
:1050940065346E3473346F3472347334003473345F
:1050A400653472347634693463346534203463345B
:1050B4006E3474347234733400346D3469346E3441
:1050C4002034733470346534653464340034733498
:1050D40077342034763465347234733469346F34FD
:1050E4006E340034003470346134693472342F34D3
:1050F400703461347234203469346E346A34003468
:1051040073346B34693470342034743465346D34DE
:10511400703400346B3465347934203473346F3430
:1051240075346E34643400347334653472347634D4
:10513400203461346C34613472346D34003464343A
:1051440075346D346D34793400346D3468342034FE
:10515400723470346D3400346434613469346C34C2
:1051640079342034743472346934703400346934DA
:105174006E342F346F34753474342034743465349D
:105184006D3470340034643473343334323433342F
:1051940031342034743465346D3470340034003464
:1051A40000340034003400340034003400346534F6
:1051B4006E34673469346E346534203468346F3443
:1051C400753472347334003465346E34673469343E
:1051D4006E34653420346F3469346C34003467348D
:1051E40065346134723462346F34783420346F340B
:1051F40069346C3400346134693472342034663474
:1052040069346C34743465347234003473347034F7
:10521400613472346B34203470346C3475346734D4
:10522400733400340034733475346E34643461344C
:10523400793400346D346F346E34643461347934C9
:1052440000347434753465347334643461347934BB
:1052540000347734653464346E34653473346434C0
:10526400613479340034743468347534723473348A
:1052740064346134793400346634723469346434A7
:105284006134793400347334613474347534723471
:10529400643461347934003400346A3461346E34F3
:1052A400003466346534623400346D3461347234ED
:1052B400003461347034723400346D3461347934C0
:1052C40000346A3475346E3400346A3475346C34A2
:1052D40000346134753467340034733465347034A5
:1052E40000346F346334743400346E346F34763481
:1052F40000346434653463340034FF3400340134DE
:10530400FF3402340334FF3404340534FF340634E8
:105314000734FF346834FF346C34FF345634FF34BC
:105324006B346D34FF347334FF34DF34FF343C3476
:10533400FF346D347334FF34FF340034203430349C
:105344002D343134303430340034203430342D347E
:105354003634303400342034363430342D3431345F
:105364003034303400342034383430342D34313453
:105374003234303400340134A8340A340234DD3495
:1053840008340334373409340434B4340A34053467
:10539400C634083408349C340A3406345E341D346C
:1053A400073467340B34093459340B346E346F3496
:1053B4002034733465346E3473346F34723473341C
:1053C400203466346F3475346E3464340034743489
:1053D40069346D346534203463346F347234723418
:1053E40065346334743469346F346E343F34003458
:1053F400313437343A343534393420343334303476
:105404002E34303436342E34323430343234323470
:10541400003400342D342D342D3400346F3475347D
:105424007434003469346E34003465346E34673453
:1054340000347734613469347434203466346F341E
:1054440072342034733474346134723474340034F8
:1054540062342334A234083400340D34A4341334B5
:10546400A034133499341B340534153400341F34F8
:105474003B345A3478349734B534D434F334113457
:1054840030344E346D340034633475347234003443
:1054940064346134793400344134003442340034A7
:1054A40043344F344E3446344934473420344D3435
:1054B40045344E3455340034003420346F3466346B
:1054C40066340034203420346F346E3400342D3488
:1054D4002D342D342D342D3427342D342D340034F3
:1054E4005734413452344E3449344E344734003402
:1054F400743469346D3465346F3475347434003401
:10550400743469346D3469346E34673400347234FD
:1055140065347334653474343F34003481348434F2
:1055240089348C348F34C0347434723469347034B4
:0E553400203400342D342D342D342D34003429
:020000040001F9
:04000E00C23FFF1ED0
:10E000009300CA00040000001C001A006C003E00CF
:10E010006E00B3000000EA001300050000000000DD
:10E020006E00000057000D000B001700EC0004000C
:10E030002C001B0000000000DC000200D6000900DC
:10E0400069003F00D90020008E00B20000000000EF
:10E050001B00000060001800410051004500010055
:10E06000090007000000000015001700300006003E
:10E070002200CA00020000000000000000000000B2
:10E08000FE00E100050000006800A500F0000000AF
:10E0900000000000A70016000A0013001100210074
:10E0A000000000005D00170028000700110021009B
:10E0B00000000000C40029000A0021000300200025
:10E0C000000000002F0035000A00070001002100B9
:10E0D0000000FF0000000000000000000000000041
:10E0E00028008A0009009500F00001003C00FC00B7
:10E0F000FF00FF00FF00FF00FF00FF00FF00FF0028
:10E10000FF00FF00FF00FF00FF00FF00FF00FF0017
:10E1100005000600050000000000000001000200EC
:10E120000A0015001500000010000500070001009E
:10E1300007000500070000000000010002000000C9
:10E14000000000000800100000000A001500150083
:10E150000C00140014000100020005000100010081
:10E16000000000000000000000001F0015001F005C
:10E17000030005000500000000000100020000008F
:10E180000000000008001000000014001C00040043
:00000001FF
