:040000008231D02A4F
:100008007E1480310B1C5129270096012000170807
:10001800E8001608E700131B71158D1B7028711B6B
:10002800AC28210095127117F117F014400823002D
:10003800A40701300318A5070318A6070318A70784
:10004800711A352871162100A001A101A201200012
:1000580068082100AC00200067082100AB00C1013E
:10006800AC28200067082200A900200068082200A8
:10007800AA00AB0121002B08F3002C08F400F501BD
:1000880073082200A9027408AA3B7508AB3B21003B
:1000980020082200A907210021082200AA3D2100EA
:1000A80022082200AB3D711D63286A30A907183069
:1000B80003181930AA07003003180130AB072908C4
:1000C8002100E80022002A082100E90022002B086C
:1000D8002100EA00F1162828711FAC282100951686
:1000E8007113711EAC28200067082200A3002000AD
:1000F80068082200A400A50121002B08F3002C08A1
:10010800F400F50173082200A3027408A43B7508E3
:10011800A53B210020082200A30721002108220076
:10012800A43D210022082200A53D711DA5286A30A2
:10013800A307183003181930A4070030031801303A
:10014800A5072308A6002408A7002508A8007015FD
:1001580020000D1F5029F2185129F2147214701F33
:10016800EC287118C6287114200068082100AE0018
:10017800200067082100AD002200B201B301210070
:10018800C201ED28220033082100B0002200320805
:100198002100AF002D08AF022E08B03B20006708F1
:1001A8002100AF07200068082100B03D711DE0283C
:1001B8006A30AF071830B03DF01630083402031D1E
:1001C800E7282F083302031CB828F0177013ED280E
:1001D80071102200B00A0319B10A2100DC0A0319C0
:1001E800DD0A5F085D02031DFB285E085C02031C34
:1001F80012290130DC01DD01D8070030D93DDA3D94
:10020800DB3D2300AA0A0319AB0AB20A0319B30A91
:10021800BA0A0319BB0AC20A0319C30A2200B60A9A
:100228000319B70A21005F0822003702031D20299D
:1002380021005E0822003602031C2729B601B701F7
:10024800B40A0319B50AC20A0319C30A21005F08D0
:1002580022004302031D342921005E0822004202C5
:10026800031C3B29C201C301C00A0319C10ACE0AF3
:100278000319CF0A21005F0822004F02031D4829F5
:1002880021005E0822004E02031C5129CE01CF0135
:10029800CC0A0319CD0A5129F2100B1D8B29220013
:1002A800AE0A0319AF0AB80B682921003B082200DF
:1002B800B800210060082200B90A3902031C682925
:1002C800B901BA0A0319BB0AC40B792921003B08F2
:1002D8002200C400210060082200C50A4502031C50
:1002E8007929C501C60A0319C70AD00B8A29210032
:1002F8003B082200D000210060082200D10A5102E8
:10030800031C8A29D101D20A0319D30A0B11200030
:10031800131FB32A7119B929711EA8292100C10A0E
:100328003C304106031D9E2971129516F112701179
:10033800F113A8296A30A007183003181930A1074B
:10034800003003180130A207711CBA2921000A30B5
:10035800C20A4206031DB3297110F012BA296A3085
:100368002200B2071830B33DBA29711120000D19C7
:10037800CC2965306D020318C229ED0A64306D0678
:10038800031DDA296F17F2152100EF01EF0ADA29A8
:1003980005306D02031CD82933306D020318D829A3
:1003A800F217F2152100EF012000ED0120008D1950
:1003B800EB29653021004702031CC70A6430470651
:1003C800031DF829F216F215EF01EF0AF829053096
:1003D80021004702031CF729333047020318F72985
:1003E8007217F215EF01C7016F0A0319082AE31EF5
:1003F800062A2000EF156F1121006F086F076F079D
:10040800D63EBC00EF01EF034308C40A4402031CB4
:10041800532AC401F21522002F082100AA00220045
:100428002E082100A9002200AE01AF0131082100E9
:10043800EC00220030082100EB002200B001B101DD
:100448002100E31D2A2A2000EF1E522A2000EF1265
:10045800F11B302A721C4A2A01302300A007003001
:10046800A13DA23DA33D01302200BC070030BD3DA7
:10047800BE3DBF3D0130C8070030C93DCA3DCB3D38
:100488000130D4070030D53DD63DD73D21003F0887
:100498000319532ABF0B532A7014532AEF1621004D
:1004A800350836040319602A0130B5020030B63B1E
:1004B8003508360403197215701F652AB10A031925
:1004C800B20A4508031DB02A72160A30C50020007A
:1004D800EF1DB12A6F197A2A6F156F1421003C0895
:1004E8008600013087000108013EBE0020006F1C15
:1004F8008F2A6F102100BE0303198C2A2000EF14E5
:1005080021003C08860001308700413FBD008F2A4A
:100518002000EF116F112000EF1CA32A21003D08D5
:10052800031DA12A2000EF1021003C08023E86008E
:10053800013087000108FF3EBD0020000E14EF18AF
:10054800AD2A21003D08031DAB2A20006F142000AE
:100558000E102100BD03B12AC50320001313111F7B
:10056800CE2A21001C08A800A7011B08A7040030F8
:100578002802813003192702031CC42AC601CC2A89
:1005880008304606031DCB2AF115F215CC2AC60AF7
:10059800200011137E1009008231D22A2100FF3079
:1005A800EF0022008130E500E600E700E800E900FE
:1005B800EA002A30840091308500CA308600013074
:1005C80087001530913124218231F001F101F201C7
:1005D80020006730EF018400003085000830913139
:1005E8001E218231A0308400003085004F309131C7
:1005F8001E21823120308400013085004530913140
:100608001E218231A0308400013085002A309131CA
:100618001E2182317E102000112B8A31082282315E
:10062800200018148B1770146908031D232B210050
:10063800631E232B9723E6008B31742382318F317D
:1006480069278231292BF2192E2B2100270828042B
:100658000319272BF211F11D342B923157228231C5
:10066800F21E552B200069080319F11B492B72183B
:10067800492B6B08031D492B6B082100B90038086A
:100688002000EB00E901E90A522B690B552B6B0896
:100698002100B80039082000EB00E9019F31DA2772
:1006A800823120006908031D632B07302100B70041
:1006B800701C602B90248231EB238231662B093029
:1006C8002100B700F21F742B210037082000EB0A25
:1006D8006B020318EB012100EE018F31692782318B
:1006E8002000690803197D2B6B089631B8268231E2
:1006F800942BF11C842B03306B02031C842BEB011D
:100708006B08E400FE30E501E435E50D640784007C
:100718009930653D8500013F8A00003F0A0083311A
:10072800F2192E2B942B2000B501B7013708031DB1
:10073800BB2B2300280829040319E32B9D318F259F
:1007480082312300290820003202031DAF2B230029
:10075800280820003102031CE32B0130B300370ABC
:10076800B62BB335890BB52B3308B504E32B370803
:10077800090709070907A23EB600023E9F31B327C1
:1007880082310319E32B3608023E86000108A000D7
:10079800E830A101A2000330A3009731222782315B
:1007A8003608860001308700403FB300413FB4005F
:1007B80021083402031DAF2B20083302AF2B200081
:1007C8000530B70A3702031C9A2B35080800E31BCB
:1007D800F12B02302000B100F42B2000B101B10A46
:1007E800B20131082100C000EA260130A601A701A4
:1007F800AB005730AA005230A900A030A8009D31A4
:10080800BC25823125082100B400200024082100DD
:10081800B300EA268231A601A70121006B08F60081
:100828006C08F7008C30FA26A030FA009C31292495
:1008380082319F31852782319D31BC25823125083F
:100848002100A600200024082100A500650820003A
:10085800A0000B2797312227823121082100260288
:10086800031D3A2C2000200821002502031C3E2CE1
:10087800F1143F2CF1102100E319442CA636A50CE5
:10088800260822005E02031D4D2C210025082200A7
:100898005D020318572C210026082200DE002100E3
:1008A80025082200DD00721C5E2C21002508260484
:1008B80003197210073022003502D13003193402AF
:1008C800031C6C2C34302000AD00013079248231B7
:1008D800173022004102713003194002031C08003E
:1008E80040302000AD000130792CAE002E08031DE9
:1008F800862C9F31DF2782319D31FB258231003ADA
:10090800031908002D08F6000130F7000C30F80133
:10091800F901FA00FB01552D701020006F1ED22C32
:100928000E302100BF0020006F127030A600A70112
:10093800C830F7000030F8002608F9000830FA003F
:10094800DD24823120002735653EFC00C830512661
:1009580082310318C12C20000027823105300102A2
:10096800031CBD2C2735653E86008130C03FC13F42
:10097800C52C00278231810AC52C2000002782312E
:1009880081010830A6070330A70A2702031C9C2C04
:100998002100E21F080067309131FC296F160130F1
:1009A8002100BF00C92682312100E21F08009131D1
:1009B800EC29FC017A087C020318080079087C07F6
:1009C800DA258231FB0077088600780887007B08E3
:1009D8008100F70A0319F80AFC0ADE2C4B30F600EE
:1009E8000030F700FF30F8000830F901FA00FB0189
:1009F800552582314B30C4258231C830F6004B3042
:100A080010272000D3018F31622782317219432DBC
:100A1800F211F21B112D721F1C2D8F3169278231A3
:100A28000430D30A53020318D3018F31622782316D
:100A3800DF30F8009930F90020005308013EFA0031
:100A4800D4308F3113278231EC002030C5006C0878
:100A5800C6000430C700D430973167278231C030D0
:100A68008D31B52582318F31862782318E31C82666
:100A78008231402D72190A2DF21D3E2D0A2D2000BB
:100A88005308031908004B30F8000030F9005308E8
:100A9800090709070907683EFA000830FB00923188
:100AA800A72A77082000A7007608A6007A087B0402
:100AB80003190800260886002708D2268231FF3E3F
:100AC800DD268231033003197A02031C0800260848
:100AD800013EF22682318700780881002608023E0E
:100AE800F2268231D2268231FE3EA200FF30213D1D
:100AF800A300220886002308D2268231FD3EDD2687
:100B08008231073003197A02031C08002608033EC5
:100B1800F2268231D2268231FC3EDD26823109302E
:100B280003197A02031C08002609A0002709A1005E
:100B3800A00A0319A10A2008A4002108A50003306F
:100B4800A405A5012408A6072508A73D2408FA023C
:100B58002508FB3BFC30FA05FF30FB057A087B04CF
:100B680003190800260886002708870078088100EE
:100B78000130FA020030FB3BA60A0319A70AB22D7E
:100B8800F9000B268231031C0800333025268231F8
:100B9800FA01790886008701E7258231810008304B
:100BA800F90AFA0A7A0203180800CD2DF600640043
:100BB80023009518DB2D7608910092013F309505AA
:100BC800151413080800F701F801F736F5258231E6
:100BD8000318F7170830F80A7802031CE92D77087C
:100BE80008000627823100320032000021008C16EE
:100BF8000830890BFD2D0000003020008C1A0130D0
:100C0800F6005B30890B062E0032760C08000627AA
:100C180082310430F6001C30890B102EF60B102E92
:100C2800003221008C166430890B182E20008C1A93
:100C3800232EA630890B1E2E003203140800031041
:100C48000800F700F80177080139322682310830A8
:100C5800F736F80A780203180800272EF600013044
:100C6800F60576080319442E062782310830890BC9
:100C78003B2E000021008C166430890B412E0800A1
:100C8800062782317430890B472E003221008C16DA
:100C98000330890B4D2E00000800A4000B2682317A
:100CA8000318582E031008005530252682312000DD
:100CB8002408A300A201230886008701010825262D
:100CC800823120000830A30AA20A2202031C5F2EE8
:100CD800BE302526823120002408A300A001A101EE
:100CE8002000230886008701E72582318100200043
:100CF800A30AA00A0319A10A2108803AFD0080303E
:100D08007D02031D892E09302002031C742E200049
:100D1800240A840085010008FD00240884007C085A
:100D28008600013087000008C03F7D08C13F2408C5
:100D3800083E84000830F6002408A8268231000600
:100D4800031D562E03140800FA00FB01C42E7A086E
:100D5800860087010108F7000830FA0AF8007808C9
:100D68000319C42E7B087706F9000130F905FB3614
:100D780079080319C12E8C30FB06F736F803B32E19
:100D8800F603760FAB2E7B0808000B268231031C76
:100D98000800CC30252682314430252E870078087B
:100DA80081007A082607A0007B08273DA1002008BB
:100DB8000800A200FF30213DA30022088600230876
:100DC80087007808810000307B0208005E08200058
:100DD800A40021005F082000A5000800A000003042
:100DE800273DA1002008860021080800F801F90124
:100DF800FD01FC01FB0008002708203E86000130A9
:100E08008700080021008C1220008C1208000A308C
:100E1800A101A200A3010800F7001030F800F80BA8
:100E2800162F08007708860087010108F900781C4A
:100E3800212F0F30F90EF905222FF70A0F30F90587
:100E48000A3079027608860087017908031C2E2F5C
:100E5800373E2F2F303E8100F60A132FBC0034088E
:100E6800BA003308B9003208B8003108B700CC27F7
:100E78003A08AB003908AA003808A9003708A800C2
:100E88009D31BC2587312708BA002608B9002508F6
:100E9800B8002408B700BC0A3A08390438043704F3
:100EA800031D3B2F3C08860087018101BC033508E0
:100EB800F6003608F700F801F9013408FD00330898
:100EC800FC003208FB003108FA00962787317608C3
:100ED800BB00CC273408AB003308AA003208A900AD
:100EE8003108A8009D31BC2587312708B4002608A1
:100EF800B3002508B2002408B1000A303B02031CE5
:100F0800872F0730BB073030BB073C0886008701B6
:100F18003B088100BC03340833043204310403194C
:100F280008005B2F79087804770476040319C32F27
:100F3800A001A00AF91BA52FF635F70DF80DF90D3C
:100F48009D2F79087D02031DB32F78087C02031DAD
:100F5800B32F77087B02031DB32F76087A02031C90
:100F6800BD2F7608FA027708FB3B7808FC3B790826
:100F7800FD3BF936F80CF70CF60CA00BA52F7D08F5
:100F8800F9007C08F8007B08F7007A08F6000800EA
:100F98003508A4003608A500A601A701080021000D
:100FA800631FDA2F2000EB0AF215080080308D311C
:100FB800B525873120000030FB27943199248731EB
:100FC800C0308D31B525873120000130FB279431A1
:100FD80099248731C8308D31B525873120000230FA
:100FE800D301D401D40A9431992470140800D30190
:080FF800D30AD401D40A080059
:10100A00F21F0E288C30210061020318E1031C2014
:10101A008831721F1628E63021006102031CE10A9A
:10102A001C20C4308D31B52501309731442F7211FF
:10103A002C30B5000130B6000800AC002C080319AA
:10104A0028282C0F32284B30F8009A30F900C83083
:10105A00FA018F31132788314F282C08FD00C83038
:10106A009631A92688315130F8009930F9002A08BA
:10107A00963184268831FA00CA308F311327883195
:10108A0027302100CD0020002B08FD00CE309631FC
:10109A00A926883108308F31A6278E31C82ED5006F
:1010AA0070195E289731B12788318F31132788311B
:1010BA0086286A30A3001830A400A5012200260859
:1010CA00F6002708F7002808F800E830F90003308E
:1010DA00FA000030FB01C02088317608A6007708A4
:1010EA00A7007808A8008E202408D4002308D3007B
:1010FA005408CC005308CB000230CD00C8309F31D1
:10110A003127EC000C30AA005508AB006C08953169
:10111A007E2DA901AA01AB01250824042304031981
:10112A00B928AC01AC0AA51B9E28A335A40DA50DB0
:10113A009728A935AA0DAB0D25082802031DAB284F
:10114A0024082702031DAB2823082602031CB428FF
:10115A002308A6022408A73B2508A83B2914A5367C
:10116A00A40CA30CAC0B9E282908A3002A08A400EF
:10117A002B08A50008002000A001A101A201761CED
:10118A00CD2879082000A0077A08A13D7B08A23D56
:10119A00F935FA0DFB0DF836F70CF60C78087704DA
:1011AA007604031DC42820002008F6002108F70051
:1011BA002208F8000800CA001E30A400A501A601F2
:1011CA00A7014A08083E860001309F31A9278831C5
:1011DA009D31BC2588312508CC002408CB003C3041
:1011EA00F600F7014C08F9004B08F800953159252B
:1011FA00883176082000C6007708C700C801C901EF
:10120A004908C0004808BF004708BE0046088F3199
:10121A009C2788318F3146278831EC00C83E8600EA
:10122A003A30870181003C30EC0AF600F7014C089D
:10123A00F9004B08F8003421883176085421FD0062
:10124A006C08C83E9631A926EC0AEC0A6C08A40080
:10125A000830A5004508A600C8308E31C82E760889
:10126A00770403194F29FA01FA0AF71B3F29F635C1
:10127A00F70D392977087902031D4529760878027E
:10128A00031C4B297608F8027708F93BF736F60C67
:10129A00FA0B3F297908F7007808F6000800A2003F
:1012AA00A3000A30A401F600F7012408F900230874
:1012BA00F80034217608A0007708A1000A30F60069
:1012CA00F7012408F9002308F80095315925760812
:1012DA00890EF039200020070800D90021006B0888
:1012EA002000A40021006C082000A500F3212200A0
:1012FA002C08FA002D08FB00FC01FD019C31292471
:10130A0089319F31852789319D31BC25893127084B
:10131A00D6002608D5002508D4002408D300FD21CC
:10132A00A601A7015608AB005508AA005408A9004F
:10133A005308A8009D31BC2589312508D800240806
:10134A00D7005808CC0057089731C62789319F31F2
:10135A0031278931EC000330AA005908AB006C0828
:10136A0095317E2DD900FD218931F32189313A0841
:10137A0003229C31292489319F31852789319D3166
:10138A00BC2589312708D6002608D5002508D400AF
:10139A002408D3000A30A400A501A601A701560813
:1013AA00AB005508AA005408A9005308A8009D31AB
:1013BA00BC2589312508D8002408D7005808CC0054
:1013CA0057089731C62789319F313127EC000430FD
:1013DA00AA005908AB006C0895317E2DA601A70119
:1013EA0021002908F6002A08F700F801F901080087
:1013FA00210060082000A400A5010800FA00FB01F2
:10140A00FC01FD01080049228A3138238D31442527
:10141A008A3141302100BB001C30BA005F08F90054
:10142A005E08F8000D30F835F90DF600F701953130
:10143A0059258A3177082200AD007608AC002100D0
:10144A00E31F2C2ABB35BA362200AD36AC0CC830A5
:10145A002100C300E31D332AC336BA3564080F39A5
:10146A00ED00640E0F392000EE007E228A31003A28
:10147A00031908004C302000AD0001308431792472
:10148A002200DD01DE010800263021008C00013037
:10149A0020008C00CD3021008D00033020008D000B
:1014AA0021008E0120008E01950196019701B83026
:1014BA00210095003030200098000B3026009E0055
:1014CA0018309D006A309C00403021009100930042
:1014DA00C03027009400950068308B000630230046
:1014EA008C008D01043021009D00A0309E001D1447
:1014FA005B2B5F309E312B268A3122005C08F80074
:10150A0064080C238A312000B000B101B01BB1037A
:10151A00B11B01345C238A310318013422006208AA
:10152A00F800630819238A3179082000A90078088D
:10153A00A80022005A08F8005B0819238A317908A2
:10154A002000AB007808AA00300331040319B02A3E
:10155A00AC01AD01B42A6D30AC000130AD002D08EC
:10156A00B1002C08B0002A08B0022B08B13B2808A9
:10157A00B0072908B13DB11B01345C238A31031835
:10158A0001342100E318092B200030033104031928
:10159A00D02AAE01D22A1830AE00AF012200590873
:1015AA00F80060080C238A312000B000B101B01B9A
:1015BA00B1032E08B0072F08B13DB11B0134220038
:1015CA005808F8005F080C232000A600A701A61BF4
:1015DA00A7033108A1003008A0003C30A200A301F3
:1015EA00973122278A3126082007B0002708213D93
:1015FA00B100803AA60080302602031D062B7930FE
:10160A003002031801340034200030080800FB00BF
:10161A007808963184268A31F9007B089631842627
:10162A00FA0079087A020800FA00963184268A318B
:10163A00FF3EFD000C3E84009A300318013E8500EF
:10164A000008FB000930FC017D02031C2E2B01302F
:10165A00FC07780896318426F800F9017B08F80718
:10166A007C08F93D0800D830FD01F7000030F80089
:10167A001030F901FA008431DD248A311030FD0777
:10168A003430F7000130F8007D08F9002B30FA00F9
:10169A008431DD243030FD07A030F7000130F80036
:1016AA007D08F9002A30FA008431DD2C080031085F
:1016BA00803AA60080302602031D0800023030025C
:1016CA000800C030B5258B31CE30F8009930F900CA
:1016DA00C830FA0113278B3175278B31C82EAA001F
:1016EA00AB012A1CA22BAB278B318030B5258B315D
:1016FA005430F8009A30F900C830FA0113278B31B8
:10170A006F278B31C8268B31C030B5258B31962790
:10171A008B312B08013EFA00C83013278B316F2713
:10172A008B31C8268B3162278B319E2BF21F721B9D
:10173A00A02B721D9B2B69278B310530AA36AB0A69
:10174A002B0203180800762BF21FB22B0530EA0A87
:10175A006A060319EA0162278B31C030B5252000D9
:10176A006A089731E0278B3196278B316A08013E48
:10177A00FA00CA3013278B31023E75278B31C826EF
:10178A008B31721F0800F21372136F13F21280303A
:10179A00B5258B3196278B316A08013EFA00C8308D
:1017AA0013278B3175278B31C8268B31C030B5256D
:1017BA008B317B27853155258B311030A6278B310C
:1017CA00C8268B316A08031D012C23002808200033
:1017DA00CB00230029082000CC000730B1278B3129
:1017EA00CF30CF0012248B314C082300A9002000EF
:1017FA004B082300A800102C0830C5003C30C60155
:10180A00C7008D2701089231F6228B31DD008D2722
:10181A008B315D088100622708005208C000510818
:10182A00BF005008BE004F089C278B3146278B31DA
:10183A00DB004E085202031D2C2C4D085102031DD9
:10184A002C2C4C085002031D2C2C4B084F02031859
:10185A00362C5208CE005108CD005008CC004F0853
:10186A00CB004E08C0004D08BF004C08BE004B0814
:10187A009C278B314627D9003030C5005908C6004D
:10188A005B08C700C830973167278B31D4015B08E2
:10189A00103CD300031CD403D436D30C5308C03EE7
:1018AA00DA00DC0162278B317219B92CF211F21FAE
:1018BA00662C2000DC0A5C085B060319DC0162273F
:1018CA008B31721F9A2C20005C08C83E86003A3081
:1018DA008701810A0102031C772C5C08C83E860036
:1018EA0030308100C830BB278B312708D800260842
:1018FA00D7002508D6002408D50058085202031D2F
:10190A00902C57085102031D902C56085002031DB3
:10191A00902C55084F020318982C5C08C83E860084
:10192A0030308701810062278B310C30B5258B312D
:10193A0020005A08B5258B3120005B08A400083026
:10194A00A500C830A601C8268B315A085C07B52500
:10195A008B310F30B5258B3169278B31B62C721933
:10196A00592CF21DB42C592C0C30B5258B31F2159B
:10197A00C830BB272708CE002608CD002508CC0092
:10198A002408CB000800D20162278B317219402D3E
:10199A00F211F21FD82C20001030D20A5206031975
:1019AA00D20162278B31721FEC2C01302000CF004C
:1019BA00D00152080F3C890AE42CCF35D00D890B8F
:1019CA00E22C4F08CB065008CC0662278B310C302C
:1019DA00B5258B3130302000C5004B08BD004C08BE
:1019EA00BE000230BF01C001C100C83046278B319A
:1019FA00B727973167278B315208C83E860087017F
:101A0A000108D13ED100C030B5258B3186278B31F4
:101A1A00C8268B317B27853155258B314E08F90035
:101A2A004D08F8005208013EFA00C83013278B31DE
:101A3A00EC006C0803192A2D4030F8009A30F9009E
:101A4A005108FA00D43013278B318030B5258B31F9
:101A5A0086278B31C8268B315208C03EB5258B317B
:101A6A000F30B5258B3169278B313D2D7219CB2C5F
:101A7A00F21D3B2DCB2C0C30B525F21508002000A9
:101A8A008E148E1502302000A1004530A000A93026
:101A9A00890B4D2DA00B4D2DA10B4D2D0032083079
:101AAA002000AD0004302D0203185E2D3030AA004C
:101ABA005F2DAA01AB012A08C4258B3103302D0200
:101ACA00031C712D1B302000A0009E30890B6B2D4A
:101ADA00A00B6B2D0000752DA630890B722D0032DC
:101AEA002000AD03031D572D0230B5258B31283058
:101AFA00B5258B310830B5258B311730B52597318F
:101B0A0037278B310C30B5258B310630B5258B3113
:101B1A002000AE012E080739031DA72D2E08F8391B
:101B2A004038B5252230F7000030F80020002E0892
:101B3A00883EF9000830FA008431DD248B312230E6
:101B4A002000AC002C0886008701010806278B318B
:101B5A0020004030AC0AAE0A2E02031808008F2D6E
:101B6A00F80020008E107808C4258B31780EF039E1
:101B7A00C4258B315830890BC02D00000800F700AE
:101B8A00F039F6000E080F3976048E008E158E1184
:101B9A0008008030B5258B31EF30F8009930F90014
:101BAA00C830FA0113278B316F278B31C826711081
:101BBA00F0132100B101B2017012F011C830F60021
:101BCA000030F7003D30F8001030F901FA00FB014F
:101BDA00853155258B31721100302100B500063050
:101BEA00B6007212C02E721D7218122E721EC02EEC
:101BFA007212C030B5255B30F600F70121003608B5
:101C0A00F9003508F800953159258B3176082000FE
:101C1A0075278B31C8268B31C02E7219932EF01F6F
:101C2A00701B1C2E2100B5010C30B60070170A304B
:101C3A00F600F70121003208F9003108F800953161
:101C4A0059258B319731B8278B319F3131278B3109
:101C5A00EC000930FD006C089F317A278B31EC07C4
:101C6A002030C5006C08B727973167278B31F01EE3
:101C7A007E2E21008631EA268B318630A601A70105
:101C8A00AB001C30AA004630A9008030A8009D3164
:101C9A00BC258B312708D6002608D5002508D40094
:101CAA002408D30021002F082000A40021003008B6
:101CBA002000A500A601A7015608AB005508AA00F6
:101CCA005408A9005308A8009D31BC258B3124086B
:101CDA00D7002508D800D901DA015A08C0005908E6
:101CEA00BF005808BE0057089C278B3146278B3106
:101CFA00822E9731B1278B311327EC00FD01FD0AA3
:101D0A009F317A278B311030EC00C030B5258B31EA
:101D1A0020006C086F278B31C8268B31721DF01B8F
:101D2A009A2E7212721AC02E972EF01B701A9F2EBC
:101D3A007016C02E7013721DB12EC030B5258B31AE
:101D4A005C30F8009A30F900C830FA0113278B3159
:101D5A006F278B31C8268B312000AB278B3172114C
:101D6A000030B5000230B600BD2EF21F721BBF2E26
:101D7A00721DBA2EF015F01DF21BC52E721FF82D1A
:101D8A00701369270800A900A70126030319D12E99
:101D9A0002302606031DE32E24082502A70002307E
:101DAA0026060319A736A801270828020318E32ED6
:101DBA00203006278B312000A80AD92EA801240832
:101DCA0028020318F32E28082907FD008600870138
:101DDA00010806278B312000A80AE42E26080319D9
:101DEA00FA2E02302606031D08002408A707200041
:101DFA00A70A27082502031C0800203006278B3172
:101E0A00FC2EF8008E14C4258B31780EF039C425C7
:101E1A008B315830890B0F2F000008002000A300D7
:101E2A007A0803191C2FA0278B31A0001D2FA001AF
:101E3A00A1012008A2007A0803193F2F7908FC00A3
:101E4A007808FB00F80A0319F90A84007C0885005F
:101E5A0000082206031D202FFA03202F7A082307E1
:101E6A00FB0086008701A0278B318100F80A03193D
:101E7A00F90AFA0AA0278B312206031D332F7A08A2
:101E8A000800C4004008B4003F08B3003E08B2008E
:101E9A003D08B1004108B500B60144088731322730
:101EAA008B31C301C30A43084407C2008600870175
:101EBA000108031D572F4308080072112C30210016
:101ECA00B5000130B6000800F213721320006F1338
:101EDA00F2120800A4001030A5000230A600C8348F
:101EEA00A4001030A500C830A6010800C830F600CA
:101EFA000030F7002030F8001030F901FA00FB0139
:101F0A00080010302000A400A500C830A60108006F
:101F1A006A08090709070907A43E860001308700F5
:101F2A000800DB30F8009830F90020000800BD00F6
:101F3A000A30C100C834780884007908850000088E
:101F4A000800A400A500C830A6010800DC30EF157F
:101F5A006F112100BC000800CD01CE01D201D101D0
:101F6A00D0000800C6001030C700C8342000B200F4
:101F7A00AE01AF01B001B101320886008701010844
:101F8A000319F72F320886000108D03EA800FF3057
:101F9A0003180030A9002808AA002908AB00AC01E0
:101FAA00AD013108F9003008F8002F08F7002E08B3
:101FBA00F6000A308A3103228B319C3129248B3175
:101FCA007608AA077708AB3D7808AC3D7908AD3D9D
:101FDA002D08B1002C08B0002B08AF002A08AE006B
:101FEA00B20AC12F3108A7003008A6002F08A500A1
:101FFA002E08A40008009331D22B9331D92B9331A8
:10200A00DB2B9331E02B9331E42B9331E92B933182
:10201A00EE2B9331F32B94310A2C9531B72D953150
:10202A00C12D9531CB2D9531D62D9531E12D953197
:02203A00EC2D8B
:10223C00640080010131890B1F290034FE0012005B
:10224C001E00FE0B252900340634023402340534FA
:10225C0000340334053401340434063402340434B9
:10226C0001340134013401340434013403340334B3
:10227C000234210063082000CC00210062082000F9
:10228C00CB007430CD009830CE008C31C8242000A7
:10229C004C082100E30020004B082100E20008005C
:1022AC0021005E082000CB0021005F082000CC003C
:1022BC0075308F31B12791312F30CF008C311224F2
:1022CC004C082100DF0020004B082100DE00080034
:1022DC0021005B082000CE0021005A082000CD0010
:1022EC00210059082000CC00210058082000CB0008
:1022FC000F30D201D1004230D0003F30CF008C31B2
:10230C0012244E082100DB0020004D082100DA00C9
:10231C0020004C082100D90020004B082100D800D7
:10232C000800AF00CA3086000130870020308400DE
:10233C00003085000C30F80016001A00F80BA229AA
:10234C002F08053E9F31B327913196318426913168
:10235C002000AD002F08043E9F31B32791319631F8
:10236C00842691312000AC002D08AE002D08F80019
:10237C00F836F8367808AE072F08033E9F31B3279E
:10238C0091319631842691312000AE072C08FF3E06
:10239C00203E860087010108AE072D080339031D76
:1023AC00DC2903302C020318DC29AE0307302E0283
:1023BC00031CE3290730AE02DC292F08023E8600FD
:1023CC00013087002E08013E810008009E31E32673
:1023DC009131D0309E31D12691310E309E31D126A3
:1023EC0091313C309E31D1269131472AFC009E31EF
:1023FC00E3269131D0309E31D126913111309E316E
:10240C00D12691310530890B092A00329E31E32601
:10241C009131D1309E31D126913100309E318F26B1
:10242C009131FB0080309E318F269131FA007B0A6E
:10243C0003193F2A7A0E0F39A000A1017B08A200D4
:10244C00F030A301A20EA30EA30522080F39A3049A
:10245C00F030A20520082204A40021082304A500C2
:10246C007C088600013087002408C03F2508C13F46
:10247C00462A7C088600013087008130C03FC13F6E
:10248C00472A522291310530890B4A2A003220000A
:10249C008D1421000D14080021000D1020000D10CA
:1024AC0008009731372792318B13F01C6C2A5F3060
:1024BC009E312B26923122005F08D8006008D9008B
:1024CC006208DA006308DB006408DC0021006408A1
:1024DC006D06F0396D06E40020006E08A100A10E17
:1024EC0021006408200021060F3921062100E40098
:1024FC008322923120000C10822A2000D830A001B7
:10250C00F8000030F9001030FA01FB00A7229231DC
:10251C0010302000A0073430F8000130F9002008FA
:10252C00FA002B30FB00A722923130302000A0079C
:10253C00A030F8000130F9002008FA002A30FB0026
:10254C00A72AFC018B1FAD2AFC01FC0A8B13FD0191
:10255C007B087D020318C12A780886007908870059
:10256C000108F6007A087D07C5229231F80A031992
:10257C00F90AFD0AAE2A7C0B08008B170800F7003D
:10258C0023009518C62A77089100920176089300CB
:10259C003F30950503108B1B03148B131515553009
:1025AC009600AA3096009514151103188B17080085
:1025BC000A30C501C50AC601C60AC7002100650854
:1025CC00F6222100E50008000D30C500FF30C601E1
:1025DC00C60AC70021006008F6222100E0000800AE
:1025EC002000CC008F31622792317219622BF211CC
:1025FC00F21F0B2B2000CC0A470A4C06031D082B9C
:10260C004608CC008F3162279231721F192B2000A3
:10261C00CC034608FF3E4C06031D162B4708CC0086
:10262C008F31622792310830200045060319242B84
:10263C004C08C800C901CA01CB01382B4C08F60064
:10264C000330F7018631FA269231E830FA009C31DA
:10265C00292492317908CB007808CA007708C90080
:10266C007608C8004B08C0004A08BF004908BE00E5
:10267C0048088F319C2792318F3146279231EC00DC
:10268C004508FD006C089F317A279231EC07C43065
:10269C008D31B525923120009F31B8279231A60A91
:1026AC008E31C82692319F31DA2792315F2B721905
:1026BC00FB2AF21D5D2BFB2AF21520004C080800AA
:1026CC0080308D31B5259331F1189A2B5F309E31C6
:1026DC002B26933122005F082000AA00AB012200B8
:1026EC00600892269331F11B8D2B01307E27C03070
:1026FC008D31B52593312000D301D401210063081D
:10270C00013999249331013044279331B32B013093
:10271C001824C0308D31B52593310030C2230130DF
:10272C008931B7219331B32B210026082000D40026
:10273C00210025082000D300D501D601D70178242B
:10274C00933101301824C0308D31B52593310030D0
:10275C00C2230130893172219331721CF11F0800A0
:10276C002630AA009A30AB009D31FB259331003AFC
:10277C00031908008D31CE2D2000E3000930F6003E
:10278C00ED309E31ED2693312000DF00E001600832
:10279C00003A03190D2C172CD3016308D400210027
:1027AC0063080139992C6308442F6308C5004C3029
:1027BC008831E0286308D3004C309B2F6308D3008A
:1027CC004C309B31E42B6308D3004C309C31802C73
:1027DC006308D3004C309F31E42F0B30FD000030E8
:1027EC009F317A279331E100E20122005E0820003C
:1027FC00D40022005D082000D3006208D6006108D6
:10280C00D5006308D700782C6308883154285F08FA
:10281C008400093004020318080090310435003E8E
:10282C0082000800C500F11A202CB1278F31132724
:10283C009331712C2100E31B2C2C04302000C90097
:10284C007830C8006830C700C030342C023020000B
:10285C00C9003C30C8003430C7006030C6002100CD
:10286C0068082000A400210069082000A5002100B0
:10287C006A082000A600A7014908AB004808AA0076
:10288C004708A9004608A8009D31BC2593312508AE
:10289C00CB002408CA000A30F600F7014A08053EAE
:1028AC00F80000304B3DF900592593317708200092
:1028BC00A1007608A0000A30A200A30122279331C0
:1028CC002108CB002008CA00BD004B08D327C83014
:1028DC008F3146279331EC000230AA004508AB003B
:1028EC006C087E2D5408CC005308CB00CD01CD0ACA
:1028FC005508C83E9F3131279331EC000330540208
:10290C00E9300319530203188F2C55085604031D84
:10291C00912CEC03EC035508EC07AA01AA0A570802
:10292C00AB006C087E2D2000D9005935653E860021
:10293C0001308700403F2100A300413FA4008130BB
:10294C002306813003192406031DBD2C0230200000
:10295C005906031DB82C2D302100C800C9000230C7
:10296C002000292DB1278F3113279331292DA41F36
:10297C00C72C2D30C800A309A409A30A0319A40A63
:10298C00C92C2B30C8000F3023052000A0002000DC
:10299C0087310B279331222793312008D50021084A
:1029AC00D6000430D636D50C890BD82C2100230E3A
:1029BC000F392000A0002100240EF0392000A004C3
:1029CC002100240E0F392000EC279331222793315C
:1029DC00550820072100A30020005608213D2100A6
:1029EC00A400023020005906031D1A2D0A30F600EF
:1029FC00F70121002408F9002308F800592576086E
:102A0C002000D5007708D600D701D8015808C0009F
:102A1C005708BF005608BE0055088F319C279331CC
:102A2C008F3146279331292D210024082000CC001A
:102A3C00210023082000CB00C930CD01CD0A9F31E5
:102A4C0031279331013EEC0053080319472D023016
:102A5C0059060319472D2030C5006C08C6000830F4
:102A6C00C700C8306727DF30F8009930F9005908E3
:102A7C00023EFA00C8308F31132793310830EC0036
:102A8C00502D5308031D502D0A30FD006C089F314A
:102A9C007A27EC076C08A4000830A5005408A6009F
:102AAC00C8308E31C82EFA01FB0176087704031961
:102ABC00792DFC01FC0AF71B662DF635F70D602D00
:102ACC00FA35FB0D77087902031D6E2D7608780216
:102ADC00031C752D7608F8027708F93B7A14F73643
:102AEC00F60CFC0B662D7B08F7007A08F600080044
:102AFC00AC002A08FD002C089F317A279331AC07D3
:102B0C002C08A4000830A5002B08A600C8308E3174
:102B1C00C82E5F309E312B269331BD302000AA0089
:102B2C009930AB009D31FB259331003A0319452EAA
:102B3C00B201372793317211F430C12793317219D6
:102B4C003C2EF211F21FB42D20000630B20A3206D0
:102B5C000319B2017211F430C1279331721BF72D96
:102B6C001E2E1730A501A6002200600847269331BF
:102B7C002200E0000A2E3B30A501A60022005F08CF
:102B8C00472693312200DF000A2E1F30A501A50A2B
:102B9C00A60022006208472693312200E2000A2E8A
:102BAC000C30A501A50AA600220063084726933124
:102BBC002200E3000A2E1630A5001B30A6002200CE
:102BCC006408472693312200E4000A2E0730A50141
:102BDC00A50AA60022006108472693312200E100D5
:102BEC000A2E20003208B000B1013108003A031956
:102BFC00002E0A2E300884000630040203180A2E18
:102C0C0090310435123E8200023020003206031946
:102C1C00172E033032060319172E04303206031D0B
:102C2C001B2E5F309131972193317211F430C127F3
:102C3C008F31692793310C308D31B52593315F304D
:102C4C00582632086B3E84009A300318013E8500EA
:102C5C0000088D31B52593310F308D31B525933169
:102C6C00392E7219A52DF21D372EA52D0C308D3154
:102C7C00B52593315F309E31A226F21208005F30E9
:102C8C00582E2000A700842693312000A800A80A03
:102C9C00FD0026087D02031C552E2508A8002808D7
:102CAC00893154292000AD0080308D31B525933108
:102CBC00E62793310108AA00AB012D0A8600010812
:102CCC00922688308D31B5259331E627443FAA00F2
:102CDC002D088600453FAB002D08033E86000108F9
:102CEC00883122209331C0308D31B52593312000AD
:102CFC002D08023E9F31B3279331F12FF700F600D8
:102D0C000F30F6057830F736F7057708F607F73603
:102D1C00F7367608770708002000AC00FD00C830B5
:102D2C00A92693313A302100CA0020002A08FD0060
:102D3C00CB30A9260530A4000830A5002B08A6002E
:102D4C00C8308E31C82EA500250A860087017D0863
:102D5C000F39303E8100250886007D0E0F39303E3C
:102D6C0081000800DE00A0000330A101A200A30135
:102D7C0022272108850020088400A230840799307E
:102D8C00853D003FDF00013FE000023FE100803065
:102D9C008D31B52593311930F8009A30F900C830CF
:102DAC00FA018F31132793318F31752793318E317F
:102DBC00C8269331C0308D31B525933120005E0883
:102DCC00E0279331CB27CA308F3113279331023E42
:102DDC008F31752793318E31C8269331721F0800BD
:102DEC00721337272000EA018F3162279331721951
:102DFC00202FF21180308D31B5259331CB27C8307F
:102E0C008F31132793318F31752793318E31C8262B
:102E1C00933101305F3E86008701413F8A00403F7D
:102E2C000A008F31692793311D2F7219FD2EF21D67
:102E3C001B2FFD2EF2150800A401A501201C2A2F22
:102E4C002208A4072308A53DA235A30DA136A00C8A
:102E5C0020082104031D242F2508A1002408A0000C
:102E6C00080001308D31B52593310F30F900053054
:102E7C00890B3E2FF90B3E2F000008002000D500D7
:102E8C0021006108F600F70128082000D400210079
:102E9C0027082000D3000530D335D40D890B522FD1
:102EAC005308F8005408F90059259331B8279F317D
:102EBC0031279331EC000730AA005508AB006C08A1
:102ECC007E2DCA00460803197A2FD9279331C603E1
:102EDC0046084A07C9008400850100088100682F54
:102EEC00D927933145088100470803190800762F2C
:102EFC00C50021005B082000C00021005A082000FA
:102F0C00BF00210059082000BE00210058082000F5
:102F1C008F319C2793318F3146279331EC00083049
:102F2C00AA004508AB006C087E2DD6009C315124BC
:102F3C0093313208D5003108D4005508CC00540820
:102F4C00C6279F3131279331EC000830AA00530873
:102F5C00AB006C087E2D7730F8009A30F900C83041
:102F6C00FA01080077082000CC007608CB00C830A6
:102F7C00CD01CD0A08002100B5000130B6000800D3
:102F8C00CB00C830CD01CD0A08000030F8009830D5
:102F9C00F90020005F08FA000800BE000A30BF01EB
:102FAC00C001C1000800C70347084A07C8008600D3
:102FBC0087010800313E2100C8002E30C9000800EE
:102FCC0020002D088600013087000800A1000A307F
:102FDC00A200A3010800AA001730F8009930F900EC
:102FEC002A08FA00C8308F31132793318F31752797
:102FFC008E31C82E00344634553445344C3420348C
:10300C0063346F346E347334743461346E347434AA
:10301C000034563453345334203463346F346E34A8
:10302C007334743461346E347434003474346F34E7
:10303C00743461346C3420347434723469347034C4
:10304C00003476346F346C347434613467346534E2
:10305C002034613464346A34753473347434003419
:10306C00733465347434743469346E346734733443
:10307C0020346234693474347334003474346534F9
:10308C006D3470342034733465346E3473346F346F
:10309C007234733400347334653472347634693476
:1030AC0063346534203463346E3474347234733462
:1030BC0000346D3469346E342034733470346534B8
:1030CC0065346434003473347734203476346534A6
:1030DC007234733469346F346E34003400346434B5
:1030EC00753461346C34203469346E346A34003491
:1030FC0073346B34693470342034743465346D3407
:10310C00703400346B3465347934203473346F3458
:10311C0075346E34643400347334653472347634FC
:10312C00203461346C34613472346D340034663460
:10313C0061347334743420347234653466347234CC
:10314C0065347334683400346D346834203472342C
:10315C0070346D3400346434613469346C347934D3
:10316C0020347434723469347034003469346E34FD
:10317C002F346F34753474342034743465346D34B6
:10318C007034003464347334333432343334313483
:10319C002034743465346D347034003400340034AD
:1031AC0000340034003400340034003465346E34A0
:1031BC00673469346E346534203468346F34753454
:1031CC0072347334003465346E34673469346E345D
:1031DC00653420346F3469346C34003467346534AE
:1031EC006134723462346F34783420346F3469341F
:1031FC006C3400346134693472342034663469348C
:10320C006C34743465347234003473347034613417
:10321C0072346B34203470346C34753467347334DA
:10322C0000340034733475346E346434613479345E
:10323C0000346D346F346E3464346134793400345A
:10324C0074347534653473346434613479340034D3
:10325C007734653464346E34653473346434613477
:10326C00793400347434683475347234733464349F
:10327C0061347934003466347234693464346134C2
:10328C007934003473346134743475347234643486
:10329C0061347934003400346A3461346E3400346F
:1032AC0066346534623400346D3461347234003405
:1032BC0061347034723400346D34613479340034D8
:1032CC006A3475346E3400346A3475346C340034BA
:1032DC0061347534673400347334653470340034BD
:1032EC006F346334743400346E346F347634003499
:1032FC006434653463340034FF3400340134FF34F7
:10330C0002340334FF3404340534FF3406340734F8
:10331C00FF346834FF346C34FF345634FF346B3470
:10332C006D34FF347334FF34DF34FF343C34FF34FA
:10333C006D347334FF34FF340134EA341234023404
:10334C005634113403346E341134043405340834D7
:10335C0005343F3411340834DE3412340634F2347C
:10336C0004340734A9340B34093466340B34743404
:10337C0069346D346534203463346F347234723490
:10338C0065346334743469346F346E343F340034D0
:10339C00313437343A3435343434203431343534F0
:1033AC002E34303436342E343234303432343234E9
:1033BC00003400342D342D342D3400346F347534F6
:1033CC007434003469346E34003465346E346734CC
:1033DC0000347734613469347434203466346F3497
:1033EC007234203473347434613472347434003471
:1033FC00663413347D341B34D334073479341B34A2
:10340C0075341B348F341534E9341C3400341F34B8
:10341C003B345A3478349734B534D434F3341134CF
:10342C0030344E346D34533445345234563449347C
:10343C004334453420344D3445344E345534003403
:10344C0030342D34313430343034203474346934E5
:10345C006D3469346E34673400340034633475343D
:10346C0072340034643461347934003441340034BF
:10347C0042340034003420346F3466346634003403
:10348C00203420346F346E3400342D342D342D34EC
:10349C002D342D3427342D342D340034573441340D
:1034AC0052344E3449344E34473400347434693415
:1034BC006D3465346F34753474340034723465345F
:1034CC007334653474343F34003481348434893437
:1034DC008C348F34C0347434723469347034203486
:0C34EC0000342D342D342D342D340034E8
:1036EA000430DF0040308B2B0330DF0034308B2B6B
:1036FA002100E318842B2000E301E30A872B023020
:10370A002000E3006308DF004C308B2BE20080309E
:10371A008D31B5259B317130F8009A30F900C830E7
:10372A00FA018F3113279B31EC003330F8009A30BD
:10373A00F9005F08FA006C08C83E8F3113279B31E5
:10374A00EC07B8278E31C8269B31D301D30A620809
:10375A0097319B279B31C0308D31B5259B31CA2BC0
:10376A00D3016208E4239B31D301D30A620880247F
:10377A009B31DF2BC50162088831E0209B31D301E0
:10378A00D30A6208E4279B31DF2B0230F600EE30C1
:10379A00ED269B312000E000E1016108003A03199F
:1037AA00D72BDF2B6008003A0319B52B013A03190E
:1037BA00BF2BDF2B6208AD0000308431792CDA0090
:1037CA0051249B313208D9003108D8009F279B31F8
:1037DA0000305502053003195402031CFB2B00303C
:1037EA0059020330031958020318022C9731B127E2
:1037FA009B318F3113279B31212C5808A40059087B
:10380A00A500A601A7019F279B315408F600550879
:10381A00F7006430C5279B3129249B3185279B31CA
:10382A00BC252508D7002408D6005708CC0056081E
:10383A009731C6279B313127EC000330AA00530881
:10384A00AB006C0895317E2D2000A001A101A201D8
:10385A00A301761C392C7A082000A0077B08A13D19
:10386A007C08A23D7D08A33DFA35FB0DFC0DFD0D3C
:10387A00F936F80CF70CF60C790878047704760414
:10388A00031D2E2C20002308F9002208F800210825
:10389A00F7002008F6000800B5008600013087000E
:1038AA00403FA000413F9731EC279B3197312227B7
:1038BA009B312108B2002008B10021008631EA2696
:1038CA009B31A601A7013508D5279B31403FB3009C
:1038DA00413FB4003308F6003408F7000A30C52720
:1038EA009B3129249B3185279B31BC252408B107AC
:1038FA002508B23D0800DE00DC01DD01BF279B314F
:10390A00D400413FD500423FD600433FD70056047A
:10391A00550454040319CF2C5E0886008E279B3168
:10392A0029247908DB007808DA007708D9007608B4
:10393A00D80021008631EA269B31A601A7015E083C
:10394A00D5279B318E279B3129249B3185279B3193
:10395A00BC259B312408D8072508D93D2608DA3D1D
:10396A002708DB3D5E08BF279B31A400413FA50025
:10397A00423FA600433FA7005B08AB005A08AA00D3
:10398A005908A9005808A800BC259B312508DD0064
:10399A002408DC005C085D04031DDA2C9731B1278A
:1039AA009B318F3113279B31E12C5D08CC005C08D9
:1039BA009731C6279B313127EC00AA01AA0A53087E
:1039CA00AB006C0895317E2D0530F6006E30ED2681
:1039DA0080308D31B5259B318F3196279B316E080A
:1039EA00013EFA00C8308F3113279B318F3175277A
:1039FA009B318E31C8269B316E08031D0D2DAA30CE
:103A0A00CB008F259B313208C6003108C5001A2D1C
:103A1A006E08090709070907A23ECB008600013094
:103A2A008700403FC500413FC6004508BD00460823
:103A3A009731D3279B31C8308F3146279B31EC0011
:103A4A006E0803192A2D08302B2D0530C700FD00FA
:103A5A006C087A27EC076C08C83E8600203087017C
:103A6A008100C030EC0A8D31B5259B312000B82782
:103A7A00A60A8E31C8269B314B08033E86000130C8
:103A8A008700403FC800413FC900423FCA00C830D2
:103A9A008D31B5259B3120004908AA004A08AB00A0
:103AAA004808883122209B31DF279B31FB259B3137
:103ABA00003A031908005F302B269B3120006E085C
:103ACA000319692D6E0B722D2300A001A101A20119
:103ADA00A301A401A501A601A70120004B088600A5
:103AEA00013087000030C03FC13F4B08033E8600CB
:103AFA0022006208810020004B08043E8600220052
:103B0A006308810020004B08053E860022006408F5
:103B1A00810008002100631DA22D20000130A701A9
:103B2A00A6007730A5000430A401A03E860001302B
:103B3A00A9279B31BC259B31D02F20000730A70134
:103B4A00A601A5000830A400230023082000AB002A
:103B5A00230022082000AA00230021082000A9002F
:103B6A00230020082000A800BC259B31D02FAC01DF
:103B7A00AD01AE01AF012708260425042404031968
:103B8A00F22DB001B00AA71BCF2DA435A50DA60DA5
:103B9A00A70DC72DAC35AD0DAE0DAF0D27082B0205
:103BAA00031DE12D26082A02031DE12D25082902FD
:103BBA00031DE12D24082802031CEC2D2408A80269
:103BCA002508A93B2608AA3B2708AB3B2C14A73695
:103BDA00A60CA50CA40CB00BCF2D2F08A7002E08FD
:103BEA00A6002D08A5002C08A4000800AC01F21EAE
:103BFA00292EDA27973137279B3180308D31B52529
:103C0A009B3120002B08F9002A08F800C830FA0175
:103C1A008F3113279B318F316F279B318E31C82605
:103C2A009B3172112100B5010230B6001F2EF21F1E
:103C3A00721B212E721D1C2E721F262E2000AC0113
:103C4A00AC0A8F316927F2152C080800FB00E3261D
:103C5A009B31D030D1269B310030D1269B310530A3
:103C6A00890B352E0032E3269B31D130D1269B3188
:103C7A0000308F269B31FA007B08CC279B318F2698
:103C8A009B3181007B0ACC279B318F269B31810097
:103C9A007B08023ECC279B318F269B3181007B0813
:103CAA00033ECC279B318F269B3181007B08043E43
:103CBA00CC279B318F269B3181007B08053E8600ED
:103CCA000130870080308F268100923147229B3154
:103CDA00FA1F08007B0886000130870054308100F3
:103CEA007B0A8600173081007B08023E860004307A
:103CFA0081007B08033E8600153081007B08043E64
:103D0A008600063081007B08053E8600223081004D
:103D1A007B08A22EF7000830F800F901F9350727C9
:103D2A009B31F904F80B932E7708192700320032D9
:103D3A00000020008D1079080800F900E3269B3165
:103D4A00D030D1269B310030D1269B310030D1268C
:103D5A009B317908B3279B31D1269B31790AB32746
:103D6A009B31D1269B317908023EB3279B31D1265C
:103D7A009B317908033EB3279B31D1269B317908C1
:103D8A00043EB3279B31D1269B317908053EB327E0
:103D9A009B31D1269231472AF7008030F800770804
:103DAA00780519279B31F8367808031DD42E072782
:103DBA0000320032000020008D10080020008D140F
:103DCA00923152229B310530890BE92E00320800CC
:103DDA00F700721FF92E7213860087017708840094
:103DEA0085010008013E8100770886008701760870
:103DFA00010277088600031C052F810177088600D7
:103E0A000108080020008D100530890B0A2F0032A6
:103E1A0021000D1420008D140330890B122F00008D
:103E2A0020000D0801390800F60020008D1021003D
:103E3A000D107608031D242F20000D10262F2000B8
:103E4A000D140530890B272F003220008D14033002
:103E5A00890B2D2F00000800D2004B08BD004C082A
:103E6A009731D3279B3152088F3146279B31D10096
:103E7A004D08013ECE00003003180130CF00803AD1
:103E8A00803C031D4A2F4E08510203185B2F303025
:103E9A002000C5005108C6004D08013EC70052085F
:103EAA00973167279B314D08013ED1002000510808
:103EBA00D0006D2F50085207CE00860087015008A7
:103ECA005207CF00FF3E8400850100088100D0031D
:103EDA00CD034D0F5F2F50085207CE0086002E30BB
:103EEA00870181005108013E0800A4008230F800D1
:103EFA009930F9007D08FA002408C83E8F31132F43
:103F0A007908AB007808AA007708A9007608A80003
:103F1A000800403FD400413FD5005408F600550838
:103F2A00F7004630F801F901FD01FC01FB005030B1
:103F3A00FA0008005A08063E860001308700403F12
:103F4A00D400413FD50008008700403FA800413F08
:103F5A00A900423FAA00433FAB0008008600013097
:103F6A008700010808006C08A4000830A500C830C2
:103F7A00A6010800083E860001308700403F08007D
:103F8A00F801F901FA00FB01FC01FD0108008600B5
:103F9A000130870000342508B2002408B100080067
:103FAA00023E8600013087000800F21372136F1375
:103FBA00F21208006430AA009A30AB000800D4005C
:103FCA000A30F600F7015408063E860001308700E1
:103FDA00403FF800413FF900953159259B3197310F
:103FEA00B8279B313127EC000630AA005308AB00F2
:063FFA006C0895317E2DDC
:020000040001F9
:04000E00C23FFF1ED0
:10E00000EE00C80004000000E20035006C003E0095
:10E010006E00B3000000EA001300050000000000DD
:10E02000460001009800350066002D0091000E00AA
:10E0300079004E0000000000370001009C00250020
:10E040001400630011000E0027004C0000000000C7
:10E0500018000000F8002100280049002F000100EE
:10E060005900060000000000170017001500060008
:10E0700022008700030000000000000000000000F4
:10E0800097007B000500000089001D00E1000000F2
:10E0900000000000020015000A001300110021001A
:10E0A00000000000B8001500280007001100210042
:10E0B000000000001F0028000A00210003002000CB
:10E0C000000000008A0033000A0007000100210060
:10E0D0000000FF0000000000000000000000000041
:10E0E00028008A0009009500F00001003C00FC00B7
:10E0F000FF00FF00FF00FF00FF00FF00FF00FF0028
:10E10000FF00FF00FF00FF00FF00FF00FF00FF0017
:10E1100005000600050000000000000001000200EC
:10E120000A0015001500000010000500070001009E
:10E1300007000500070000000000010002000000C9
:10E14000000000000800100000000A001500150083
:10E150000C00140014000100020005000100010081
:10E16000000000000000000000001F0015001F005C
:10E17000030005000500000000000100020000008F
:10E180000000000008001000000014001C00040043
:00000001FF
