:100000000C94CF010C94EC010C94EC010C94E915C8
:100010000C94EC010C94EC010C94EC010C94EC01AC
:100020000C94EC010C94EC010C94EC010C949A13DC
:100030000C94EC010C94EC010C94B2150C94EC01B2
:100040000C94EC010C94EC010C94EC010C94EC017C
:100050000C94EC010C9404130C94EC010C94EC0142
:100060000C94EC010C94EC01006A616E0066656210
:10007000006D617200617072006D6179006A756E69
:10008000006A756C0061756700736570006F63745A
:10009000006E6F7600646563002D2D2D2D2D272DAC
:1000A0002D0074696D6520636F7272656374696F8A
:1000B0006E3F0074696D656F7574007761697420B7
:1000C000666F72207374617274000020302D3130BD
:1000D000300020302D3630002036302D31303000C9
:1000E0002038302D3132300074696D696E67000040
:1000F0006375720064617900410042007472697036
:10010000200000206F66660020206F6E0000706186
:1001100069722F70617220696E6A00736B6970205A
:1001200074656D70006B657920736F756E64007314
:1001300065727620616C61726D0064756D6D790019
:100140006D682072706D006461696C7920747269E9
:100150007000696E2F6F75742074656D7000647324
:10016000333233312074656D7000000000000000F0
:1001700000002D2D2D006F757400696E00656E678F
:10018000006E6F2073656E736F727320666F756E8D
:10019000640031373A35392033302E30362E323044
:1001A00032320093CA04001C1A6C3E6EB300EA138C
:1001B0000500006E00570D0B17EC042C1B0000DC33
:1001C00002D609693FD9208EB200001B0060184199
:1001D000514501090700001517300622CA02000028
:1001E000000000FEE1050068A5F0000000A7160A67
:1001F00013112100005D17280711210000C4290AEE
:1002000021032000002F350A07012100FF00000014
:10021000000000288A0995F0013CFCFFFFFFFFFF6A
:10022000FFFFFFFFFFFFFFFFFFFFFF0506050000C9
:100230000001020A15150010050701070507000057
:1002400001020000000810000A15150C1414010228
:1002500005010100000000001F151F030505000037
:100260000102000000081000141C0400000000DE61
:10027000ADC0DE00656E67696E6520686F7572736C
:1002800000656E67696E65206F696C0067656172F5
:10029000626F78206F696C006169722066696C74A6
:1002A000657200737061726B20706C7567730057B4
:1002B00041524E494E470072657365743F000046D7
:1002C00055454C20636F6E7374616E7400565353C2
:1002D00020636F6E7374616E7400746F74616C2050
:1002E0007472697000766F6C746167652061646A0E
:1002F0007573740073657474696E677320626974D2
:10030000730074656D702073656E736F7273007324
:1003100065727669636520636E747273006D696ED1
:100320002073706565640073772076657273696FFA
:100330006E00434F4E464947204D454E5500FF0045
:1003400001FF0203FF0405FF0607FF68FF6CFF566D
:10035000FF6B6DFF73FFDFFF3CFF6D73FFFF2D2D04
:100360002D2D000073756E646179006D6F6E646190
:10037000790074756573646179007765646E65737F
:10038000646179007468757273646179006672697A
:10039000646179007361747572646179000011247D
:1003A0001FBECFEFD8E0DEBFCDBF11E0A0E0B1E0CF
:1003B000E4E2F9E302C005900D92A039B107D9F744
:1003C00022E0A0E9B1E001C01D92A038B207E1F738
:1003D0000E947E170C94901C0C940000FC019081EC
:1003E00080915102882349F09617C1F09F5F20E069
:1003F00032E03093500220934F0280914E028823C6
:1004000059F0992311F06FEF690F80E092E090931B
:10041000500280934F02962F9083089590E0E7CF8B
:10042000CF93DF93442361F0FB0124916F5F7F4FF3
:10043000FB013197E4912E13F9CF4150B9F7422FC8
:100440009B01A22FA61BE901F9015491541304C08A
:100450008A2FDF91CF9108952F5F3F4FFE01C49106
:10046000A80FB92FB11DCC93ECCF241B411103C0B1
:1004700021110DC008954150FC01E40FF11D3081A0
:10048000E22FE40FE80FF92FF11D3083EFCF215059
:10049000FC01E20FF11D6083EBCF8F929F92AF9230
:1004A000BF92CF92DF92EF92FF920F931F93CF9361
:1004B000DF938C016A017B01CB01BA01E801822E36
:1004C000912CB12CA12CA50194010E94471CCA01BA
:1004D000B90121966115710581059105A1F7188271
:1004E000C701B601A50194010E94471C69017A0168
:1004F000605D6A93C114D104E104F10489F780E0DE
:100500008F5FF801E80FF11D90819111F9CFDF9114
:10051000CF911F910F91FF90EF90DF90CF90BF9000
:10052000AF909F908F900895FC01962F9F70905DE3
:10053000918362956F70605D60830895282F2F709E
:100540008695982F9877822F890F96959695890F83
:10055000089581E48093DA0188E38093D901809142
:100560005D0290915E02880F991F6DE070E00E941D
:10057000331C7093D8016093D7018091620287FF8A
:100580000CC082E88093DA018CE18093D9017695E2
:1005900067957093D8016093D70184E68093D60164
:1005A00080916302982F9F7090934D0282958F7077
:1005B0008093050208951F93CF93DF93162F0E9417
:1005C0009E028150E82FF0E0E65AFE4FC081D0E055
:1005D000893008F0D395812F0E949E028C0F9D2FA9
:1005E000911DDF91CF911F9108958091620282FF4A
:1005F00010C06091DF017091E0018091E101909164
:10060000E20120E037E741E050E00E94471CC901C9
:1006100008956091DB017091DC018091DD01909182
:10062000DE0128E037E040E050E0EFCFFC018091B0
:100630001F02882329F010921F0280818F5F808320
:100640008081861708F0108280810895FC019081D6
:1006500080915102882349F09417E1F09F5F20E0D8
:1006600032E03093500220934F0280911F0281119B
:1006700004C080914E02882359F0961711F04FEF75
:10068000490F80E092E09093500280934F02942FA4
:1006900090830895962FE3CF0F931F93CF93DF930B
:1006A000EC01142FAB0170E060E02AE00E944D02E3
:1006B000181748F001E0010F202F482F60E3CE010A
:1006C0000E943502802F282F211B982FFE01E90F51
:1006D000F11D921308C09EE290838F5FDF91CF914E
:1006E0001F910F910895DF0111973C913083915034
:1006F000EDCFFC01828193810196938382832091C7
:100700005D0230915E022817390738F41382128295
:10071000808191810196918380830895FC01848179
:1007200081508483811110C08091DA018483858196
:100730008F5F858390915F02891730F015828681E3
:10074000978101969783868308958932910560F495
:100750008091AC01882321F08091AC01823029F591
:1007600082E08093AC0108959C01245A310921351F
:10077000310550F48091AC01882321F08091AC01C7
:10078000813099F481E0EDCF80579140813591051A
:1007900050F48091AC01882321F08091AC0183302A
:1007A00021F483E0DECF1092AC01089590931902FA
:1007B0008093180280911802909119028138910556
:1007C00018F0109217020895809117028A3021F4D0
:1007D00081E080931B020895809117028F5F8093C0
:1007E000170208958093BB0084E88093BC00809139
:1007F000BC0087FFFCCF9091B900987F81E09832D0
:1008000009F480E0089581110AC084EC8093BC0053
:100810008091BC0087FFFCCF8091BB00089584E8E5
:10082000F5CF84E98093BC008091BC0084FDFCCFAF
:10083000089584EA8093BC008091BC0087FFFCCFC0
:100840000895CF93DF930E94190480ED0E94F20374
:1008500080E00E94F20380E00E94F203C8E7D2E049
:1008600088810E94F20389810E94F2038A810E949A
:10087000F2038B810E94F2038C810E94F2038D812E
:100880000E94F203DF91CF910C941104CF930E9448
:10089000190480ED0E94F20380E00E94F2030E949E
:1008A000190481ED0E94F20380E00E940304C82F26
:1008B00080E00E9403048093780280E00E94030499
:1008C0008093790280E00E94030480937A0280E0A2
:1008D0000E94030480937B0280E00E9403048093C3
:1008E0007C0281E00E94030480937D020E94110437
:1008F000C7FF15C089E58093780287E1809379026C
:1009000085E080937A0280E380937B0286E0809387
:100910007C0282E280937D02CF910C942104CF91DE
:100920000895CF93DF93D82FC62F0E9419048EE429
:100930000E94F2038C2F8C608D2B0E94F2030E9488
:1009400011040E9419048EE40E94F2038C2F886027
:100950008D2B0E94F203DF91CF910C941104CF9361
:10096000C82F61E0807F0E94910461E08C2F829506
:10097000807F0E94910483ED90E00197F1F700C021
:100980000000CF910895EF92FF920F931F93CF93A2
:10099000DF93F62E10E0413029F0162F181B43305C
:1009A00009F41695082F010FC0E0D0E0D11710F020
:1009B000D01768F080E20E94AF04DF5FFD12F6CF2F
:1009C000DF91CF911F910F91FF90EF900895EE244A
:1009D000E394EC0EEC2FF0E0E859FD4F80810E948B
:1009E000AF04CE2DEACFCF93C62F682F88E692E0D2
:1009F0000E9494028AE380936A026C2F8BE692E055
:100A00000E94940241E068E085E0CF910C94C30419
:100A10000F931F93CF93FC01608571858285938529
:100A20002EE130E040E050E00E94471CC9016CE339
:100A300070E00E94331C8C01AB0170E060E02AE0A2
:100A400088E692E00E944D02C82FE82FF0E0E859B6
:100A5000FD4F8AE38083C8016AE070E00E94331C86
:100A60006295607F680F81E08C0F90E088599D4F00
:100A70000E94940283E08C0F8093670241E068E05B
:100A8000CF911F910F910C94C3040F931F93CF9399
:100A9000DF93082F162FC82FCF70EC2FF0E0EE0F4A
:100AA000FF1FE65EFE4F8081918190937F028093CD
:100AB0007E022EEF2C0F81389807A9F5223058F5C9
:100AC0008DE2809368028093690282E080936702DE
:100AD000D091670207FF77C028E04D2F60E288E6DB
:100AE00092E00E94350242E04C0F61E771E088E637
:100AF00092E00E94100288E080936702412F68E034
:100B0000809167020E94C30480916702DF91CF91B8
:100B10001F910F91089540E06EE573E088E692E042
:100B20000E941002D3CF97FF40C03DE2309368028D
:100B300091958195910990937F0280937E02D1E0F7
:100B400080917E0290917F02AC014F7055273AE070
:100B5000349FB001359F700D112444E07695679560
:100B60004A95E1F754E0969587955A95E1F7389FB5
:100B7000A001399F500D1124640F751F70937F02DF
:100B800060937E022230C0F4CB016AE070E00E94E4
:100B9000331CAB0170E060E08D2F90E02AE08859B3
:100BA0009D4F0E944D028D0F91CFD0E0C23041F297
:100BB0008BE280936802C3CF41E089E692E00E9415
:100BC0004C038F5F83CFC33009F498CF8D2F90E013
:100BD0004AE06EE373E088599D4F0E9410028D0F2A
:100BE0008BCFCF93DF93C82FD42F90E0462F6EE3A7
:100BF00073E088599D4F0E9410024D2F68E08C0FC2
:100C0000DF91CF910C94C3040F931F93CF93DF9385
:100C1000EC010E811F8105301105E0F02A813B8136
:100C2000AAE0B0E00E946F1C20915D0230915E024C
:100C300050E040E00E94471CE881F9816AE06E9F25
:100C4000C0016F9F900D1124AC01420F531F433020
:100C5000510598F440E06EE573E088E692E00E946A
:100C600010028093670241E063E080916702DF91A8
:100C7000CF911F910F910C94F1059801A4E6B0E07B
:100C80000E946F1C9A0150E040E00E94471CB9018D
:100C900041E088E692E00E944C03E3CF0F931F935C
:100CA000CF93DF938C01EB0141E0BC01CE01885969
:100CB0009D4F0E944C03093E134088F4209779F021
:100CC00080936702809167028C0F8093670241E0F6
:100CD00061E0DF91CF911F910F910C94F10582504B
:100CE000EFCF8091560281110FC040E06EE573E0B6
:100CF00088E692E00E9410028093670242E062E080
:100D0000809167020C94F1058091620287FD22C0F8
:100D100060E873EC89EC91E020915202309153022B
:100D200040915402509155020E94471CC9010596FA
:100D30006AE070E00E94331C8AE0869FA001879FD2
:100D4000500D112470E060E02AE088E692E00E94F5
:100D50004D02D2CF60EC71EE84EE90E0DDCFCF9308
:100D6000C82F809118029091190225E0880F991FD1
:100D70002A95E1F76091600270E00E94331C41E027
:100D800088E692E00E944C03809367024C2F67E054
:100D9000CF910C94F105CF93C62FFC0186819781EA
:100DA0006AE070E00E94331C41E088E692E00E9415
:100DB0004C03809367024C2F66E0CF910C94F105B1
:100DC0001F93CF93DF93EC01162F2A813B81AAE07A
:100DD000B0E00E946F1C20915D0230915E0250E0F5
:100DE00040E00E94471C88819981EAE0E89FB001B9
:100DF000E99F700D1124620F731F41E088E692E0B5
:100E00000E944C0380936702412F68E0DF91CF91ED
:100E10001F910C94F1058F929F92AF92BF92CF9247
:100E2000DF92EF92FF921F93CF93DF93EC01162F87
:100E300088849984AA84BB8481149104A104B10498
:100E400009F12A813B81A0E5B6E40E946F1C209144
:100E50005D0230915E0250E040E00E94471C690153
:100E60007A0128813981A0E5B6E40E946F1C6C0DDF
:100E70007D1D8E1D9F1DA50194010E94471CB90177
:100E8000232BD1F440E06EE573E088E692E00E9407
:100E9000100280936702412F61E080916702DF9129
:100EA000CF911F91FF90EF90DF90CF90BF90AF90C8
:100EB0009F908F900C94F10541E088E692E00E94AB
:100EC0004C03E7CF69E08DE492E00E94160389307D
:100ED00008F055C0E82FF0E0E059F84F0C94691C79
:100EE00079077F07820786078B078F079407990783
:100EF000A8078091620261E081700C94450581E051
:100F00000C94AF068AE392E00C94080561E08AE352
:100F100092E00C94E0068AE392E00C94040661E00F
:100F20008AE392E00C940B0761E08AE392E00C9470
:100F3000CB064BE06EE373E088E692E00E9410027D
:100F4000682F70E080914B0290914C020C944E06F9
:100F50008091200290912102880F991F880F991F7C
:100F60006AE070E00E94331C42E088E692E00E9452
:100F70004C038093670241E06CE00C94F105089506
:100F8000CF93DF93D62FC42F9FEF980F9E3F70F023
:100F900040E069E970E088E692E00E94100241E0DA
:100FA00068E088E0DF91CF910C94C304682F88E655
:100FB00092E00E9494028D2F0E949E02482F68E6C4
:100FC00070E08AE692E00E94100287E280936D0250
:100FD0006C2F8EE692E00E949402E1CFCF93C82F4F
:100FE00060E0807F0E94910460E08C2F8295807F7A
:100FF0000E94910483ED90E00197F1F700C000009A
:10100000CF910895CF93DF9380E80E94EE07C8E761
:10101000D2E0688189810E94F30488E80E94EE078B
:101020004D816C818B810E94C00780EC0E94EE078D
:101030004A8163E673E088E692E00E94100241E094
:1010400060E1DF91CF910C94C30480EC0E94EE0725
:1010500040E062E971E088E692E00E94100241E01F
:1010600060E10C94C30446EE6CE880E692E00E94D6
:10107000260384EC0E94EE0782E00C94AF069F9258
:10108000AF92BF92CF92DF92EF92FF920F931F9396
:10109000CF93DF931F92CDB7DEB70091610210911D
:1010A0006202198280E092E09093500280934F0296
:1010B0008FE0E82EF12CCC24C394D12CA12C22E07B
:1010C000B22E80914F0290915002892BB9F48CE09E
:1010D0000E94EE0781E080931B021093620200934E
:1010E00061020F90DF91CF911F910F91FF90EF90D0
:1010F000DF90CF90BF90AF909F90089510921B0209
:101100006FE0CE0101960E94EE0180911F028823BC
:1011100091F089819701281B3109C901960102C00C
:10112000220F331F8A95E2F7C90102271927B092CF
:101130005002A0924F028CE00E94EE07A80170E0DE
:1011400060E022E088E692E00E944D0220E1482F14
:1011500060E388E692E00E943502E981F0E0E85918
:10116000FD4F908080EC0E94EE0741E060E180E15D
:101170000E94C30440E150E060E270E088E692E043
:101180000E94891C49814F5F6DE071E088E692E022
:101190000E94100280936702882341F041ED490DBF
:1011A00062E071E084E792E00E94100280E80E9411
:1011B000EE0741E060E180E10E94C3048981805430
:1011C0000E94EE078FE00E94EE07109251021092EB
:1011D0001F0210921E0210921D0210924E021092D7
:1011E0001C0280911B0281116CCF80914F02909163
:1011F0005002892BB1F765CF5F926F927F928F92E9
:101200009F92AF92BF92CF92DF92EF92FF920F9395
:101210001F93CF93DF931F92CDB7DEB74B015C01D5
:1012200069017A012AE0BA01A60188E692E00E94EB
:101230004D02082FA601B7018C149D04AE04BF0413
:1012400010F4A401B5012AE088E692E00E944D0264
:10125000202F482F60E388E692E00E94350280E16B
:1012600090E0801B91099695879510EC180F1982D4
:1012700080E092E09093500280934F0255245A945C
:10128000500EA12C32E0B32E40E3742E80914F0219
:1012900090915002892B19F58CE00E94EE0781E0B5
:1012A00080931B0208E612E020E030E0A901D8019B
:1012B000ED918D01E1117AC0CA01B9010F90DF9162
:1012C000CF911F910F91FF90EF90DF90CF90BF9043
:1012D000AF909F908F907F906F905F900895109245
:1012E0001B02652DCE0101960E94EE0180911F0226
:1012F000882301F1E981F0E0E859FD4F80818F5F9B
:101300008A3308F040C0808388E6882E82E0982ED9
:1013100020E030E0A901D4016D904D01611035C08D
:10132000C216D306E406F50608F47082B0925002A5
:10133000A0924F028CE00E94EE07812F0E94EE07E0
:1013400041E068E0802F0E94C3048981810F0E94E0
:10135000EE078FE00E94EE071092510210921F02DA
:1013600010921E0210921D0210924E0210921C0248
:1013700080911B0281118ACF80914F02909150027F
:10138000892BB1F783CF7082BFCFAAE0B0E00E9473
:101390007E1C462D4053550B9A01032E000C440B26
:1013A000550B260F371F481F591FB5CFAAE0B0E0D5
:1013B0000E947E1C4E2F4053550B9A01032E000CA9
:1013C000440B550B260F371F481F591F70CFCF9363
:1013D000DF93C7E5D2E0688179818A819B812FE321
:1013E00032E44FE050E00E94FC08688379838A83EE
:1013F0009B83DF91CF910895CF93DF93C7E5D2E030
:101400006E817F8190E080E02FE235E740E050E0A0
:101410000E94FC087F836E83DF91CF910895EF9245
:10142000FF920F931F93CF93DF931F92CDB7DEB739
:101430008983062FF42EE22E80E092E090935002F2
:1014400080934F0280914F0290915002892B61F45A
:1014500081E080931B0289810F90DF91CF911F91D2
:101460000F91FF90EF90089510921B024E2D6F2D5B
:10147000CE0101960E94260349810830C9F5242F28
:1014800030E0A8EEB3E00E946F1CAB01BC012AE083
:1014900088E692E00E944D02182F90E0402F6EE304
:1014A00073E088599D4F0E941002810F809367025C
:1014B00084EC0E94EE0742E068E0809167020E949F
:1014C000C3041092510210921F0210921E02109239
:1014D0001D0210924E0210921C0280911B0281117B
:1014E000B1CF80914F0290915002892BB1F7AACFD2
:1014F00050E070E060E0CBCFCF93DF9364E085ED08
:1015000091E00E94EE0180EC0E94EE074091D5012F
:1015100081E3840F809368028EE2809369024F5FBB
:1015200063E772E08AE692E00E94100241E060E127
:101530008E5F0E94C30480911F02882309F446C075
:101540001092510210921F0210921E0210921D0260
:1015500010924E0210921C0280E80E94EE07409109
:10156000D5014F5F63E772E088E692E00E941002C7
:1015700041E060E10E94C30480EC0E94EE0740E17C
:1015800050E060E270E088E692E00E94891C41E051
:1015900060E180E10E94C304C091D501C11119C06E
:1015A0006091E3017091E40190E080E02FEC37E07E
:1015B00040E050E00E94FC087093E4016093E30176
:1015C00080E092E09093500280934F02DF91CF91A0
:1015D0000895C150DD0B83E0CC0FDD1F8A95E1F744
:1015E000C552DE4F2CE340E068E08C850E940F0A74
:1015F0008C87E6CFCF93DF93C7E5D2E02AE041E0C6
:1016000061E08D850E940F0A8D87DF91CF9108954B
:10161000CF93DF93C7E5D2E02FEF41E06DE08885FF
:101620000E940F0A8887DF91CF91089581E00E9480
:10163000EE078FEB91E20197F1F700C000000895EB
:10164000CF93DF93EC011092510210921F0210927F
:101650001E0210921D0210924E0210921C020E9455
:10166000160B80E80E94EE0740E0BE0188E692E09B
:101670000E94100243E060E10E94C30480E092E017
:101680009093500280934F0280914F0290915002AC
:10169000892B61F080915102811108C080911F0255
:1016A000811104C080914E02882371F390911F0232
:1016B0001092510210921F0210921E0210921D02EF
:1016C00010924E0210921C0281E080931B02911135
:1016D00001C080E0DF91CF910895FF920F931F9397
:1016E000CF93DF9365E085E092E00E94160380E8E7
:1016F0000E94EE07409105024F5F63E772E088E6C3
:1017000092E00E94100241E060E10E94C3048091D7
:10171000050281116DC00E94F50205EE11E0AC01D9
:1017200070E060E02AE088E692E00E944D02C82F57
:101730008091050248E0811101C045E08C2F90E0C6
:101740006EE373E088599D4F0E9410028C0F91E068
:10175000980F90936702E82FF0E0E859FD4F80E280
:10176000808380EC0E94EE0742E068E0809167028F
:101770000E94C304F801C381D481F58088EC0E94E3
:10178000EE074F2D6D2F8C2F0E94C00780911D02F8
:10179000882341F187EB92E00E94200B882311F10E
:1017A0000E94460480910502823080F41092DB0191
:1017B0001092DC011092DD011092DE011092DF0127
:1017C0001092E0011092E1011092E201F801118201
:1017D000108280917B02838380917C02848380913C
:1017E0007D028583DF91CF911F910F91FF90089526
:1017F0008150990B23E0880F991F2A95E1F78C01FE
:101800000B511E4F85529E4FFC018285938587CFD9
:101810000F931F93CF93DF93EC01062F40E06CEF03
:1018200070E088E692E00E941002182F90E0402FAE
:101830006FEE70E088599D4F0E941002810F8093D7
:10184000670280E80E94EE0741E068E0809167024D
:101850000E94C30462E0CE010E94E00680EC0E9478
:10186000EE0762E080E192E00E9416038823B1F067
:101870008130E1F080911D02882359F087EB92E0DE
:101880000E94200B882329F08CE0FE0111928A959A
:10189000E9F7DF91CF911F910F910895CE010E943A
:1018A000040662E0CE010E940B07E4CFCE010E9445
:1018B000080562E0CE010E94CB06DCCF64E08EE238
:1018C00092E00C94080C63E082E292E00C94080C25
:1018D0008091620261E081FD62E08AE392E00C9413
:1018E000080C2F923F924F925F926F927F928F924D
:1018F0009F92AF92BF92CF92DF92EF92FF920F939F
:101900001F93CF93DF931F92CDB7DEB780E80E947D
:10191000EE078091120281111EC10E94460460915F
:101920007802809179020E94F3048091150281115E
:10193000E6C040915702509158026091590270914F
:101940005A022AE088E692E00E944D0280936702E4
:1019500042E068E00E94F10580EC0E94EE07809171
:10196000620261E081700E94450582E00E94AF063C
:10197000809114028111AFC080911502882309F46F
:10198000AAC080911D02882309F4A5C010925102BB
:1019900010921F0210921E0210921D0210924E020F
:1019A00010921C020E94160B198280E092E0909324
:1019B000500280934F020FEF80914F02909150029E
:1019C000892B09F0FFC00F3F09F485C080E80E9411
:1019D000EE0740E06BEB70E088E692E00E941002B8
:1019E00043E060E10E94C3041092C7011092C60157
:1019F0001092C5011092C4011092C3011092C2014D
:101A0000C0905D02D0905E02F12CE12C88E0089F2E
:101A100080011124065C1E4FF80160817181828172
:101A20009381A70196010E94471C3093C101209326
:101A3000C001F8016481758186819781A7019601B3
:101A40000E94471C3093BF012093BE0140E150E04B
:101A50006DE370E088E692E00E94891C80E096E0E9
:101A60009093500280934F021092D30102E0C12C58
:101A700084E0D82E11E094E0792E212C29EE322E2C
:101A800024EA422E25E3522EA12C3CE0B32E49E15C
:101A9000642E5BE5852E912C8091C20181110DC0D1
:101AA00080915102811109C080911F02811105C0EE
:101AB00080914E02882309F4C7C01092BD01109294
:101AC000510210921F0210921E0210921D021092DB
:101AD0004E0210921C020F90DF91CF911F910F9137
:101AE000FF90EF90DF90CF90BF90AF909F908F903E
:101AF0007F906F905F904F903F902F9008950E943D
:101B0000710680EC0E94EE070E946207A091B80166
:101B1000B091B9012091D90130E00E946F1C209151
:101B20005F0230E050E040E00E94471CCA01B9016A
:101B30002AE030E040E050E00E94471CB90141E05B
:101B400088E692E00E944C038093670242E064E0E2
:101B50000E94F1050DCF70E060E080910B02909142
:101B60000C020E944E060E94710680EC0E94EE0755
:101B70000E9462072091B8013091B90140910D0295
:101B800050910E02A091D701B091D8010E946F1C14
:101B90009A0150E040E00E94471CCA01B90100913F
:101BA0005F02202F30E050E040E00E94471CB90166
:101BB00041E088E692E00E944C038093670242E095
:101BC00063E0C6CF10921B0263E0CE0101960E9433
:101BD000EE0180911F02882329F01092500210928A
:101BE0004F0209811092510210921F0210921E02A0
:101BF00010921D0210924E0210921C0280E80E9468
:101C0000EE0740E068EE70E088E692E00E94100285
:101C1000182F49814F5F90E06AEC70E088599D4F22
:101C20000E941002810F8093670243E060E10E94EE
:101C3000C30480911B028111BFCE80914F0290910D
:101C40005002892BB1F7B8CE80914F02909150028B
:101C5000892BD1F080911402811116C08091D3019B
:101C600081111ACF6092D30180EC0E94EE0780911F
:101C70004F0290915002B4010E94331C862F41E024
:101C800060E10E94C30408CF80914F0290915002FE
:101C9000892B09F461C08091C60181110CC080912B
:101CA000BD01811108C0B0925002A0924F02109362
:101CB000BD010E94160B6091C4017091C50142E004
:101CC00088E692E00E944C03F82E90E049E06EE333
:101CD00073E088599D4F0E9410024F2D480F20E15C
:101CE00060E288E692E00E9435028091BC0140E00B
:101CF00050E0BA018823C9F0E090BA01F090BB012E
:101D000020915D0230915E0250E040E0C201B101DD
:101D10000E94471CCA01B901970150E040E00E94AF
:101D2000471CBA01A901662777272AE088E692E0D6
:101D30000E944D028093670290E041E06EE373E001
:101D400088599D4F0E94100280EC0E94EE0743E0EC
:101D500060E180E10E94C30480914F0290915002A3
:101D6000892B59F08091C601811107C07092D3016F
:101D70008091D3018111FCCF8FCE8091C601882341
:101D800039F08091C301811103C01093C30184CE47
:101D90001092BD0180914F0290915002892B71F4F5
:101DA00080EC0E94EE0740E063EB70E088E692E092
:101DB0000E94100243E060E10E94C30400931901F5
:101DC000D0925002C0924F0280914F0290915002E7
:101DD000892B61F080915102811108C080911F020E
:101DE000811104C080914E02882371F31093C201C7
:101DF00053CE8F929F92AF92BF92CF92DF92EF928B
:101E0000FF920F931F93CF93DF93CDB7DEB7639706
:101E10000FB6F894DEBF0FBECDBF0E94460480917E
:101E20001D02882309F400C182EA90E00E94200B81
:101E3000882309F4F9C01B8A86E0E2E2F1E0DE01C2
:101E40001D9601900D928A95E1F70E94160B80E095
:101E500092E09093500280934F027AE0E72EF12CAB
:101E6000C12CE2E0DE2E80914F0290915002892B2E
:101E7000D1F48CE00E94EE070E94210410921D0212
:101E800063960FB6F894DEBF0FBECDBFDF91CF9142
:101E90001F910F91FF90EF90DF90CF90BF90AF9088
:101EA0009F908F90089510921B0266E0CE0143969A
:101EB0000E94EE0180911F02882309F457C0BB885D
:101EC00082E0B81609F491C08B1508F479C0BB20E4
:101ED00009F4A0C091E0B91609F481C0F80180812D
:101EE0000E949E02891508F09BC08F5F90E0B701A9
:101EF0000E94331C6295607F860FF80180838EEF0D
:101F00008B0D833078F58CE0E8E2F1E0DE0111968C
:101F100001900D928A95E1F780917D020E949E02C8
:101F2000B82E80917C020E949E02882E80917B02B6
:101F30000E949E029B2D980F8B2D86958695980F5B
:101F4000FE01E80DF11D8081980F8B2D837021F427
:101F5000F2E0F81508F09150973008F063C09F5FE9
:101F600090937A02D0925002C0924F021092510286
:101F700010921F0210921E0210921D0210924E0229
:101F800010921C028CE00E94EE070E940208EB896E
:101F90008DE090E08C0F9D1F8E0F911DFC018081C4
:101FA0000E94EE078FE00E94EE0780911B028111D4
:101FB0005ACF80914F0290915002892BB1F753CFA5
:101FC000E4E0BE1601F1BE16B8F0F5E0BF1286CF10
:101FD00097E0992EAA24A3940AE712E07FCF6BE33F
:101FE000962EA12C08E712E079CF5FE1952EAA2466
:101FF000A3940BE712E072CF4CE0942EAA24A39492
:102000000CE712E06BCF20E2922E36E1A32E0DE713
:1020100012E064CF87E1982EA12C09E712E05ECF91
:102020008A2D64CF975098CF0E94020829CF579AE3
:102030005F988FE797E00197F1F700C0000057988D
:10204000E7E1F1E03197F1F700C0000089B1E7E680
:10205000F6E03197F1F700C000008095881F8827CF
:10206000881F0895579A5F9885E08A95F1F70000D8
:102070005798EAE1EA95F1F700C089B1EBEDF0E09D
:102080003197F1F700C00000881F8827881F089546
:10209000579A5F9880FF0CC08AE18A95F1F700C0DB
:1020A00057988FEE90E00197F1F700C00000089577
:1020B00087E191E00197F1F700C0000057989AE09E
:1020C0009A95F1F700C00895CF93DF93D82FC8E019
:1020D0008D2F81700E944810D695C150C9F7DF91AD
:1020E000CF910895AF92BF92CF92DF92EF92FF927D
:1020F0000F931F93CF93DF93CDB7DEB729970FB61A
:10210000F894DEBF0FBECDBF7C0185E50E94641050
:10211000870188E0E80EF11CF80181918F010E948F
:1021200064100E151F05C1F78EEB0E946410CE01DE
:1021300001967C015E019AE0A90EB11C670108E0DE
:1021400010E016950E943210811110680150C9F7F5
:10215000F60111936F01EA15FB0589F78A819981D0
:1021600089279827892790937F0280937E0239855B
:1021700029E080E02150A9F491E0381390E0892F04
:1021800029960FB6F894DEBF0FBECDBFDF91CF9179
:102190001F910F91FF90EF90DF90CF90BF90AF9085
:1021A0000895F70191917F01892798E04CE8869581
:1021B00008F484279A95D9F7DDCF0E941710882359
:1021C00039F08CEC0E94641084E40E94641081E079
:1021D00008956F927F928F929F92AF92BF92CF920B
:1021E000DF92EF92FF920F931F93CF93DF93CDB7C0
:1021F000DEB7A2970FB6F894DEBF0FBECDBF86E064
:10220000E4E3F1E0DE01599601900D928A95E1F741
:102210001F8E18A219A21AA240E150E060E270E0FD
:1022200088E692E00E94891C40E061E871E088E65F
:1022300092E00E941002CE0101965C01712C8C018B
:10224000662463941092CA018091C9018111B8C0BB
:102250000E941710811163C01092C8011092C90129
:102260000BC09D9191938150E1F798E0A90EB11CAC
:102270007394A3E07A12E6CF0E94DD101092D4018D
:1022800084E68093D30180E092E0909350028093A3
:102290004F0266246A94670C7E01BFE1EB0EF11CCD
:1022A000C12C22E0D22E80914F0290915002892BB6
:1022B00009F092C07E01AFE1EA0EF11C6E01B2E2BC
:1022C000CB0ED11CF70161917F01662371F0615043
:1022D000770B83E0660F771F8A95E1F760597F4F90
:1022E00048E050E0C8010E941B1C085F1F4FCE143D
:1022F000DF0441F7A2960FB6F894DEBF0FBECDBF44
:10230000DF91CF911F910F91FF90EF90DF90CF90D1
:10231000BF90AF909F908F907F906F90089580EFC7
:102320000E946410812CFF24F3943BECC32E31E017
:10233000D32EEE24E3940E943210982E0E94321085
:10234000B1E09B120BC08130F1F48091CA01882367
:10235000B9F1ABECB1E0F50189E085CFF6019081F0
:10236000981209C08091C801E81658F4892F8F216E
:1023700051F4912C8E2C8F2D80958923F60180832A
:1023800008C08E11F6CFD6018C918F298C93992499
:102390009394892D0E944810E394FF0C29F4FFEFD9
:1023A000CF1ADF0AFF24F39481E4E812C4CF8092AD
:1023B000C801811002C06092C9016092CA01C5CFF4
:1023C0001092C8011092C901EBECF1E088E0DF0146
:1023D0001D928A95E9F750CF10921B02772009F4DD
:1023E0008FC08091D401811125C08091D3018111CA
:1023F00021C081E08093D4015E01E9E1AE0EB11C01
:1024000048010E941710882361F0C4010E947210D5
:10241000882339F080917E0290917F02D5018D93BF
:102420009C93B2E0AB0EB11CE8E08E0E911CAE1492
:10243000BF0439F7662DCE0182960E94EE0180918D
:102440001F02EAA1882369F0D701AE0FB11D8C915C
:10245000833009F471C08F5F8C93D0925002C09288
:102460004F028091D4018823F1F0F0E0EE0FFF1FBE
:10247000E00FF11F808D918D9093210180932001B9
:1024800061E083E00E94450524E0482F60E288E691
:1024900092E00E9435028CE80E94EE0741E064E081
:1024A00084E00E94C3048AA198E0899FF00111246E
:1024B000E00FF11FA8E6B2E020E1215009F03EC094
:1024C000F701E80FF11D40814F5F61E771E084E79C
:1024D00092E00E9410028093670224E0482F60E29D
:1024E00084E792E00E9435021092510210921F027E
:1024F00010921E0210921D0210924E0210921C02A7
:1025000080EC0E94EE0741E060E180E10E94C3049C
:102510008091D40190911B029111C5CE20914F0260
:1025200030915002232B09F4BECE9091D30191112A
:10253000F1CF8111EFCFB7CE1C928FCF908120FFCA
:1025400009C092959F709F709A3030F0995C9C936F
:102550001196B3CF3196F7CF905DF9CF809162029B
:1025600086FF04C081E080930F02089580E80E94F6
:10257000EE0762E080E80E94450580EC0E94EE07CD
:1025800062E081E80E94450588E80E94EE0742E08B
:1025900068E080E00E94C30488EC0E94EE0762E0DD
:1025A00082E00E94450580910A02811107C0809156
:1025B0001A02833018F082E080931A0280911D0283
:1025C000882309F110921D0280E80E94EE0746E080
:1025D0006EEB72E088E692E00E94100241E060E15A
:1025E0000E94C3040E94E9101092510210921F022F
:1025F00010921E0210921D0210924E0210921C02A6
:1026000081E080931B0208951F920F920FB60F92E4
:1026100011242F933F934F935F936F937F938F93E7
:102620009F93AF93BF93EF93FF93E091B70128E09F
:10263000E29FF0011124DF01A75FBE4F14969C9129
:10264000149791112EC08091780090917900ED91AE
:10265000FC9109958091B7018F5F823008F067C0C7
:102660008093B701E091B70138E0E39FF0011124B6
:10267000E75FFE4F8581806480937C0084E086BBA9
:10268000FF91EF91BF91AF919F918F917F916F914A
:102690005F914F913F912F910F900FBE0F901F9020
:1026A000189512962D913C911397492F4150550B37
:1026B000BA0141E050E002C0440F551F6A95E2F7AD
:1026C0002F3F3207F9F42091780030917900092EDC
:1026D00002C0220F331F0A94E2F713963C932E9305
:1026E0001297E75FFE4F22813381420F531F019003
:1026F000F081E02D9A0102C0369527959A95E2F770
:10270000C901A7CF6091780070917900620F731FA3
:10271000240F351F092E02C0369527950A94E2F73B
:10272000621B730B13967C936E931297DACF109201
:10273000B70198CF1F920F920FB60F9211242F93CB
:102740003F938F939F93AF93BF93EF93FF938091AA
:10275000B601882399F08091B5018F5F8093B50110
:102760008C3309F05AC11092B60115BC1092560272
:102770001092210210922002109215028091C7013E
:10278000882361F08091B0018F5F8093B0018A301F
:1027900009F058C11092C7011092BC018091AD019F
:1027A000811182C19091AC018091AB01913009F00F
:1027B00054C1853618F48F5F8093AB018091AB01D3
:1027C000843639F481E080931E028093AA018093BD
:1027D00019019091AC018091A901923009F04AC190
:1027E000853618F48F5F8093A9018091A901843602
:1027F00039F481E080931D028093AA01809319012E
:102800009091AC018091A801933009F040C18536C8
:1028100018F48F5F8093A8018091A801843639F461
:1028200081E080931C028093AA018093190180911A
:10283000AA01813039F41092AA0180931B028FE023
:102840008093AD01809119018F3FF1F08091620278
:1028500085FD04C080911901823099F421E0209314
:10286000A7011092A6018091190133E08302C001F3
:10287000112480509F4F9093A5018093A401209331
:10288000A3018FEF809319018091A2018F5F809344
:10289000A2019091D601891708F482C01092A2017A
:1028A00081E080931B022091A0013091A10130931F
:1028B000B9012093B8011092A1011092A0012091BA
:1028C0009E0130919F0130930E0220930D021092D1
:1028D0009F0110929E0190919D01992309F4EAC0F5
:1028E00010929D0180911502811105C08091140202
:1028F000882309F44CC08091DB019091DC01A09108
:10290000DD01B091DE010196A11DB11D8093DB01B7
:102910009093DC01A093DD01B093DE0180912A0247
:1029200090912B02A0912C02B0912D020196A11D35
:10293000B11D80932A0290932B02A0932C02B09396
:102940002D028091360290913702A0913802B09109
:1029500039020196A11DB11D809336029093370272
:10296000A0933802B09339028091420290914302C1
:10297000A0914402B09145020196A11DB11D809322
:10298000420290934302A0934402B0934502809187
:102990001A02882329F080911A02815080931A022A
:1029A00080914F0290915002892B49F080914F0203
:1029B0009091500201979093500280934F02809122
:1029C000D301882329F08091D30181508093D301D2
:1029D00080919C01882349F08091C4019091C501A8
:1029E00001969093C5018093C4018091A70188232B
:1029F00039F08091A301815009F45FC08093A30155
:102A0000FF91EF91BF91AF919F918F913F912F9146
:102A10000F900FBE0F901F9018958091B10190916B
:102A2000B201A091B301B091B4018C53964FAF4F56
:102A3000BF4F8093B1019093B201A093B301B093C3
:102A4000B4019CCE8091AE019091AF018C53964F12
:102A50009093AF018093AE01A1CE85508E3238F4B1
:102A600081E0809351028093AA0110921901109283
:102A7000AB01AFCE85508E3238F481E080931F02D7
:102A80008093AA01109219011092A901B9CE855024
:102A90008E3238F481E080934E028093AA01109226
:102AA00019011092A801C3CE8091AD01815080938D
:102AB000AD01BDCE80939D0173CF8AE08093A301C9
:102AC0008091A60181110DC081E08093A6018093C1
:102AD0009B01E091A401F091A50180818F5F80931B
:102AE0009A0180919B01882399F010929B0180911B
:102AF0009A01815080939A01882379F181E0809333
:102B00009901E091A401F091A50181818093980140
:102B100080919901882379F08091980181110AC0F0
:102B200010929901E091A401F091A5018281815058
:102B3000809398015E9A80919901811108C08091DB
:102B40009801811103C081E080939B015E98809180
:102B5000980181508093980153CF1092A701109251
:102B6000A601D6CF1F920F920FB60F9211242F936A
:102B70003F934F935F936F937F938F939F93AF9305
:102B8000BF93EF93FF938091A0019091A1010196D3
:102B90009093A1018093A00182E292E00E948E03B3
:102BA0008EE292E00E948E038AE392E00E948E03FE
:102BB000FF91EF91BF91AF919F918F917F916F9115
:102BC0005F914F913F912F910F900FBE0F901F90EB
:102BD00018951F920F920FB60F9211242F933F93C7
:102BE0004F935F936F937F938F939F93AF93BF9315
:102BF000EF93FF93809184009091850090939701CB
:102C000080939601B19B06C084EC99E09093970164
:102C100080939601199994C080919501811147C0C4
:102C200082E085BD81E080939501809315028093B9
:102C300006028091DF019091E001A091E101B09145
:102C4000E201AC01BD014F5F5F4F6F4F7F4F40937B
:102C5000DF015093E0016093E1017093E201209164
:102C6000620227FD0BC00296A11DB11D8093DF01FA
:102C70009093E001A093E101B093E2018091B6014D
:102C800081113AC081E08093B6011092B101109297
:102C9000B2011092B3011092B4018091960190910B
:102CA000970190939401809393011092B501189B22
:102CB00022C18091920181110AC121E020939201E9
:102CC000209314028091BD01882309F411C18091E1
:102CD000C70181115BC02093C7018091960190913B
:102CE000970190939101809390011092AF011092FF
:102CF000AE011092B0018BC04091960150919701A6
:102D00008091B1019091B201A091B301B091B40151
:102D10002091930130919401840F951FA11DB11D45
:102D2000821B930BA109B109809352029093530225
:102D3000A0935402B093550281E080935602A5CF30
:102D400080919501882309F4B2CF15BC10929501AA
:102D50008091B601882309F4AACF8091B1019091A6
:102D6000B201A091B301B091B401209196013091CC
:102D700097014091930150919401841B950B820F10
:102D8000931F909321028093200291CF8091AE01F6
:102D90009091AF01609196017091970140919001DF
:102DA00050919101860F971F841B950B9093BB0147
:102DB0008093BA012093BC0180919C01811114C0C1
:102DC0002091BA013091BB018091C0019091C10165
:102DD0008217930730F48091C0019091C101892B33
:102DE00019F481E080939C012091BA013091BB01DC
:102DF0008091BE019091BF018217930708F46DCFB7
:102E000081E08093C60110929C011092BD018091D7
:102E10009E0190919F01019690939F0180939E0146
:102E200080915B0290915C02019690935C0280938A
:102E30005B0220915D0230915E0282179307D8F108
:102E400010925C0210925B0280915702909158029E
:102E5000A0915902B0915A020196A11DB11D809313
:102E6000570290935802A0935902B0935A0280914E
:102E7000E5019091E60101969093E6018093E501CA
:102E80008091ED019091EE0101969093EE01809377
:102E9000ED018091F5019091F60101969093F60174
:102EA0008093F5018091FD019091FE010196909330
:102EB000FE018093FD0182E292E00E9479038EE29E
:102EC00092E00E9479038AE392E00E947903FF91E5
:102ED000EF91BF91AF919F918F917F916F915F9192
:102EE0004F913F912F910F900FBE0F901F9018950B
:102EF0001092C7018CCF10929201E9CFCF93DF934C
:102F0000CDB7DEB728970FB6F894DEBF0FBECDBFA2
:102F10008CE184B923E025B917B887E088B98FE63A
:102F20008AB980E28BB982E084BD15BC16BC35E657
:102F300037BD18BC1092800038E0309381001092A9
:102F4000850010928400109287001092860039E06C
:102F50003093890033EC3093880010928B001092EC
:102F60008A0080936E0080936F00109269001DBAF2
:102F700020936B0010926C0010926D0081E08093A2
:102F800068008BBB1092C10080E880BF10927F0068
:102F900010927E0083E480937C008CEE80937A0014
:102FA00085E080937B001CBC1092B90088E480937C
:102FB000B800309911C49F5F993109F00FC148E002
:102FC00050E06FEF70E0CE0101960E94891C48E04E
:102FD00050E06BE672E0CE0101960E94F51B892B52
:102FE000B9F010E000E0B8016D557E4F48E050E0C8
:102FF000CE0101960E94021C48E050E0B801CE01CB
:1030000001960E941B1C085F1F4F003D110559F7D8
:1030100040E150E070E060E087E592E00E940B1C28
:103020004BE250E060E170E082E292E00E940B1C13
:103030004AE250E060E470E08BED91E00E940B1CEE
:103040000E9419048EE40E94F2038DE00E94F203B4
:103050000E9411045FEF70E782E0515070408040A1
:10306000E1F700C0000018E080E0143008F480E3CD
:1030700060E00E949104133008F4BAC0AFE0B0E4FD
:103080001197F1F700C00000115071F782E00E9423
:10309000EE0788E20E94EE0788E00E94EE0787E1D3
:1030A0000E94EE070E94160B8CE00E94EE0786E05D
:1030B0000E94EE07F12CE12C8E2D8770F60181F431
:1030C0008E2D887B80640E94EE0748E050E0B701B7
:1030D00068577F4FCE0101960E940B1CFE0131966E
:1030E0006F012FEFC21AD20A80810E94AF043FEF16
:1030F000E31AF30A40E4E416F104F1F60E94A9028F
:103100000E944604F0904A0280917D020E949E0235
:10311000082F8F2D0E949E02081B013011F008F02D
:1031200051C060917B0280917C020E94DB027C0195
:1031300060914802809149020E94DB022DE631E055
:10314000013011F030E020E0D701A81BB90BCD0110
:10315000820F931F82309105A8F52091620221FD14
:103160004CC048E1E42EF12C019711F0F12CE12C38
:10317000D0904702809179020E949E02082F8D2DE7
:103180000E949E02081BE00EF11C07FDFA94F7FC5A
:1031900019C08CE38E9D60018F9DD00C1124F0909E
:1031A0004602809178020E949E02082F8F2D0E9475
:1031B0009E02081BC00ED11C07FDDA94B9E7CB169E
:1031C000D104ECF0EAE3F2E08CE0DF011D928A9595
:1031D000E9F710924C0210924B0211C02FEF33EF1F
:1031E00041E0215030404040E1F700C00000E1CE16
:1031F000EFE8F1E03197F1F745CF8111E3CF8BE0B4
:1032000080938100789410921A028091620284FF68
:1032100074C06090E3017090E4019BEDC92E91E0D1
:10322000D92EF12CE12C00E028EEA22E23E0B22EC4
:1032300088248394912CE110CBC06114710431F087
:103240000E94F5028615970508F001603FEFE31A2A
:10325000F30A48E0C40ED11C55E0E516F10459F715
:10326000F12CB2E0EB2EC12C82E0D82EF39400FFBB
:1032700040C0E092190180E80E94EE0740E06FEA4A
:1032800072E088E692E00E94100243E060E10E9452
:10329000C30480EC0E94EE074F2D63E772E088E6DE
:1032A00092E00E94100243E060E10E94C304D092C9
:1032B0005002C0924F0280914F0290915002892B90
:1032C00061F080915102811108C080911F0281112B
:1032D00004C080914E02882371F310925102109223
:1032E0001F0210921E0210921D0210924E021092A6
:1032F0001C02069575E0F712B9CF10925102109298
:103300001F0210921E0210921D0210924E02109285
:103310001C028091180290911902892B21F480914E
:103320001B028823B1F301E07EE2272E72E0372EE4
:10333000ECE05E2EF1E88F2E982C612CA2E07A2E24
:1033400010921B02809117028A3009F05AC00E9425
:10335000160BF894809106028823B1F00E9446046F
:10336000809178028093460280917902809347028F
:1033700080917B028093480280917C028093490275
:1033800080917D0280934A0280914D0290910502C6
:103390009295907F8F70892B8093630240E150E07B
:1033A00070E060E087E592E00E941B1C4BE250E079
:1033B00060E170E082E292E00E941B1C4AE250E071
:1033C00060E470E08BED91E00E941B1C5D98FFCFE4
:1033D000F6019481992309F439CF9A9D90019B9D20
:1033E000300D1124428153814217530708F42ECF28
:1033F00094010E2C02C0220F331F0A94E2F7022B15
:1034000025CF80911D02882301F180911602811140
:1034100055C080911502811118C08091140281114C
:1034200014C080911302811110C0109313020093F5
:1034300016021092510210921F0210921E02109258
:103440001D0210924E0210921C028091160298E00A
:10345000492E8111E8C08091120262E0462E81114E
:1034600002C056E0452E80911A0281118EC08091D3
:103470000A02882309F449C110920A028EE080935F
:103480001A022AE1A22E21E0B22E37E0E32E32E02A
:10349000F32E40E7C42ED12C48E050E0B60188E678
:1034A00092E00E940B1C0E941710811124C0D701CA
:1034B0008C91853080F58F5F8C9330C01091130212
:1034C00010921302109216021092510210921F02D3
:1034D00010921E0210921D0210924E0210921C02B7
:1034E00040E150E070E060E087E592E00E941B1C44
:1034F0000E94A902AACF88E692E00E947210882357
:10350000B1F280917E0290917F02F50191838083D8
:10351000D7011C9203C0F50191828082B8E0CB0EE6
:10352000D11CE2E0AE0EB11CFFEFEF1AFF0A28E853
:10353000C216D10409F0B0CF8091610287FF25C087
:103540000E94190480ED0E94F20381E10E94F203BF
:103550000E94190481ED0E94F20380E00E9403049E
:10356000F82E81E00E9403043FEFF31609F4C8C06F
:1035700040E1F49E9001112482958F70282B3093A6
:103580001D0120931C010E94110420910D02309115
:103590000E02A0EABCE80E946F1C20915D023091EF
:1035A0005E0250E040E00E94471CC90130930C02CB
:1035B00020930B02609164027AE0679FF00111246E
:1035C00061E02E173F0708F460E0609312026091FB
:1035D0004B0270914C026817790720F430934C022B
:1035E00020934B0220911402222321F0892B11F405
:1035F000109214028091220290912302813D974003
:1036000030F0E2E2F2E0252D11922A95E9F780915F
:103610002E0290912F028137974128F0D101E52D9C
:103620001D92EA95E9F7F0901302F0921102642DD1
:1036300083E192E00E94EE01D0901302FD1471F03C
:10364000109210021092510210921F0210921E024C
:1036500010921D0210924E0210921C0280911602CE
:10366000882309F491C0FD2DFF70CF2E23E0F29F37
:10367000F0011124E959FE4FB080E180F280D7FCBF
:1036800024C080E80E94EE0740E062E373E088E631
:1036900092E00E94100241E060E10E94C30480ECCD
:1036A0000E94EE0781E38C0D809368023EE2309326
:1036B00069024B2D6EEB72E08AE692E00E941002E6
:1036C00041E060E18E5F0E94C30480911F0281117E
:1036D00002C0D7FE10C010921F020E94160B7092FB
:1036E000500260924F0280914F0290915002892BBC
:1036F00011F500931B0280911B028823E1F320CE79
:1037000090921D0180921C013ECF00930A0200930B
:103710001A020E94DD108091610287FF36CF0E945D
:10372000190480ED0E94F2038EE00E94F2038CE304
:103730000E94F20328CF10921B0280E80E94EE073D
:103740004B2D6EEB72E088E692E00E94100241E0A1
:1037500060E10E94C304F701099510925102109292
:103760001F0210921E0210921D0210924E02109221
:103770001C0280911B028111B6CF80914F02909163
:103780005002892BB1F7AFCF80911202882331F01C
:1037900080911302833010F01092130210920F02E6
:1037A000E0911302F0E0EE0FFF1FEE57FE4F019085
:1037B000F081E02D099580910F02882309F49BCFB9
:1037C0008091130290911102891720F48150809307
:1037D0001302DACF8F5FFBCF48E050E068EC70E077
:1037E000CE0101960E940B1CF2CBFB01DC0104C050
:1037F0008D910590801921F441505040C8F7881BE5
:10380000990B0895FB01DC0102C005900D92415017
:103810005040D8F70895DC01CB01FC01F999FECFA7
:1038200006C0F2BDE1BDF89A319600B40D92415048
:103830005040B8F70895DC01CB0103C02D910E94E0
:10384000261C41505040D0F70895262FF999FECFFD
:103850001FBA92BD81BD20BD0FB6F894FA9AF99AAD
:103860000FBE01960895AA1BBB1B51E107C0AA1FFA
:10387000BB1FA617B70710F0A61BB70B881F991F11
:103880005A95A9F780959095BC01CD010895A1E2C4
:103890001A2EAA1BBB1BFD010DC0AA1FBB1FEE1FCA
:1038A000FF1FA217B307E407F50720F0A21BB30B15
:1038B000E40BF50B661F771F881F991F1A9469F791
:1038C00060957095809590959B01AC01BD01CF01ED
:1038D0000895EE0FFF1F0590F491E02D0994A29F2B
:1038E000B001B39FC001A39F700D811D1124911DD4
:1038F000B29F700D811D1124911D08950E946F1CAF
:10390000A59F900DB49F900DA49F800D911D112433
:103910000895DC0101C06D9341505040E0F70895D7
:04392000F894FFCF49
:10392400010101010401030302D603FFFF020300A6
:1039340000A503FFFF00000000FF818181818181D8
:1039440081818184898C8FC00602020500030501F0
:1039540004060204818181818181000000004054B9
:10396400890000000000C0E1E400C0E1E40040542C
:10397400890050A9AB00E0707200001F3B5A789791
:10398400B5D4F311304E6D01080B02FC0903E709AD
:10399400043308053F0808FA0A06E910077C0A09F7
:1039A4002508710C680CAE12630C5E0CF90E6D0BDD
:00000001FF
