:040000008231B92A66
:100008007E1480310B1C3429270096012000170824
:100018002100A300200016082100A2002208031DC9
:100028001928200017082100A3002000131F2128E9
:100038006A302100A2001830A30020008D1B6A2816
:10004800F11B802821009512F117721470160130E7
:100058002400A4070030A53DA63DA73D2200CA1BE9
:100068003C2801302400A4070030A53DA63DA73D4B
:10007800F11A4E28F1162200A301A401A5012100BE
:1000880023082200A900210022082200A80021003C
:10009800AE018028210022082200D5002100230873
:1000A8002200D600D7012808F3002908F400F5013A
:1000B8007308D5027408D63B7508D73B2308D507C3
:1000C8002408D63D2508D73D71174028F11F802800
:1000D80021009516F113F11E802823082200D9006B
:1000E800210022082200D8002808D8022908D93B74
:1000F8002308D8072408D93D20000D1F3329721979
:1001080034297215F214F11CD028F1199928F11527
:10011800210023082200B300210022082200B20097
:10012800B001B1012100AF01D1282200310821001E
:10013800A700220030082100A60022003208210072
:10014800A602220033082100A73B2208A60723089D
:10015800A73DF0177118C028270822003902031D8F
:10016800B92821002608220038020318BF283808B9
:100178003904031DC0287114210027082200370202
:10018800031DCA282100260822003602031C8C28D9
:1001980071157110F110D128F1112200AE0A03195E
:1001A800AF0AC30A0319C40A46084402031DDE281D
:1001B80045084302031CF5280130C301C401BF07E9
:1001C8000030C03DC13DC23D2400AA0A0319AB0A54
:1001D800B20A0319B30ABA0A0319BB0AC20A0319F5
:1001E800C30A2300A20A0319A30A2200460823000F
:1001F8002302031D03292200450823002202031CB1
:100208000A29A201A301A00A0319A10AAE0A031927
:10021800AF0A2200460823002F02031D17292200D7
:10022800450823002E02031C1E29AE01AF01AC0AAB
:100238000319AD0ABA0A0319BB0A220046082300AB
:100248003B02031D2B292200450823003A02031C08
:100258003429BA01BB01B80A0319B90A3429721141
:100268000B1D6F292200AC0A0319AD0A2300A40B49
:100278004C2921002A082300A40022004708230053
:10028800A50A2502031C4C29A501A60A0319A70AD9
:10029800B00B5D2921002A082300B000220047087E
:1002A8002300B10A3102031C5D29B101B20A031906
:1002B800B30ABC0B6E2921002A082300BC002200C7
:1002C80047082300BD0A3D02031C6E29BD01BE0A72
:1002D8000319BF0A0B112000131F9D2AF11E8D2937
:1002E8002100AE0A3C302E06031D8229F112951614
:1002F80071132200D801D90172108D296A302200A9
:10030800A307183003181930A40700300318013068
:10031800A507F11D9D292100AF0A0A302F06031DEC
:100328009829F111F0139D296A302200B00718307E
:10033800B13D21003108031DE02920000D19B42921
:10034800653021002902031CA90A64302906031D0F
:10035800C1292000EC16721601302100EF00C129D6
:10036800053021002902031CC02933302902031853
:10037800C029F2177216EF01A90120008D19D229A0
:10038800653021002802031CA80A64302806031DD2
:10039800E129F21672160130EF00E129053021003B
:1003A8002802031CDE29333028020318DE297217BD
:1003B8007216EF01A801E129B103721EE729721232
:1003C800F2150F30B1006F0A0319002A2200CA1A69
:1003D800F229023021006F06031DFD29F015701166
:1003E80021006F086F076F07563EAB002200BA0165
:1003F800BA0A2100EF01EF032200E40B3E2A643021
:10040800E400F2152D08AB002C08AA00AC01AD01E0
:100418002F08DB002E08DA00AE01AF0121006E1CA8
:100428003D2A6E1072181A2AF21C342A0130240050
:10043800A0070030A13DA23DA33D01302300A8073D
:100448000030A93DAA3DAB3D0130B4070030B53DB1
:10045800B63DB73D0130C0070030C13DC23DC33D88
:1004680021002C08031DAC032D0803193E2AAD03F7
:100478003E2A6E1420006D086E040319472A0130C5
:10048800ED020030EE3B7B08031DFB03711C502A74
:100498002200B40A0319B50AF01D9B2A2200BA0BE0
:1004A8009B2A0A30BA007019652A70152000EC14CE
:1004B80021002B088600023087000108013E220037
:1004C800BC002000EC1C7A2AEC102200BC030319A3
:1004D800782A20006C1521002B088600023087003E
:1004E800413F2200BB007A2AF011701120006C1DD8
:1004F8008F2A22003B08031D8D2A20006C11210041
:100508002B08023E8600023087000108FF3E2200C9
:10051800BB0020000E146C19992A22003B08031D09
:10052800972A2000EC1420000E102200BB032000A4
:100538001313111FB72A21001C08A500A4011B08CA
:10054800A40400302502813003192402031CAE2ABA
:10055800B001B52A0A303006031DB42AF215B52AAF
:10056800B00A200011137E1009008231BB2A210035
:10057800FF30EF003F308400923085005E30860007
:10058800013087000F308731FA278231013084002B
:1005980088308500D33086000130870018308731D5
:1005A800FA2782314E308400923085004A30860026
:1005B8000230870015308731FA278231DA3084001B
:1005C80087308500A03086000230870020308731D0
:1005D800FA278231F001F101F201FB012000EC0160
:1005E800ED01EE01EF012100A030EE0184000030A2
:1005F8008500283092313922823120308400013040
:1006080085003E30923139228231A0308400013099
:100618008500333092313922823120308400023013
:1006280085002A309231392282317E1020001C2B1D
:10063800E901EA018A311D228231200018148B1742
:100648002100AC0122004A1E2E2BC723E80092315C
:10065800C722823114278231332BF219382B21001B
:10066800240825040319312BF2110A302100300621
:10067800031D402BA0248231F21E682B701C7218B7
:10068800552BF218552B21004608031D552B4608FB
:100698002000E9006A082100C6007014142782317E
:1006A800682B701C682B210046082000EA006908A6
:1006B8002100C6007010142782313F302027943162
:1006C80074248231D826823170187A2B711E6E2BD1
:1006D80002306F2B07302000EB0021002C08031D8F
:1006E800772B7F2682311C2482317D2B0830200015
:1006F800EB00210046082200BD00F60120006B082F
:10070800F700C6309F312327823122003D0821009F
:1007180046060319932B2200DD0114278231701C31
:100728009B2B21004608943193248231C42B711EDF
:10073800A22B0330210046020318C6012000EC1149
:10074800210046082000E6002F30E701E635E70DD6
:1007580066078400B230673D8500013F8A00003F8C
:100768000A0083312000EC1DC12B0730210046060A
:10077800031DC02BC601C12BC60A2000EC199B2BF8
:10078800F219382BC42B2000B901BB013B08031D0B
:10079800EB2B2400280829040319142C8931B721CC
:1007A80082312400290820003602031DDF2B240093
:1007B800280820003502031C142C0130B7003B0A1E
:1007C800E62BB735890BE52B3708B904142C3B0801
:1007D800090709070907223EBA00023E86000230CF
:1007E800870001080319142C3A08023E8600010804
:1007F800A300E830A401A5000330A6009631AA267C
:1008080082313A08860002308700403FB700413FF6
:10081800B80024083802031DDF2B23083702DF2B1A
:1008280020000530BB0A3B02031CCA2B390808000C
:1008380022009F319F27823122005A082000A00001
:1008480022005B082000A1008C301A27A030A400E9
:100858008E31CE268231AF31BD2782319C31AD2415
:10086800823129082100A100200028082100A000C9
:1008780022004C082000A30034279631AA26823192
:10088800240821002102031D4D2C200023082100EB
:100898002002031C512C7116522C711221002108C0
:1008A80023004A02031D5C2C210020082300490272
:1008B8000318662C210021082300CA002100200803
:1008C8002300C900F21C6D2C210020082104031903
:1008D800F210073023002102D13003192002031C33
:1008E8007B2CA0302000D4000130882482311730BE
:1008F80023002D02713003192C02031C0800AC30B0
:100908002000D4000130882CD5005508031D952CF3
:100918008A3118228231A63110268231003A031911
:1009280008005408E3245408F6000130F7000C309E
:10093800F801F9009F31102F96316B2682318B1305
:10094800701EAD2CC4302000A2000130A300A425E5
:10095800823122004B085C06F0395C06CB0021008E
:1009680047082000A700A70E22004B0820002706F2
:100978000F3927062200CB00C42482310C10C32C67
:100988003F30FA012000202794317424823110303E
:10099800FA07A030A0000130A1007A08A2002B308D
:1009A800A300943174243030FA072030A0000230BC
:1009B800A1007A08A2002A30A3009431742CC10047
:1009C800F01C0800B83A031DF32CDB30C0010B27DC
:1009D800823116001A00FA0BED2CDB30102D41087D
:1009E800A03A031D022DE030C001C00A0B27823156
:1009F80016001A00FA0BFC2CE030102D4108AC3A16
:100A0800031D08000230C000E5300B2782311600B4
:100A18001A00FA0B0B2DE530BD004108B500013076
:100A2800B600AD31352582313608BF003508BE0025
:100A38003F04031D222D4008031D08003E083F0403
:100A48000319432DA530C2004108F6000130F70014
:100A58000C30F8004830F901DE2582314230B2000E
:100A68000030B300A901A90340082D262A08B500C3
:100A78002908B4001230B600A331E22382313D08C0
:100A8800A2000130A300A4258231D32D2000BB0190
:100A9800BB0A7D2D3B0803197A2DA730F600B2302A
:100AA800F7000830F800B330F901DE25B330B200A2
:100AB8000030B3000830B401B501B600A331E22319
:100AC8008231DB30A2000130A300A4258231E0305E
:100AD800A2000130A300A4258231E530A200013034
:100AE800A300A4258231D32582317C2DF010972DC7
:100AF800BB01B330B2000030B3000830B401B50117
:100B0800B600A43174248231A730F600B230F70061
:100B18000830F800B330F901FE25823176087704F1
:100B2800031D4E2DF014F01C0800D330B200013024
:100B3800B3000830B4001830B501B600A431742CE5
:100B4800A631082682312000220886002308870063
:100B580022004F08810050082000A4002208013E0E
:100B6800FF26823152082000A4002208023EFF26F8
:100B7800823153082000A4002208033EFF265408AF
:100B88002000A4002208043EA5000030233DA60052
:100B98002508860026088700240881000800D3302D
:100BA800B2000130B3000830B4001830B501B60007
:100BB800A331E22BA4007708A2007608A10024083C
:100BC800A3000130F8020030F93B780FEE2D790AC6
:100BD8000319080021088400220885000008A000E5
:100BE800A10A0319A20A23088600870120088100A8
:100BF800A30AE52D2000A000A3007708A20076082C
:100C0800A100172E272782312308860087010108B3
:100C18007A06031D1B2E0130F8020030F93BA30AA7
:100C2800A10A0319A20A78087904031D062E780878
:100C38007904031D222EF601F70108002308860017
:100C480087010108F600F7012727F602031CF703BE
:100C580008002000B0002030AB00AC01AF01300824
:100C68002F0203184B2E2F35D43E86000130870003
:100C78000108A3001230A401A500A6019631AA26F6
:100C880082312308AB072408AC3DAF0A332E303538
:100C9800D33EB100290F642E310886000130870049
:100CA800810A310A840001308500000801023108F8
:100CB8008600031C622E8101310886000108A90004
:100CC8000330300603196A2E12306B2E0A30AD003D
:100CD800AE012908A300A4012E08A6002D08A5002E
:100CE8009631AA262408AA002308A9002B08A907D8
:100CF8002C08AA3D080020006C1ECC2E0E306C1269
:100D08002100AC0070302000B300B401B330F7000C
:100D18000030F8003308F9000830FA0096318526CB
:100D28008231C330F900B3309631D82682310318A6
:100D3800AF2E20002E27823105300102031CAB2E76
:100D48003435653E86008130C03FC13FBF2E2E2717
:100D58008231810ABF2E20003435653E860001307D
:100D6800870021004308C03F4408C13F20003408E1
:100D7800203E860081010830B3070330B40A3402EC
:100D8800031C8A2E2200C91F08006730A4312F2CAB
:100D980001306C162100AC009731B827823122004F
:100DA800C91F0800A331962B41302100AA00383012
:100DB8002200BE004608F9004508F8000D30F83555
:100DC800F90DF600F701AF317D278231770822004F
:100DD800A7007608A600CA1FF72E2100AA35220010
:100DE800BE36A736A60C4B080F39DC004B0E0F3960
:100DF8002100C7000800A5000030233DA6002508F3
:100E08008600260887002408810022000800860042
:100E180001308700423E840005308501FA00080051
:100E2800F21372132000EC12F2120800A201A301BF
:100E3800A701A601A5000800A0000130A1001030FC
:100E4800A201A300080021088400220885000008E8
:100E5800FA0008003408203E8600013087000800A8
:100E68000A30A401A500A6010800C0003808BE0089
:100E78003708BD003608BC003508BB00D3273E083C
:100E8800AF003D08AE003C08AD003B08AC009C310B
:100E9800AD2487312B08BE002A08BD002908BC00F4
:100EA8002808BB00C00A3E083D043C043B04031D5F
:100EB800422F4008860087018101C0033908A0003D
:100EC8003A08A100A201A3013808A7003708A60024
:100ED8003608A5003508A4009D2787312008BF00E3
:100EE800D3273808AF003708AE003608AD003508FC
:100EF800AC009C31AD2487312B08B8002A08B70014
:100F08002908B6002808B5000A303F02031C8E2FB6
:100F18000730BF073030BF074008860087013F0809
:100F28008100C00338083704360435040319080063
:100F3800622F23082204210420040319CA2FF60172
:100F4800F60AA31BAC2FA035A10DA20DA30DA42F4B
:100F580023082702031DBA2F22082602031DBA2FD1
:100F680021082502031DBA2F20082402031CC42FC0
:100F78002008A4022108A53B2208A63B2308A73B7A
:100F8800A336A20CA10CA00CF60BAC2F2708A300CB
:100F98002608A2002508A1002408A0000800390896
:100FA800A8003A08A900AA01AB01080000340034DF
:100FB80000340034A034523457340134003400343F
:100FC80000340034603434343C3402346034343413
:100FD8003C340234A0345234573401344834273472
:100FE800AD34013430341A341E340134FE0012009A
:080FF8001E00FE0BFB2F00346C
:10100200FF344034FF341E34FF340C34FF340A34CE
:10101200003400340034003400340034003400342E
:10102200003400340034003400340034003400341E
:10103200220042082000D100220041082000D000F6
:10104200220040082000CF0022003F082000CE00EE
:101052000F30D501D4004230D3003F30D2008D3161
:10106200D02551082200C200200050082200C100F1
:1010720020004F082200C00020004E082200BF00BE
:101082000800AD00AF015928CB30AE000830AC00EB
:1010920055282D08860087012E088400013085001E
:1010A20000088100AE0AAD0AAC032C0F4A28AF0A31
:1010B2007A08AA00AB01AA1BAB032B08803A803C3A
:1010C200031D65282A082F0203186B286E20883119
:1010D2000318452820002F0808002000CB30A80163
:1010E200A80AA301A901A90A6C13A600EC1BF62801
:1010F200973177278831031884282100B201200014
:10110200EC1303100800F030973125278831403066
:101112002000A200E52897316127883100300318AA
:1011220001302000A5009731612788310030031873
:1011320001302000A400250BA128240BA128E828B7
:10114200250824060319A8282508A700C928210074
:101152003208200028020318BA2826088600013027
:101162008700010829050319B8280130C328003077
:10117200C328280821003206031DC1280130C228D5
:1011820000302000A7002708031DC9282808A30053
:10119200270BD228260886000130870029088104FF
:1011A200D8282608860001308700290981052708EA
:1011B2009731992788312000A80AA9352908031DEB
:1011C200E528A60AA901A90AA203220F8C28413008
:1011D2002802031CF62823082100B2003208031D4E
:1011E200F4282000EC1720006C176C1B0629210044
:1011F200B2012000CB30EC13F6000130F7000830CA
:10120200F801F9009F31102788316C1F82280314DE
:101212000800C730F6000030F7000530F800E8217A
:1012220080309E31CE2689318F31F42789314708AB
:10123200013EFA00B3309531B92589319F319827A3
:10124200893195318B25893121004708031D3329C6
:101252002A302000CE00B72189313608C90035086E
:10126200C80041294708090709070907223E20004B
:10127200CE00860002308700403FC800413FC900CF
:101282004808C10049089F31C02789319E31EA26AA
:101292008931EF00210047080319512908305229EA
:1012A20005302000CA00A6006F089E31DF26893172
:1012B200EF076F08B33E8600203087018100C030FF
:1012C200EF0A9E31CE2689310B2295318B25893149
:1012D2004E08033E860002308700403FCB00413F6C
:1012E200CC00423FCD00C8309E31CE26893120004D
:1012F2004C08B7004D08B8004B08A6316926893161
:101302001822A63110268931003A03190800A631A5
:10131200082689312100470803199129470B9A2988
:101322002400A001A101A201A301A401A501A6011B
:10133200A70120004E088600023087000030C03F1F
:10134200C13F4E08033E8600220052088100200061
:101352004E08043E860022005308810020004E08F9
:10136200053E8600220054088100080022004A1D22
:10137200CD2920000130AB01AA007730A90004304A
:10138200A801203E8600023087009F31A9278931BB
:101392009C31AD248931132A20000730AB01AA0108
:1013A200A9000830A800240023082000AF00240070
:1013B20022082000AE00240021082000AD002400F5
:1013C20020082000AC009C31AD248931132A721F01
:1013D200F829721376088600770887000108013E13
:1013E200F900760886007708870079088100760878
:1013F2008600770887007808010276088600770859
:101402008700031C092A8101760886007708870075
:101412000108080020006F08AE000830AF0002305B
:10142200B000B3342908B6002808B5000800D0304F
:10143200B700B230B80008003B228A31262395312A
:10144200EC258A318631D8268A31A63108268A319E
:1014520085314A258A3170228A31003A03190800FF
:10146200B8302000D4000130843188242300C9011F
:10147200CA010800263021008C00013020008C00B7
:10148200CD3021008D000F3020008D0021008E0113
:1014920020008E01950196019701B8302100950038
:1014A2003030200098000B3026009E0018309D003E
:1014B2006A309C004030210091009300C030270028
:1014C2009400950068308B00063023008C008D015B
:1014D200043021009D00A0309E001D144A2B2300E1
:1014E2004808F80022005408F8228A31B300B401F7
:1014F200B31BB403B41B01344B238A3103180134E8
:1015020022005208F800530806238A317908AC00F9
:101512007808AB0023004608F800470806238A3102
:101522007908AE007808AD003303340403199C2A0D
:10153200AF01B001A02A6D30AF000130B000300819
:10154200B4002F08B3002D08B3022E08B43B2B08B9
:10155200B3072C08B43DB41B01344B238A31031862
:1015620001342200CA18F52A200033033404031977
:10157200BC2AB101BE2A1830B100B20123004508CD
:10158200F80022005008F8228A31B300B401B31BDC
:10159200B4033108B3073208B43DB41B013423004D
:1015A2004408F80022004F08F822A900AA01A91B4A
:1015B200AA033408A4003308A3003C30A500A60106
:1015C2009631AA268A3129082307B3002A08243D26
:1015D200B400803AA90080302902031DF22A793032
:1015E20033020318013400342000330808002000BD
:1015F200A0007808A63197268A31F9002008A63182
:101602009726FA0079087A0208002000A000A63185
:1016120097268A31FF3EA3006D3E8400B230031844
:10162200013E85000008A1000930A2012302031C2B
:101632001C2B0130A2077808A6319726F800F90181
:101642002108F8072208F93D080020003F30A201D6
:10165200F7000130F8001030F901FA0096318526C2
:101662008A311030A207A030F7000130F8002208BA
:10167200F9002B30FA00963185263030A20720304F
:10168200F7000230F8002208F9002A30FA009631F9
:10169200852E08003408803AA90080302902031DF3
:1016A20008000230330208000A30C801C80AC90122
:1016B200C90ACA0022004C08F3262200CC00080006
:1016C2000D30C800FF30C901C90ACA00220047080C
:1016D200F3262200C7000800220045082000CE00A1
:1016E200220046082000CF007530FA278B312F30B8
:1016F200D200D0254F082200C60020004E0822004A
:10170200C50008004830F6000130F7008C30F800C0
:10171200E630F9004827C4309E31CE268B310230A4
:10172200B62C80309E31CE268B31711AC82BA63151
:1017320008268B3122004F082000B700B801B80AF2
:1017420022005008A63143268B317218BB2B02307F
:10175200AA27C0309E31CE268B312000D601D60A70
:1017620022004A080139AE319C268B310230B62460
:101772008B31E22B02305224C0309E31CE268B3187
:101782000130E9238B3102306E278B31E22B2100AD
:1017920021082000D700210020082000D600D8010F
:1017A200D901DA01DA0ADB248B3102305224C0304B
:1017B2009E31CE268B310130E9238B3102300D254B
:1017C2008B31F21C721C0800F21E080093310B2BA5
:1017D2002000E3005C30F6000130F7000930F80029
:1017E2008931E8218B312000DF00E0016008003AF6
:1017F2000319472C512C6308D60022004A080139EC
:10180200AE319C2E6308B62CB830C8000130C90036
:101812006308CA00AD31F52DB830D6000130D700CB
:101822006308D800AD31DC2DB830D6000130D700C6
:101832006308D800AC31EE2CB830D6000130D700A6
:101842006308D800AD31672DB830D6000130D7001B
:101852006308D800AF31A32F0B30A60000309E31B1
:10186200DF268B31E100E20123004A082000D70085
:10187200230049082000D6006208D9006108D80078
:101882006308DA00DB2C6308AC31532C5F08840058
:10189200093004020318080090310435003E82002A
:1018A2000800C800711B5C2CAF31D7278B319531F2
:1018B200B9258B31AF2C2200CA1B682C04302000C2
:1018C200CC007830CB006830CA00C030702C0230B7
:1018D2002000CC003C30CB003430CA006030C9005C
:1018E200220055082000A800220056082000A90066
:1018F200220057082000AA00AB014C08AF004B0899
:10190200AE004A08AD004908AC009C31AD248B31D1
:101912002908CE002808CD000A30F600F7014D084C
:10192200053EF80000304E3DF900AF317D278B3186
:101932007708A4007608A3000A30A500A601963114
:10194200AA268B312408CE002308CD00C1004E0800
:101952009F31C0278B319E31EA268B31EF00023056
:10196200B7004808B8006F08FC2C2000D8002200FD
:101972004808F600F701210025082000D7002100C1
:1019820024082000D6000530D635D70D890BC52C8A
:101992005608F8005708F900AF317D278B31E3274D
:1019A2009F3138278B31EF000730B7005808B80055
:1019B2006F08FC2C5708CF005608CE00D001D00A81
:1019C2005808B33E9F3138278B31EF00033057025E
:1019D200E930031956020318F22C58085904031D62
:1019E200F42CEF03EF035808EF07B701B70A5A08C0
:1019F200B8006F08FC2CB9003708A60039089E31E0
:101A0200DF268B31B9073908AE000830AF0038083D
:101A1200B000B33095318B2DDA0022005A08200035
:101A2200A80022005B082000A900C5278B312608E8
:101A32002000A400220027082000A500A601A7017B
:101A4200CE26AF31BD278B319C31AD248B312B0893
:101A5200D9002A08D8002908D7002808D600DD278F
:101A6200AA01AB015908AF005808AE005708AD00F3
:101A72005608AC009C31AD248B312908DC002808C3
:101A8200DB005C08CF005B08AF31E8278B319F3168
:101A920038278B31EF000330B7005A08B8006F08BF
:101AA200FC2C0430F601F700C5309F3123278B311F
:101AB200C0309E31CE268B3121004508313EB30025
:101AC2002E30B400D330F800B030F9004508013EA2
:101AD200FA00B5309531B9258B31023E9F319827F6
:101AE2008B3195318B258B31721F0800F2137213E3
:101AF200EC12F21280309E31CE268B31F42745084B
:101B0200013EFA00B3309531B9258B319F319827C8
:101B12008B3195318B258B31C0309E31CE268B3166
:101B2200B3309F31B8278B319F3110278B31103062
:101B3200AE009731C1278B3195318B258B31210036
:101B42004508031DBB2D240028082000CE002400D8
:101B520029082000CF000730FA278B31CF30D2007E
:101B6200D0258B314F082400A90020004E08240004
:101B7200A800CB2D08302000C8003C30C901CA00A3
:101B8200D3278B310108F3268B31E000D3272000C5
:101B9200600881002000ED010230EE0008005508C7
:101BA200C4005408C3005308C2005208EB279E31F8
:101BB200EA268B31DE0051085502031DEA2D50083A
:101BC2005402031DEA2D4F085302031DEA2D4E084D
:101BD20052020318F42D5508D1005408D0005308BE
:101BE200CF005208CE005108C4005008C3004F086D
:101BF200C2004E08EB279E31EA268B31DC003030E2
:101C0200C8005C08C9005E08CA00B3309F31812752
:101C12008B31D7015E08103CD600031CD703D736A0
:101C2200D60C5608C03EDD00DF01ED010230EE00A9
:101C32006D086E0403197B2EF211F6015E08FF3E59
:101C4200F7005F309F3123278B31721F5B2E2000FC
:101C52005F08B33E86003A308701810A0102031C05
:101C6200372E5F08B33E860030308100B3308B26BA
:101C72008B312B08DB002A08DA002908D900280852
:101C8200D8005B085502031D502E5A085402031D4A
:101C9200502E59085302031D502E580852020318A1
:101CA200582E5F08B33E8600303087018100ED0177
:101CB2000230EE000C309E31CE268B3120005D08C2
:101CC2009E31CE268B3120005E08AE00083097315F
:101CD200C1278B3195318B258B315D085F079E3192
:101CE200CE268B310F309E31CE268B319F31062787
:101CF2008B31192E0C309E31CE268B31F215B3303A
:101D02008B262B08D1002A08D0002908CF002808EA
:101D1200CE0008002000B600B201B301B401B50143
:101D220036088600870101080319C52E3608860089
:101D32000108D03EAC00FF3003180030AD002C0883
:101D4200AE002D08AF00B001B1013508A300340880
:101D5200A2003308A1003208A0000A30EF278B311D
:101D6200CE268B312008AE072108AF3D2208B03DB8
:101D72002308B13D3108B5003008B4002F08B30084
:101D82002E08B200B60A912E3508AB003408AA001C
:101D92003308A9003208A8000800F601F701F8018B
:101DA200F901201CDC2E2408F6072508F73D260839
:101DB200F83D2708F93DA435A50DA60DA70DA336BC
:101DC200A20CA10CA00C2308220421042004031D50
:101DD200D22E7908A3007808A2007708A10076081D
:101DE200A00008002000CF00ED010230EE006D08D7
:101DF2006E040319452FF2114F30F6000030F70040
:101E02004908F8004A08F90048278B31083048068B
:101E12000319112F4F08CB00CC01CD01CE01242F85
:101E22004F08A0000330A10187311A278B31E83017
:101E3200A400CE268B312308CE002208CD00210833
:101E4200CC002008CB004E08C4004D08C3004C084B
:101E5200C2004B08EB279E31EA268B31EF0048087F
:101E6200A6006F089E31DF268B31EF07C4309E310A
:101E7200CE268B318A310B228B3195318B258B31DA
:101E82009F3106278B31F82EF2154F08080076088D
:101E92008600770887000108FA00F21F5A2FFA0A13
:101EA200790A7A06031D572F7808FA00ED010230ED
:101EB200EE00721F672FFA037808FF3E7A06031DB1
:101EC200642F7908FA00ED010230EE0076088600F0
:101ED200770887007A0881000800DA00DD278B3155
:101EE200C5278B313E082000EF278B31CE26AF313C
:101EF200BD278B319C31AD248B312B08D9002A08A8
:101F0200D8002908D7002808D6000A30A800A9015D
:101F1200AA01AB015908AF005808AE005708AD003E
:101F22005608AC009C31AD248B312908DC0028080E
:101F3200DB005C08CF005B08AF31E8278B319F31B3
:101F420038278B31EF000430B7005A08B8006F0809
:101F5200FC2CC800220042082000C40022004108D4
:101F62002000C300220040082000C20022003F08D7
:101F72002000EB279E31EA268B31EF000830B700B4
:101F82004808B8006F08FC2CAA01AB0122002A08FD
:101F92002000A00022002B082000A100A201A30122
:101FA2002200080021004508090709070907243E05
:101FB2008600023087000800220047082000A8009F
:101FC200A90108007708CF007608CE00B330D0010F
:101FD200D00A0800C1000A30C500B334A400A5012C
:101FE200A601A7010800D330F800B030F9002100A3
:101FF2000800D001D101D501D401D30008008B31F2
:10200200FC2B8C31032C8C31052C8C310D2C8C311A
:10201200152C8C311D2C8C31252C8C312D2C8C3196
:10202200442CA531682DA5316C2DA531712DA5311A
:0A203200752DA531792DA5317F2D04
:10247200640080010131890B3A2A003481348134AD
:1024820081348134813481346434813481348134BF
:10249200813481348134813481340634023402340B
:1024A2000534003403340534013404340634023470
:1024B200043401340134013401340434013403346A
:1024C2000334023422004A082000CF0022004908C7
:1024D2002000CE007430D000B030D10095310325F9
:1024E20020004F082200CA0020004E082200C90026
:1024F2000800BD00F01C0800A530BE00220035080F
:102502002000C700220034082000C600962AC40119
:102512008F2A3C30C401942A3C30C4006430942A8F
:102522005030C4007830C500AC2A3D08BB00BC0165
:102532003C08003A03199E2AAC2A3B08003A0319C8
:10254200882A013A03198A2A033A03198D2A013A81
:102552000319912AAC2A3F30A2000030A300853132
:10256200A42592313E30B2000030B3000330A901FD
:10257200A90386312D2692312A08B5002908B40014
:102582000A30B600A331E2238531D32DB700B8015A
:10259200371C042B02302100EF0080309E31CE2602
:1025A2009231B930F800B230F900B330FA01953106
:1025B200B92592319F31B227923195318B259231D3
:1025C200C0309E31CE269231D330F800B030F900BF
:1025D20020003808013EFA00B3309531B925923116
:1025E2009F31B227923195318B259231ED01023024
:1025F200EE00FE2AF21F721B022B6D086E04031DF1
:10260200FB2A582392310530B736B80A380203182C
:102612000800C92A582396316B26923120000330D4
:10262200DF01DD00FF30DE00ED010230EE006D085B
:102632006E040319522BF211F6015D08F7005F30A8
:102642009F3123279231721F2B2B2000ED01EE01C7
:102652005F08DE00C930F800B230F900B330FA0189
:102662009531B9259231EF00C330F800B130F9004D
:102672005F08013EFA006F08B33E9531B9259231E9
:10268200EF0780309E31CE26923120006F089F31B5
:10269200B227923195318B2592319F3106279231A3
:1026A200182B5E0A031908005E089B31852BF21372
:1026B2007213EC12F2120800C0309E31CE26933112
:1026C2001E30F800B230F900B330FA01B9259F315B
:1026D200982793318B2D5E30860001308700E030E1
:1026E2008400003085000630DE0016001A00DE0B82
:1026F200762B2100B330E701E801E901ED019F31BA
:10270200B82793319F3110279331FC30F800B13054
:10271200F900B330FA01B9250330FA00C830883124
:10272200422093312100EA00B8279331200064301F
:102732006C10FB00ED010230EE006D086E0403190F
:102742004D2CF21121006A080319352C20006C1857
:10275200C82B7B08031DC82B6C142100EB01C3306E
:10276200F9006B08D9279331D8269331031CC22B69
:1027720021006B35E03E860087014308C03F4408D4
:10278200C13F21000330EB0A6B02031CB02BF601A0
:1027920021006A08FF3EF700ED309F312327933175
:1027A200721FE42B21006D08E73E8600043087018A
:1027B200810A0106031DE12B6D08E73E86008101B7
:1027C2009F31CF27933120006C1C122C21006D35D4
:1027D200E03E86008701403F2200EB00413FEC00D3
:1027E20020000330D601D60AAE319C269331210057
:1027F200E60020302000C800210066082000C90041
:102802000430CA00B3309F31812793318C309E311E
:10281200CE26933104302000AE00C12793318B25A0
:102822009331B330F60021006D08D9279331DE27AA
:1028320093313F30F800B230F9006D08E73E860070
:1028420087010108013EFA00BF30B925EF002030B0
:10285200C8006F08C9000430CA00BF309F31812709
:102862009331933158239331C0309E31CE26933128
:1028720010302000AE00C12793318B2593314A2CB2
:102882006D086E0403199E2B7B08031D4A2C6C1CD9
:102892009E2BF21D412C9E2B2100EC016C08E73E81
:1028A20086008701010803196D2C6C0809070907C6
:1028B2000907C83E2000A000A10121006C08E73EE4
:1028C20086000108090709070907683E2000A200DF
:1028D2000830A3007424933121000330EC0A6C0207
:1028E200031808004F2CF8018B1F7A2CF801F80A04
:1028F2008B13F9012308790203188F2C2008860014
:10290200210887000108F60022087907BF269331C3
:102912002000A00A0319A10AF90A7B2C780B0800EF
:102922008B1708002000E500E51F992C01309A2C36
:102932000030E1000F30E5056508A3000330A40173
:10294200A500A601AA269331240885002308840045
:10295200E1308407B130853D003FE200013FE300F2
:10296200023FE4006108031DDA2C80309E31CE263E
:1029720093318730F800B230F900B330FA01B9254B
:102982009F31982793318B25C0309E31CE269331CB
:1029920020006508313E2100B3002E30B400C62766
:1029A2009331B530B925023E9F31982793318B255B
:1029B2009331721BDF2C61080319080072136B2616
:1029C2009F31CF2793316D086E040319012DF21147
:1029D20080309E31CE269331C6279331B330B9254C
:1029E2009F31982793318B250130623E8600870103
:1029F200413F8A00403F0A009F3106279331E42C71
:102A0200F2150800D501ED010230EE006D086E04EA
:102A12000319862DF2110F30F601F70055309F3160
:102A220023279331721F282D01302000D200D301B9
:102A320055080F3C890A1F2DD235D30D890B1D2D48
:102A42005208CE065308CF06ED010230EE000C30DC
:102A52009E31CE26933130302000C8004E08C1008E
:102A62004F08C2000230C301C401C500B3309E3119
:102A7200EA2693319F31F82793319F318127933191
:102A82005508B33E860087010108D13ED400C0300C
:102A92009E31CE26933110302000AE00C1279331F3
:102AA2008B25B3309F31B82793319F311027933153
:102AB2005108F9005008F8005508013EFA00B330F9
:102AC200B9259331EF006F0803196F2D9330F80089
:102AD200B230F9005408FA00BF30B92580309E3177
:102AE200CE26933110302000AE00C12793318B25C2
:102AF2005508C03E9E31CE2693310F309E31CE26F0
:102B020093319F3106279331072D0C309E31CE260B
:102B1200F2150800B600B2012E082F02B400300BE5
:102B2200942DB401982D033030060319B4363408BD
:102B32002E07B300B5012F08350203180800340828
:102B42003502031CA82D33083502031CAC2D20309E
:102B520078269331B62D32083607B10086008701F8
:102B62000108782693312000B20A2000B50A9C2D74
:102B72002000A5007A080319C22DCE279331A200A6
:102B8200C32DA201A3012208A4007A080319E52D8E
:102B92007908A1007808A000F80A0319F90A84004C
:102BA2002108850000082406031DC62DFA03C62D40
:102BB2007A082507A00086008701CE27933181007D
:102BC200F80A0319F90AFA0ACE2793312406031DDB
:102BD200D92D7A0808008E148E1502302000A30029
:102BE2004530A200A930890BF42DA20BF42DA30BC2
:102BF200F42D003208302000AF0004302F020318F9
:102C0200052E3030AC00062EAC01AD012C08612639
:102C1200933103302F02031C182E1B302000A20018
:102C22009E30890B122EA20B122E00001C2EA630F3
:102C3200890B192E00322000AF03031DFE2D023036
:102C42009E31CE26933128309E31CE2693310830E4
:102C52009E31CE26933117309E31CE2693316B268C
:102C62000C309E31CE26933106309E31CE269331E2
:102C72002000B00130080739031D532E3008F839FF
:102C820040389E31CE2693312430F7000030F800D0
:102C920020003008883EF9000830FA00852693317A
:102CA2002430AE002E088600870101087826933171
:102CB20020004030AE0AB00A3002031808003B2E52
:102CC200F700F039F6000E080F3976048E008E15E3
:102CD2008E11080001309E31CE2693310F30F9005B
:102CE2000530890B722EF90B722E00000800F800D5
:102CF2008E1461269331780EF03961269331583063
:102D0200890B812E00000800A1017A082102031814
:102D12000800790821079B2693312000A00077083C
:102D220086007808870020088100F70A0319F80A4C
:102D3200A10A862EF6009E2E20006400230095181C
:102D42009D2E7608910092013F30950515141308C7
:102D52000800A701A801231CB22E2508A7072608F0
:102D6200A83DA535A60DA436A30C23082404031DF3
:102D7200AC2E2808A4002708A3000800F7002300AF
:102D82009518C02E770891009201760893003F3083
:102D9200950503108B1B03148B13151555309600E4
:102DA200AA3096009514151103188B1708002000FD
:102DB200AE00772793310318E02E03100800553038
:102DC2002527933120002E08B200B1013208860077
:102DD200870101082527933120000830B20AB10A81
:102DE2003102031CE72EBE30252793312530200007
:102DF200B200AF01B00120003208860087015327DC
:102E0200933181002000B20AAF0A0319B00A3008D8
:102E1200803AFA0080307A02031D112F09302F0206
:102E2200031CFC2E79088600870120002508C03F7C
:102E32002608C13F0830F6002530322793312D068F
:102E4200031DDE2E03140800F700F801770801398C
:102E5200992793310830F736F80A780203180800E8
:102E6200272FA000A4014E2F200886008701010809
:102E7200A1000830A00AA200220803194E2F24083C
:102E82002106A3000130A305A436230803194B2F02
:102E92008C30A406A136A2033D2FF603760F352F00
:102EA20024080800F701F801F73661279331031867
:102EB200F7170830F80A7802031C552F7708080024
:102EC200D427933100320032000021008C160830E2
:102ED200890B692F0000003020008C1A0130F600A7
:102EE2005B30890B722F0032760C0800D4279331A5
:102EF2000430F6001C30890B7C2FF60B7C2F00323D
:102F020021008C167430890B842F003203102000AC
:102F12008C1E0314003003180130F7000330F60052
:102F2200A830890B922FF60B922F0032770C0800F3
:102F3200F6000130F60576080319AB2FD42793313A
:102F42000830890BA22F000021008C166430890BF7
:102F5200A82F0800D42793317430890BAE2F00328A
:102F620021008C160330890BB42F0000080077274C
:102F72009331031C0800CC30252793314430252F90
:102F8200AF00B330B001B00A08000030F800B03032
:102F9200F90020006208FA00080078088400790825
:102FA20085000008080021008C1220008C12080005
:102FB200090709070907C83E0800F7001030F800A2
:102FC200F80BE42F08007708860087010108F90052
:102FD200781CEF2F0F30F90EF905F02FF70A0F309A
:102FE200F9050A3079027608860087017908031C00
:0E2FF200FC2F373EFD2F303E8100F60AE12F06
:10370A00DC008030CE265E30F800B230F900B330EB
:10371A00FA019531B9259B31B22795318B259B3119
:10372A00F11171112200B401B5017013F0129F2733
:10373A009B315C08090709070907A03E8600023089
:10374A008700A9279B31AD249B3129082200B900A3
:10375A00200028082200B8009F279B315C0809072F
:10376A0009070907A43E860002308700A9279B3172
:10377A00AD249B3129082200B70020002808220026
:10378A00B600B330F6000030F7003D30F8001030D4
:10379A00F90010279B31ED010630EE00FB01A22C47
:1037AA006D086E04031DF218F22B7B08031DA22C70
:1037BA001930FB00C030CE265B30F600F70120003E
:1037CA006E08F9006D08F800AF317D279B31760845
:1037DA00982795318B259B31A22C6D086E0403190D
:1037EA00692C711DF118012C0030ED000C30EE002F
:1037FA00F11496316B269B31220035082000CF0048
:10380A00220034082000FC279B3138279B31EE2701
:10381A009B31DF269B31EF072030C8006F08F8275D
:10382A009B3181279B31F01B1D2CDA01DB01512CC6
:10383A00220045082000A800220046082000A9000E
:10384A008630AA01AB01AF001C30AE004630AD0095
:10385A008030AC00AD249B312B08D9002A08D8004F
:10386A002908D7002808D600210026082000A80029
:10387A00210027082000A900AA01AB015908AF00BE
:10388A005808AE005708AD005608AC00AD249B316D
:10389A002908DB002808DA005A08C1005B08C0279B
:1038AA009B31EA269B31EF00A601A60ADF269B314F
:1038BA00C030CE2610302000AE00AF000330B0007A
:1038CA00B33095318B259B316D086E04031D711938
:1038DA00742C0430FB007B080319A22C702C71197C
:1038EA00701B792C7017A22CF1106D086E04031D41
:1038FA008E2CC030CE26C130F800B230F900B33079
:10390A00FA019531B9259B31B22795318B259B3127
:10391A00922C5C0892317A229B3102302100EF000E
:10392A002000ED010430EE009D2CF21F721BA12C29
:10393A006D086E04031D9A2CF016F01EF21BA72CBC
:10394A00721FD52BF110F2137213EC12F212080047
:10395A00B001B101B201B3012B082A0429042804D9
:10396A000319E32CB401B40AAB1BC02CA835A90D6A
:10397A00AA0DAB0DB82CB035B10DB20DB30D2B0895
:10398A002F02031DD22C2A082E02031DD22C29082D
:10399A002D02031DD22C28082C02031CDD2C28081A
:1039AA00AC022908AD3B2A08AE3B2B08AF3B3014CA
:1039BA00AB36AA0CA90CA80CB40BC02C3308AB006C
:1039CA003208AA003108A9003008A8000800F01837
:1039DA00F02CEC1508008030CE269B31E12795317A
:1039EA00B9259B31982795318B259B31B330B82760
:1039FA009B3110279B31C030CE2610302000AE00FC
:103A0A009731C1279B3195318B259B31721F080055
:103A1A0072132100EA01CF279B316D086E04031946
:103A2A00CA2EF2110330F601F700EA3023279B3140
:103A3A008030CE269B31E1279531B9259B319827D5
:103A4A0095318B259B31C030CE2621006A08313E44
:103A5A00B3002E30B4007A30F800B130F9006A08A9
:103A6A00013EFA00B5309531B9259B31023E9827BF
:103A7A0095318B259B31721FC22E721321006A3534
:103A8A00D33E8600013087000108E8006A35D43E3B
:103A9A0086000108E500E9016909E1000330E40153
:103AAA006A0603195B2D0230DB005C2DDB01DC01A9
:103ABA005B08DA00CF279B316D086E040319BE2E0E
:103ACA00F2112100680A03198E2EF6016508FF3EDD
:103ADA00F700E93023279B312100610869060319A1
:103AEA00D22D690868026507E30069086802031CA9
:103AFA00802D6508E30203306A06031DA02D6908BC
:103B0A000319892D63088A2D6808DD00C830DE0193
:103B1A00E8279B315D08F32786312D269B312A0839
:103B2A00B5002908B4000A30B600A43174249B31C8
:103B3A00C830E600BB2D69080319A52D6308A62D18
:103B4A006808DF00C830E001E8279B315F08F327E7
:103B5A0086312D269B312A08B5002908B400123077
:103B6A00B600A43174249B31C830E700013EE2005C
:103B7A00A53048060319C62D69080319C62DE9019F
:103B8A00802DE4016908E100A53048060319D22D09
:103B9A006908031DD22DFF30E800680A03198E2E2A
:103BAA008030CE26210062082000AA00B330A3315B
:103BBA00A2239B31982795318B259B31721FEE2DBD
:103BCA00ED010230EE002100E40A64085A02031CE7
:103BDA00E401033021006A06031D372E6608063EFB
:103BEA0086008701C6279B31B330EA269B31EF0056
:103BFA00B33E86002D3087018100EF0A2100660856
:103C0A00073E8600C6279B316F08B33EEA269B31E2
:103C1A00EF07C030CE2620006F08AE00083097317B
:103C2A00C1279B3195318B259B3121006608083EBF
:103C3A0086008701403F2000CE00413FCF0002307E
:103C4A00D000B33038279B31EE279B31DF269B31DA
:103C5A00EF07C830CE268A310B229B3195318B254E
:103C6A009B318E2EC030CE269B31792E21006708DB
:103C7A00063E2000D600D701D801D80AAD31DC258E
:103C8A009B3121006708063E2000D6000230D7018A
:103C9A00D800AC31EE249B318E2E21006708063EF7
:103CAA002000D600D701D801D80AAD3167259B314B
:103CBA0021006708063E2000C8000230C901CA0078
:103CCA00AD31F5259B318E2E21006708063E200076
:103CDA00D600D701D801D80AAF31A3279B31DB27F9
:103CEA0095318B259B318E2E210064082000DF0040
:103CFA00E0016008003A0319832E8E2E5F08003A0D
:103D0A0003193B2E013A0319522E033A0319692E5D
:103D1A008E2E2100680FB52E8030CE267A30F8001C
:103D2A00B130F90021006A08013EFA00B33095313A
:103D3A00B9259B31982795318B259B31C030CE26EA
:103D4A009E30F800B230F900B330FA019531B92546
:103D5A009B31982795318B259B31721BB72EBB2E31
:103D6A00F21EBB2E2000ED01EE01F21506279B3153
:103D7A00612DED010230EE00C72EF21EC72EED01B5
:103D8A00EE01F21506279B31122DF2152100C6010C
:103D9A000800F80020008E107808963161269B31C1
:103DAA00780EF039963161269B315830890BDB2E1B
:103DBA0000000800A700A330F800B130F900260877
:103DCA00FA002708B33E9531B92DC7004408B80058
:103DDA004308B7004208B6004108B5004508B900D3
:103DEA00BA014708873139279B31C601C60A4608F6
:103DFA004707FA00860087010108031DFB2E4608C3
:103E0A000800873114279B31F21908006D086E04E7
:103E1A0003190800092F77082000A1007608A000DE
:103E2A00F903790F192F0800200886002108870056
:103E3A0078088100A00A0319A10A152FF900860043
:103E4A0087010108F800F21F322FF80A770A78066C
:103E5A00031D312F7608F800CF27790886008701DD
:103E6A00780881000800D5004E08C1004F08C2003A
:103E7A000A30C301C401C5005508EA269B31D400A3
:103E8A005008013ED100003003180130D200803AB8
:103E9A00803C031D522F510854020318622F303000
:103EAA002000C8005408C9005008013ECA0055083D
:103EBA0081279B315008013ED40020005408D300CA
:103ECA00742F53085507D1008600870153085507F8
:103EDA00D200FF3E8400850100088100D303D0038D
:103EEA00500F662F53085507D10086002E308701E0
:103EFA0081005408013E0800CD0049080319942F97
:103F0A00D4279B31C90349084D07CC008400850199
:103F1A0000088100822FD4279B31480881004A0873
:103F2A0003190800902FAE001030AF00B330B00173
:103F3A00B00A080045082000A80022004608200010
:103F4A00A900AA01AB010800403FAC00413FAD0007
:103F5A00423FAE00433FAF000800AE001030AF0052
:103F6A000330B000B334F6000030F7002030F80018
:103F7A001030F9000800C2000A30C301C401C500AC
:103F8A00B33401082000C1000A30C201C301C401D0
:103F9A00C50008002000ED010230EE000800CA0347
:103FAA004A084D07CB008600870108000830AE0199
:103FBA00AF000230B000B3344F30F800B230F9002D
:103FCA00B330FA0108002000B2000030B30021002B
:103FDA000800EF000930A6006F0808002000A900B9
:103FEA0021006A080800C9001030CA00B334CE00A4
:063FFA000230D000B334D8
:10472C005A27A331D0302E27A3310E302E27A33198
:10473C003C302E27A331392DAC00AD012A08860060
:10474C008701423FA8002C085A26A331CF27A3315A
:10475C002E30EB27A331433FA8002C082D075A26F7
:10476C00A331CF27A3312E30EB27A331443FA80030
:10477C002C082D075A26A331CF27A33120308701CF
:10478C008100D627A331D627A331AD0A2A0886008B
:10479C00413FA8002C082D075A26A331CF27A3315F
:1047AC003A30EB27A3310108A8002C082D075A2614
:1047BC00AD0AAD0A2D080800B901BA01BA0A052CD8
:1047CC005A27A33120003508B8003408B700073049
:1047DC00B836B70C890BEE2B37080E39A0382E27BC
:1047EC00A331BA003A03031D052C07302000B70093
:1047FC007D30890BFF2BB70BFF2B2000B90A3A0B2E
:10480C000B2C0A303902031CE62B3A08031D272C0B
:10481C0034082E27A33136080319282C32088600B9
:10482C003308870001082E27A331B20A0319B30AF3
:10483C00B603B40A0319B50A34080F390319282C26
:10484C00112CB6013925A3312000360803190800B4
:10485C00E22B2000A7005A27A331D0302E27A331FA
:10486C0011302E27A3310530890B3A2C00325A27F0
:10487C00A331D1302E27A33100302625A331A80037
:10488C0001302625A331A600280A03196C2C260E0C
:10489C000F39A000A1012808A200F030A301A20E3C
:1048AC00A30EA30522080F39A304F030A20520089B
:1048BC002204A40021082304A50027088600013047
:1048CC0087002408C03F2508C13F732C27088600A9
:1048DC00013087008130C03FC13F392DB901BA0189
:1048EC00BA0A8D2C5A27A331C227A331A0382E2700
:1048FC00A331BA003A03031D8D2C07302000B700FA
:10490C007D30890B872CB70B872C2000B90A3A0B0A
:10491C00932C0A303902031C782C3A08031DB52C51
:10492C0034082E27A3310530890B9A2C00325A27D4
:10493C00A331C227A331A1382E27A331AD2C0030CF
:10494C002625A331E327A331B20A0319B30AB60B08
:10495C00A52C01302625A331E327A331C02C330825
:10496C00F7003208F600FF30F8003608F9009F31E6
:10497C001027A331392D2000A1005A27A331D030A4
:10498C002E27A33100302E27A3310530890BCC2CD8
:10499C0000325A27A331D1302E27A33100302625DF
:1049AC00A331A0002108F127A3312625A3318100D2
:1049BC00210AF127A3312625A33181002108023ECB
:1049CC00F127A3312625A33181002108033EF127CD
:1049DC00A3312625A33181002108043EF127A33100
:1049EC002625A33181002108053E86000130870071
:1049FC002625A33181003925A3312000A01F0800F2
:104A0C00210886000130870011308100210A8600C0
:104A1C00093081002108023E86008101810A2108AB
:104A2C00033E8600173081002108043E86000730C3
:104A3C0081002108053E8600223081002108FF2ECE
:104A4C00F7000830F800F901F9356327A331F904B0
:104A5C00F80B2A2D77084227003200320000200084
:104A6C008D1079080800FB27A3310530890B3C2DEC
:104A7C00003220008D140032000021000D140800BB
:104A8C000826A3310D302000B700B230B800102634
:104A9C00A331003A0319DB2DC00196316B26A331EB
:104AAC009F31CF27A3316D086E040319D32DF2115A
:104ABC000630F601F70040309F312327A331721BDB
:104ACC00862DBA2D5030BF0017306F2D4F30BF00E0
:104ADC003B30BD01842D5230BF001F30822D53302E
:104AEC00BF000C30822D5430BF001630BD0020307A
:104AFC00842D5130BF000730BD01BD0ABE00992D79
:104B0C0020004008BB00BC013C08003A03198F2D63
:104B1C00992D3B088400063004020318992D90311E
:104B2C000435123E82003F088600013087003D08A4
:104B3C00A8003E08A9003F08840001308500000849
:104B4C00A526A3318100023040060319B52D033090
:104B5C0040060319B52D04304006031DB72D4F3008
:104B6C00B326ED010230EE000C309E31CE26A3317F
:104B7C004F30DD254008D73E8400B2300318013E8B
:104B8C00850000089E31CE26A3310F309E31CE26F3
:104B9C00A3319F310627A331592D0C309E31CE26DF
:104BAC00A3314F30FF26F21208004F30DD2D2000CC
:104BBC00BA0080309E31CE26A331F527A3310108EF
:104BCC00B700B801B80A3A0A8600010843268830B3
:104BDC009E31CE26A331F527A331443FB7003A08C6
:104BEC008600453FB8003A08033E86000108692656
:104BFC00C0309E31CE26A33120003A08023EDE277B
:104C0C00A331B32F21002D08031D08000530AD0082
:104C1C004F30C12CB901F21E412E93315823A331D0
:104C2C0096316B26A33180309E31CE26A3312000E5
:104C3C003808F9003708F800B330FA019531B92576
:104C4C00A3319F31B227A33195318B25A331ED01CF
:104C5C000230EE00342EF21F721B382E6D086E04DB
:104C6C00031D312E721F3C2EB901B90AF2137213B7
:104C7C00EC12F212F215390808002000B900A80055
:104C8C00B3305A26A3313A302100B5002000370842
:104C9C00A800B6305A260530AE000830AF003808F0
:104CAC00B000B33095318B2DA900290A86008701FD
:104CBC0028080F39303E810029088600280E0F394C
:104CCC00303E81000800B900390803196F2E390FE6
:104CDC00792EB030F800B230F900B330FA019531CA
:104CEC00B925A331912E3908A800B3305A26A33127
:104CFC004930F800B130F90037089726FA00B53082
:104D0C009531B925A33127302100B800200038088F
:104D1C00A800B9305A260830AE009731C12795311A
:104D2C008B2DF700F6000F30F6057830F736F705C7
:104D3C007708F607F736F736760877070800AB00E2
:104D4C009726A331AC00AC0AAA0029082A02031C3E
:104D5C00B12E2808AC002C08762FAF004A30860004
:104D6C000230870020308400003085000C30F800C1
:104D7C0016001A00F80BBE2E2F08053EDE27A331B5
:104D8C009726A331AD002F08043EDE27A3319726CA
:104D9C00A331AC002D08AE002D08F800F836F8361B
:104DAC007808AE072F08033EDE27A3319726A331E0
:104DBC00AE072C08FF3E203E860087010108AE0797
:104DCC002D080339031DEF2E03302C020318EF2E90
:104DDC00AE0307302E02031CF62E0730AE02EF2E68
:104DEC002F08023E8600013087002E08013E81000C
:104DFC000800F9005A27A331D0302E27A3310030F8
:104E0C002E27A33100302E27A3317908DE27A331BA
:104E1C002E27A331790ADE27A3312E27A331790857
:104E2C00023EDE27A3312E27A3317908033EDE276D
:104E3C00A3312E27A3317908043EDE27A3312E2778
:104E4C00A3317908053EDE27A3312E27A331392D56
:104E5C00F7008030F800770878054227A331F83640
:104E6C007808031D312F6327F80000320032000050
:104E7C0020008D1078080800F60020008D1021000D
:104E8C000D107608031D4D2F20000D104F2F200004
:104E9C000D140530890B502F003220008D14033077
:104EAC00890B562F0000080020008D14FB27A3311E
:104EBC000530890B5F2F0032080020008D10053063
:104ECC00890B662F003221000D1420008D14033045
:104EDC00890B6E2F0000003020000D1801300800E7
:104EEC00A500A6000A30A701F600F7012708F90073
:104EFC002608F80093277608A3007708A4000A3048
:104F0C00F600F7012708F9002608F800AF317D27D5
:104F1C007608890EF0392307080076087704031900
:104F2C00AE2FFA01FA0AF71B9E2FF635F70D982FC4
:104F3C0077087902031DA42F76087802031CAA2F88
:104F4C007608F8027708F93BF736F60CFA0B9E2F29
:104F5C007908F7007808F6000800B7000F30F80061
:104F6C00B130F9003708FA00B3309531B925A331C7
:104F7C009F31982795318B2D20003508B8003408C7
:104F8C00B7000730B836B70C890BC82F37080E3965
:104F9C000800AD0AAD0A2D082C07AB0086000800EE
:104FAC00AD0A2D082C07AB008600203081000800CC
:104FBC0086000130870001080800B700320886001F
:104FCC003308870037088100080087018100AD0A8B
:104FDC002A08860008008600013087000034200073
:104FEC003A08860001308700080021000D102000CF
:044FFC000D1008008C
:10587A000430DF00AC307D2C0330DF00A0307D2CFB
:10588A002200CA184C2C2000E301E30A4F2C0230F4
:10589A002000E3006308DF00B8307D2CD8001930FF
:1058AA00F600F701220059082000D7002200580804
:1058BA002000D600D635D70DD635D70D5608F800B4
:1058CA005708F9007D277708DA007608D9005A08C0
:1058DA00CF0059089F31FC27AC319F313827AC31B2
:1058EA00EF000C30B7005808B8006F088C31FC2C58
:1058FA00E200DD30F800B230F900B330FA01953138
:10590A00B925AC31EF007A30F800B230F9005F08FF
:10591A00FA006F08B33E9531B925AC31EF078030F4
:10592A009E31CE26AC3120006F08AE000830973188
:10593A00C127AC3195318B25AC316208D6000130D4
:10594A00D7000230D800DC25C0309E31CE26AC31DB
:10595A00D02C6208D6000130D700D801D80AEE242C
:10596A00AC316208D6000130D7000230D800672572
:10597A00AC31E92C6208C8000130C900CA01CA0A60
:10598A00F525AC316208D6000130D7000230D800C4
:10599A00A327AC31E92C5D30F6000130F700023064
:1059AA00F8008931E821AC312000E000E10161080A
:1059BA00003A0319E12CE92C6008003A0319AE2CCD
:1059CA00013A0319BF2CE92C6208D4000030843153
:1059DA00882C5708B6005608B5003525AC3136086C
:1059EA00DE003508DD00DE27AC3100305A02053012
:1059FA0003195902031C082D00305E0203300319F3
:105A0A005D0203180D2DD7279531B925AC312D2DFF
:105A1A005D08A8005E08A900AA01AB01DE27AC3127
:105A2A005908A0005A08A1006430F4278E31CE2606
:105A3A00AC31BD279C31AD24AC312908DC002808E3
:105A4A00DB005C08CF005B08E8279F313827AC31C0
:105A5A00EF000330B7005808B8006F088C31FC2CEF
:105A6A003508860036088700403FA300413FFB27E0
:105A7A009631AA26AC312408BA002308B9002200BC
:105A8A009F319F27AC31350886003608870042319E
:105A9A00403FB700413FB8003708A0003808A100CE
:105AAA000A30F4278E31CE26AC31BD279C31AD2485
:105ABA002908BC002808BB003907B5003C083A3D54
:105ACA00B60008005708B6005608B5008825AC315C
:105ADA003608DA003508D9005A04031D792DD7276C
:105AEA009531B925AC31802D5A08CF005908E827DD
:105AFA009F313827AC31EF00B701B70A5808B80010
:105B0A006F088C31FC2CBF01C001ED27AC31B70006
:105B1A00413FB800423FB900433FBA003904380454
:105B2A0037040319D72D3508860036088700C6279B
:105B3A008E31CE26AC312308BE002208BD002108D2
:105B4A00BC002008BB0022009F319F27AC313508DA
:105B5A008600360887004231C6278E31CE26AC3100
:105B6A00BD279C31AD24AC312808BB072908BC3DB0
:105B7A002A08BD3D2B08BE3DED27A800413FA900DC
:105B8A00423FAA00433FAB003E08AF003D08AE00CB
:105B9A003C08AD003B08AC009C31AD242908C0008C
:105BAA002808BF004008B6003F08B500080057089B
:105BBA00B6005608B5003525AC313608DA00350886
:105BCA00D9005A08CF005908E8279F313827AC3145
:105BDA00EF000830B7005808B8006F088C31FC2C69
:105BEA001E30A800A901AA01AB014808860049088D
:105BFA00870048319F31A927AC319C31AD24AC31A3
:105C0A002908D0002808CF003C30F600F7015008D8
:105C1A00F9004F08F8007D277608CB007708CC00FA
:105C2A00CD01CE014E08C4004D08C3004C08C20085
:105C3A004B088F31EB27AC319E31EA26AC31EF00AD
:105C4A00B33E86003A30870181003C30EF0AF60005
:105C5A00F7015008F9004F08F800A7319327AC3133
:105C6A007608A7317627AC31A8006F08B33EA63173
:105C7A005A26EF0AEF0A6F08AE000830AF004A084A
:105C8A00B000B33095318B2D22004A1F4F2E2000D1
:105C9A00EC15080080309E31CE26AC31023020004F
:105CAA00D60080309C26C0309E31CE26AC310230E0
:105CBA002000D60081309C2688309E31CE26AC3119
:105CCA0020009F31DB27AC3195318B25AC31C830B0
:105CDA009E31CE26AC3102302000D6009C26AC3153
:105CEA006C1A7E2E033021002C02031C7E2E0230F9
:105CFA00AC00F21E0800F21280309E31CE26AC3182
:105D0A000030F800B030F9000630FA00B3309531AF
:105D1A00B925AC319F319827AC3195318B25AC31FF
:105D2A0093316C23AC3187311427F2150800200017
:105D3A00DD00DD1FA22E0130A32E0030DB000F3064
:105D4A00DD055D35653E860001308700403F210054
:105D5A00C300413FC4008130430681300319440621
:105D6A00031DCC2E023020005D060319C02E03301D
:105D7A005D06031DC72E2D302100B300B40002308A
:105D8A0020004B2FD7279531B925AC314B2F200056
:105D9A00DC012100C41FD92E2D30B300C309C40968
:105DAA00C30A0319C40AE12E023020005D06031952
:105DBA00E32E2B302100B3002000DC0A0F30210033
:105DCA0043052000A300200087313427AC319631E7
:105DDA00AA26AC312308D7002408D8000430D836C4
:105DEA00D70C890BF42E2100430E0F392000A30093
:105DFA002100440EF0392000A3042100440E0F397B
:105E0A002000FB279631AA26AC3157082307210028
:105E1A00C30020005808243D2100C400023020009D
:105E2A005D0603191C2F03305D06031D3C2F0A3043
:105E3A00F600F70121004408F9004308F8007D271D
:105E4A007608D7007708D800D901DA015A08C400C1
:105E5A005908C3005808C2005708C1000A30C500D3
:105E6A005C08B33E9E31EA26AC315C074B2F210019
:105E7A0044082000CF00210043082000CE00B4309F
:105E8A00D001D00A9F313827AC31013EEF005B08C0
:105E9A000319672F2030C8006F08C9000830CA00EC
:105EAA00B3309F318127AC313F30F800B230F9006E
:105EBA005D08023EFA00B3309531B925AC3108309D
:105ECA00EF00722F03305D060319722F0A30A60005
:105EDA006F089E31DF26AC31EF076F08AE0008303D
:105EEA00AF005608B000B33095318B256F08080013
:105EFA002000A101A2017608770403199E2FA001B0
:105F0A00A00AF71B8B2FF635F70D852FA135A20DA9
:105F1A0077087902031D932F76087802031C9A2FBB
:105F2A007608F8027708F93B2114F736F60CA00B2D
:105F3A008B2F2208F7002108F60008000A30F60025
:105F4A00F70156088600570887004631403FF80097
:105F5A00413FF9007D278F31E327AC319F31382744
:105F6A00EF000630B7005808B8006F088C31FC2CD7
:105F7A002308AF002208AE002108AD002008AC00BB
:105F8A000800403FB700413FB8003708A000380872
:105F9A00A1004630A201A301A701A601A500503025
:105FAA00A4000800E330F800B230F900B330FA0177
:105FBA00080056088600570887004631403FD90036
:105FCA00413FDA000800CE00B330D001D00A080001
:105FDA0035088600360887004831403F0800A2018C
:105FEA00A301A400A501A601A7010800A4000A3084
:105FFA00A500A601080000344634553445344C3413
:10600A00203463346F346E347334743461346E34D0
:10601A0074340034563453345334203463346F3474
:10602A006E347334743461346E34743400347434BA
:10603A006F34743461346C34203474347234693497
:10604A007034003476346F346C34743461346734A9
:10605A0065342034613464346A3475347334743486
:10606A000034733465347434743469346E34673488
:10607A0073342034623469347434733400347434BD
:10608A0065346D3470342034733465346E3473344B
:10609A006F34723473340034733465347234763442
:1060AA00693463346534203463346E34743472343E
:1060BA00733400346D3469346E342034733470347C
:1060CA006534653464340034733477342034763478
:1060DA0065347234733469346F346E340034003486
:1060EA0070346134693472342F34703461347234E8
:1060FA00203469346E346A34003473346B3469344E
:10610A0070342034743465346D34703400346B3434
:10611A0065347934203473346F3475346E346434AE
:10612A0000347334653472347634203461346C3418
:10613A00613472346D34003400346D346834203480
:10614A00723470346D3400346434613469346C34BC
:10615A0079342034743472346934703400346934D4
:10616A006E342F346F347534743420347434653497
:10617A006D34703400346434733433343234333429
:10618A0031342034743465346D347034003400345E
:10619A0000340034003400340034003400346534F0
:1061AA006E34673469346E346534203468346F343D
:1061BA00753472347334003465346E346734693438
:1061CA006E34653420346F3469346C340034673487
:1061DA0065346134723462346F34783420346F3405
:1061EA0069346C340034613469347234203466346E
:1061FA0069346C34743465347234003473347034F2
:10620A00613472346B34203470346C3475346734CE
:10621A00733400340034733475346E346434613446
:10622A00793400346D346F346E34643461347934C3
:10623A0000347434753465347334643461347934B5
:10624A0000347734653464346E34653473346434BA
:10625A006134793400347434683475347234733484
:10626A0064346134793400346634723469346434A1
:10627A00613479340034733461347434753472346B
:10628A00643461347934003400346A3461346E34ED
:10629A00003466346534623400346D3461347234E7
:1062AA00003461347034723400346D3461347934BA
:1062BA0000346A3475346E3400346A3475346C349C
:1062CA00003461347534673400347334653470349F
:1062DA0000346F346334743400346E346F3476347B
:1062EA000034643465346334003400346334753400
:1062FA007234723465346E347434203474347234C3
:10630A00693470340034743472346934703420342B
:10631A004134003474347234693470342034423471
:10632A00003461346334633465346C3420346C343F
:10633A006F3467346734653472340034FF340034A0
:10634A000134FF3402340334FF3404340534FF3497
:10635A0006340734FF346834FF346C34FF3456345F
:10636A00FF346B346D34FF347334FF34DF34FF345D
:10637A003C34FF346D347334FF34FF34003420343A
:10638A0030342D3431343034303400342034303425
:10639A002D343634303400342034363430342D340D
:1063AA0031343034303400342034383430342D34FD
:1063BA003134323430340034013461340B34023431
:1063CA006D340B34033419340834043483340B34F5
:1063DA00053463341234083455340B3406346C34BF
:1063EA001334073452340D3409345D3413346E34A3
:1063FA006F342034733465346E3473346F347234CA
:10640A007334203466346F3475346E346434003433
:10641A00743469346D346534203463346F347234BF
:10642A00723465346334743469346F346E343F348F
:10643A000034303439343A3431343134203431345C
:10644A0037342E34303437342E3432343034323414
:10645A003234003492340B3445342C3449342E34DB
:10646A0041342C343D342C34463425340A3409342E
:10647A00EC341C3400342D342D342D3400346F3474
:10648A0075347434003469346E34003465346E34CF
:10649A00673400346A346F34753472346E3461345C
:1064AA006C34203476346934653477346534723424
:1064BA0000347734613469347434203466346F3488
:1064CA007234203473347434613472347434003462
:1064DA0000341F343B345A3478349734B534D434C6
:1064EA00F334113430344E346D340034633475343B
:1064FA007234003464346134793400344134003401
:10650A004234003443344F344E34463449344734E9
:10651A0020344D3445344E3455340034003420345C
:10652A006F34663466340034203420346F346E3469
:10653A0000346E346F3420346934743465346D3405
:10654A00733400344A344F34553452345434523448
:10655A004934503400342D342D342D342D342D3417
:10656A0027342D342D3400345734413452344E34C8
:10657A0049344E3447340034743469346D346534E4
:10658A006F34753474340034743469346D34693456
:10659A006E34673400347234653473346534743459
:1065AA003F3400348134843489348C348F34C03499
:1065BA007434723469347034203400342D342D34F8
:0665CA002D342D340034D5
:020000040001F9
:04000E00C23FFF1ED0
:10E000009A00CB0004000000CC0000006C003E0031
:10E010006E00B3000000E2001300050000000000E5
:10E02000090000006300250018000E0059000000E0
:10E03000AD000100000000000600010036002400D1
:10E04000740042001E000C00E6003D0000000000CD
:10E0500038000000720010004A001B004A00020055
:10E06000DB000A0000000000250018001600070071
:10E0700022009400030000000000000000000000E7
:10E08000E4001F00060000000B009800FA000000EA
:10E0900000000000AE0017000A001300110021006C
:10E0A0000000000064001800280007001100210093
:10E0B00000000000CB002A000A002100030020001D
:10E0C00000000000360036000A00070001002100B1
:10E0D0000000FF0000000000000000000000000041
:10E0E00028008A0009009500F00001003C00FC00B7
:10E0F000FF00FF00FF00FF00FF00FF00FF00FF0028
:10E10000FF00FF00FF00FF00FF00FF00FF00FF0017
:10E1100005000600050000000000000001000200EC
:10E120000A0015001500000010000500070001009E
:10E1300007000500070000000000010002000000C9
:10E14000000000000800100000000A001500150083
:10E150000C00140014000100020005000100010081
:10E16000000000000000000000001F0015001F005C
:10E17000030005000500000000000100020000008F
:10E180000000000008001000000014001C00040043
:00000001FF
