:060000000A128A110E280D
:10000800FE00030EF7000408F8000A08F9000A16B3
:100018008A1584280A128A111128831603170630B4
:10002800CB000230CC00CD000530CE000030CF0030
:100038000330D0000530D1000130D2000430D300A5
:100048000630D4000230D5000430D6000130D70085
:10005800D800D900DA000430DB000130DC000330BE
:10006800DD00DE000230DF008130E000E100E20068
:10007800E300E400E5000313FF30EE00903083173F
:100088008400CB300A128A11E8270A128A1110302C
:10009800840040300A128A11E8270A128A11A03017
:1000A80083138400EE300A128A11E8278312EC01C8
:1000B800ED01EE01EF01FC01FD01F001F101F2019A
:1000C800F30183010A128A112B2EFF0000308A00E7
:1000D8007F0882076E280A168A1549280A128A1587
:1000E80048290A128A152B280A168A1564280A161E
:1000F8008A1530280A128A153C290A168A15392CBD
:100108000A128A150A2B0A128A15782A0A128A11E3
:100118009F280A168A117A2A0A128A1555280A125D
:100128008A11F62F0A128A11F02F0A168A112B2D1E
:100138000A128A11BA2A8316E218A6288312E30142
:10014800E30AA92802308312E3006308DF00B8300D
:10015800AD28E20080300A128A1555270A128A1142
:10016800653083120313A0009230A100C730A201AA
:100178000A128A1532250A128A11EE002130A000CF
:100188009230A1005F08A2006E08C73E0A128A15C5
:1001980032250A128A11EE076E08A9000830AA0053
:1001A800C730AB010A128A15DA240A128A11D30160
:1001B800D30A6208F125C0300A128A1555270A1297
:1001C8008A110229D30162081D210A128A11D3015A
:1001D800D30A620808220A128A111729CC01620878
:1001E8000A128A15D9210A128A11D301D30A620880
:1001F8000A128A1508200A128A1117290230FA00F1
:10020800ED307A250A128A11E000E1016108003A0E
:1002180003190F2917296008003A0319E628013A3B
:100228000319F22817296208B30000300A168A1544
:10023800D42FDA00B5210A128A113A08D9003908F0
:10024800D8005A08063E840083170008D400840AA0
:100258000008D50000305502053003195402031C6C
:100268003C29003059020330031958020318482961
:100278006B30A0009230A100C730A2010A128A1583
:1002880032250A128A117B295808AC005908AD009A
:10029800AE01AF015A08063E84000008D400840A63
:1002A8000008D5005408A0005508A1006430A20138
:1002B800A301A400A501A601A70182210A128A119F
:1002C8002308B3002208B2002108B1002008B000BA
:1002D800AE230A128A112D08D7002C08D600570819
:1002E800CD005608CC00C73097250A128A11EE00B7
:1002F8000330B0005308B1006E08E12DA801A90130
:10030800AA01AB01201C9C292408A8072508031171
:100318000318013E031DA907260803110318013E0F
:10032800031DAA07270803110318013E031DAB0785
:100338000310A40DA50DA60DA70D0310A30CA20C68
:10034800A10CA00C2308220421042004031D8629E3
:100358002B08A3002A08A2002908A1002808A00049
:100368000800BD00840083170008A700840A00085D
:10037800A8000A30A900AA01EF212808BA00270816
:10038800B90083160A168A15F1270A128A11AE01D6
:10039800AF013D08023E840083170008BB00840AB1
:1003A8000008BC003B08A0003C08A1000A30A201DC
:1003B800A301A400A501A601A70182210A168A119A
:1003C800C3270A128A11AE232C08B9070318BA0AE0
:1003D8002D08BA070800FA01FB01271CF92929088A
:1003E800FA070318FB0A2A08FB070310A90DAA0D30
:1003F8000310A80CA70C27082804031DF1297B0863
:10040800A8007A08A7000800DE00DC01DD01083E2C
:10041800840083170008D400840A0008D500840AE1
:100428000008D600840A0008D7005604550454046E
:1004380003199B2A5E0884000008D400840A000877
:10044800D5005408A0005508A1004630A201A30118
:10045800A701A601A5005030A40082210A128A1122
:100468002308DB002208DA002108D9002008D80078
:1004780083165D088312AC0083165E088312AD00F4
:10048800AE01AF015E08023E840083170008D40065
:10049800840A0008D5005408A0005508A100463079
:1004A800A201A301A701A601A5005030A400822142
:1004B8000A128A112308B3002208B2002108B100E9
:1004C8002008B000AE230A128A112C08D8072D087C
:1004D80003110318013E031DD9072E080311031841
:1004E800013E031DDA072F0803110318013E031DFF
:1004F800DB075E08083E840083170008AC00840A06
:100508000008AD00840A0008AE00840A0008AF00A5
:100518005B08B3005A08B2005908B1005808B00087
:10052800AE230A128A112D08DD002C08DC005C08B5
:100538005D04031DAB2A6B30A0009230A100C730C8
:10054800A2010A128A1532250A128A11B32A5D08F5
:10055800CD005C08CC00C73097250A128A11EE003E
:10056800B001B00A5308B1006E08E12D0530FA0059
:100578006F307A2580300A128A1555270A128A1197
:100588000A128A15EE270A128A116F08013EA20084
:10059800C7300A128A1532250A128A110A128A15D8
:1005A800DF270A128A110A128A15DA240A128A1116
:1005B8006F08031DE92A1A30D3007F230A128A1113
:1005C8007B08CE007A08CD00FA2A6F08CC00031009
:1005D800CC0D0310CC0D03104C0D123ED30084003B
:1005E80083170008CD00840A0008CE004D08C50016
:1005F8004E0820260A128A1573270A128A11EE005D
:100608006F080319092B08300A2B0530CF00A90001
:100618006E08F623EE076E08C73E84002030831369
:100628008000C030EE0A0A128A1555270A128A116C
:1006380016260A128A15DA240A128A115308033E6A
:10064800840083170008D000840A0008D100840AB7
:100658000008D200C8300A128A1555270A128A11D2
:10066800831203135108B0005208B10050080A164B
:100678008A1168260A128A115E30B0009230B100E1
:1006880002240A128A11003A031908003A30522447
:100698000A128A1183126F080319542B6F0B632BEC
:1006A800031714309001910192019301840083177C
:1006B8008001840A8001840A8001840A800103136E
:1006C8005308840083178001840A80015308033E7D
:1006D800840003173D08800003135308043E840078
:1006E80003173E08800003135308053E84000317D0
:1006F8003F088000080083160313621D932B8312A2
:100708000130AF01AE007730AD000430AC01103ECF
:1007180008260A128A11AE230A128A11262E83127B
:100728000730AF01AE01AD000830AC000317130865
:100738000313B300031712080313B20003171108B9
:100748000313B100031710080313B000AE230A12F5
:100758008A11262EB401B501B601B7012F082E045F
:100768002D042C040319ED2BB801B80AAF1BC22BBA
:100778000310AC0DAD0DAE0DAF0DB92B0310B40DBC
:10078800B50DB60DB70D2F083302031DD52B2E0856
:100798003202031DD52B2D083102031DD52B2C0841
:1007A8003002031CE72B2C08B0022D08031C2D0F68
:1007B800B1022E08031C2E0FB2022F08031C2F0FA4
:1007C800B30234140310AF0CAE0CAD0CAC0CB80B68
:1007D800C22B3708AF003608AE003508AD00340824
:1007E800AC000800AA00B330A0009130A10029088D
:1007F800A2002A08C73E0A128A15322DB201F31D3B
:100808003D2C7313F3127312F311402480300A1233
:100818008A1555270A128A11831203133008A0007B
:100828003108A100C730A2010A128A1532250A121E
:100838008A11A9001030AA000230AB00C7300A1292
:100848008A15DA240A128A11F2138316B3010230C8
:10085800B400312C731FF31A332CF21F2E2CF31E05
:10086800382C8312B201B20A7313F3127312F31104
:10087800F31483123208080001300A128A1555272A
:100888000A128A110F3083120313A3000430A20046
:10089800A20B4C2CA30B4C2C000008008312031352
:1008A800A50040250A128A11D03025250A128A117E
:1008B800003025250A128A11043083120313A3007D
:1008C800A30B642C672C40250A128A11D1302525E8
:1008D8000A128A110030CC240A128A11A4002508B1
:1008E80084000030CC240A128A1183178000250A5C
:1008F80084000030CC240A128A118317800025084E
:10090800023E84000030CC240A128A11831780002A
:100918002508033E84000030CC240A128A1183176C
:1009280080002508043E84000030CC240A128A1175
:10093800831780002508053E84008030CC240A12E5
:100948008A1183178000D2250A128A118312A41FE4
:10095800080025088400413083178000250A840098
:10096800103080002508023E8400053080002508EC
:10097800033E8400163080002508043E84000630BB
:1009880080002508053E8400223080002508E42CDC
:10099800A0000830A100A2010310A20D4D250A12E3
:1009A8008A11A204A10BD02C200861250A128A11F1
:1009B800DD2CDE2C000083120313861022080800A9
:1009C80083120313A20040250A128A11D03025256C
:1009D8000A128A11003025250A128A1100302525AD
:1009E8000A128A11220884008317000825250A1292
:1009F8008A11220A84008317000825250A128A1101
:100A08002208023E84008317000825250A128A114D
:100A18002208033E84008317000825250A128A113C
:100A28002208043E84008317000825250A128A112B
:100A38002208053E84008317000825250A128A111A
:100A4800D22D83120313A0008030A10020082105B5
:100A580061250A128A11831203130310A10C2108BD
:100A6800031D2A2D4D250A128A113A2D3B2D00000F
:100A78008312031386100800831203138614831647
:100A88000610831206100530FA00FA0B492D0000F3
:100A9800080086100530FA00FA0B502D0000831666
:100AA80003130614831286140330FA00FA0B5A2D26
:100AB80083120313060801390800FB008610831609
:100AC80006107B08031D6B2D831206106D2D8312F3
:100AD80006140530FA00FA0B6F2D00008312031379
:100AE80086140330FA00FA0B772D080083120313DB
:100AF800A000F31E892DF312840083130008013E21
:100B0800FB00200884007B088000200884007A0805
:100B18008313000220088400031C952D80012008FF
:100B2800840000080800D2004C08C5004D08C60023
:100B38000A30C701C801C90052080A128A1573276A
:100B48000A128A11D10000304D020A3003194C02F2
:100B58000318BB2D520884000008CE00520A8400F6
:100B68004E0880005208840030308000D10A5108B5
:100B78005207CE00FF3E84000008CF0051085207FC
:100B8800D00084004F08800051085207CE00FF3E75
:100B980084002E3080005108013E0800831606109C
:100BA800831206100530FA00FA0BD82D00008312C4
:100BB80003138614831606140800B2003008A9002F
:100BC8003208F623B2073208A9000830AA00310813
:100BD800AB00C7300A128A15DA2CD600B5210A12E2
:100BE8008A113A08D5003908D4005508CD005408B0
:100BF800CC00C73097250A128A11EE000830B000E1
:100C08005308B1006E08E12D840083170008B00076
:100C1800840A0008B100840A0008B200840A0008A7
:100C2800B3000800831203136E08A9000830AA0055
:100C3800C730AB01AB0A0800C6000A30C701C801BB
:100C4800C900C7342D08FB002C08FA0008000A1652
:100C58008A15D8250A128A118312031310148B17C8
:100C680070177018452E8316621E452E0A128A15B3
:100C7800E0200A128A11EB000A128A118C270A1244
:100C88008A117313F3127312F3114C2EF318512EA9
:100C980083162508260403194A2EF310721C592EB0
:100CA8000A168A157B230A128A11F31D872E701CD7
:100CB800721A712EF21A712E831203136D08031D16
:100CC800712E6D088316B70036088312ED00701474
:100CD8007313F3127312F311872E701C872E83126D
:100CE80003136D088316B60037088312ED007010E1
:100CF8007313F3127312F311D730D7260A168A1515
:100D080079250A128A1170189A2E07308316031350
:100D1800B500701F942E0A168A1527230A128A1105
:100D28000A168A1530270A128A119E2E0930831650
:100D38000313B500731FAE2E8316031335088312F1
:100D4800ED0A6D020318ED018316ED017313F3121A
:100D58007312F311701CB92E831203136D080A1253
:100D68008A158B220A128A11D42E711FC12E0330C4
:100D7800831203136D020318ED01831203136D0828
:100D8800243E840090300318013EFF000A168A11A1
:100D980000200A128A110A128A1169200A128A117D
:100DA800F318512ED42EA0001030A101A201A300E7
:100DB8000800C4003C08C2003B08C1003A08C00053
:100DC8003908BF003D08AC003E08AD00AE01AF01D8
:100DD8004208B3004108B2004008B1003F08B00023
:100DE8000A128A11AE230A128A112F08C2002E088D
:100DF800C1002D08C0002C08BF00C40A42084104E5
:100E080040043F04031DE62E440884008313800138
:100E1800C4033D08A0003E08A100A201A3013C08AC
:100E2800A7003B08A6003A08A5003908A4004E27E9
:100E38002008C3003D08AC003E08AD00AE01AF017C
:100E48003C08B3003B08B2003A08B1003908B000CA
:100E58000A128A11AE230A128A112F08BC002E0822
:100E6800BB002D08BA002C08B9000A304302031C45
:100E78003F2F0730C3073030C307440884004308B6
:100E880083138000C4033C083B043A043904031963
:100E980008000D2F23082204210420040319832F9E
:100EA800FA01FA0AA31B5E2F0310A00DA10DA20DD3
:100EB800A30D552F23082702031D6C2F2208260295
:100EC800031D6C2F21082502031D6C2F2008240206
:100ED800031C7D2F2008A4022108031C210FA50252
:100EE8002208031C220FA6022308031C230FA702B3
:100EF8000310A30CA20CA10CA00CFA0B5E2F270860
:100F0800A3002608A2002508A1002408A0000800C4
:100F1800B000B101301CDF2FDD307016F0118316E0
:100F2800BA0080300A128A1555270A128A114E30E3
:100F380083120313A0009230A100C730A2010A1245
:100F48008A1532250A128A110A128A15D1270A121D
:100F58008A110A128A15DA240A128A11C0300A1272
:100F68008A1555270A128A110A128A15EE270A12BB
:100F78008A113108013EA200C7300A128A153225AB
:100F88000A128A110A128A15D1270A128A110A121C
:100F98008A15DA240A128A110A128A15CA270A122D
:100FA8008A11D92F731FF31ADB2FF21FD62F731351
:100FB800F3127312F311831205300310B00CB10A47
:100FC8003102031808008E2F64008001840A040689
:100FD800031900340406E92F0430DF00AC300A128C
:100FE8008A11AD280330DF00A0300A128A11AD281B
:10101000D4000A30A000A1015408063E84008317C2
:101020000008A200840A0008A3000A168A11962468
:101030000A128A152108CD002008CC00C7300A12F8
:101040008A119725EE000630B0005308B1006E08F3
:101050000A128A11E12D83165A088312D6008316CC
:1010600059088312D500831658088312D4008316BA
:1010700057088312D3000F30DA01D9004230D8006C
:101080003F30D7000A128A15F32556088316DA0076
:10109000831255088316D900831254088316D8008A
:1010A000831253088316D70008008316621F5C283A
:1010B0008312ED0AF314080080300A128A155527AE
:1010C0000A128A15831203130030D301D30AD40104
:1010D000D40A0A168A11CD230A128A15C0300A12C0
:1010E0008A1555270A128A15831203130130D3017A
:1010F000D30AD401D40A0A168A11CD230A128A15FA
:10110000C8300A128A1555270A128A15831203134A
:101110000230D301D401D40A0A168A11CD237017E4
:10112000080083120313BA00B601B701B801B90170
:101130003A088400831300080319D7283A0884006A
:101140000008D03EB000FF3003180030B100300876
:10115000B2003108B300B401B5013908A300380862
:10116000A2003708A1003608A0000A30A400A5019B
:10117000A601A7010A128A1182210A128A152008E3
:10118000B20721080318210FB30722080318220F02
:10119000B40723080318230AB5073508B900340833
:1011A000B8003308B7003208B600BA0A98283908E0
:1011B000AF003808AE003708AD003608AC000800B4
:1011C0008312BB01BD013D08031D06290317180842
:1011D0001904031934290A128A117F230A128A1565
:1011E000031719087B02031DF72818087A02031C4D
:1011F000342901300313B9003D0A00290310B90D49
:10120000FF3E031DFE283908BB0434293D08B90000
:101210000310B90D0310B90D0310390D123EBC00B7
:10122000023E840083170008031934293C08023E5B
:1012300084000008A700E830A801A9000330AA0034
:101240000A128A11EF210A128A153C0884008317BA
:101250000008B900840A0008BA0028083A02031DF1
:10126000F72827083902F72803130530BD0A3D0285
:10127000031CE3283B0808000A30CC01CC0ACD014E
:10128000CD0ACE008316640854218316E4000800BA
:101290000D30CC00FF30CD01CD0ACE0083165F08A3
:1012A00054218316DF0008008312D3000A128A1526
:1012B000CA270A128A15F21BD529F310731F6E294B
:1012C0008312D30A4E08013E5306031D69294D08B7
:1012D000D3000A128A15CA270A128A15F31E7E291C
:1012E0008312D3034D08FF3E5306031D79294E0890
:1012F000D3000A128A15CA270A128A1508308312E7
:101300004C06031989295308CF00D001D101D2011D
:10131000A1295308A0000330A101A201A301A70144
:10132000A601A500E830A4000A128A1182210A123F
:101330008A152308D2002208D1002108D0002008F5
:10134000CF005208C8005108C7005008C6004F0817
:10135000C5000A30C900C7300A128A1573270A125D
:101360008A15EE004C08A9006E080A128A11F623AD
:101370000A128A15EE07C4300A128A1555270A1276
:101380008A150A128A1116260A128A150A128A1555
:10139000DA240A128A157313F3127312F311D22985
:1013A000F21B5B29F31CD0295B29F3148312530829
:1013B0000800D1001E30AC00AD01AE01AF015108F4
:1013C000083E0A128A1108260A128A150A128A1180
:1013D000AE230A128A152D08D3002C08D2003C3007
:1013E000A000A1015308A3005208A2000A168A1106
:1013F00096240A128A152008CD002108CE00CF01BC
:10140000D0015008C8004F08C7004E08C6004D085C
:10141000C5000A30C900C7300A128A1573270A129C
:101420008A15EE00C73E84003A3080003C30EE0A58
:10143000A000A1015308A3005208A20035220A12FD
:101440008A1520085922AA006E08C73E0A168A117A
:101450009D26EE0AEE0A6E08A9000830AA004C0884
:10146000AB00C7300A128A15DA2C200821040319B0
:10147000542AFA01FA0AA11B412A0310A00DA10D5A
:101480003A2A21082302031D472A20082202031CAE
:10149000502A2008A2022108031CA303A302031060
:1014A000A10CA00CFA0B412A2308A1002208A000DD
:1014B0000800A700A8000A30A901A000A10129087E
:1014C000A3002808A2000A168A1196240A128A1577
:1014D0002008FB007B0EF039FB000A30A000A101C0
:1014E0002908A3002808A200352220087B0708004D
:1014F000C03055270A128A15E43083120313A00066
:101500009130A100C730A20132250A128A15DF27C7
:101510000A128A15DA2CE8000310680D123E8400C6
:1015200090300318013EFF000A168A1100200A12AB
:101530008A15E9000A168A1100200A128A15EA00A3
:10154000803055270A128A152E3083120313A0000B
:101550009230A100C730A20132250A128A15DF2776
:101560000A128A15DA240A128A15C03055270A127F
:101570008A15831203136808313E8316C7002E3084
:10158000C80031308312A0009030A1006908A20089
:10159000C93032250A128A15023EDF270A128A153F
:1015A000DA240A128A15F31E0800F3120A128A11AD
:1015B00040240A128A1583120313EC01CA270A1267
:1015C0008A15F21B082BF310803055270A128A1552
:1015D000313083120313A0009030A1006908A200EB
:1015E000C73032250A128A15DF270A128A15DA2433
:1015F0006A080A128A1169200A128A157313F312F3
:101600007312F311052BF21BE12AF31C032BE12AC1
:10161000F3140800731F142B0530EC0A6C06031931
:10162000EC01CA270A128A15C03055270A128A15FA
:10163000831203136C08313E8316C7002E30C80096
:101640000C308312A0009130A1006C08013EA20072
:10165000C93032250A128A15023EDF270A128A157E
:10166000DA240A128A15F31E08007313F312731298
:10167000F311803055270A128A15EE270A128A15AF
:101680006C08013EA200C73032250A128A15DF27F6
:101690000A128A15DA240A128A15C03055270A124E
:1016A0008A15C73083120313E5270A128A15B0275B
:1016B0000A128A151030A900AA00C730AB01DA243B
:1016C0000A128A156C08031D802B031718080313D0
:1016D000D300031719080313D4000730D501D6012E
:1016E000DA01D901D800CF30D700F3250A128A15C4
:1016F0005408031799000313530803179800A22BEB
:101700000830CC003C30CD01CE006C08E500031061
:10171000E50D0310E50D0310650D143E84008317DD
:1017200000080A128A155421E6006C08E70003102D
:10173000E70D0310E70D0310670D143E84006608E3
:1017400083178000F2132C3083160313B30001308B
:10175000B4000800803055270A128A15053083121C
:101760000313A0009230A100C730A20132250A1253
:101770008A15D1270A128A15DA240A128A15F1125B
:1017800071128316AF01B001F1107110C7308312CE
:10179000A0003D30A101A2001030A301A400A501CA
:1017A000B0270A128A15F21300308316B3000630F0
:1017B000B4007311CF2CF21FF21AFD2B731DCF2C26
:1017C0007311C03055275B3083120313A000A101B1
:1017D000831634088312A300831633088312A200F1
:1017E0000A168A1196240A128A152008DF270A127F
:1017F0008A15DA240A128A15CF2CF21B9A2C711E34
:10180000F119072C8316B3010C30B400F1150A301E
:101810008312A000A101831630088312A30083164F
:101820002F088312A2000A168A1196240A128A151A
:10183000F5270A128A1197250A128A15EE00093037
:10184000A9006E080A128A11F6230A128A15EE07F9
:101850002030CC006E08CD001030CE00C73090276D
:101860000A128A15711D7D2C83160A168A15F12716
:101870000A128A158630AE01AF01B3001C30B200E7
:101880004630B1008030B0000A128A11AE230A122D
:101890008A152F08D6002E08D5002D08D4002C0854
:1018A000D30083162D088312AC0083162E088312F2
:1018B000AD00AE01AF015608B3005508B2005408A0
:1018C000B1005308B0000A128A11AE230A128A1519
:1018D0002C08D7002D08D800D901DA015A08C80011
:1018E0005908C7005808C6005708C5000A30C90083
:1018F000C73073270A128A15832C0A168A11D92732
:101900000A128A153225EE00A901A90A0A128A11C3
:10191000F6230A128A151030EE00C03055270A123D
:101920008A15831203136E08D1270A128A15DA2446
:101930000A128A15F21F711AA12C73117319CF2C78
:101940009E2C711AF118A62CF114CF2CF111F21F54
:10195000BE2CC03055270A128A1556308312031345
:10196000A0009230A100C730A20132250A128A15C8
:10197000D1270A128A15DA240A128A15DD30701668
:10198000F0118316BA00F2130030B3000230B40035
:10199000CC2C731FF31ACE2CF21FC92C7114711C9E
:1019A000731BD42CF31EDB2BF1117313F312731280
:1019B000F3110800AF00AD012B030319E32C023033
:1019C0002B06031DF92C29082A02AD0002302B0634
:1019D000031DEC2C0310AD0CAE012D082E020318D4
:1019E000F92C203020250A128A1583120313AE0A1F
:1019F000ED2CAE0129082E0203180B2D2E082F07FF
:101A0000AC0084008313000820250A128A15831273
:101A10000313AE0AFA2C2B080319122D02302B06E1
:101A2000031D08002908AD0783120313AD0A2D0812
:101A30002A02031C0800203020250A128A15142DC2
:101A4000A100871469270A128A15210EF039692727
:101A50000A128A15573083120313A000A00B2E2DF3
:101A600000000800A80022080319412D2108FF00EA
:101A7000200884000A168A1100200A128A15A5007F
:101A8000422DA501A6012508A70022080319722DE1
:101A90002108A4002008A300A00A0319A10A240811
:101AA000FF00230884000A168A1100200A128A15F2
:101AB0002706031D452DA203452D2108FF00200800
:101AC00084000A168A1100200A128A15A30022082F
:101AD0002807A4008400230883138000A00A0319A8
:101AE000A10AA20A2108FF00200884000A168A1110
:101AF00000200A128A152706031D5D2D2208080002
:101B000087148715023083120313A6004530A50001
:101B1000A930A400A40B8A2DA50B8A2DA60B8A2D13
:101B2000033083120313B000303069270A128A157C
:101B300003303002031CA82D1B3083120313A500B1
:101B40009D30A400A40BA22DA50BA22DA72DAF2D77
:101B5000A53083120313A400A40BAC2DAF2D831268
:101B60000313B003031D942D023055270A128A1562
:101B7000283055270A128A1140240A128A150C307F
:101B800055270A128A15063055270A128A1583121C
:101B90000313B00130080739031DE32D3008F8396D
:101BA00040385527273083120313A000A1013008C5
:101BB000883EA2000830A3000A168A1507270A12D9
:101BC0008A152730AF002F088400831300082025D2
:101BD0000A128A15831203134030AF0AB00A30028A
:101BE00003180800CA2D5A08C8005908C700580829
:101BF000C6005708C5000A30C900C73073270A124B
:101C00008A15E30056085A02031D102E5508590282
:101C1000031D102E54085802031D102E530857029E
:101C200003181A2E5A08D6005908D5005808D400AF
:101C30005708D3005608C8005508C7005408C60006
:101C40005308C5000A30C900C73073270A128A1525
:101C5000E1003030CC006108CD006308CE00C73011
:101C600090270A128A15DC016308103CDB00031C74
:101C7000DC030310DC0CDB0C5B08C03EE200E4017B
:101C8000CA270A128A15F21BAC2EF310731F522EAC
:101C900083120313E40A640863060319E401CA27E4
:101CA0000A128A15F31E842E831203136408C73E9A
:101CB00084003A308313800A0002031C602EFA2746
:101CC000C7300A128A1591200A128A152F08E000DF
:101CD0002E08DF002D08DE002C08DD0060085A0207
:101CE000031D7C2E5F085902031D7C2E5E085802DE
:101CF000031D7C2E5D0857020318812EFA270A1255
:101D00008A15CA270A128A150C3055270A128A1515
:101D100083120313620855270A128A1583120313CC
:101D20006308A9000830AA00C730AB01DA240A1200
:101D30008A156408620755270A128A150F3055273D
:101D40000A128A157313F3127312F311A92EF21BE0
:101D5000432EF31CA72E432E0C305527F314C73007
:101D60000A128A1591202F08D6002E08D5002D08BA
:101D7000D4002C08D3000800DB01CA270A128A15F8
:101D8000F21B512FF310731FCF2E83120313103049
:101D9000DB0A5B060319DB01CA270A128A15F31E48
:101DA000E82E831203135B080F3CD7000130D70ADB
:101DB000D8000030D900DF2E0310D80DD90DD70B75
:101DC000DC2E5808D3065908D406CA270A128A15E9
:101DD0000C3055270A128A15303083120313CC00B9
:101DE0005308C5005408C6000230C701C801C90025
:101DF000C73073270A128A15CD001030CE00C730C5
:101E000090270A128A155B08C73E840083130008D6
:101E1000D13EDA00C03055270A128A15D7270A1298
:101E20008A15DA240A128A15C730E5270A128A159C
:101E3000B0270A128A155508A0005608A1005B08B1
:101E4000013EA200C73032250A128A15EE006E0844
:101E50000319342F3A30A0009230A1005A08A20092
:101E6000D33032250A128A15803055270A128A1576
:101E7000D7270A128A15DA240A128A155B08C03E8F
:101E800055270A128A150F3055270A128A1573131F
:101E9000F3127312F3114E2FF21BC02EF31C4C2FB2
:101EA000C02E0C305527F314080083120313A10031
:101EB000871069270A128A15210EF03969270A123C
:101EC0008A15573083120313A000A00B652F000062
:101ED0000800FB00F039FA0007080F397A04870080
:101EE000871587110800CB004808BC004708BB00D5
:101EF0004608BA004508B9004908BD00BE014B08B4
:101F00000A128A11DD260A128A15CA01CA0A4A086B
:101F10004B07FB0084000008031D862F4A080800B9
:101F2000D2004D080319AC2FCD034D085207CF0046
:101F3000840083130008D000CE034E085207D1005E
:101F4000840050088000912FCE034E085207CF0026
:101F500084004C08831380004E0803190800A42F46
:101F60002008FA002108FB000130A4020030031C05
:101F7000A503A502240FBF2F250A031908007A081C
:101F8000840083177B1C831322088000FA0A03193C
:101F9000FB0AB42FF2132C308316B3000130B400C7
:101FA0000800A9001030AA000230AB00C73410307E
:101FB00083120313A900AA00C730AB010800A900CF
:101FC0001030AA00C730AB010800A0002030A101EA
:101FD000A2001030A301A400A50108000C30831258
:101FE0000313A0009130A10008002108CD002008B3
:101FF000CC00C7346408C73E84003030800008003D
:10200000FF1B0A2883137F1883170008840A03190B
:10201000FF0A08007F087F398A000408840A031930
:10202000FF0A8200013404340234013403340734DB
:1020300004340A3405340D340834103406341334AF
:1020400007341634093419341F341C34223425342F
:1020500028342B342E348134843489348C348F34B6
:10206000C03400344634553445344C342034633461
:102070006F346E347334743461346E3474340034B9
:10208000563453345334203463346F346E347334E1
:10209000743461346E347434003474346F34743492
:1020A00061346C34203474347234693470340034E4
:1020B00076346F346C34743461346734653420346E
:1020C000613464346A347534733474340034733472
:1020D00065347434743469346E3467347334203442
:1020E00062346934743473340034743465346D3458
:1020F00070342034733465346E3473346F34723416
:102100007334003473346534723476346934633430
:102110006534203463346E34743472347334003470
:102120006D3469346E3420347334703465346534FE
:102130006434003473347734203476346534723444
:10214000733469346F346E3400340034643475345D
:1021500061346C34203469346E346A34003473343E
:102160006B34693470342034743465346D347034B5
:1021700000346B3465347934203473346F347534FF
:102180006E346434003473346534723476342034FD
:1021900061346C34613472346D34003466346134CB
:1021A0007334743420347234653466347234653474
:1021B0007334683400346D346834203472347034CD
:1021C0006D3400346434613469346C3479342034CF
:1021D0007434723469347034003469346E342F349A
:1021E0006F34753474342034743465346D34703421
:1021F000003464347334333432343334313420347F
:10220000743465346D347034003400340034003478
:102210000034003400340034003465346E346734E4
:1022200069346E346534203468346F3475347234F4
:102230007334003465346E34673469346E34653415
:1022400020346F3469346C3400346734653461345D
:10225000723462346F34783420346F3469346C34BF
:1022600000346134693472342034663469346C3437
:1022700074346534723400347334703461347234BD
:102280006B34203470346C347534673473340034F8
:102290000034733475346E3464346134793400340A
:1022A0006D346F346E346434613479340034743492
:1022B000753465347334643461347934003477347C
:1022C000653464346E346534733464346134793421
:1022D0000034743468347534723473346434613463
:1022E0007934003466347234693464346134793456
:1022F000003473346134743475347234643461344A
:102300007934003400346A3461346E340034663415
:102310006534623400346D346134723400346134B5
:102320007034723400346D346134793400346A347A
:1023300075346E3400346A3475346C34003461346E
:1023400075346734003473346534703400346F345A
:102350006334743400346E346F347634003464344F
:10236000653463340034FF3400340134FF34023404
:102370000334FF3404340534FF3406340734FF34A7
:102380006834FF346C34FF345634FF346B346D34AE
:10239000FF347334FF34DF34FF343C34FF346D34A6
:1023A0007334FF34FF34743469346D34653420344D
:1023B00063346F3472347234653463347434693422
:1023C0006F346E343F340034313430343A34343482
:1023D00031342034313436342E34303436342E34E3
:1023E0003234303432343234003400342D342D342D
:1023F0002D3400346F3475347434003469346E34E1
:10240000003465346E3467340034773461346934B1
:102410007434203466346F3472342034733474343A
:10242000613472347434003430342D343134303407
:1024300030342034743469346D3469346E34673424
:1024400000340034633475347234003464346134DD
:1024500079340034413400344234003443344F344E
:102460004E3446344934473420344D3445344E34A8
:1024700055340034003420346F346634663400340C
:10248000203420346F346E3400342D342D342D3408
:102490002D342D3427342D342D3400345734413429
:1024A00052344E3449344E34473400347434693431
:1024B0006D3465346F34753474340034723465347B
:1024C0007334653474343F34003474347234693492
:1024D0007034203400342D342D342D342D34003418
:1024F40080300A128A1555270A168A11711BBD2AC3
:102504003A300A128A1152240A168A1183120317C6
:102514003A080313B000B10103173B0812250A1649
:102524008A11721AAC2A01304627C0300A128A1561
:1025340055270A168A1183120313D301D401831673
:1025440062080139CD230A168A110130C0240A1603
:102554008A11DC2A01305F23C0300A128A155527FC
:102564000A168A110030EE220A168A110130FE265C
:102574000A168A11DC2A8316031324088312D40052
:10258400831623088312D300D501D601D701EF2483
:102594000A168A1101305F23C0300A128A155527A2
:1025A4000A168A110030EE220A168A110130AC266E
:1025B4000A168A11F21E721E08001430B0009230FE
:1025C400B1000A128A1102240A168A11003A031968
:1025D40008000A128A15AA2B83120313E300083099
:1025E400FA00EC300A128A117A250A168A11DF00E1
:1025F400E0016008003A0319442B5E2BD301630801
:10260400D400831662080139CD2B6308C02C6308FB
:10261400CC00B8300A128A15D9296308D300B8301F
:102624000A128A11F12D6308D300B8300A128A11F4
:102634001D296308D300B8300A128A11082A6308D6
:10264400D300B8300A128A1508280B30A9000030CC
:102654000A128A11F6230A168A11E100E20183168E
:1026640003174A0883120313D40083160317490877
:1026740083120313D3006208D6006108D5006308EF
:10268400D700EF2C5F08003A0319002B013A031915
:10269400072B033A0319092B013A03190F2B073AA5
:1026A4000319152B013A03191B2B033A0319212B88
:1026B400013A0319272B5E2B0800CC007219692BF1
:1026C400D9270A128A1532250A168A11C42B8316B1
:1026D400E21B752B04308312D0007830CF006830B1
:1026E400CE00C0307D2B02308312D0003C30CF00AE
:1026F4003430CE006030CD00831667088312AC00FE
:10270400831668088312AD00831669088312AE002D
:10271400AF015008B3004F08B2004E08B1004D0895
:10272400B0000A128A11AE230A168A112D08D200AB
:102734002C08D1000A30A000A1015108053EA200D6
:1027440052080318013E003EA30096242108A80065
:102754002008A7000A30A900AA010A128A11EF2151
:102764000A168A112808D2002708D100C500520889
:102774000A128A1120260A168A110A128A15732748
:102784000A168A11EE000230B0004C08B1006E083F
:102794000A128A11E12D8312D9000310590DE03E6B
:1027A400840083170008FC00840A0008FD008130BF
:1027B4007C06813003197D06031DF22B0230590675
:1027C400031DEB2B2D308316C700C8000230831283
:1027D4005E2CD9270A128A1532250A168A115E2C14
:1027E400FD1FFD2B2D308316C700FC09FD09FC0AD3
:1027F4000319FD0A002C2B308316C7000F307C050B
:102804000A168A15F9270A168A110A128A11EF2163
:102814000A168A112708D5002808D60004300310A8
:10282400D60CD50CFF3E031D112C7C0E0F39A700CE
:102834007D0EF039A7047D0E0F39A8000A30A900D7
:10284400AA010A128A11EF210A168A1155082707CC
:10285400FC0056080318560A2807FD0002305906E2
:10286400031D532C0A30A000A1017D08A3007C089D
:10287400A20096242008D5002108D600D701D8014B
:102884005808C8005708C7005608C6005508C500B0
:102894000A30C900C7300A128A1573270A168A112A
:1028A4005E2C7D08CD007C08CC00C8300A128A1149
:1028B40097250A168A11013EEE0053080319822C4B
:1028C400023059060319822C2030CC006E08CD004A
:1028D4000830CE00C7300A128A1590270A168A11CA
:1028E400F530A0009130A1005908023EA200C73083
:1028F4000A128A1532250A168A110830EE008C2C29
:102904005308031D8C2C0A30A9006E080A128A1180
:10291400F623EE076E08A9000830AA005408AB009D
:10292400C7300A128A15DA2CA401A5012008210453
:102934000319BB2CA601A60AA11BA42C0310A00DED
:10294400A10D9D2C0310A40DA50D21082302031D28
:10295400AD2C20082202031CB72C2008A202210857
:10296400031CA303A30224140310A10CA00CA60BA4
:10297400A42C2508A1002408A00008008312031336
:10298400D500831660088312A000A10183162608CF
:102994008312D400831625088312D3000530FF0068
:1029A4000310D30DD40DFF0BD22C5308A2005408EE
:1029B400A30096240A128A15F5270A168A110A1208
:1029C4008A1197250A168A11EE000730B0005508BF
:1029D400B1006E080A128A11E12D5408CD00530883
:1029E400CC005508C73E0A128A1197250A168A1187
:1029F400EE0003305402E930031953020318062D84
:102A040055085604031D082DEE03EE035508EE0782
:102A1400B001B00A5708B1006E080A128A11E12DFC
:102A24000313B200AA00C7309D260A168A113A3051
:102A34008316C90083123008AA00CA309D260530C7
:102A4400A9000830AA003108AB00C7300A128A1561
:102A5400DA2C3A300A128A1152240A168A11D33017
:102A64008312B0009130B1000A128A1102240A16AE
:102A74008A11003A0319082EB6010A128A11402459
:102A84000A168A11F213F43083160313B3000130CB
:102A9400B400F21BFC2DF310731F5A2D8312031381
:102AA4000630B60A36060319B601E6270A168A1155
:102AB400F31AA32DD32D1730AA01AB0003173B083B
:102AC4000A260A168A110317BB00C12D3B30AA013E
:102AD400AB0003173A080A260A168A110317BA002C
:102AE400C12D1F30AA01AA0AAB0003173D080A260C
:102AF4000A168A110317BD00C12D0C30AA01AA0AB7
:102B0400AB0003173E080A260A168A110317BE00F3
:102B1400C12D1630AA001B30AB0003173F080A264C
:102B24000A168A110317BF00C12D0730AA01AA0A89
:102B3400AB0003173C080A260A168A110317BC00C7
:102B4400C12D831203133608B400B5013508003AC9
:102B54000319AD2DC12D3408003A03195D2D013A36
:102B64000319682D033A0319732D013A03197F2DB4
:102B7400073A03198B2D013A0319972DC12D023001
:102B8400031336060319CE2D033036060319CE2D52
:102B940004303606031DD22D3A3068270A168A11EE
:102BA400E6277313F3127312F3110C300A128A1509
:102BB40055270A168A113A301C2636082B3E840003
:102BC40090300318013EFF000A168A1100200A16ED
:102BD4008A110A128A1555270A168A110F300A1209
:102BE4008A1555270A168A11F92DF21B4B2DF31C51
:102BF400F72D4B2D0C300A128A1555270A168A1107
:102C04003A300A128A11E424F31108003A301C2ED7
:102C14000313AD0057260A168A11AE00AE0AAC00A3
:102C24002B082C02031C182E2A08AE002E080A12A8
:102C34008A15592A83120313B30080300A128A15A5
:102C440055270A168A118312031333088400831745
:102C54000008B000B101330A84000008122588304E
:102C64000A128A1555270A168A1183120313330888
:102C7400043E840083170008B0003308053E840036
:102C84000008B1003308033E840000086826C03001
:102C94000A128A1555270A168A1183120313330858
:102CA400023E840083170008ED2FFB00FA000F306A
:102CB400FA0578300310FB0CFB057B08FA070310B8
:102CC400FB0C0310FB0C7B087A070800B2003208E7
:102CD40003196E2E320F7A2E4530A0009230A100D7
:102CE400C730A2010A128A1532250A168A11952EB6
:102CF4003208AA00C7309D260A168A118230A00025
:102D04009130A10030085726A200C9300A128A1552
:102D140032250A168A1127308316CC008312310813
:102D2400AA00CD309D260830A900AA00C730AB0107
:102D34000A128A15DA2CAB002B0A84002A080F39F0
:102D4400303E831380002B0884002A0E0F39303E56
:102D540080000800D90083166A088312AC00831629
:102D64006B088312AD00CC27831603171608831251
:102D74000313A40083160317170883120313A50073
:102D8400A601A7010A128A1182210A168A11C327F1
:102D94000A128A11AE230A168A112F08D6002E08A9
:102DA400D5002D08D4002C08D300E027AE01AF01D4
:102DB4005608B3005508B2005408B1005308B000D7
:102DC4000A128A11AE230A168A112D08D8002C087B
:102DD400D7005808CD005708CC00C7300A128A1112
:102DE40097250A168A11EE000330B0005908B10085
:102DF4006E080A128A11E12DD900E0270A168A11F9
:102E0400CC27831638088312A400A501A601A701C4
:102E14000A128A1182210A168A11C3270A128A11F8
:102E2400AE230A168A112F08D6002E08D5002D08C5
:102E3400D4002C08D3000A30AC00AD01AE01AF01C0
:102E44005608B3005508B2005408B1005308B00046
:102E54000A128A11AE230A168A112D08D8002C08EA
:102E6400D7005808CD005708CC00C7300A128A1181
:102E740097250A168A11EE000430B0005908B100F3
:102E84006E080A128A11E12DCC0083165A088312A7
:102E9400C800831659088312C70083165808831282
:102EA400C600831657088312C5000A30C900C7300C
:102EB4000A128A1573270A168A11EE000830B00028
:102EC4004C08B1006E080A128A11E12DB3002430B7
:102ED4008400CB30A0000408A1000C30A20020081C
:102EE400840083170008A300A00A21088400831328
:102EF40023088000A10AA20B712F3308053E840029
:102F04008317000857260A168A11B1003308043EB5
:102F140084008317000857260A168A11B000310866
:102F2400B2003108A0000310A00C0310A00C20086C
:102F3400B2073308033E84008317000857260A1695
:102F44008A11B2073008FF3E243E84008313000830
:102F5400B20731080339031DB42F033030020318BC
:102F6400B42FB20307303202031CBB2F0730B20266
:102F7400B42F3308023E84003208013E83178000D8
:102F840008002308B3002208B2002108B100200879
:102F9400B0000800AE01AF01831627088312A00019
:102FA400831628088312A100A201A30108006B3034
:102FB400A0009230A100C730A201080083165F0868
:102FC4008312AC00AD010800F213F4308316B30091
:102FD4000130B4000800B0004830A0009130A100D6
:102FE4003008A200C7300A128A1532250A168A113F
:0C2FF4000A128A15DF270A128A15DA2C4F
:10306000831662088312D400831661088312D3008A
:10307000A530D5009030D6000A128A15BC268312DE
:10308000031354088316E200831253088316E100E9
:10309000080083165D088312D30083165E0883122E
:1030A000D4007530D501D601DA01D901D8002F300E
:1030B000D7000A128A15F32554088316DE008312FE
:1030C00053088316DD000800731F70288C308316A8
:1030D00060020318E003F2132C30B3000130B40097
:1030E000F31E7C28E63083166002031CE00AF2130C
:1030F0002C30B3000130B400C4300A128A155527B1
:1031000001300A168A11C02C0B1CAA2986080B1044
:10311000831203130F088316AA0083120E08831666
:10312000A90083120D18F117861BF628F219FB2847
:1031300083168112F2157216F0173E0883120317D8
:10314000940701300318950703189607031897078B
:10315000F218B628F2148316930194019501031313
:103160002A08AC002908AB00BF01FB288316031313
:103170002908A0002A08A100A2012B08F4002C08AD
:10318000F500F6017408A0027508031C750FA10272
:103190007608031C760AA202031713080313A0077C
:1031A0000317140803110318140A0313031DA107BE
:1031B0000317150803110318150A0313031DA207AB
:1031C0000313F11FED286A30A007183003181930D7
:1031D000A107003003180130A2072008E7002108EA
:1031E000E8002208E90072150317AC28F21DFB283D
:1031F00083168116F2118312061FA929721BAA29B0
:103200007217F216F11D4129F11A1429F1168316CD
:103210002A0803179F000313290803179E009C0127
:103220009D010313C0014229831603171D080313D0
:10323000AE0003171C080313AD0003171E08031389
:10324000AD0203171F080313031CAE03AE022908C7
:10325000AD070318AE0A2A08AE07F11F35296A30F8
:10326000AD070318AE0A1830AE0771152E083202EA
:10327000031D3C292D083102031C07297116F11189
:103280004229F112831603179A0A03199B0A0313A2
:10329000DB0A0319DC0A5E085C02031D51295D0884
:1032A0005B02031C6A29DB01DC01D70A0319D80A77
:1032B0000319D90A0319DA0A831203179A0A0319A0
:1032C0009B0AA20A0319A30AAA0A0319AB0AB20AA3
:1032D0000319B30A83160317A20A0319A30A0313D7
:1032E0005E0803172302031D792903135D080317E2
:1032F0002202031C8029A201A301A00A0319A10A2A
:10330000AE0A0319AF0A03135E0803172F02031D49
:103310008D2903135D0803172E02031C9429AE01A7
:10332000AF01AC0A0319AD0ABA0A0319BB0A0313A9
:103330005E0803173B02031DA12903135D08031751
:103340003A02031CAA29BA01BB01B80A0319B90A37
:10335000AA2972130B1DE52983160317980A03196E
:10336000990AA40BC229031339080317A4000313F5
:103370005F080317A50A2502031CC229A501A60A96
:103380000319A70AB00BD329031339080317B00098
:1033900003135F080317B10A3102031CD329B101DB
:1033A000B20A0319B30ABC0BE42903133908031743
:1033B000BC0003135F080317BD0A3D02031CE42988
:1033C000BD01BE0A0319BF0A0B11831203130D1CA2
:1033D000032BF11B172AF21C032A8316BF0A3C3069
:1033E0003F06031DF829F210811672117212032A8A
:1033F0006A30031793071830031819309407003008
:10340000031801309507F11E182A831603130A309A
:10341000C00A4006031D0F2AF1127111182A6A30E2
:1034200003179C0703189D0A18309D07182AF113EB
:103430008312031306192A2A653083164602031CD9
:10344000C60A64304606031D372A7316F314EE01CC
:10345000EE0A372A053083164602031C362A33301B
:1034600046020318362A7317F314EE01C6018312BD
:103470008619482A653083164502031CC50A643044
:103480004506031D552AF315F314EE01EE0A552ADD
:10349000053083164502031C542A333045020318B5
:1034A000542AF316F314EE01C5016E0A0319632AB8
:1034B000E21E612A7016F0116E086E076E07D73E85
:1034C000BA00EE01EE034108C20A4202031CB12A0F
:1034D000C201F314031719080313A80003171808EF
:1034E0000313A7000317980199011B080313EB00AE
:1034F00003171A080313EA0003179A019B01031329
:10350000E21D842A731CB02A7310721A892AF21ED3
:10351000A82A83120317900A0319910A0319920A21
:103520000319930A8316A80A0319A90A0319AA0AF8
:103530000319AB0AB40A0319B50A0319B60A031929
:10354000B70AC00A0319C10A0319C20A0319C30A38
:1035500003133D080319B12ABD0BB12A7017B12A14
:103560007314330834040319BF2A0130B302003046
:10357000031CB403B402330834040319F217F11D19
:10358000C42AAF0A0319B00A4308031D002B7315A0
:103590000A30C300701E012BF019D62AF015F01462
:1035A0003A08840083170008013EBC00F01CE52A9D
:1035B000F010BC030319E32A70153A0A840083173C
:1035C0000008BB00E52A7012F011701DF42A3B08B8
:1035D000031DF22A70113A08023E84008317000886
:1035E000FF3EBB00831207147019FD2A83163B08A7
:1035F000031DFB2AF014831207108316BB03012B53
:10360000C30383120D100C1F1E2B1E088316A60069
:10361000A5011E08A50400302602813003192502E9
:10362000031C142BC4011C2B08304406031D1B2B48
:103630007214F3141C2BC40A83120C1379088A0029
:1036400078088400770E8300FE0E7E0E090070134A
:10365000F01E6C2B0E30BD00F01270308312AD00E6
:10366000AE01C730A000A1012D08A2000830A300C0
:1036700007270A168A1503102E0DE03EA500C73055
:10368000D9230A168A1503185D2B831203132E08FB
:10369000903E8400053083170002031C582B031052
:1036A0002E0DE03E840081308000840A8000642B6F
:1036B0002E08903E8400800A642B831203132E0888
:1036C000903E8400831780010830AD070330AE0AB6
:1036D0002E0203180800312BF0160130BD00702BAC
:1036E000F9240A168A15031C0800CC301B250A167B
:1036F0008A1544301B2D0A128A1140240A168A1595
:103700008B13F01F9E2B3A300A128A1152240A168C
:103710008A15831203173A088316C40083123B08E4
:103720008316C50083123D088316C60083123E0827
:103730008316C70083123F088316C800831603133D
:1037400063086C06F0396C06E30083126F08A7006B
:10375000A70E83166308831227060F3927068316E0
:10376000E300B6230A168A150510B52B8312D7304D
:10377000A6010A128A11D7260A168A1579250A1671
:103780008A151030A607A030A0000130A10026083D
:10379000A2002B30A30079250A168A153030A6071F
:1037A0001030A0000130A1002608A2002A30A3009A
:1037B000792DAC00F9240A168A150318E12B0310A1
:1037C000080055301B250A168A152C08AB00AA01E3
:1037D0002B088400831300081B250A168A1508305D
:1037E000AB0AAA0A2A02031CE82BBE301B250A16C4
:1037F0008A152C08AB00A801A901831203132B081A
:103800008400C9240A168A1583138000AB0AA80A0B
:103810000319A90A2908803AFF0080307F02031D9E
:10382000132C09302802031CFD2B831203132C08D0
:10383000840083130008A6002C0A84000008A70057
:1038400025088400260883178000840A2708800042
:103850002C08083E840083130008A6000830FA00F4
:103860002C08B6250A168A152606031DDF2B03141D
:1038700008005430A000FF30A101A2000830A301CD
:10388000A400A5010A128A15B0270A168A15543019
:10389000B0240A168A15C730FA0054305625DC01C8
:1038A0000A128A15CA270A168A15F21B9C2CF310D5
:1038B000731B5C2CF31E6B2C7313F3127312F31136
:1038C00083120430DC0A5C020318DC010A128A1538
:1038D000CA270A168A15F5308312A0009130A1007C
:1038E0005C08013EA200D3300A128A1532250A165E
:1038F0008A15EE002030CC006E08CD000430CE00DA
:10390000D3300A128A1590270A168A15C0300A1277
:103910008A1555270A168A150A128A15D7270A16F4
:103920008A150A128A15DA240A168A15992CF21BAE
:10393000552CF31C972C552C83125C080319080096
:103940005430A000A1015C08D3000310D30D031074
:10395000D30D0310530D683EA2000830A300792D4B
:10396000A200F9240A168A15031C080033301B250F
:103970000A168A15A30122088400C9240A168A158A
:10398000831380000830A20AA30A23020318080048
:10399000BB2CA001A1010310A00CDE240A168A157D
:1039A000031CD52C83120313A017831203130830B2
:1039B000A10A2102031CCC2C2008080083168512C2
:1039C00083128512E32CE42C000083160313851662
:1039D0000830FA00FA0BEA2C003083120313851A20
:1039E0000130FB005B30FA00FA0BF42C00007B0C7A
:1039F000080083168512831285120430FB001C30E8
:103A0000FA00FA0B012DFB0B012D000083160313A6
:103A100085166330FA00FA0B0B2D0E2D831203135B
:103A2000851A192DA630FA00FA0B142D0000031484
:103A300008000310080083120313A000A10120084E
:103A400001392E250A168A15831203130830031034
:103A5000A00CA10A2102031808001F2DFB00013051
:103A6000FB057B080319452D8316851283128512E9
:103A70000830FA00FA0B3A2D8316031385166330CB
:103A8000FA00FA0B412D442D08008316851283128B
:103A900085127430FA00FA0B4B2D000083160313C5
:103AA00085160330FA00FA0B532D08008312031316
:103AB000A0001030A100A10B5E2D0800200884009A
:103AC00083130008A200211C692D0F30A20EA2054D
:103AD0006A2DA00A0F30A2050A3022027A0884005B
:103AE0002208031C752D373E762D303E8000FA0AE1
:103AF0005B2DA4018B1F7F2DA401A40A8B13A501AC
:103B0000230825020318972D200884008317211C01
:103B100083130008FA00250822079B250A168A1538
:103B200083120313A00A0319A10AA50A802D240BEE
:103B300008008B170800FB00831603178C189C2DB8
:103B40007B0883128D007A088C003F3083168C0529
:103B500003108B1B03148B130C1555308D00AA30EA
:103B60008D008C140C1103188B170800A300A401FE
:103B7000D32D230884000008A0000830A30AA10068
:103B800021080319D32D24082006A2000130A20524
:103B90000310A40C22080319CF2D8C30A4060310A7
:103BA000A00CA103C02DFA037A0FB92D2408080038
:103BB0002E260A168A15E5260A128A1580250A1667
:103BC0008A1541308316B9001C30B8005E08831294
:103BD000A30083165D088312A2000D300310A20D0E
:103BE000A30DA000A1010A168A1196240A168A15AF
:103BF00021088316031797008312031320088316E6
:103C0000031796000313E21F0D2E0310B90D0310C6
:103C1000B80C03170310970C960CC8300313C1009F
:103C2000E21D162E0310C10C0310B80D63080F39E6
:103C3000EC00630E0F398312EF005D260A168A1519
:103C4000003A03190800B83083120313B30001309F
:103C5000D42783160317C901CA010800263083162A
:103C60008500013083128500CD3083168600033035
:103C700083128600831687018312870181018E01DA
:103C80008F01B830831681003030831290000B30E2
:103C90009D0018309C006A309B00403083168C00D9
:103CA00001308D0068308B00883083129F00823095
:103CB00083169F0083121F14F02F3A300A128A11C4
:103CC00052240A168A158316031746088312031313
:103CD000A00003173D08D4260A168A15AF00B001CC
:103CE000AF1BB003B01B01343008803AFF008030B6
:103CF0007F02031D7D2E02302F0203180134CD2ECA
:103D000083122F0330040319872EAD01892E18303A
:103D1000AD00AE0183160317450883120313A000FC
:103D200003173B08D4260A168A15AF00B001AF1B53
:103D3000B0032D08AF070318B00A2E08B007B01B58
:103D4000013483160317440883120313A0000317DA
:103D50003A08D426AB00AC01AB1BAC033008A8007A
:103D60002F08A7003C30A900AA010A128A11EF21EE
:103D70000A168A152B082707AF002C0803182C0AEF
:103D80002807B000803AFF0080307F02031DCA2E52
:103D900079302F02031C0034013483160313E21C14
:103DA000802E83122F0808000313A30020080A1690
:103DB0008A1157260A168A15A10023080A168A11A5
:103DC0005726A200210822020800D730A401A00033
:103DD0001030A101A201A30007270A168A1510308E
:103DE000A407A030A0000130A1002408A2002B30BD
:103DF000A30007270A168A153030A4071030A00048
:103E00000130A1002408A2002A30A300072FFB01E3
:103E100023087B0203180800200884008317211C54
:103E200083137B0822071D270A168A1580000313B7
:103E3000A00A0319A10AFB0A082FFA00212F8312F6
:103E400003136400831603178C181F2F7A0883123C
:103E50008D003F3083168C050C1483120C0808006B
:103E600083160313E21B382F02308312B9003B2F55
:103E70008312B901B90ABA0139088316BE00F127C5
:103E80000130AE01AF01B3005730B2005230B10083
:103E9000A030B0000A128A11AE230A168A152D0826
:103EA0008316B20083122C088316B100F127AE01ED
:103EB000AF0183166A088312A00083166B08831271
:103EC000A1008C30A201A301A701A601A500A0308A
:103ED000A4000A128A1182210A168A150A168A116A
:103EE000C3270A168A150A128A11AE230A168A15E2
:103EF0002D088316A40083122C088316A3006408DF
:103F0000F9270A128A11EF210A168A152808831642
:103F10002402031D8F2F8312270883162302031CFC
:103F2000932F7117942F711383160313E2199B2F8C
:103F30000310A40CA30C240803174A02031DA42F8A
:103F400003132308031749020318AE2F0313240891
:103F50000317CA00031323080317C900F21EB52F65
:103F60000313230824040319F21207300317210254
:103F7000D13003192002031CC52FA0308312031374
:103F8000B3000130D4270A168A1517308316031799
:103F90002D02713003192C02031C0800AC3083126F
:103FA0000313B3000130D42FB4003408031DE42FF1
:103FB0005E30B0009230B1000A128A1102240A1653
:103FC0008A15003A031908003308A0000130A10047
:103FD0000C30A201A301A400A5010A128A15B02F7A
:103FE00008005D088312AC0083165E088312AD00E2
:103FF00008008312A7000A30A801A900AA0108003E
:02400E00723FFF
:10420000EE00C80004000000E20035006C003E0033
:104210006E00B3000000EA0013000500000000007B
:10422000460001009800350066002D0091000E0048
:1042300079004E0000000000370001009C002500BE
:104240001400630011000E0027004C000000000065
:1042500018000000F8002100280049002F0001008C
:1042600059000600000000001700170015000600A6
:104270002200870003000000000000000000000092
:1042800097007B000500000089001D00E100000090
:1042900000000000020015000A00130011002100B8
:1042A00000000000B80015002800070011002100E0
:1042B000000000001F0028000A0021000300200069
:1042C000000000008A0033000A00070001002100FE
:1042D0000000FF00000000000000000000000000DF
:1042E00028008A0009009500F00001003C00FC0055
:1042F000FF00FF00FF00FF00FF00FF00FF00FF00C6
:10430000FF00FF00FF00FF00FF00FF00FF00FF00B5
:10431000050006000500000000000000010002008A
:104320000A0015001500000010000500070001003C
:104330000700050007000000000001000200000067
:10434000000000000800100000000A001500150021
:104350000C0014001400010002000500010001001F
:10436000000000000000000000001F0015001F00FA
:10437000030005000500000000000100020000002D
:104380000000000008001000000014001C000400E1
:00000001FF
