:060000000A128A110E280D
:10000800FE00030EF6000408F7000A08F8000A16B6
:100018008A15B6280A128A11112883160317063082
:10002800CB000230CC00CD000530CE000030CF0030
:100038000330D0000530D1000130D2000430D300A5
:100048000630D4000230D5000430D6008130D70005
:10005800D800D900DA00DB00DC00DD00DE0001306A
:10006800DF00E000E100E2000430E3000130E400DA
:100078000330E500E6000230E7000313FF30EF002D
:10008800903083178400CB300A168A1173220A1223
:100098008A111030840040300A168A1173220A121D
:1000A8008A11A03083138400EE300A168A11732255
:1000B800EE01FB01FC01FD01F001F101F2018301F8
:1000C8000A128A15C229FF0000308A007F088207B9
:1000D8006C280A128A11E22F0A128A1515290A12A7
:1000E8008A1530280A128A1521290A168A159D2888
:1000F8000A128A1509290A168A15822C0A168A11E3
:100108007B2A0A128A1500280A128A11A2280A12C2
:100118008A15772C0A128A119E280A128A119A289F
:100128000A168A11672D0A168A11E82A0430E8008F
:10013800A730FF290330E8009B30FF2980300A12DE
:100148008A15BA260A128A11F119EC283A300A16C9
:100158008A1113240A128A11831203173A08031307
:10016800B200B301B30A03173B080A168A115D26C9
:100178000A128A11F11BDB2802300A128A15102094
:100188000A128A11C0300A128A15BA260A128A116E
:1001980083120313DC01DC0A83166108013909257F
:1001A8000A128A110230B7240A128A110C29023065
:1001B8008D21C0300A128A15BA260A128A11013016
:1001C8001E2102300A128A1102270A128A110C29EA
:1001D8008316031324088312DD0083162308831271
:1001E800DC00DE01DF01E001E00AE8240A128A11DE
:1001F80002308D21C0300A128A15BA260A128A11D5
:1002080001301E2102300A128A11A7260A128A1109
:10021800721CF11F08001C30B2009230B3000A169D
:100228008A11C5230A128A11003A031908000A1212
:100238008A15092B83120313EC000930F900EC30FE
:100248000A168A114A250A128A11E800E901690882
:10025800003A03196F298C296C08DC0083166108A1
:100268000139092D6C08B72C6C08CC00B3300A167C
:100278008A11942A6C08DC00B3307B2C6C08DC00F3
:10028800B330702A6C08DC00B3305F2B6C08DC00DC
:10029800B330942C0B30A90000300A168A11B92308
:1002A8000A128A11EA00EB01831603174508831224
:1002B8000313DD0083160317440883120313DC00BD
:1002C8006B08DF006A08DE006C08E000E82C6C08A8
:1002D8000A128A11AC2F6808003A03193029013A2A
:1002E80003193629033A03193829013A03193E2913
:1002F800073A03194229013A03194629033A03190F
:100308004A29013A03194E290F3A03196B298C29F6
:100318000800CC00F11A97291D260A128A152924EB
:100328000A128A11F8298316E11BA32904308312C3
:10033800D0007830CF006830CE00C030AB29023012
:100348008312D0003C30CF003430CE006030CD0076
:1003580083160317460883120313AC00831603178A
:10036800470883120313AD00831603174808831246
:100378000313AE00AF015008B3004F08B2004E0897
:10038800B1004D08B0000A128A155B270A128A11BB
:100398002D08D2002C08D1000A30A000A101510874
:1003A800053EA20052080318013E003EA3000A16AB
:1003B8008A1183270A128A112108A8002008A70099
:1003C8000A30A900AA0146232808D2002708D1002C
:1003D800C50052080A128A15E7270A128A110A125A
:1003E8008A1502270A128A11FD000230B2004C0851
:1003F800B3007D08152CEB006530A0009230A100F9
:10040800C630A2010A128A1529240A128A11FD008F
:100418002930A0009230A1006808A2007D08C63EDD
:100428000A128A1529240A128A11FD0780300A1235
:100438008A15BA260A128A117D0883120313A900A5
:100448000830AA00C630AB01AB0A0A128A15CE26BC
:100458000A128A110230DC006B087B24C0300A12B1
:100468008A15BA260A128A11552ADC01DC0A6B0899
:1004780070220A128A110230DC006B085F230A120C
:100488008A116C2ACC01CC0A6B080A168A119422AC
:100498000A128A110230DC006B0894240A128A11AD
:1004A8006C2A0230F900ED300A168A114A250A1220
:1004B8008A11E900EA016A08003A0319642A6C2AD9
:1004C8006908003A0319392A013A0319462A6C2A9D
:1004D8006B08B5000030032EE3000A230A128A11C4
:1004E8003A08E2003908E1006308063E84008317F1
:1004F8000008DD00840A0008DE0000305E020530D6
:1005080003195D02031C8F2A0030620203300319AD
:10051800610203189B2A6B30A0009230A100C630FC
:10052800A2010A128A1529240A128A11D02A6108FE
:10053800AC006208AD00AE01AF016308063E84005E
:100548000008DD00840A0008DE005D08A0005E08DF
:10055800A1006430A201A301A400A501A601A7017E
:10056800D7222308B3002208B2002108B1002008CE
:10057800B0000A128A155B270A128A112D08E000BA
:100588002C08DF006008D4005F08D300C630D5010E
:10059800D50A29240A128A11FD000330B2005C082A
:1005A800B3007D08152CA801A901AA01AB01201CE4
:1005B800F12A2408A807250803110318013E031D82
:1005C800A907260803110318013E031DAA072708D7
:1005D80003110318013E031DAB070310A40DA50D5D
:1005E800A60DA70D0310A30CA20CA10CA00C2308A8
:1005F800220421042004031DDB2A2B08A3002A0857
:10060800A2002908A1002808A0000800BD00840055
:1006180083170008A700840A0008A8000A30A90068
:10062800AA0146232808BA002708B90083160A1227
:100638008A15D6270A128A11AE01AF013D08023E7B
:10064800840083170008BB00840A0008BC003B082C
:10065800A0003C08A1000A30A201A301A400A50142
:10066800A601A701D7220A128A11F9260A128A11AD
:100678000A128A155B272C08B9070318BA0A2D082D
:10068800BA070800F901FA01271C502B2908F907B5
:100698000318FA0A2A08FA070310A90DAA0D03106D
:1006A800A80CA70C27082804031D482B7A08A800C3
:1006B8007908A7000800E700E501E601083E840084
:1006C80083170008DD00840A0008DE00840A000899
:1006D800DF00840A0008E0005F045E045D0403197B
:1006E800F42B670884000008DD00840A0008DE0097
:1006F8005D08A0005E08A1004630A201A301A70181
:10070800A601A5005030A400D7220A128A11230896
:10071800E4002208E3002108E2002008E100831633
:100728005C088312AC0083165D088312AD00AE012D
:10073800AF016708023E840083170008DD00840AC1
:100748000008DE005D08A0005E08A1004630A20196
:10075800A301A701A601A5005030A400D7222308B1
:10076800B3002208B2002108B1002008B0000A1224
:100778008A155B270A128A112C08E1072D08031134
:100788000318013E031DE2072E0803110318013E5A
:10079800031DE3072F0803110318013E031DE40797
:1007A8006708083E840083170008AC00840A000824
:1007B800AD00840A0008AE00840A0008AF0064088F
:1007C800B3006308B2006208B1006108B0000A1201
:1007D8008A155B270A128A112D08E6002C08E50005
:1007E80065086604031D042C6B30A0009230A1003C
:1007F800C630A2010A128A1529240A128A110E2C5F
:100808006608D4006508D300C630D501D50A292466
:100818000A128A11FD00B201B20A5C08B3007D0811
:10082800152CB4003208A90034080A168A11B92315
:100838000A128A11B4073408A9000830AA0033083C
:10084800AB00C6300A128A15CE2EDB005308C5004D
:100858005408C6000A30C701C801C9005B080A125B
:100868008A1502270A128A11DA005508013ED600B5
:10087800003003180130D700803A803C031D462C15
:1008880056085A0203185A2C303083120313CC002E
:100898005A08CD005508013ECE005B080A128A1599
:1008A8003B270A128A115508013EDA008312031306
:1008B8005A08D9006E2C59085B07D600FF3E840001
:1008C80083130008D70059085B07D800840057082D
:1008D8008000D903D503550F5F2C59085B07D60054
:1008E80084002E30831380005A08013E0800DF0080
:1008F8000A230A128A113A08DE003908DD005E0868
:10090800D4005D08D300C630D501D50A29240A12BF
:100918008A11FD000830B2005C08B3007D08152C70
:10092800DD000A30A000A1015D08063E840083179F
:100938000008A200840A0008A3000A168A11832767
:100948000A128A112108D4002008D300C630D50124
:10095800D50A29240A128A11FD000630B2005C0863
:10096800B3007D08152C83120313DE0083165F087D
:100978008312A000A10183162A088312DD008316C2
:1009880029088312DC000530FF000310DC0DDD0DA3
:10099800FF0BC92C5C08A2005D08A3000A168A1187
:1009A80083270A128A112108D4002008D300C630F0
:1009B800D501D50A29240A128A11FD000730B20090
:1009C8005E08B3007D08152C5D08D4005C08D300D0
:1009D800D501D50A5E08C63E29240A128A11FD00EF
:1009E80003305D02E93003195C020318FF2C5E082E
:1009F8005F04031D012DFD03FD035E08FD07B20121
:100A0800B20A6008B3007D08152C8312E300E31FC7
:100A18000F2D0130102D0030E1000F30E3050310D9
:100A2800630DD73E8400831700088316E600840A06
:100A38000008E70081306606813003196706031D48
:100A48003B2D02308312630603192E2D03306306F3
:100A5800031D342D2D308316C600C7000230CB2D60
:100A68001D260A128A1529240A128A11CB2D8312EF
:100A7800E2018316E71F482D2D30C600E609E70975
:100A8800E60A0319E70A502D023083126306031998
:100A9800522D2B308316C6008312E20A0F308316BC
:100AA80066058312A70083120A30A801A900AA01CB
:100AB80046230A128A112708DD002808DE000430C0
:100AC8000310DE0CDD0CFF3E031D642D8316660E3D
:100AD8000F398312A7008316670EF0398312A70413
:100AE8008316670E0F398312A8000A30A900AA01DD
:100AF80046230A128A115D0827078316E600831227
:100B08005E0803185E0A28078316E700023083127E
:100B180063060319932D03306306031DBC2D0A30A9
:100B2800A000A101831667088312A3008316660834
:100B38008312A2000A168A1183270A128A11200832
:100B4800DD002108DE00DF01E0016008C8005F0861
:100B5800C7005E08C6005D08C5000A30C900620803
:100B6800C63E0A128A1502270A128A116207CB2D7D
:100B7800831667088312D400831666088312D3008D
:100B8800C730D501D50A29240A128A11013EFD0071
:100B9800831261080319EC2D2030CC007D08CD00AC
:100BA8000830CE00C6300A128A153B270A128A116D
:100BB800FD30A0009130A1006308023EA200C630BB
:100BC8000A128A1529240A128A110830FD00F92D03
:100BD800033063060319F92D0A30A9007D080A16A7
:100BE8008A11B9230A128A11FD077D08A900083065
:100BF800AA005C08AB00C6300A128A15CE2EB600D1
:100C08003608031D132E5E30B2009230B3000A1668
:100C18008A11C5230A128A11003A031908003508F7
:100C2800A0000130A1000C30A201A3000A128A150D
:100C3800A32F6B30A0009230A100C630A20108009B
:100C480083160A128A15D6270A128A11AE01AF0135
:100C5800831668088312A000831669088312A1000E
:100C68008C30A201A301A701A601A500A030A40011
:100C78000A128A11D7220A128A11F9260A128A152B
:100C88005B270A128A112D088316A40083122C08E8
:100C98008316A30063088312A7000A30A801A900DD
:100CA800AA010A128A1146230A128A1128088316F1
:100CB8002402031D632E8312270883162302031CB4
:100CC800672EF115682EF1118316031324080317F4
:100CD8004502031D732E0313230803174402031848
:100CE8007D2E031324080317C500031323080317D5
:100CF800C400721C842E03132308240403197210E1
:100D0800073003171C02D13003191B02031C962E4F
:100D18009B3083120313B50001300A128A1103268F
:100D28000A128A1117308316031728027130031923
:100D38002702031C0800A73083120313B5000130F3
:100D48000A128A11032EE200831668088312AC0087
:100D5800831669088312AD004A2783160317130800
:100D680083120313A40083160317140883120313B2
:100D7800A500A601A7010A128A11D7220A128A1110
:100D8800F9260A128A155B270A128A112F08DF0032
:100D98002E08DE002D08DD002C08DC005727AE01E8
:100DA800AF015F08B3005E08B2005D08B1005C08DF
:100DB800B0000A128A155B270A128A112D08E10071
:100DC8002C08E0006108D4006008D300C630D501C3
:100DD800D50A0A128A112924FD000330B2006208DC
:100DE800B3007D080A128A11152C2308B3002208C3
:100DF800B2002108B1002008B0000800E20057271F
:100E08000A128A114A2783163C088312A400A501F6
:100E1800A601A7010A128A11D7220A128A11F926F5
:100E28000A128A155B270A128A112F08DF002E087A
:100E3800DE002D08DD002C08DC000A30AC00AD0116
:100E4800AE01AF015F08B3005E08B2005D08B100F3
:100E58005C08B0000A128A155B270A128A112D084D
:100E6800E1002C08E0006108D4006008D300C63017
:100E7800D501D50A0A128A112924FD000430B200CE
:100E88006208B3007D080A128A11152CAE01AF0161
:100E980083162B088312A00083162C088312A10046
:100EA800A201A301080083165E088312AC00AD01FD
:100EB800080083120313BA00B601B701B801B901DB
:100EC8003A088400831300080319A32F3A08840002
:100ED8000008D03EB000FF3003180030B1003008E1
:100EE800B2003108B300B401B5013908A3003808CD
:100EF800A2003708A1003608A0000A30A400A50106
:100F0800A601A7010A128A11D7220A128A112008FB
:100F1800B20721080318210FB30722080318220F6C
:100F2800B40723080318230AB5073508B90034089D
:100F3800B8003308B7003208B600BA0A642F390877
:100F4800AF003808AE003708AD003608AC0008001E
:100F5800E0001930A000A101831603174A08831284
:100F68000313DD0083160317490883120313DC00FB
:100F78000310DC0DDD0D0310DC0DDD0D5C08A20097
:100F88005D08A3000A168A1183270A128A1121080C
:100F9800DF002008DE005F08D4005E08D3000230BE
:100FA800D500C6300A128A112924FD000C30B2007F
:100FB8006008B3007D080A128A11152C83165C0894
:100FC8008312D30083165D088312D4007530D501CF
:100FD800D601DA01D901D8002F30D7000A128A15B4
:100FE800D42454088316DD00831253088316DC00CA
:020FF8000800EF
:101000008316E11807288312EC01EC0A0A28023043
:101010008312EC006C08E800B3300A128A11FF2931
:10102000CC00831659088312C8008316580883120F
:10103000C700831657088312C6008316560883120A
:10104000C5000A30C900C6300A128A150227FD0001
:101050000830B2004C08B3007D080A128A11152C22
:10106000831659088312D600831658088312D500B8
:10107000831657088312D400831656088312D300B0
:101080000F30DA01D9004230D8003F30D7000A12C1
:101090008A15D42456088316D9008312550883165E
:1010A000D800831254088316D7008312530883167E
:1010B000D6000800C4003C08C2003B08C1003A0842
:1010C000C0003908BF003D08AC003E08AD00AE01CD
:1010D000AF014208B3004108B2004008B1003F0828
:1010E000B0000A128A155B270A128A152F08C2005F
:1010F0002E08C1002D08C0002C08BF00C40A4208F9
:10110000410440043F04031D632844088400831302
:101110008001C4033D08A0003E08A100A201A30174
:101120003C08A7003B08A6003A08A5003908A4001F
:10113000CB202008C3003D08AC003E08AD00AE0146
:10114000AF013C08B3003B08B2003A08B1003908CF
:10115000B0000A128A155B270A128A152F08BC00F4
:101160002E08BB002D08BA002C08B9000A30430233
:10117000031CBC280730C3073030C3074408840071
:10118000430883138000C4033C083B043A04390439
:10119000031908008A2823082204210420040319C3
:1011A0000029F901F90AA31BDB280310A00DA10DEA
:1011B000A20DA30DD22823082702031DE928220827
:1011C0002602031DE92821082502031DE92820081D
:1011D0002402031CFA282008A4022108031C210F62
:1011E000A5022208031C220FA6022308031C230FBA
:1011F000A7020310A30CA20CA10CA00CF90BDB2876
:101200002708A3002608A2002508A1002408A000A2
:1012100008000A30CC01CC0ACD01CD0ACE008316DD
:10122000630831218316E30008000D30CC00FF3045
:10123000CD01CD0ACE0083165E0831218316DE0073
:1012400008008C30F900E630FA00DF309E21C4300F
:101250000A128A15BA260A128A1502300A128A114F
:10126000B72C8312D300FB010230FC007B087C0406
:1012700003199B2972114D08F9004E08FA005330EA
:101280009E210A128A1508304C0603194D2953086D
:10129000CF00D001D101D20165295308A00003304D
:1012A000A101A201A301A701A601A500E830A400A5
:1012B0000A128A11D7220A128A152308D20022089C
:1012C000D1002108D0002008CF005208C8005108E2
:1012D000C7005008C6004F08C5000A30C900C63014
:1012E0000A128A1502270A128A15FD004C08A90065
:1012F0007D080A168A11B9230A128A15FD07C4301F
:101300000A128A15BA260A128A150A168A11F227B3
:101310000A128A150A128A15CE260A128A15F213A3
:101320007213F212721298297B087C040319362971
:10133000721D94293629721553080800A0008400F4
:1013400083130008A100F21FB029A10A7A08013E08
:101350002106031DAD297908A100FB010230FC0024
:10136000721FBD29A1037908FF3E2106031DBA297A
:101370007A08A100FB010230FC002008840021084B
:1013800080000800ED01EE010A168A1520260A12D7
:101390008A158312031310148B178316BF01F213DF
:1013A0007213F2127212D6297219DA2929082A0444
:1013B0000319D42972110A30831603134406031D3E
:1013C000E6290A168A15D3230A128A15721E182ACC
:1013D000701CF11BFD297218FD2983166A08031D74
:1013E000FD296A088312ED006E088316EA00701466
:1013F000F2137213F2127212182A701C182A831632
:101400006A088312EE006D088316EA007010F2136A
:101410007213F2127212D630831277220A168A15CC
:10142000C1250A128A150A168A15B0270A128A15CA
:101430007018302AF11D1E2A02301F2A063083122E
:10144000EF0083163F08031D2A2A0A168A157B23FC
:101450000A128A150A128A1124260A128A15332AB8
:1014600007308312EF00831603136A08B500F901F1
:1014700083126F08FA00EA300A128A15B6270A1298
:101480008A15831635086A0603194B2AED01F213F3
:101490007213F2127212701C542A6A080A128A1508
:1014A0007D220A128A15742AF11D5B2A03306A0212
:1014B000031C5B2AEA01EE116A082F3E840090307B
:1014C0000318013E8312FF000A168A1100200A1237
:1014D0008A150A128A1167200A128A1583160313C5
:1014E000EE19EA0AEE19542A7219DA29742AA000B0
:1014F0001030A101A201A30008008312E600E61F3C
:10150000832A0130842A0030E5000F30E6050310FD
:10151000660D123E840090300318013EFF000A164B
:101520008A1100200A128A15E7000A168A11002083
:101530000A128A15E8006508031DD12A8030BA26F0
:101540000A128A15363083120313A0009230A100CC
:10155000C630A20129240A128A15CF270A128A1539
:10156000CE260A128A15C030BA260A128A158312AC
:1015700003136608313E8316C6002E30C7003C3088
:101580008312A0009030A1006708A200C83029246F
:101590000A128A15023ECF270A128A15CE260A128F
:1015A0008A15721BD62A65080319080072130A16D9
:1015B0008A1101240A128A15FB010230FC007B0803
:1015C0007C040319072B72118030BA260A128A157F
:1015D000F3270A128A156708A200C63029240A12C6
:1015E0008A15CF270A128A15CE2668080A128A1190
:1015F00067200A128A15F2137213F2127212042B68
:101600007B087C040319DF2A721D002BDF2A721568
:1016100008008030BA260A128A150D30831203138F
:10162000A0009230A100C630A20129240A128A1516
:10163000ED270A128A15CE260A128A157111F110A9
:101640008316B101B201F0127012C6308312A000ED
:101650003D30A101A2001030A300A3270A128A1571
:10166000FB010630FC008316C2011E2C7B087C04A3
:10167000031D7218592B83164208031D1E2C1930A6
:10168000C200C030BA265B3083120313A000A10150
:101690007C08A3007B08A2000A168A1183270A127D
:1016A0008A152008CF270A128A15CE260A128A1513
:1016B0001E2C7B087C040319E42BF11C71186A2B87
:1016C0000030FB000C30FC0071140A168A11012452
:1016D0000A128A158316031332088312D400831664
:1016E00031088312D3000230D500C6300A128A11A5
:1016F00029240A128A15FD000930A9007D080A165E
:101700008A11B9230A128A15FD072030CC007D0802
:10171000CD001030CE00C6303B270A128A15701B50
:10172000942BE001E101C62B8316D6270A128A15F5
:101730008630AE01AF01B3001C30B2004630B100BC
:101740008030B0005B270A128A152F08DF002E08B0
:10175000DE002D08DD002C08DC0083162F08831224
:10176000AC00831630088312AD00AE01AF015F08F4
:10177000B3005E08B2005D08B1005C08B0005B27F2
:101780000A128A152D08E1002C08E0006008C50047
:101790006108E7270A128A150227FD00A901A90A94
:1017A0000A168A11B9230A128A15C030BA260A12FB
:1017B0008A15103083120313A900AA000330AB006E
:1017C000C630CE260A128A157B087C04031DF11848
:1017D000F02B04308316C200420803191E2CEC2B98
:1017E000F118F01AF52BF0161E2C71107B087C04F2
:1017F000031D0F2CC030BA260A128A1556308312E8
:101800000313A0009230A100C630A20129240A12BD
:101810008A15ED270A128A15CE260A128A15023079
:101820008316EF00FB010430FC00192CF21F721B21
:101830001D2C7B087C04031D162C7016701EF21BD9
:10184000232C721F362B7110F2137213F2127212C4
:101850000800A80022080319382C2108FF002008DE
:1018600084000A168A1100200A128A15A500392C54
:10187000A501A6012508A70022080319692C210843
:10188000A4002008A300A00A0319A10A2408FF004D
:10189000230884000A168A1100200A128A152706D6
:1018A000031D3C2CA2033C2C2108FF0020088400CF
:1018B0000A168A1100200A128A15A3002208280796
:1018C000A4008400230883138000A00A0319A10A3E
:1018D000A20A2108FF00200884000A168A110020AD
:1018E0000A128A152706031D542C220808008316A5
:1018F000611F7C2CEE1508008030BA26023083125E
:101900000313DC0080300A128A1109250A128A1595
:10191000C030BA26023083120313DC0081300A1271
:101920008A1109250A128A158830BA260A128A15E0
:10193000831203130830A901AA000230AB00C6309D
:10194000CE260A128A15C830BA2602308312031333
:10195000DC000A128A1109250A128A1583166E1AEA
:10196000B72C03303F02031CB72C0230BF00721E9D
:10197000080072128030BA260A128A15F3270A125A
:101980008A150630A200C63029240A128A15CF27EC
:101990000A128A15CE260A168A158224F2137213A9
:1019A000F2127212721508005A08C8005908C700CE
:1019B0005808C6005708C5000A30C900C6300227BB
:1019C0000A128A15E30056085A02031DF12C550825
:1019D0005902031DF12C54085802031DF12C530821
:1019E00057020318FB2C5A08D6005908D50058088E
:1019F000D4005708D3005608C8005508C70054083B
:101A0000C6005308C5000A30C900C63002270A12B2
:101A10008A15E1003030CC006108CD006308CE00AB
:101A2000C6303B270A128A15DC016308103CDB0034
:101A3000031CDC030310DC0CDB0C5B08C03EE20083
:101A4000E401FB010230FC007B087C0403198D2DAE
:101A50007211F901831203136308FF3EFA00643028
:101A6000B6270A128A15721F622D6408C63E8400CA
:101A70003A30800A0002031C3E2DFA27C6300A12B3
:101A80008A115D270A128A152F08E0002E08DF0050
:101A90002D08DE002C08DD0060085A02031D5A2DB7
:101AA0005F085902031D5A2D5E085802031D5A2D66
:101AB0005D08570203185F2DFA270A128A15FB01E9
:101AC0000230FC000C30BA260A128A158312031366
:101AD0006208BA260A128A15831203136308A90042
:101AE0000830AA00C630AB01AB0ACE260A128A150E
:101AF00064086207BA260A128A150F30BA260A123B
:101B00008A15F2137213F21272128A2D7B087C046A
:101B10000319242D721D862D242D0C30BA26721522
:101B2000C6300A128A115D272F08D6002E08D5006C
:101B30002D08D4002C08D3000800DB01FB01023083
:101B4000FC007B087C040319322E72110F30F9015E
:101B5000FA005B30B6270A128A15721FC42D5B0883
:101B60000F3CD7000130D70AD8000030D900BB2D78
:101B70000310D80DD90DD70BB82D5808D306590826
:101B8000D406FB010230FC000C30BA260A128A157A
:101B9000303083120313CC005308C5005408C6002C
:101BA0000230C701C801C900C63002270A128A15CF
:101BB000CD001030CE00C6303B270A128A155B08D4
:101BC000C63E840083130008D13EDA00C030BA2636
:101BD0000A128A15DE270A128A15CE260A128A15DB
:101BE000C630A0002030A101A2001030A300A3271E
:101BF0000A128A155508A0005608A1005B08013E8C
:101C0000A200C63029240A128A15FD007D08031996
:101C1000132E4230A0009230A1005A08A200D23008
:101C200029240A128A158030BA260A128A15DE275C
:101C30000A128A15CE260A128A155B08C03EBA26F9
:101C40000A128A150F30BA260A128A15F213721375
:101C5000F21272122F2E7B087C040319A12D721D23
:101C60002B2EA12D0C30BA2672150800871487156B
:101C7000023083120313A6004530A500A930A4004A
:101C8000A40B402EA50B402EA60B402E083083122D
:101C90000313B200043032020318512E3030AF006B
:101CA000522EAF01B0012F081F270A128A150330E8
:101CB0003202031C672E1B3083120313A5009D30D4
:101CC000A400A40B612EA50B612E662E6E2EA530EE
:101CD00083120313A400A40B6B2E6E2E8312031326
:101CE000B203031D4A2E0230BA260A128A15283082
:101CF000BA260A128A150830BA260A128A1517302F
:101D0000BA260A168A1101240A128A150C30BA263C
:101D10000A128A150630BA260A128A15831203138C
:101D2000B30133080739031DAA2E3308F8394038A8
:101D3000BA26273083120313A000A1013308883E7E
:101D4000A2000830A3000A168A1587270A128A15EE
:101D50002730B100310884008313000829270A12B4
:101D60008A15831203134030B10AB30A33020318F1
:101D70000800912E83120313A10087101F270A1257
:101D80008A15210EF0391F270A128A15573083123F
:101D90000313A000A00BCA2E00000800B100AD0183
:101DA00029082A02AF002B0BD72EAF01DD2E0330FE
:101DB0002B06031DDD2E0310AF0C29082F07AE00E4
:101DC000B0012A083002031808002F083002031C53
:101DD000ED2E2E083002031CF22E203029270A1285
:101DE0008A15FE2E2D083107AC00840083130008ED
:101DF00029270A128A1583120313AD0A83120313CB
:101E0000B00AE12ECB004808BC004708BB004608DA
:101E1000BA004508B9004908BD00BE014B080A12C6
:101E20008A155A200A128A15CA01CA0A4A084B079B
:101E3000FA0084000008031D152F4A080800FA0064
:101E4000F039F90007080F397904870087158711E1
:101E50000800A10087141F270A128A15210EF039E5
:101E60001F270A128A15573083120313A000A00BF4
:101E7000372F00000800D2004D080319572FCD035B
:101E80004D085207CF00840083130008D000CE0312
:101E90004E085207D1008400500880003C2FCE032A
:101EA0004E085207CF0084004C08831380004E0870
:101EB000031908004F2FB401B501B601B7012F086F
:101EC0002E042D042C0403199A2FB801B80AAF1B55
:101ED0006F2F0310AC0DAD0DAE0DAF0D662F0310BF
:101EE000B40DB50DB60DB70D2F083302031D822FAB
:101EF0002E083202031D822F2D083102031D822F6E
:101F00002C083002031C942F2C08B0022D08031C4F
:101F10002D0FB1022E08031C2E0FB2022F08031C36
:101F20002F0FB30234140310AF0CAE0CAD0CAC0C7D
:101F3000B80B6F2F3708AF003608AE003508AD007C
:101F40003408AC0008002008F9002108FA00A303B7
:101F5000230FAB2F08007908840083177A1C8313A2
:101F600022088000F90A0319FA0AA72F8312031323
:101F7000A100840083130008A000F21FCA2FA00A4A
:101F80007A08013E2006031DC72F7908A000FB0137
:101F90000230FC0021088400200880000800A9000D
:101FA0001030AA00C630AB01AB0A08005C088312EF
:101FB000AC0083165D088312AD0008001030831258
:101FC0000313A900AA00C630AB01AB0A0800C60083
:101FD0000A30C701C801C900C634A9001030AA00E0
:101FE0000330AB00C6343C3083120313A0009030A2
:101FF000A10008006408C63E84003030800008005C
:10200000FF1B0A2883137F1883170008840A03190B
:10201000FF0A08007F087F398A000408840A031930
:10202000FF0A8200013404340234013403340734DB
:1020300004340A3405340D340834103406341334AF
:102040000934163400341F343B345A34783497340E
:10205000B534D434F334113430344E346D341C344C
:1020600019341F342234253428342B3481348434F9
:1020700089348C348F34C03400344634553445347C
:102080004C34203463346F346E34733474346134BC
:102090006E3474340034563453345334203463343F
:1020A0006F346E347334743461346E347434003489
:1020B00074346F34743461346C3420347434723456
:1020C00069347034003476346F346C347434613471
:1020D000673465342034613464346A34753473345D
:1020E00074340034733465347434743469346E3445
:1020F0006734733420346234693474347334003494
:10210000743465346D3470342034733465346E3413
:1021100073346F347234733400347334653472340E
:102120007634693463346534203463346E34743403
:102130007234733400346D3469346E342034733443
:102140007034653465346434003473347734203447
:10215000763465347234733469346F346E340034D9
:10216000003470346134693472342F347034613423
:102170007234203469346E346A34003473346B340E
:10218000693470342034743465346D347034003400
:102190006B3465347934203473346F3475346E3471
:1021A00064340034733465347234763420346134EA
:1021B0006C34613472346D340034643475346D348D
:1021C0006D34793400346D346834203472347034B2
:1021D0006D3400346434613469346C3479342034BF
:1021E0007434723469347034003469346E342F348A
:1021F0006F34753474342034743465346D34703411
:10220000003464347334333432343334313420346E
:10221000743465346D347034003400340034003468
:102220000034003400340034003465346E346734D4
:1022300069346E346534203468346F3475347234E4
:102240007334003465346E34673469346E34653405
:1022500020346F3469346C3400346734653461344D
:10226000723462346F34783420346F3469346C34AF
:1022700000346134693472342034663469346C3427
:1022800074346534723400347334703461347234AD
:102290006B34203470346C347534673473340034E8
:1022A0000034733475346E346434613479340034FA
:1022B0006D346F346E346434613479340034743482
:1022C000753465347334643461347934003477346C
:1022D000653464346E346534733464346134793411
:1022E0000034743468347534723473346434613453
:1022F0007934003466347234693464346134793446
:102300000034733461347434753472346434613439
:102310007934003400346A3461346E340034663405
:102320006534623400346D346134723400346134A5
:102330007034723400346D346134793400346A346A
:1023400075346E3400346A3475346C34003461345E
:1023500075346734003473346534703400346F344A
:102360006334743400346E346F347634003464343F
:10237000653463340034FF3400340134FF340234F4
:102380000334FF3404340534FF3406340734FF3497
:102390006834FF346C34FF345634FF346B346D349E
:1023A000FF347334FF34DF34FF343C34FF346D3496
:1023B0007334FF34FF34743469346D34653420343D
:1023C00063346F3472347234653463347434693412
:1023D0006F346E343F340034313437343A3435346A
:1023E00039342034333430342E34303436342E34CF
:1023F0003234303432343234003400342D342D341D
:102400002D3400346F3475347434003469346E34D0
:10241000003465346E3467340034773461346934A1
:102420007434203466346F3472342034733474342A
:10243000613472347434003430342D3431343034F7
:1024400030342034743469346D3469346E34673414
:1024500000340034633475347234003464346134CD
:1024600079340034413400344234003443344F343E
:102470004E3446344934473420344D3445344E3498
:1024800055340034003420346F34663466340034FC
:10249000203420346F346E3400342D342D342D34F8
:1024A0002D342D3427342D342D34003474346934D4
:1024B0006D3465346F34753474340034723465347B
:1024C0007334653474343F34003474347234693492
:1024D0007034203400342D342D342D342D34003418
:1024E60064008001840A0406031900340406742A71
:1024F600C0300A128A15BA260A168A11EC308312DF
:102506000313A0009130A100C630A2010A128A1559
:1025160029240A168A110A128A15CF270A128A1541
:10252600CE2ED1001E30AC00AD01AE01AF01510878
:10253600083EE4270A128A155B270A168A112D0817
:10254600D3002C08D2003C30A000A1015308A30000
:102556005208A20083272008CD002108CE00CF0113
:10256600D0015008C8004F08C7004E08C6004D08E5
:10257600C5000A30C900C6300A128A1502270A1693
:102586008A11FD00C63E84003A3080003C30FD0AC8
:10259600A000A1015308A3005208A200AD270A1605
:1025A6008A11200866270A168A11AA007D08C63EE7
:1025B6007626FD0AFD0A7D08A9000830AA004C0807
:1025C600AB00C6300A128A15CE2E0530F900EB3064
:1025D6004A2580300A128A15BA260A168A1114303C
:1025E60083120313A0009130A10083166B08013EED
:1025F6008312A200C6300A128A1529240A168A11E5
:102606000A128A15CF270A168A110A128A15CE26A9
:102616000A168A1183166B08031D1C2B1A308312A7
:10262600D30036270A168A117A08CE007908CD001B
:102636002E2B6B088312CC000310CC0D0310CC0D8F
:1026460003104C0D123ED300840083170008CD0002
:10265600840A0008CE004D08C5004E080A128A15E5
:10266600E7270A168A110A128A1502270A168A11FC
:10267600FD0083166B080319422B0830432B0530E7
:102686008312CF00A9007D08B923FD077D08C63E49
:102696008400203083138000C030FD0A0A128A1598
:1026A600BA260A168A11F2270A128A15CE260A16A1
:1026B6008A115308033E840083170008D000840A59
:1026C6000008D100840A0008D200C8300A128A1510
:1026D600BA260A168A11831203135108B200520849
:1026E600B300500885260A168A115E30B200923071
:1026F600B300C5230A168A11003A031908003A30B6
:1027060013240A168A1183166B0803198C2B6B0B7C
:102716009C2B8312031714309001910192019301AF
:10272600840083178001840A8001840A8001840A58
:102736008001831203135308840083178001840ADF
:1027460080015308033E840003173D0880000313ED
:102756005308043E840003173E0880000313530801
:10276600053E840003173F0880000800AA00BB301E
:10277600A0009130A1002908A2002A08C63E0A122C
:102786008A15292CB401721EFF2BF2137213F21252
:102796007212012480300A128A15BA260A168A1184
:1027A600831203133208A0003308A100C630A20129
:1027B6000A128A1529240A168A11A9001030AA00BD
:1027C6000330AB00C6300A128A15CE260A168A11C5
:1027D600FB010230FC00F22BF21F721BF62B7B086A
:1027E6007C04031DEF2B721FFA2BB401B40AF213FB
:1027F6007213F212721272153408080001300A12AE
:102806008A15BA260A168A110F3083120313A300FB
:102816000430A200A20B0D2CA30B0D2C0000080007
:1028260083120313A50001250A168A11D030E62467
:102836000A168A110030E6240A168A110430831219
:102846000313A300A30B252C282C01250A168A1195
:10285600D130E6240A168A1100308D240A168A1110
:10286600A4002508840000308D240A168A118317D7
:102876008000250A840000308D240A168A118317E9
:1028860080002508023E840000308D240A168A1135
:10289600831780002508033E840000308D240A1625
:1028A6008A11831780002508043E840000308D2499
:1028B6000A168A11831780002508053E8400803099
:1028C6008D240A168A11831780003B250A168A1161
:1028D6008312A41F0800250884005930831780003E
:1028E600250A8400173080002508023E8400053042
:1028F60080002508033E8400303080002508043E11
:102906008400063080002508053E840022308000C1
:102916002508A52CA0000830A100A2010310A20DD5
:102926000E250A168A11A204A10B912C2008222535
:102936000A168A119E2C9F2C000083120313861000
:102946002208080083120313A20001250A168A1121
:10295600D030E6240A168A110030E6240A168A11B7
:102966000030E6240A168A1122088400831700081C
:10297600E6240A168A11220A840083170008E62430
:102986000A168A112208023E840083170008E624EC
:102996000A168A112208033E840083170008E624DB
:1029A6000A168A112208043E840083170008E624CA
:1029B6000A168A112208053E840083170008E624B9
:1029C6000A168A113B2D83120313A0008030A10042
:1029D6002008210522250A168A11831203130310E3
:1029E600A10C2108031DEB2C0E250A168A11FB2CBF
:1029F600FC2C0000831203138610080083120313B5
:102A0600861483160610831206100530F900F90B9A
:102A16000A2D0000080086100530F900F90B112D6B
:102A26000000831603130614831286140330F9007C
:102A3600F90B1B2D83120313060801390800FA004F
:102A46008610831606107A08031D2C2D8312061095
:102A56002E2D831206140530F900F90B302D0000D7
:102A66008312031386140330F900F90B382D08007E
:102A760083160610831206100530F900F90B412D56
:102A860000008312031386148316061408008312AB
:102A96000313A000721F592D7213840083130008BC
:102AA600013EFA00200884007A088000200884008D
:102AB60079088313000220088400031C652D800119
:102AC60020088400000808003A3013240A168A11E8
:102AD600DB308312B2009130B300C5230A168A1187
:102AE600003A03191F2EBB0101240A168A11FB01A5
:102AF6000230FC007B087C040319152E7211063087
:102B0600F901FA003B300A128A15B6270A168A110D
:102B1600721BAC2DEA2D3B30BA001730952D3A309A
:102B2600BA003B30B801AA2D3D30BA001F30A82D9F
:102B36003E30BA000C30A82D3F30BA001630B8002F
:102B46002030AA2D3C30BA000730B801B80AB900C7
:102B5600C82D3B08B600B7013708003A0319B42D53
:102B6600C82D3608003A03198E2D013A0319922D05
:102B7600033A0319972D013A03199B2D073A0319B6
:102B86009F2D013A0319A52DC82D3808AA0039082A
:102B9600AB003A08840083170008CC260A168A116F
:102BA600B6003A08840036088317800002303B06D8
:102BB6000319E52D03303B060319E52D04303B06CA
:102BC600031DE72D3A30DB26FB010230FC00F21331
:102BD6007213F21272120C300A128A15BA260A16EB
:102BE6008A113A3021263B08363E8400903003187D
:102BF600013EFF000A168A1100200A168A110A12DF
:102C06008A15BA260A168A110F300A128A15BA26AA
:102C16000A168A11122E7B087C0403197D2D721D5B
:102C26000E2E7D2D0C300A128A15BA260A168A1126
:102C36003A30A524721208003A30212E831203136B
:102C4600B50080300A128A15BA260A168A1183122E
:102C560003133508840083170008B200B301B30AD2
:102C6600350A840000085D2688300A128A15BA26BD
:102C76000A168A11831203133508043E840083174B
:102C86000008B2003508053E84000008B300350888
:102C9600033E840000088526C0300A128A15BA262B
:102CA6000A168A11831203133508023E840083171D
:102CB6000008D12F0313B400AA00C63076260A16E0
:102CC6008A113A308316C80083123208AA00C93026
:102CD60076260530A9000830AA003308AB00C630B6
:102CE6000A128A15CE2EAB002B0A84002A080F3949
:102CF600303E831380002B0884002A0E0F39303EA5
:102D060080000800B400340803198B2E340F972E68
:102D16004D30A0009230A100C630A2010A128A15D9
:102D260029240A168A11B22E3408AA00C63076263D
:102D36000A168A118A30A0009130A1003208BB26FB
:102D4600A200C8300A128A1529240A168A112730C9
:102D56008316CB0083123308AA00CC3076260830BF
:102D6600A900AA00C630AB01AB0A0A128A15CE2EFC
:102D7600FA00F9000F30F90578300310FA0CFA055D
:102D86007A08F9070310FA0C0310FA0C7A08790787
:102D96000800AD00BB260A168A11AE00AE0AAC00CA
:102DA6002B082C02031CD92E2A08AE002E08662FEB
:102DB600B30024308400CB30A0000408A1000C30FE
:102DC600A2002008840083170008A300A00A210897
:102DD6008400831323088000A10AA20BE42E330883
:102DE600053E840083170008BB260A168A11B10027
:102DF6003308043E840083170008BB260A168A118E
:102E0600B0003108B2003108A0000310A00C031076
:102E1600A00C2008B2073308033E8400831700087D
:102E2600BB260A168A11B2073008FF3E243E8400EC
:102E360083130008B20731080339031D272F033017
:102E460030020318272FB20307303202031C2E2F3D
:102E56000730B202272F3308023E84003208013EB3
:102E66008317800008008316611D492F83120130E5
:102E7600AF01AE007730AD000430AC01103EE42760
:102E86000A128A155B270A168A11FB2F831207304E
:102E9600AF01AE01AD000830AC00031713080313F1
:102EA600B300031712080313B20003171108031324
:102EB600B100031710080313B0000A128A155B2726
:102EC6000A168A11FB2FA700A8000A30A901A00044
:102ED600A1012908A3002808A20083270A168A113F
:102EE6002008FA007A0EF039FA000A30A000A10193
:102EF6002908A3002808A200AD2720087A070800A1
:102F0600A401A501200821040319A82FA601A60AD9
:102F1600A11B912F0310A00DA10D8A2F0310A40D44
:102F2600A50D21082302031D9A2F20082202031C47
:102F3600A42F2008A2022108031CA303A302241421
:102F46000310A10CA00CA60B912F2508A1002408A4
:102F5600A0000800200821040319CC2FF901F90A62
:102F6600A11BB92F0310A00DA10DB22F210823021A
:102F7600031DBF2F20082202031CC82F2008A2020F
:102F86002108031CA303A3020310A10CA00CF90B38
:102F9600B92F2308A1002208A0000800B200503073
:102FA600A0009130A1003208A200C6300A128A158C
:102FB60029240A168A110A128A15CF270A128A1597
:102FC600CE2E840083170008B000840A0008B100E2
:102FD600840A0008B200840A0008B30008007D08CD
:102FE60083120313A9000830AA000230AB00C634CE
:0A2FF6002D08FA002C08F90008006D
:10313A00831661088312D400831660088312D300B1
:10314A00B030D5009030D6000A128A159D25831218
:10315A00031354088316E100831253088316E00010
:10316A0008000B1CF82986080B10831203130F089A
:10317A008316A60083120E088316A5002508031DD0
:10318A00CA2883120F088316A60083120D1CD228A0
:10319A006A308316A5001830A6008312861B3229CE
:1031AA00711B5429831681127117F117F0158312B6
:1031BA000317940A0319950A0319960A0319970A19
:1031CA0083160313E11BF22883120317940A0319C7
:1031DA00950A0319960A0319970A711A0029711692
:1031EA0083160313A001A101A2012608A80025083D
:1031FA00A700C00154298316031325080317C60024
:10320A00031326080317C700C80103132708F3008E
:10321A002808F400F50173080317C6027408031C92
:10322A00740FC7027508031C750AC8020313200825
:10323A000317C6070313210803110318210A0317EA
:10324A00031DC7070313220803110318220A0317D1
:10325A00031DC8070317F116F628711F5429831690
:10326A0081167113711E542926080317CA00031305
:10327A0025080317C900031327080317C9020313F4
:10328A0028080317031CCA03CA02031320080317DA
:10329A00C9070318CA0A031321080317CA078312A6
:1032AA000313061FF729F218F829F2147214711C75
:1032BA008F2971196C29711583162608AE00250805
:1032CA00AD00031799019A010313C10190298316CE
:1032DA0003171A080313B000031719080313AF00E2
:1032EA002D08AF022E08031CB003B0022508AF0751
:1032FA000318B00A2608B0077017F017300834020E
:10330A00031D89292F083302031C6129F114F013C4
:10331A0071109029711183160317970A0319980AD5
:10332A000313DA0A0319DB0A5D085B02031D9F29EE
:10333A005C085A02031CB829DA01DB01D60A031910
:10334A00D70A0319D80A0319D90A831203179A0A42
:10335A0003199B0AA20A0319A30AAA0A0319AB0AA8
:10336A00B20A0319B30A831603179D0A03199E0AA0
:10337A0003135D0803171E02031DC72903135C0804
:10338A0003171D02031CCE299D019E019B0A0319E6
:10339A009C0AA90A0319AA0A03135D0803172A0239
:1033AA00031DDB2903135C0803172902031CE22906
:1033BA00A901AA01A70A0319A80AB50A0319B60A94
:1033CA0003135D0803173602031DEF2903135C0874
:1033DA0003173502031CF829B501B601B30A03190C
:1033EA00B40AF829F2100B1D332A83160317950A1B
:1033FA000319960A9F0B102A03133D0803179F000F
:10340A0003135E080317A00A2002031C102AA00156
:10341A00A10A0319A20AAB0B212A03133D080317B9
:10342A00AB0003135E080317AC0A2C02031C212A03
:10343A00AC01AD0A0319AE0AB70B322A03133D08D1
:10344A000317B70003135E080317B80A3802031CF0
:10345A00322AB801B90A0319BA0A0B1183120313E3
:10346A000D1C582B711E512A8316C00A3C30400687
:10347A00031D472A71128116F1120317C901CA01E5
:10348A00F113512A6A30A007183003181930A1071E
:10349A00003003180130A207711D642A8316031332
:1034AA00C10A0A304106031D5D2A71117013642A8C
:1034BA006A300317990703189A0A18309A0783166D
:1034CA0003134508031DA62A831206197A2A6530B2
:1034DA0083163B02031CBB0A64303B06031D872A82
:1034EA00F216F2150130EF00872A053083163B02E7
:1034FA00031C862A33303B020318862AF217F21578
:10350A00EF01BB0183128619982A653083163A02A5
:10351A00031CBA0A64303A06031DA72A7216F2156A
:10352A000130EF00A72A053083163A02031CA42AA9
:10353A0033303A020318A42A7217F215EF01BA01BE
:10354A00A72AC503F21DAD2AF21172150F30C50064
:10355A006F0A0319C12AE11AB62A02306F06031D3F
:10356A00BF2A7015F0106F086F076F07DF3EBE00A5
:10357A00B601B60AEF01EF034308B90A3902031C80
:10358A000B2BB9017215031716080313AC000317A6
:10359A0015080313AB0003179501960118080313C6
:1035AA00E900031717080313E800031797019801A6
:1035BA0003136E1C0A2B6E10F11BE52A721C042BD6
:1035CA0083120317900A0319910A0319920A03191D
:1035DA00930A8316A30A0319A40A0319A50A03194D
:1035EA00A60AAF0A0319B00A0319B10A0319B20AE3
:1035FA00BB0A0319BC0A0319BD0A0319BE0A03133D
:10360A003F0803190B2BBF030B2B6E147B087C049A
:10361A000319152B0130FB020030031CFC03FC02CA
:10362A004208031DC203F01F1D2BB10A0319B20A77
:10363A00701D562BB60B562B0A30B600F0182D2BE0
:10364A00F014EE143E08840083170008013EB80007
:10365A00EE1C3C2BEE10B80303193A2B6E153E0AEA
:10366A00840083170008B7003C2B7011F0106E1D00
:10367A004B2B3708031D492B6E113E08023E84006E
:10368A0083170008FF3EB7008312071483166E19CA
:10369A00542B3708031D522BEE148312071083167E
:1036AA00B70383120D100C1F722B1E088316AA0073
:1036BA00A9011E08A90400302A028130031929022F
:1036CA00031C692BC401702B0A304406031D6F2B9F
:1036DA007215702BC40A83120C1378088A007708B3
:1036EA008400760E8300FE0E7E0E09006E1EC42B29
:1036FA000E306E12BF0070308312B400B501C630AE
:10370A00A000A1013408A2000830A30087270A16E6
:10371A008A15E630A500C63031240A168A15031820
:10372A00AC2B3508903E8400053083170002031C39
:10373A00A72B0310350DD73E840081308000840A00
:10374A008000BC2B3508903E8400800ABC2B0310F5
:10375A00350DD73E84008316660883178000840AD5
:10376A006708800083123508903E84008001083083
:10377A00B4070330B50A350203180800842B013058
:10378A006E16BF00C82B3C250A168A15031C0800B2
:10379A00CC3067250A168A154430672D0A168A1115
:1037AA0001240A168A158B13F01DF62B3A300A16D5
:1037BA008A1113240A168A15831203173A088316E4
:1037CA00BF0083123B088316C00083123D0883168C
:1037DA00C10083123E088316C20083123F08831673
:1037EA00C3008316031362086C06F0396C06E20004
:1037FA006B088312A700A70E831662088312270696
:10380A000F3927068316E2000E240A168A150510B8
:10381A000D2C8312D630A6010A128A1577220A16AF
:10382A008A15C1250A168A151030A6079B30A000F2
:10383A000130A1002608A2002B30A300C1250A16D8
:10384A008A153030A6071030A0000130A1002608E2
:10385A00A2002A30A300C12DAF003C250A168A1502
:10386A000318392C03100800553067250A168A15E3
:10387A002F08B300B20133088400831300086725B8
:10388A000A168A150830B30AB20A3202031C402CFF
:10389A00BE3067250A168A152630B300B001B10179
:1038AA0083120313330884000C250A168A1583131E
:1038BA008000B30AB00A0319B10A3108803AFF003E
:1038CA0080307F02031D6B2C09303002031C552CFB
:1038DA008312031325088400260883138000840AB0
:1038EA00270880000830F9002630FE250A168A15B6
:1038FA002E06031D372C031408005430A000003094
:10390A00A100FF30A2000830A3000A128A15A327DB
:10391A000A168A155430F3240A168A15DC01FB01AB
:10392A000230FC007B087C040319E02C7211721F20
:10393A00A62C0430DC0A5C020318DC01FB0102300D
:10394A00FC00C630F9005430A025FD30A0009130AB
:10395A00A1005C08013EA200D2300A128A1529246D
:10396A000A168A15FD002030CC007D08CD000430EF
:10397A00CE00D2300A128A153B270A168A15C030A1
:10398A000A128A15BA260A168A150A128A15DE2713
:10399A000A168A150A128A15CE260A168A15F213EB
:1039AA007213F2127212DD2C7B087C040319972C15
:1039BA00721DD92C972C5C08031908005430A000FA
:1039CA00A1015C08D3000310D30D0310D30D03101B
:1039DA00530D683EA2000830A300C12DA2003C2569
:1039EA000A168A15031C0800333067250A168A1539
:1039FA00A301220884000C250A168A158313800065
:103A0A000830A20AA30A230203180800FE2CA00108
:103A1A00A1010310A00C21250A168A15031C182DD2
:103A2A0083120313A017831203130830A10A210279
:103A3A00031C0F2D20080800831685128312851295
:103A4A00262D272D00008316031385160830F9004A
:103A5A00F90B2D2D003083120313851A0130FA0059
:103A6A005B30F900F90B372D00007A0C0800831639
:103A7A008512831285120430FA001C30F900F90B02
:103A8A00442DFA0B442D0000831603138516743057
:103A9A00F900F90B4E2D0000031083120313851E43
:103AAA000314003003180130A0000330FA00A830D4
:103ABA00F900F90B5E2DFA0B5E2D00008312031339
:103ACA00200C0800A000A1012008013978250A1657
:103ADA008A158312031308300310A00CA10A2102CD
:103AEA0003180800692DFA000130FA057A0803194B
:103AFA008F2D83168512831285120830F900F90B6F
:103B0A00842D8316031385166330F900F90B8B2D68
:103B1A008E2D080083168512831285127430F900DF
:103B2A00F90B952D00008316031385160330F9004F
:103B3A00F90B9D2D0800A0001030A100A10BA62DA5
:103B4A0008002008840083130008A200211CB12D5C
:103B5A000F30A20EA205B22DA00A0F30A2050A301C
:103B6A002202790884002208031CBD2D373EBE2D8F
:103B7A00303E8000F90AA32DA4018B1FC72DA40192
:103B8A00A40A8B13A501230825020318DF2D200898
:103B9A0084008317211C83130008F90025082207D3
:103BAA00E3250A168A1583120313A00A0319A10A28
:103BBA00A50AC82D240B08008B170800FA008316E3
:103BCA0003178C18E42D7A0883128D0079088C006B
:103BDA003F3083168C0503108B1B03148B130C15B3
:103BEA0055308D00AA308D008C140C1103188B17D8
:103BFA000800A300A4011B2E230884000008A000CB
:103C0A000830A30AA100210803191B2E2408200644
:103C1A00A2000130A2050310A40C22080319172ED2
:103C2A008C30A4060310A00CA103082EF903790F07
:103C3A00012E240808003F260A168A1565270A124B
:103C4A008A1536260A168A15B0270A168A156E2686
:103C5A000A168A15003A03190800B33083120313AF
:103C6A00B50001300A128A11032683160317C4010C
:103C7A00C5010800263083168500013083128500AD
:103C8A00CD3083168600033083128600831687019F
:103C9A008312870181018E018F01B830831681005A
:103CAA003030831290000B309D0018309C006A302F
:103CBA009B00403083168C0001308D0068308B00E9
:103CCA00883083129F00843083169F0083121F144A
:103CDA00FF2F3A300A168A1113240A168A158316F8
:103CEA000317430883120313A00003173F082A2768
:103CFA000A168A15B500B601B51BB603B61B013400
:103D0A003608803AFF0080307F02031D8E2E023073
:103D1A00350203180134831203173D080313A00068
:103D2A0003173E083B270A168A152108AE00200809
:103D3A00AD0083160317410883120313A0008316EC
:103D4A00031742083B270A168A152108B0002008E3
:103D5A00AF00350336040319B52EB101B201B92EED
:103D6A006D30B1000130B2003208B6003108B5003A
:103D7A002F08B5023008031CB603B6022D08B50792
:103D8A000318B60A2E08B607B61B01343608803A5D
:103D9A00FF0080307F02031DD42E02303502031843
:103DAA00013483160313E118272F831235033604CF
:103DBA000319E12EB301E32E1830B300B4018316C0
:103DCA000317400883120313A00003173B082A278E
:103DDA000A168A15B500B601B51BB6033308B5072E
:103DEA000318B60A3408B607B61B0134831603173C
:103DFA003F0883120313A00003173A082A27AB00CF
:103E0A00AC01AB1BAC033608A8003508A7003C3050
:103E1A00A900AA010A128A1146230A168A152B0832
:103E2A002707B5002C0803182C0A2807B600803A81
:103E3A00FF0080307F02031D242F793035020318DA
:103E4A00013400348312350808000313A300200844
:103E5A000A168A11BB260A168A15A10023080A1611
:103E6A008A11BB26A200210822020800831203132A
:103E7A00A2000A168A11BB260A168A15FF3EA50059
:103E8A00223E840090300318013EFF000A168A1170
:103E9A0000200A168A15A3000930A4012502031C72
:103EAA00582F0130A40720080A168A11BB26A00041
:103EBA00A1012308A0070318A10A2408A1070800E2
:103ECA00D630A401A0001030A101A201A3008727C7
:103EDA000A168A151030A4079B30A0000130A100F1
:103EEA002408A2002B30A30087270A168A1530302F
:103EFA00A4071030A0000130A1002408A2002A3033
:103F0A00A300872FFA0123087A0203180800200861
:103F1A0084008317211C83137A0822079D270A1617
:103F2A008A1580000313A00A0319A10AFA0A882F26
:103F3A00F900A12F831203136400831603178C1848
:103F4A009F2F790883128D003F3083168C050C143D
:103F5A0083120C08080041308316BD003830BC00BB
:103F6A005D088312A30083165C088312A2000D3039
:103F7A000310A20DA30DA000A1010A168A1183271E
:103F8A000A168A152108831603179400831203134D
:103F9A0020088316031793000313E11FDC2F031075
:103FAA00BD0D0310BC0C03170310940C930C643062
:103FBA000313C30062080F39EC00620E0F39EB00DD
:103FCA000A128A15D6270A168A150130AE01AF01E0
:103FDA00B3005730B2005230B100A030B0000A121C
:103FEA008A155B272D088316B40083122C088316C2
:063FFA00B30008000800FE
:02400E00723FFF
:104200009300CA00040000001C001A006C003E006D
:104210006E00B3000000EA0013000500000000007B
:104220006E00000057000D000B001700EC000400AA
:104230002C001B0000000000DC000200D60009007A
:1042400069003F00D90020008E00B200000000008D
:104250001B000000600018004100510045000100F3
:1042600009000700000000001500170030000600DC
:104270002200CA0002000000000000000000000050
:10428000FE00E100050000006800A500F00000004D
:1042900000000000A70016000A0013001100210012
:1042A000000000005D001700280007001100210039
:1042B00000000000C40029000A00210003002000C3
:1042C000000000002F0035000A0007000100210057
:1042D0000000FF00000000000000000000000000DF
:1042E00028008A0009009500F00001003C00FC0055
:1042F000FF00FF00FF00FF00FF00FF00FF00FF00C6
:10430000FF00FF00FF00FF00FF00FF00FF00FF00B5
:10431000050006000500000000000000010002008A
:104320000A0015001500000010000500070001003C
:104330000700050007000000000001000200000067
:10434000000000000800100000000A001500150021
:104350000C0014001400010002000500010001001F
:10436000000000000000000000001F0015001F00FA
:10437000030005000500000000000100020000002D
:104380000000000008001000000014001C000400E1
:00000001FF
