:060000000A128A110E280D
:10000800FE00030EF8000408F9000A08FA000A16B0
:100018008A15B82E0A128A11112803170430B30062
:100028000130B4000730B5000230B6000A30B7001E
:100038000330B8000D30B9000430BA001030BB00EE
:100048000530BC001330BD000730BE000130BF00D2
:100058000630C0001630C1000830C2001C30C30092
:100068005030C4001930C5004130C6001930C700EF
:100078000230C8001930C9000330CA001F30CB0055
:100088000430CC002230CD000530CE008316031397
:100098008130E000E100E200E300E400E500E60072
:1000A800E7006430E8008312FF30E900FF30EA011E
:1000B800EB01EC000330ED009030EE01EF01831707
:1000C8008400EE300A128A1501200A128A111030B3
:1000D800840033300A128A1501200A128A11A030CE
:1000E80083138400E0300A128A1501200A128A114B
:1000F8005F30840069300A128A150120FC01FD0175
:10010800F001F101F201F301F40183010A168A15E5
:10011800A22DFF0000308A007F08820792280A1665
:100128008A11EF2C0A168A15282C0A168A15E62A2F
:100138000A128A11B7280A168A15342C0A168A1147
:100148005F2A0A168A15462C0A168A15D32A0A1611
:100158008A117F2A0A128A11D7280A128A15B42B03
:100168000A128A118E2B831649088312B900831646
:100178004A088312BA0083164B088312BB003F302B
:10018800BC004230BD000F30BE0040243908831641
:10019800C90083123A088316CA0083123B088316E3
:1001A800CB00CC010800721CDE283C30E500FF3093
:1001B8008316D906831265080319E828F01FEA2870
:1001C800333065020318EA288316D901A830FB00EA
:1001D80018300A168A1160230A128A1183165908E0
:1001E800031D9A298312620A84008012F01B1129C8
:1001F8000A128A15D3270A128A11831203172D08A7
:100208000313AE0003172C080313AF008030B001AE
:10021800B00A59260A128A112D2903171108031347
:10022800BA00031710080313B9000A30BB00BC0159
:100238003E260A128A113908C9003A08CA00E13074
:10024800CB01CC01CD008030CE01CE0A46230A1264
:100258008A11F01F731B3F29831649088312C900AE
:1002680083164A088312CA0083164B088312CB00F0
:10027800E830CC014B29031712080313C9000317F0
:1002880013080313CA008030CB01CC00E230CD0044
:100298000230CE00883046230A128A11F01F731BE1
:1002A8006A2983163A088312C900C030CA01CA0AEB
:1002B8009D220A128A116A30C9000E30CA00023023
:1002C800CB00C83082220A128A118829C030D20194
:1002D800D20A0A128A1509200A128A110317160867
:1002E8000313C900031717080313CA00CB01CC0175
:1002F800CC0A83165F08E0388312CD000230CE00A6
:10030800C83046230A128A11F31F731F0800D93018
:10031800AE009930AF000A128A15EE250A128A112A
:10032800003A031908000A128A15422A8312620A3F
:1003380084008016701BA5291B3063020318A529A9
:10034800E3010230A001A1003C30A200D8300A121B
:100358008A15D8250A128A11F21C682A3C30E50051
:10036800682A83163A088312C9008030CA01CA0A6B
:100378009D220A128A116A30C9000E30CA00023062
:10038800CB00883082220A128A1103171A08031335
:10039800C90003171B080313CA008130CB01CC0026
:1003A800E130CD00C030CE01CE0A46230A128A11B0
:1003B80003171C080313C90003171D080313CA00F9
:1003C8008130CB01CC00E330CD000230CE00C83004
:1003D80046230A128A117D2AF11FFF29F113731F80
:1003E800F31BFB290A168A11EF240A128A113C30E2
:1003F800E500F4147D2AC030C9000230CA008030FC
:100408009D220A128A110230AB01AC0088302525E2
:100418000A128A11C130C9000230CA00C0309D22B8
:100428000A128A11A230C9000230CA00C8309D22BF
:100438000A128A117D2AF11F372A2330AE009A301A
:10044800AF000A128A15EE250A128A11003A03191A
:10045800352A6B08EF006A08EE006F08ED006E0899
:10046800EC003C30E5001B30A2009A30A300DA30E3
:10047800A4010A128A1516260A128A11AB008030C6
:10048800AC01AC0A25250A128A116A30C9000E305F
:10049800CA000230CB00883082220A128A116C30DE
:1004A800C9000B30CA00C030CB01CB0A82220A1225
:1004B8008A116E30C9000C30CA000230CB00C83037
:1004C80082220A128A117D2A831658088312D600BE
:1004D800D7015708003A0319722A7D2A5608003AAC
:1004E8000319B529013A03191F2A033A0319F029F8
:1004F8007D2A7211F2107210F1130800CC0049081D
:1005080023262708B9002808BA00BB01BC01BC0A89
:100518000A128A155D270A128A11CD00C2004A08FC
:10052800C3000730C4004B08C5004C080A128A15DE
:10053800272BCD004908D000F030D0050F30C90571
:100548000310490DE03E840083130008E600840A86
:100558000008E70081306606813003196706031D2D
:10056800C22A9630A2009930A300DA30A401A40A66
:100578000A128A1516260A128A11162BD101E71FAC
:10058800CC2AE609E709E60A0319E70A2D30CF2A3B
:10059800D01AD52A2B3083160317DA0083120313D7
:1005A800D10A0F3066050A128A11F3270A128A1136
:1005B80075230A128A113F08CB004008CC0004308A
:1005C8000310CC0CCB0CFF3E031DE42A660E0F393A
:1005D800BF00670EF039BF04670E0F39C0000A303C
:1005E800C100C20175230A128A114B083F07E600B1
:1005F8004C0803184C0A4007E7000A30A000A10184
:100608006708A3006608A200F9252008AA002108A7
:10061800AB00AC015108DA3E0A128A159C260A1270
:100628008A115107CF00D01F342B2030B3004F0858
:10063800B4000830B500DA300A128A1582260A1288
:100648008A119630A2009930A3004908023EA400FE
:10065800DA300A128A1516260A128A110830CF00D3
:10066800501E382B0A30392B0E30CE004F08C200EE
:100678000E30C3004E08C4004A08C5004D080A12CF
:100688008A15272BCF004B084A0449040319CC1FAD
:10069800592B3030A2009A30A300DA30A4010A1294
:1006A8008A1516260A128A11652B4C08BC00BC1341
:1006B8004908B9004A08BA004B08BB000A128A1553
:1006C8005D27D0004D08C4000F30C4055008C20093
:1006D8004D0E0F39C3004E08C5004F080A128A157F
:1006E800272BC301C4013F1C7F2B4108C3070318F4
:1006F800C40A4208C4070310C10DC20D0310C00C80
:10070800BF0C3F084004031D772B4408C000430872
:10071800BF0008000530FB00683062258430A20065
:100728009830A3006808013EA400DA300A128A153E
:1007380016260A128A11AB008030AC01AC0A0A12E4
:100748008A1564260A128A116808031DB52BC2305F
:10075800BF008B250A128A113A08BC003908BB0071
:10076800C22B0630FB0068087D25BC3EBF00840014
:1007780083170008BB00840A0008BC003B08AA00D5
:100788003C08AB00DA30AC010A128A159C260A1222
:100798008A11BE0068080319D32B0830D42B053002
:1007A800BD005C30A2009930A3003D08A4003E08BB
:1007B800DA3E0A128A1516260A128A11BE073E0860
:1007C800DA3E8400203083178000BE0A3E08AB0062
:1007D8000230AC00C03025250A128A113F08033EBA
:1007E800840083170008AE003F08043E8400000818
:1007F800AF003F08053E84000008B0000230B10099
:10080800C830B1252330AE009A30AF000A128A15DD
:10081800EE250A128A11003A031908000A128A15ED
:10082800D3270A128A118312680803191D2C680B32
:10083800232C83160317BC01BD01BE01BF0183121F
:1008480003133F08840083178001840A80013F084E
:10085800033E840003172F08800003133F08043E5B
:10086800840003173008800003133F08053E840006
:1008780003173108800008003C08AA003D08AB00B7
:100888003E08AC00DA300A128A159C260A128A1130
:10089800C5003E083B02031D572C3D083A02031DC4
:1008A800572C3C0839020318702C3030B300390833
:1008B800AA003A08AB003B08AC00DA300A128A15E5
:1008C8009C260A128A11B4004508B500DA300A12CB
:1008D8008A1582260A128A11C0014508103CBF00F9
:1008E800031CC0030310C00CBF0C3F08C03EC4006B
:1008F8000A30C601E500F41065080319D72CA001D9
:100908004508FF3EA1000A30A20046300A128A15A7
:10091800D8250A128A11F21CA02CF2104608DA3ED9
:1009280084003A308317800A0002031C9E2C72262A
:100938000A128A110A30E500DA30E1240A128A1113
:100948002908C1002A08C2002B08C3003E02031D63
:10095800B32C42083D02031DB32C41083C02031886
:10096800B62C72260C300A128A150C250A128A1126
:10097800831203134508AB00AC01AC0A44082525D3
:10098800460844070A128A150C250A128A110F30E4
:100998000A128A150C250A128A110A128A15C72505
:1009A8000A128A117F2CF414DA30E1242908B900DC
:1009B8002A08BA002B08BB000800B500B101B20133
:1009C800B301350884008317000803191E2D350864
:1009D80084000008B4002E30B50A34060319E52C4B
:1009E8003408D03EAC00FF3003180030AD002C08AE
:1009F800AE002D08AF00B0013108A0003208A100F8
:100A08003308A2000A30A300A401A5013B250A125D
:100A18008A112008AE0721080318210FAF07220802
:100A28000318220FB0072E08B1002F08B2003008B3
:100A3800B300E52C3108A9003208AA003308AB003E
:100A48000800AD002D0A031908002D080A128A159E
:100A58000C250A128A110A128A15F9272B08A300F5
:100A68000830A4002C08A5000A128A15822DA601B8
:100A7800A701A801201C4E2D2308A607240803114E
:100A88000318240A031DA707250803110318250ABC
:100A9800031DA8070310A30DA40DA50D0310A20C98
:100AA800A10CA00C220821042004031D3E2D2608B9
:100AB800A0002708A1002808A2000800A100F21C35
:100AC8006F2DF210840083130008013EA000210856
:100AD800840020088000210884007B08831300021A
:100AE80021088400031C7B2D800121088400000854
:100AF8000800A100A0017B082118A0070310FB0D26
:100B08000310A10C2108031D7F2D200808000E30BA
:100B1800AF01AE01AD001030AC00831603173F08DB
:100B280083120313B300831603173E0883120313BB
:100B3800B200831603173D0883120313B10083160E
:100B480003173C0883120313B0000A128A156C239A
:100B58002D08BA002C08B9000800B2002E080319A5
:100B6800B72D2E0FC32D0A30A2009A30A300DA3019
:100B7800A4010A128A1516260A128A11E42D2E08D3
:100B8800AB00DA30EA25FA30A2009830A3002F082B
:100B98000A128A152A250A128A11A400DC300A12C0
:100BA8008A1516260A128A11273083160317DF00C2
:100BB800831203133008AB00E030EA250A128A11C9
:100BC8000830AB003108AC003208252DAC002C0AE7
:100BD80084002B080F39303E831780002C088400CE
:100BE8002B0E0F39303E80000800A401A501200813
:100BF800210403191E2EA601A60AA11B072E031005
:100C0800A00DA10D002E0310A40DA50D210823028F
:100C1800031D102E20082202031C1A2E2008A202EF
:100C28002108031CA303A30224140310A10CA00C85
:100C3800A60B072E2508A1002408A0000800FB0029
:100C4800840083130008A200840A0008A30005306A
:100C58000310A20DA30DFF3E031D2C2E8316520870
:100C6800723C8312A000A101F9252108A8002008E0
:100C7800A70008003C08BE003B08BD000310BE0CDE
:100C8800BD0C3D08A2003E08A3003908A2070318BE
:100C9800A30A3A08A3073C08A1003B08A000F925CD
:100CA8002108BA002008B9000800B1002E08AB00DE
:100CB800DA30EA250A128A113A3083160317DC0063
:100CC800831203132F08AB00DD30EA250A128A11BC
:100CD8000530AB003008AC003108252D4608DA3E57
:100CE8008400303080000800831603132B08831219
:100CF800BA0083162A088312B900BB270A128A1180
:100D08003A080317910003133908031790001108D4
:100D180083163B02031D942E8312100883163A0291
:100D280003189E2E831211088316BB008312100825
:100D38008316BA00031329088312C60083162808ED
:100D48008312C50083162B088312C80083162A084D
:100D58008312C700831656080F398312F3270A1225
:100D68008A1175230A128A11400803171102031DFC
:100D7800C12E03133F0803171002031CC52E0130B0
:100D8800C62E00300313C9005B270A128A114608D1
:100D9800031797000313450803179600731AD72EF5
:100DA80092019301322F83160313D41BE42E0430CF
:100DB8008312D5007830D4006830D300C030EC2ED0
:100DC80002308312D5003C30D4003430D300603078
:100DD800D20083165A088312AC0083165B0883126C
:100DE800AD0083165C088312AE00AF015508B3004E
:100DF8005408B2005308B1005208B0000A128A150C
:100E08006C230A128A112D080317930003132C0868
:100E1800031792000A300313BB00BC010317130821
:100E28000313BA00031712080313B9000A128A1130
:100E38003E260A128A113A08C0003908BF000A3053
:100E4800C100C2010A128A1175230A128A114008C8
:100E58000317930003133F08031792001930031375
:100E6800A000A10183165E088312D10083165D08D5
:100E78008312D0000310D00DD10D0310D00DD10D69
:100E88005008A2005108A3000A128A11F9250A1273
:100E98008A112108031795000313200803179400EB
:100EA800F31F0800100811040319F3130800490878
:100EB800031D752FED270A128A11E32742088312B2
:100EC800A400A501A601A7010A168A1198240A12EE
:100ED8008A112308B3002208B2002108B1002008B3
:100EE800A42F4708AC004808AD00E3272608831262
:100EF800A400831627088312A500A601A7010A16D5
:100F08008A1198240A128A110A168A11B0270A121D
:100F18008A110A128A156C230A128A112F08CD0029
:100F28002E08CC002D08CB002C08CA00ED27AE01F6
:100F3800AF014D08B3004C08B2004B08B1004A0895
:100F4800B0000A128A156C230A128A110A168A112D
:100F5800E8270A128A110A128A113E263A08CF0097
:100F68003908CE004F08C6004E08C50008000A160A
:100F78008A11CC270A128A1150088312AD00AE01DB
:100F8800AF013908A0003A08A1008C30A201A301E2
:100F9800A701A601A500A030A4000A168A1198246A
:100FA8000A128A110A168A11B0270A128A110A121D
:100FB8008A156C232D08BA002C08B9000800AE0168
:100FC800AF014508A0004608A100A201A3018316AD
:100FD8000800831651088312AC00AD010800BF0059
:0A0FE8000A30C001C100C201080078
:1010020064008001840A04060319003404060228DD
:10101200D5000630FB00D7300A128A1162250A1267
:101022008A15D300D4015408003A03197028842881
:1010320083163A088312C9005208CA0055080A12D8
:101042008A119D2A6A30C9000E30CA005208CB00AC
:1010520055080A128A11822A1830B3005208B400C5
:1010620055080A168A112A2F031718080313C900F4
:10107200031719080313CA00E830CB01CC01CC0ACC
:10108200CD005208CE0055080A128A11462B83164B
:1010920049088312C90083164A088312CA008316BC
:1010A2004B088312CB00E830CC01CD005208CE00B1
:1010B20055080A128A11462B031714080313C90094
:1010C200031715080313CA000230CB01CC00ED3020
:1010D200CD005208CE0055080A128A11462B530839
:1010E200003A03191928013A03192328033A03196C
:1010F2002D28013A03193528073A03195D28013AC8
:10110200031948288428080083164608031DC028AE
:10111200831206199828653083164102031CC10AFE
:1011220064304106031DA4287214F116A428053068
:1011320083164102031CA328153041020318A32879
:1011420072157117C10183128619B328653083168F
:101152004002031CC00A64304006031DC128F11777
:10116200F116C128053083164002031CBE28153033
:1011720040020318BE28F2147117C001C128C60329
:10118200711BC528F11ED528711FCA288312E901D7
:10119200CF28F11ECF2801308312E9007113F1121A
:1011A2000F308316C600F414731DE128C50A1A30E5
:1011B2004506031DE228F4148312E501F314E22824
:1011C200C5018316E80BD0296430E800F414731BC0
:1011D200EC28F31F09290317BC0A0319BD0A0319D6
:1011E200BE0A0319BF0A980A0319990A03199A0A2F
:1011F20003199B0AA40A0319A50A0319A60A0319CB
:10120200A70AB00A0319B10A0319B20A0319B30AE9
:1012120003132D08A9002C08A800731B1229A8018A
:10122200A901AC01AD0183125F0860040319B92959
:101232005F088316CD070318CE0A8312600883164F
:10124200CE0750084E02031D28294F084D02031CE9
:1012520044294F08CD025008031CCE03CE02C90A0E
:101262000319CA0A0319CB0A0319CC0A0317C20AC3
:101272000319C30AC80A0319C90ACE0A0319CF0AF5
:10128200D40A0319D50A831203135F0883160317BE
:1012920092070318930A8312031360088316031735
:1012A20093070313500803171302031D5C2903134A
:1012B2004F0803171202031C6B2903134F0803176D
:1012C2009202031350080317031C93039302900A1C
:1012D2000319910A831203135F08831603179E07EB
:1012E20003189F0A831203136008831603179F07CC
:1012F2000313500803171F02031D832903134F080A
:1013020003171E02031C922903134F0803179E02A0
:10131200031350080317031C9F039F029C0A03191F
:101322009D0A831203135F0883160317AA07031883
:10133200AB0A83120313600883160317AB07031368
:10134200500803172B02031DAA2903134F08031782
:101352002A02031CB92903134F080317AA02031315
:1013620050080317031CAB03AB02A80A0319A90A0E
:101372008312031360088316AB0083125F0883167F
:10138200AA008312DF01E0016308031DE303831651
:101392004408031DC40383126508031DE503831279
:1013A2006408031DE403721EDA298316B40A0319C2
:1013B200B50A8312690A0319142A8316D41AE62974
:1013C200023083126906031D112A7116F111FB29DD
:1013D20083160830BF01BF0ABE00BD01112A831661
:1013E2002830EB2903308316BF001E30BE001430B4
:1013F200BD00112A83126908F500F601F51BF603F8
:101402007608003A0319062A112A7508003A0319C8
:10141200E929013A0319F029033A0319F329112A98
:101422008312E901E903711E0800F1191D2AF11561
:10143200F11483163F08BC00F11C2B2AF11083160D
:101442003C08031D272A7112F1112B2ABC037115C6
:101452003E08BB00711D362A83163B08031D342A41
:1014620071113D08BB008312071471193F2A8316BC
:101472003B08031D3D2AF114831207108316BB0398
:101482000800CA30A2009930A300DA30A40116265F
:101492000A128A15AB000330AC0080306426F213C6
:1014A20072138316B401B501DA30F0127012F01122
:1014B2008312A0000130A1003D30A2001030A30031
:1014C2000A168A110F260A128A157211F210721068
:1014D200F1131030E500E401F216202B6508031D1C
:1014E200F219812A6408031D202B1930E4006508D3
:1014F200AB000330AC00C03064260A128A15202BE0
:1015020065080319F62A721FF0198D2A1E30E500AC
:10151200F0153C250A128A15F219942A8312031334
:10152200CD01CE01C92A831603130A168A11F620A9
:101532000A128A158630AE01AF01B3001C30B20028
:101542004630B1008030B0006C230A128A152F0891
:10155200CC002E08CB002D08CA002C08C900831627
:1015620032088312AC00831633088312AD00AE0139
:10157200AF014C08B3004B08B2004A08B100490859
:10158200B0006C230A128A152D08CE002C08CD005B
:101592004D08AA004E08AB00DA30AC019C260A12B4
:1015A2008A15C2000E30C300C030C401C40AC5018E
:1015B200C50A27230A128A15831634088312B90032
:1015C200831635088312BA000230BB01BC005D27C6
:1015D2000A128A15C2000E30C3000930C40002305C
:1015E200C500C83027230A128A156508031D721B1D
:1015F200002B0B30E40064080319202BFC2A721B19
:10160200F01A052BF016202BF2126508031D192B78
:101612001330A2009A30A300DA30A40116260A126F
:101622008A15AB000330AC00C03064260A128A155A
:101632000230E9000A3079260A128A157016701EE5
:101642007219252BF21C6F2AF2120800C7005C30B7
:10165200A2009930A3004308A400EA3016260A1219
:101662008A15C8002030B3004208B4004808420777
:10167200B500DA3082260A128A154808C2074C2BB6
:101682004808EA3E840083170008C6004808DA3E8C
:10169200840046088000C803480F412B5C30A2003A
:1016A2009930A3004408A4004208DA3E16260A1222
:1016B2008A15C207470A0319080047080C250A12AF
:1016C2008A15F9270A128A154208A3000830A400D5
:1016D2004508A500822DB401B501B601B7012F0856
:1016E2002E042D042C040319AB2BB801B80AAF1B2E
:1016F200802B0310AC0DAD0DAE0DAF0D772B03108B
:10170200B40DB50DB60DB70D2F083302031D932B83
:101712002E083202031D932B2D083102031D932B39
:101722002C083002031CA52B2C08B0022D08031C28
:101732002D0FB1022E08031C2E0FB2022F08031C1C
:101742002F0FB30234140310AF0CAE0CAD0CAC0C63
:10175200B80B802B3708AF003608AE003508AD0055
:101762003408AC000800D3270A128A15A830831265
:10177200AE009930AF00EE250A128A15003A03191D
:101782008B2CBD01B9013C250A128A150A3083123D
:101792000313E500F41065080319832C0530A0013A
:1017A200A1000A30A2003D30D8250A128A153D0850
:1017B200B40001300310B40DFF3E0310031DDC2BF7
:1017C200340D7E3EB50099300318013EB60035084F
:1017D200BE003608BF00F21C692C0130B901B90AFB
:1017E200EF270A168A1500200A128A15AB0002306A
:1017F200B600B7013E07840037080318370A3F07CF
:10180200FF000A168A1500200A128A15AC003F084A
:10181200FF003E0884000A168A1500200A128A1563
:10182200840083170008DE27B8003F08FF003E0847
:1018320084000A168A1500200A128A1584003808C4
:101842008317800002303D02031C662C05303D02E6
:101852000318662C031731082A250A128A15BB00C1
:10186200031730082A250A128A15BA003B08BC0061
:101872003B08B4000310B40C0310B40C3408BC07CA
:1018820003172F082A25BC073A08113E8400983016
:101892000318013EFF000A168A1500200A128A1553
:1018A200BC073B080339031D5B2C03303A020318C3
:1018B2005B2CBC0307303C02031C622C0730BC02C9
:1018C2005B2C3C08013E0317AE000A300313E5000F
:1018D2000C300C250A128A152C304C250A128A1556
:1018E2000330EF270A168A1500200A128A150C25E2
:1018F2000A128A150F300C250A128A15C7250A12F8
:101902008A15CB2BF4143908031908002C300A1657
:101912008A11A9292C304C2D871487150230831285
:101922000313AD004530AC00A930AB00AB0B972CD4
:10193200AC0B972CAD0B972C083083120313B80015
:10194200043038020318A82C3030B600A92CB60196
:10195200B701360820250A128A1503303802031C03
:10196200BE2C1B3083120313AC009D30AB00AB0BBB
:10197200B82CAC0BB82CBD2CC52CA530831203138C
:10198200AB00AB0BC22CC52C83120313B803031D8F
:10199200A12C02300C250A128A1528300C250A12B5
:1019A2008A1508300C250A128A1517300C250A12DE
:1019B2008A153C250A128A150C300C250A128A1542
:1019C20006300C250A128A1583120313B90139084D
:1019D200F83940380C250A128A152E308312031367
:1019E200A000A1013908783EA2000830A300AA276E
:1019F2000A128A152E30A1000830A201A300A40009
:101A0200A50182250A128A150830B9074030390229
:101A120003180800E82C83120313A2008710202564
:101A22000A128A15220EF03920250A128A15573019
:101A320083120313A100A10B1C2D00000800A000BB
:101A4200F039FB0007080F397B04870087158711DF
:101A520008000313A100A0000F30A0057830031086
:101A6200A10CA1052108A0070310A10C0310A10CD1
:101A720021082007080001300C250A128A150F30B0
:101A820083120313A4000430A300A30B462DA40B5E
:101A9200462D0000080083120313B300330A8400AA
:101AA20083170008AE00330884000008AF008030BE
:101AB200B001B00A0A128A1159260A128A1533088D
:101AC200033E840083170008AE003308043E8400FE
:101AD2000008AF003308053E84000008B000023061
:101AE200B10088300A128A11B1253308023E8400FF
:101AF20083170008AE00C030AF01AF0A0A168A1180
:101B02000528230824020318882D2408A30023088B
:101B12002402A900250B8F2DA901952D033025063E
:101B2200031D952D0310A90C23082907A700AA015C
:101B320024082A020318080029082A02031CA52DDA
:101B420027082A02031CA82D2030A800B22D210844
:101B520084008317221C83130008A800A10A03191A
:101B6200A20A8714280820250A128A15280EF0399D
:101B720020250A128A15573083120313A600A60BDA
:101B8200C02D000083120313AA0A992DF11FCD2D37
:101B9200F41483120313E5017211F2107210F1139F
:101BA200831203136508031DF4180800D12DA40045
:101BB200840083130008A300721DE92DA30A2108E3
:101BC200013E2306031DE72D2008A3002208E5009D
:101BD20024088400230880000800B001F11F142E9D
:101BE200F1133C250A128A15831203132E08A20050
:101BF2002F08A300DA30A40116260A128A15AB00B8
:101C02000330AC00803064260A128A15053079262A
:101C12000A128A15F21C0F2EB001B00A7211F210CC
:101C22007210F113F41430080800AA0024080319F2
:101C3200252E2308FF00220884000A168A15002098
:101C42000A128A15A700262EA701A8012708A900B3
:101C520024080319562E2308A6002208A500A20A6A
:101C62000319A30A2608FF00250884000A168A150C
:101C720000200A128A152906031D292EA403292EE3
:101C82002308FF00220884000A168A1500200A127F
:101C92008A15A50024082A07A600840025088317B0
:101CA2008000A20A0319A30AA40A2308FF0022083B
:101CB20084000A168A1500200A128A152906031DB5
:101CC200412E24080800AD002D0A031908002D0832
:101CD2000C250A128A15DA3083120313A10001308F
:101CE200A2002B08A3001030A4002C08A500822D0E
:101CF200FB00E5006508031D72190800F2180800D0
:101D02007B2EB80035080319080034080319912EF8
:101D1200B40334083807B600840083170008922EF3
:101D22003308B700B50335083807B6008400370812
:101D320083178000832EB200AD012A08AF002B0862
:101D4200B0002C08B1000A30A000A101A2012F08A6
:101D5200A3003008A4003108A500F3260A128A1550
:101D62002008AF002108B0002208B100B20AAD0A73
:101D720030042F04031DA42E32088400831780012F
:101D8200B2030A30A000A101A2012A08A3002B0875
:101D9200A4002C08A5002C270A128A152008AE00E0
:101DA2000A30A000A101A2012A08A3002B08A40066
:101DB2002C08A500F3260A128A152008AA00210879
:101DC200AB002208AC003030AE07320884002E0887
:101DD20083178000B2032C082B042A04031DC22E91
:101DE2002D080800A601A701A80122082104200449
:101DF2000319252FA901A90AA21B042F0310A00D64
:101E0200A10DA20DFC2E0310A60DA70DA80D2208F0
:101E12002502031D122F21082402031D122F200860
:101E22002302031C202F2008A3022108031C210FD8
:101E3200A4022208031C220AA50226140310A20CE3
:101E4200A10CA00CA90B042F2608A0002708A100B2
:101E52002808A20008002208210420040319562F92
:101E6200FB01FB0AA21B3A2F0310A00DA10DA20D2C
:101E7200322F22082502031D442F21082402031DAC
:101E8200442F20082302031C512F2008A3022108FB
:101E9200031C210FA4022208031C220AA50203101C
:101EA200A20CA10CA00CFB0B3A2F2308A0002408C3
:101EB200A1002508A20008003908AA003A08AB00D0
:101EC2003B08AC00DA309C260A128A15C1003C0895
:101ED200031D6D2F410808003C08013EBD00003083
:101EE20003180130BE00803A803C031D7A2F3D0862
:101EF200410203188C2F303083120313B3004108C0
:101F0200B4003C08013EB500DA3082260A128A1576
:101F12003C08013EC100831203134108DA3EC000AF
:101F2200BF00BF039F2F3F08840083170008BD0036
:101F3200400884003D088000BF03C003BC033C0F7F
:101F4200942F400884002E30831780004108013E00
:101F52000800A401230824020318080020088400B2
:101F62008317211C831324082207C0270A128A150B
:101F720080000313A00A0319A10AA40AAB2FFB00D5
:101F8200C42F831203136400831603178C18C22F05
:101F92007B0883128D003F3083168C050C1483124C
:101FA2000C080800831603134408031D08000A30B6
:101FB200C4002C300A168A110529AE002A250A12FD
:101FC2008A15AF00AF0AAD002C082D02031CEB2FBF
:101FD2002B08AF002F080A168A11912FB400B50101
:101FE2003E07840035080318350A3F07FF00080042
:0E1FF200DA3083120313A1000130A2000800B0
:10200A00B000C030A2009830A3002E08A400DA3035
:10201A000A128A151626B100AB002F08AC00300848
:10202A000A128A15642E3E200A168A117C200A1288
:10203A008A158D240A168A119F200A128A15D32717
:10204A000A168A1183120317B21F08006D200A1696
:10205A008A11003A03190800A83083120313B10049
:10206A0001300A168A11CB2483160317BA01BB0161
:10207A0008002A3083168500013083128500CD308E
:10208A00831686000F308312860083168701831217
:10209A00870181018E018F01B830831681003030AB
:1020AA00831290000B309D0018309C006A309B0010
:1020BA00403083168C0001308D0068308B008830E8
:1020CA0083129F00843083169F0083121F14AB284B
:1020DA00FB01FB0A2F0883163606031D7A28831292
:1020EA003008831637060319FB017B080800C9303C
:1020FA00A0000E30A101A201A3000A128A15AA2784
:10210A000A168A119030A0000130A1001030A200F6
:10211A002C30A3000A128A15AA270A168A11BC3083
:10212A00A0000130A1004030A2001E30A3000A1214
:10213A008A15AA2FAC2055080F39D700560E0F3929
:10214A00D800550E0F398312E80008000800413004
:10215A008316C3003830C20082308312AC00AD014E
:10216A00AE01AF0183164F088312A00083165008F0
:10217A008312A100CA30FE200A168A1198240A1670
:10218A008A110A168A11B0270A168A110A128A15A2
:10219A006C230A168A112D088316A70083122C08AD
:1021AA008316A600D41FE0280310C30D0310C20C27
:1021BA000310A70CA60CF6200130AE01AF01B30044
:1021CA005730B2005230B100A030B0000A128A155E
:1021DA006C232D088316B70083122C088316B600C9
:1021EA0008004F088312AC00831650088312AD0012
:1021FA000800A201A301A400A501A601A7010800E5
:10220A008312A700063E8400D03083178013A101F1
:10221A00A10AF2210A168A11003A031D692900301F
:10222A00A101F2210A168A11D130A101A10AF221D3
:10223A000A168A11003091210A168A118039031D63
:10224A002829013029290030A6002708063E8400E3
:10225A00A60CA60C8317000826067F3926068000DE
:10226A0027088400003091210A168A1183178000FA
:10227A00270A8400003091210A168A1183178000E8
:10228A002708023E8400003091210A168A1183171A
:10229A0080002708033E8400003091210A168A1123
:1022AA00831780002708043E8400003091210A1613
:1022BA008A11831780002708053E84000130912186
:1022CA000A168A11831780004D220A168A11831270
:1022DA002708063E84008317801B0800270884000D
:1022EA0010308000270A8400193080002708023E37
:1022FA008400033080002708033E840013308000E6
:10230A002708043E8400063080002708053E840022
:10231A00233080002708A929A1000830A200A301C0
:10232A000310A30D21220A168A11A304A20B9529D0
:10233A00210835220A168A11A229A329000083122C
:10234A000313861023080800A500D030A101A10AB2
:10235A00F2210A168A11003A031DF1290030A1015F
:10236A00F2210A168A110030A101F2210A168A11F5
:10237A00A1012508840083170008F2210A168A1190
:10238A00A101250A840083170008F2210A168A117E
:10239A00A1012508023E840083170008F2210A16CB
:1023AA008A11A1012508033E840083170008F2213F
:1023BA000A168A11A1012508043E84008317000821
:1023CA00F2210A168A11A1012508053E8400831705
:1023DA000008F2210A168A114D2AA30021080319BE
:1023EA00052A8614F829000083160313061083129F
:1023FA000610043083120313A200A20B022A052A34
:10240A00803083120313A4002308240535220A16F8
:10241A008A11831203130310A40C2408031D092A2A
:10242A0021220A168A11A4001A2A1B2A00008312E2
:10243A00031386102408080086100530FB00FB0BE6
:10244A00242A000083160313061483128614033009
:10245A00FB00FB0B2E2A831203130608013908001E
:10246A00A00086108316061083122008031D3F2A37
:10247A000610402A06140530FB00FB0B422A000016
:10248A008312031386140330FB00FB0B4A2A08004D
:10249A0083160610831206100530FB00FB0B532A25
:1024AA0000008312031386145A2A000083160313AA
:1024BA0006140800831654088312AF0083165308C3
:1024CA008312AE002B30B0009930B10066252F0878
:1024DA008316D40083122E088316D30008006A26B6
:1024EA000A168A11031C0800CC3098260A168A118B
:1024FA004430982E620A840000080F39D600560B21
:10250A008C2AA830D8000230D4000330992A02302D
:10251A005606031D942A9030D8000330972A9C301F
:10252A00D8000430D4000230D5002A30A2009A30F4
:10253A00A300DA30A4010A128A1516260A168A118D
:10254A00D700E630A2009930A3005408A400570827
:10255A00DA3E0A128A1516260A168A11D70757086A
:10256A00AB008030AC01AC0A0A128A1125250A1682
:10257A008A115808FB001830602303171808031340
:10258A00C900031719080313CA00E830CB01CC01AC
:10259A00CC0ACD000230CE0088300A128A114623B6
:1025AA000A168A11422B03171C080313C9000317C2
:1025BA001D080313CA008130CB01CC00E330CD00E3
:1025CA00C030CE01CE0A0A128A1146230A168A118F
:1025DA0003171A080313C90003171B080313CA00B9
:1025EA008130CB01CC00E130CD000230CE00C830C2
:1025FA000A128A1146230A168A115C2B1830B30074
:10260A00C030B401B40A2A2703171E080313C900ED
:10261A0003171F080313CA00E630CB01CC01CC0A0A
:10262A00CD000230CE00C8300A128A1146230A169B
:10263A008A115C2B831603173A0883120313C90005
:10264A00831603173B0883120313CA00C130CB0158
:10265A00CC01CC0ACD00C030CE01CE0A0A128A11B2
:10266A0046230A168A110230AB01AC00C8300A129E
:10267A008A1125250A168A115C2B5508FB00D930C8
:10268A000A128A1162250A168A11D200D301530846
:10269A00003A0319512B5C2B5208003A0319D82A25
:1026AA00013A0319032B033A03191F2B5C2B580811
:1026BA00B1000030CB2C8312D1007B088400831731
:1026CA000008BF00840A0008C0000A30C100C20125
:1026DA000A128A1175230A168A114008CA003F088D
:1026EA00C900CC270A168A11B9270A300A168A1194
:1026FA00FE200A168A1198240A168A11B0270A128D
:10270A008A156C230A168A112D08CC002C08CB00D6
:10271A004907C5004C0803184C0A4A07C600510865
:10272A008400450883178000840A460880007B08D5
:10273A00063E84000008B900840A0008BA000A307C
:10274A00BB00BC010A128A113E260A168A115108D8
:10275A00063EE0273C30AC00AD01AE01AF017B087C
:10276A00083E84000008B000840A0008B100840A08
:10277A000008B200840A0008B3000A128A156C2302
:10278A000A168A115108083E84002C088317800013
:10279A00840A2D0880007B08083ED9270A168A1168
:1027AA00840A0008C700840A0008C80047044604CF
:1027BA0045040319442C7B088400D2270A168A117F
:1027CA00A0004608A100F0270A168A1198240A16C2
:1027DA008A112308D0002208CF002108CE00200841
:1027EA00CD00CC270A168A11B9270A168A11F027B2
:1027FA000A168A1198240A168A11B0270A128A150B
:10280A006C230A168A112C08CD072D080311031808
:10281A00013E031DCE072E0803110318013E031DB6
:10282A00CF072F0803110318013E031DD0077B08A9
:10283A00083E840083170008AC00840A0008AD0033
:10284A00840A0008AE00840A0008AF005008B300EA
:10285A004F08B2004E08B1004D08B0000A128A159E
:10286A006C230A168A11E8270A128A113E260A16CA
:10287A008A115108023EE0270A168A114A2C510889
:10288A00023E84008001840A80015108063ED9274D
:10289A000A168A110030460205300319450251080A
:1028AA00031C622CD9270A168A110030460203300B
:1028BA000319450251080318682C043E840080015C
:1028CA00840A800108008400D2270A168A11AC0003
:1028DA004608AD000330AE01AF01A701A601A5006D
:1028EA00E830A4007B08063E84000008C700840A7A
:1028FA000008C8004708A0004808A100A201A301D7
:10290A0098240A168A11B0270A128A156C230A1605
:10291A008A11E8270A128A113E260A168A115108D4
:10292A00043EE0270800A801A901AA01AB01201C66
:10293A00B22C2408A807250803110318013E031D19
:10294A00A907260803110318013E031DAA07270831
:10295A0003110318013E031DAB070310A40DA50DB7
:10296A00A60DA70D0310A30CA20CA10CA00C230802
:10297A00220421042004031D9C2C2B08A3002A08EE
:10298A00A2002908A1002808A0000800B200320805
:10299A00031DDB2C2330AE009A30AF000A128A15D1
:1029AA00EE250A168A11003A031908003108A00018
:1029BA000130A1000C30A201A3000F260A168A11C9
:1029CA00E62C9030A1000130A2001030A3002C3078
:1029DA00A400F52E3A30A0000030A100FF30A2007A
:1029EA000830A3000F260A168A113A3022260A1640
:1029FA008A11831203130A30C301E500F410650833
:102A0A000319522DF21C102D0430C30A4302031875
:102A1A00C3010A30E5001E30A2009830A300063038
:102A2A00A400DA300A128A1516260A168A11AB0091
:102A3A008030AC01AC0A0A128A1564260A168A1179
:102A4A00DA30FB003A30D3269630A2009930A30040
:102A5A004308013EA400E6300A128A1516260A1611
:102A6A008A11C2002030B3004208B4000430B50015
:102A7A00E6300A128A1582260A168A111030AB002D
:102A8A00C030AC010A128A1564260A168A110A1283
:102A9A008A15C7250A168A11032DF4144308031947
:102AAA0008003A30A100A2014308B9000310B90D89
:102ABA000310B90D0310390D583EA3000830A400C5
:102ACA00F52E0A30BC01E500F410650803190D2E35
:102ADA000F30A001A1000A30A2003C300A128A1568
:102AEA00D8250A168A11B801B80AB9013C080F3C60
:102AFA00013E822D0310B80DB90DFF3E031D7F2D37
:102B0A00F21C8D2D3808AE063908AF060A30E500EA
:102B1A000C300A128A150C250A168A11831203131D
:102B2A0038082E05B20039082F05B30032040319FC
:102B3A00A02D0130A12D0030013EB400DA30BB00D7
:102B4A008030B601B7001030BA0036082E05B20040
:102B5A0037082F05B30032040319B72D3B08840048
:102B6A002A30BA2D3B0884002D3083178000BB0A17
:102B7A000310B70CB60CBA0BAA2D1030AB00C0303C
:102B8A00AC010A128A1564260A168A11DA30A000E4
:102B9A000130A1002030A2001030A3000F26300817
:102BAA00A2003108A3003C08013EA400DA300A1250
:102BBA008A1516260A168A11B50035080319F12D49
:102BCA00FF30A2009930A3003408A400E6300A12AC
:102BDA008A1516260A168A111030AB008030AC010D
:102BEA000A128A1564260A168A113C08C03E0A127D
:102BFA008A150C250A168A110F300A128A150C2515
:102C0A000A168A110A128A15C7250A168A11692D07
:102C1A00F41408002008A4002108A500A303230F28
:102C2A00172E0800240884008317251C8313220802
:102C3A008000A40A0319A50A132EA3006A260A16FD
:102C4A008A11031C0800333098260A168A11A40137
:102C5A00230884003B260A168A1183138000083051
:102C6A00A30AA40A2402031808002D2EA101A20116
:102C7A000310A10C4B260A168A110318A117083053
:102C8A00A20A2202031C3E2E21080800FA270A166D
:102C9A008A110930FB00FB0B502E532E83160313A7
:102CAA0085160E30FB00FB0B582E5B2E003083126C
:102CBA000313851A0130A0005B30FB00FB0B632E67
:102CCA00000083120313200C0800FA270A168A113F
:102CDA00043083120313A1001B30A000A00B732E33
:102CEA00A10B732E782E8316031385167330831265
:102CFA000313A000A00B7F2E822E0310831203134E
:102D0A00851E0314003003180130FB0003308312C0
:102D1A000313A100A730A000A00B912EA10B912EA6
:102D2A00962E7B0C080083120313A100A20121082E
:102D3A000139AB260A168A118312031308300310CD
:102D4A00A10CA20A2202031808009C2EA00001303E
:102D5A00A00520080319C22EFA270A168A1109307B
:102D6A00FB00FB0BB62EB92E8316031385166A30A9
:102D7A00FB00FB0BBE2E00000800FA270A168A1178
:102D8A006330FB00FB0BC72ECA2E8316031385166E
:102D9A001030FB00FB0BCF2E00000800A000103003
:102DAA00A100A10BD92E0800200884008313000873
:102DBA00A200211CE42E0F30A20EA205E52EA00AC5
:102DCA000F30A2050A3022027B0884002208031C65
:102DDA00F02E373EF12E303E83178000FB0AD62EA6
:102DEA00A501240825020318080021088400831776
:102DFA00221C83130008FB00250823070D270A1647
:102E0A008A1183120313A10A0319A20AA50AF62E2C
:102E1A00A000831603178C180E2F831203132008A1
:102E2A0003178D007B088C003F3083168C05031036
:102E3A008B1B03148B130C1555308D00AA308D0093
:102E4A008C140C1103188B170800B5003C30A00035
:102E5A00A1013308083E840083170008A200840AEF
:102E6A000008A3000A128A11F9250A168A112008F5
:102E7A00AA002108AB00DA30AC010A128A159C2696
:102E8A000A168A11B600DA3E84003A3080003C30D5
:102E9A00B60AA000A1013308083E84000008A20077
:102EAA00840A0008A3006D270A168A1120089127B0
:102EBA00AB003608DA3E0A128A11EA25B60AB60AC1
:102ECA003608AB003408AC0035080A128A11252DE1
:102EDA002008210403198C2FFB01FB0AA11B792F5F
:102EEA000310A00DA10D722F21082302031D7F2FAD
:102EFA0020082202031C882F2008A2022108031C92
:102F0A00A303A3020310A10CA00CFB0B792F230827
:102F1A00A1002208A0000800A800A9000A30AA01FE
:102F2A00A000A1012A08A3002908A2000A128A11F6
:102F3A00F9250A168A112008A700270EF039A700DA
:102F4A000A30A000A1012A08A3002908A2006D27BF
:102F5A002008270708002308B3002208B200210826
:102F6A00B1002008B000080050088312AD00AE017D
:102F7A00AF017B08023E840083170008C500840A5B
:102F8A000008C6004508A0004608A10008008316EC
:102F9A004F088312AC00831608000008C500840A93
:102FAA000008C6004508080084000008C500840A15
:102FBA000008C60008008400390883178000840AC4
:102FCA003A08800008002D08BA002C08B9000A3017
:102FDA00BB00BC0108000530A201A301A701A6009D
:102FEA007E30A5004030A4000800831685128312A3
:102FFA00851205140800FF1B0A2883137F188317FC
:10300A000008840A0319FF0A08007F087F398A002A
:10301A000408840A0319FF0A8200063402340234BF
:10302A0005340034033405340134043406340234DC
:10303A00043400346634753465346C3420346334B3
:10304A006F346E347334743461346E3474340034CF
:10305A00763473347334203463346F346E34733497
:10306A00743461346E347434003474346F347434A8
:10307A0061346C34203474347234693470340034FA
:10308A0076346F346C347434613467346534203484
:10309A00613464346A347534733474340034733488
:1030AA0065347434743469346E3467347334203458
:1030BA0062346934743473340034743465346D346E
:1030CA0070342034733465346E3473346F3472342C
:1030DA00733400346D3469346E342034733470348C
:1030EA006534653464340034733477342034763488
:1030FA0065347234733469346F346E340034003496
:10310A0065346E34673469346E3465342034683417
:10311A006F34753472347334003465346E34673402
:10312A0069346E34653420346F3469346C34003455
:10313A00673465346134723462346F3478342034DD
:10314A006F3469346C340034613469347234203435
:10315A00663469346C3474346534723400347334CC
:10316A007034613472346B34203470346C34753496
:10317A006734733400340034733475346E34643411
:10318A006134793400346D346F346E3464346134AC
:10319A007934003474347534653473346434613486
:1031AA00793400347734653464346E346534733476
:1031BA006434613479340034743468347534723464
:1031CA007334643461347934003466347234693463
:1031DA00643461347934003473346134743475344A
:1031EA007234643461347934003400346A346134BA
:1031FA006E34003466346534623400346D346134BC
:10320A007234003461347034723400346D34613491
:10321A00793400346A3475346E3400346A3475345F
:10322A006C34003461347534673400347334653473
:10323A00703400346F346334743400346E346F3451
:10324A0076340034643465346334003400347034C2
:10325A006134693472342F347034613472342034F6
:10326A0069346E346A34003400346B34653479342A
:10327A00203473346F3475346E346434003400345B
:10328A0000340034003469346E342F346F347534AA
:10329A0074342034743465346D347034003400343A
:1032AA000034003400340034003400340034FF3475
:1032BA0000340134FF3402340334FF340434053457
:1032CA00FF3406340734FF346834FF346C34FF3477
:1032DA005634FF346B346D34FF347334FF34DF34C7
:1032EA00FF343E34FF343C34FF346D347334FF34DE
:1032FA00FF342D340034173481342C3400343B34F9
:10330A0084342F3401341F348934303401340C347A
:10331A008C343134173421348F342E340134073449
:10332A00C03400342D342D342D3400346F347534C8
:10333A007434003469346E340034203465346E34A5
:10334A00673400340034743469346D34653420349D
:10335A0063346F3472347234653463347434693468
:10336A006F346E343F340034313439343A343134C2
:10337A0030342034313433342E34303436342E342D
:10338A00323430343234333400347734613469348B
:10339A007434203466346F347234203473347434A1
:1033AA00613472347434003430342D34313430346E
:1033BA0030342034743469346D3469346E3467348B
:1033CA000034003463347534723400346434613444
:1033DA0079340034413400344234003463346F3475
:1033EA006E3466346934673420346D3465346E342F
:1033FA0075340034003420346F3466346634003453
:10340A00203420346F346E3400342D342D342D346E
:10341A002D342D3427342D342D340034743469344A
:10342A006D3465346F3475347434003476346F34E3
:10343A006C347434613467346534003472346534FE
:10344A007334653474343F340034743472346934F8
:10345A007034203400342D342D342D342D3400347E
:1035A600721DF218E501B930A2009930A300DA3095
:1035B600A4010A128A151626AB00C030AC01AC0A6B
:1035C6000A128A15642E83164F088312B9008316D1
:1035D60050088312BA002F30BB01BC007530BD0005
:1035E600BE010A128A1140243A088316D0008312BB
:1035F60039088316CF000800F31D08008316C80A91
:103606003C304806031D0E2BF31181167312DD01A3
:10361600DE01731308006A30A30718300318193047
:10362600A407003003180130A5070800F21F0800A0
:103636008316C70A0A304706031D242BF213F2111C
:1036460008006A30AE070318AF0A1830AF07080043
:10365600F3308312A2009930A300DA30A4010A12D3
:103666008A1516260A168A15AB008030AC01AC0AFC
:103676000A128A1564260A168A15610A84008317B7
:10368600000E0F39013E6123B5001E30A2009830AE
:10369600A300610A840000080F39A4003508DA3E49
:1036A6000A128A1516260A168A15B5073508AB00BA
:1036B600C030AC01AC0A0A128A15642EB300AA0007
:1036C600DA30AB01AC010A128A159C26B400DA3E48
:1036D60084002E308000B40A3408080083160313D1
:1036E60056080F398312BF000A30C001C100C2015B
:1036F6000A128A1175230A168A1540080317110241
:10370600031D892B03133F0803171002031C912B7B
:10371600033083160313DF00F017962B043083164D
:103726000313DF00F013540801395038BA0007308C
:1037360003171102D13003191002031CAC2B903071
:1037460083120313B10001300A168A11CB240A161C
:103756008A151730831603171D02713003191C02D0
:10376600031C08009C3083120313B10001300A16B3
:103776008A11CB2C0A128A153C250A168A158B1338
:10378600731CCE2B0A128A15D3270A168A15B43053
:10379600F4230A168A1583160317B901031355086D
:1037A6005706F0395706D50058088312A800A80E08
:1037B60083165608831228060F3928068316D60064
:1037C60083126808A800A80E8316550883122806D7
:1037D6000F3928068316D5000F240A168A150510F8
:1037E600F32BFB008400831203172C088317800039
:1037F6007B0A84002D0880007B08023E84002F0887
:1038060080007B08033E8400300880007B08043E6D
:1038160084003108800008001E240A168A11E62456
:10382600BC30A1000130A2004030A3001E30A4002D
:103836000A168A11F52EC9308312A1000E30A20194
:10384600A301A4000A168A11F52E0E30C900FF3016
:10385600CA01CA0ACB00831651085A248316D1001E
:1038660008008C30A000E630A1000A30A200D23059
:10387600B1246A30C9000E30CA000230CB00C43011
:103886000A128A11822A0A30C901C90ACA01CA0A59
:10389600CB00831656080F395A24D20083165608D1
:1038A60083125206F03952068316D6000800831298
:1038B600D1000A30E500F41065080319AE2C4A0859
:1038C600A0004B08A1000A30A2005130B1240A160C
:1038D6008A15083049060319762C5108CC00CD010B
:1038E600CE01CF018E2C5108A0000330A101A20108
:1038F600A301A701A601A500E830A4000A168A11B3
:1039060098240A168A152308CF002208CE0021081B
:10391600CD002008CC004C08AA004D08AB004E088C
:10392600AC00DA300A128A159C260A168A15D000CF
:10393600C2000E30C3004908C4000230C500C430BE
:103946000A128A1527230A168A150A128A15C72506
:103956000A168A155E2CF41451080800A300840088
:1039660083130008A400721DC22CA40A2108013E7C
:103976002406031DC02C2008A4002208E500F21C22
:10398600CE2CA4032008FF3E2406031DCC2C2108C0
:10399600A4002208E500230884002408800008000B
:1039A600701BDB2C01307017E3000A168A11742A8B
:1039B6001D307013E3006030BC00BD013430A00040
:1039C600A1013C08A2000830A3000A128A15AA2702
:1039D6000A168A156630A500343025250A168A157A
:1039E60003180D2D831203133D08A03E84000530F5
:1039F60083130002031C082D03103D0DE03E8400D6
:103A060081308000840A80001D2D3D08A03E840080
:103A1600800A1D2D8312031303103D0DE03E840022
:103A2600660883138000840A670880003D08A03E6C
:103A3600840080010830BC070330BD0A3D0203182C
:103A46000800E12CAF000A168A116A260A168A15A2
:103A560003182F2D0310080055300A168A119826D0
:103A66000A168A152F08B300B2013308840083139F
:103A760000080A168A1198260A168A150830B30A0B
:103A8600B20A3202031C382DBE300A168A11982655
:103A96000A168A152630B300B001B101831203134A
:103AA600330884000A168A113B260A168A158313E0
:103AB6008000B30AB00A0319B10A3108803AFF0040
:103AC60080307F02031D692D09303002031C512D01
:103AD6008312031325088400260883138000840AB2
:103AE600270880000830FB00263080250A168A1534
:103AF6002E06031D2D2D03140800A300A4019D2DE1
:103B0600230884000008A0000830A30AA1002108A9
:103B160003199D2D24082006A2000130A2050310DA
:103B2600A40C22080319992D8C30A4060310A00CAE
:103B3600A1038A2DFB037B0F832D24080800DE01D9
:103B4600DB01DC01DD010A168A1118200A168A1526
:103B56008312031310148B170130E300B42DF418ED
:103B6600B92D6A086B040319B22DF414F41CC62D82
:103B7600F4100A128A1178260A168A150A168A1568
:103B860071230A168A15F31CCD2D0A168A15BD2334
:103B96000A168A15831203136308031DD72D0A1606
:103BA6008A15D3240A168A157019F52D0530831245
:103BB6000313DD0003105E0D433EE200620A84003B
:103BC6008317801FEE2DDE0A5D08013E5E06031D8B
:103BD600DD2DDE01DD2DF01F082E620A8400001B9C
:103BE600082EE62D073083120313DD0003105E0D49
:103BF600333EE1005E08D900610A8400D90E8317BE
:103C0600000859060F39590680007018332EF01C2B
:103C1600F11F342E701D731B212EF31B212E620AF9
:103C26008400001E212E620A8400801A212E5E085E
:103C3600DB005C08DE0070157014342E701D342E07
:103C46005E08DC005B08DE000A168A151E240A16CA
:103C56008A150A168A119F200A168A1570111F2EB8
:103C660070107018AE2EF018522E5E08DA00701919
:103C7600412E620A84008317801A4C2EA0015D082B
:103C8600A1000A30A2005E300A128A15D8250A164B
:103C96008A155E085A060319552EF014552E8316FA
:103CA600D901F010F018AE2E701D9E2E0A168A1538
:103CB6002B230A168A15F21CAE2EF2100A128A154A
:103CC6003C250A168A150A3083120313E500F41000
:103CD600650803199C2E1E30A2009830A300610AC5
:103CE6008400831700080F39A400DA300A128A15F7
:103CF60016260A168A15AB008030AC01AC0A0A12E9
:103D06008A1564260A168A15610884008317000836
:103D16000A128A118D200A168A150C300A128A1583
:103D26000C250A168A150A128A15C7250A168A1537
:103D36006A2EF414AE2E83126208840083170008DC
:103D46000A128A118D200A168A150C300A128A1553
:103D56000C250A168A157211F2107210F113F41C52
:103D66007018B92DF01CB22EB92D0B1CE12E860849
:103D76000B10831203130F08FD000E08FC007D08CC
:103D86000F060319CA2E0F08FD000E08FC000D1CB5
:103D9600DB2E7D080F06031DDB2E0A168A15FF2271
:103DA6000A168A150A168A1519230A168A1571140F
:103DB60038270A168A158A270A168A150B1DE72E32
:103DC6000B11C6270A168A15831203130D1CFF2E24
:103DD6000D107118F92E0A168A15FF220A168A1571
:103DE6000A168A1519230A168A15FA2E71100A124E
:103DF6008A1585200A168A1583120C1F042F0C13A8
:103E06000D277A088A0079088400780E8300FE0E52
:103E16007E0E09001E08EB00EA0183161E088312B7
:103E2600EA046D086B02031D1A2F6C086A02031858
:103E3600212F6B08ED006A08EC002D2F6B086F022E
:103E4600031D272F6A086E0203182D2F6B08EF003B
:103E56006A08EE0000306B02813003196A02031C07
:103E6600362F73110800731508008312861B722FF4
:103E7600F31A080083168112F31673177314F319D5
:103E86004E2FF315A301A401A5017D08B9007C08F6
:103E9600B800C80108007C08DA007D08DB00DC01F8
:103EA6003808F5003908F600F7017508DA027608D1
:103EB600031C760FDB027708031C770ADC02230853
:103EC600DA07240803110318240A031DDB07250853
:103ED60003110318250A031DDC077316452FF31E6D
:103EE600080083168116F312F31D08007D08DE0014
:103EF6007C08DD003808DD023908031CDE03DE021B
:103F06002308DD070318DE0A2408DE0708008312EB
:103F1600061FC42F741808007414F317F21EBE2F60
:103F2600F21B9F2FF2177D088316B1007C08B000A4
:103F3600AE01AF01C701BF2F83162F08B3002E08AD
:103F4600B2003008B2023108031CB303B3027C0886
:103F5600B2070318B30A7D08B307F21572163308C1
:103F66003702031DB82F32083602031C962F72172C
:103F76007212F212BF2FF2138312DF0A0319E00A3C
:103F860008007410080083160313AC0A0319AD0A5F
:103F96000317940BDD2F0313430803179400031331
:103FA60051080317950A1502031CDD2F9501960A81
:103FB6000319970AA00BEE2F031343080317A0005B
:103FC600031351080317A10A2102031CEE2FA101B6
:103FD600A20A0319A30AAC0B08000313430803172C
:103FE600AC00031351080317AD0A2D02031C080089
:0A3FF600AD01AE0A0319AF0A08007E
:02400E00723FFF
:104200007400E40004000000EB002B0080003E007E
:104210006C00A9008000E70013000500000000000A
:1042200025000100710018004F002B00B0000E00A7
:104230002100960000000000C5000000E5003D00E0
:104240004700150018000A005D006900000000002A
:104250001200000098002E0026003600E100000049
:104260009D00090000000000580014000800030031
:1042700023000300540003000000000000000000C1
:1042800058001F000A00000000000000FE0012009D
:104290000A00030009002200510031002800070035
:1042A0001100210023004F000A0007000100210037
:1042B000C8006A000A00210003002000000000007E
:1042C000FF00FF00FF00FF00FF00FF00FF00FF00F6
:1042D00028002700F600DC00060000000000D500E2
:1042E000FF00FF00FF00FF00FF00FF00FF00FF00D6
:1042F00005000600050000000000000001000200AB
:104300000A0015001500000010000500070001005C
:104310000700050007000000000001000200000087
:10432000000000000800100000000A001500150041
:104330000C0014001400010002000500010001003F
:10434000000000000000000000001F0015001F001A
:10435000030005000500000000000100020000004D
:104360000000000008001000000014001C00040001
:104370008F0003000100000009000900D2004E0078
:1043800009000000090000000C0000000C00000003
:00000001FF
