:040000008231DB2A44
:100008007E1480310B1C3429270096012000170824
:10001800EC001608EB006C081706031917281708D8
:10002800EC001608EB00131F1D286A30EB07183088
:10003800EC3D8D1B6528711B7C28210095127117DA
:10004800F117F01401302400A4070030A53DA63DA7
:10005800A73D2200C71B372801302400A407003021
:10006800A53DA63DA73D711A492871162200A00199
:10007800A101A20120006C082200A60020006B0844
:100088002200A5002100D0017C2820006B08220056
:10009800D30020006C082200D400D5012508F30005
:1000A8002608F400F5017308D3027408D43B7508D8
:1000B800D53B2008D3072108D43D2208D53DF116A9
:1000C8003B28711F7C28210095167113711E7C280E
:1000D80020006C082200D70020006B082200D60000
:1000E8002508D6022608D73B2008D6072108D73D81
:1000F80020000D1F3329F2183429F2147214701FCE
:10010800D02871189528711420006C082200B000BE
:1001180020006B082200AF00AD01AE012100D10123
:10012800D12822002E082100C90022002D08210014
:10013800C80022002F082100C80222003008210030
:10014800C93B20006B082100C80720006C0821006B
:10015800C93D7016F01AC028490822003602031D4E
:10016800B92821004808220035020318BF2835089D
:100178003604031DC028F016210049082200340265
:10018800031DCA282100480822003302031C8828BE
:10019800F017F0127013D12871102200AB0A03195E
:1001A800AC0AC00A0319C10A43084102031DDE282C
:1001B80042084002031CF5280130C001C101BC07F8
:1001C8000030BD3DBE3DBF3D2400AA0A0319AB0A5D
:1001D800B20A0319B30ABA0A0319BB0AC20A0319F5
:1001E800C30A2300A20A0319A30A22004308230012
:1001F8002302031D03292200420823002202031CB4
:100208000A29A201A301A00A0319A10AAE0A031927
:10021800AF0A2200430823002F02031D17292200DA
:10022800420823002E02031C1E29AE01AF01AC0AAE
:100238000319AD0ABA0A0319BB0A220043082300AE
:100248003B02031D2B292200420823003A02031C0B
:100258003429BA01BB01B80A0319B90A3429F210C2
:100268000B1D6F292200A90A0319AA0A2300A40B4F
:100278004C2921004C082300A40022004408230034
:10028800A50A2502031C4C29A501A60A0319A70AD9
:10029800B00B5D2921004C082300B000220044085F
:1002A8002300B10A3102031C5D29B101B20A031906
:1002B800B30ABC0B6E2921004C082300BC002200A5
:1002C80044082300BD0A3D02031C6E29BD01BE0A75
:1002D8000319BF0A0B112000131FAC2A711E8D29A8
:1002E8002100D00A3C305006031D82297112951650
:1002F800F1122200D601D701F1138D296A302200AC
:10030800A007183003181930A1070030031801306E
:10031800A207711C9D292100D10A0A305106031D2C
:100328009829711070129D296A302200AD07183083
:10033800AE3D21005308031DD92920000D19B1290C
:10034800653021004B02031CCB0A64304B06031DA9
:10035800BD2920006A17F215BD29053021004B027E
:10036800031CBC2933304B020318BC29F217721640
:10037800CB0120008D19CC29653021004A02031CCD
:10038800CA0A64304A06031DDA29F216F215DA2978
:10039800053021004A02031CD72933304A020318CA
:1003A800D72972177216CA01DA29D303721ADE29FD
:1003B800F21DE929721EE229E801E4290130E8006A
:1003C8007212F21172150F30D3002200E10B2A2AA3
:1003D8006430E10072152A08A8002908A700A901BD
:1003E800AA012C08D9002B08D800AB01AC012100C8
:1003F800EF1C1E2AEF10F11B032A721C1F2A013062
:100408002400A0070030A13DA23DA33D01302300F8
:10041800A8070030A93DAA3DAB3D0130B407003024
:10042800B53DB63DB73D0130C0070030C13DC23DC6
:10043800C33D1F2AEF1421004E08031DCE034F08A9
:10044800031DCF0320006F08031DEF0320006E0873
:10045800031DEE03F01E342A2200B10A0319B20A62
:10046800711D412A2100D20A1A305206031D432A5F
:1004780072152000EF01F114432A2100D201210056
:10048800680A03195E2A2200C71A4F2A023021007F
:100498006806031D5B2A701420006A122100680890
:1004A80068076807E03ECD002200B701B70A2100BF
:1004B800E801E803701CAA2A2200B70BAA2A0A300E
:1004C800B70020006A1A732A6A1621006F144D08B3
:1004D8008600013087000108013E2200B900210092
:1004E8006F1C892A6F102200B9030319862A20007D
:1004F8006A1521004D08860001308700413F22001F
:10050800B800892A701020006A1220006A1D9E2AED
:1005180022003808031D9C2A20006A1121004D087A
:10052800023E8600013087000108FF3E2200B80025
:1005380020000E146A19A82A22003808031DA62ACA
:1005480021006F1420000E102200B803200013139E
:10055800111FD92A21001C08EA00E9011B08E90437
:100568006C086A02031DBA2A6B0869020318C12ABB
:100578006A08EC006908EB00CD2A6A086E02031DC0
:10058800C72A69086D020318CD2A6A08EE006908AF
:10059800ED0000306A02813003196902031CD62A73
:1005A8007111D72A7115200011137E1009008231AC
:1005B800DD2A443084009B308500E8308600003016
:1005C800870007309B313E23823101308400883018
:1005D80085005B308600013087000F309B313E2359
:1005E80082310130840090308500D430860001309B
:1005F800870015309B313E238231333084009030A0
:1006080085004A3086000230870020309B313E2327
:100618008231F001F101F201FB01FC01FD01EA0167
:10062800EB01EC01ED01EE01EF012100C630EF0115
:1006380084000030850022309B31382382312030FD
:100648008400013085003B309B3138238231A03053
:1006580084000130850034309B31382382312030CA
:100668008400023085002A309B31382382317E1085
:1006780020003E2BE701E8018831A02082312000CC
:1006880018148B172100CE01212782314D2B7219A6
:10069800522B210069086A0403194B2B7211F11CB3
:1006A800582B913115218231F21E782B20006A1CBB
:1006B800F11B6B2B72186B2B7B08031D6B2B7B08B4
:1006C800E7006808FB006A1434278231782B6A1C1B
:1006D800782B7B08E8006708FB006A103427823112
:1006E800B8248231C224823120006A188A2BF11D75
:1006F8007F2B0230802B0630E90021004E08031DB5
:10070800872B52248231CE2382318C2B0730E9008B
:100718007B082200BA00F60120006908F7007B3048
:100728009D310125823122003A087B0603199F2B4F
:10073800DA012127823120006A1CA72B7B088D3122
:10074800DF258231CB2BF11DAE2B03307B02031C3E
:10075800AE2BFB01EA117B08E5002E30E601E535FA
:10076800E60D650784009A30663D8500013F8A00E2
:10077800003F0A0083312000EA1DC92B06307B06A2
:10078800031DC82BFB01C92BFB0AEA19A72B7219F9
:10079800522BCB2B220097319F27823122005808F9
:1007A8002000A000220059082000A1008C30272733
:1007B800A030A4008D318A2582318F31A92782315A
:1007C80095315A25823129082100C70020002808C0
:1007D8002100C600220049080F392000A300432742
:1007E8008E315F268231240821004702031D002C28
:1007F8002000230821004602031C042CF115052CB7
:10080800F1112100470823004A02031D0F2C210083
:100818004608230049020318192C21004708230021
:10082800CA00210046082300C900721C202C2100A0
:100838004608470403197210073023002102D130FB
:1008480003192002031C2E2CA0302000B200013016
:100858003A248231173023002D02713003192C02FB
:10086800031C08008931DA2182313A2CB30033089D
:10087800031D472C9F31E02782319F3103278231A6
:10088800003A031908003208F6000130F7000C306E
:10089800F801F9009C31D7248231072F2000EA1E85
:1008A800872C1D30EA122100CE0070302000B300E2
:1008B800B401D530F7000030F8003308F9000830EB
:1008C800FA009224E530F900D5309D314625823171
:1008D8000318742C2D2782318130C03FC13F792CF9
:1008E8002D27823121004827823108302000B307A4
:1008F8000330B40A3402031C5D2C2200C61F080012
:1009080064308A312A2A0130EA162100CE009F314C
:10091800B12782312200C61F0800112F2000A10133
:100928007A0821020318080079082107A9248231CE
:100938002000A0007708860078088700200881003A
:10094800F70A0319F80AA10A942CF600AC2C200027
:10095800640023009518AB2C7608910092013F3073
:1009680095051514130808003C302000A00001303C
:10097800A1001030A201A3009D31182D41302100A3
:10098800CC0038302200BB004308F9004208F800C8
:100998000D30F835F90DF600F701B52682317708E4
:1009A8002200A4007608A300C71FE02C2100CC3544
:1009B8002200BB36A436A30C48080F392100E700F3
:1009C8002200490E0F39FD00480E0F39FC000800BF
:1009D8008030973149278231F119232D9F313427EF
:1009E800823122004C082000AF00B001B00A22007A
:1009F8004D088C318F248231F11B162D0230903135
:100A080016208231C0309731492782312000CE012B
:100A1800CE0A3927823104269731CE278231DB2648
:100A280082313E2D0230A125C030973149278231CD
:100A380001304525023092310E2282313E2D2100AF
:100A480047082000D700210046082000D600D8011A
:100A5800D901DA01DA0A8B31912382310230A125DA
:100A6800C030973149278231013045250230913114
:100A7800C7218231721CF11F0800F21E0800903154
:100A8800C9282000E200E730F6000030F7000930FE
:100A9800F8009F313D2782312000DE00DF015F082A
:100AA800003A0319962DA02D6208CE00392782310D
:100AB800042E0E30D6006208D700E930DB2E62081B
:100AC800C800B830883110286208D600B8308E3196
:100AD800AF2E6208D600B8308D31472D6208D60097
:100AE800B8308E31812E6208D600B8308F316E2F23
:100AF8000C30A600003097319527E000E101230073
:100B08004A082000D700230049082000D6006108C1
:100B1800D9006008D8006208DA008B31912B62088E
:100B280090319E285E0884000930040203180800EA
:100B380099310435DA3E82000800C800F11AAB2D5D
:100B48008F31D4278231973158278231FC2D2200EA
:100B5800C71BB72D04302000CC007830CB0068309C
:100B6800CA00C030BF2D02302000CC003C30CB0082
:100B78003430CA006030C900220053082000A800A1
:100B8800220054082000A900220055082000AA00CD
:100B9800AB014C08AF004B08AE004A08AD0049084D
:100BA800AC0095315A2582312908CE002808CD009D
:100BB8000A30F600F7014D08053EF80000304E3DBA
:100BC800F900B5267708A4007608A3000A30A50026
:100BD800A6018E315F2682312408CE002308CD007D
:100BE800C1004E089731BE2782319E314E26823190
:100BF800ED000230AF004808B0006D088E319E2E1F
:100C08002000D300D400F030D4050F30D30553357D
:100C1800623E860001308700403F2100E500413FE9
:100C2800E60081306506813003196606031D272E0C
:100C3800C830F8009930F900D530FA01FA0A97312E
:100C480058278231872E2000D5012100E61F332E38
:100C5800E509E609E50A0319E60A2D30382E2000D1
:100C6800D41A3B2E2B302100D5002000D50A0F3096
:100C7800210065052000A300200043278E315F2650
:100C880082312308CF002408D0000430D036CF0C9E
:100C9800890B4A2E2100650E0F392000A300210080
:100CA800660EF0392000A3042100660E0F392000DB
:100CB8003E278E315F2682314F0823072100E50049
:100CC80020005008243D2100E6000A30F600F70114
:100CD8006608F9006508F800B5267608CF00770899
:100CE800D000D101D2015208C4005108C3005008F5
:100CF800C2004F08C1000A30C5005508D53E9E31D4
:100D08004E2682315507ED00D41FA12E2030C80091
:100D18006D08C9000830CA00D5309C31EA248231F8
:100D2800C830F8009930F9005308023EFA00D5306F
:100D38009731582782310830ED00541EAA2E0A3008
:100D4800A6006D08973195278231ED076D08A6003A
:100D58000830A7004E08A800D53095312C256D081D
:100D680008002000A101A201760877040319D62EF5
:100D7800A001A00AF71BC32EF635F70DBD2EA1352D
:100D8800A20D77087902031DCB2E76087802031C82
:100D9800D22E7608F8027708F93B2114F736F60CBC
:100DA800A00BC32E2208F7002108F6000800D8007F
:100DB8005608A6000030973195278231ED00580873
:100DC80086008701403FF800413FF9000530F835BB
:100DD800F90D890BEB2E22004508F600F701B52620
:100DE8007708CF007608CE00D001D00A6D08D53E2E
:100DF8008E31C4268231ED070730AF005708B000A6
:100E08006D088E319E2EA030A0000130A100103058
:100E1800A2002C30A3009D31182DD0308A31E92250
:100E28008231003A031D1F2F0E308B312623823169
:100E38003C308B3126238B313A2BF213721320006E
:100E48006A13F2120800A201A301A701A601A500D6
:100E5800080020003435623E860001308700080013
:100E6800F21372136A13F2120800220047080139BC
:100E780050380800A4000A30A500A60108000A306E
:100E8800A401A500A60108006508C03F6608C13F87
:100E980008000E30C800FF30C901C90ACA00220084
:100EA800440882272200C40008000A30C801C80A82
:100EB800C901C90ACA00220049080F398227D0008F
:100EC8002200490820005006F03950062200C900C7
:100ED80008004530F6000130F7008C30F800E630A5
:100EE800F900D927C4309731492787310E302000BF
:100EF800D6000230D700E9308631DB2E2000CF0043
:100F08000530EF006F080319D62F72114F30F60025
:100F18000030F7004908F8004A08F900D927873156
:100F28000830480603199E2F4F08CB00CC01CD018D
:100F3800CE01B22F4F08A0000330A1018731272727
:100F48008731E830A4008D318A2587312308CE0007
:100F58002208CD002108CC002008CB004E08C40090
:100F68004D08C3004C08C2004B089731CA27873187
:100F78009E314E268731ED004808A6006D0897314E
:100F880095278731ED07C4309731492787312000ED
:100F98009F31CB27873195312C2587318E315126CA
:100FA8008731862F72154F08080076088600770863
:100FB80087000108FA00F21FEA2FFA0A790A7A066E
:100FC800031DE82F7808FA000530EF00721FF62F8E
:100FD800FA037808FF3E7A06031DF42F7908FA0011
:100FE8000530EF0076088600770887007A088100C8
:020FF8000800EF
:101002008134813481348134813481346434813453
:101012008134813481348134813481348134CD000E
:101022001E30A800A901AA01AB014D08083E8600A6
:1010320001309731A927883195315A2588312908FD
:10104200CF002808CE003C30F600F7014F08F90027
:101052004E08F8008631B52688317608C90077082F
:10106200CA00CB01CC014C08C4004B08C3004A089B
:10107200C20049089731CA2788319E314E268831ED
:10108200ED00D53E86003A30870181003C30ED0A02
:10109200F600F7014F08F9004E08F8006320883186
:1010A20076088320A8006D08D53E8C31A624ED0A6F
:1010B200ED0A6D08A6000830A7004808A800D53040
:1010C20095312C2D7608770403197E28FA01FA0A45
:1010D200F71B6E28F635F70D682877087902031D8D
:1010E200742876087802031C7A287608F8027708B2
:1010F200F93BF736F60CFA0B6E287908F7007808F8
:10110200F6000800A500A6000A30A701F600F701C4
:101112002708F9002608F80063207608A30077085C
:10112200A4000A30F600F7012708F9002608F800A3
:101132008631B5267608890EF03923070800C620C5
:101142008831BB219631DA2688318431C224883134
:101152009F31342788312200D21F080008218831AC
:10116200003A0319BE28B8302000B20001308431A1
:101172003A2488312300C901CA01FB208831003A90
:1011820003190800DA2184313A2C2A3021008C001C
:10119200013020008C00CD3021008D000F30200066
:1011A2008D0021008E0120008E019501960197018C
:1011B200B830210095003030200098000B30260016
:1011C2009E0018309D006A309C0040302100910042
:1011D2009300C03027009400950068308B000A30DD
:1011E20023008C008D01043021009D00A0309E0060
:1011F2001D14D9292200471D003423004B0803196E
:1012020000344B0822005006031D01340034230031
:101212004808F800220051088D218831B600B61B1B
:1012220000343608803A7E3E0318013422004F080B
:10123200F80050089B2188317908AF007808AE0089
:1012420023004608F80047089B2188317908B1003D
:101252007808B0003608031933296D30B400013024
:10126200B5003529B401B5013008B4023108B53BE7
:101272002E08B4072F08B53DB51B00343508803A57
:10128200A90080302902031D4829023034020318C4
:10129200013420003408B6002200C7188A29200031
:1012A2003608031957291830B2005829B201B30180
:1012B20023004508F80022004D088D2188313207AD
:1012C200B600B61B003423004408F80022004C0884
:1012D2008D21A900AA01A91BAA033608A300A40113
:1012E200A31BA4033C30A500A6018E315F268831E2
:1012F20029082307AB002A08243DAC00803AAD0040
:1013020080302D02031D872979302B020318013406
:1013120000342000360808002000A00078088F3131
:101322000F278831F90020088F310F27FA0079083A
:101332007A0208002000A0008F310F278831FF3E7B
:10134200A3003C3E84009A300318013E8500000849
:10135200A1000930A2012302031CB1290130A20716
:1013620078088F310F27F800F9012108F8072208C1
:10137200F93D08003C30F7000130F8001030F90167
:10138200FA00843192248831A030F7000130F8004D
:101392001030F9002C30FA00843192242030F7000A
:1013A2000230F8004030F9002A30FA008431922CE1
:1013B2000800AC302000B2000134AF00D430860007
:1013C2000130870020308400003085000C30F800A6
:1013D20016001A00F80BE9292F08053E71238F31F8
:1013E2000F278931AD002F08043E71238F310F275B
:1013F2008931AC002D08AE002D08F800F836F83619
:101402007808AE072F08033E71238F310F278931E9
:10141200AE072C08FF3E203E860087010108AE077A
:101422002D080339031D1A2A03302C0203181A2A25
:10143200AE0307302E02031C212A0730AE021A2AFD
:101442002F08023E8600013087002E08013E8100EF
:1014520008002000A700D030E9228931003A031D9C
:10146200692A113026238931D130E92289310030AD
:10147200D6228931A8000130D6228931A600280A55
:101482000319622A260E0F39A000A1012808A20022
:10149200F030A301A20EA30EA30522080F39A30464
:1014A200F030A20520082204A40021082304A5008C
:1014B20027088600013087002408C03F2508C13F65
:1014C200692A27088600013087008130C03FC13F6A
:1014D2003A2B2000A1008030A000D030E9228931CF
:1014E200003A031DAD2A003026238931D130E9228A
:1014F20089310030D6228931A00021087623893132
:10150200D62289318100210A76238931D622893176
:1015120081002108023E76238931D6228931810059
:101522002108033E76238931D622893181002108A0
:10153200043E76238931D622893181002108053E75
:10154200860001308700D622893181002108063EBB
:1015520086000130870081173A2389312000A01FBD
:101562000800210886000130870011308100210A1D
:101572008600203081002108023E8600063081006C
:101582002108033E8600093081002108043E8600BE
:10159200093081002108053E8600223081002108A1
:1015A200063E860081132108F62AF7000830F8006B
:1015B200F901F93547238931F904F80BDA2A77085A
:1015C200592300320032000020008D1079080800F3
:1015D200F90020008D14003200007A238931053091
:1015E200890BF12A00327908262BFA00D030E92241
:1015F2008931003A031D252B003026238931003022
:10160200262389317A0871238931262389317A0A7E
:1016120071238931262389317A08023E7123893167
:10162200262389317A08033E7123893126238931A1
:101632007A08043E71238931262389317A08053ECE
:1016420071238931262389313A2BF7008030F80043
:101652007708780559238931F8367808031D292B34
:101662004723F80000320032000020008D10780875
:1016720008007A2389310530890B3D2B0032200086
:101682008D140032000021000D14080020008D107E
:101692000530890B4A2B003221000D1420008D14D5
:1016A2000330890B522B000020000D08013908007D
:1016B200F60020008D1021000D107608031D642B0A
:1016C20020000D10662B20000D140530890B672BAE
:1016D200003220008D140330890B6D2B00000800AE
:1016E200860001308700010808008600013087006B
:1016F200003421000D1020000D1008000330DE0020
:10170200A030E42C2200C7188A2B2000E201E20A52
:101712008D2B02302000E2006208DE00B830E42C9B
:101722005708CF005608CE00D001D00A5808D53E3F
:10173200C4268B31ED0003305702E93003195602FB
:101742000318A72B58085904031DA92BED03ED0319
:101752005808ED07AF01AF0A5A08B0006D089E2E77
:10176200F21F721BEF01C030973149278B310E30C7
:10177200F8009A30F900D530FA01973158278B31A9
:10178200B22795312C2D9F3134278B31FD3020002B
:10179200AF009930B0009F3103278B31003A031913
:1017A200612CB901B50174268B3105302000EF00A0
:1017B2006F080319542C72110530F601F700393005
:1017C2009D3101258B31721F3C2C2000B501B50AD9
:1017D200082C4D30B8001730F12B4C30B8003B309C
:1017E200B601062C4F30B8001F30042C5030B80020
:1017F2000C30042C5130B8001630B6002030062CC4
:101802004E30B8000730B601B60AB7001A2C3908B4
:10181200B300B4013408003A0319102C1A2C33080F
:1018220084000630040203181A2C9A310435623EF1
:10183200820038088600013087003608A800370881
:10184200A900380884000130850000088C278B31FC
:101852008100023039060319362C03303906031988
:10186200362C04303906031D3A2C4C308931DE21E6
:101872008B310530EF000C30973149278B314C30DA
:1018820063243908A93E84009A300318013E85007A
:101892000008973149278B310F30973149278B3117
:1018A20051268B31D92B0C30973149278B312000AF
:1018B200350803195F2C4C308A31F6227215080064
:1018C2004C30632C2000B2008030973149278B3195
:1018D200F5278B310108AF00B001B00A320A860049
:1018E20001088F248830973149278B31F5278B31B6
:1018F200443FAF0032088600453FB0003208033E45
:1019020086000108B524C030973149278B31200069
:101912003208023E8B3171238B319B2F2000B100A4
:10192200A800D530A6248B313A302100D700200000
:101932002F08A800D830A6240530A6000830A7003A
:101942003008A800D53095312C2DA900290A86002F
:10195200870128080F39303E810029088600280EA9
:101962000F39303E81000800B10031080319BB2C49
:10197200310FC52C8230F8009A30F900D530FA01C7
:10198200973158278B31DD2C3108A800D530A62499
:101992008B313F30F8009930F9002F080F27FA00F9
:1019A200D730973158278B3127302100DA002000B9
:1019B2003008A800DB30A6240830A6009731B327F0
:1019C2008B3195312C2DE100AF30F8009A30F900BF
:1019D200D530FA01973158278B31ED004930F800A4
:1019E2009A30F9005E08FA006D08D53E9731582703
:1019F2008B31ED078030973149278B3120006D08FC
:101A0200A60008309731B3278B3195312C258B31C5
:101A12000230D6006108AF26C030973149278B319A
:101A2200292DD601D60A610847258B310230D6000E
:101A3200610881268B31422DC801C80A61088831AC
:101A420010208B310230D60061086E278B31422D77
:101A52005A30F6000130F7000230F8009F313D277E
:101A62008B312000DF00E0016008003A03193A2DB3
:101A7200422D5F08003A0319122D013A03191D2D58
:101A8200422D6108B200003084313A2CDD00AF25CE
:101A92008B313608DC003508DB00CA278B31003079
:101AA2005802053003195702031C5E2D00305C02F8
:101AB200033003195B020318632DD427973158278B
:101AC2008B31832D5B08A8005C08A900AA01AB0139
:101AD200CA278B315708A0005808A1006430EE27AE
:101AE2008B318A258B31A92795315A258B312908CB
:101AF200DA002808D9005A08CF005908E9278B31A3
:101B0200C4268B31ED000330AF005608B0006D08DB
:101B12009E2EF601F701F801F901201C982D2408E8
:101B2200F6072508F73D2608F83D2708F93DA435B4
:101B3200A50DA60DA70DA336A20CA10CA00C23087F
:101B4200220421042004031D8E2D7908A3007808A5
:101B5200A2007708A1007608A0000800BD00860058
:101B620001308700403FA300413F87313E278B3140
:101B72005F262408BA002308B900220097319F2764
:101B82008B313D08FB278B31403FB700413FB80006
:101B92003708A0003808A1000A30EE278B318A25C9
:101BA2008B31A92795315A252908BC002808BB008A
:101BB2003907B5003C083A3DB6000800E400E41FCE
:101BC200E42D0130E52D0030E0000F30E40564081B
:101BD200A3000330A401A500A6015F268B312408CF
:101BE200850023088400B03084079930853D003F8A
:101BF200E100013FE200023FE3006008031D272EDF
:101C02008030973149278B315630F8009A30F900ED
:101C1200D530FA01973158278B31B22795312C25CF
:101C22008B31C030973149278B3120006408313E17
:101C32002100D5002E30D600DB27D7309731582728
:101C42008B31023EB22795312C258B31721B2C2E03
:101C5200600803190800721374268B3105302000C6
:101C6200EF006F0803194F2E721180309731492708
:101C72008B31DB27D530973158278B31B2279531FD
:101C82002C258B310130613E86008701413F8A005D
:101C9200403F0A008E3151268B31322E72150800D8
:101CA200F21E562E72152000EF01873121278B314B
:101CB200721908006F0803190800592EA701A8011C
:101CC200231C672E2508A7072608A83DA535A60DC3
:101CD200A436A30C23082404031D612E2808A400A3
:101CE2002708A30008000130973149278B310F30B4
:101CF200F9000530890B7B2EF90B7B2E00000800C2
:101D0200D7001D278B313608D9003508D800590471
:101D1200031D902ED427973158278B31972E5908BF
:101D2200CF005808E9278B31C4268B31ED00AF0173
:101D3200AF0A5608B0006D089E2EB1002F08A6000B
:101D42003108973195278B31B1073108A600083049
:101D5200A7003008A800D53095312C2DD900AF2529
:101D62008B313608D8003508D7005808CF005708FD
:101D7200E9278B31C4268B31ED000830AF005608BD
:101D8200B0006D089E2ED5004E08C1004F08C2005B
:101D92000A30C301C401C50055089E314E268B315D
:101DA200D4005008013ED100003003180130D200A7
:101DB200803A803C031DDF2E510854020318F02E96
:101DC20030302000C8005408C9005008013ECA0043
:101DD20055089C31EA248B315008013ED400200082
:101DE2005408D300022F53085507D10086008701FB
:101DF20053085507D200FF3E840085010008810088
:101E0200D303D003500FF42E53085507D100860098
:101E12002E30870181005408013E0800F700F600C9
:101E22000F30F6057830F736F7057708F607F736FC
:101E3200F736760877070800C100BF01C001E32723
:101E42008B31B700413FB800423FB900433FBA006F
:101E52003904380437040319692F41088600B92769
:101E62008B318A252308BE002208BD002108BC0050
:101E72002008BB00220097319F278B314108FB27A6
:101E82008B31B9278B318A258B31A92795315A2578
:101E92008B312808BB072908BC3D2A08BD3D2B0809
:101EA200BE3D4108E327A800413FA900423FAA00E6
:101EB200433FAB003E08AF003D08AE003C08AD001A
:101EC2003B08AC0095315A252908C0002808BF00FC
:101ED2004008B6003F08B5000800D7000A30F600F7
:101EE200F7015708063E860001308700403FF800A0
:101EF200413FF9008631B5268B317708CF0076084D
:101F0200E9278B31C4268B31ED000630AF0056082D
:101F1200B0006D089E2EAB000F278B31AC00AC0ACF
:101F2200AA0029082A02031C982F2808AC002C08B2
:101F320088318328AF000530F8009930F9002F0866
:101F4200FA00D530973158278B31B22795312C2D95
:101F52002308AF002208AE002108AD002008AC0023
:101F62000800A6001030A700D530A801A80A080072
:101F7200403FB700413FB8003708A0003808A10031
:101F82004630A201A301A701A601A5005030A4007A
:101F920008005D08063E860001308700403FD700FA
:101FA200413FD8000800B530F8009A30F900D5302A
:101FB200FA0108000030F8009830F90020006108AA
:101FC200FA000800083E860001308700403F080002
:101FD200CE00D530D001D00A0800A201A301A4008E
:101FE200A501A601A70108002000320886000130E1
:0E1FF20087000800023E8600013087000800CC
:102002000634023402340534003403340534013416
:10201200043406340234043401340134013401340A
:1020220004340134033403340234C80022003F086C
:102032002000C40022003E082000C30022003D0808
:102042002000C20022003C0820009731CA279031AC
:102052009E314E26ED000830AF004808B0006D08F2
:102062008E319E2E0034003400340034A0345234B9
:1020720057340134003400340034003460343434D2
:102082003C340234603434343C340234A0345234AC
:102092005734013448342734AD34013430341A34DF
:1020A2001E340134F7001030F800F80B59280800EC
:1020B2007708860087010108F900781C64280F3030
:1020C200F90EF9056528F70A0F30F9050A30790289
:1020D2007608860087017908031C7128373E72282A
:1020E200303E8100F60A562822003F082000D10027
:1020F20022003E082000D00022003D082000CF0030
:1021020022003C082000CE000F30D501D40042301E
:10211200D3003F30D2009531992551082200BF00EB
:10212200200050082200BE0020004F082200BD00FF
:1021320020004E082200BC000800D8001930F6002A
:10214200F701220057082000D7002200560820007D
:10215200D600D635D70DD635D70D5608F800570814
:10216200F9008631B52690317708DA007608D90071
:102172005A08CF0059089731D72790318E31C4269B
:10218200ED000D30AF005808B0006D088E319E2E64
:102192008731342790318E317426903120000330FC
:1021A200DF01DD00FF30DE000530EF006F080319AC
:1021B2000F297211F6015D08F7005F309D3101258C
:1021C2009031721FE8282000EF015F08DE009B308B
:1021D200F8009A30F900D530FA019731582790313A
:1021E200ED009230F8009930F9005F08013EFA00E4
:1021F2006D08D53E973158279031ED0780309731E1
:102202004927903120006D089731B82790319531D8
:102212002C2590318E3151269031D7285E0A031930
:1022220008005E089431172C8E31742691318B137D
:10223200F01C1E29C4304D2191312200471D2C294A
:10224200F018272923004B08031D2E2922005008CD
:102252002300CB002E292300CB01220048082100B5
:102262006706F03967062200C8007D082000A40036
:10227200A40E220049087E219131C9007C08200069
:10228200A400A40E220048087E219131C8006F21CB
:10229200913122000C104C292000A2009F313427DA
:1022A20091312000220886000130870022004C086C
:1022B20081002000220A860022004D0881002000B1
:1022C2002208023E9F31F52791312208033E9F31B9
:1022D200E52791312208043E9F31F02F8431B82442
:1022E2009131873107272030A0000230A100403011
:1022F200A2002A30A3009D31182D200024060F3998
:102302002406220008002000B600B201B301B40185
:10231200B50136088600870101080319BE2936086F
:1023220086000108D03EAC00FF3003180030AD003B
:102332002C08AE002D08AF00B001B1013508A30092
:102342003408A2003308A1003208A0000A305F223C
:102352008D318A2591312008AE072108AF3D220830
:10236200B03D2308B13D3108B5003008B4002F0854
:10237200B3002E08B200B60A8A293508AB00340829
:10238200AA003308A9003208A8000800DA002200D7
:1023920058082000A800220059082000A9004B225A
:1023A20023082000A400220024082000A500A60182
:1023B200A7018D318A2591318F31A927913195312C
:1023C2005A2591312B08D9002A08D8002908D700AC
:1023D2002808D6005922AA01AB015908AF005808B3
:1023E200AE005708AD005608AC0095315A25913120
:1023F2002908DC002808DB005C08CF005B088F316D
:10240200E92791318E31C4269131ED000330AF00BE
:102412005A08B0006D088E319E2EDA005922913191
:102422004B2291313B0820005F228D318A25913168
:102432008F31A927913195315A2591312B08D90035
:102442002A08D8002908D7002808D6000A30A80090
:10245200A901AA01AB015908AF005808AE005708FC
:10246200AD005608AC0095315A2591312908DC009F
:102472002808DB005C08CF005B088F31E927913127
:102482008E31C426ED000430AF005A08B0006D084A
:102492008E319E2EAA01AB01220027082000A00047
:1024A200220028082000A100A201A30122000800A6
:1024B200220044082000A800A9010800A400A501E8
:1024C200A601A7010800AD00AF017C2ACC30200094
:1024D200AE000830AC00782A2D08860087012E084D
:1024E20084000130850000088100AE0AAD0AAC0309
:1024F2002C0F6D2AAF0A7A08AA00AB01AA1BAB0304
:102502002B08803A803C031D882A2A082F020318D0
:102512008E2A912292310318672A20002F08080080
:102522002000CC30A801A80AA301A901A90AEA1334
:10253200A60021006F19132B3D2392310318A62AFE
:102542002100D4016F1103100800F0309D31942551
:10255200923140302000A200042B27239231003018
:10256200031801302000A500272392310030031800
:1025720001302000A400250BC12A240BC12A072BFD
:10258200250824060319C82A2508A700E92A2100DC
:102592005408200028020318DA2A2608860001308F
:1025A2008700010829050319D82A0130E32A0030DF
:1025B200E32A280821005406031DE12A0130E22AF9
:1025C20000302000A7002708031DE92A2808A300DD
:1025D200270BF22A26088600013087002908810489
:1025E200F82A260886000130870029098105270874
:1025F2005F2392312000A80AA9352908031D042B64
:10260200A60AA901A90AA203220FAE2A4130280272
:10261200031C132B23082100D400540803196F153F
:102622002000EA172000EA1B232B2100CC30D40122
:102632006F11F6000130F7000830F801F9009C3103
:10264200D7249231EA1FA42A031408007E23923170
:1026520000320032000021008C160830890B2F2B2B
:102662000000003020008C1A0130F6005B30890B2C
:10267200382B0032760C08007E2392310430F600AB
:102682001C30890B422BF60B422B003221008C1698
:102692007430890B4A2B0032031020008C1E031465
:1026A200003003180130F7000330F600A830890B20
:1026B200582BF60B582B0032770C0800F60001302D
:1026C200F60576080319712B7E2392310830890BA7
:1026D200682B000021008C166430890B6E2B0800D9
:1026E2007E2392317430890B742B003221008C16B8
:1026F2000330890B7A2B0000080021008C12220083
:102702008C1208002200471B892B2000EA150800C2
:10271200803049277D30F6000030F7000230F800A3
:102722009F313D2793312000D900DA015A08003A3F
:1027320003190E2C162CF21EB22BF2120030F800E6
:102742009830F9000630FA00D53058278F31B22779
:1027520093312C259B319623933187312127721592
:1027620008000230CE00C030863104269331083092
:10277200A601A7000230A800D5302C259331C03025
:10278200492702302000CE00C13086310426933121
:102792000230CE00A230863104269331EA1A0800B4
:1027A200053021004E02031C08000430CE00080050
:1027B2009F31E02793319F3103279331003A031968
:1027C200EB2B21006A08EE006908ED006E08EC00B0
:1027D2006D08EB009330F8009A30F900D530FA0119
:1027E20058279331A6000830B32793312C25933113
:1027F200CE278631DB269331C03049270B302000AB
:10280200D600EB30D701D70A8631DB260C30D60052
:102812000230D700ED308631DB2E5908003A031919
:102822009C2B013A0319D92B162C0800DC008030AE
:10283200492793311F30F8009A30F900D530FA0158
:1028420058279331B82793312C2593317110F01307
:102852002200B101B201F01170119F2793315C087F
:102862000907090709074A3E86000230A927933162
:102872005A25933129082200B60020002808220098
:10288200B5009F2793315C080907090709074E3EE7
:1028920086000230A92793315A2529082200B40064
:1028A200200028082200B300D530F6000030F700DF
:1028B2003D30F8001030F9009C31D72493310F30AD
:1028C200EF00EE01212D6F08031D72187B2C6E089C
:1028D200031D212D1930EE00C030492793315B30A2
:1028E200F60020006F08E8278F31B22793312C259C
:1028F2009331212D6F080319F12CF01F701B872CC7
:102902001E30EF0070178E31742693312200320888
:102912002000CF00220031082000D7278E31C426A4
:102922009331ED000930A6006D0895279331ED072C
:102932002030C8006D08D3279C31EA249331701AE5
:10294200A52CDA01DB01D92C220042082000A800C4
:10295200220043082000A9008630AA01AB01AF0083
:102962001C30AE004630AD008030AC005A259331A9
:102972002B08D9002A08D8002908D7002808D60031
:10298200210048082000A800210049082000A900D1
:10299200AA01AB015908AF005808AE005708AD00B4
:1029A2005608AC005A2593312908DB002808DA00C2
:1029B2005A08C1005B08BE279E314E269331ED00B6
:1029C200A601A60A95279331C030492793311030CA
:1029D2002000A600A7000330A800D5302C25933193
:1029E2006F08031DF01BFB2C1930EE006E08031953
:1029F200212DF72CF01BF019002DF015212D70134D
:102A02006F08031D132DC030492793318B30F80016
:102A12009A30F900D530FA0158279331B82793310B
:102A22002C25933102302100E8000A302000EF000B
:102A32001D2DF21F721B202D6F08031D1A2D7015FC
:102A4200701DF21B262D721F642C7013F213721369
:102A52006A13F2120800AE00AA0126082702AC008F
:102A6200280B352DAC01392D033028060319AC365D
:102A72002C082607AB00AD0127082D020318080019
:102A82002C082D02031C492D2B082D02031C4D2D51
:102A92002030DB279331572D2A082E07A900860004
:102AA20087010108DB2793312000AA0A2000AD0A22
:102AB2003D2DB001B101B201B3012B082A04290452
:102AC20028040319902DB401B40AAB1B6D2DA8354F
:102AD200A90DAA0DAB0D652DB035B10DB20DB30D1B
:102AE2002B082F02031D7F2D2A082E02031D7F2D86
:102AF20029082D02031D7F2D28082C02031C8A2D74
:102B02002808AC022908AD3B2A08AE3B2B08AF3B94
:102B12003014AB36AA0CA90CA80CB40B6D2D3308DB
:102B2200AB003208AA003108A9003008A80008004A
:102B32005508C4005408C3005308C2005208CA27EB
:102B42009E314E269331DE0051085502031DB32DEE
:102B520050085402031DB32D4F085302031DB32D19
:102B62004E0852020318BD2D5508D1005408D0005A
:102B72005308CF005208CE005108C4005008C300C9
:102B82004F08C2004E08CA279E314E269331DC0000
:102B92003030C8005C08C9005E08CA00D5309C31DC
:102BA200EA249331D7015E08103CD600031CD703F8
:102BB200D736D60C5608C03EDD000530DF01EF00E7
:102BC2006F0803193B2E7211F6015E08FF3EF700F3
:102BD2005F309D3101259331721F222E20005F0844
:102BE200D53E86003A308701810A0102031CFE2D80
:102BF2005F08D53E860030308100D5309131842186
:102C020093312B08DB002A08DA002908D9002808AA
:102C1200D8005B085502031D182E5A085402031DE2
:102C2200182E59085302031D182E58085202031871
:102C3200202E5F08D53E86003030870181000530A6
:102C4200EF000C304927933120005D08492793316A
:102C520020005E08A6000830B32793312C2593315B
:102C62005D085F07492793310F3049278E3151267E
:102C72009331E12D0C3049277215D53091318421E1
:102C82002B08D1002A08D0002908CF002808CE003E
:102C920008000530D701EF006F080319D62E721114
:102CA2000F30F601F70057309D3101259331721F25
:102CB2006C2E01302000D200D30157080F3C890A44
:102CC200642ED235D30D890B622E5208CE065308DC
:102CD200CF060530EF000C30492730302000C80005
:102CE2004E08C1004F08C2000230C301C401C50032
:102CF200D5309E314E269331D3279C31EA2493312D
:102D02005708D53E860087010108D13ED400D53050
:102D1200D6001030D5009E2E56088600303087012E
:102D22000106031D982E560886002D309B2E56084C
:102D320086002A3087018100D60AD503550F8D2ED1
:102D4200C03049279F31BB2793312C25D5309F3185
:102D5200C32793319C31D72493315108F90050088D
:102D6200F8005708013EFA00D53058279331ED009C
:102D72006D080319C52E6E30F8009A30F900540818
:102D8200FA00E13058279331803049279F31BB2721
:102D920093312C2593315708C03E492793310F3088
:102DA20049278E31512693314D2E0C304927721509
:102DB20008008E148E1502302000A3004530A200B8
:102DC200A930890BE22EA20BE22EA30BE22E0032D7
:102DD20008302000AF0004302F020318F32E3030E9
:102DE200AC00F42EAC01AD012C088B2793310330DB
:102DF2002F02031C062F1B302000A2009E30890BDD
:102E0200002FA20B002F00000A2FA630890B072FDC
:102E120000322000AF03031DEC2E0230492793310C
:102E220028304927933108304927933117304927F1
:102E32008E31742693310C3049279331063049275D
:102E420093312000B00130080739031D3B2F3008B1
:102E5200F839403849272430F7000030F8002000C4
:102E62003008883EF9000830FA0084319224933108
:102E72002430AE002E08860087010108DB2793313B
:102E820020004030AE0AB00A300203180800242F96
:102E9200F80020008E1078088B279331780EF039D5
:102EA2008B2793315830890B542F000008002000E3
:102EB200A5007A080319612FC4279331A200622F5B
:102EC200A201A3012208A4007A080319842F790819
:102ED200A1007808A000F80A0319F90A8400210861
:102EE200850000082406031D652FFA03652F7A0862
:102EF2002507A00086008701C42793318100F80AC4
:102F02000319F90AFA0AC42793312406031D782FFC
:102F12007A080800F700F039F6000E080F39760437
:102F22008E008E158E110800A7007030F8009930BF
:102F3200F9002608FA002708D53E582F420820003B
:102F4200A800220043082000A900AA01AB01080042
:102F52008700403FAC00413FAD00423FAE00433FDF
:102F6200AF000800A700D530A801A80A0800A600F3
:102F72001030A7000330A800D534C2000A30C301C4
:102F8200C401C500D534780884007908850000089A
:102F92000800C1000A30C500D5340E30D600023018
:102FA200D700E934C9001030CA00D534CE0002304F
:102FB200D000D534F8008E148B279331780EF03977
:102FC2008B2793315830890BE42F00000800F7005B
:102FD200F90176080319FE2FF801F80AF61BF32F00
:102FE200F635EE2FF93576087702031CFB2F7608AB
:102FF200F7027914F636F80BF32F7908080000343B
:103002006634753465346C34203463346F346E3412
:103012007334743461346E347434003476347334FB
:103022007334203463346F346E34733474346134E3
:103032006E347434003474346F34743461346C34E8
:1030420020347434723469347034003476346F341A
:103052006C347434613467346534203461346434DC
:103062006A347534733474340034733465347434AC
:10307200743469346E34673473342034623469349E
:10308200743473340034743465346D3470342034E1
:10309200733465346E3473346F3472347334003481
:1030A2006D3469346E34203473347034653465346D
:1030B20064340034733477342034763465347234B3
:1030C200733469346F346E340034003470346134D4
:1030D200693472342F347034613472342034693478
:1030E2006E346A3400346D3469347334633420349A
:1030F200733463347234653465346E3400346B3443
:1031020065347934203473346F3475346E346434F6
:10311200003400346D3468342034723470346D34C9
:1031220000347434723469347034203442342034BC
:103132006D346F346E3474346834003474347234E1
:103142006934703420344334203464346134793443
:10315200003469346E342F346F347534743420344F
:10316200743465346D3470340034643473343334FD
:103172003234333431342034743465346D34703441
:10318200003400340034003400340034003400349D
:10319200003465346E34673469346E3465342034F7
:1031A20068346F34753472347334003465346E3479
:1031B200673469346E34653420346F3469346C3466
:1031C2000034673465346134723462346F34783475
:1031D20020346F3469346C340034613469347234AD
:1031E2002034663469346C34743465347234003497
:1031F20073347034613472346B34203470346C3410
:1032020075346734733400340034733475346E3477
:1032120064346134793400346D346F346E34643420
:1032220061347934003474347534653473346434FD
:103232006134793400347734653464346E346534FF
:1032420073346434613479340034743468347534DA
:1032520072347334643461347934003466347234D1
:1032620069346434613479340034733461347434CD
:1032720075347234643461347934003400346A341D
:1032820061346E34003466346534623400346D3433
:1032920061347234003461347034723400346D3409
:1032A2006134793400346A3475346E3400346A34EB
:1032B20075346C34003461347534673400347334DB
:1032C2006534703400346F346334743400346E34D3
:1032D2006F34763400346434653463340034FF343C
:1032E20000340134FF3402340334FF34043405342F
:1032F200FF3406340734FF346834FF346C34FF344F
:103302005634FF346B346D34FF347334FF34DF349E
:10331200FF343E34FF343C34FF346D347334FF34B5
:10332200FF340034203430342D34313430343034EE
:103332000034203430342D343634303400342034E8
:10334200363430342D343134303430340034203497
:10335200383430342D3431343234303400340134A2
:103362004D34073402347C341B3403347534103446
:1033720004346D34073405344B341B340734593468
:103382000734063496341B340834B1340B34003419
:103392002D342D342D3400346F34753474340034AC
:1033A20069346E340034203465346E34673400344A
:1033B20000348531582D85315D2D8531632D853160
:1033C200682D85316D2D8531722D8531772D8531B1
:1033D2007C2D8531932D6E346F34203473346534F3
:1033E2006E3473346F3472347334203466346F3411
:1033F20075346E3464340034743469346D34653435
:10340200203463346F347234723465346334743408
:1034120069346F346E343F340034323430343A34E9
:10342200313431342034303439342E343034393478
:103432002E3432343034323432340034773461341E
:1034420069347434203466346F3472342034733403
:1034520074346134723474340034EC34043483349C
:103462000B34833413347F340B3433341B34C4347D
:103472000B34B1341D3400341F343B345A347834A5
:103482009734B534D434F334113430344E346D348B
:103492000034633475347234003464346134793402
:1034A2000034413400344234003463346F346E34B7
:1034B20066346934673420346D3465346E3475345F
:1034C20000348B31EA2B8B31EE2B8B31F32B8B318A
:1034D200F72B8B31FB2B8C31012C003420346F34D1
:1034E200663466340034203420346F346E34003451
:1034F20074342E34733465346E3473346F347234EE
:1035020000342D342D342D342D342D3427342D34E4
:103512002D340034743469346D3465346F34753449
:103522007434003476346F346C34743461346734F8
:1035320065340034743469346D3469346E346734FC
:103542000034723465347334653474343F34003477
:103552008134843489348C348F34C034743472347A
:1035620069347034203400342D342D342D342D340C
:02357200003423
:103666000430DE00AC308C31E42C64008001013182
:10367600890B392B0034FE0012001E00FE0B3F2B77
:103686000034FF3400340034FF3403340034003493
:10369600220047082000CF00220046082000CE0066
:1036A6006630D0009830D10096314A2620004F0867
:1036B6002200C70020004E082200C6000800A10014
:1036C6007608A3002108A2000130F7020030F83B7B
:1036D600770F702B780A03190800230886008701E4
:1036E6000108A000A30A2208860020088100A20A79
:1036F600672B220042082000CE002200430820004B
:10370600CF007530D001D101D501D401D3002F30BF
:10371600D200953199254F082200C30020004E089B
:103726002200C20008005B30860001308700B830F6
:103736008400003085000630D60016001A00D60B2D
:10374600A02B2100D530BF01C001C101C501C3278F
:103756009B31D724EC30F8009930F900D530FA01C6
:10376600973158279B310330FA00A03092316422FA
:103776009B312100C200B1279B3120006430EA1042
:10378600EE000530EF006F080319B02C721121000E
:1037960042080319792C2000EA18EE2B6E08031D47
:1037A600EE2BEA142100C301E530F9004308FB279C
:1037B6009B3146259B31031CE82B21004335B83E3F
:1037C60086008701873148279B3121000330C30AD1
:1037D6004302031CD72BF60121004208FF3EF700E7
:1037E600C53001259B31721F092C21004508BF3EBB
:1037F600860004308701810A0106031D062C450850
:10380600BF3E8600810105302000EF002000EA1C43
:10381600342C21004535B83E86008701403F220002
:10382600E800413FE90020000330CE01CE0A863190
:1038360004269B312100BE0020302000C800210054
:103846003E082000C9000430CA00D530EA24D5302D
:10385600F6000430F700E130F8019B3162239B311A
:103866003D2CE130F6000030F7002030F80004303F
:10387600F900D7247930F8009A30F900D530FA01EA
:10388600973158279B3120302100DD004508313E15
:10389600DE002F30DF004208303EE00080309731F6
:1038A60049279B31BB2795312C259B31D530F60016
:1038B60021004508FB27903153209B31C830F80082
:1038C6009930F9004508BF3E860087010108013E90
:1038D600FA00E130973158279B31ED002030C800BF
:1038E6006D08C9000430CA00E130EA24C0309731BF
:1038F60049279B31BB2795312C259B31E0279B31EE
:1039060003279B31003A0319A12C21000230BF0185
:10391600BF0AC0000330C10081302200E200E3008C
:10392600E400E500E600E700A030F6000030F7000E
:10393600FF30F8001830F900D724EF01873134271B
:103946009B31AD2C6F080319C62B6E08031DAD2CD9
:10395600EA1CC62B721DA52CC62B2100C401033000
:103966004402031808004408BF3E86008701010888
:103976000319D42C4408090709070907A03E2000AB
:10398600A000A10121004408BF3E860001080907E6
:1039960009070907683E2000A2000830A300182581
:1039A6009B312100C40AB22C77082000A1007608BA
:1039B600A000F903790FE02C0800200886002108F2
:1039C600870078088100A00A0319A10ADC2CCD0023
:1039D60049080319FD2CD9279B31C90349084D070E
:1039E600CC008400850100088100EB2CD9279B318F
:1039F600480881004A0803190800F92CF9008600D6
:103A060087010108F800F21F122DF80A770A7806D6
:103A1600031D0F2D7608F80005302000EF00790809
:103A260086008701780881000800F80123087802DB
:103A36000318080020088600210887000108F60000
:103A4600220878072D259B312000A00A0319A10A18
:103A5600F80A192DF700230095182E2D77089100E6
:103A66009201760893003F30950503108B1B0314D3
:103A76008B13151555309600AA309600951415111E
:103A860003188B1708002000AE0093313D239B31AD
:103A960003184F2D03100800553094259B31200044
:103AA6002E08B200B101320886008701010894256C
:103AB6009B3120000830B20AB10A3102031C562D90
:103AC600BE3094259B3125302000B200AF01B001F5
:103AD6002000320886008701A2259B318100200044
:103AE600B20AAF0A0319B00A3008803AFA008030E9
:103AF6007A02031D802D09302F02031C6B2D7908D5
:103B06008600870120002508C03F2608C13F0830EF
:103B1600F600253090279B312D06031D4D2D0314ED
:103B26000800F700F8017708013993315F239B31CC
:103B36000830F736F80A780203180800962DF701C0
:103B4600F801F736933127239B310318F71708300E
:103B5600F80A7802031CA42D770808007C30F600CA
:103B66000030F7000530F8003D27803097314927AF
:103B76009B31C930F8009830F9007C08013EFA0004
:103B8600D530973158279B318F31B2279B319531EC
:103B96002C259B317C08031DD92D2A30CE006027A9
:103BA6009B313608C9003508C800E62D7C08090790
:103BB60009070907223ECE00860002308700403FF3
:103BC600C800413FC9004808C10049089731BE27CF
:103BD6009B314E269B31ED007C080319F42D0830ED
:103BE600F52D0530CA00A6006D08973195279B3143
:103BF600ED076D08D53E8600203087018100C03074
:103C0600ED0A973149279B312000CB2795312C258A
:103C16009B314E08033E860002308700403FCB00B2
:103C2600413FCC00423FCD00C830973149279B31F8
:103C360020004C08AF004D08B0004B088C31B5246D
:103C46009B31E0279B3103279B31003A031908007B
:103C560034279B317C080319322E7C0B3B2E240023
:103C6600A001A101A201A301A401A501A601A7012A
:103C760020004E088600023087000030C03FC13F5A
:103C86004E08033EF5279B314E08043EE5279B313F
:103C96004E08053EF02FC7004408B8004308B70099
:103CA6004208B6004108B5004508B900BA01470800
:103CB60069269B31C601C60A46084707FA008600F0
:103CC60087010108031D5E2E46080800C00038085B
:103CD600BE003708BD003608BC003508BB00D22739
:103CE6003E08AF003D08AE003C08AD003B08AC0006
:103CF60095315A259B312B08BE002A08BD0029089C
:103D0600BC002808BB00C00A3E083D043C043B0436
:103D1600031D722E4008860087018101C003390801
:103D2600A0003A08A100A201A3013808A70037089D
:103D3600A6003608A5003508A400CD269B3120082C
:103D4600BF00D2273808AF003708AE003608AD00EE
:103D56003508AC0095315A259B312B08B8002A0846
:103D6600B7002908B6002808B5000A303F02031C30
:103D7600BE2E0730BF073030BF07400886008701D8
:103D86003F088100C0033808370436043504031998
:103D96000800922E23082204210420040319FA2E77
:103DA600F601F60AA31BDC2EA035A10DA20DA30D6C
:103DB600D42E23082702031DEA2E22082602031DFD
:103DC600EA2E21082502031DEA2E20082402031CE0
:103DD600F42E2008A4022108A53B2208A63B2308AE
:103DE600A73BA336A20CA10CA00CF60BDC2E2708D1
:103DF600A3002608A2002508A1002408A0000800A8
:103E0600B101F21E322F873134279B318E31742651
:103E16009B318030973149279B3120003008F900CB
:103E26002F08F800D530FA01973158279B31973182
:103E3600B8279B3195312C259B310530EF00262F75
:103E4600F21F721B292F6F08031D232F721F2D2FA0
:103E5600B101B10AF21372136A13F2127215310824
:103E6600080021004F08031D08000A30CF004C301F
:103E76008A316A2A721F4D2F7213760886007708D8
:103E860087000108013EF90076088600770887005A
:103E9600790881007608860077088700780801028D
:103EA6007608860077088700031C5E2F8101760856
:103EB600860077088700010808002200C71D752FB5
:103EC60020000130AB01AA007730A9000430A80118
:103ED600203E860002309731A9279B3195315A251D
:103EE6009B31EB2F20000730AB01AA01A900083057
:103EF600A800240023082000AF0024002208200088
:103F0600AE00240021082000AD0024002008200077
:103F1600AC0095315A259B31EB2FA000A401AC2FA4
:103F26002008860087010108A1000830A00AA20027
:103F360022080319AC2F24082106A3000130A3058B
:103F4600A43623080319A92F8C30A406A136A20390
:103F56009B2FF603760F932F2408080093313D23F9
:103F66009B31031C0800CC3094259B314430942DA2
:103F760010302000A600A700D530A801A80A080026
:103F8600F6000030F7002030F8001030F900080085
:103F96006D08A6000830A7000230A800D5343908FD
:103FA600A8003A08A900AA01AB010800CA034A08FA
:103FB6004D07CB00860087010800A230AF009A307B
:103FC600B00008008600220050088100200008008A
:103FD6002908B6002808B500080086002200510806
:103FE60081000800860022004F088100200008009A
:0A3FF600090709070907A03E0800AB
:020000040001F9
:04000E00C23FFF1ED0
:10E000002E00D2000400000023002B0080003E0000
:10E010006D00C6000000E6001300050000000000CF
:10E0200009000000D8002400200011006300000057
:10E03000DF00010000000000EC0000006500360079
:10E040007000260093000B001C003A000000000046
:10E050002A0000004900380011000B000C000200EB
:10E060003B000A00000000005500190009000900EB
:10E07000220013000300090000000000000000005F
:10E080002000280000000000D700A20006000000C9
:10E0900000000000A70000000A00030009002200A1
:10E0A00000000000FA001E002800070011002100F7
:10E0B00000000000610031000A0021000300200080
:10E0C00000000000CC003C000A0007000100210015
:10E0D0000000FF0000000000000000000000000041
:10E0E00028008A0009009500F00001003C00FC00B7
:10E0F000FF00FF00FF00FF00FF00FF00FF00FF0028
:10E10000FF00FF00FF00FF00FF00FF00FF00FF0017
:10E1100005000600050000000000000001000200EC
:10E120000A0015001500000010000500070001009E
:10E1300007000500070000000000010002000000C9
:10E14000000000000800100000000A001500150083
:10E150000C00140014000100020005000100010081
:10E16000000000000000000000001F0015001F005C
:10E17000030005000500000000000100020000008F
:10E180000000000008001000000014001C00040043
:00000001FF
