:100000000C94ED010C940A020C940A020C94E6186C
:100010000C940A020C940A020C940A020C940A0230
:100020000C940A020C940A020C9451160C940A02C5
:100030000C940A020C940A020C9472180C940A0292
:100040000C940A020C940A020C940A020C940A0200
:100050000C940A020C94B4150C940A020C940A0233
:100060000C940A020C940A02006A616E00666562D2
:10007000006D617200617072006D6179006A756E69
:10008000006A756C0061756700736570006F63745A
:10009000006E6F7600646563002D2D2D2D2D272DAC
:1000A0002D00FF0001FF0203FF0405FF0607FF68A4
:1000B000FF6CFF56FF6B6DFF73FFDFFF3CFF6D733F
:1000C000FFFF74696D6520636F7272656374696F99
:1000D0006E3F0074696D656F757400776169742097
:1000E000666F72207374617274000020302D31309D
:1000F000300020302D3630002036302D31303000A9
:100100002038302D3132300074696D696E6700001F
:100110006375720064617900410042007472697015
:10012000200072657365743F006E6F206974656DA1
:1001300073000063757272656E742074726970006A
:1001400074726970204100747269702042006163AA
:1001500063656C206C6F67676572006A6F75726E9D
:10016000616C207669657765720000206F666600B5
:1001700020206F6E0000706169722F7061722069BB
:100180006E6A00736B69702074656D70006B6579C1
:1001900020736F756E64007365727620616C617296
:1001A0006D00006D682072706D006461696C79206B
:1001B0007472697000696E2F6F75742074656D704C
:1001C000006473333233312074656D7000000000B9
:1001D00000000000002D2D2D006F757400696E0069
:1001E000656E67006E6F2073656E736F7273206645
:1001F0006F756E640030393A31312031372E303727
:100200002E32303232009ACB0400CC006C3E6EB3FA
:1002100000E21305000009006325180E5900AD0126
:1002200000000601362474421E0CE63D0000380032
:1002300072104A1B4A02DB0A000025181607229496
:10024000030000000000E41F06000B98FA00000005
:10025000AE170A13112100006418280711210000AD
:10026000CB2A0A210320000036360A07012100FFAD
:10027000000000000000288A0995F0013CFCFFFF07
:10028000FFFFFFFFFFFFFFFFFFFFFFFFFFFF050671
:100290000500000001020A151500100507010705F9
:1002A00007000001020000000810000A15150C14D8
:1002B00014010205010100000000001F151F0305C5
:1002C0000500000102000000081000141C040000DA
:1002D0000000DEADC0DE00656E67696E6520686F88
:1002E00075727300656E67696E65206F696C006773
:1002F000656172626F78206F696C00616972206657
:10030000696C74657200737061726B20706C7567D4
:1003100073005741524E494E4700004655454C2008
:10032000636F6E7374616E740056535320636F6E07
:100330007374616E7400746F74616C207472697090
:1003400000766F6C746167652061646A7573740010
:1003500073657474696E6773206269747300746581
:100360006D702073656E736F72730073657276695A
:10037000636520636E747273006D696E20737065BF
:1003800065640073772076657273696F6E00434F02
:100390004E464947204D454E55002D2D2D2D000030
:1003A00073756E646179006D6F6E64617900747548
:1003B0006573646179007765646E65736461790063
:1003C000746875727364617900667269646179003A
:1003D0007361747572646179000011241FBECFEFE0
:1003E000D8E0DEBFCDBF11E0A0E0B1E0E8E1F0E48D
:1003F00002C005900D92A43BB107D9F722E0A4EB0F
:10040000B1E001C01D92A43AB207E1F70E94B91A07
:100410000C940A200C940000FC01908180918B02C6
:10042000882349F09617C1F09F5F20E032E03093B7
:100430008A022093890280918802882359F09923A7
:1004400011F06FEF690F80E092E090938A02809341
:100450008902962F9083089590E0E7CFCF93DF93A2
:10046000442361F0FB0124916F5F7F4FFB013197C3
:10047000E4912E13F9CF4150B9F7422F9B01A22FDF
:10048000A61BE901F9015491541304C08A2FDF918E
:10049000CF9108952F5F3F4FFE01C491A80FB92F50
:1004A000B11DCC93ECCF241B411103C021110DC011
:1004B00008954150FC01E40FF11D3081E22FE40F5B
:1004C000E80FF92FF11D3083EFCF2150FC01E20F2F
:1004D000F11D6083EBCF8F929F92AF92BF92CF922C
:1004E000DF92EF92FF920F931F93CF93DF938C01D4
:1004F0006A017B01CB01BA01E801822E912CB12C5B
:10050000A12CA50194010E94B41FCA01B901219632
:100510006115710581059105A1F71882C701B60122
:10052000A50194010E94B41F69017A01605D6A937C
:10053000C114D104E104F10489F780E08F5FF80170
:10054000E80FF11D90819111F9CFDF91CF911F91AB
:100550000F91FF90EF90DF90CF90BF90AF909F9062
:100560008F900895FC01962F9F70905D9183629506
:100570006F70605D60830895282F2F708695982F87
:100580009877822F890F96959695890F089581E423
:100590008093FD0188E38093FC0180917C0290911F
:1005A0007D02880F991F6DE070E00E94A01F70937C
:1005B000FB016093FA018091810287FF0CC082E801
:1005C0008093FD018CE18093FC0176956795709393
:1005D000FB016093FA0180918202982F9F709093A3
:1005E000710282958F708093290208951F93CF9393
:1005F000DF93162F0E94BC028150E82FF0E0ED58E7
:10060000FE4FC081D0E0893008F0D395812F0E9441
:10061000BC028C0F9D2F911DDF91CF911F910895EA
:10062000EAE1F1E090E0A0E2B1E022E1981322C01B
:100630006F3F91F4292F30E0220F331FF901E65E5E
:10064000FE4F40814F5F40838181481708F0108240
:10065000265E3E4FF901608122E130E0933011F4D3
:100660002AE030E0629FC001639F900D11248A0F41
:100670009B1F08953181329FA00DB11D11249F5FF2
:100680003296D4CF8091810282FF10C06091030224
:1006900070910402809105029091060220E037E7F4
:1006A00041E050E00E94B41FC90108956091FF012C
:1006B00070910002809101029091020228E037E0DF
:1006C00040E050E0EFCFFC0180914302882329F005
:1006D0001092430280818F5F80838081861708F0AB
:1006E00010828081089510928B0210924302109222
:1006F00042021092410210928802109240028091B0
:100700003F02811106C08091890290918A02892B53
:10071000B1F708950F931F93CF93DF93EC01142F3C
:10072000AB0170E060E02AE00E946B02181748F00D
:1007300001E0010F202F482F60E3CE010E945302F9
:10074000802F282F211B982FFE01E90FF11D9213F6
:1007500008C09EE290838F5FDF91CF911F910F9130
:100760000895DF0111973C9130839150EDCF462FD2
:1007700090E062EA70E084579D4F0C942E02FC01D9
:10078000908180918B02882349F09417E1F09F5F5C
:1007900020E032E030938A02209389028091430264
:1007A000811104C080918802882359F0961711F0B6
:1007B0004FEF490F80E092E090938A028093890284
:1007C000942F90830895962FE3CF8932910560F49A
:1007D0008091DA01882321F08091DA01823029F5B5
:1007E00082E08093DA0108959C01245A3109213571
:1007F000310550F48091DA01882321F08091DA01EB
:10080000813099F481E0EDCF805791408135910599
:1008100050F48091DA01882321F08091DA0183304D
:1008200021F483E0DECF1092DA01089590933D0227
:1008300080933C0280913C0290913D028138910569
:1008400018F010923B02089580913B028A3021F407
:1008500081E080933F02089580913B028F5F8093F7
:100860003B0208958093BB0084E88093BC00809194
:10087000BC0087FFFCCF9091B900987F983119F0A8
:1008800081E0983209F480E0089581110AC084EC77
:100890008093BC008091BC0087FFFCCF8091BB009F
:1008A000089584E8F5CF84E98093BC008091BC0072
:1008B00084FDFCCF089584EA8093BC008091BC0045
:1008C00087FFFCCF0895CF93DF930E945B0480EDF8
:1008D0000E94320480E00E94320480E00E943204D0
:1008E000CCE9D2E088810E94320489810E943204DE
:1008F0008A810E9432048B810E9432048C810E9482
:1009000032048D810E943204DF91CF910C94530404
:10091000CF938091DB0181114BC085E08093DB0197
:100920000E945B0480ED0E94320480E00E94320449
:100930000E945B0481ED0E94320480E00E94450425
:10094000C82F80E00E94450480939C0280E00E94B2
:10095000450480939D0280E00E94450480939E029E
:1009600080E00E94450480939F0280E00E9445043D
:100970008093A00281E00E9445048093A1020E941E
:100980005304C7FF15C081E180939C0289E08093E6
:100990009D0281E080939E0287E180939F0287E021
:1009A0008093A00282E28093A102CF910C94630411
:1009B000CF910895CF93DF93EC010E948804ECE976
:1009C000F2E0808188838181898383818A83848125
:1009D0008B8385818C83DF91CF910895CF93DF93B3
:1009E000D82FC62F0E945B048EE40E9432048C2F05
:1009F0008C608D2B0E9432040E9453040E945B0481
:100A00008EE40E9432048C2F88608D2B0E94320469
:100A1000DF91CF910C94530448E150E068E071E01D
:100A20008AE191E00C94881FCF93C82F61E0807F0A
:100A30000E94EE0461E08C2F8295807F0E94EE047C
:100A400083ED90E00197F1F700C00000CF91089589
:100A5000EF92FF920F931F93CF93DF93F62E10E048
:100A6000413029F0162F181B433009F41695082F32
:100A7000010FC0E0D0E0D11710F0D01768F080E28D
:100A80000E941405DF5FFD12F6CFDF91CF911F9119
:100A90000F91FF90EF900895EE24E394EC0EEC2F6D
:100AA000F0E0E457FD4F80810E941405CE2DEACF7F
:100AB000CF93C62F682F8CE892E00E94B2028AE39F
:100AC00080938E026C2F8FE892E00E94B20241E088
:100AD00068E085E0CF910C9428050F931F93CF9386
:100AE000DF93082F162FC82FCF70EC2FF0E0EE0FFA
:100AF000FF1FED5CFE4F808191819093A302809354
:100B0000A2022EEF2C0F81389807A9F5223058F554
:100B10008DE280938C0280938D0282E08093870225
:100B2000D091870207FF77C028E04D2F60E28CE864
:100B300092E00E94530242E04C0F64ED71E08CE8B9
:100B400092E00E942E0288E080938702412F68E0A5
:100B5000809187020E94280580918702DF91CF91C2
:100B60001F910F91089540E06AE973E08CE892E0EC
:100B70000E942E02D3CF97FF40C03DE230938C02FB
:100B80009195819591099093A3028093A202D1E05F
:100B90008091A2029091A302AC014F7055273AE0D8
:100BA000349FB001359F700D112444E07695679510
:100BB0004A95E1F754E0969587955A95E1F7389F65
:100BC000A001399F500D1124640F751F7093A3026B
:100BD0006093A2022230C0F4CB016AE070E00E9470
:100BE000A01FAB0170E060E08D2F90E02AE08457F9
:100BF0009D4F0E946B028D0F91CFD0E0C23041F229
:100C00008BE280938C02C3CF41E08DE892E00E949A
:100C10008A038F5F83CFC33009F498CF6AE08D2FAA
:100C20000E94B7038D0F90CF0F931F93CF93DF9345
:100C3000D62FFC0160857185828593852EE130E099
:100C400040E050E00E94B41FC9016CE370E00E94D4
:100C5000A01F8C01AB0170E060E02AE08CE892E01C
:100C60000E946B02C82FE82FF0E0E457FD4F8AE3A3
:100C70008083C8016AE070E00E94A01F6295607FD7
:100C8000680F81E08C0F90E084579D4F0E94B20264
:100C900083E08C0F809387024D2F68E0DF91CF9126
:100CA0001F910F910C942805CF93DF93C82FD42F59
:100CB0000E94B7034D2F68E08C0FDF91CF910C9409
:100CC00028050F931F93CF93DF938C01EB0141E035
:100CD000BC01CE0184579D4F0E948A03093E1340F8
:100CE00088F4209779F080938702809187028C0F97
:100CF0008093870241E061E0DF91CF911F910F91D6
:100D00000C9454068250EFCF8091860281110FC05F
:100D100040E06AE973E08CE892E00E942E02809342
:100D2000870242E062E0809187020C945406809131
:100D3000810287FD22C060E873EC89EC91E020918C
:100D400072023091730240917402509175020E94B8
:100D5000B41FC90105966AE070E00E94A01F8AE0F6
:100D6000869FA001879F500D112470E060E02AE06B
:100D70008CE892E00E946B02D2CF60EC71EE84EEC0
:100D800090E0DDCFCF93C82F80913C0290913D023F
:100D900025E0880F991F2A95E1F760917F0270E0A6
:100DA0000E94A01F41E08CE892E00E948A03809399
:100DB00087024C2F67E0CF910C945406FF920F935B
:100DC0001F93CF93DF93EC01F62E0E811F81053028
:100DD0001105E0F02A813B81AAE0B0E00E94DC1F0F
:100DE00020917C0230917D0250E040E00E94B41FCF
:100DF000E881F9816AE06E9FC0016F9F900D112418
:100E0000AC01420F531F43305105A0F440E06AE9A2
:100E100073E08CE892E00E942E02809387024F2DAF
:100E200063E080918702DF91CF911F910F91FF9036
:100E30000C9454069801A4E6B0E00E94DC1F9A01CD
:100E400050E040E00E94B41FB90141E08CE892E01C
:100E50000E948A03E2CFCF93C62FFC01868197813F
:100E60006AE070E00E94A01F41E08CE892E00E94DE
:100E70008A03809387024C2F66E0CF910C9454062E
:100E80001F93CF93DF93EC01162F2A813B81AAE0B9
:100E9000B0E00E94DC1F20917C0230917D0250E086
:100EA00040E00E94B41F88819981EAE0E89FB00188
:100EB000E99F700D1124620F731F41E08CE892E0EE
:100EC0000E948A0380938702412F68E0DF91CF91CF
:100ED0001F910C9454068F929F92AF92BF92CF9223
:100EE000DF92EF92FF921F93CF93DF93EC01162FC7
:100EF00088849984AA84BB8481149104A104B104D8
:100F000009F12A813B81A0E5B6E40E94DC1F209113
:100F10007C0230917D0250E040E00E94B41F6901E4
:100F20007A0128813981A0E5B6E40E94DC1F6C0DAE
:100F30007D1D8E1D9F1DA50194010E94B41FB90146
:100F4000232BD1F440E06AE973E08CE892E00E9440
:100F50002E0280938702412F61E080918702DF910A
:100F6000CF911F91FF90EF90DF90CF90BF90AF9007
:100F70009F908F900C94540641E08CE892E00E9480
:100F80008A03E7CF69E081E792E00E94630389303A
:100F900008F054C0E82FF0E0E053F84F0C94D61F4F
:100FA000D907DF07E207E707EC07F107F607FB07BA
:100FB00007088091810261E081700C946D0581E0E9
:100FC0000C94C20661E08EE592E00C94140661E098
:100FD0008EE592E00C94400761E08EE592E00C947F
:100FE000DE0661E08EE592E00C946B0761E08EE531
:100FF00092E00C942B076BE080E00E94B703682F0F
:1010000070E080916F02909170020C946106809163
:10101000440290914502880F991F880F991F6AE03A
:1010200070E00E94A01F42E08CE892E00E948A03D8
:101030008093870241E06CE00C9454060895CF93AE
:10104000DF93D62FC42F9FEF980F9E3F70F040E0A4
:1010500069E970E08CE892E00E942E0241E068E0CD
:1010600088E0DF91CF910C942805682F8CE892E0FE
:101070000E94B2028D2F0E94BC02482F68E670E0E9
:101080008EE892E00E942E0287E2809391026C2FFC
:1010900082E992E00E94B202E1CFCF93C82F60E0D4
:1010A000807F0E94EE0460E08C2F8295807F0E94FA
:1010B000EE0483ED90E00197F1F700C00000CF91BE
:1010C0000895CF93DF9380E80E944D08CCE9D2E0E9
:1010D000688189810E94580588E80E944D084D81E9
:1010E0006C818B810E941F0880EC0E944D084A8110
:1010F0006FE973E08CE892E00E942E0241E060E12B
:10110000DF91CF910C94280580EC0E944D0840E0BF
:1011100065EF71E08CE892E00E942E0241E060E110
:101120000C94280546EE6CE88FE792E00E94BF031E
:1011300084EC0E944D0882E00C94C2065F926F928C
:101140007F928F929F92AF92BF92CF92DF92EF9257
:10115000FF920F931F93CF93DF931F92CDB7DEB70C
:101160004B015C0169017A012AE0BA01A6018CE811
:1011700092E00E946B02082FA601B7018C149D0417
:10118000AE04BF0410F4A401B5012AE08CE892E09B
:101190000E946B02202F482F60E38CE892E00E94AF
:1011A000530280E190E0801B91099695879510ECA1
:1011B000180F198280E092E090938A02809389024E
:1011C00055245A94500EA12C32E0B32E40E3742ED5
:1011D0008091890290918A02892B19F58CE00E94F6
:1011E0004D0881E080933F020CE812E020E030E0FF
:1011F000A901D801ED918D01E11165C0CA01B901C4
:101200000F90DF91CF911F910F91FF90EF90DF90A2
:10121000CF90BF90AF909F908F907F906F905F9096
:10122000089510923F02652DCE0101960E940C0296
:10123000809143028823F9F0E981F0E0E457FD4F03
:1012400080818F5F8A3360F580838CE8882E82E00E
:10125000982E20E030E0A901D4016D904D0161107D
:1012600021C0C216D306E406F50608F47082B092D7
:101270008A02A09289028CE00E944D08812F0E9470
:101280004D0841E068E0802F0E9428058981810F88
:101290000E944D088FE00E944D080E94730398CF72
:1012A0007082D3CFAAE0B0E00E94EB1F462D4053DE
:1012B000550B9A01032E000C440B550B260F371FBC
:1012C000481F591FC9CFAAE0B0E00E94EB1F4E2F64
:1012D0004053550B9A01032E000C440B550B260F5F
:1012E000371F481F591F85CFCF93DF93C6E7D2E042
:1012F000688179818A819B812FE332E44FE050E05D
:101300000E949E08688379838A839B83DF91CF91B3
:101310000895CF93DF93C6E7D2E06E817F8190E09E
:1013200080E02FE235E740E050E00E949E087F8396
:101330006E83DF91CF910895EF92FF920F931F93E9
:10134000CF93DF931F92CDB7DEB78983062FF42E9C
:10135000E22E80E092E090938A028093890280914D
:10136000890290918A02892B61F481E080933F0287
:1013700089810F90DF91CF911F910F91FF90EF9096
:10138000089510923F024E2D6F2DCE0101960E94BE
:10139000BF034981083001F5242F30E0A8EEB3E007
:1013A0000E94DC1FAB01BC012AE08CE892E00E94A5
:1013B0006B02182F602F0E94B703810F8093870262
:1013C00084EC0E944D0842E068E0809187020E9410
:1013D00028050E947303C3CF50E070E060E0E4CFC3
:1013E000CF93DF93C6E7D2E02AE041E061E08D854C
:1013F0000E949C098D87DF91CF910895CF93DF9351
:10140000C6E7D2E02FEF41E06DE088850E949C099D
:101410008887DF91CF91089581E00E944D088FEB7E
:1014200091E20197F1F700C000000895CF93DF9398
:10143000EC0110928B021092430210924202109221
:10144000410210928802109240020E940C0A80E829
:101450000E944D0840E0BE018CE892E00E942E02FE
:1014600043E060E10E94280580E092E090938A02C8
:10147000809389028091890290918A02892B61F080
:1014800080918B02811108C080914302811104C0B8
:1014900080918802882371F39091430210928B020D
:1014A000109243021092420210924102109288025E
:1014B0001092400281E080933F02911101C080E0D0
:1014C000DF91CF910895FF920F931F93CF93DF93F6
:1014D00065E089E292E00E94630380E80E944D0883
:1014E000409129024F5F66ED72E08CE892E00E9425
:1014F0002E0241E060E10E942805809129028111BD
:1015000068C00E94420309E012E0AC0170E060E0B4
:101510002AE08CE892E00E946B02C82F8091290299
:1015200068E0811101C065E08C2F0E94B7038C0F29
:1015300091E0980F90938702E82FF0E0E457FD4F79
:1015400080E2808380EC0E944D0842E068E0809158
:1015500087020E942805F801C381D481F58088ECB8
:101560000E944D084F2D6D2F8C2F0E941F088091D7
:101570004102882341F182E291E00E94160A882309
:1015800011F10E94880480912902823080F4109227
:10159000FF011092000210920102109202021092BA
:1015A0000302109204021092050210920602F80142
:1015B0001182108280919F0283838091A002848394
:1015C0008091A1028583DF91CF911F910F91FF90B0
:1015D00008958150990B23E0880F991F2A95E1F710
:1015E0008C01075F1D4F81509E4FFC0182859385C2
:1015F0008CCF8F929F92AF92BF92CF92DF92EF9259
:10160000FF920F931F93CF93DF93CDB7DEB763970E
:101610000FB6F894DEBF0FBECDBF0E948804809144
:101620004102882309F4ECC082EC90E00E94160A83
:10163000882309F4E5C01B8A86E0EBE3F1E0DE01D4
:101640001D9601900D928A95E1F70E940C0A80E0A8
:1016500092E090938A02809389027AE0E72EF12C3F
:10166000C12CE2E0DE2E8091890290918A02892BC2
:10167000D1F48CE00E944D080E9463041092410254
:1016800063960FB6F894DEBF0FBECDBFDF91CF914A
:101690001F910F91FF90EF90DF90CF90BF90AF9090
:1016A0009F908F90089510923F0266E0CE0143967E
:1016B0000E940C0280914302882309F457C0BB8822
:1016C00082E0B81609F483C08B1508F465C0BB200E
:1016D00009F471C091E0B91609F473C0F801808172
:1016E0000E94BC02891508F087C08F5F90E0B701A7
:1016F0000E94A01F6295607F860FF80180838EEFA5
:101700008B0D833078F58CE0E1E4F1E0DE01119699
:1017100001900D928A95E1F78091A1020E94BC028E
:10172000B82E8091A0020E94BC02882E80919F0258
:101730000E94BC029B2D980F8B2D86958695980F45
:10174000FE01E80DF11D8081980F8B2D837021F42F
:10175000F2E0F81508F09150973008F04FC09F5F05
:1017600090939E02D0928A02C09289028CE00E94DD
:101770004D080E946108EB898DE090E08C0F9D1F61
:101780008E0F911DFC0180810E944D088FE00E9408
:101790004D080E94730367CFE4E0BE1631F1BE1618
:1017A000E8F0F5E0BF129ACF87E0982EAA24A39420
:1017B0000EE912E093CF67E1962EA12C0DE912E01D
:1017C0008DCF5BE3952EA12C0CE912E087CF4FE182
:1017D000942EAA24A3940FE912E080CF3CE0932E2C
:1017E000AA24A39400EA12E079CF90E2992E26E190
:1017F000A22E01EA12E072CF8A2D78CF9750ACCF9B
:101800000E9461083DCF579A5F988FE797E0019754
:10181000F1F700C000005798E7E1F1E03197F1F7E8
:1018200000C0000089B1E7E6F6E03197F1F700C0AB
:1018300000008095881F8827881F0895579A5F9811
:1018400085E08A95F1F700005798EAE1EA95F1F70B
:1018500000C089B1EBEDF0E03197F1F700C0000076
:10186000881F8827881F0895579A5F9880FF0CC0AB
:101870008AE18A95F1F700C057988FEE90E00197C2
:10188000F1F700C00000089587E191E00197F1F7BA
:1018900000C0000057989AE09A95F1F700C00895AB
:1018A000CF93DF93D82FC8E08D2F81700E94340C26
:1018B000D695C150C9F7DF91CF910895AF92BF92ED
:1018C000CF92DF92EF92FF920F931F93CF93DF930C
:1018D000CDB7DEB729970FB6F894DEBF0FBECDBFE8
:1018E0007C0185E50E94500C870188E0E80EF11C20
:1018F000F80181918F010E94500C0E151F05C1F750
:101900008EEB0E94500CCE0101967C015E019AE0A4
:10191000A90EB11C670108E010E016950E941E0C8C
:10192000811110680150C9F7F60111936F01EA1592
:10193000FB0589F78A8199818927982789279093C0
:10194000A3028093A202398529E080E02150A9F406
:1019500091E0381390E0892F29960FB6F894DEBFF6
:101960000FBECDBFDF91CF911F910F91FF90EF90F0
:10197000DF90CF90BF90AF900895F70191917F01D4
:10198000892798E04CE8869508F484279A95D9F73A
:10199000DDCF0E94030C882339F08CEC0E94500CA0
:1019A00084E40E94500C81E00895CF93DF9364E0BB
:1019B00089EF91E00E940C0280EC0E944D0840915A
:1019C000F90181E3840F80938C028EE280938D0273
:1019D0004F5F66ED72E08EE892E00E942E0241E0D9
:1019E00060E18E5F0E94280580914302882309F4FC
:1019F00046C010928B021092430210924202109243
:101A00004102109288021092400280E80E944D0824
:101A10004091F9014F5F66ED72E08CE892E00E9420
:101A20002E0241E060E10E94280580EC0E944D08F2
:101A300040E150E060E270E08CE892E00E94032018
:101A400041E060E180E10E942805C091F901C111E7
:101A500019C0609107027091080290E080E02FECBD
:101A600037E040E050E00E949E08709308026093C7
:101A7000070280E092E090938A0280938902DF91CE
:101A8000CF910895C150DD0B83E0CC0FDD1F8A9507
:101A9000E1F7C150DE4F2CE340E068E08C850E9406
:101AA0009C098C87E6CF6F927F928F929F92AF9224
:101AB000BF92CF92DF92EF92FF920F931F93CF933B
:101AC000DF93CDB7DEB7A2970FB6F894DEBF0FBE97
:101AD000CDBF86E0EDE4F1E0DE01599601900D9274
:101AE0008A95E1F71F8E18A219A21AA240E150E0D0
:101AF00060E270E08CE892E00E94032040E064EE37
:101B000071E08CE892E00E942E02CE0101965C0109
:101B1000712C8C01662463941092EE018091ED018A
:101B20008111B8C00E94030C811163C01092EC01B6
:101B30001092ED010BC09D9191938150E1F798E0D7
:101B4000A90EB11C7394A3E07A12E6CF0E94C90CCF
:101B50001092F80184E68093F70180E092E0909380
:101B60008A028093890266246A94670C7E01BFE131
:101B7000EB0EF11CC12C22E0D22E809189029091B3
:101B80008A02892B09F092C07E01AFE1EA0EF11CB6
:101B90006E01B2E2CB0ED11CF70161917F01662389
:101BA00071F06150770B83E0660F771F8A95E1F73C
:101BB00060597F4F48E050E0C8010E94881F085FCD
:101BC0001F4FCE14DF0441F7A2960FB6F894DEBF84
:101BD0000FBECDBFDF91CF911F910F91FF90EF907E
:101BE000DF90CF90BF90AF909F908F907F906F903D
:101BF000089580EF0E94500C812CFF24F3943FEE57
:101C0000C32E31E0D32EEE24E3940E941E0C982EB6
:101C10000E941E0CB1E09B120BC08130F1F4809148
:101C2000EE018823B9F1AFEEB1E0F50189E085CF8F
:101C3000F6019081981209C08091EC01E81658F4E1
:101C4000892F8F2151F4912C8E2C8F2D80958923F3
:101C5000F601808308C08E11F6CFD6018C918F29B2
:101C60008C9399249394892D0E94340CE394FF0C57
:101C700029F4FFEFCF1ADF0AFF24F39481E4E8127E
:101C8000C4CF8092EC01811002C06092ED0160929D
:101C9000EE01C5CF1092EC011092ED01EFEEF1E0F4
:101CA00088E0DF011D928A95E9F750CF10923F023C
:101CB000772009F48FC08091F801811125C08091AF
:101CC000F701811121C081E08093F8015E01E9E113
:101CD000AE0EB11C48010E94030C882361F0C401C0
:101CE0000E945E0C882339F08091A2029091A30299
:101CF000D5018D939C93B2E0AB0EB11CE8E08E0E43
:101D0000911CAE14BF0439F7662DCE0182960E9455
:101D10000C0280914302EAA1882369F0D701AE0F3B
:101D2000B11D8C91833009F471C08F5F8C93D09278
:101D30008A02C09289028091F8018823F1F0F0E0D4
:101D4000EE0FFF1FE00FF11F808D918D90933A01F0
:101D50008093390161E083E00E946D0524E0482F03
:101D600060E28CE892E00E9453028CE80E944D08E9
:101D700041E064E084E00E9428058AA198E0899F00
:101D8000F0011124E00FF11FACE8B2E020E1215096
:101D900009F03EC0F701E80FF11D40814F5F64ED8F
:101DA00071E088E992E00E942E028093870224E08D
:101DB000482F60E288E992E00E94530210928B0261
:101DC0001092430210924202109241021092880235
:101DD0001092400280EC0E944D0841E060E180E1F9
:101DE0000E9428058091F80190913F029111C5CE83
:101DF0002091890230918A02232B09F4BECE909162
:101E0000F7019111F1CF8111EFCFB7CE1C928FCF97
:101E1000908120FF09C092959F709F709A3030F09A
:101E2000995C9C931196B3CF3196F7CF905DF9CF23
:101E30008091810286FF04C081E08093330208957F
:101E400080E80E944D0862E080E80E946D0580EC09
:101E50000E944D0862E081E80E946D0588E80E94BA
:101E60004D0842E068E080E00E94280588EC0E946E
:101E70004D0862E082E00E946D0580912E02811182
:101E800007C080913E02833018F082E080933E02CA
:101E900080914102882309F11092410280E80E945A
:101EA0004D0846E06AE173E08CE892E00E942E0261
:101EB00041E060E10E9428050E94530D10928B02C0
:101EC0001092430210924202109241021092880234
:101ED0001092400281E080933F0208959F92AF925A
:101EE000BF92CF92DF92EF92FF920F931F93CF9307
:101EF000DF931F92CDB7DEB700918002109181026F
:101F0000198280E092E090938A02809389028FE0A8
:101F1000E82EF12CCC24C394D12CA12C22E0B22E9B
:101F20008091890290918A02892BB9F48CE00E94F9
:101F30004D0881E080933F0210938102009380025C
:101F40000F90DF91CF911F910F91FF90EF90DF9055
:101F5000CF90BF90AF909F90089510923F026FE096
:101F6000CE0101960E940C0280914302882391F0D9
:101F700089819701281B3109C901960102C0220FEE
:101F8000331F8A95E2F7C90102271927B0928A0206
:101F9000A09289028CE00E944D08A80170E060E0E8
:101FA00022E08CE892E00E946B0220E1482F60E37F
:101FB0008CE892E00E945302E981F0E0E457FD4F83
:101FC000908080EC0E944D0841E060E180E10E9439
:101FD000280540E150E060E270E08CE892E00E9469
:101FE000032049814F5F65E771E08CE892E00E9431
:101FF0002E0280938702882341F041ED490D6AE665
:1020000071E088E992E00E942E0280E80E944D086B
:1020100041E060E180E10E942805898180540E94AE
:102020004D088FE00E944D080E94730379CF5F92A4
:102030006F927F928F929F92AF92BF92CF92DF92D8
:10204000EF92FF920F931F93CF93DF93CDB7DEB73D
:1020500064970FB6F894DEBF0FBECDBF8091FE012E
:10206000811119C081E08093330264960FB6F89411
:10207000DEBF0FBECDBFDF91CF911F910F91FF90BB
:10208000EF90DF90CF90BF90AF909F908F907F9018
:102090006F905F90089580E80E944D0840E06BE5E6
:1020A00071E08CE892E00E942E0241E060E10E9423
:1020B000280540E150E060E270E08CE892E00E9488
:1020C000032080EC0E944D0841E060E180E10E9425
:1020D000280580914302882341F2109243021C8A12
:1020E00080E092E090938A02809389024EE2C42EAF
:1020F000A12C52E0B52E60E2962E8091890290913B
:102100008A02892B31F481E080933F0210923702DA
:10211000ACCF10923F0263E0CE0144960E940C02C5
:1021200080E80E944D0840E06BE571E08CE892E0A9
:102130000E942E0241E060E10E94280580EC0E948E
:102140004D084C8981E3840F80938C02C0928D02EC
:102150004F5F62E371E08EE892E00E942E0241E060
:1021600060E18E5F0E94280580914302882309F474
:1021700091C0109243028C89E82FF0E0EE0FFF1F10
:10218000E65EFE4F0081E1801B8A812C833011F0D6
:1021900022E0822EB0928A02A092890210E0DD2411
:1021A000DA9477247A947E0C8AE3682E9DE2592E85
:1021B0008091890290918A02892B39F4B0928A0227
:1021C000A09289020E94730398CF10923F020F3FA2
:1021D00009F4ECC0672DCE0143960E940C028B8956
:1021E0008D1509F465C01E2D181B100F081708F077
:1021F0001E198C899B898330B9F4602F9111612F4E
:1022000083E00E9410034AE050E0BC01CE01019639
:102210000E94781FDB888981853A09F448C0DD2057
:1022200009F4C3C01B8AE5CF602F9111612F0E9472
:10223000100342E150E0E9CF80EC0E944D0861E0DC
:10224000CE0107961130C1F01230F1F00E94400724
:1022500062E0CE0107960E94DE0610E08091410206
:10226000882339F010928A021092890281E08093CB
:102270003F020E9473039CCF0E946B0762E0CE0175
:1022800007960E941406EACF0E942B0742E068E0FE
:1022900080E088C080914102882309F493CF109296
:1022A0008A021092890281E080933F028BCF10E076
:1022B00080E80E944D086C818CE892E00E94B20296
:1022C000C0928E026D818FE892E00E94B202C092AD
:1022D00091026E8182E992E00E94B2029092940291
:1022E00090929502909296026B8187E992E00E940B
:1022F000B202609299026A818AE992E00E94B20277
:1023000041E060E180E10E9428058091430288233A
:1023100041F0B0928A02A09289021F5F811608F4F0
:1023200010E08C89833009F087CF4F8150E070E056
:1023300060E02AE08CE892E00E946B02FF24F394B4
:10234000F80EE82FF0E0E457FD4F5082488550E04A
:1023500070E060E08F2D90E02AE084579D4F0E944E
:102360006B028F0D8093870280EC0E944D0841E044
:1023700068E0809187020E94280569857A8542E09D
:102380008CE892E00E948A03F82E69E00E94B7036D
:102390008F0D8093870288EC0E944D0842E068E030
:1023A000809187020E94280559CF10E080E80E94A2
:1023B0004D084C894F5F62E371E08CE892E00E9427
:1023C0002E0241E060E10E94280580EC0E944D0849
:1023D00040E069E271E08CE892E00E942E0241E068
:1023E00060E10E94280580914302882339F0109211
:1023F0008A021092890281E080933F020FEF39CF69
:10240000CF92DF92FF920F931F93CF93DF93CDB7BD
:10241000DEB762970FB6F894DEBF0FBECDBF8B015B
:10242000882309F441C08091FE018823B9F182E03C
:102430000E35180709F050C085E0E2E2F1E0DE0158
:10244000129601900D928A95E1F732E2C32E31E0A7
:10245000D32EF12CF80122813381AAE0B0E00E9452
:10246000DC1F20917C0230917D0250E040E00E9410
:10247000B41FF80160817181EAE0E69FC001E79F27
:10248000900D1124280F391F232B09F04DC0F11096
:1024900005C0C6010E94DA040E940C058CE0F80118
:1024A00011928A95E9F70AC080914102882331F0A0
:1024B00082E291E00E94160A8111B5CF62960FB6B2
:1024C000F894DEBF0FBECDBFDF91CF911F910F916A
:1024D000FF90DF90CF900895E2E006341E0781F46C
:1024E00085E0E7E2F1E0DE01129601900D928A9517
:1024F000E1F727E2C22E21E0D22EFF24F394AACFE7
:10250000F2E002351F0751F685E0ECE2F1E0DE0172
:10251000129601900D928A95E1F78CE2C82E81E027
:10252000D82E92E0F92E96CF85EA89838CE0F801C7
:10253000DE01179601900D928A95E1F76FEF8F2DCE
:102540000E94100342E150E0BC01CE0101960E94BE
:10255000881F9FCF0F931F93CF93DF93EC01062F1C
:1025600040E06CE171E08CE892E00E942E02182FAE
:1025700090E0402F6FE071E084579D4F0E942E0243
:10258000810F8093870280E80E944D0841E068E057
:10259000809187020E94280562E0CE010E944007D8
:1025A00080EC0E944D0862E084E392E00E946303A5
:1025B000882351F0813089F0BE0180E0DF91CF9116
:1025C0001F910F910C94001261E0CE010E94DE0673
:1025D00062E0CE010E946B07EFCF61E0CE010E9466
:1025E000140662E0CE010E942B07E6CF64E082E58C
:1025F00092E00C94AA1263E086E492E00C94AA1292
:102600008091810261E081FD62E08EE592E00C94B0
:10261000AA122F923F924F925F926F927F928F9267
:102620009F92AF92BF92CF92DF92EF92FF920F9361
:102630001F93CF93DF93CDB7DEB72B970FB6F894E8
:10264000DEBF0FBECDBF80E80E944D0880913602EC
:10265000811123C10E94880460919C0280919D0297
:102660000E945805809139028111EBC04091760299
:102670005091770260917802709179022AE08CE89B
:1026800092E00E946B028093870242E068E00E9421
:10269000540680EC0E944D088091810261E08170B7
:1026A0000E946D0582E00E94C2068091380281116D
:1026B000AFC080913902882309F4AAC080914102F9
:1026C000882309F4A5C010928B0210924302109245
:1026D00042021092410210928802109240020E941F
:1026E0000C0A1B8680E092E090938A028093890214
:1026F0001FEF8091890290918A02892B09F004C111
:102700001F3F09F485C080E80E944D0840E06BED52
:1027100070E08CE892E00E942E0243E060E10E94AB
:1027200028051092EB011092EA011092E901109233
:10273000E8011092E7011092E601C0907C02D0906F
:102740007D02F12CE12C28E0129FC0011124FC0134
:10275000ED5AFE4F5F016081718182819381A701F3
:1027600096010E94B41F3093E5012093E401F50126
:102770006481758186819781A70196010E94B41FAB
:102780003093E3012093E20140E150E06DE370E01B
:102790008CE892E00E94032080E096E090938A0209
:1027A000809389021092F701612C84E0782E01E079
:1027B0009CE3D92E24E6C22E212C39EE332E34EAA6
:1027C000432E35E3532EA12C4CE0B42E5BE5852E31
:1027D000912C8091E60181110DC080918B028111B5
:1027E00009C080914302811105C08091880288232D
:1027F00009F4BAC01092E10110928B0210924302C8
:1028000010924202109241021092880210924002ED
:102810002B960FB6F894DEBF0FBECDBFDF91CF91E0
:102820001F910F91FF90EF90DF90CF90BF90AF90EE
:102830009F908F907F906F905F904F903F902F90E0
:1028400008950E94840680EC0E944D080E94C207F1
:10285000A091DC01B091DD012091FC0130E00E94EB
:10286000DC1F20917E0230E050E040E00E94B41F67
:10287000CA01B9012AE030E040E050E00E94B41FF4
:10288000B90141E08CE892E00E948A0380938702BC
:1028900042E064E00E94540608CF70E060E080915E
:1028A0002F02909130020E9461060E94840680EC03
:1028B0000E944D080E94C2072091DC013091DD0189
:1028C0004091310250913202A091FA01B091FB0186
:1028D0000E94DC1F9A0150E040E00E94B41FCA0130
:1028E000B90100917E02202F30E050E040E00E94CC
:1028F000B41FB90141E08CE892E00E948A03809302
:10290000870242E063E0C6CF10923F0263E0CE014F
:102910000B960E940C0280914302882329F01092AA
:102920008A02109289021B8540E068E071E08CE821
:1029300092E00E942E02082F4B854F5F90E06AEED6
:1029400070E084579D4F0E942E02800F8093870273
:1029500080E80E944D0843E060E1809187020E9478
:1029600028050E947303C5CE8091890290918A0246
:10297000892BD9F080913802811117C08091F7011D
:10298000811127CF89E18093F70180EC0E944D08E7
:102990008091890290918A02B4010E94A01F862F23
:1029A00041E060E10E94280514CF80918902909156
:1029B0008A02892B09F457C08091EA0181110CC069
:1029C0008091E101811108C0B0928A02A09289022F
:1029D0000093E1010E940C0A6091E8017091E90105
:1029E00042E08CE892E00E948A03F82E69E00E949F
:1029F000B7034F2D480F20E160E28CE892E00E947F
:102A000053028091E00140E050E0BA018823C9F010
:102A1000E090DE01F090DF0120917C0230917D0298
:102A200050E040E0C201B1010E94B41FCA01B901E7
:102A3000970150E040E00E94B41FBA01A901662747
:102A400077272AE08CE892E00E946B02809387024D
:102A500061E00E94B70380EC0E944D0843E060E112
:102A600080E10E9428058091890290918A02892B39
:102A700061F08091EA01811108C084E08093F70140
:102A80008091F7018111FCCFA4CE8091EA018823C7
:102A900039F08091E701811103C00093E70199CEDD
:102AA0001092E1018091890290918A02892B51F55F
:102AB00080EC0E944D0840E063ED70E08CE892E00D
:102AC0000E942E0243E060E10E94280532E030932C
:102AD000320170928A0260928902809189029091FB
:102AE0008A02892B61F080918B02811108C080914C
:102AF0004302811104C080918802882371F30093FE
:102B0000E60167CE8091FE01882301F3F5EAF9839F
:102B10008091E8019091E9019A8789871130D1F07D
:102B2000B0F01230D1F01330D1F0CE0102960E94F5
:102B3000DA046FEF83E00E9410034AE050E0BC012A
:102B4000CE0101960E94881F0E940C05BFCF1F82F4
:102B5000C886EBCF1F82D886E8CFDF82F9CF20E589
:102B60002F8388E78887E1CF1F920F920FB60F92CD
:102B700011242F933F934F935F936F937F938F9382
:102B80009F93AF93BF93EF93FF93E091D90128E018
:102B9000E29FF0011124DF01A65FBE4F14969C91C5
:102BA0001497911135C08091780090917900ED9142
:102BB000FC9109958091D9018F5F823008F06EC039
:102BC0008093D901E091D90138E0E39FF00111240D
:102BD000E65FFE4F8581806480937C008091D901FF
:102BE000882329F080917A00806480937A00FF9195
:102BF000EF91BF91AF919F918F917F916F915F9175
:102C00004F913F912F910F900FBE0F901F901895ED
:102C100012962D913C911397492F4150550BBA01B3
:102C200041E050E002C0440F551F6A95E2F72F3F84
:102C30003207F9F42091780030917900092E02C012
:102C4000220F331F0A94E2F713963C932E931297A8
:102C5000E65FFE4F22813381420F531F0190F081C6
:102C6000E02D9A0102C0369527959A95E2F7C901A1
:102C7000A0CF6091780070917900620F731F240FCC
:102C8000351F092E02C0369527950A94E2F7621B7C
:102C9000730B13967C936E931297DACF1092D9012F
:102CA00091CF1F920F920FB60F9211242F933F9343
:102CB0008F939F93AF93BF93EF93FF938091D8012E
:102CC000882399F08091D7018F5F8093D7018C334F
:102CD00009F0D5C01092D80115BC1092860210924E
:102CE000450210924402109239028091EB01882330
:102CF00061F08091D2018F5F8093D2018A3009F018
:102D0000D3C01092EB011092E0018091CF018111AC
:102D1000FDC09091DA018091CE01913009F0CFC0D1
:102D2000853618F48F5F8093CE018091CE01843672
:102D300039F481E0809342028093CD018093320187
:102D40009091DA018091CC01923009F0C5C08536AE
:102D500018F48F5F8093CC018091CC01843639F4D4
:102D600081E0809341028093CD0180933201909164
:102D7000DA018091CB01933009F0BBC0853618F49D
:102D80008F5F8093CB018091CB01843639F481E051
:102D9000809340028093CD01809332018091CD01D8
:102DA000813039F41092CD0180933F028FE08093FF
:102DB000CF01809132018F3FF1F08091810285FD3A
:102DC00004C080913201823099F421E02093CA013D
:102DD0001092C9018091320133E08302C0011124B5
:102DE0008F5F9E4F9093C8018093C7012093C601C7
:102DF0008FEF8093320180910001815009F48CC0E3
:102E0000809300018091890290918A02892B49F078
:102E10008091890290918A02019790938A0280930F
:102E200089028091F701882329F08091F701815070
:102E30008093F7018091C001882349F08091E801D7
:102E40009091E90101969093E9018093E8018091C6
:102E5000CA01882339F08091C601815009F4EDC080
:102E60008093C601FF91EF91BF91AF919F918F9198
:102E70003F912F910F900FBE0F901F90189580914A
:102E8000D3019091D401A091D501B091D6018C537A
:102E9000964FAF4FBF4F8093D3019093D401A0932F
:102EA000D501B093D60121CF8091D0019091D1016D
:102EB0008C53964F9093D1018093D00126CF8550AB
:102EC0008E3238F481E080938B028093CD01109292
:102ED00032011092CE0134CF85508E3238F481E029
:102EE000809343028093CD01109232011092CC0165
:102EF0003ECF85508E3238F481E0809388028093F3
:102F0000CD01109232011092CB0148CF8091CF01B8
:102F100081508093CF0142CF84E68093000181E00D
:102F200080933F022091C4013091C5013093DD01AF
:102F30002093DC011092C5011092C4012091C201BE
:102F40003091C30130933202209331021092C301B9
:102F50001092C2019091C101992309F46BC01092A3
:102F6000C10180913902811105C080913802882306
:102F700009F44CC08091FF0190910002A0910102E0
:102F8000B09102020196A11DB11D8093FF019093A3
:102F90000002A0930102B093020280914E02909130
:102FA0004F02A0915002B09151020196A11DB11D96
:102FB00080934E0290934F02A0935002B09351021F
:102FC00080915A0290915B02A0915C02B0915D02E7
:102FD0000196A11DB11D80935A0290935B02A093AC
:102FE0005C02B0935D028091660290916702A091AD
:102FF0006802B09169020196A11DB11D809366021D
:1030000090936702A0936802B093690280913E0298
:10301000882329F080913E02815080933E02809166
:10302000DB01882309F4EECE8091DB01815080938F
:10303000DB01E8CE8093C101E5CE8AE08093C60132
:103040008091C90181110DC081E08093C9018093F5
:10305000BF01E091C701F091C80180818F5F80932B
:10306000BE018091BF01882399F01092BF01809129
:10307000BE0181508093BE01882379F181E0809365
:10308000BD01E091C701F091C80181818093BC012D
:103090008091BD01882379F08091BC0181110AC023
:1030A0001092BD01E091C701F091C8018281815069
:1030B0008093BC015E9A8091BD01811108C080910E
:1030C000BC01811103C081E08093BF015E988091B3
:1030D000BC0181508093BC01C5CE1092CA011092F0
:1030E000C901D6CF1F920F920FB60F9211248F9362
:1030F0009F938091C4019091C50101969093C50161
:103100008093C40180914A02815080934A028111C8
:1031100018C08091FD0180934A0280914B028F5F1D
:1031200080934B0290917E02891758F010924B02C7
:1031300080914C0290914D02019690934D028093A4
:103140004C0280915602815080935602811118C022
:103150008091FD0180935602809157028F5F80938A
:10316000570290917E02891758F010925702809171
:1031700058029091590201969093590280935802F7
:1031800080916202815080936202811118C0809107
:10319000FD0180936202809163028F5F80936302DE
:1031A00090917E02891758F0109263028091640218
:1031B00090916502019690936502809364029F91BD
:1031C0008F910F900FBE0F901F9018951F920F9226
:1031D0000FB60F9211242F933F934F935F936F93EA
:1031E0007F938F939F93AF93BF938091840090912F
:1031F00085009093BB018093BA01B59B06C084EC17
:1032000099E09093BB018093BA01199994C0809181
:10321000B901811147C082E085BD81E08093B90189
:103220008093390280932A028091030290910402D4
:10323000A0910502B0910602AC01BD014F5F5F4F46
:103240006F4F7F4F40930302509304026093050237
:10325000709306022091810227FD0BC00296A11DEA
:10326000B11D8093030290930402A0930502B093D2
:1032700006028091D80181113AC081E08093D80183
:103280001092D3011092D4011092D5011092D60160
:103290008091BA019091BB019093B8018093B701DE
:1032A0001092D701189B62C18091B601811122C191
:1032B00021E02093B601209338028091E101882318
:1032C00009F427C18091EB0181115BC02093EB01D0
:1032D0008091BA019091BB019093B5018093B401A4
:1032E0001092D1011092D0011092D2018BC0409166
:1032F000BA015091BB018091D3019091D401A0916A
:10330000D501B091D6012091B7013091B801840F59
:10331000951FA11DB11D821B930BA109B1098093BB
:10332000720290937302A0937402B093750281E0CD
:1033300080938602A5CF8091B901882309F4B2CF8A
:1033400015BC1092B9018091D801882309F4AACF45
:103350008091D3019091D401A091D501B091D60173
:103360002091BA013091BB014091B7015091B80151
:10337000841B950B820F931F909345028093440208
:1033800091CF8091D0019091D1016091BA0170915B
:10339000BB014091B4015091B501860F971F841B6A
:1033A000950B9093DF018093DE012093E0018091E3
:1033B000C001811114C02091DE013091DF018091A4
:1033C000E4019091E5018217930730F48091E401C4
:1033D0009091E501892B19F481E08093C00120913F
:1033E000DE013091DF018091E2019091E3018217CB
:1033F000930708F46DCF81E08093EA011092C00139
:103400001092E1018091C2019091C30101969093C5
:10341000C3018093C20180917A0290917B02019650
:1034200090937B0280937A0220917C0230917D02FE
:1034300082179307D8F110927B0210927A02809142
:10344000760290917702A0917802B091790201966C
:10345000A11DB11D8093760290937702A09378020C
:10346000B09379028091090290910A02019690939B
:103470000A02809309028091110290911202019632
:1034800090931202809311028091190290911A0276
:10349000019690931A0280931902809121029091D3
:1034A0002202019690932202809321028091480289
:1034B0009091490201968217930770F59093490203
:1034C0008093480280915402909155020196821790
:1034D000930780F590935502809354028091600287
:1034E0009091610201968217930790F59093610283
:1034F00080936002BF91AF919F918F917F916F9167
:103500005F914F913F912F910F900FBE0F901F90A1
:1035100018951092EB0176CF109249021092480252
:1035200080914602909147020196909347028093C2
:103530004602C8CF10925502109254028091520256
:103540009091530201969093530280935202C6CFFA
:10355000109261021092600280915E0290915F026F
:10356000019690935F0280935E02C4CF1092B601E1
:10357000C1CFCF93DF93CDB7DEB728970FB6F894BE
:10358000DEBF0FBECDBF8CE184B983E085B917B82B
:1035900018B89FE69AB990E29BB922E024BD15BC09
:1035A00016BC25E627BD18BC1092800028E12093A8
:1035B0008100109285001092840029E020938700FA
:1035C00023EC2093860010928900109288001092BC
:1035D0008B0010928A0024E020936E0090936F007D
:1035E000109269001DBA80936B0010926C001092CB
:1035F0006D0081E0809368008BBB1092C10080E871
:1036000080BF10927F0010927E0083E480937C0044
:103610008FEA80937A0087E080937B001CBC109235
:10362000B9008CE08093B80089E1309B1AC0811109
:1036300025C010E000E0B8016A5F7D4F48E050E02F
:10364000CE0101960E946F1F48E050E0B801CE0104
:1036500001960E94881F085F1F4F003D110559F712
:103660001FC0882311F381502FEF33EF41E0215029
:1036700030404040E1F700C00000D7CF48E050E0C4
:1036800068EC70E0CE0101960E94781F48E050E09F
:103690006EEC72E0CE0101960E94621F892B49F602
:1036A00040E150E070E060E086E792E00E94781F21
:1036B0004BE250E060E170E086E492E00E94781F07
:1036C0004AE250E060E470E08FEF91E00E94781FE2
:1036D0000E945B048EE40E9432048DE00E9432045A
:1036E0000E9453045FEF70E782E0515070408040C9
:1036F000E1F700C0000018E080E0143008F480E337
:1037000060E00E94EE04133008F401C1EFE0F0E441
:103710003197F1F700C00000115071F782E00E946C
:103720004D0888E20E944D0888E00E944D0887E11C
:103730000E944D080E940C0A8CE00E944D0886E011
:103740000E944D08F12CE12C8E2D8770F60181F43A
:103750008E2D887B80640E944D0848E050E0B701C0
:1037600068577F4FCE0101960E94781FFE01319667
:103770006F019FEFC91AD90A80810E941405EFEFEB
:10378000EE1AFE0AF0E4EF16F104F1F60E94C70209
:103790000E94880448E050E060E071E08CE892E02C
:1037A0000E94781F48E050E060E871E08CE892E009
:1037B0000E94F61F892B09F4AFC088E0E0E8F1E031
:1037C000ACE8B2E001900D928A95E1F748E050E054
:1037D00060E071E08CE892E00E94881F82E291E054
:1037E0000E94DA0487E291E00E94DA048CE291E020
:1037F0000E94DA040E940C0548E050E060E071E0AD
:103800008CE892E00E94781F48E050E060E871E0A8
:103810008CE892E00E94F61F892B09F47DC010927B
:10382000FE018091FE01882341F048E150E068E00C
:1038300071E08AE191E00E94781FF0906E02809121
:10384000A1020E94BC02082F8F2D0E94BC02081BFF
:10385000013011F008F051C060919F028091A002E8
:103860000E94F6027C0160916C0280916D020E94C0
:10387000F6022DE631E0013011F030E020E0A70142
:10388000481B590BCA01820F931F82309105A8F57E
:103890002091810221FD44C058E1E52EF12C0197D1
:1038A00011F0F12CE12CD0906B0280919D020E94CE
:1038B000BC02082F8D2D0E94BC02081BE00EF11CDB
:1038C00007FDFA94F7FC19C08CE38E9D60018F9D73
:1038D000D00C1124F0906A0280919C020E94BC02DC
:1038E000082F8F2D0E94BC02081BC00ED11C07FDA3
:1038F000DA9459E7C516D104ACF06EE572E081E0C8
:103900000E9400121092700210926F020BC08FE89A
:1039100091E00197F1F7FECE81E08093FE0181CF27
:103920008111EBCF80918100887F8360809381003B
:10393000789410923E028091810284FF74C060905E
:103940000702709008022FEFC22E21E0D22EF12C38
:10395000E12C00E038EEA32E33E0B32E88248394CC
:10396000912CE110B9C06114710431F00E9442033E
:103970008615970508F001603FEFE31AF30A48E067
:10398000C40ED11C55E0E516F10459F7F12C82E084
:10399000E82EC12C92E0D92EF39400FF40C0E092B3
:1039A000320180E80E944D0840E062E173E08CE85B
:1039B00092E00E942E0243E060E10E94280580EC24
:1039C0000E944D084F2D66ED72E08CE892E00E9457
:1039D0002E0243E060E10E942805D0928A02C09244
:1039E00089028091890290918A02892B61F08091ED
:1039F0008B02811108C080914302811104C0809123
:103A00008802882371F310928B0210924302109265
:103A100042021092410210928802109240020695D2
:103A200075E0F712B9CF10928B02109243021092F8
:103A3000420210924102109288021092400280913C
:103A40003C0290913D02892B21F480913F02882312
:103A5000B1F301E071E8872E982CE7E03E2EF3E009
:103A60005F2E612CA2E07A2EBEE24B2E10923F0216
:103A700080913B028A3009F048C00E940C0AF894F9
:103A800080912A02882321F08AE692E00E94DA04DB
:103A900080917102909129029295907F8F70892B6D
:103AA0008093820240E150E070E060E086E792E0BF
:103AB0000E94881F4BE250E060E170E086E492E0F3
:103AC0000E94881F4AE250E060E470E08FEF91E0CE
:103AD0000E94881F5D98FFCFF6019481992309F415
:103AE0004BCF9A9D90019B9D300D112442815381B3
:103AF0004217530708F440CF94010E2C02C0220F46
:103B0000331F0A94E2F7022B37CF809141028823BA
:103B100001F180913A02811155C0809139028111E1
:103B200018C080913802811114C080913702811130
:103B300010C01093370200933A0210928B02109239
:103B40004302109242021092410210928802109297
:103B5000400280913A0298E0292E8111E7C08091BD
:103B6000360262E0262E811102C057E0252E809198
:103B70003E0281118EC080912E02882309F446C135
:103B800010922E028EE080933E0223E3A22E21E0CB
:103B9000B22E3BE2E32E32E0F32E40E7C42ED12CCE
:103BA00048E050E0B6018CE892E00E94781F0E9445
:103BB000030C811124C0F7018081853080F58F5F6F
:103BC000808330C0109137021092370210923A026F
:103BD00010928B0210924302109242021092410204
:103BE000109288021092400240E150E070E060E0E4
:103BF00086E792E00E94881F0E94C702AACF8CE845
:103C000092E00E945E0C8823B1F28091A202909112
:103C1000A302F50191838083F701108203C0F501AF
:103C200091828082F8E0CF0ED11C22E0A20EB11C5E
:103C30003FEFE31AF30A48E8C416D10409F0B0CF05
:103C40008091800287FF25C00E945B0480ED0E9466
:103C5000320481E10E9432040E945B0481ED0E94E3
:103C6000320480E00E944504F82E81E00E94450461
:103C70005FEFF51609F4C5C070E1F79E90011124BD
:103C800082958F70282B30933601209335010E9446
:103C900053042091310230913202A0EABCE80E9424
:103CA000DC1F20917C0230917D0250E040E00E94B8
:103CB000B41FC9013093300220932F026091830218
:103CC0007AE0679FF001112461E02E173F0708F4A6
:103CD00060E06093360260916F0270917002681725
:103CE000790720F43093700220936F0220913802FC
:103CF000222321F0892B11F4109238028091460280
:103D000090914702813D974028F066E472E081E09F
:103D10000E94001280915202909153028137974184
:103D200028F062E572E081E00E940012F090370214
:103D3000F0923502622D87E392E00E940C02D0904F
:103D40003702FD1471F01092340210928B0210921F
:103D50004302109242021092410210928802109285
:103D6000400280913A02882309F483C02D2D2F70E0
:103D7000C22E259DF0011124E757FE4FB080E1804F
:103D8000F280D7FC23C080E80E944D0840E06EE836
:103D900073E08CE892E00E942E0241E060E10E9414
:103DA000280580EC0E944D0881E38C0D80938C02E5
:103DB00040928D024B2D6AE173E08EE892E00E9402
:103DC0002E0241E060E18E5F0E942805809143024F
:103DD000811102C0D7FE10C0109243020E940C0A4B
:103DE00070928A02609289028091890290918A027F
:103DF000892B11F500933F0280913F028823E1F364
:103E000035CE909236018092350141CF00932E023B
:103E100000933E020E94C90C8091800287FF39CF37
:103E20000E945B0480ED0E9432048EE00E94320406
:103E30008CE30E9432042BCF10923F0280E80E9454
:103E40004D084B2D6AE173E08CE892E00E942E024F
:103E500041E060E10E942805F70109950E94730383
:103E6000C3CF81508093370204C0873049F5109248
:103E7000370280913602882331F0809137028330F7
:103E800010F01092370210923302E0913702F0E006
:103E9000EE0FFF1FEC55FE4F0190F081E02D0995CC
:103EA00080913302882309F4A7CF80913702909143
:103EB00035028917D0F68111D4CF30923702D9CF8D
:103EC0008F5FD0CFFB01DC0104C08D91059080197C
:103ED00021F441505040C8F7881B990B0895FB010D
:103EE000DC0102C005900D9241505040D8F7089572
:103EF000DC01CB01FC01F999FECF06C0F2BDE1BDAA
:103F0000F89A319600B40D9241505040B8F7089598
:103F1000DC01CB0103C02D910E94931F4150504002
:103F2000D0F70895262FF999FECF1FBA92BD81BD13
:103F300020BD0FB6F894FA9AF99A0FBE019608952B
:103F4000AA1BBB1B51E107C0AA1FBB1FA617B707BF
:103F500010F0A61BB70B881F991F5A95A9F78095DB
:103F60009095BC01CD010895A1E21A2EAA1BBB1B9E
:103F7000FD010DC0AA1FBB1FEE1FFF1FA217B30735
:103F8000E407F50720F0A21BB30BE40BF50B661F4B
:103F9000771F881F991F1A9469F76095709580950F
:103FA00090959B01AC01BD01CF010895EE0FFF1F5D
:103FB0000590F491E02D0994A29FB001B39FC00138
:103FC000A39F700D811D1124911DB29F700D811D45
:103FD0001124911D08950E94DC1FA59F900DB49F90
:103FE000900DA49F800D911D11240895FB01DC010B
:103FF00004C08D910190801921F441505040C8F7C0
:10400000881B990B0895DC0101C06D93415050400D
:08401000E0F70895F894FFCFDA
:10401800640101010104010303021604FFFF020306
:104028000000E503FFFF00000000FF14FF0CFF067F
:10403800FF05000000000000000000000000000074
:104048000000FF81818181818181818184898C8FB8
:10405800C0060202050003050104060204818181ED
:10406800818181000000004054890000000000C0E8
:10407800E1E400C0E1E4004054890050A9AB00E04D
:10408800707200001F3B5A7897B5D4F311304E6D0B
:104098004A4F5552545249500001FE0902890903FA
:1040A8007409049208056E0F08F00906530D07D528
:1040B8000C09840809130013180FFB12F612F90AE9
:0440C800630A171060
:00000001FF
