:100000000C949B010C94B8010C94B8010C94D01B77
:100010000C94791B0C94B8010C94B8010C94B801A1
:100020000C94B8010C94B8010C947B170C94B80193
:100030000C94B8010C94B8010C94051B0C94B801F5
:100040000C94B8010C94B8010C94B8010C94B8014C
:100050000C94B8010C944D170C94B8010C94B80191
:100060000C94B8010C94B80174696D6520636F72CB
:1000700072656374696F6E3F0074696D656F757446
:10008000007761697420666F722073746172740006
:100090000020302D3130300020302D363000203619
:1000A000302D313030002038302D3132300074693D
:1000B0006D696E67002D2D2D2D00636F6E742E20DF
:1000C0006461746100766F6C7461676500006375CC
:1000D000720064617900410042007472697020000E
:1000E000FF0001FF0203FF0405FF0607FF68FF6C26
:1000F000FF56FF6B6DFF73FFDFFF3EFF3CFF6D732D
:10010000FFFF6E6F206974656D7300006375727216
:10011000656E742074726970007472697020410099
:1001200074726970204200616363656C206C6F6754
:10013000676572006A6F75726E616C2076696577AB
:1001400065720000206F66660020206F6E000070F0
:100150006169722F70617220696E6A00696E7374D2
:100160002E20617667006B657920736F756E640071
:100170007365727620616C61726D000074726970D3
:100180002042206D6F6E7468007472697020432085
:1001900064617900696E2F6F75742074656D7000ED
:1001A0006473333233312074656D700000000000D9
:1001B0000000656E636F6465720072657365743FFD
:1001C000006E6F2073656E736F727320666F756E4D
:1001D0006400002D2D2D006F757400696E00206580
:1001E0006E670000742E73656E736F720032303A62
:1001F00030302031332E30382E323032330000652B
:100200006E67696E6520686F75727300656E6769E9
:100210006E65206F696C0067656172626F78206F30
:10022000696C006169722066696C74657200737034
:1002300061726B20706C756773007761726E696EA6
:100240006700636F6E666967206D656E7500006696
:1002500075656C20636F6E7374616E740076737372
:1002600020636F6E7374616E7400746F74616C20C0
:100270007472697000766F6C746167652061646A7E
:100280007573740073657474696E67732062697442
:10029000730074656D702073656E736F7273007395
:1002A00065727669636520636E747273006D696E42
:1002B0002073706565640073772076657273696F6B
:1002C0006E00006D6F6E64617900747565736461B2
:1002D00079007765646E657364617900746875721E
:1002E0007364617900667269646179007361747521
:1002F000726461790073756E64617900006A616E81
:1003000000666562006D617200617072006D6179F6
:10031000006A756E006A756C0061756700736570C0
:10032000006F6374006E6F7600646563002D2D2D81
:100330002D2D272D2D0011241FBECFEFD8E0DEBFBD
:10034000CDBF11E0A0E0B1E0E8E9F6E402C005901D
:100350000D92A63EB107D9F723E0A6EEB1E001C0A9
:100360001D92A532B207E1F70E94F31C0C944A23B8
:100370000C940000FC01908180911D03882331F0D2
:100380009417D9F09F5F8AE080931C038091180333
:1003900080FF15C080910D03811110921C03809184
:1003A0000C03882341F0961711F04FEF490F8AE0B4
:1003B00080931C03942F90830895962FE4CF80910F
:1003C0000D038111F0CFEBCFA6E0B0E0EAEEF1E053
:1003D0000C94FF229E838D83DC01AD90BC9011971D
:1003E00012962D913C91C901B0E0A0E089839A83D7
:1003F000AB83BC83C0901403D0901503F12CE12C87
:10040000AAE0B0E00E94E522A70196010E94C32263
:100410008AE08A9D10018B9D300C1124220E331E20
:100420003092010320920003AD81BE8116968D901B
:100430009C90C40105966AE070E00E94AF228B0197
:100440007093070360930603ED81FE81408451841D
:1004500062847384C301B2012CE330E040E050E0D9
:100460000E94C322309309032093080341145104CE
:1004700061047104C1F129813A814B815C8160E49E
:100480007EE785E090E00E949F22A70196010E94EE
:10049000C32269017A01D50120E43EE745E050E03E
:1004A0000E94F4226C0D7D1D8E1D9F1DA3019201E3
:1004B0000E94C322C90105966AE070E00E94AF2243
:1004C00070930303609302030530110520F0F3E0FD
:1004D0002F16310468F41092050310920403269637
:1004E000E2E10C941B231092030310920203ECCF61
:1004F0009401A8EEB3E00E94E522910150E040E0B3
:100500000E94C322C90105966AE070E00E94AF22F2
:100510007093050360930403E2CFEAE4F1E090E016
:10052000A0E2B0E022E1981322C06F3F91F4292F9E
:1005300030E0220F331FF901E65BFE4F40814F5F31
:1005400040838181481708F01082265B3E4FF901F5
:10055000608122E130E0933011F42AE030E0629FC4
:10056000C001639F900D11248A0F9B1F0895318154
:10057000329FA00DB11D11249F5F3296D4CFCF932F
:10058000DF93442361F0FB0124916F5F7F4FFB01F8
:100590003197E4912E13F9CF4150B9F7422F9B01C7
:1005A000A22FA61BE901F9015491541304C08A2F0C
:1005B000DF91CF9108952F5F3F4FFE01C491A80FA7
:1005C000B92FB11DCC93ECCF211101C00895362F66
:1005D000442329F04150FC01E40FF11D30812150EA
:1005E000FC01E20FF11D3083EFCFB0E0A0E0EBEFB4
:1005F000F2E00C940523082F6A017B01AB01960100
:10060000EC019AE0892E912CA12CB12CCA01B901E0
:10061000A50194010E94C32221961C2F101B2115B5
:1006200031054105510591F718828AE0882E912CF9
:10063000A12CB12CC701B601A50194010E94C322CF
:1006400069017A01605D6A93C114D104E104F10487
:1006500089F7812FCDB7DEB7ECE00C942123FC01A4
:10066000962F9F70905D918362956F70605D60833F
:100670000895282F2F708695982F9877822F890FAD
:1006800096959695890F08959BB1907F82958F706E
:10069000982B9BB92C9A2C98089581E4809353024F
:1006A00088E3809352022091140330911503AAEC41
:1006B000B0E00E94E52222E830E040E050E00E94F5
:1006C000C32230935102209350028091190387FF77
:1006D0000CC082E8809353028CE1809352023695DD
:1006E0002795309351022093500290911B03892F3C
:1006F0008F702AE0829F802D112480936802809160
:100700001A03282F2F702093D90292959F709093EF
:10071000DA0282958F708093A3020895AAE1B0E077
:10072000E4E9F3E00C940D23062F9AE1E2E6F1E010
:10073000DE01119601900D929A95E1F70E9439031E
:10074000182F802F0E943903412F4150550B9A01D9
:10075000220F331FE1E0F0E0EC0FFD1F2E0F3F1FD3
:10076000F90120813181820F932F911D6A96E4E077
:100770000C942923FC0180910D03882329F0109209
:100780000D0380818F5F80838081861708F010823F
:1007900080810895482F50E070E060E08CEE92E098
:1007A0000E94F502E82FF0E0E451FD4F9EE29083B5
:1007B0008F5F0895CF93DF93C42FAB01BC018CEE04
:1007C00092E00E94F502CC23D1F0C81750F0D1E09E
:1007D000DC0F2D2F482F60E38CEE92E00E94E402A4
:1007E0008D2F282F30E024513D4FF9019C2F91503F
:1007F00048F42C1B31099EE2F90190838F5FDF9151
:10080000CF91089542914183F2CF80931C03809150
:100810001C03882361F080911D03811108C0809121
:100820000D03811104C080910C03882381F3089586
:100830008091DE02882329F081E08093E802109203
:100840001C0310921D0310920D031092D8021092F7
:10085000DE021092D70210920C031092D602809101
:100860001C03882341F080911C03882321F0809190
:10087000E8028823C1F308958093BB0084E8809345
:10088000BC008091BC0087FFFCCF9091B900987F9D
:10089000983119F081E0983209F480E008958111CF
:1008A0000AC084EC8093BC008091BC0087FFFCCF21
:1008B0008091BB00089584E8F5CF84E98093BC0063
:1008C0008091BC0084FDFCCF089594EA9093BC0015
:1008D0009091BC0097FFFCCF0E943C04089580EDEE
:1008E0000E94650481111DC00E943C0480E00E94AA
:1008F0003C0480911E030E943C0480911F030E94CF
:100900003C04809120030E943C04809121030E94BA
:100910003C04809122030E943C04809123030E94A6
:100920003C040E945D040895CF93DF93D82FC62F17
:1009300080ED0E946504811106C08D2F0E943C0449
:100940008C2F0E943C040E945D04DF91CF9108959A
:10095000CF92DF92EF92FF92FB01C0901603D12C51
:10096000F12CE12C411116C02091520230E0DC0143
:100970000E94E522A70196010E94C322C9010596A3
:100980006AE070E00E94AF22CB01FF90EF90DF9011
:10099000CF900895A0915002B09151029C010E9405
:1009A000E5229F0150E040E00E94C322CA01B90144
:1009B000E1CFFC01AEE1B3E08C91808311968C9184
:1009C0001197818313968C911397828314968C913F
:1009D0001497838315968C918483089580910302E4
:1009E000811162C08AE080930302809124038F7793
:1009F0008093240380ED0E94650481112DC00E9424
:100A00003C0481ED0E94650480E00E944F049091B7
:100A1000240387FB97F990589093240380E00E9469
:100A20004F0480931E0380E00E944F0480931F03B5
:100A300080E00E944F048093200380E00E944F04D6
:100A40008093210380E00E944F048093220381E081
:100A50000E944F04809323030E945D04809124032D
:100A600087FF04C08091230381111EC08091C802BA
:100A700080931E038091C90280931F038091CA0254
:100A8000809321038091CB02809322038091CC023A
:100A9000809323038091D002809320030E946F04EF
:100AA00060E08FE00E949404089580917A029AEFAA
:100AB000980F943060F110922502109282021092E9
:100AC000810280E891E0909384028093830286E023
:100AD00080937F028093790280937A0210927B0246
:100AE00010927C0210927D0210927E02109275028A
:100AF00010927602109277021092780210925702AA
:100B0000109256021092590210925802089586309F
:100B100069F120917F0280917B0290917C02A091EB
:100B20007D02B0917E0204C0B695A79597958795F2
:100B30002A95D2F79093570280935602209179021A
:100B40008091750290917602A0917702B09178021F
:100B500004C0B695A795979587952A95D2F7909357
:100B600059028093580281E0809325020895EF9204
:100B7000FF920F931F93CF93DF93FC01CB0124814E
:100B800021110CC0AB0170E060E0408351836283AF
:100B90007383CDB7DEB7E6E00C94272327FF2BC085
:100BA0002F772483222359F002C0880F991F2A959A
:100BB000E2F7B0E0A0E080839183A283B383448115
:100BC000042F0150110B21E030E0002E02C0220F53
:100BD000331F0A94E2F780819181A281B381820F51
:100BE000931FA11DB11D04C0B695A7959795879534
:100BF0004A95D2F7CECF40815181628173817A01CB
:100C00008B01E80EF91E011D111DD801C701C22F6D
:100C1000C150DD0B8E01C1E0D0E002C0CC0FDD1F62
:100C20000A95E2F74C0F5D1F611D711D04C076959A
:100C30006795579547952A95D2F7841B950BA60B78
:100C4000B70BB9CFFC01908180911D03882329F057
:100C5000941781F09F5F20931C0380910C038823DD
:100C600039F0961711F04FEF490F20931C03942F82
:100C700090830895962FEFCF609114027091150222
:100C80000E94B7059093450180934401209144014F
:100C9000309145018091460190914701281739070D
:100CA00090F4809144019091450190934701809385
:100CB0004601809144019091450181389105B8F039
:100CC00010920902089520914401309145018091CC
:100CD0004801909149018217930758F78091440188
:100CE000909145019093490180934801E2CF81E0C2
:100CF000809309020895809124028823B1F08091A5
:100D0000EF018F5F8093EF018A3029F41092240263
:100D10001092180208958091F0019091F1018C5386
:100D2000964F9093F1018093F00108958091ED0129
:100D3000882339F18091E6018F5F8093E6018C333F
:100D400061F41092ED0115BC1092600210925B02EA
:100D500010925A021092DD0208958091E90190915B
:100D6000EA01A091EB01B091EC018C53964FAF4F8B
:100D7000BF4F8093E9019093EA01A093EB01B093F8
:100D8000EC010895B0E0A0E0E8ECF6E00C94092353
:100D90007C018B01D42EC801880F892F881F990BE5
:100DA00091958E70D82FD06ACBE0C15059F40E9433
:100DB0005D04C11105C0CDB7DEB7E8E00C94252372
:100DC000DC2EE9CF8D2F0E946504813039F48FE944
:100DD0009FE00197F1F700C00000E7CFC0E081116C
:100DE000E6CF802F0E943C04CD2DF7016F019FEFCD
:100DF000C91AD90A80810E943C04C150C601800FE3
:100E0000911F8E199F099C012F703327232B31F0DE
:100E1000F601C111EBCF8C017601C9CF8C017601AF
:100E2000C6CF48E168E070E08AE491E00E94C20623
:100E30000895579A5F988FE797E00197F1F700C000
:100E400000005798E7E1F1E03197F1F700C00000AA
:100E500089B1E7E6F6E03197F1F700C00000809530
:100E6000881F8827881F0895579A5F9880E28A957F
:100E7000F1F75798E0E3EA95F1F789B1EBEDF0E08F
:100E80003197F1F700C00000881F8827881F089558
:100E9000579A5F9880FF0BC080E28A95F1F75798C8
:100EA0008FEF90E00197F1F700C0000008958FEEFA
:100EB00090E00197F1F700C00000579895E39A95EC
:100EC000F1F7F3CFCF93DF93D82FC8E08D2F817048
:100ED0000E944807D695C150C9F7DF91CF91089578
:100EE000A9E0B0E0E6E7F7E00C9407237C0185E594
:100EF0000E946207870188E0E80EF11CF8018191E9
:100F00008F010E9462070E151F05C1F78EEB0E942C
:100F10006207CE0101967C015E019AE0A90EB11C28
:100F2000670108E010E016950E94340781111068EF
:100F30000150C9F7F60111936F01EA15FB0589F716
:100F40008A8199818927982789279093EB0280933A
:100F5000EA02398529E080E0215041F491E038131C
:100F600090E0892F2996EAE00C942323F7019191D0
:100F70007F01892798E04CE8869508F484279A95A4
:100F8000D9F7EACF0E941907882339F08CEC0E9428
:100F9000620784E40E94620781E00895CF92DF92A5
:100FA000FF920F931F93CF93DF936C01042F46178B
:100FB00008F4642F10E0213029F0102F161B233085
:100FC00009F41695C12FC60FD0E0D11708F1DC1730
:100FD000F8F4F601F080C60101966C012A9A8F2D73
:100FE0000E9444038F2D8295807F0E944403E3ED8D
:100FF000F0E03197F1F700C00000DF5F0D13E5CF9F
:10100000DF91CF911F910F91FF90DF90CF900895C6
:1010100080E2F82EE3CFCF93C82F2A980E94440392
:101020008C2F8295807F0E94440383ED90E001978E
:10103000F1F700C00000CF91089581E00E940B08F5
:101040008FEB91E20197F1F700C000000895CF9374
:10105000DF93C62FD42F0E940B082D2F48E06C2F52
:101060008CEE92E00E94CE07DF91CF9108951F93FE
:10107000CF93DF93C82F142FD22F8FEF860F8E3F81
:1010800080F040E06DE273E08CEE92E00E94BF02DF
:1010900042E068E08C2F0E942708DF91CF911F91DA
:1010A00008958CEE92E00E942F03812F0E94390355
:1010B000482F6CEF72E08EEE92E00E94BF0287E252
:1010C0008093F1026D2F82EF92E00E942F03E0CF18
:1010D000B0E0A0E0EEE6F8E00C940A23D82F7B0104
:1010E000D42EFB01808591850CE310E0B8010E94AD
:1010F000AF22AB0170E060E08CEE92E00E94F5025E
:10110000C82FE82FF0E0E451FD4F8AE38083F70118
:1011100080859185B8010E94AF226AE070E00E944C
:10112000AF226295607F680F81E08C0F90E0845160
:101130009D4F0E942F0363E06C0F4D2D8D2F0E9459
:101140002708CDB7DEB7E7E00C942623CF93DF93D3
:10115000C62FD42F0E940B082D2F40E16C2F8CEE50
:1011600092E00E94CE07DF91CF9108951F93CF9315
:10117000DF93CEE1D3E0188169818CEE92E00E948A
:101180002F038AE38093EE02612F8FEE92E00E949C
:101190002F0341E065E080E80E9427082D814C8103
:1011A0006B8188E80E9437084A8162EC72E08CEE1D
:1011B00092E00E94BF0241E0682F80EC0E94A608E6
:1011C000DF91CF911F91089580911D03811103C07C
:1011D00080910D03811110921C0340E06DEE71E0CF
:1011E0008CEE92E00E94BF0241E0682F80EC0E94EA
:1011F000A6080895CF93DF932091DE02222369F1A0
:10120000EC011092DE020E941D0840E0BE018CEE4F
:1012100092E00E94BF0243E0682F80E80E94A60887
:1012200085E00E94050490910D0381E0911101C0B9
:1012300080E010921D0310920D031092D8021092BC
:10124000DE021092D70210920C031092D60291E0A7
:101250009093E802DF91CF91089580E0FBCF1F9338
:10126000CF93DF9365E083EA92E00E94BA03409156
:10127000A3024F5F6EEF71E08CEE92E00E94BF021E
:1012800041E0682F80E80E94A608C091A302C11126
:101290005CC0609185027091860280918702909176
:1012A000880220E13EE040E050E00E94C322CBE80B
:1012B000D2E0A90170E060E08CEE92E00E94F502BD
:1012C000182F8091A30248E0811101C045E0812FD1
:1012D00090E060EE70E084519D4F0E94BF02810F4C
:1012E000E82FF0E0E451FD4F90E2908361E0680F59
:1012F00042E080EC0E9427082D814C816B8188ECB4
:101300000E9437088AEB91E00E94FA088823C9F00E
:101310000E94EE048091A302823040F41092850274
:101320001092860210928702109288021982188207
:10133000809121038B83809122038C8380912303EE
:101340008D83DF91CF911F91089586E0C89FE001C2
:101350001124CB57DD4F28813981ABCFA1E0B0E01C
:10136000E4EBF9E00C9401232B013C0149015A0103
:10137000BA01A9018CEE92E00E94F502F82E481401
:1013800059046A047B0468F4B301A2018CEE92E074
:101390000E94F5022F2D482F60E38CEE92E00E9410
:1013A000E40280E190E08F1991099695879510EC01
:1013B000180F19828AE080931C0300E0DD24DA9480
:1013C000DF0C1092E80280911C03811113C081E0B0
:1013D0008093E8020CEE12E020E030E0A901D80191
:1013E000ED918D01E11184C0CA01B9012196E0E1BE
:1013F0000C941D238091180380FF4CC0002309F436
:1014000049C0898190E084519D4FDC01EC902AE035
:1014100049E360E30E94220680910D03882351F086
:1014200010920D038091180380FF3AC000958AE066
:1014300080931C03ECEEF2E020E030E0A901C190C3
:10144000C1103AC082169306A406B50648F4E98195
:10145000F0E080911803E451FD4F80FF42C0E0822C
:101460008CE00E940B081F3F29F041E06F2D812F77
:101470000E9427088981810F9091180390FF34C042
:10148000011132C00E940B088EE00E940B080E94DE
:10149000180497CF2AE04D2D60E0CE010196BACF17
:1014A000E981F0E0E451FD4F80818F5F8A3310F4D1
:1014B0008083BDCF80E3FCCFBEE2CB1609F4BFCF63
:1014C000AAE0B0E00E94F4224C2D4053550B9A0143
:1014D000032E000C440B550B260F371F481F591FB6
:1014E000AECF80E38083BCCF0E940B088FE0CDCFCE
:1014F000EE3209F474CFAAE0B0E00E94F422AE2FDD
:10150000A053BB0B9D01032E000C440B550B260F63
:10151000371F481F591F63CFCF93DF93CEE0D3E02F
:10152000688179818A819B812FE332E44FE050E02A
:101530000E94AE09688379838A839B83DF91CF9170
:101540000895CF93DF93CEE0D3E06E817F8190E06A
:1015500080E02FE235E740E050E00E94AE097F8353
:101560006E83DF91CF910895ADE0B0E0EAEBFAE051
:101570000C9407230E94EE0488E690E00E94FA088B
:10158000882309F4D1C01D860E941D088AE080933B
:101590001C03F12CE12C8AE0C82ED12C1092E80219
:1015A00080911C0381110AC081E08093E802E11060
:1015B0000E946F042D96EAE00C9423238091180377
:1015C00080FF09C080910D038111F094FF2019F074
:1015D000FF24FA940EC02AE045E060E0CE010D96AB
:1015E0000E9422060D8585E0089F80011124025685
:1015F0001E4F8091180380FF1FC080911D03811131
:1016000004C080910C03882311F0F1101CC08CE001
:101610000E940B080E94B6088091180380FF7EC0CC
:10162000F1107CC0F80184810E940B088EE00E94BA
:101630000B080E941804B2CF80910D03882339F360
:1016400080910D0357C080910C03882309F450C08A
:10165000F801E380A080B180F50180810E94390308
:10166000F8019281981718F4EE24EA94E80E8E2D72
:1016700090E0B6010E94AF226295607F860FF5016F
:1016800080838D858250833068F58CE0ECE7F1E053
:10169000DE01119601900D928A95E1F78091230366
:1016A0000E943903E82E809122030E943903B82E4C
:1016B000809121030E9439039E2D980F8E2D8695CF
:1016C0008695980FFE01EB0DF11D8081980F8E2DF0
:1016D000837021F4F2E0FB1508F091509830E0F4AB
:1016E000909320038AE080931C03EE24E3948FCF31
:1016F00080911D03882329F2F801E280A080B18047
:10170000F50180810E943903F8019381891708F05F
:10171000AECFEE24E394AACF9750E0CFF8018481B6
:101720000E940B088FE083CF0E94B60843CFEF9250
:10173000FF920F931F93CF93DF93182FF62EE22E75
:1017400060EE70E08CEF92E00E94BF02D82FC82FAD
:10175000CF0D2C2F4F2D60E28CEE92E00E94E40220
:10176000D150E0F48C2F90E04E2D60EE70E084516B
:101770009D4F0E94BF02D82F1F3F59F0812F0E941A
:101780000B086C2F6D0F202F48E08CEE92E00E942A
:10179000CE07CDB7DEB7E6E00C942723ED2FF0E0BF
:1017A000E451FD4F80898083DBCFA1E0B0E0EBED19
:1017B000FBE00C940B238983162FF42EE22E8AE093
:1017C00080931C031092E80280911C03811108C0D1
:1017D00081E08093E80289812196E6E00C9427233A
:1017E0004E2D6F2DCE0101960E94BA01498118300D
:1017F000B1F4242F30E0A8EEB3E00E94E522AB0163
:10180000BC018CEE92E00E94F50202E0212F4EE036
:10181000682F84EC0E94970B0E941804D3CF50E0ED
:1018200070E060E0EECFCF93DF932AE044E060E029
:101830008FE492E00E94220680914F028F5F0E9407
:10184000CA03C82F40914F024F5F90E06EEF71E0E6
:1018500084519D4F0E94BF026C2F680F41E080ECC5
:101860000E94A60880910D03882361F110920D0358
:1018700040914F024F5F6EEF71E08CEE92E00E945C
:10188000BF0241E0682F80E80E94A60840E060E0C7
:1018900080EC0E94A60880914F02811116C06091D1
:1018A000890270918A0290E080E02FEC37E040E0FE
:1018B00050E00E94AE0970938A02609389028AE028
:1018C00080931C03DF91CF9108958150990B26E0FE
:1018D000289FE001299FD00D1124CB57DD4F2CE329
:1018E00040E068E088850E94D50B8887E8CF80912A
:1018F0001B032AE041E061E08F700E94D50BEAE112
:10190000F3E0982F9F708181807F892B81830895D8
:10191000CF93DF93CEE0D3E02FEF41E06EE08885F8
:101920000E94D50B8887DF91CF910895EF92FF92A7
:101930000F931F93CF93DF93F82E162F042F262F8C
:10194000207FE22ED62FDF70ED2FF0E0EE0FFF1F8D
:10195000E45FFE4F808191819093EB028093EA02D5
:1019600081389807B1F441E062ED71E08CEE92E0CD
:101970000E94BF02D33009F04FC020E1482F60E23F
:101980008CEE92E00E94E402CDB7DEB7E6E00C9464
:10199000272397FF3CC09195819591099093EB0285
:1019A0008093EA028DE28093EC02C1E02091EA028A
:1019B0003091EB02B9016F7077274AE0469FC00172
:1019C000479F900D112454E0969587955A95E1F71D
:1019D00064E0369527956A95E1F7429FB001439FF1
:1019E000700D1124860F971F9093EB028093EA02EB
:1019F0006AE070E00E94AF22AB0170E060E08C2FE3
:101A000090E084519D4F0E94F5028C0FB3CFC0E04F
:101A100065FDCCCF8BE2C7CFE7FE10C028E0482F92
:101A200060E28CEE92E00E94E40242E04D0F62ED33
:101A300071E08CEE92E00E94BF0288E02EE014FD7F
:101A40002AE04EE0682F8F2D0E94970B9DCF0F93B9
:101A5000CF93DF93C82FD42F022FFB018081918178
:101A600025E0880F991F2A95E1F72091170362E777
:101A7000621B70E00E94AF2290E080E041E00E9493
:101A8000DA0327E04D2F682F8C2F0E94970BDF91F0
:101A9000CF910F91089546EE6CE887E193E00E94A4
:101AA000BA0122E04EE064E471E084EC0E94270D6C
:101AB0000895EF920F93CF93C82FCB01BA01611510
:101AC000710581059105B9F427FF15C040E065EB6C
:101AD00070E08CEE92E00E94BF02202F2F70402F0A
:101AE00042954F700E2D682F8C2F0E94970BCF912F
:101AF0000F91EF900895422F4F770E94DA03EDCFB8
:101B000030E020E020FD0FC05E9A90E040E54A956D
:101B1000F1F79F5F8913FACF2F5F3F4F621773076B
:101B200089F75E9808955E98F0CF6AEF70E089E1DA
:101B30000E94800D60E971E08FE00E94800D0895A1
:101B4000B0E0A0E0E6EAFDE00C9409238C016B0113
:101B5000C42FCB01880F892F881F990B9195D82FFF
:101B6000DE708D2F806AE82E3BE0F32EFA94F110A0
:101B700008C04C2F50E06FEF70E0C8010E94432373
:101B800021C08E2D0E946504813039F4EFE9FFE019
:101B90003197F1F700C00000E9CF8111EACF8C2D19
:101BA0000E943C048D2F816A0E9465047801DC2F1D
:101BB000D15079F4C150C00FD12FD11D81E00E94C6
:101BC0004F0488830E945D04CDB7DEB7E8E00C9433
:101BD000252380E00E944F04F70181937F01E8CF25
:101BE000CF92DF92EF920F931F93CF93DF93809169
:101BF0000D03882361F08091DB02823028F48F5F2F
:101C00008093DB0210920D038EE180931C03809180
:101C10001C03882321F08091DE02882379F0109242
:101C2000DE028091DB02882319F081508093DB0271
:101C30008091DB02811126C010921C039091DB027F
:101C4000E091E402F091E502828191111FC08F7D45
:101C5000828340E064E371E08CEE92E00E94BF0278
:101C600041E0682F80E80E94A60840E060E080EC38
:101C70000E94A608DF91CF911F910F91EF90DF9006
:101C8000CF9008958EE180931C03D8CF8062828329
:101C9000913009F445C0923069F780913D028F3F41
:101CA00009F426C140913E0241502EE160E08FE3ED
:101CB00092E00E9422069091400280913F02981784
:101CC00009F479C0C0914102DAE0C33009F0D2E1F1
:101CD00090913F0280913D02682F992341F020911D
:101CE0003E02622F680F691B891708F0621B8C2F58
:101CF0000E948D024D2FBC0186E292E00E94A00D51
:101D00008091260290913F02853A09F447C08A3AB1
:101D100009F444C0992309F441C010923F02D8CF7E
:101D20002EE143E060E081E492E00E94220640E080
:101D300064E371E08CEE92E00E94BF0241E0682F04
:101D400080E80E94A608809141028F5F0E94CA032A
:101D5000C82F409141024F5F90E06BE071E08451E9
:101D60009D4F0E94BF026C2F680F41E080EC0E94E3
:101D7000A608E0914102F0E0EE0FFF1FE65BFE4F88
:101D8000808180933D02818180933E0210923F02C8
:101D90008FEF8093400210923C026CCF90934002F0
:101DA000853A09F4CAC08A3A09F4C7C09111C5C07E
:101DB0008FEF80933D0280913D028F3F09F498C0E0
:101DC00080914102833009F0CCC000913A02109119
:101DD0003B0268018FEFC81AD80AF801468150E02B
:101DE00070E060E08CEE92E00E94F502C1E0C80F66
:101DF000E82FF0E0E451FD4F8DE28083F801478148
:101E000050E070E060E08C2F90E084519D4F0E9484
:101E1000F5026C2F680F41E080EC0E942708E091EA
:101E20003A02F0913B026085718590E080E042E0EB
:101E30000E94DA0302E029E04EE0682F88EC0E945D
:101E4000970B80913F028F5F0E94CA03082FC82F13
:101E5000D0E0C451DD4FF6016281CE010E942F0314
:101E6000F60183810E943903482F6CEF72E0CE01A6
:101E700002960E94BF02182FE2E0E80FEC0FFD2F40
:101E8000F11D87E2808383E0810FF60164818C0F6E
:101E90009D2F911D0E942F03E5E0E10FEC0FFD2F18
:101EA000F11D80E2808386E0810FF60161818C0F55
:101EB0009D2F911D0E942F03E8E0E10FEC0FFD2FF5
:101EC000F11D8AE3808389E0810FF60160818C0F28
:101ED0009D2F911D0E942F03100F6BE0610F41E0B9
:101EE00080E80E94A60880913D028F3F09F0C2CE93
:101EF000409141024F5F6BE071E08CEE92E00E94F6
:101F0000BF0241E0682F80E80E94A60840E062E03E
:101F100071E08CEE92E00E94BF0241E0682F80ECFD
:101F20000E94A60880910D03882309F4A3CE109285
:101F30001C0381E08093E8029DCE10923C028091C8
:101F40004102833039F486E292E090933B02809321
:101F50003A0231CF86E292E09093390280933802C0
:101F60002ACFE0913802F09139026F018FEFC81A41
:101F7000D80AEF0126968081853A29F4CE010E9485
:101F8000E401C0E0D3E080910D03882389F08091C3
:101F90004102833039F080913C028F5F833008F535
:101FA00080933C028EE180931C0381E08093E802E1
:101FB00080913C02813079F1B8F0823009F041CF54
:101FC0004E815F8170E060E0EE24E39406EE21E054
:101FD00080EC0E94590D42E060E088EC0E942708E6
:101FE00030CF10923C02DECF4881598170E060E032
:101FF000EE24E39408EE21E080EC0E94590D4C8120
:102000005D8170E060E082E0E82E03EE21E888EC7C
:102010000E94590D16CF4A815B8170E060E0EE248A
:10202000E39401EE21E880EC0E94590D42E0BE01EC
:1020300088EC0E94680805CFA1E0B0E0E2E2F0E1A0
:102040000C940523009118031091190319828AE05A
:1020500080931C033FE0C32ED12CAA24A394B12C5F
:102060005DE2952E6AE2862E1092E80280911C03B2
:1020700081110BC081E08093E80210931903009353
:1020800018032196ECE00C9421232AE04FE060E055
:10209000CE0101960E94220689819601281B3109F2
:1020A000750102C0EE0CFF1C2A95E2F780910D032A
:1020B000882329F00E251F258AE080931C038CE0DD
:1020C0000E940B08E022F122E114F10409F040C063
:1020D000FF24F394ECEEF2E080E120E030E8A80188
:1020E00042235323452BB9F18082369527958150A1
:1020F00031968111F4CF40E060E180EC0E94A608A7
:1021000040E150E060E270E08CEE92E00E944323F8
:1021100049814F5F6EE471E08CEE92E00E94BF0255
:10212000882339F04F2D63E471E088EF92E00E943C
:10213000BF0240E060E180E80E94A60889818054E7
:102140000E940B088FE00E940B080E9418048CCF9D
:1021500022E0F22EBFCF9082C8CFA2E1B0E0E3EB45
:10216000F0E10C940A238B01882309F44AC0809182
:1021700054028823C1F182E00C3B180709F04BC0E0
:1021800085E0E2E5F1E0DE01129601900D928A957C
:10219000E1F732E5E32E31E0F32ED12CC8010E94A5
:1021A000E4018091000390910103892BA9F08AEA50
:1021B00089838CE0E0E0F3E0DE01179601900D9258
:1021C0008A95E1F76FEF8D2D0E948D0242E1BC01EF
:1021D000CE0101960E94C2060E94EE04C7010E9431
:1021E000D9040E9411078CE0F80111928A95E9F751
:1021F0004DE250E060E170E084EA92E00E948722C4
:1022000006C08AEB91E00E94FA088111B0CF629675
:10221000E7E00C942623E2E0043A1E0781F485E00F
:10222000E7E5F1E0DE01129601900D928A95E1F763
:1022300027E5E22E21E0F22EDD24D394AFCFF2E0A9
:10224000003B1F0781F685E0ECE5F1E0DE01129628
:1022500001900D928A95E1F78CE5E82E81E0F82E49
:1022600092E0D92E9BCFCF92DF92EF920F931F93E4
:10227000CF93DF93E091E402F091E502C281CF7049
:10228000C13069F48091190311E0C3E081FF02C0FD
:10229000C3E012E04CEBC42E42E0D42E0DC013E09C
:1022A00034EAC32E32E0D32EC23031F0C2E014E063
:1022B00050EBC52E52E0D52E40E06AED70E08CEE7A
:1022C00092E00E94BF02D82F90E0412F6DEC70E0A9
:1022D00084519D4F0E94BF026D2F680F41E080E83E
:1022E0000E942708C6010E94E4014091000350911A
:1022F000010370E060E022E0E22E08EE21E088E8D1
:102300000E94590D6C2F8BED92E00E94BA03813030
:1023100051F170F08230C1F1B60180E00E94AD1041
:10232000DF91CF911F910F91EF90DF90CF900895A3
:10233000409104035091050370E060E0EE24E394C3
:1023400003EE21E880EC0E94590D40910203509168
:10235000030370E060E092E0E92E01EE21E888ECF2
:102360000E94590DD9CF41E060E073E080EC0E94FB
:102370006808409106035091070370E060E082E036
:10238000E82E06EE21E0EBCF4091CE025091CF0235
:1023900070E060E0EE24E39401EC21E080EC0E9428
:1023A000590D42E060E088EC0E942708B5CFA2E218
:1023B000B0E0EDEDF1E10C94002386E0E8E8F1E017
:1023C000DE01599601900D928A95E1F71F8E18A2B1
:1023D00019A21AA2CE0101965C01712C8C0166240F
:1023E000639410924402809143028111ADC00E9417
:1023F0001907811158C010924202109243020BC07B
:102400009D9191938150E1F798E0A90EB11C7394CE
:10241000A3E07A12E6CF0E94C20710924E0284E631
:1024200080934D028AE080931C0366246A94670CB3
:102430002FE2522E30E3432E470C6E01BFE1CB0E4C
:10244000D11C42E0342E51E8A52EBA2C1092E8029D
:1024500080911C03811184C081E08093E8027E0199
:10246000AFE1EA0EF11C6E01B2E2CB0ED11CF70116
:1024700061917F01662371F06150770B83E0660FF5
:10248000771F8A95E1F7605A7F4F48E050E0C80116
:102490000E948722085F1F4FCE14DF0441F7A296E7
:1024A000E1E10C941C2380EF0E946207812CFF2441
:1024B000F39465E4C62E62E0D62EEE24E3940E94E7
:1024C0003407982E0E943407B1E09B120BC0813074
:1024D000F1F4809144028823B9F1A5E4B2E0F5015A
:1024E00089E090CFF6019081981209C08091420254
:1024F000E81658F48F2D892351F4912C8E2C8F2DB2
:1025000080958923F601808308C0E812F6CFD601B2
:102510008C918F298C9399249394892D0E9448073C
:10252000E394FF0C29F4FFEFCF1ADF0AFF24F394A2
:1025300081E4E812C4CF80924202811002C060920E
:10254000430260924402C5CF1092420210924302AD
:10255000E5E4F2E088E0DF011D928A95E9F75BCFC0
:10256000772009F4CAC080914E02811125C0809164
:102570004D02811121C081E080934E027E01E9E18C
:10258000EE0EF11C48010E941907882361F0C40176
:102590000E947007882339F08091EA029091EB0243
:1025A000D7018D939C93B2E0EB0EF11CE8E08E0E08
:1025B000911CCE14DF0439F72AE0462D60E0CE01ED
:1025C00082960E94220680910D03882369F0EAA179
:1025D000EC0DFD2DF11D8081833009F47CC08F5FEF
:1025E00080838AE080931C0340E150E060E270E069
:1025F0008CEE92E00E94432380914E02882389F062
:10260000EAA1F0E0EE0FFF1FE00FF11F808D918D2A
:10261000909313018093120140E063E08FEF0E94DA
:10262000960C40E064EE71E08CEE92E00E94BF02F6
:102630008AA18F5C8093F5025092F6024092F702D5
:1026400040E060E180E80E94A6088AA198E0899FA6
:10265000F0011124E00FF11FACEEB2E020E12150B7
:10266000E1F5F601E80FF11D40814F5F62ED71E089
:1026700088EF92E00E94BF0224E0482F60E288EFDA
:1026800092E00E94E40240E060E180EC0E94A60833
:102690008AEB91E00E94FA088823D1F081E08F8FC5
:1026A00038A283E089A3B0920D01A0920C01B092F0
:1026B0000F01A0920E01B0921101A092100148E109
:1026C00050E06FEF70E0C8010E94432310921C039A
:1026D0000E941804BBCE108284CF908120FF09C0D5
:1026E00092959F709F709A3030F0995C9C931196F0
:1026F000B6CF3196F7CF905DF9CF46E06EE472E049
:102700008CEE92E00E94BF0241E0682F80E80E94B8
:10271000A60840E150E060E270E08CEE92E00E949A
:10272000432340E061EC71E08CEE92E00E94BF0236
:10273000AACFABE0B0E0EFE9F3E10C94FF22809187
:10274000180380FF1FC18091D702882341F08CE3DA
:1027500080931C038091DB0280958093DB02809143
:102760001C03882341F08091E302882331F080919B
:102770001C03833310F41092DB028CEB92E00E9476
:10278000E401E091E402F091E5029091DB028281A4
:10279000911168C28F7D82838091E3028111F5C01F
:1027A0000E94EE0410911E0360911F038CEE92E0D4
:1027B0000E942F038AE38093EE02612F8FEE92E056
:1027C0000E942F0341E065E080E80E942708809185
:1027D000E3028111EEC08091DD028111EAC04091D7
:1027E0000E0350910F03609110037091110302E0EA
:1027F000E02E08EE20E088E80E94590D8091E30267
:102800008111E2C08091DD028111DEC041E0609162
:10281000650280EC0E94960C22E04EE064E471E0D8
:1028200088EC0E94270D8091DC028111A7C0809165
:10283000DD02882309F4A2C08091DE02882309F416
:102840009DC01092DE020E941D081B868AE08093C4
:102850001C031FEF1092E80280911C03811111C12B
:1028600001E00093E8021F3F09F488C040E061E8FE
:1028700070E08CEE92E00E94BF0243E0682F80E897
:102880000E94A608109224021092230210922202A3
:10289000109221021092200210921F0210921E022A
:1028A000C0901403D0901503F12CE12C28E0129F66
:1028B000C0011124FC01E454FE4F5F01608171816D
:1028C00082819381A70196010E94C32230931D0249
:1028D00020931C02F5016481758186819781A7018F
:1028E00096010E94C32230931B0220931A0240E1FA
:1028F00050E06DE370E08CEE92E00E944323109272
:102900001D0310920D031092D8021092DE02109255
:10291000D70210920C031092D60280E180931C0320
:1029200010924D0200931902FF24F3942AEAA22E7A
:102930003CE3E32E44E6B42E50E5952E68E7862E60
:102940007BE0772E212CE9EE3E2EE4EA4E2EE5E3E5
:102950005E2EFEE16F2E80911F0281110DC08091CD
:102960001D03811109C080910D03811105C0809163
:102970000C03882309F4ADC0109219022B96E2E1F2
:102980000C941B238091D802E0CE80916902909133
:102990006A0205966AE070E00E94AF22AB0170E027
:1029A00060E0EE24E39401EE20E080E80E94590DFF
:1029B0000ECF40916B0250916C0270E060E0B2E08B
:1029C000EB2E02EE20E817CF66E089ED92E00E9440
:1029D000BA038230B1F1A0F4882321F1813049F1AA
:1029E00000916702006E40916F025091700270E09A
:1029F00060E0A2E0EA2E21E088EC0E94590D13CF9E
:102A00008430A1F128F1853059F740910E0350919F
:102A10000F036091100370911103EE24E39408EE0C
:102A200020E020C041E06091650280EC0E94960C9D
:102A3000D7CF21E04EE064E471E080EC0E94270DE6
:102A4000CFCF41E060E073E080EC0E946808C8CF1F
:102A5000409100035091010370E060E0EE24E394A4
:102A600008EE21E080EC0E94590DBACF40916D0232
:102A700050916E0270E060E0EE24E3940DEE22E0EF
:102A8000F1CF2AE043E060E0CE010B960E942206DF
:102A900080910D03882319F010921C031B8540E0E0
:102AA0006EEA70E08CEE92E00E94BF02F82E4B8539
:102AB0004F5F90E060E970E084519D4F0E94BF023B
:102AC0006F2D680F43E080E80E94A6080E9418045A
:102AD000C1CE80911C03882391F08091180281114E
:102AE0000EC080914D02811136CF89E180934D0255
:102AF00060911C0343E080EC0E94A6082CCF8091DB
:102B00001C03882309F449C08091230281110AC063
:102B100080911E02811106C060921C03F0921E0279
:102B20000E941D088091180240E050E0BA018823FD
:102B3000C9F0C0901602D090170220911403309172
:102B4000150350E040E0C201B1010E94C322CA0156
:102B5000B901960150E040E00E94C322BA01A901E8
:102B6000662777278CEE92E00E94F50201E021E0D3
:102B70004EE0682F80EC0E94970B609121027091CB
:102B8000220290E080E042E00E94DA0302E029E0C5
:102B90004EE0682F88EC0E94970B80911C038823DD
:102BA00059F080912302811107C070924D028091EB
:102BB0004D028111FCCFCFCE80912302882339F0C2
:102BC00080912002811103C0F0922002C4CE1092A5
:102BD000190280911C03811115C040E069E770E083
:102BE0008CEE92E00E94BF0243E0682F80EC0E94CE
:102BF000A608F2E0F0930B018AE00E940504F0922F
:102C00001F02A9CE80915402882399F3A982809152
:102C10002102909122029A8789871130D9F0B8F069
:102C20001230D9F01330D9F00E94EE04CE01029692
:102C30000E94D9046FEF83E00E948D024AE0BC013C
:102C4000CE0101960E94C2060E941107D2CF1F82B8
:102C5000B886EACF1F82E886E7CFEF82F9CF9F825E
:102C60008886E2CF806282838091D502811106C07E
:102C70008091E9028B3110F41092E9022CE343E0D9
:102C800060E08AED92E00E94220680910D03882385
:102C900019F08CE380931C038091DA02813009F4EF
:102CA00069C0A0F08230D1F1833009F49EC0109247
:102CB0001D0310920D031092D8021092DE021092A2
:102CC000D70210920C031092D60258CE41E06091C8
:102CD000650280E80E94960C22E04EE064E471E018
:102CE00088E80E94270D409102035091030370E091
:102CF00060E0EE24E39401EE21E880EC0E94590D9F
:102D0000409104035091050370E060E092E0E92EE9
:102D100003EE21E888EC0E94590DC9CF8091DE02B4
:102D2000882399F01092DE028091DD02811106C0A5
:102D30008091DC02811102C00E94D7118CE3809344
:102D40001C0381E08093E802B2CF42E060EC80E8AF
:102D50000E94960C42E060E088E80E94270842E06A
:102D600061EC80EC0E94960C42E062EA88EC0E94E2
:102D7000960C9DCF8091DE028823A9F08AEB91E02A
:102D80000E94FA08882361F08091440190914501E6
:102D900090934901809348019093470180934601A5
:102DA0008CE380931C0340E065EC70E08CEE92E0D5
:102DB0000E94BF0241E0682F80E80E94270822E0BD
:102DC0004EE064E471E088E80E94270D21E04BE0CA
:102DD00066E471E080EC0E94270D22E04CE068E49C
:102DE00071E088EC0E94270D62CF8091DE0288237B
:102DF00069F08AEB91E00E94FA08882321F0109292
:102E00007A020E9455058CE380931C0340E06AEB34
:102E100070E08CEE92E00E94BF0241E0682F80E8F3
:102E20000E94A60880912502882301F180917102F9
:102E30009091720205966AE070E00E94AF22AB01A9
:102E400070E060E0EE24E39401EE20E080EC0E946C
:102E5000590D00916602006E409173025091740208
:102E600070E060E082E0E82E21E054CF40E065EBC6
:102E700070E08CEE92E00E94BF02182F01E021E08A
:102E80004EE0682F80EC0E94970B02E023E04EE0BA
:102E9000612F88EC0E94970B0ACF1F920F920FB6FA
:102EA0000F9211242F933F934F935F936F937F93D0
:102EB0008F939F93AF93BF93EF93FF93809178008D
:102EC00090917900909315028093140280E091E034
:102ED0000E943C06FF91EF91BF91AF919F918F911E
:102EE0007F916F915F914F913F912F910F900FBE06
:102EF0000F901F9018951F920F920FB60F921124EA
:102F00002F933F934F935F936F937F938F939F93F1
:102F1000AF93BF93EF93FF9380911302811119C177
:102F20000E9496060E947B0680911202811162C166
:102F30009091180380911102292F217090FD0CC1EE
:102F400031990AC1853618F48F5F80931102809100
:102F50001102843629F481E08093D8028093100214
:102F600080910E02309903C1222329F0811103C000
:102F70009EE190930D0290910D02992319F09150CA
:102F800090930D02853618F48F5F80930E02809126
:102F90000E02843629F481E08093DE0280931002D1
:102FA00080910A0221111BC1329919C1853618F48A
:102FB0008F5F80930A0280910A02843629F481E0AF
:102FC0008093D6028093100290910F0280910B02A1
:102FD000911106C090911002911102C0882399F0BE
:102FE00090910F02992309F40BC110920B011092DA
:102FF0000F0210921002882309F40BC110920B02E9
:1030000081E08093E80280910902882309F405C1D8
:103010008091080291E0980F90930802893139F469
:1030200081E08093E80210921C038093E702809174
:103030000A01815009F4F4C080930A0180914D0285
:10304000882329F080914D02815080934D02809118
:103050000202882349F08091210290912202019678
:10306000909322028093210280910B018F3F09F1FE
:103070008091190385FD04C080910B018230B1F469
:1030800091E0909301021092000280910B01813037
:1030900009F4A2C2823009F4A3C2811107C090933F
:1030A000FF0188E08093FE011092FD018FEF809375
:1030B0000B01809101028823D9F1809100028111D6
:1030C00009C081E0809300028093FC018091FF01A0
:1030D0008093FB018091FC01882351F01092FC0148
:1030E0008091FB01811186C21092010210920002B0
:1030F0008091FA01882359F08091F901811106C06D
:103100001092FA018091FD018093F9015E9A8091FD
:10311000FA01811108C08091F901811103C081E099
:103120008093FC015E988091F90181508093F901B0
:10313000FF91EF91BF91AF919F918F917F916F918F
:103140005F914F913F912F910F900FBE0F901F9065
:10315000189510921302E8CE8550803128F481E052
:1031600080931D0380930F0210921102F9CE222347
:1031700069F1843638F010920D0210920C02109210
:103180000E020ECF8550803138F480910C028F5F93
:1031900080930C0210920B0190910D0280910C0211
:1031A000992331F0823071F481E08093D70204C01A
:1031B000813029F480930D0380930B02DCCF8230A1
:1031C000D1F6F2CF915090930D02D9CF8550803136
:1031D000B0F681E080930D0380930F02D0CF85502D
:1031E000803128F481E080930C0380930F021092C9
:1031F0000A02EACE80911202815080931202E4CE3C
:1032000090911002992309F4F2CE91E090930B0172
:10321000EECE8FE080931202F3CE1092080207CF19
:1032200084E680930A0181E08093E8028091DD02C8
:10323000811105C08091DC02882309F47AC0809155
:10324000850290918602A0918702B0918802019632
:10325000A11DB11D8093850290938602A0938702E1
:10326000B09388028091AC029091AD02A091AE0221
:10327000B091AF020196A11DB11D8093AC02909355
:10328000AD02A093AE02B093AF028091B8029091CC
:10329000B902A091BA02B091BB020196A11DB11D65
:1032A0008093B8029093B902A093BA02B093BB0284
:1032B0008091C4029091C502A091C602B091C7024C
:1032C0000196A11DB11D8093C4029093C502A093E5
:1032D000C602B093C70280917A02893090F440917F
:1032E0008102509182022091830230918402421720
:1032F000530708F0F8C04F5F5F4F5093820240932E
:10330000810260910602709107028BE792E00E94B1
:10331000B705909357028093560260910402709112
:10332000050285E792E00E94B705909359028093C9
:1033300058028091190386FF18C1609106027091AE
:10334000070285E091E00E94B705909362028093A6
:1033500061028091DD02811104C01092620210921C
:10336000610210920702109206028091040290916D
:103370000502892B09F48EC02091040230910502C8
:103380008091120390911303280F391F3093130378
:103390002093120380911403909115032817390785
:1033A00008F442C0281B390B3093130320931203F7
:1033B00040910E0350910F0360911003709111031F
:1033C0004F5F5F4F6F4F7F4F40930E0350930F033C
:1033D000609310037093110320918B0230918C0243
:1033E0002F5F3F4F30938C0220938B0220919102EC
:1033F000309192022F5F3F4F3093920220939102BF
:1034000020919702309198022F5F3F4F309398029E
:103410002093970220919D0230919E022F5F3F4F93
:1034200030939E0220939D02209104023091050268
:103430004091A6025091A702240F351F2817390783
:1034400008F098C03093A7022093A60220910402AE
:10345000309105024091B2025091B302240F351F02
:103460002817390708F097C03093B3022093B202AF
:1034700020910402309105024091BE025091BF029A
:10348000240F351F2817390708F096C03093BF0264
:103490002093BE02809104029091050290936402F1
:1034A0008093630210920502109204028091E90257
:1034B000882329F08091E90281508093E90280916C
:1034C0000302882329F08091030281508093030234
:1034D00080911C03882309F4B1CD80911C03815095
:1034E00080931C03ABCD9AEF980F933008F009CF6F
:1034F00091E0909325028F5F80937A0280937F0200
:10350000809379028091750290917602A091770262
:10351000B0917802880F991FAA1FBB1F8093750274
:1035200090937602A0937702B093780280917B0209
:1035300090917C02A0917D02B0917E02880F991F2C
:10354000AA1FBB1F80937B0290937C02A0937D02F5
:10355000B0937E021092820210928102220F331FDA
:103560003093840220938302CCCE80910602909106
:103570000702EBCE281B390B3093A7022093A6023B
:103580002091A4023091A5022F5F3F4F3093A502F6
:103590002093A4025BCF281B390B3093B3022093F6
:1035A000B2022091B0023091B1022F5F3F4F3093B1
:1035B000B1022093B0025CCF281B390B3093BF02BD
:1035C0002093BE028091BC029091BD02019690931F
:1035D000BD028093BC025ECF8093FF0188E262CD82
:1035E00083E08093FF018EE18093FE0184E180936C
:1035F000FD015CCD81508093FB0181E08093FA0155
:103600008091FE018093F90173CD1F920F920FB646
:103610000F9211248F939F9380910602909107023D
:10362000019690930702809306028091A802815030
:103630008093A802811118C0809153028093A80240
:103640008091A9028F5F8093A90290911603891738
:1036500058F01092A9028091AA029091AB020196B3
:103660009093AB028093AA028091B4028150809320
:10367000B402811118C0809153028093B4028091EA
:10368000B5028F5F8093B50290911603891758F0A9
:103690001092B5028091B6029091B7020196909374
:1036A000B7028093B6028091C00281508093C0021D
:1036B000811118C0809153028093C0028091C10291
:1036C0008F5F8093C10290911603891758F0109272
:1036D000C1028091C2029091C30201969093C302ED
:1036E0008093C2029F918F910F900FBE0F901F90F9
:1036F00018951F920F920FB60F9211248F939F93DC
:10370000EF93FF938091180380FF3BC08091F801F5
:10371000880F880F8093F801319B03C082608093EB
:10372000F801329B05C08091F80181608093F80117
:103730009091F8019F709093F801E92FF0E0E25723
:10374000FE4F80818823E9F08091F7018295807F88
:10375000892B8093F70190911202911112C08B3244
:10376000C9F481E080930C0380911D03811104C092
:1037700080910C03882329F081E080930F0210923E
:103780000B01FF91EF919F918F910F900FBE0F90C2
:103790001F901895873141F781E080931D03E4CF96
:1037A0001F920F920FB60F9211242F933F934F93B6
:1037B0005F936F937F938F939F93AF93BF93EF9399
:1037C000FF9380918400909185009093F6018093FF
:1037D000F501B59B12C02091840030918500809145
:1037E000F5019091F6012817390738F00E949606E6
:1037F0000E947B0681E08093130219996DC080912D
:10380000EE01811121C082E085BD81E08093EE014F
:103810008093DD028093D1029091ED01911139C026
:103820008093ED011092E9011092EA011092EB01F0
:103830001092EC018091F5019091F6019093E801CE
:103840008093E7011092E601189BCAC08091F401B1
:103850008111B2C021E02093F4012093DC02809119
:103860001902882309F4B9C08091240281115AC039
:10387000209324028091F5019091F6019093F30139
:103880008093F2011092F1011092F0011092EF0179
:103890008AC0E091F501F091F6014091E901509163
:1038A000EA016091EB017091EC012091E701309108
:1038B000E8014E0F5F1F611D711D421B530B610913
:1038C000710940935C0250935D0260935E027093B5
:1038D0005F0280936002A6CF8091EE01882309F4F5
:1038E000B3CF15BC1092EE018091ED01882309F44D
:1038F000ABCF8091E9019091EA01A091EB01B091E9
:10390000EC012091F5013091F6014091E7015091D1
:10391000E801841B950B820F931F90935B028093A9
:103920005A0292CF8091F0019091F1016091F501DE
:103930007091F6014091F2015091F301860F971FAB
:10394000841B950B90931702809316022093180204
:1039500080910202811114C0209116023091170249
:1039600080911C0290911D028217930730F4809180
:103970001C0290911D02892B19F481E080930202B0
:10398000209116023091170280911A0290911B0229
:103990008217930708F46ECF81E080932302109280
:1039A0000202109219028091040290910502019680
:1039B0009093050280930402FF91EF91BF91AF9124
:1039C0009F918F917F916F915F914F913F912F9137
:1039D0000F900FBE0F901F90189510922402E3CF06
:1039E0001092F401E9CFAAE0B0E0E9EFFCE10C9419
:1039F000FF2219868CE184B980E185B917B818B81F
:103A00008FE68AB980E28BB992E094BD15BC16BCF2
:103A100025E627BD18BC1092800028E12093810084
:103A2000109285001092840029E02093870023ECF7
:103A300020938600109289001092880010928B00CB
:103A400010928A0090936E0080936F00109269002C
:103A50001DBA83E080936B0096E090936C00109207
:103A60006D00809368008BBB1092C10080E880BF1E
:103A700010927F0010927E0083E480937C008FEA96
:103A800080937A0087E080937B001CBC1092B90081
:103A90008CE08093B800309B51C14EE050E070E064
:103AA00060E08EE093E00E9477224DE250E060E11A
:103AB00070E084EA92E00E9477224EE150E060E4F8
:103AC00070E085E892E00E94772240E150E068EBE8
:103AD00070E085E792E00E94772280915502813064
:103AE00009F052C1809118038E7F809318032A9A9F
:103AF0002C9A5FEF80E792E0515080409040E1F7D0
:103B000000C0000018E080E0143008F480E30E9458
:103B10004403133008F43FC1EFE0F0E43197F1F7CC
:103B200000C00000115079F782E00E940B0888E283
:103B30000E940B0888E00E940B0887E10E940B0896
:103B40000E941D088CE00E940B0886E00E940B0872
:103B500008E710E088E8800F80640E940B0848E0C6
:103B600050E0B801CE0101960E94772220E048E0A3
:103B700068E0CE0101960E94CE07085F1F4F083B08
:103B8000110541F70E944D030E94EE0448E070E0E9
:103B900060E0CE0101960E94A00D48E050E06CED7F
:103BA00071E0CE0101960E943623892B09F4F8C0FA
:103BB00088E0ECEDF1E0DE01119601900D928A951E
:103BC000E1F748E070E060E0CE0101960E94C20695
:103BD0000E94EE0482E591E00E94D90487E591E01D
:103BE0000E94D9048CE591E00E94D9040E9411073B
:103BF00048E070E060E0CE0101960E94A00D48E030
:103C000050E06CED71E0CE0101960E943623892BC5
:103C100009F4C6C01092540280915402882339F0EE
:103C200048E168E070E08AE491E00E94A00D809194
:103C30005402811105C08091430180688093430143
:103C40008091240387FFC3C01091CC02809123038D
:103C50000E943903F82E812F0E943903F81AF7FCCD
:103C6000A5C091E09F150CF44BC060912103809199
:103C700022030E948E038C016091CA028091CB02C4
:103C80000E948E0330E020E0FF2011F02DE631E0AD
:103C9000F801E81BF90BCF01820F931F97FD86C037
:103CA000823091056CF59091190391FD7DC000E083
:103CB000811108E1F090C90280911F030E9439032D
:103CC000182F8F2D0E943903010F081B07FD6EC0AE
:103CD000F090C80280911E030E943903182F8F2D87
:103CE0000E943903181B812F082E000C990BFCE34E
:103CF0000F02800D911D1124893791050CF456C0D7
:103D00006CEB72E081E00E94AD101092CF02109235
:103D1000CE024CC0EFE3FCE93197F1F700C00000A0
:103D2000815069F480915502823048F58F5F80930D
:103D3000550210E080915502181788F086E9309BF3
:103D4000E9CF309BA8CE80915502882309F4A3CEF9
:103D50000E94950D0E94950D0E94950D9CCE6FEFCF
:103D600070E08FE00E94800DFFEF22E547E0F15008
:103D700020404040E1F700C000001F5FDBCF309BD8
:103D8000FECF10925502DACF823009F0B0CE80918A
:103D900018038160AACE8FE891E00197F1F7C0CEB9
:103DA00081E08093540238CF8111AACF809119030A
:103DB00082FF0DC08091CD02882349F090912203AB
:103DC000891729F060EB72E081E00E94AD100E943B
:103DD000550580918100887F83608093810078946D
:103DE00081E08093E9028091190384FF5DC0E09037
:103DF0008902F0908A02609185027091860280911A
:103E000087029091880220E13EE040E050E00E946D
:103E1000C322E5E8F2E010E090E080E068EE73E0B5
:103E2000A1E0B0E0811168C1E114F10421F02E1588
:103E30003F0508F01160019636968530910591F79F
:103E400000E082E0F82E0F5F10FF2BC0F0920B0114
:103E500040E06AE372E08CEE92E00E94BF0243E031
:103E6000682F80E80E94A608402F6EEF71E08CEE6C
:103E700092E00E94BF0243E0682F80EC0E94A608F7
:103E800083E00E94050410921D0310920D0310920E
:103E9000D8021092DE021092D70210920C031092F8
:103EA000D6021695053079F680914401909145012E
:103EB000892B21F48091E8028823B1F381E080937B
:103EC000E802612C412C1A8611E0A4E07A2E03E06E
:103ED000B1E82B2E322C8091E802882309F4AFC080
:103EE0001092E802209163023091640280901403E2
:103EF00090901503B12CA12CA0EABCE80E94E52209
:103F0000A50194010E94C322690130936A022093A3
:103F10006902E0906802F12C2E153F0558F080915F
:103F2000CE029091CF028217930720F43093CF02F4
:103F30002093CE02609163027091640280916102CD
:103F40009091620241E0CE14DF0408F440E00E9448
:103F5000A8049093700280936F0280916002509049
:103F600019038111E1C010926C0210926B028091D2
:103F70005A0290915B02880F991F880F991F6AE07F
:103F800070E00E94AF2270936E0260936D02809188
:103F9000DC02882329F0C114D10411F41092DC0250
:103FA0002091580230915902A0EABCE80E94E52213
:103FB000A50194010E94C3225901309372022093FB
:103FC000710260915802709159028091560290914D
:103FD000570241E0AE14BF0408F440E00E94A80478
:103FE0009093740280937302CE14DF0408F4C1C06E
:103FF000009367021093E302AE14BF0408F4BEC03E
:104000000093660281E550FE80E580936502809111
:10401000A4029091A502813D974028F064EA72E0E5
:1040200081E00E94AD108091B0029091B102813781
:10403000974128F060EB72E081E00E94AD10809122
:10404000E702882309F4A0C00E941D08F89480911B
:10405000D102882351F00E94EE0488EC92E00E9485
:10406000D904809120038093D0028091190382FFAC
:1040700088C08091D102811104C08091CD0281114C
:1040800004C0809122038093CD028091D902909147
:10409000DA02292F2295207F90911B039F70922B8B
:1040A00090931B039091A3029295907F8F70892B20
:1040B00080931A034EE050E070E060E08EE093E001
:1040C0000E9487224DE250E060E170E084EA92E0D5
:1040D0000E9487224EE150E060E470E085E892E0C3
:1040E0000E94872240E150E068EB70E085E792E0B3
:1040F0000E9487225D98FFCF5281552309F49BCE01
:10410000569F6001579FD00C1124A080B180AC1441
:10411000BD0408F490CE6D01082E02C0CC0CDD1C4D
:104120000A94E2F71C2987CE60E873EC89EC91E0F1
:1041300057FE04C060EC71EE84EE90E020915C02CA
:1041400030915D0240915E0250915F020E94C32255
:10415000C90105966AE070E00E94AF222AE0269F1E
:10416000C001279F900D112490936C0280936B02E5
:10417000FECE709267021092E3023ECF709266020A
:1041800041CF1092CD0281CF8091E902811112C0FE
:104190008091D5028111CEC01093D5021093E9020F
:1041A0000E94C2078091180387FF04C06CE38EE071
:1041B0000E9494048985482F50E0809FF0011124CB
:1041C0002091E60221113BC1E15DFE4F3091E302F7
:1041D000928197FD28C1311124C1F093E502E0934B
:1041E000E402898746E0F42E8091E00281114CC1FF
:1041F0008091DF0281111CC08091DE028823C1F012
:10420000211133C18091DD02811112C08091DC0245
:1042100081110EC0E091E402F091E5028281807389
:10422000803131F4498469861093E6021093E002EC
:104230008091E002811161C08091DF02811127C16C
:10424000D984DA868091E602811107C0E091E40208
:10425000F091E502828185FD07C02AE04F2D60E0E4
:10426000CE0109960E9422068985CA848C1110937A
:10427000DF028091DF02811140C08091E602882335
:1042800009F429C140E062E472E08CEE92E00E9401
:10429000BF0241E0682F80E80E94A608E090E1029A
:1042A000F090E202F701828182958F708F5F0E9409
:1042B000CA03D82EF70142814F7090E06EE472E09D
:1042C00084519D4F0E94BF026D2D680F41E080EC2C
:1042D0000E94A60880910D03882379F010920D03A7
:1042E0000E941D08FAE0F0931C031092E8028091EE
:1042F0001C038111D1C01093E80210921D0310928B
:104300000D031092D8021092DE021092D702109282
:104310000C031092D6028091E8029091E002809105
:10432000DF022091E8022111D6CD9111D4CD88234E
:10433000C1F3D1CD1092D5028DE18093E9026CE0FA
:10434000A62E61E0B62E72EDE72E72E0F72EE0E6C3
:10435000CE2ED12C48E050E0B601CE0101960E944D
:1043600077220E941907811107C0F70180818530EB
:1043700098F48F5F808313C0CE0101960E9470076E
:10438000882399F38091EA029091EB02F5019183E1
:104390008083F701108203C0F50131822082F8E0AA
:1043A000CF0ED11C22E0A20EB11C4FEFE41AF40A8A
:1043B00058E7C516D10471F68091180387FFFACE2D
:1043C00080ED0E946504811116C081E10E943C04C9
:1043D00081ED0E94650480E00E944F04F82E81E088
:1043E0000E944F0490E09C012F73232B39F03092F0
:1043F0000F0120920E010E945D04DCCE9F2954E043
:10440000959587955A95E1F790930F0180930E014A
:10441000F2CF863021F08F5F0CC086E00AC080E0CA
:1044200008C096FDDACECA848C1598F78823A9F3C4
:104430008150809FF0011124E15DFE4FC9CEEC5EFA
:10444000FE4FF093E202E093E102FA01EE0FFF1F4C
:10445000E40FF51FEA5EFE4F8295807F90819F708A
:10446000892B808338E0F32EBFCE698449864EE0E5
:1044700050E070E060E08EE093E00E9487220E94AE
:104480004D031092E602D2CE1092E002D1CE1092ED
:10449000DB021092DF02EDCEE091E102F091E20248
:1044A00042814F706EE472E08CEE92E00E94BF0297
:1044B00041E0682F80E80E94A608E091E102F091B7
:1044C000E2020190F081E02D09958CE00E940B083A
:1044D0000E9418040ACFE091E402F091E5020190F5
:1044E000F081E02D09958CE00E940B0806CFDC01DD
:1044F000CB01FC01F999FECF06C0F2BDE1BDF89AEF
:10450000319600B40D9241505040B8F70895DC0147
:10451000CB0103C02D910E94922241505040D0F710
:104520000895262FF999FECF1FBA92BD81BD20BDF7
:104530000FB6F894FA9AF99A0FBE01960895DB0126
:104540008F939F930E94F422BF91AF91A29F800D01
:10455000911DA39F900DB29F900D11240895AA1B49
:10456000BB1B51E107C0AA1FBB1FA617B70710F05E
:10457000A61BB70B881F991F5A95A9F78095909590
:10458000BC01CD010895A1E21A2EAA1BBB1BFD019F
:104590000DC0AA1FBB1FEE1FFF1FA217B307E40722
:1045A000F50720F0A21BB30BE40BF50B661F771F7A
:1045B000881F991F1A9469F760957095809590955A
:1045C0009B01AC01BD01CF010895A29FB001B39F33
:1045D000C001A39F700D811D1124911DB29F700D0C
:1045E000811D1124911D08950E94E522A59F900D23
:1045F000B49F900DA49F800D911D112408952F92BA
:104600003F924F925F926F927F928F929F92AF9262
:10461000BF92CF92DF92EF92FF920F931F93CF93AF
:10462000DF93CDB7DEB7CA1BDB0B0FB6F894DEBF46
:104630000FBECDBF09942A88398848885F846E846C
:104640007D848C849B84AA84B984C884DF80EE80B6
:10465000FD800C811B81AA81B981CE0FD11D0FB6BF
:10466000F894DEBF0FBECDBFED010895FB01DC0164
:1046700004C08D910190801921F441505040C8F739
:10468000881B990B0895DC0101C06D934150504087
:08469000E0F70895F894FFCF54
:104698000000000081000000000164FF8181818129
:1046A80081818181880C01A10A028C0A034B0D04C7
:1046B8001C1005770C08D71106130C07E408099994
:1046C8001350331141331102331103B40A042F0973
:1046D80005F00D060000FF030000FF40FF1EFF0C61
:1046E800FF0A0000000000000000000000000000B9
:1046F800000000001F003B005A0078009700B5003A
:10470800D400F300110130014E016D0106020205CB
:104718000003050104060204818181818181000171
:1047280001000100000101000001000101001F0358
:104738000017811E03003B842103011F8922030106
:104748000C8C230317218F20030107C000000000F1
:104758004054890000000000C0E1E400C0E1E4002A
:104768004054890050A9AB00E07072004A4F55527E
:06477800545249500000FC
:00000001FF
